:020000040000fa
:10000000f87f0020d9ab02004dc4020053c40200a7
:1000100000000000000000000000000000000000e0
:100020000000000000000000000000009b850100af
:1000300000000000000000009b8501009b8501007e
:100040009b8501009b8501009b8501009b8501002c
:10005000e14402009b85010035de01009b85010023
:100060009b8501009b8501009b8501009b8501000c
:100070005d8a01009da90100712d01009b85010091
:100080009b8501009b850100095302009b850100af
:100090009b85010000000000000000009b8501001e
:1000a0009b8501009b8501009b8501009b850100cc
:020000040000fa
:1000b000f8b5c046f8bc08bc9e467047e1ae0200e9
:1000c000f8b5c046f8bc08bc9e467047b9ae020001
:020000040000fa
:1000d000405e020001000000a06802000100000074
:020000040000fa
:1000e00090b58bb000aff860b9607a603b600023d8
:1000f0007b62fb68002b08d0bb68002b05d03b68f7
:10010000002b02d0bb6b002b01d1022361e13b68c5
:100110001b78072b07d03b685a799b791b02134346
:100120009bb2002b01d1002353e13b68da781b79a5
:100130001b0213439bb2b96b180028f0cdfa0300e1
:100140001a00bb6b53433b623b68da781b791b0296
:1001500013439bb219003b685a799b791b021343e6
:100160009bb2cb18fb61fb69b96b180028f03afb16
:100170000b1e06d0b96bf86928f0aefa0300013304
:1001800004e0b96bf86928f0a7fa0300ba6b53438f
:10019000fb6100237b62b8e07a6a1300db009b1ae4
:1001a000fa68d318bb61bb69da781b791b02134369
:1001b0009bb21900bb695a799b791b0213439bb20e
:1001c000cb187b613b681a78bb691b789a4200d0d8
:1001d00091e03b681b78022b06d13b685a78bb69db
:1001e0005b789a4200d088e03b681b78022b06d1ee
:1001f0003b689a78bb699b789a4200d07fe0bb69e4
:10020000da781b791b0213439bb21a00fb699342f5
:1002100000d276e03a6a7b699a4272d83b68da7813
:100220001b791b0213439ab2bb69d9781b791b0255
:100230000b439bb29a421ad23b68da781b791b02b5
:1002400013439ab2bb690333ff2111400c001978a4
:1002500000200140081c211c01431970120a90b2b1
:100260005a7800210a40111c021c0a435a70fa698c
:100270007b699a421fd9fb699ab2bb69d9781b790d
:100280001b020b439bb2d31a9ab2bb690533ff2101
:1002900011400c00197800200140081c211c01436a
:1002a0001970120a90b25a7800210a40111c021cdf
:1002b0000a435a702fe07b699ab2bb69d9781b79df
:1002c0001b020b439bb2d31a9ab2bb690533ff21c1
:1002d00011400c00197800200140081c211c01432a
:1002e0001970120a90b25a7800210a40111c021c9f
:1002f0000a435a700fe0c04604e0c04602e0c04620
:1003000000e0c0467b6a01337b62bb681b687a6a87
:100310009a4200d240e7bb681b687a6a9a4257d17a
:10032000bb681b687a689a4201d8032351e0bb6816
:100330001a681300db009b1afa68d2183b68100099
:10034000190007231a002bf01dffbb681a68130061
:10035000db009b1afa68d3183a6a92b20333ff2182
:1003600011400c00197800200140081c211c014399
:100370001970120a90b25a7800210a40111c021c0e
:100380000a435a70fb6998b23b6a99b2bb681a6813
:100390001300db009b1afa68d318421a92b2053395
:1003a000ff2111400c00197800200140081c211c7d
:1003b00001431970120a90b25a7800210a40111ca8
:1003c000021c0a435a70bb681b685a1cbb681a603f
:1003d00000231800bd460bb090bd90b58bb002afa6
:1003e000f860b9607a603b600023bb61fb68002b5a
:1003f00005d0bb68002b02d07b68002b01d1022303
:10040000bfe0fb681a331c003a687968b8683b6b38
:1004100000932300fff764fe0300bb61bb69002b60
:1004200001d0bb69ade0fb685c1d3a687968b868cb
:100430003b6b00932300fff753fe0300bb61bb69d6
:10044000002b01d0bb699ce0fb6813331c003a68a9
:100450007968b8683b6b00932300fff741fe030007
:10046000bb61bb69002b01d0bb698ae0fb684522f8
:100470009b5c002b11d0fb6841229a5c4221595ca5
:1004800009020a434321595c09040a4344215b5c85
:100490001b06134301d10a2373e00023fb6127e00d
:1004a000fb6841229a5c4221595c09020a434321bc
:1004b000595c09040a4344215b5c1b061343190081
:1004c000fb6926225343cb1819331c003a6879681c
:1004d000b8683b6b00932300fff702fe0300bb618b
:1004e000bb69002b01d0bb694be0fb690133fb61a9
:1004f000fb6845229b5c1a00fb699342d0d3fb68e2
:100500001b79082b0bd0fb681b790b2b07d0fb68e2
:100510001b790d2b03d0fb681b790f2b30d11020da
:100520003b1800221a703b1800225a703b18002218
:100530009a703b1803331a7800210a401a705a78cf
:1005400000210a405a703b1805331a7800210a40ee
:10055000111c0d220a431a705a7800210a405a7061
:100560003c183a687968b8683b6b00932300fff742
:10057000b7fd0300bb61bb69002b01d0bb6900e084
:1005800000231800bd4609b090bd80b586b000af0d
:10059000f860b9607a60fb68da781b791b02134354
:1005a0009bb21900fb685a799b791b0213439bb2db
:1005b000cb187b61bb68da781b791b0213439bb2b3
:1005c0001900bb685a799b791b0213439bb2cb1865
:1005d0003b61fb681b78072b07d0fb685a799b7936
:1005e0001b0213439bb2002b01d1002352e0bb68d6
:1005f0001b78072b07d0bb685a799b791b021343e2
:100600009bb2002b01d1002344e0fb681a78bb6841
:100610001b789a4201d000233ce0fb681b78022b38
:1006200007d1fb685a78bb685b789a4201d00023f7
:1006300030e0fb681b78022b07d1fb689a78bb6817
:100640009b789a4201d0002324e0fb68da781b797a
:100650001b0213439ab2bb68d9781b791b020b4368
:100660009bb29a4203d37a693b699a4201d900232b
:1006700010e0fb68da781b791b0213439bb2190068
:10068000bb68da781b791b0213439bb2cb1a1a00a2
:100690007b689b181800bd4606b080bd80b586b04b
:1006a00000aff860b9607a6000237b61fb681b785b
:1006b000002b03d1fb681b79072b01d0002327e017
:1006c000fb6835229a5c36215b5c1b0213439bb2ac
:1006d0007b617a687b699a4201d8002318e0ba6886
:1006e0007b69d3181b781800fb6846229a5c472167
:1006f000595c09020a434821595c09040a4349210b
:100700005b5c1b0613431a007b69d3181b78c31a62
:100710001800bd4606b080bd90b589b000aff86046
:10072000b9607a603b600023fb61fb68002b08d056
:10073000bb68002b05d07b68002b02d03b68002be8
:1007400001d1022391e1fb681a22002118002bf04d
:100750006bfdfb680822ba1810781a7800210a404d
:10076000111c021c0a431a700922ba1810785a7810
:1007700000210a40111c021c0a435a700a22ba18ae
:1007800010789a7800210a40111c021c0a439a70c2
:100790000b22ba181078da7800210a40111c021cca
:1007a0000a43da70fb683a1d10781a7900210a4072
:1007b000111c021c0a431a717a1d10785a79002103
:1007c0000a40111c021c0a435a71ba1d10789a790a
:1007d00000210a40111c021c0a439a71fa1d10786c
:1007e000da7900210a40111c021c0a43da71fb6805
:1007f0003a0010781a7a00210a40111c021c0a43a0
:100800001a727a1c10785a7a00210a40111c021cb4
:100810000a435a72ba1c10789a7a00210a40111cb5
:10082000021c0a439a72fa1c1078da7a00210a40f4
:10083000111c021c0a43da723b681a68fb68ff212c
:1008400011400c00197b00200140081c211c0143b1
:100850001973110aff2001400c00597b0020014050
:10086000081c211c01435973110cff2001400c008e
:10087000997b00200140081c211c01439973100e34
:10088000da7b00210a40111c021c0a43da73fb6860
:1008900000221a743b681a68fb68197858780002bd
:1008a0000143987800040143db781b060b434a217f
:1008b000595c4b201b5c1b020b439bb29a421fd915
:1008c000fb681a78597809020a43997809040a439f
:1008d000db781b0613434a229a5c4b215b5c1b02ac
:1008e000134398b2fb681a7a597a09020a43997a33
:1008f00009040a43db7a1b06134302001a600ee068
:10090000fb681a7a597a09020a43997a09040a4358
:10091000db7a1b0613431a003b681b681360fb68f5
:100920001a79597909020a43997909040a43db794a
:100930001b0613431800fb681a78597809020a430a
:10094000997809040a43db781b06134346229a5c14
:100950004721595c09020a434821595c09040a43aa
:1009600049215b5c1b0613431c00fb681a7a597a09
:1009700009020a43997a09040a43db7a1b061343e6
:100980001b681a0021002bf0fdfbfb681a785978d0
:1009900009020a43997809040a43db781b061343ca
:1009a0004a229a5c4b215b5c1b0213439bb27b6126
:1009b000fb681a79597909020a43997909040a43ab
:1009c000db791b061343581c3b681b681c00fb6843
:1009d0001a78597809020a43997809040a43db789e
:1009e0001b0613434a229a5c4b215b5c1b02134398
:1009f0009bb2e21a1823fb181421791813f073fb29
:100a00000300fb613b6b002b2ed0fb681a785978f2
:100a100009020a43997809040a43db781b06134349
:100a20001800fb681a79597909020a43997909046f
:100a30000a43db791b0613431c00fb681a7a597ab8
:100a400009020a43997a09040a43db7a1b06134315
:100a50001a683b6b210001f075fd0300fb61fb6927
:100a6000002b01d0fb6900e000231800bd4609b04f
:100a700090bdf0b5db4ca54402aff860b9607a6078
:100a800000239b229200ba18136000239a2292003e
:100a9000ba181360002399229200ba181360fb68f9
:100aa000002b05d0bb68002b02d07b68002b01d146
:100ab000022397e3fb681a78597809020a43997868
:100ac00009040a43db781b06134305337a68b968c7
:100ad0001800fff75afd030099229200b9180b6025
:100ae000bb181b68002b56d0fb681a78597809028e
:100af0000a43997809040a43db781b06134318005c
:100b0000fb681a79597909020a43997909040a4359
:100b1000db791b0613431c00fb681a7a597a090219
:100b20000a43997a09040a43db7a1b0613431d0022
:100b3000fb681a7b597b09020a43997b09040a4323
:100b4000db7b1b0613431e00fb681a7859780902e9
:100b50000a43997809040a43db781b0613439a7aff
:100b6000db7a1b0213439bb2019399229200bb18bc
:100b70001b68009333002a00210001f00efa0300e5
:100b80009b229200b9180b60bb181b68002b02d087
:100b9000bb181b6826e3fb681a78597809020a43d8
:100ba000997809040a43db781b06134313337a68e8
:100bb000b9681800fff7e9fc0300992080003a1893
:100bc00013603b181b68002b00d196e0fb681a7875
:100bd000597809020a43997809040a43db781b060d
:100be00013431a7e5b7e1b0213439bb2482b36d104
:100bf0008525ad007a193b181b681100180002f01a
:100c000042f8fb681a78597809020a43997809046e
:100c10000a43db781b0613431800fb681a795979dd
:100c200009020a43997909040a43db791b06134335
:100c30001c00fb681a7a597a09020a43997a090456
:100c40000a43db7a1b0613431a687b19210000f064
:100c500075fd03009b229200ba18136044e0fb6804
:100c60001a78597809020a43997809040a43db780b
:100c70001b0613431a7e5b7e1b0213439bb2402b61
:100c800030d1fb681a78597809020a439978090427
:100c90000a43db781b0613431800fb681a7959795d
:100ca00009020a43997909040a43db791b061343b5
:100cb0001c00fb681a7a597a09020a43997a0904d6
:100cc0000a43db7a1b0613431a6899239b00fb181f
:100cd0001b68210000f032fd03009b229200ba182d
:100ce000136001e00a237de29b229200bb181b687f
:100cf000002b02d0bb181b6874e2fb681a78597885
:100d000009020a43997809040a43db781b06134356
:100d10001a337a68b9681800fff737fc0300992284
:100d20009200b9180b60bb181b68002b5cd0fb68e5
:100d30001a78597809020a43997809040a43db783a
:100d40001b061343da7f20215b5c1b0213439bb21b
:100d5000482b01d00a2345e2fb681a78597809022a
:100d60000a43997809040a43db781b0613431800e9
:100d7000fb681a79597909020a43997909040a43e7
:100d8000db791b0613431c00fb681a7a597a0902a7
:100d90000a43997a09040a43db7a1b0613431d00b0
:100da000fb681a7b597b09020a43997b09040a43b1
:100db000db7b1b0613431a0099239b00fb181b685f
:100dc000009313002a00210001f051fc03009b2234
:100dd0009200b9180b60bb181b68002b04d0bb181d
:100de0001b68ffe184fdfffffb681a785978090250
:100df0000a43997809040a43db781b0613431a0057
:100e00004523d35c002b1bd0fb681a785978090264
:100e10000a43997809040a43db781b0613434122ed
:100e20009a5c4221595c09020a434321595c090436
:100e30000a4344215b5c1b06134301d10a23d1e121
:100e400000239a229200ba1813608fe1fb681a7887
:100e5000597809020a43997809040a43db781b068a
:100e6000134341229a5c4221595c09020a434321ff
:100e7000595c09040a4344215b5c1b0613431900b7
:100e80009a24a4003b191b6826225343cb1819331c
:100e90007a68b9681800fff778fb0300992292007e
:100ea000b9180b60bb181b68002b00d157e1fb6819
:100eb0001a78597809020a43997809040a43db78b9
:100ec0001b06134341229a5c4221595c09020a43e2
:100ed0004321595c09040a4344215b5c1b0613430c
:100ee00019003b191b6826225343cb1822229a5c17
:100ef00023215b5c1b0213439bb296229200ba181b
:100f000013601023fb1897229200ba181360002375
:100f100098229200ba181360b5e080235b00842207
:100f20009200ba181360fb681a78597809020a43cc
:100f3000997809040a43db781b06134341229a5c23
:100f40004221595c09020a434321595c09040a43be
:100f500044215b5c1b06134319009a26b600bb199b
:100f60001b6826225343c918a14c3b1924209825fd
:100f7000ad007a1912688a18121812781a703b1983
:100f80001b78002b00d186e07b191b68002b27d132
:100f9000fb681a78597809020a43997809040a43c8
:100fa000db781b06134341229a5c4221595c0902fb
:100fb0000a434321595c09040a4344215b5c1b0634
:100fc00013431900bb191b6826225343cb189a7f81
:100fd000db7f1b0213439bb296229200ba18136068
:100fe00097239b00fb181c6896239b00fb181a682c
:100ff00099239b00fb1819687d4bfb1818788423f4
:101000009b00fb180093230001f056fe03009b2277
:101010009200b9180b60bb181b68002b02d0bb18dc
:101020001b68dfe084239b00fb181b68962292005c
:10103000ba18136098239b00fb181b680122134009
:101040000dd197229200bb181b689921890079184d
:101050000b6088235b00fb18ba1813600ce0882330
:101060005b00fb1899229200ba1813601023fb183a
:1010700097229200ba18136098229200bb181b683e
:101080000133ba18136098239b00fb181b68012bcf
:1010900000d842e700e0c046fb681a785978090298
:1010a0000a43997809040a43db781b0613431c00a2
:1010b000fb681a78597809020a43997809040a43a7
:1010c000db781b06134341229a5c4221595c0902da
:1010d0000a434321595c09040a4344215b5c1b0613
:1010e000134319009a239b00fb181b6826225343c5
:1010f000cb1820331800fb681a79597909020a4382
:10110000997909040a43db791b0613431d00fb6828
:101110001a7a597a09020a43997a09040a43db7a4e
:101120001b0613431a6896239b00fb181b68019348
:1011300099239b00fb181b68009313002a000100f1
:10114000200001f075fc03009b229200b9180b608f
:10115000bb181b68002b02d0bb181b6842e09a2208
:101160009200bb181b680133ba181360fb681a7829
:10117000597809020a43997809040a43db781b0667
:1011800013431a004523d35c1a009a239b00fb18d3
:101190001b68934200d259e67a68b968154b18006b
:1011a000fff7f3f90300992189007a1813607b187f
:1011b0001b68002b15d0fb6801221a74fb681133e1
:1011c0000c007a181168042218002af0dbfffb6873
:1011d000153318003b191b680833052219002af043
:1011e000d1ff00231800bd469d239b009d44f0bd08
:1011f0005702000078ad020090b585b000af78606e
:101200000023bb600023fb607b68002b01d102231d
:1012100036e07b681b7c002b02d07b681133fb60bf
:101220007b681a78597809020a43997809040a43b5
:10123000db781b06134318007b681a795979090279
:101240000a43997909040a43db791b0613431c00fe
:101250007b681a7a597a09020a43997a09040a437f
:10126000db7a1b0613431a68fb68210000f09cff21
:101270000300bb60bb68002b01d0bb6800e0bb680b
:101280001800bd4605b090bd80b582b000af786053
:1012900039607b681a783b681b789a4201d000233a
:1012a00047e07b681b78022b07d17b685a783b6844
:1012b0005b789a4201d000233be07b681b78022bcd
:1012c00007d17b689a783b689b789a4201d00023cb
:1012d0002fe07b68da781b791b0213439bb219005d
:1012e0007b685a799b791b0213439bb2ca183b68ef
:1012f000d9781b791b020b439bb29a4218dd7b689d
:10130000da781b791b0213439bb219003b68da7829
:101310001b791b0213439bb218003b685a799b79d7
:101320001b0213439bb2c318994201da012300e068
:1013300000231800bd4602b080bd80b586b000af66
:10134000f860b9607a603b60fb68da781b791b0251
:10135000134399b27b68da781b791b0213439bb263
:10136000181c8ab283b29a4200d2011c8bb27b61f4
:101370007b68da781b791b0213439bb219007b68e8
:101380005a799b791b0213439bb2c918fb68da7820
:101390001b791b0213439bb21800fb685a799b7997
:1013a0001b0213439bb2c2180b00934200dd1300d3
:1013b0003b617b68da781b791b0213439bb21a00ee
:1013c0007b699b1a3a68d018fb68da781b791b0294
:1013d00013439bb21a007b699b1aba68d1183a6909
:1013e0007b69d31a1a002af0cdfec046bd4606b06e
:1013f00080bd90b5cbb002aff860b9607a603b6059
:1014000000238c225200ba18136000238e2252004f
:10141000ba18136080235b007b61fb68002b0bd044
:10142000bb68002b08d03b68002b05d098235b00dd
:10143000fb181b68002b01d102237be1fb680533fd
:101440003a6811001800fff71fff031e21d0182370
:10145000fc187a68b968f8681423fb180093230015
:1014600001f024f803008c225200b9180b60bb185d
:101470001b68002b02d0bb181b685be1fb68581d82
:1014800098235b00fb181b683a6818217918fff74e
:1014900054fffb6813333a6811001800fff7f4fe9d
:1014a000031e38d01823fb187a68b968f86800f072
:1014b00095f903008c225200b9180b60bb181b6809
:1014c000002b02d0bb181b6834e1fb681a7e5b7ee0
:1014d0001b0213439bb2482b07d11823fa18fb18a1
:1014e0001100180001f0a9fb09e0fb681a7e5b7e81
:1014f0001b0213439bb2402b01d00a231ae1fb6865
:101500001333180098235b00fb181b683a681821f6
:101510007918fff712fffb681a333a6811001800b8
:10152000fff7b2fe031e29d01823fb187a68b968aa
:10153000f86801f052f903008c225200b9180b60d0
:10154000bb181b68002b02d0bb181b68f2e0fb68bd
:10155000da7f20215b5c1b0213439bb2482b01d036
:101560000a23e7e0fb681a33180098235b00fb1896
:101570001b683a6818217918fff7dffefb684522df
:101580009b5c002b11d0fb6841229a5c4221595c84
:1015900009020a434321595c09040a4344215b5c64
:1015a0001b06134301d10a23c4e000238e225200fc
:1015b000ba181360b2e0fb6841229a5c4221595c80
:1015c00009020a434321595c09040a4344215b5c34
:1015d0001b06134319008e2464003b191b68262246
:1015e0005343cb1819333a6811001800fff74cfe2b
:1015f000031e00d18be0fb6841229a5c4221595cba
:1016000009020a434321595c09040a4344215b5cf3
:101610001b06134319003b191b6826225343cb18a2
:101620009a7fdb7f1b0213439ab280235b009a42ae
:1016300001d903237ee0fb6841229a5c4221595c78
:1016400009020a434321595c09040a4344215b5cb3
:101650001b06134319008e2040003b181b682622ee
:101660005343cb1820331c00fb6841229a5c422173
:10167000595c09020a434321595c09040a43442185
:101680005b5c1b06134319003b181b68262253435f
:10169000cb189a7fdb7f1b0213439bb27968ba6831
:1016a000f86801931823fb1800930b00210001f048
:1016b0003afa03008c225200b9180b60bb181b6861
:1016c000002b02d0bb181b6834e0fb6841229a5cf7
:1016d0004221595c09020a434321595c09040a4327
:1016e00044215b5c1b06134319008e235b00fb182f
:1016f0001b6826225343cb181933180098235b002c
:10170000fb181b683a6818217918fff716fe8e221d
:101710005200bb181b680133ba181360fb684522de
:101720009b5c1a008e235b00fb181b68934200da57
:1017300041e700231800bd4649b090bd90b58db07b
:1017400002aff860b9607a603b6000237b62fb689f
:10175000002b05d0bb68002b02d03b68002b01d1c9
:10176000022337e0fb68213319007c68ba68f86807
:10177000402301933b680093230001f059f90300d3
:101780007b627b6a002b01d07b6a23e01023fa186e
:101790003b681100180001f02dfa03007b627b6aa0
:1017a000002b01d07b6a15e0fb683d3319007c6893
:1017b000ba68f868142301931023fb1800932300e0
:1017c00001f036f903007b627b6a002b01d07b6a53
:1017d00000e000231800bd460bb090bd90b587b067
:1017e00002aff860b9607a603b60fb68002b05d0ff
:1017f000bb68002b02d03b68002b01d102230de017
:10180000fb68213319007c68ba68f86840230193ab
:101810003b680093230001f086f903001800bd46e1
:1018200005b090bd90b587b002aff860b9607a603e
:101830003b60fb68002b05d0bb68002b02d03b68e7
:10184000002b01d102230de0fb683d3319007c68b9
:10185000ba68f868142301933b680093230001f0f1
:1018600062f903001800bd4605b090bd90b58db07b
:1018700002aff860b9607a603b6000237b62fb686e
:10188000002b08d0bb68002b05d07b68002b02d052
:10189000bb6b002b01d1022388e022243a19fb689c
:1018a0002521595c26201b5c1b020b4313803b192e
:1018b0001a88b968fb681800fef7f0fe030099b2b9
:1018c0003b193a1912888a181a80fb681b78002b7a
:1018d0000fd0fb68253319007b681c68ba68f8686c
:1018e00040230193bb6b0093230001f0a1f8030098
:1018f0005ce02223fb181a887b681b689a4201d39c
:10190000092353e07b681a6822217b181b88d31aad
:10191000fb617b181b883a68d31abb617b181b8854
:10192000ba68d1181823fa18bb6b180012f04efdd4
:1019300003007b627b6a002b0dd07b6a032b08d1ee
:101940007b681b68ba691100fa698a1a9a187b6861
:101950001a607b6a2ae07b681b68ba691100fa6921
:101960008a1a9a187b681a607b681b68013b7b6146
:10197000bb68581cbb691a00fb69d21a1023fb18fc
:101980001421791812f0affb03007b627b6a002bf5
:1019900001d07b6a0ae07a693b69d3185a1c7b68dc
:1019a0001b689a4201d00a2300e000231800bd46bc
:1019b0000bb090bd90b589b002aff860b9607a60a5
:1019c0003b6000233b61fb68002b05d0bb68002b0c
:1019d00002d03b68002b01d1022343e016243a19c0
:1019e000fb682521595c26201b5c1b020b431380de
:1019f0003b191a88b968fb681800fef74ffe030010
:101a000099b23b193a1912888a181a80fb681b7818
:101a1000002b0ed0fb68253319007c68ba68f86883
:101a2000402301933b680093230001f07cf80300fe
:101a300018e01623fb181b887a689a4201d80923fc
:101a400010e016217b181b887a68d31a3b617b183b
:101a50001b88ba68d3183a6810217918180012f058
:101a60004dfd03001800bd4607b090bd90b58fb086
:101a700002aff860b9607a603b600023fb62142318
:101a80007b61fb68002b05d0bb68002b02d03b6854
:101a9000002b01d1022331e0fb682b229a5c2c2120
:101aa0005b5c1b0213439bb2002b01d1002325e09a
:101ab000fb68187b1423fb181822ba18396808f041
:101ac000a1fa0300fb62fb6a002b01d0fb6a15e060
:101ad000fb68293319007b697c68ba68f868019350
:101ae0001823fb180093230000f0a2ff0300fb6201
:101af000fb6a002b01d0fb6a00e000231800bd4602
:101b00000db090bd90b58fb002aff860b9607a604b
:101b10003b600023fb621423bb62fb68002b05d0f3
:101b2000bb68002b02d03b68002b01d1022336e0ba
:101b3000fb681b7b042b01d9012330e0fb681b7b76
:101b40001a00194b9200d358bb62bb6a142b01d9ff
:101b5000012324e0fb68293319007c68ba68f8681f
:101b6000bb6a01931423fb180093230000f0dbfff2
:101b70000300fb62fb6a002b01d0fb6a0fe0fb68ed
:101b8000187b3b68ba6a1421791808f0affa030091
:101b9000fb62fb6a002b01d0fb6a00e00023180007
:101ba000bd460db090bdc046b0a3020090b58fb049
:101bb00002aff860b9607a603b600023fb621423d7
:101bc0007b61fb68002b05d0bb68002b02d03b6813
:101bd000002b01d1022331e0fb682f229a5c3021d7
:101be0005b5c1b0213439bb2002b01d1002325e059
:101bf000fb68587b1423fb181822ba18396808f0c0
:101c000001fa0300fb62fb6a002b01d0fb6a15e0be
:101c1000fb682d3319007b697c68ba68f86801930a
:101c20001823fb180093230000f002ff0300fb625f
:101c3000fb6a002b01d0fb6a00e000231800bd46c0
:101c40000db090bd90b58fb002aff860b9607a600a
:101c50003b600023fb621423bb62fb68002b05d0b2
:101c6000bb68002b02d03b68002b01d1022336e079
:101c7000fb685b7b042b01d9012330e0fb685b7bb5
:101c80001a00194b9200d358bb62bb6a142b01d9be
:101c9000012324e0fb682d3319007c68ba68f868da
:101ca000bb6a01931423fb180093230000f03bff51
:101cb0000300fb62fb6a002b01d0fb6a0fe0fb68ac
:101cc000587b3b68ba6a1421791808f00ffa0300b0
:101cd000fb62fb6a002b01d0fb6a00e000231800c6
:101ce000bd460db090bdc046b0a3020080b584b023
:101cf00000af02003960fb1d1a700f217b18fa1d1e
:101d0000127812091a707b181b78092b08d83b68c7
:101d10005a1c3a607a1812783032d2b21a7008e03f
:101d20003b685a1c3a600f22ba1812783732d2b286
:101d30001a700f203b18fa1d12780f210a401a70f2
:101d40003b181b78092b08d83b685a1c3a603a1894
:101d500012783032d2b21a7008e03b685a1c3a60ee
:101d60000f22ba1812783732d2b21a70c046bd4666
:101d700004b080bdb0b588b002aff860b9607a60d9
:101d80003b60fb68002b05d0bb68002b02d03b6892
:101d9000002b01d102231ee03b681b7814257a1921
:101da00011001800fff7a2ff3b6801331a787b1976
:101db000023319001000fff799fffb683133190057
:101dc0007c68ba68f868042301937b1900932300a8
:101dd00000f02efe03001800bd4606b0b0bd80b571
:101de00082b000af786039603b6800221a707b686f
:101df0001b782f2b10d97b681b78392b0cd83b68ac
:101e00001a787b681b78303bdbb21b01dbb2d3183e
:101e1000dab23b681a702be07b681b78402b10d934
:101e20007b681b78462b0cd83b681a787b681b783c
:101e3000373bdbb21b01dbb2d318dab23b681a7056
:101e400016e07b681b78602b10d97b681b78662bab
:101e50000cd83b681a787b681b78573bdbb21b01b8
:101e6000dbb2d318dab23b681a7001e0042344e015
:101e70007b6801331b782f2b10d97b6801331b78cb
:101e8000392b0bd83b681a787b6801331b78d31841
:101e9000dbb2303bdab23b681a702de07b6801336d
:101ea0001b78402b10d97b6801331b78462b0bd84d
:101eb0003b681a787b6801331b78d318dbb2373b59
:101ec000dab23b681a7017e07b6801331b78602b2d
:101ed00010d97b6801331b78662b0bd83b681a78c6
:101ee0007b6801331b78d318dbb2573bdab23b680f
:101ef0001a7001e0042300e000231800bd4602b080
:101f000080bd90b589b002aff860b9607a603b607f
:101f100000237b61fb68002b05d0bb68002b02d03f
:101f20003b68002b01d1022333e0fb6831331900f9
:101f30007c68ba68f868042301931023fb180093a7
:101f4000230000f0f0fd03007b617b69002b01d0d2
:101f50007b691ee03a681023fb1811001800fff798
:101f60003eff03007b617b69002b01d07b6910e0a1
:101f70003b685a1c1023fb18023311001800fff7ae
:101f80002eff03007b617b69002b01d07b6900e0a1
:101f900000231800bd4607b090bdb0b58eb002afab
:101fa000f860b9607a603b60fb68002b08d0bb68c2
:101fb000002b05d07b68002b02d03b6c002b01d19d
:101fc0000223ede0fb681b78002b00d0d9e0fb6812
:101fd0001b79072b00d0d4e0fb683533fb62fb6a2a
:101fe0001a785b781b0213439bb21a00bb689b18dc
:101ff0001b781800fb6846229a5c4721595c09024d
:102000000a434821595c09040a4349215b5c1b06c9
:1020100013431900fb6a1a785b781b0213439bb2c7
:10202000cb181b78c31abb62bb6a002b00d18be0b4
:1020300000237b6200233b620023fb610023bb6122
:1020400000237b617b681a68bb6ad3183a689a429e
:1020500001d20323a4e0fb6a1a785b781b021343c6
:102060009bb21900fb6a9a78db781b0213439bb280
:10207000cb181a00bb689818fb6a1a785b781b02a9
:1020800013439bb21900fb6a9a78db781b02134357
:102090009bb2ca18bb6ad3181a00bb689c187b682d
:1020a0001a68fb6a19785b781b020b439bb21d0010
:1020b000fb6a9978db781b020b439bb2eb18d31aaf
:1020c0001a00210029f091fd7b681a68bb6ad218ba
:1020d0007b681a6001233b627b681a683b6ad31aeb
:1020e000fb61ba683b6ad0181823fb18ba6a1c2136
:1020f000791811f0f8ff03007b627b6a002b01d096
:102100007b6a4de0fa69bb69d3185a1c7b681b686f
:102110009a4201d00a2343e0fb6902333b627b68a9
:102120001a683b6ad31a7b61ba683b6ad018ba6aec
:102130001423f918002311f0d6ff03007b627b6a99
:10214000002b01d07b6a2be0fb6a1a785b781b02bc
:1021500013439bb21a00bb689b181b7801331a000b
:102160007b6c934201d202231ae0fb6a1a785b78f7
:102170001b0213439bb21a00bb689b181b780133e8
:102180007b64fb68353319007b681c68ba68f868a3
:102190007b6c01933b6c0093230000f049fc03002f
:1021a0001800bd460cb0b0bd90b5a9b002aff86044
:1021b000b9607a603b6000239022ba181360002354
:1021c0009422ba181360fb68002b02d0bb68002b66
:1021d00001d1022363e1fb681b79002b0dd0fb6862
:1021e0001b79072b09d0fb6837229a5c38215b5c8e
:1021f0001b0213439bb2002b01d100234fe1fb686c
:102200001b79083b072b00d931e19a00a64bd31864
:102210001b689f463b68002b01d102233fe10a2344
:102220009422ba1813602c203b1840221a70396887
:102230003b1801330922180029f0a4ff1ee10323f3
:102240009422ba1813602c217b1840221a707b1834
:1022500001337a68b968f868fff753fe03009022eb
:10226000b9180b60bb181b68002b00d101e1bb182b
:102270001b6814e1fb6837229a5c38215b5c1b0207
:1022800013439bb2202b01d9072308e1fb683722b7
:102290009a5c38215b5c1b0213439bb29422ba18f0
:1022a00013604c23fb187a68b968f868fff796fa50
:1022b00003009022b9180b60bb181b68002b02d0da
:1022c000bb181b68ebe01423fb187a68b968f86840
:1022d000fff718fc03009022b9180b60bb181b68ad
:1022e000002b02d0bb181b68d9e0fb68997c4c23fb
:1022f000fb1840331a001423fb18180008f08cff59
:1023000003009022b9180b60bb181b68002b02d089
:10231000bb181b68c3e02c23fa184c23fb1843217d
:10232000180020f0cefc03009022b9180b60bb18f7
:102330001b68002b02d0bb181b68b0e0fb681b7940
:102340000c2b03d0fb681b790a2b07d12c217b189f
:102350001b787f221340dab27b181a70fb681b7956
:102360000a2b00d087e02c217b181b7840221343d6
:10237000dab27b181a707ee03b68002b01d1022391
:102380008de0fb6837229a5c38215b5c1b021343ab
:102390009bb2202b01d9072381e0fb6837229a5c8e
:1023a00038215b5c1b0213439bb29422ba18136062
:1023b00039684c23fb180922180029f0e3fe142386
:1023c000fb187a68b968f868fff79cfb0300902255
:1023d000b9180b60bb181b68002b02d0bb181b6818
:1023e0005de0fb68997c4c23fb1809331a00142329
:1023f000fb18180008f010ff03009022b9180b60ba
:10240000bb181b68002b02d0bb181b6847e02c23ad
:10241000fa184c23fb180c21180020f052fc030082
:102420009022b9180b60bb181b68002b02d0bb1898
:102430001b6834e0fb681b790d2b03d0fb681b790c
:102440000b2b07d12c217b181b787f221340dab28b
:102450007b181a70fb681b790b2b0ed12c217b1873
:102460001b7840221343dab27b181a7005e002236e
:1024700015e0c04602e0c04600e0c046fb683533c8
:1024800019007c68ba68f8689423fb181b680193ec
:102490002c23fb180093230000f0cafa0300180055
:1024a000bd4627b090bdc04630ad020090b587b0a4
:1024b00002aff860b9607a603b60fb68002b08d01f
:1024c000bb68002b05d03b68002b02d03b6a002b79
:1024d00001d1022332e03b6a1a68fb683721595c5c
:1024e00038201b5c1b020b439bb29a420cd2fb6848
:1024f00037229a5c38215b5c1b0213439bb21a00a3
:102500003b6a1a60032319e0fb6837229a5c382182
:102510005b5c1b0213439bb21a003b6a1a60fb68a8
:10252000353319003b6a1b687c68ba68f868019308
:102530003b680093230000f0f6fa03001800bd4644
:1025400005b090bd90b58db002aff860b9607a600b
:102550003b6000237b62fb68002b05d0bb68002b2f
:1025600002d03b68002b01d1022323e01023fa188c
:102570003b681100180000f03dfb03007b627b6aa2
:10258000002b01d07b6a15e0fb68393319007c68a9
:10259000ba68f868142301931023fb1800932300f2
:1025a00000f046fa03007b627b6a002b01d07b6a55
:1025b00000e000231800bd460bb090bd90b589b077
:1025c00002aff860b9607a603b6000237b61fb6812
:1025d000002b05d0bb68002b02d03b68002b01d13b
:1025e00002231ce0fb6839331c00fb683b229a5c29
:1025f0003c215b5c1b0213439bb27968ba68f868a4
:1026000001933b6800930b00210000f011fa0300d6
:102610007b617b69002b01d07b6900e000231800ff
:10262000bd4607b090bd90b587b002aff860b96005
:102630007a603b60fb68002b05d0bb68002b02d0a2
:102640003b68002b01d102230de0fb6839331900f0
:102650007c68ba68f868142301933b6800932300f0
:1026600000f061fa03001800bd4605b090bd90b5ba
:1026700097b002aff860b9607a603b600023fb64fa
:10268000fb68002b08d0bb68002b05d07b68002bb3
:1026900002d03b6e002b01d102239ae03b6e463301
:1026a0001a784b203b180f210a401a703b181b78f0
:1026b000002b01d004238ce03b6e40334422ba1837
:1026c0001000190003231a0029f05cfd3b6e433310
:1026d0004022ba181000190002231a0029f052fdf6
:1026e0003b6e45331a784a203b1812091a703b6e2c
:1026f00045331a7849243b190f210a401a703b6e62
:1027000046331a7848217b1812091a70fb685b78e7
:102710003a1812789a420bd1fb689b783a191278d2
:102720009a4205d1fb681b797a1812789a4201d037
:102730000b234ee03c687a68b968f8683b6e0093fa
:102740002300fff793f80300fb64fb6c002b01d020
:10275000fb6c3ee0fb68597b1023fb182822ba185b
:102760004420381808f02bfe0300fb64fb6c002ba0
:1027700001d0fb6c2de07b681a682823fb18b96830
:10278000f868fff773f90300fb64fb6c002b01d0c2
:10279000fb6c1ee07b681a681023fb18b968f868a8
:1027a000fff704fa0300fb64fb6c002b01d0fb6c09
:1027b0000fe07b681a684023fb18b968f868fff7d8
:1027c000d9fa0300fb64fb6c002b01d0fb6c00e02a
:1027d00000231800bd4615b090bd90b58db000af78
:1027e000f860b9607a603b600023fb62fb68002bf5
:1027f00005d0bb68002b02d03b68002b01d102231f
:1028000077e03b687a68b968f868fff7d3f80300a7
:10281000fb62fb6a002b01d0fb6a6ae014243b19bf
:102820007a68b968f868fff76df90300fb62fb6a24
:10283000082b13d121007b1864225a617b180022d7
:102840001a617b180122da607b1800229a607b18db
:1028500000225a607b1800221a6004e0fb6a002bf9
:1028600001d0fb6a45e0fb68997c3b6840331a0065
:102870001423fb18180008f0cffc0300fb62fb6a6e
:10288000002b01d0fb6a34e03b6843337a68b968b7
:10289000f868fff736fb0300fb62fb6a082b07d1e1
:1028a0003b68433302220021180029f0bdfc04e0fc
:1028b000fb6a002b01d0fb6a1be0fb685b781b0105
:1028c0005ab2fb689b785bb20f210b405bb213439b
:1028d0005ab23b684533d2b21a70fb681b791a01b1
:1028e0003b684633d2b21a703b68473300221a70f5
:1028f00000231800bd460db090bd80b586b000af76
:10290000f860b9607a603b6000237b61fb68002b54
:1029100008d0bb68002b05d03b68002b02d03b6a77
:10292000002b01d1022343e0fb689a7bdb7b1b0277
:1029300013439bb21900fb681a7c5b7c1b02134398
:102940009bb2cb181a00b968fb681800fdf7a6fe09
:1029500003007b61fb689a7bdb7b1b0213439bb20a
:102960001900fb681a7c5b7c1b0213439bb2ca18dc
:102970007b69d3181a007b68934201d20a2317e0bf
:10298000fb689a7bdb7b1b0213439bb21a00bb687c
:102990009a183b681a60fb681a7c5b7c1b02134325
:1029a0009bb21a007b69d3181a003b6a1a60002395
:1029b0001800bd4606b080bd90b58bb002aff86080
:1029c000b9607a603b600023fb610023bb61002398
:1029d0007b61fb68002b05d0bb68002b02d03b68f5
:1029e000002b01d102231fe01823fc187a68b96874
:1029f000f8681423fb1800932300fff77eff030001
:102a0000fb61fb69002b01d0fb690de0bb697969b3
:102a10003a68180020f055f90300fb61fb69002bb0
:102a200001d0fb6900e0fb691800bd4609b090bd0c
:102a300080b586b000aff860b9607a603b60002373
:102a40007b61fb68002b05d0bb68002b02d07b6844
:102a5000002b01d1022362e0bb689a78db781b026d
:102a600013439bb2002b01d1002358e03b6a002b9b
:102a700001d1022353e0fb681b78002b13d1fb68c4
:102a80001b79072b0fd1bb681a785b781b021343a5
:102a90009ab2fb683521595c36201b5c1b020b4344
:102aa0009bb29a420bd0bb689a78db781b02134327
:102ab0009bb21a007b6a934201d007232fe0bb68c8
:102ac0001a785b781b0213439bb21a007968fb6883
:102ad0001800fdf7e3fd03007b61bb681a785b78a3
:102ae0001b0213439bb21a007b6ad2187b69d3186e
:102af0003a689a4201d2092311e0bb681a785b78e0
:102b00001b0213439bb21a007b69d3181a007b681f
:102b10009b187a6a396a180029f034fb00231800e0
:102b2000bd4606b080bd80b586b000aff860b96024
:102b30007a603b6000237b61fb68002b08d0bb6898
:102b4000002b05d07b68002b02d03b6a002b01d103
:102b500002234be0bb689a78db781b0213439bb2dd
:102b6000002b01d1082341e0bb689a78db781b0277
:102b700013439bb21a007b6a934201d0072335e0ce
:102b8000bb681a785b781b0213439bb21a00796802
:102b9000fb681800fdf782fd03007b61bb681a78b3
:102ba0005b781b0213439bb21900bb689a78db78f1
:102bb0001b0213439bb2ca187b69d3181a003b68e7
:102bc000934201d2092311e0bb681a785b781b029b
:102bd00013439bb21a007b69d3181a007b689918bb
:102be0007a6a3b6a180029f0cdfa00231800bd4626
:102bf00006b080bd90b595b000af786039607b6855
:102c0000002b02d03b68002b01d1022311e00c24e1
:102c10003b1904221a7079683b19013340221800cd
:102c200029f0b0fa3a683b194121180026f068faf9
:102c300003001800bd4615b090bd80b582b000af4e
:102c4000786039603b68283318007b682033202285
:102c5000190028f0caff3b68243304220021180021
:102c600029f0e2fa3b68043379682022180028f042
:102c7000bcff3b6804220021180029f0d5fac046a9
:102c8000bd4602b080bd80b582b000af78603960cb
:102c90007b68191d3b682022180028f0a6ff3b68be
:102ca000203318007b6828332022190028f09dff6c
:102cb000c046bd4602b080bd90b58bb004afb960d0
:102cc0007a603b600f23fb18021c1a700d237b6196
:102cd0003b68002b02d0bb6a002b01d1022399e094
:102ce0000f23fb181b78092b00d98fe09a004b4b60
:102cf000d3181b689f46bb6a1b687a689a4209d83a
:102d00007a68b9683b68180029f03cfabb6a7a68af
:102d10001a607ee0ed237b617be0bb6a3a687968ec
:102d2000b8680bf058f803007b6172e0bc6a3a683f
:102d30007968b8680123029300230193002300936c
:102d400023000bf07ef803007b6162e0bc6a3a6806
:102d50007968b8680023029300230193002300934d
:102d600023000bf06ef803007b6152e0bc6a3a6806
:102d70007968b8680023009323000bf02bf9030057
:102d80007b6146e0bc6a3a687968b86800230093c2
:102d900023000bf01ff903007b613ae0bc6a3a683c
:102da0007968b868012302930123019300230093fb
:102db00023000bf046f803007b612ae0bc6a3a6806
:102dc0007968b868002302930123019300230093dc
:102dd00023000bf036f803007b611ae0bc6a3a6806
:102de0007968b8680123009323000bf0f3f803001f
:102df0007b610ee0bc6a3a687968b8680123009389
:102e000023000bf0e7f803007b6102e00d237b61f8
:102e1000c0467b691800bd4607b090bd50ad0200aa
:102e200080b584b000af786039607b68002b02d039
:102e30003b68002b01d102234ee07b681b78002bfe
:102e40003ed17b6825229a5c26215b5c1b021343e2
:102e50009bb24b331a003b681a607b681b79072bc7
:102e600039d17b6846229a5c4721595c09020a43a2
:102e70004821595c09040a4349215b5c1b06134342
:102e800018007b6835229a5c36215b5c1b02134379
:102e90009bb2c2180f217b1812781a707b181b780e
:102ea0005bb2002b01da0a2316e03b681a680f2395
:102eb000fb181b78d31a80331a003b681a600ae0ab
:102ec0007b684a229a5c4b215b5c1b0213439bb2da
:102ed0001a003b681a6000231800bd4604b080bd8c
:102ee00080b582b000af78607b681b7b1a0010232e
:102ef00013400ed07b6818687b685b680b22190052
:102f000029f040f97b681b680b331a007b681a6054
:102f100027e07b681b7b1a002023134008d07b68c6
:102f200018687b685b680822190029f02bf906e015
:102f30007b681b6808220021180029f075f97b685e
:102f40001b6808331a007b681a607b681b680322c1
:102f50000021180029f068f97b681b68da1c7b687f
:102f60001a607b6899687b681b68581c7a681060d7
:102f70000a7a1a707b681b7b1a004023134009d021
:102f80007b6818687b689b6804330422190029f069
:102f9000f9f806e07b681b6804220021180029f07c
:102fa00043f97b681b681a1d7b681a607b68996807
:102fb0007b681b68581c7a6810600a781a707b68f6
:102fc00099687b681b68581c7a6810604a781a7088
:102fd0007b681b7b1a004023134009d07b6818686c
:102fe0007b689b6802330222190029f0cbf806e0c7
:102ff0007b681b6802220021180029f015f97b6804
:103000001b689a1c7b681a607b681b681800bd46a9
:1030100002b080bd90b593b000af78607b681a783d
:103020004723fb1803210a401a707b68db68002bda
:1030300003d07b685b68002b01d1e223f3e04722d9
:10304000bb181b78002b03d0bb181b78012b6dd14c
:103050007b689b68002b01d1e223e4e07b685b88fe
:103060001bb2002b09da7b68db6818007b689b6861
:103070002022190029f086f852e008243b193b640d
:103080007b6899683b6c2022180029f07bf83b6c28
:1030900020333b647b6859683b6c1422180029f08c
:1030a00071f83b6c14333b643b6c5a1c3a64162237
:1030b0001a703b6c5a1c3a647a6812781a703b6c2e
:1030c0005a1c3a6400221a707b68db681a003b19ac
:1030d000372118001ff0f5fd7b68db684022995c02
:1030e0001020814399547b68db684022995c0f2053
:1030f000814399547b68db684022995c202081439e
:1031000099547b68db684022995c7f200140995488
:103110007b68db6840229b185a7801210a435a7069
:103120007b68db684222002199547be07b681b7836
:103130001a0003231340032b72d17b681b781a00fb
:10314000c023134047d17b681b781a00202313400b
:103150000ed07b68db6818007b685b684022190032
:1031600029f010f87b68db684222012199540de0b8
:103170007b68db6818007b685b682022190029f0f7
:1031800001f87b68db684222002199547b68db6888
:103190004022995c1020014399547b68db684022ef
:1031a000995c0f20814399547b68db684022995ccd
:1031b0002020814399547b68db684022995c7f2002
:1031c000014099547b68db6840229b185a780121a2
:1031d0000a435a7026e07b68db684022995c102025
:1031e000014399547b68db684022995c0f2081433e
:1031f00099547b68db684022995c20208143995474
:103200007b68db684022995c7f20014099547b6891
:10321000db6840229b185a7801218a435a7001e0ea
:10322000e22300e000231800bd4613b090bdb0b506
:10323000bcb000af78600023ec22ba1813607b6842
:10324000002b0bd07b681b68002b07d07b685b686a
:10325000002b03d07b689b68002b01d1e22366e042
:103260007b68db681f22134001d0e2235fe000236c
:10327000ec22ba18136051e028243b1918001ff003
:1032800011fc7b6819683b19202218001ff017fcfd
:103290007b685a68ec23fb181b681b01d1183b198b
:1032a000102218001ff00bfc0823fa183b1911001c
:1032b00018001ff015fc0023e822ba18136022e062
:1032c0007b689a68ec243b191b685901e8257b1937
:1032d0001b68cb18d31819780823fa187b191b68b8
:1032e000d3181a787b6898683b191b685c017b19b6
:1032f0001b68e318c3184a40d2b21a707b191b68c6
:1033000001337a191360e823fb181b681f2bd7dde4
:10331000ec22bb181b680133ba1813607b68db68aa
:103320005b09ec22ba1812689a42a5d30023180050
:10333000bd463cb0b0bd90b5bfb000af78607b6813
:103340001a78f323fb1807210a401a707b681a7851
:10335000f223fb1820210a401a700023f422ba1825
:1033600013600b23fb1841221a707b685b68002beb
:1033700007d07b68db68002b03d07b681b69002bc0
:1033800001d1e223d1e0f322bb181b78032b03d039
:10339000bb181b78072b52d17b689b68002b07d08a
:1033a0007b689b69002b03d07b685b69002b01d194
:1033b000e223bae030243b1918001ff073fb7b684e
:1033c0009b6919003b19202218001ff078fb0b2382
:1033d000f9183b19012218001ff071fb7b689968ee
:1033e0003b190a2218001ff06afb7b685b690833ef
:1033f00019003b19012218001ff061fb7b689b68d4
:103400000a3319003b19042218001ff058fb7b688f
:1034100059693b19022218001ff051fb7b689b6819
:103420000e3319003b19052218001ff048fb10232a
:10343000fa183b19110018001ff052fb20e0f2238c
:10344000fb181b78202b0ad17b68db681022ba1886
:103450001000190020231a0028f094fe10e07b6869
:103460009b69002b01d1e2235fe07b689b691a0016
:103470001023fb181800110020231a0028f082fee8
:10348000f223fb181b78202b06d17b68db682033e6
:10349000f422ba18136004e07b68db68f422ba18df
:1034a000136030243b1918001ff0fcfa7b6819697f
:1034b0003b19202218001ff002fb1023f9183b19ba
:1034c000202218001ff0fbfaf423fb1819683b199f
:1034d000202218001ff0f3fa7b6859683b1940223c
:1034e00018001ff0ecfa0c217b1845221a707b683b
:1034f0001a787b185a707b685b88dab27b189a70ee
:103500007b685b881b0a9bb2dab27b18da70791889
:103510003b19042218001ff0d2fa7b68da693b19c4
:10352000110018001ff0dcfa00231800bd463fb060
:1035300090bd90b5b5b000af78607b689b68002bfc
:103540000fd07b685b68002b0bd07b68db68002b9f
:1035500007d07b681b68002b03d07b681b69002b9e
:1035600001d1e2233fe00c243b1918001ff09afa26
:103570007b6819683b19202218001ff0a0fa7b68ad
:103580005b6819003b19202218001ff098fa7b682d
:10359000da683b19110018001ff0a2fa0023cc22b0
:1035a000ba18136019e07b689a68cc243b191b6831
:1035b000d31819787b68da683b191b68d3181a7816
:1035c0007b6818693b191b68c3184a40d2b21a704d
:1035d0003b191b6801333a191360cc23fb181b6895
:1035e0001f2be0d900231800bd4635b090bd90b523
:1035f000b5b000af78607b689b68002b07d07b6814
:10360000db68002b03d07b685b69002b01d1e223d0
:1036100051e010243b1918001ff044fa7b689968a8
:103620003b19202218001ff04afa7b68d9683b1921
:10363000202218001ff043fa7b681b781a0007232a
:103640001340062b06d17b689b881a000323134086
:10365000032b0dd07b681b69002b01d1e2232ae0ec
:103660007b6819691023fb18402218001ff027fa05
:103670000c217b1880221a707b681a787b185a708c
:103680007b685b88dab27b189a707b685b881b0a60
:103690009bb2dab27b18da70791810243b19042235
:1036a00018001ff00cfa7b685a693b1911001800ca
:1036b0001ff016fa00231800bd4635b090bd80b546
:1036c0009eb000af78607b68da680c217b185a6086
:1036d0007b681a697b189a607b681a787b181a7362
:1036e0007b685b69002b3ed07b681b781a007723d0
:1036f0009a43131e37d17b681b781a0002231340ac
:1037000003d17b689b68002b2dd07b681b781a0047
:103710000123134003d17b685b68002b23d07b68b7
:103720001b781a000323134003d07b689b69002b8e
:1037300019d07b681b781a002023134005d17b68c1
:103740001b781a001023134003d07b68db68002b22
:1037500009d07b681b781a004023134005d07b6892
:103760001b69002b01d1e22398e07b681b781a00cb
:103770000323134031d07b689b6940229b5c7f22ee
:103780009343dbb2002b1ed17b689b6941229b5c7b
:1037900001221340dbb2002b15d07b681b781a0086
:1037a000042313405a425341dab27b689b6940219b
:1037b0005b5c10210b40dbb259424b41dbb2534002
:1037c000dbb2002b09d07b689b6940229b185a789a
:1037d00001218a435a70f42360e01c23fb187b67a5
:1037e0007b681b781a000223134002d07b689b6918
:1037f00001e07b689b68786f2022190028f0c2fcea
:103800007b6f20337b677b681b781a000123134092
:1038100002d07b689b6901e07b685b68786f20223f
:10382000190028f0affc7b6f20337b677b6f5a1c3d
:103830007a6708221a707b6f5a1c7a677a68127846
:103840001a707b6859887b6f5a1c7a67cab21a70e3
:103850007b685b881b0a99b27b6f5a1c7a67cab275
:103860001a700c217b187a6f1a607b181800fff70a
:1038700037fb7b685a691c23fb18582118001ff07e
:1038800020fa7b689b69002b07d07b689b694022ec
:103890009b185a7801218a435a7000231800bd46ac
:1038a0001eb080bd90b59bb000af78606723fb1859
:1038b00000221a707b68002b0bd07b681b69002be1
:1038c00007d07b685b68002b03d07b68db68002b2c
:1038d00001d1e22325e17b681b781a000223134003
:1038e00005d17b681b781a000123134004d067239d
:1038f000fb1801221a700fe07b681b78012b03d0a4
:103900007b681b78052b07d17b68db69002b03d014
:103910006723fb1801221a706723fb181b78002b02
:1039200005d07b681b6a002b01d1e223f9e07b689c
:103930001b781a000223134005d17b689b69002b7a
:1039400001d1e223ede07b681b781a0001231340cc
:1039500005d17b689b68002b01d1e223e1e07b6805
:103960001b781a002023134005d07b685b69002b6d
:1039700001d1e223d5e07b681b781a0002231340b3
:1039800005d17b681b781a00012313401cd07b688b
:103990001b6a41229b5c01221340dbb2002b01d148
:1039a000f423bee07b681b789b08dbb21a0001237e
:1039b0001a407b681b6a40215b5cdb06db0fdbb2d5
:1039c0009a4201d0f423ace00c243b195822002188
:1039d000180028f029fc7b681b781a00022313408a
:1039e00008d07b681b6a19003b192022180028f0b8
:1039f000c9fb07e07b6899690c23fb18202218009b
:103a000028f0c0fb7b681b781a00012313400ad002
:103a10007b681b6a19000c23fb1820332022180036
:103a200028f0b0fb08e07b6899680c23fb18203372
:103a30002022180028f0a6fb7b6819690c243b198a
:103a400040330422180028f09dfb7b681b781a0085
:103a50002023134007d07b6859693b19443308225f
:103a6000180028f08ffb7b681b69191d0c243b197b
:103a70004c330322180028f085fb7b685b68197ab9
:103a80003b194f2299547b681b69d91d3b19503350
:103a90000422180028f076fb7b6859683b195433e0
:103aa0000222180028f06efb7b681b690b3319009b
:103ab0003b1956330222180028f064fb7b68da6851
:103ac0003b19582118001ff0fcf87b681b78012b6c
:103ad00003d07b681b78052b22d17b68db69002b28
:103ae0001ed07b681b6a18007b68db6920221900e6
:103af00028f048fb7b681b6a4022995c20208143a8
:103b000099547b681b6a4022995c102001439954a8
:103b10007b681b6a40229b185a7801210a435a701d
:103b200000231800bd461bb090bdf0b5afb000af8c
:103b30007860b723fb1800221a700023b022ba184d
:103b400013607b681b69002b22d07b685b68002bad
:103b50001ed07b685b69002b1ad07b681b781a002b
:103b600074239a43131e13d17b681b781a002023f9
:103b7000134005d17b681b781a001023134003d033
:103b80007b689b68002b03d07b68db68002b01d12e
:103b9000e22314e17b685b6940229b5c7f229343b4
:103ba000dbb2002b1ed17b685b6941229b5c01224a
:103bb0001340dbb2002b15d07b681b781a0004235e
:103bc00013405a425341dab27b685b6940215b5c27
:103bd00010210b40dbb259424b41dbb25340dbb208
:103be000002b09d07b685b6940229b185a78012121
:103bf0008a435a70f423e2e00823fb18b022ba1873
:103c00001360b723fb1800221a7015e07b685a680e
:103c1000b7203b181b78d3181a78b0243b191b68bf
:103c2000591c3c19216036214a40d2b21a703b1807
:103c30001a783b1801321a70b7257b191b781f2b95
:103c4000e4d9b0243b191b6820223621180028f043
:103c5000ebfa2200bb181b682033b9180b60140064
:103c6000bb181b6820220021180028f0ddfa220072
:103c7000bb181b682033b9180b607b685b6919009f
:103c80001400bb181b682022180028f07bfa2200c1
:103c9000bb181b68203310003a1813603b181b68d0
:103ca0005a1c39180a6011221a703b181b685a1cda
:103cb00039180a607a6812781a707b6859883b183c
:103cc0001b685a1c3c182260cab21a707b685b8859
:103cd0001b0a99b23b181b685a1c3c182260cab2d6
:103ce0001a707b689a68a0217b185a607b68da6832
:103cf0007b189a607b681a787b181a737b1804000b
:103d00003a1812681a607b181800fff7e9f87b6808
:103d10001a690826bb19982118001ef0d2ffbb199a
:103d20003a1913607b1900221a7015e07b685a68f3
:103d3000b7203b181b78d3181a78b0243b191b689e
:103d4000591c3c1921605c214a40d2b21a703b18c0
:103d50001a783b1801321a70b723fb181b781f2bf7
:103d6000e4d9b0243b191b6820225c21180028f0fc
:103d70005bfa2200bb181b682033b9180b607b6804
:103d800019691400bb181b682022180028f0faf9e2
:103d90002200bb181b682033ba1813607b681a69ad
:103da0000823fb18602118001ef08bff7b685b69fd
:103db00040229b185a7801218a435a700023180028
:103dc000bd462fb0f0bd90b59db000af78607b6868
:103dd0005b69002b03d07b681b6a002b01d1e223b7
:103de00089e17b681b78022b05d87b689b69002bd7
:103df00001d1e2237fe17b681b78032b07d07b682e
:103e00001b78022b09d17b681b7c002b05d07b68bb
:103e1000db69002b01d1e2236de17b681b78052b68
:103e200001d9e22367e10c23fb18fb667b681b7852
:103e3000032b15d17b685b881bb2002b08da7b68eb
:103e40001b6a1900fb6e2022180028f09bf91de068
:103e50007b68d969fb6e2022180028f093f915e0e1
:103e60007b681b78042b03d07b681b78052b06d15d
:103e7000fb6e20220021180028f0d6f906e07b68ae
:103e80009969fb6e2022180028f07cf9fb6e203324
:103e9000fb667b681b78022b0ed17b681b7c002b9a
:103ea0000ad07b68d969fb6e0422180028f06af9f1
:103eb000fb6e0433fb6624e0fb6e5a1cfa66152287
:103ec0001a70fb6e5a1cfa667a6812781a707b6850
:103ed0005988fb6e5a1cfa66cab21a707b681b7846
:103ee000032b05d1fb6e5a1cfa6600221a7008e0fb
:103ef0007b685b881b0a99b2fb6e5a1cfa66cab2d1
:103f00001a707b685a69fb6e591cf966127a1a702e
:103f10007b685a69fb6e591cf96612781a707b68c7
:103f20005a69fb6e591cf96652781a707b681b78c7
:103f3000042b2dd1fb6e5a1cfa6600221a707b6886
:103f4000d968fb6e5a1cfa66cab21a707b68db68c5
:103f5000190afb6e5a1cfa66cab21a707b68db68d3
:103f6000190cfb6e5a1cfa66cab21a707b68db68c1
:103f7000190efb6e5a1cfa66cab21a70fb6e142236
:103f80000021180028f050f9fb6e1433fb6641e065
:103f90007b681b78052b34d1fb6e5a1cfa66002215
:103fa0001a707b689988fb6e5a1cfa66cab21a703e
:103fb0007b689b881b0a99b2fb6e5a1cfa66cab2d0
:103fc0001a707b68d988fb6e5a1cfa66cab21a70de
:103fd0007b68db881b0a99b2fb6e5a1cfa66cab270
:103fe0001a70fb6e5a1cfa667a68127a1a70fb6ea7
:103ff00013220021180028f017f9fb6e1333fb661b
:1040000008e0fb6e19220021180028f00df9fb6e64
:104010001933fb667b681b78032b0fd17b685b88a9
:104020001bb2002b0ada7b68d969fb6e20221800cc
:1040300028f0a8f8fb6e2033fb660ae07b681b6a59
:104040001900fb6e2022180028f09cf8fb6e20332c
:10405000fb660c203b18fa6ed31a19007b681b6aaa
:104060001a003b1818001ef02cfe7b681b6a4022c9
:104070009b185a7801210a435a707b681b78022bdf
:104080002ad17b685b880f2b26d87b681b6a40226d
:10409000995c2020014399547b685a887b681b6a8d
:1040a000111c0f220a40d1b240220f2001400c0007
:1040b000995c0f208143081c211c014399547b68a3
:1040c0001b7c002b16d07b681b6a4022995c8020e9
:1040d0004042014399540de07b681b6a4022995c81
:1040e0002020814399547b681b6a4022995c0f20f1
:1040f0008143995400231800bd461db090bd90b572
:104100009db000af78607b689b69002b03d07b6813
:104110001b6a002b01d1e223abe07b681b6a4022c3
:104120009b5c7f229343dbb2002b08d17b681b6a28
:1041300041229b5c01221340dbb2002b09d17b683a
:104140001b6a40229b185a7801218a435a70f42333
:104150008fe00c243b19fb667b681b6a1900fb6e21
:104160002022180028f00ef8fb6e2033fb66fb6e51
:104170005a1cfa6612221a70fb6e5a1cfa667a688a
:1041800012781a707b685988fb6e5a1cfa66cab29c
:104190001a707b685b881b0a99b2fb6e5a1cfa6620
:1041a000cab21a707b685a69fb6e591cf966127a9a
:1041b0001a707b685a69fb6e591cf96612781a707e
:1041c0007b685a69fb6e591cf96652781a70fb6e4f
:1041d00019220021180028f027f8fb6e1933fb661e
:1041e0007b689969fb6e2022180027f0cbff7b6863
:1041f0001b6a1a003b19602118001ef062fd7b68e3
:104200001b6a40229b185a7801210a435a707b6826
:104210001b78022b1ed17b685b880f2b1ad87b681a
:104220001b6a4022995c2020014399547b685a887c
:104230007b681b6a111c0f220a40d1b240220f205a
:1042400001400c00995c0f208143081c211c014394
:1042500099540de07b681b6a4022995c20208143c1
:1042600099547b681b6a4022995c0f2081439954c2
:1042700000231800bd461db090bd90b59db000afa5
:1042800078607b689b68002b03d07b685b69002ba0
:1042900001d1e22398e07b685b6940229b5c7f222e
:1042a0009343dbb2002b08d17b685b6941229b5ca6
:1042b00001221340dbb2002b09d17b685b694022ed
:1042c0009b185a7801218a435a70f4237ce06f23ab
:1042d000fb1800221a7018e07b689a686f243b195b
:1042e0001b78d31819787b685a693b191b78d25c04
:1042f0007b68d8683b191b78c3184a40d2b21a7041
:104300003b191a783b1901321a706f23fb181b787e
:104310001f2be1d97b681b69002b54d008243b1963
:10432000bb667b685b691900bb6e2022180027f012
:1043300029ffbb6e2033bb66bb6e5a1cba661222c5
:104340001a70bb6e5a1cba667a6812781a707b684b
:104350005988bb6e5a1cba66cab21a707b685b88f1
:104360001b0a99b2bb6e5a1cba66cab21a707b6835
:104370005a68bb6e591cb966127a1a707b685a6803
:10438000bb6e591cb96612781a707b685a68bb6e8e
:10439000591cb96652781a70bb6e19220021180098
:1043a00027f042ffbb6e1933bb667b689968bb6e12
:1043b0002022180027f0e6fe7b681a693b1960216d
:1043c00018001ef07efc00231800bd461db090bdf5
:1043d000b0b5a4b000af78608f23fb1800221a702c
:1043e00000238822ba1813607b689b68002b03d0d7
:1043f0007b685b69002b01d1e223e0e07b685b69ad
:1044000040229b5c7f229343dbb2002b08d17b6868
:104410005b6941229b5c01221340dbb2002b09d176
:104420007b685b6940229b185a7801218a435a7045
:10443000f423c4e08f23fb1800221a7018e07b6875
:104440009a688f243b191b78d31819787b685a69ae
:104450003b191b78d25c7b68d8683b191b78c31862
:104460004a40d2b21a703b191a783b1901321a70bd
:104470008f243b191b781f2be1d97b685b691800df
:104480000823fb181a0020211ef01bfc3b192022d8
:104490001a7019e07b689a688f243b191b78d3182f
:1044a00019783b191b78203b0822ba18d25c7b682c
:1044b000d8683b191b78c3184a40d2b21a703b190e
:1044c0001a783b1901321a708f23fb181b78232ba3
:1044d000e0d97b681b69002b70d028257b198822c6
:1044e000b9180b607b685b6919001400bb181b6866
:1044f0002022180027f046fe2200bb181b6820333c
:1045000010003a1813603b181b685a1c39180a60cf
:1045100046221a703b181b685a1c39180a607a68c0
:1045200012781a707b6859883b181b685a1c3c1813
:104530002260cab21a707b685b881b0a99b23b186a
:104540001b685a1c3c182260cab21a707b685a68f1
:104550003b181b68591c3c182160127a1a707b6842
:104560005a683b181b68591c3c18216012781a7055
:104570007b685a683b181b68591c3c1821605278ac
:104580001a7004003b181b6815220021180027f040
:104590004bfe2200bb181b681533b9180b607b68f3
:1045a0009968bb181b682422180027f0ebfd7b6874
:1045b0001a697b19602118001ef083fb0023180084
:1045c000bd4624b0b0bd90b59db000af78607b68ab
:1045d0009b68002b12d07b68db68002b0ed07b68b9
:1045e0001b69002b0ad07b681b781a0004239a43ae
:1045f000131e03d17b685b880f2b01d9e22392e065
:104600007b681b6940229b5c7f229343dbb2002bbb
:104610001ed17b681b6941229b5c01221340dbb2e7
:10462000002b15d07b681b781a00042313405a42d4
:104630005341dab27b681b6940215b5c10210b405f
:10464000dbb259424b41dbb25340dbb2002b09d005
:104650007b681b6940229b185a7801218a435a7053
:10466000f42360e00c243b19fb667b689968fb6ec1
:104670002022180027f086fdfb6e2033fb66fb6ec0
:104680005a1cfa661c221a70fb6e5a1cfa667a686b
:1046900012781a707b685988fb6e5a1cfa66cab287
:1046a0001a707b685b881b0a99b2fb6e5a1cfa660b
:1046b000cab21a707b685a68fb6e591cf966127a86
:1046c0001a707b685a68fb6e591cf96612781a706a
:1046d0007b685a68fb6e591cf96652781a70fb6e3b
:1046e00019220021180027f09ffdfb6e1933fb668d
:1046f0007b681b691900fb6e2022180027f042fd21
:10470000fb6e2033fb667b68da683b19602118007a
:104710001ef0d7fa7b681b6940229b185a7801214a
:104720008a435a7000231800bd461db090bd90b555
:104730008fb000af78607b689b68002b0ed07b68e1
:10474000db68002b0ad07b681b781a0004239a438d
:10475000131e03d17b685b880f2b01d9e22344e051
:104760000c243b197b637b6899687b6b20221800c3
:1047700027f008fd7b6b20337b637b6b5a1c7a63cd
:104780001c221a707b6b5a1c7a637a6812781a7032
:104790007b6859887b6b5a1c7a63cab21a707b6833
:1047a0005b881b0a99b27b6b5a1c7a63cab21a7077
:1047b0007b685a687b6b591c7963127a1a707b6824
:1047c0005a687b6b591c796312781a707b685a6837
:1047d0007b6b591c796352781a707b68da683b19d5
:1047e000272118001ef06dfa00231800bd460fb0f7
:1047f00090bd90b585b000af78607b681b68002bda
:1048000003d07b685b68002b01d1e22359e07b6811
:104810005b6840229b5c7f229343dbb2002b1ad162
:104820007b685b6841229b5c01221340dbb2002b5a
:1048300011d07b685b6840229b5c20221340dbb276
:10484000002b08d07b685b6840229b5c10221340e1
:10485000dbb2002b09d07b685b6840229b185a783a
:1048600001218a435a70f4232be00f23fb18002206
:104870001a7018e07b681a680f243b191b78d3184c
:1048800019787b685a683b191b78d25c7b6818687a
:104890003b191b78c3184a40d2b21a703b191a78d8
:1048a0003b1901321a700f23fb181b781f2be1d91b
:1048b0007b685b6840229b185a7801218a435a70b2
:1048c00000231800bd4605b090bd80b584b000af90
:1048d000f860b9607a60f9687a68bb6818001ef001
:1048e000f0f90300dbb21800bd4604b080bd90b5fe
:1048f000a3b000af78607b68002b0bd07b685b684f
:10490000002b07d07b681b69002b03d07b685b6999
:10491000002b01d1e22395e07b689b68002b03d03c
:104920007b689b68582b01d9e2238be008243b1954
:1049300080220021180027f077fc7b685b69190052
:104940003b192022180027f01dfc3b192022402192
:1049500099547b681b781a00102313400fd07b6892
:10496000db68002b01d1e2236ce07b68d968082367
:10497000fb1821330322180027f004fc1ce07b689d
:104980001b781a000823134014d07b68197808207c
:104990003b18212299547b685b88d9b23b182222ac
:1049a00099547b685b881b0a9bb2d9b23b182322bf
:1049b000995401e0002345e07b681b69197a0824bb
:1049c0003b19242299547b6819693b19253302222b
:1049d000180027f0d7fb7b689b688022d31a3a190e
:1049e000d0187b6859687b689b681a0027f0cafb5f
:1049f0007b685b691a003b19802118001ef061f981
:104a00007b685b694022995c2020814399547b68d4
:104a10005b694022995c4020014399547b685a8825
:104a20007b685b69111c0f220a40d1b240220f2023
:104a300001400c00995c0f208143081c211c01439c
:104a4000995400231800bd4623b090bd80b586b0b0
:104a500000afb9607a600f23fb18021c1a700023a4
:104a60007b611223fb1800221a80bb68002b06d042
:104a70007b68002b03d0bb681b69002b01d1e223ac
:104a80007ee0bb681b6940229b5c1b071b0fdbb2ef
:104a90000a335b001a007b689b187b617b691b787b
:104aa0001ab27b6901331b781b021bb213431bb282
:104ab0009ab2bb689a80bb681b6940229b5c1b074b
:104ac0001b0fdbb230335b001a007b689b187b61e5
:104ad0007b691b781ab27b6901331b781b021bb2fe
:104ae00013431bb29ab2bb68da800f23fb181b7802
:104af000012b1ed1bb681b6940229b5c1b071b0f4f
:104b0000dbb2072b15d8bb681b6940229b5c1b07d7
:104b10001b0fdbb21a335b001a007b689b187b61aa
:104b20007b691a78bb681a727b695a78bb685a72bb
:104b300005e0bb6800221a72bb6800225a727b68cb
:104b400058331b781ab27b6859331b781b021bb28f
:104b500013431ab212217b181a807b181a88bb687b
:104b60001b6940215b5c1b071b0fdbb21a41130062
:104b7000012213405a425341dab2bb689a720023b1
:104b80001800bd4606b080bd90b591b000af0200e0
:104b90003960fb1d1a703b68002b07d03b681b690e
:104ba000002b03d03b68db68002b01d1e22346e1f8
:104bb00008243b1937220021180027f035fb3b68f9
:104bc0001b6919003b192022180027f0dbfa20008e
:104bd0003b182022412199543b6819783b18212227
:104be00099543b685b88d9b23b18222299543b68a0
:104bf0005b881b0a9bb2d9b23b18232299543b68ad
:104c00009b88d9b23b18242299543b689b881b0a85
:104c10009bb2d9b23b18252299543b68db88d9b2a4
:104c20003b18262299543b68db881b0a9bb2d9b2f9
:104c30003b18272299543b1828229b5c5ab23b68a8
:104c40001b6940215b5c1b071b0fdbb25bb20f21b2
:104c50000b405bb213435bb2d9b23b182822995484
:104c60003b1828229b5c5ab23b681b6940215b5c65
:104c7000db06db0fdbb21b015bb210210b405bb22a
:104c800013435bb2d9b23b18282299543b1828220f
:104c90009b5c5ab23b681b6940215b5c9b06db0f47
:104ca000dbb25b015bb220210b405bb213435bb212
:104cb000d9b23b18282299543b1828229b5c5ab23f
:104cc0003b681b6940215b5c5b06db0fdbb29b0131
:104cd0005bb240210b405bb213435bb2d9b23b18cd
:104ce000282299543b1828229b5c5ab23b681b69c6
:104cf00040215b5c1b06db0fdbb2db015bb21343c5
:104d00005bb2d9b23b1828229954fb1d1b78012baa
:104d100013d13b681b6940229b5c1b071b0fdbb256
:104d2000072b0ad83b68197a3b18292299543b680b
:104d3000597a3b182a22995408e008203b18292266
:104d4000002199543b182a22002199543b68db68c2
:104d5000197a08243b192b2299543b68d9683b19ce
:104d600030330222180027f00dfa3b681b781a0036
:104d70004023134011d03b68db68191d3b192c33cd
:104d80000422180027f0fef93b68db68991c3b19e8
:104d900032330222180027f0f5f93b689b7a012292
:104da0005340dbb2190008203b18342299543b6869
:104db000db7a19003b18352299543b183622002122
:104dc00099543b685b69002b08d03b685a693b18d3
:104dd0001000190037231a0027f0d4f93b689b69ab
:104de000002b1cd03b68986908243b1921330a2208
:104df000190027f0c7f93b689b690a3318003b1973
:104e00002c330422190027f0bdf93b689b690e334f
:104e100018003b1932330522190027f0b3f93b681b
:104e2000db69002b0ad03b68da690823fb183721bd
:104e300018001df046ff0300dbb200e0002318005d
:104e4000bd4611b090bd80b582b000af78603960ca
:104e50007b68174a934206d87b681f22134002d111
:104e60003b68002b01d1e2231de07b68dab23b688e
:104e70001a707b681a0a3b680133d2b21a707b68d9
:104e80001a0c3b680233d2b21a707b681a0e3b6868
:104e90000333d2b21a703b68043339680422180015
:104ea00027f070f900231800bd4602b080bdc0464f
:104eb000ffff1f0080b582b000af0200fb1d1a701b
:104ec000fb1d1b78002b01d1002302e021f052ffd3
:104ed00003001800bd4602b080bd80b582b000afaf
:104ee00002003960fb1d1a70fb1d1b78002b07d0d8
:104ef0003b685a1e9341dbb2180021f04fff00e0df
:104f0000c046bd4602b080bdf0b5fbb002af0200a6
:104f10003960e84bf02149008c46bc4463441a7068
:104f2000e54bec225200b9180b603b68002b01d115
:104f300000f00cfcbb181b685b68002b01d100f073
:104f400005fcdc4bf02252009446bc4463441b78c1
:104f5000043b2e2b01d900f0fbfb9a00d74bd31852
:104f60001b689f463b68ea2149007a181360ec20d1
:104f700040003b181b685b681b7a01225340dbb280
:104f8000002b01d000f0e6fb3b181b685b68002299
:104f90001a727b181b685b785bb2002b2bd13b1815
:104fa0001b685b687a18126812789a727b181b6803
:104fb0001b78002b08d03b181b685b685b7a1800d5
:104fc00002f0cfff00f0c8fbec2149007b181b6802
:104fd0005b6884229b58002b01d100f0bdfb7b183d
:104fe0001b685b6884229c587b1818680023002289
:104ff0000021a047b0e3ec235b00fb181b685b6853
:1050000000229a72a8e33b68e8256d007a191360c4
:10501000ec2464003b191b685b682d3318007b1976
:105020001b6804330622190027f0acf83b191b68f3
:105030005b683322012199543b191b685b680c3370
:1050400018007b191b680a332022190027f09af8f0
:105050007b191b680a33180027f0eef802002000c5
:105060003b181b685b68d1b22c2299543b181b6813
:105070005b687a19126801215156362299543b18ff
:105080001b685b687a1912689178372299543b182b
:105090001b685b687a191268d1783422995406002b
:1050a000bb191b685b680122da72bb191b685b685d
:1050b00084229b58002b00d150e3bb191b685b680e
:1050c00084229d58bb191868bb191b685b685b7a02
:1050d0000133d9b2bb191b685b689a7abb191b688c
:1050e0005b680c33d024ff343c19a84703002370bd
:1050f000d024ff343b191b78002b25d0bb191b682b
:105100005b685a7a0132d2b25a72bb191b685b686b
:105110005c7a02f03cff03009c420cd2bb191b6876
:105120005b685b7a180002f01cffbb191b685b68a8
:105130000022da7212e3ec235b00fb181b685b6849
:1051400084220021995009e3ec235b00fb181b68c3
:105150005b6884220021995000e33b68e4225200fe
:10516000b9180b60bb181b681b78012b1ed1ec21f2
:1051700049007b181b685b680122da717b181b6889
:105180005b689e229b5c01225340dbb2002b21d046
:105190007b181b685b68a0229b58002b1ad07b18d9
:1051a0001b685b689d220121995413e0e4235b0096
:1051b000fb181b681b78002b0cd1ec2149007b18d5
:1051c0001b685b680022da717b181b685b685022e1
:1051d00000219954ec2149007b181b685b688822e8
:1051e0009b58002b00d1bbe27b181b685b688822b0
:1051f0009c587b1818687b181968e4256d007b198a
:105200001b681a787b191b685b78a047a8e23b688b
:10521000e22149007a181360ec235b00fb181b683d
:105220005b6888229b58002b00d19be27b181b688f
:105230001b785bb21a00163211d01a00163202dc4b
:10524000173306d01de01a0015320ed0143312d0d9
:1052500017e0e023ff33fb1805221a7017e0e02364
:10526000ff33fb1803221a7011e0e023ff33fb1811
:1052700001221a700be0e023ff33fb1806221a709c
:1052800005e0e023ff33fb1807221a70c046ec212b
:1052900049007b181b685b6888229c587b1818683b
:1052a0007b181968e023ff33fb181b780022a04706
:1052b00058e2c04627feffffbc0e002058920200b5
:1052c0003b68e0225200ba181360ec2149007b18b9
:1052d0001b685b685b7901225340dbb2002b05d071
:1052e0007b181b685b689d2201219954e0214900cd
:1052f0007b181b6803331b781a067b181b68023364
:105300001b781b041a437b181b6801331b781b0294
:105310001a437b181b681b781900ec2040003b18cf
:105320001b685b680a43a0215a5001007b181b6868
:105330005b68b4229b58002b00d115e27b181b68d8
:105340005b68b4229a587b1818687b181b685b68e6
:10535000a0215b581900904706e23b68de2252000c
:10536000b9180b60bb181b6818001df0e9fc03009e
:10537000dc2040003a181360ec2149007b181b68c0
:105380005b688c229b58002b00d1efe17b181b68d7
:105390005b688c229b587a181268391809681000cb
:1053a0009847e3e1ec235b00fb181b685b68bc22b9
:1053b0009b58002b00d1dbe13b68da2464003a19ea
:1053c00013603b191b68180026f036ff0300d9b2a2
:1053d000eb4bf02252009446bc4463442022995483
:1053e000e74bf02252009446bc44634420229b5c6d
:1053f000202b00d9bee10c257b19202200211800aa
:1054000026f012ff3b191968dd4bf022520094463a
:10541000bc44634420229b5c1a007b19180026f0d0
:10542000b1fe3b191b6862229a5cd64bf021490001
:105430008c46bc4463441a703b191b6862229b5c17
:10544000022b27d13b191b682133180026f0f4feec
:105450000300dab2cb4bf02149008c46bc446344d4
:105460001a7138257b19053340220021180026f0d7
:10547000dbfe3b191b6821331900c24bf02252009e
:105480009446bc4463441b791a007b190533180009
:1054900026f078feec256d007b191b685b68bc224a
:1054a0009c587b191868da235b00fb181b68632281
:1054b0009b5c5a425341dbb23822ba180c2179184e
:1054c000a0477b191b685b68bc22002199504fe103
:1054d0003b68d8256d007a1913607b191b6818008a
:1054e00026f0aafe0200ec2040003b181b685b6817
:1054f000d1b2712299543b181b685b6871229b5c86
:10550000202b00d938e104003b181b685b6851333d
:1055100020220021180026f087fe2200bb181b68fd
:105520005b68513318007b1919681400bb181b689d
:105530005b6871229b5c1a0026f024fe20003b1859
:105540001b685b687a1912682121515c802299548a
:105550007b191b6825229b5c1a067b191b6824217a
:105560005b5c1b041a437b191b6823215b5c1b02d9
:105570001a437b191b6822215b5c19003b181b68ce
:105580005b680a435a6704003b181b685b68783302
:1055900018007b191b6826330622190026f0f2fd3d
:1055a0003b191b685b687e22012199543b191b68db
:1055b0005b6850220121995421007b181b685b68ad
:1055c00090229b58002b00d1d8e07b181b685b68a9
:1055d00090229c580a00bb181868bb181d68bb189d
:1055e0001b685b6851331e00bb181b685b68742125
:1055f0008c469c44bb181b685b6880229b5cd8224d
:105600005200ba1812682c21525601920093634638
:1056100032002900a047b1e03b68d6225200b918f9
:105620000b60ec2040003b181b685b68ba181268de
:1056300000215156482299543b181b685b689422fc
:105640009b58002b00d19fe03b181b685b6894229d
:105650009a5804003b1918683b191b685b6848217d
:105660005b56190090473b191b685b689422002128
:10567000995089e03b68d42464003a191360ec2304
:105680005b00fb181b685b6898229b58002b00d1bd
:105690007ce00c26bb1918001df076ff25007b1955
:1056a0001b689c1c7b191b680233180026f0c4fd84
:1056b0000300dab2bb19210018001df08aff7b1924
:1056c0001b685a78bb19110018001df0f1ff7b19f7
:1056d0001b681b78012b02d0022b06d01ae038235e
:1056e000fb18180019f038fe21e0d4225200bb1834
:1056f0001b6823331c00bb181b682333180026f0db
:105700009bfd0300dab23823fb182100180019f0c2
:1057100034fe0ce0ec2149007b181b685b68982282
:105720009b587a1810680022002198472fe0ec213e
:1057300049007b181b685b6898229b587a18106890
:105740003822ba180c21791898471fe0c0461ee08d
:10575000c0461ce0c0461ae0c04618e0c04616e04d
:10576000c04614e0c04612e0c04610e0c0460ee05d
:10577000c0460ce0c0460ae0c04608e0c04606e06d
:105780002cfeffff58feffffc04600e0c046bd46ae
:1057900079b0f0bd80b584b000af0200fb1d1a7077
:1057a000bb1d0a1c1a70224bfb60fb685b68002b58
:1057b00037d0fb1d1b78012b04d0002b33dd032bce
:1057c00031dc19e0fb685b68c0229b58002b08d0d5
:1057d000fb685b68c0229b58f868ba1d12781100fc
:1057e0009847fb685b689c2200219954fb685b68c2
:1057f000c0220021995017e0fb685b68c4229b58c7
:10580000002b08d0fb685b68c4229b58f868ba1d5f
:10581000127811009847fb685b68c42200219950f8
:1058200002e0c04600e0c046bd4604b080bdc046b0
:10583000bc0e0020b0b5a4b000af02003960fb1d63
:105840001a70674b88217a1813603b68002b00d1cf
:10585000b9e07b181b685b68002b00d1b3e0fb1d2f
:105860001b78012b1ed0062b00d0aee07b181b68e6
:105870005b68c8229b58002b00d1a8e03b688422bb
:10588000b8180360bb181b681b68bb677b181b68d4
:105890005b68c8229b587a18126878217918100022
:1058a000984794e03b6880217a1813600c203b18dd
:1058b0008c22ba1813608823fb181b685b68cc2203
:1058c0009b58002b00d184e07b181b681a887f242a
:1058d0003b191a707b181b685a6870257b191a606f
:1058e0007b181b689a687b195a603b186422002158
:1058f000180026f099fc3b191b78052b6bd89a00f1
:10590000384bd3181b689f4680243b191b680c3307
:105910000c257a191000190020231a0026f032fcf9
:105920003b191b682c331a007b19203311002022ed
:10593000180026f027fc3b191b684c22995a7b194a
:10594000402299523b191b684e22995a7b194222d8
:1059500099523b191b6850331a007b1944331100cc
:105960002022180026f00efc19e000238c22ba1821
:10597000136014e080217b181b689a890c203b1867
:105980001a807b181b68da893b185a8007e080234d
:10599000fb181b68da680c23fb181a60c0468821c4
:1059a0007b181b685b68cc229c587b1818688c237a
:1059b000fb181d687023fa187f23fb1819782b0039
:1059c000a047c04608e0c04606e0c04604e0c04626
:1059d00002e0c04600e0c046bd4624b0b0bdc046af
:1059e000bc0e00201493020090b58bb000af3a605b
:1059f000fb1d021c1a70bb1d0a1c1a703a4b7b62fd
:105a00007b6a5b68002b69d07b6a5b68d0333b6242
:105a10003b6afb611a23fb18012252421a800120c3
:105a2000fff748fa03007b61fb691b78002b0cd061
:105a3000fb691b78013bdab2fb691a707b691900bc
:105a40000120fff74afa012305e07b6919000120d4
:105a5000fff743fa0023012b42d1fb1d1b78002bdb
:105a600007d13b6aba1d12785a703b6a3a689a614c
:105a700005e03b6aff225a703b6a00229a613b6a4a
:105a800000221a613b6a00225a613b6a0022da61f5
:105a90003b6a00221a623b6a3b610120fff70afa67
:105aa0000300fb603b691b780133dab23b691a7073
:105ab000fb6819000120fff710fa7b6a5b68f4228b
:105ac0009b58002b0dd07b6a5b68f4229c58786a47
