:020000040000fa
:10000000f07f00200d2f0100fd37010003380100b3
:1000100000000000000000000000000000000000e0
:100020000000000000000000000000007bb600009f
:1000300000000000000000007bb600007bb600005e
:100040007bb600007bb600007bb600007bb60000ec
:1000500041fd00007bb6000089da00007bb600009d
:100060007bb600007bb600007bb600007bb60000cc
:100070007bb6000065ba0000cd8200007bb60000b0
:100080007bb600007bb60000390201007bb60000a1
:100090007bb6000000000000000000007bb60000fe
:1000a0007bb600007bb600007bb600007bb600008c
:020000040000fa
:1000b000f8b5c046f8bc08bc9e46704775310100d3
:1000c000f8b5c046f8bc08bc9e4670474d310100eb
:020000040000fa
:1000d0007007010001000000300e01000100000067
:020000040000fa
:1000e00080b582b000af0200fb1d1a70fb1d1b78ab
:1000f000002b01d1002302e011f004f903001800e5
:10010000bd4602b080bd80b582b000af020039604c
:10011000fb1d1a70fb1d1b78002b07d03b685a1e75
:100120009341dbb2180011f001f900e0c046bd4672
:1001300002b080bdf0b5fbb002af02003960e84b01
:10014000f02149008c46bc4463441a70e54bec2214
:100150005200b9180b603b68002b01d100f00cfc79
:10016000bb181b685b68002b01d100f005fcdc4b61
:10017000f02252009446bc4463441b78043b2e2b6f
:1001800001d900f0fbfb9a00d74bd3181b689f46a0
:100190003b68ea2149007a181360ec2040003b18c4
:1001a0001b685b681b7a01225340dbb2002b01d035
:1001b00000f0e6fb3b181b685b6800221a727b1894
:1001c0001b685b785bb2002b2bd13b181b685b680c
:1001d0007a18126812789a727b181b681b78002ba9
:1001e00008d03b181b685b685b7a180002f0cffff1
:1001f00000f0c8fbec2149007b181b685b68842277
:100200009b58002b01d100f0bdfb7b181b685b687d
:1002100084229c587b181868002300220021a047e4
:10022000b0e3ec235b00fb181b685b6800229a724a
:10023000a8e33b68e8256d007a191360ec2464009c
:100240003b191b685b682d3318007b191b6804334e
:100250000622190013f0a2fa3b191b685b683322cf
:10026000012199543b191b685b680c3318007b19fa
:100270001b680a332022190013f090fa7b191b68bf
:100280000a33180013f09bfa020020003b181b6889
:100290005b68d1b22c2299543b181b685b687a19b1
:1002a000126801215156362299543b181b685b682d
:1002b0007a1912689178372299543b181b685b6849
:1002c0007a191268d178342299540600bb191b6838
:1002d0005b680122da72bb191b685b6884229b5839
:1002e000002b00d150e3bb191b685b6884229d582a
:1002f000bb191868bb191b685b685b7a0133d9b2fc
:10030000bb191b685b689a7abb191b685b680c3366
:10031000d024ff343c19a84703002370d024ff34b5
:100320003b191b78002b25d0bb191b685b685a7ad8
:100330000132d2b25a72bb191b685b685c7a02f058
:100340003cff03009c420cd2bb191b685b685b7ac4
:10035000180002f01cffbb191b685b680022da72f0
:1003600012e3ec235b00fb181b685b68842200210e
:10037000995009e3ec235b00fb181b685b6884223f
:100380000021995000e33b68e4225200b9180b6049
:10039000bb181b681b78012b1ed1ec2149007b1870
:1003a0001b685b680122da717b181b685b689e2200
:1003b0009b5c01225340dbb2002b21d07b181b68d1
:1003c0005b68a0229b58002b1ad07b181b685b68c7
:1003d0009d220121995413e0e4235b00fb181b6864
:1003e0001b78002b0cd1ec2149007b181b685b6843
:1003f0000022da717b181b685b6850220021995437
:10040000ec2149007b181b685b6888229b58002bf5
:1004100000d1bbe27b181b685b6888229c587b1864
:1004200018687b181968e4256d007b191b681a7819
:100430007b191b685b78a047a8e23b68e221490072
:100440007a181360ec235b00fb181b685b6888223a
:100450009b58002b00d19be27b181b681b785bb27a
:100460001a00163211d01a00163202dc173306d0e9
:100470001de01a0015320ed0143312d017e0e0231d
:10048000ff33fb1805221a7017e0e023ff33fb1837
:1004900003221a7011e0e023ff33fb1801221a70c7
:1004a0000be0e023ff33fb1806221a7005e0e0237f
:1004b000ff33fb1807221a70c046ec2149007b1855
:1004c0001b685b6888229c587b1818687b18196821
:1004d000e023ff33fb181b780022a04758e2c046f8
:1004e00027feffffb41600206c2001003b68e022cd
:1004f0005200ba181360ec2149007b181b685b6836
:100500005b7901225340dbb2002b05d07b181b68be
:100510005b689d2201219954e02149007b181b68ea
:1005200003331b781a067b181b6802331b781b04e5
:100530001a437b181b6801331b781b021a437b1874
:100540001b681b781900ec2040003b181b685b6897
:100550000a43a0215a5001007b181b685b68b42233
:100560009b58002b00d115e27b181b685b68b422f6
:100570009a587b1818687b181b685b68a0215b5829
:100580001900904706e23b68de225200b9180b6062
:10059000bb181b6818000ef04dff0300dc20400064
:1005a0003a181360ec2149007b181b685b688c22a9
:1005b0009b58002b00d1efe17b181b685b688c22f5
:1005c0009b587a1812683918096810009847e3e1b7
:1005d000ec235b00fb181b685b68bc229b58002b5c
:1005e00000d1dbe13b68da2464003a1913603b195f
:1005f0001b68180013f0e3f80300d9b2eb4bf022ac
:1006000052009446bc44634420229954e74bf022a4
:1006100052009446bc44634420229b5c202b00d9aa
:10062000bee10c257b1920220021180013f0bff831
:100630003b191968dd4bf02252009446bc446344d8
:1006400020229b5c1a007b19180013f0a7f83b19b5
:100650001b6862229a5cd64bf02149008c46bc4450
:1006600063441a703b191b6862229b5c022b27d1e2
:100670003b191b682133180013f0a1f80300dab20c
:10068000cb4bf02149008c46bc4463441a71382599
:100690007b19053340220021180013f088f83b191c
:1006a0001b6821331900c24bf02252009446bc440f
:1006b00063441b791a007b190533180013f06ef898
:1006c000ec256d007b191b685b68bc229c587b196c
:1006d0001868da235b00fb181b6863229b5c5a4294
:1006e0005341dbb23822ba180c217918a0477b1984
:1006f0001b685b68bc22002199504fe13b68d825fc
:100700006d007a1913607b191b68180013f057f8f5
:100710000200ec2040003b181b685b68d1b27122dc
:1007200099543b181b685b6871229b5c202b00d995
:1007300038e104003b181b685b685133202200211c
:10074000180013f034f82200bb181b685b685133a3
:1007500018007b1919681400bb181b685b687122ac
:100760009b5c1a0013f01af820003b181b685b68aa
:100770007a1912682121515c802299547b191b68d7
:1007800025229b5c1a067b191b6824215b5c1b04d9
:100790001a437b191b6823215b5c1b021a437b19dc
:1007a0001b6822215b5c19003b181b685b680a43cd
:1007b0005a6704003b181b685b68783318007b1984
:1007c0001b6826330622190012f0e8ff3b191b684c
:1007d0005b687e22012199543b191b685b6850229b
:1007e0000121995421007b181b685b6890229b585b
:1007f000002b00d1d8e07b181b685b6890229c58c6
:100800000a00bb181868bb181d68bb181b685b681a
:1008100051331e00bb181b685b6874218c469c44d6
:10082000bb181b685b6880229b5cd8225200ba18f8
:1008300012682c215256019200936346320029001f
:10084000a047b1e03b68d6225200b9180b60ec20fb
:1008500040003b181b685b68ba18126800215156ab
:10086000482299543b181b685b6894229b58002bc4
:1008700000d19fe03b181b685b6894229a580400e3
:100880003b1918683b191b685b6848215b561900c7
:1008900090473b191b685b6894220021995089e0be
:1008a0003b68d42464003a191360ec235b00fb1806
:1008b0001b685b6898229b58002b00d17ce00c26bb
:1008c000bb1918000ef052ff25007b191b689c1cf9
:1008d0007b191b680233180012f071ff0300dab2b3
:1008e000bb19210018000ef066ff7b191b685a78af
:1008f000bb19110018000ef0cdff7b191b681b7887
:10090000012b02d0022b06d01ae03823fb18180066
:100910000df056fc21e0d4225200bb181b68233393
:100920001c00bb181b682333180012f048ff03009b
:10093000dab23823fb18210018000df052fc0ce04d
:10094000ec2149007b181b685b6898229b587a1839
:1009500010680022002198472fe0ec2149007b1805
:100960001b685b6898229b587a1810683822ba185e
:100970000c21791898471fe0c0461ee0c0461ce0d5
:10098000c0461ae0c04618e0c04616e0c04614e073
:10099000c04612e0c04610e0c0460ee0c0460ce083
:1009a000c0460ae0c04608e0c04606e02cfeffff55
:1009b00058feffffc04600e0c046bd4679b0f0bd1e
:1009c00080b584b000af0200fb1d1a70bb1d0a1c6d
:1009d0001a70224bfb60fb685b68002b37d0fb1d55
:1009e0001b78012b04d0002b33dd032b31dc19e005
:1009f000fb685b68c0229b58002b08d0fb685b68d3
:100a0000c0229b58f868ba1d127811009847fb68fd
:100a10005b689c2200219954fb685b68c02200211e
:100a2000995017e0fb685b68c4229b58002b08d0e4
:100a3000fb685b68c4229b58f868ba1d12781100e5
:100a40009847fb685b68c4220021995002e0c046c9
:100a500000e0c046bd4604b080bdc046b4160020cc
:100a6000b0b5a4b000af02003960fb1d1a70674b2f
:100a700088217a1813603b68002b00d1b9e07b18fd
:100a80001b685b68002b00d1b3e0fb1d1b78012bba
:100a90001ed0062b00d0aee07b181b685b68c82216
:100aa0009b58002b00d1a8e03b688422b818036053
:100ab000bb181b681b68bb677b181b685b68c82278
:100ac0009b587a181268782179181000984794e09a
:100ad0003b6880217a1813600c203b188c22ba18ce
:100ae00013608823fb181b685b68cc229b58002b83
:100af00000d184e07b181b681a887f243b191a7088
:100b00007b181b685a6870257b191a607b181b6854
:100b10009a687b195a603b1864220021180012f071
:100b200046fe3b191b78052b6bd89a00384bd3181f
:100b30001b689f4680243b191b680c330c257a19cf
:100b40001000190020231a0012f028fe3b191b6820
:100b50002c331a007b19203311002022180012f0c8
:100b60001dfe3b191b684c22995a7b194022995251
:100b70003b191b684e22995a7b19422299523b1904
:100b80001b6850331a007b194433110020221800cf
:100b900012f004fe19e000238c22ba18136014e04e
:100ba00080217b181b689a890c203b181a807b18bf
:100bb0001b68da893b185a8007e08023fb181b6802
:100bc000da680c23fb181a60c04688217b181b6862
:100bd0005b68cc229c587b1818688c23fb181d6816
:100be0007023fa187f23fb1819782b00a047c04602
:100bf00008e0c04606e0c04604e0c04602e0c04649
:100c000000e0c046bd4624b0b0bdc046b4160020ca
:100c10002821010090b58bb000af3a60fb1d021c8b
:100c20001a70bb1d0a1c1a703a4b7b627b6a5b68a8
:100c3000002b69d07b6a5b68d0333b623b6afb6107
:100c40001a23fb18012252421a800120fff748faaa
:100c500003007b61fb691b78002b0cd0fb691b78c0
:100c6000013bdab2fb691a707b6919000120fff7ba
:100c70004afa012305e07b6919000120fff743fad6
:100c80000023012b42d1fb1d1b78002b07d13b6aaf
:100c9000ba1d12785a703b6a3a689a6105e03b6a5d
:100ca000ff225a703b6a00229a613b6a00221a6155
:100cb0003b6a00225a613b6a0022da613b6a0022e9
:100cc0001a623b6a3b610120fff70afa0300fb60ee
:100cd0003b691b780133dab23b691a70fb68190073
:100ce0000120fff710fa7b6a5b68f4229b58002b07
:100cf0000dd07b6a5b68f4229c58786a396afb1dc8
:100d00001b780122a04702e0c04600e0c046bd4675
:100d10000bb090bdb416002090b59bb004afb96085
:100d20007a600f217b18021c1a70b24b3b653b6d39
:100d30005b68002b00d152e13b6d5b68d033fb64f4
:100d40007b181b78002b00d034e1fb6cbb6446237e
:100d5000fb18012252421a800120fff7c1f903005b
:100d60003b64bb6c1b78002b0cd0bb6c1b78013b2d
:100d7000dab2bb6c1a703b6c19000120fff7c3f9a3
:100d8000012305e03b6c19000120fff7bcf90023ab
:100d9000012b00d025e1fb6cdb69002b00d1f2e0d8
:100da000fb6c5b697a689a4200d9ece0fb6c5b698a
:100db0007a689a4202d9fb6c5b697b607b687b65d1
:100dc00087e0fb6c1b6a7a6d9a426ed9fb6cd8691e
:100dd000fb6c1a6abb68190012f0e0fcfb6c1b6a22
:100de000ba68d318bb60fb6c1b6a7a6dd31a7b653b
:100df000fb6c0022da61fb6c00221a623b6d5b68bf
:100e0000f4229b58002b64d0fb6c3b630120fff75e
:100e100067f90300fb623b6b1b780133dab23b6b73
:100e20001a70fb6a19000120fff76df93b6d5b68d2
:100e3000f4229c58386df96c0f23fb181b780422a0
:100e4000a047fb6cfb633a23fb18012252421a8035
:100e50000120fff745f903007b63fb6b1b78002b38
:100e60000cd0fb6b1b78013bdab2fb6b1a707b6b0f
:100e700019000120fff747f9012305e07b6b1900fa
:100e80000120fff740f90023012b00d0abe0fb6c01
:100e9000db69002b03d0fb6c1b6a002b19d1fb6ca8
:100ea00000225a6100237b6017e0fb6cdb697a6dde
:100eb000b968180012f072fcfb6cda697b6dd2180d
:100ec000fb6cda61fb6c1a6a7b6dd21afb6c1a62de
:100ed00003e07b6d002b00d073e7fb6c5a697b68e5
:100ee000d21afb6c5a61fb6c1a697b68d218fb6cd6
:100ef0001a61fb6c5b69002b21d0fb6cbb6201208b
:100f0000fff7eef803007b62bb6a1b780133dab2ad
:100f1000bb6a1a707b6a19000120fff7f4f8386d7c
:100f2000f96c3b6d5b68f4229b580293002301939c
:100f3000002300930023002207f000ff55e0fb6c24
:100f40003b620120fff7ccf80300fb613b6a1b7892
:100f50000133dab23b6a1a70fb6919000120fff70e
:100f6000d2f83b6d5b68f4229b58002b3dd03b6d63
:100f70005b68f4229c58386df96c0f23fb181b78c2
:100f80000222a04731e0fb6cbb610120fff7a8f80b
:100f900003007b61bb691b780133dab2bb691a704d
:100fa0007b6919000120fff7aef80f23fb1801221f
:100fb0001a701be03b6d5b68f4229b58002b15d028
:100fc0003b6d5b68f4229c58386d3b6d5b68d03399
:100fd00019000f23fb181b780222a04706e0c04629
:100fe00004e0c04602e0c04600e0c046bd4617b07f
:100ff00090bdc046b416002090b58bb000af020083
:10100000fb1d1a702e4b7b627b6a5b68002b51d0f4
:101010007b6a5b68d0333b627b6a5b68f4229b58d7
:10102000002b4ad07b6a5b68f4229c58786a396a44
:10103000fb1d1b780322a0473b6afb611a23fb18a8
:10104000012252421a800120fff74af803007b6117
:10105000fb691b78002b0cd0fb691b78013bdab2d3
:10106000fb691a707b6919000120fff74cf8012316
:1010700005e07b6919000120fff745f80023012beb
:101080001ad13b6aff225a703b6a00229a613b6a7e
:101090003b610120fff724f80300fb603b691b78ec
:1010a0000133dab23b691a70fb6819000120fff7bf
:1010b0002af802e0c04600e0c046bd460bb090bd35
:1010c000b416002080b582b000af78607b68002b3a
:1010d00000d19ee07b6800225a717b6800229a71e1
:1010e0007b680022da717b6800221a727b6800221a
:1010f000da727b683822012199547b6839220221f7
:1011000099547b683a221e2199547b683b22022124
:1011100099547b683c22d32199547b6896225200d3
:10112000da877b684022002199527b68482200219f
:1011300099547b680022da647b685022002199541c
:101140007b688422002199507b6888220021995075
:101150007b688c22002199507b6890220021995055
:101160007b689422002199507b6898220021995035
:101170007b689c22002199547b689d220021995410
:101180007b689e22012199547b68a02200219950fe
:101190007b68a422002199507b68a82200219950e5
:1011a0007b68ac22002199507b68b0221b49995082
:1011b0007b68b422002199507b68b82200219950a5
:1011c0007b68bc22002199507b68c0220021995085
:1011d0007b68c422002199507b68c8220021995065
:1011e0007b68d122ff2199547b68ec220021995021
:1011f0007b68d4210a4a5a507b68d821094a5a5040
:101200007b68dc21084a5a507b68f42200219950ff
:1012100000e0c046bd4602b080bdc046c0a80a017d
:10122000150c0000190d0000f90f000080b584b006
:1012300000af02003960bb1d1a80bb1d1b88002b4c
:1012400020d1134bfb60fb681b78002b01d0fb689f
:101250001ae0104b00221a600f4b00221a710e4b3d
:101260000022da640df049fefb6801221a70fb6867
:1012700000229a70fb6801225a70fb68064a5a6085
:10128000fb6801e001235b421800bd4604b080bd4d
:10129000b4160020b0160020c416002080b588b017
:1012a00000af78607b68fb617b68013335d0fb69f8
:1012b000002b32d0fb6900225a70fa69194b9a420e
:1012c00027d1fb695b68f8333b610120fef708ff1b
:1012d0000300fb603b691b780133dab23b691a708b
:1012e000fb6819000120fef70efffb695b68d03335
:1012f000bb610120fef7f4fe03007b61bb691b7834
:101300000133dab2bb691a707b6919000120fef75c
:10131000fafefb6900229a7000e0c046bd4608b0a4
:1013200080bdc046b416002080b582b000af7860a2
:101330003960c046bd4602b080bd80b584b000af04
:1013400078607b68fb607b68013302d0fb68002b10
:1013500002d101235b420de0fb685b785bb2002b9e
:1013600005d1fb681b78002b01d0012302e0fb684c
:101370005b785bb21800bd4604b080bdb0b596b0d6
:1013800000af78607b687b657b68013300d11ce12e
:101390007b6d002b00d118e17b6d5b785bb2002b7d
:1013a0000ad003dc013300d111e109e1012b21d086
:1013b000022b00d1b7e003e17b6d1b78002b00d13d
:1013c00007e17b6d5b68f833fb647b6d5b68d03352
:1013d0003b657b6d5b6800221a71002000f0a3fe64
:1013e00002f06efd0cf0a8fd12f016f87b6d0022e5
:1013f0001a70eee07b6d5b68002b03d17b6dff22e2
:101400005a70ede00cf028fd00f000fe031e03d042
:101410007b6dff225a70e3e07b6d5b68f833bb6441
:1014200047243b1901221a704623fb180a221a701e
:1014300045257b1900221a700120fef751fe03009a
:101440003b643b191b78012b04d1bb6c7a191278d1
:101450001a7002e0bb6c01221a703b6c190001206b
:10146000fef751fe0123012b03d07b6dff225a7042
:10147000b6e011f0c1ff0c243b1914220021180022
:1014800012f095f921007b18574a1a607b18002248
:101490009a747b18180000f0cdfd031e04d07b6dfc
:1014a000ff225a70c0469be002f0eefc4f4b180042
:1014b00008f084fc4e4b1800fff704fe4d4a4e4bdb
:1014c0000021180009f0cafb4c4bfb633b243b197d
:1014d00000221a703a23fb1801221a7039257b1951
:1014e00001221a700120fef7fbfd03007b633b190c
:1014f0001b78012b04d1fb6b7a1912781a7002e069
:10150000fb6b01221a707b6b19000120fef7fbfdbb
:101510007b6d5b684233180001f019fe7b6d02227f
:101520005a70c0465ce07b6d5b68f8333b632e23ea
:10153000fb18012252421a800120fef7d1fd030060
:10154000bb623b6b1b78002b0cd03b6b1b78013bc9
:10155000dab23b6b1a70bb6a19000120fef7d3fdab
:10156000012305e0bb6a19000120fef7ccfd002332
:10157000012b30d17b6d5b785bb2022b2dd17b6d63
:101580005b681b791a000823134028d1002000f063
:10159000ddfd031e1fd07b6d5b68f8337b6201208d
:1015a000fef79efd03003b627b6a1b780133dab2d3
:1015b0007b6a1a703b6a19000120fef7a4fd0ae05d
:1015c0007b6dff225a70c0460ae0c04608e0c04664
:1015d00006e0c04604e0c04602e0c04600e0c04667
:1015e000bd4616b0b0bdc04635010000610a00001e
:1015f000c4160020150c0000c1090000941700203b
:1016000080b582b000af7860034b7a681a60c0463c
:10161000bd4602b080bdc046b016002080b584b083
:1016200000af0200bb1d1a807b1d0a1c1a7000232c
:10163000fb60bb1d1b88002b08d1344bfb60fb6893
:101640005b68002b05d101235b425ae001235b421a
:1016500057e0fb681b7801225340dbb2002b02d01d
:1016600001235b424de0fb689b78002b0fd0bb1d34
:101670001b88002b09d1fb685b681b797a1d1278e7
:101680009a4202d001235b423be0fb6839e01f4bea
:101690009b7801225340dbb2002b0bd01b4b9b7a73
:1016a00001225340dbb2002b04d0fb685b681800ba
:1016b000fff708fdbb1d1b88002b1ed1fb685b6874
:1016c000fa681a60fb685b687a1d12781a71fb6809
:1016d0005b681b791a00082313400ed0002000f02d
:1016e00022fd00f0d5fb031e02d001235b4208e07f
:1016f000fb6801229a70fb6803e0fb6801229a7084
:10170000fb681800bd4604b080bdc046b41600207a
:1017100080b584b000af78607b68fb607b68013384
:1017200019d0fb68002b16d0fb685b68002b12d029
:10173000fb685b681b687a689a4208d1fb685b6843
:101740000022da71fb685b689d2200219954fb68d6
:1017500000229a7000e0c046bd4604b080bd80b54e
:1017600084b000af786039607b68fb607b680133d0
:1017700005d0fb68002b02d03b68002b01d102236f
:1017800009e03b680121180001f08fff031e01d022
:10179000082300e000231800bd4604b080bd80b5da
:1017a00084b000af786039607b68fb607b68013390
:1017b00005d0fb68002b02d03b68002b01d102232f
:1017c00009e03b680021180001f06fff031e01d003
:1017d000082300e000231800bd4604b080bd80b59a
:1017e00084b000af786039607b68fb607b68013350
:1017f00009d0fb68002b06d0fb685b68002b02d089
:101800003b68002b01d1022309e0fb685b6842338f
:1018100019003b680622180011f0c0ff00231800d1
:10182000bd4604b080bd80b584b000af78607b68f1
:10183000fb607b68013306d0fb68002b03d0fb689c
:101840005b68002b01d1002314e0fb685b685b79c7
:1018500001225340dbb2002b01d001230ae0fb68d8
:101860005b689b7901225340dbb2002b01d002233d
:1018700000e003231800bd4604b080bd80b584b0ed
:1018800000af786039607b68fb607b68013306d00d
:10189000fb68002b03d0fb685b68002b01d102239f
:1018a0000de0fb689b7801225340dbb2002b01d096
:1018b000012304e0fb685b683a68da6400231800df
:1018c000bd4604b080bd80b584b000af78607b6851
:1018d000fb607b68013306d0fb68002b03d0fb68fc
:1018e0005b68002b01d100230be0fb689b78012291
:1018f0005340dbb2002b01d0002302e0fb685b68a1
:10190000db6c1800bd4604b080bd80b584b000af6c
:10191000786039607b68fb607b68013305d0fb68c9
:10192000002b02d03b68002b01d1022318e0fb689a
:101930009b7801225340dbb2002b01d001230fe042
:101940003b680c220021180011f031ff3b68132284
:101950001a803b6807225a803b6806229a8000233f
:101960001800bd4604b080bd90b591b000aff860de
:101970007a600b23fb180a1c1a70fb68fb63fb6878
:10198000013305d0fb6b002b02d07b68002b01d10b
:1019900002234de0fb6b9b7801225340dbb2002b0e
:1019a00001d0012344e00b23fb181b78002b08d047
:1019b0001423fb18180001f0bffc031e0ad00823f3
:1019c00036e01423fb18180009f0e5f9031e01d0d6
:1019d00008232de07b6822220021180011f0e7fe89
:1019e00014203b181b799ab27b681a803b185b79ec
:1019f0009ab27b685a803b189b799ab27b689a802e
:101a00007b680c33190004003b180a2208009b185d
:101a10000c22190011f0c2fe7b68183319003b1923
:101a2000162208009b180922190011f0b7fe0023a6
:101a30001800bd4611b090bd80b584b000af78608d
:101a40007b68fb607b68013302d0fb68002b01d10f
:101a500000230be0fb689b7801225340dbb2002b94
:101a600001d0002302e00af08ffe03001800bd46fb
:101a700004b080bd80b586b000aff8607a600b23fb
:101a8000fb180a1c1a70fb687b61fb68013305d0e8
:101a90007b69002b02d07b68002b01d1022328e058
:101aa0007b699b7801225340dbb2002b01d00123dc
:101ab0001fe00b23fb181b78002b11d01323fa18ff
:101ac0007b681100180001f014fb031e01d00823ed
:101ad0000fe01323fb181b78002b09d1082308e023
:101ae0007b68180001f033fb031e01d0082300e0df
:101af00000231800bd4606b080bd80b584b000af9d
:101b0000786039607b68fb607b68013305d0fb68d7
:101b1000002b02d03b68002b01d1022318e0fb68a8
:101b20009b7801225340dbb2002b01d001230fe050
:101b30003b68180011f043fe0300dab23b68110065
:101b4000180001f0a3fb031e01d0082300e00023ce
:101b50001800bd4604b080bd80b584b000af786089
:101b60000a00fb1c1a707b68fb607b68013302d0a3
:101b7000fb68002b01d1022312e0fb689b78012255
:101b80005340dbb2002b01d0012309e0fb1c1b7882
:101b9000180001f00afd031e01d0082300e0002315
:101ba0001800bd4604b080bd80b586b000af786037
:101bb00008001100fb1c021c1a70bb1c0a1c1a70c6
:101bc0007b687b617b68013302d07b69002b01d18c
:101bd00002234ae0bb1c1b78152b01d9022344e0e9
:101be0007b699b7801225340dbb2002b01d001239b
:101bf0003be008217b1805221a807b1801225a80bd
:101c00007b18ff221a717b18ff225a717b180a2257
:101c10009a717b180522da717b1803221a72fb1c59
:101c20001b78002b09d07b18ff221a71bb1c1b7874
:101c3000104ad25c7b185a710de0bb1c1b78012b3b
:101c400007d0bb1c1b780b4ad25c0823fb181a7107
:101c500001e0022309e00823fb18180001f016fd3b
:101c6000031e01d0082300e000231800bd4606b083
:101c700080bdc046e01c002080b582b000af0f4b95
:101c80007b607b685b68002b11d07b681b7801222e
:101c90005340dbb2002b0cd17b685b68f8333b60b0
:101ca0003b681b780133dab23b681a7002e0c04629
:101cb00000e0c046bd4602b080bdc046b41600205c
:101cc000b0b5a0b000af3a60fb1d021c1a703b1dfe
:101cd0000a1c1a80674bfb673fe0fb6f1a68fb1d0d
:101ce0001b789a4236d1fb6f5b68002b19d0fb6fd3
:101cf0005a68142439193b6818000bf095fc031e30
:101d000000d0b0e0fb1d1b78342b0ad0fb1d1b78e4
:101d1000112b06d1584b00221a703b191a78574bd9
:101d20001a70574b1b68002b1cd0fb6f5b68002b95
:101d300008d0534b1b681422b918fa1d12781000f2
:101d400098470fe04e4b1b68fa1d127800211000d7
:101d5000984707e0fb6f0833fb67fb6f1b683e2b60
:101d6000bbd100e0c046fb1d1b78202b22d10c24e8
:101d700039193b68082218000bf056fc031e00d0ee
:101d800074e03b68083318003b1919683b199b88bd
:101d90001a000bf049fc031e00d067e0384b1b68ab
:101da000002b00d162e0364b1b683a19110020204d
:101db00098475be0fb1d1b781d2b57d17a23fb183e
:101dc00014217a1852881a807b181a880823fb1865
:101dd0005a802c4b1b68002b48d02b4b1b68002bc8
:101de00044d02a4b1b88002b40d008217b185a88ee
:101df000264b1b889a4204d9244b1a887b181a80d8
:101e000004e008217b185a887b181a807a257b19f0
:101e10001a883b68d0181c4b196808243b191b888a
:101e20001a000bf001fc031e1fd120003b185a883a
:101e30003b181b88d31a9ab23b185a803b18198852
:101e40007b197a1912888a181a800e4b1c680e4b5f
:101e50001b6805003a1819001d20a0477b195b88f4
:101e6000002bc2d102e0c04600e0c046bd4620b013
:101e7000b0bdc046141a0020841c00207c1c002029
:101e8000801c00209c1c0020a01c0020a41c002002
:101e900080b500af01200ff0f3ff031e02d00c232a
:101ea0005b4205e00af050fc034b01221a7000234c
:101eb0001800bd4680bdc0467d1c002080b582b0a4
:101ec00000af78607b68002b02d10c235b424fe0af
:101ed0007b681b78002b06d07b68180011f06ffc24
:101ee0000300202b02d90c235b4241e07b682122b6
:101ef0009b5c0e2b04d87b6821229b5c002b02d1bb
:101f00000c235b4234e07b6841229b5c002b0cd1ac
:101f10007b6842229b5c002b07d17b6843229b5c41
:101f2000002b02d10c235b4222e07b683f229b5caa
:101f3000012b01d100231be07b683f229b5c032b1c
:101f400002d10c235b4213e07b683f229b5c022b97
:101f50000cd17b6823229b5c072b04d97b6823224e
:101f60009b5c402b02d90c235b4201e00c235b42bb
:101f70001800bd4602b080bd80b582b000af786069
:101f80007b68002b02d10c235b4225e07b681b7829
:101f9000002b02d10c235b421ee07b685b78092b8f
:101fa00003d97b685b78fa2b02d90c235b4213e0e0
:101fb0007b689b78002b03d07b689b78022b02d92f
:101fc0000c235b4208e07b68db785bb2002b02db12
:101fd0000c235b4200e000231800bd4602b080bd28
:101fe00080b586b004af786000230293ab239b00da
:101ff00001937b68009300230022832105200bf0ce
:1020000047f903001800bd4602b080bd80b500af9f
:1020100000200ff035ff031e02d00c235b4203e0cb
:10202000034b01221a7000231800bd4680bdc04634
:102030007d1c0020b0b58eb000af7860224b7b6372
:102040007b68002b02d10f235b4238e07b681a6863
:102050001e4b1a607b689a681d4b1a607b68da68b1
:102060001c4b1a607b681a8a1b4b1a801b4b002280
:102070001a707b689b7c043b5a425341dbb27a6bfb
:10208000190000200ff03aff031e02d005235b4227
:1020900015e0134b02221a700bf0d4f8031e02d085
:1020a00005235b420be033257c190823fb1818003d
:1020b00001f042f9030023707b191b785bb2180012
:1020c000bd460eb0b0bdc04676133013801c002054
:1020d0009c1c0020a01c0020a41c0020841c0020ac
:1020e0007d1c0020b0b584b000af78600f257b194f
:1020f00000221a707c19fff789ff030023707b19f7
:102100001b785bb2002b06d17c197b681800fff7a7
:1021100091ff030023700f23fb181b785bb218009c
:10212000bd4604b0b0bd80b582b000af7860064b4c
:1021300000221a700bf0a2f80ff0fffe0023180027
:10214000bd4602b080bdc0467d1c002080b582b077
:1021500000af78600bf0bff903001800bd4602b075
:1021600080bd90b58db000af78600a00fb1c1a707e
:102170000c243b1924220021180011f018fb210027
:102180007b18ff221a707a182423272101200bf0d4
:102190007df903001800bd460db090bd80b500afbd
:1021a00000230022292101200bf070f90300180000
:1021b000bd4680bd90b587b000af04000800110097
:1021c0003b60fb1d221c1a70bb1d021c1a703b1dbc
:1021d0000a1c1a801723fb18f4221a7014243b19c6
:1021e0003a1d12882c321a803b68002b00d17fe008
:1021f0003b685b68002b00d17ae03b681b7a202ba0
:1022000000d975e0bb6a002b00d16ce0bb6a3b6172
:10221000bb6a0433fb60bb6a30220021180011f056
:10222000c6fa3b693a1912881a80fb1d1b78012bec
:102230000bd0022b02d0002b0ed05ee03b699b78c6
:1022400002221343dab23b699a703b699b78012200
:102250001343dab23b699a70c0463b685b7aff2b46
:1022600004d13b685a7a3b69da700de03b685b7acf
:102270000e2b3fd83b685b7a002b3bd03b685b7ae8
:10228000013bdab23b69da70bb1d1b78002b33d0ff
:10229000bb1d1b78042b2fd8fb68ba1d2821127890
:1022a0005a543b681a7afb681a70fb68581c3b68e2
:1022b00059683b681b7a1a0011f070fa3b681b687a
:1022c000002b0cd0fb68212201219954fb6822339a
:1022d00018003b681b680622190011f05ffa1723eb
:1022e000fb1800221a701723fb181b785bb206e05c
:1022f000c04602e0c04600e0c0460f235b42180023
:10230000bd4607b090bd80b582b000af0200fb1d96
:102310001a70fb1dfa1d1278303a1a70fb1d1b78db
:10232000092b02d8fb1d1b7814e0fb1dfa1d127847
:1023300020210a431a70fb1dfa1d1278313a1a70d7
:10234000fb1d1b78052b04d8fb1d1b780a33dbb261
:1023500000e0ff231800bd4602b080bdb0b586b0d6
:1023600000aff860b960fb1d1a7036e0bb685a1cfc
:10237000ba601b7817257c191800fff7c4ff03000b
:1023800023707b191b780f2b02d90f235b422ce0a3
:1023900017217b181b781b01dab2fb681a70bb6827
:1023a0005a1cba601b780d007c181800fff7abffb1
:1023b000030023707b191b780f2b02d90f235b427c
:1023c00013e0fb681a781723fb181b78d318dab2ce
:1023d000fb681a70fb680133fb60fb1d1b78fa1d5c
:1023e000591e1170002bc1d100231800bd4606b044
:1023f000b0bdf0b593b002af02003960fb1d1a709a
:102400003f257b19f1221a707c193a68fb1d187858
:102410000c26bb190093130000220121fff7cafe0e
:10242000030023707b191b785bb2002b08d17c1949
:10243000ba1930233b2101200bf028f80300237048
:102440003f23fb181b785bb21800bd4611b0f0bdee
:1024500080b584b000afb9607a600f23fb18021c0e
:102460001a7010235b421800bd4604b080bdb0b5a1
:10247000b0b004afb9607a600f217b18021c1a70eb
:10248000af257b19f1221a707b68002b00d172e016
:102490007c19ba687b1818781023fb180093130076
:1024a0006c220221fff786fe030023707b191b7844
:1024b0005bb2002b5fd14023fb186c220021180077
:1024c00011f075f97b681b68002b26d07b685b6870
:1024d000002b02d00f235b424fe040203b184022ec
:1024e0001a707b6819683b181b785b08dab23b18d6
:1024f00001331800fff732ff031e02d00f235b42a7
:102500003be07b68196840203b181b781a003b1899
:102510000133180011f042f91de07b685b68002b65
:1025200016d07b681b7a402b02d90f235b4224e034
:102530007b681a7a40203b181a707b6859683b18f0
:102540001b781a003b180133180011f027f902e03c
:102550000f235b4211e01023fa18302302936c23ff
:1025600001934023fb1800933023bb2101200af084
:102570008ffe030001e00f235b421800bd462cb024
:10258000b0bd80b584b000afb9607a600f23fb188e
:10259000021c1a70bb68002b05d17b68002b02d08f
:1025a0000f235b42b3e00f23fb181b78012b28d0cd
:1025b00002dc002b06d0a6e0022b5ed0032b00d15c
:1025c0007ae0a0e07b68042b02d00f235b429ee000
:1025d000bb681b68002b09d0012b0ed14e4b1b682a
:1025e000022293431a004c4b1a6009e04a4b1b68c5
:1025f00002221a43484b1a6002e00f235b4286e036
:1026000084e07b68012b02d00f235b427fe0bb6834
:102610001b78012b12d0022b1dd0002b29d13e4b51
:102620001b68042293431a003b4b1a603a4b1b6809
:10263000082293431a00384b1a601de0364b1b6882
:1026400004221a43344b1a60334b1b6808221a4386
:10265000314b1a6010e0304b1b6804221a432e4b9a
:102660001a602d4b1b68082293431a002a4b1a60ec
:1026700002e00f235b424ae048e07b68042b02d073
:102680000f235b4243e0bb681b68002b08d0012b83
:102690000ed1214b1b6810221a431f4b1a600ae00f
:1026a0001d4b1b68102293431a001b4b1a6002e05b
:1026b0000f235b422be029e07b68002b11d07b6865
:1026c000142b1cd1144b1b6840221a43124b1a6066
:1026d000124abb681000190014231a0011f05ef8aa
:1026e00010e00d4b1b68402293431a000a4b1a60fe
:1026f0000a4b14220021180011f059f802e00f23b0
:102700005b4204e002e00f235b4200e0002318007c
:10271000bd4604b080bdc046101a0020881c0020b1
:1027200080b584b000afb9607a600f23fb18021c3b
:102730001a70bb68002b02d10f235b4275e00f2398
:10274000fb181b78012b1dd002dc002b05d068e0a4
:10275000022b37d0032b48d063e07b681b68032b28
:1027600002d80f235b4260e07b6804221a60314b81
:102770001b68022213405a425341dbb21a00bb6865
:102780001a6051e07b681b68002b02d10f235b426b
:102790004be07b6801221a60264b1b680422134021
:1027a00003d1bb6800221a703ee0224b1b6808224e
:1027b000134003d0bb6801221a7035e0bb680222c7
:1027c0001a7031e07b681b68032b02d80f235b4231
:1027d0002be07b6804221a60164b1b681b091a0049
:1027e00001231a40bb681a601ee0124b1b6840228e
:1027f000134012d07b681b68132b02d80f235b4257
:1028000013e07b6814221a60ba680b4b10001900a1
:1028100014231a0010f0c2ff06e07b6800221a6041
:1028200002e00f235b4200e000231800bd4604b025
:1028300080bdc046101a0020881c002080b584b0de
:1028400000afb9607a600f23fb18021c1a700c23ca
:102850005b421800bd4604b080bd80b584b000afb7
:10286000b9607a600f23fb18021c1a700c235b42bc
:102870001800bd4604b080bdb0b586b002aff860a8
:10288000080011007b600b257b19021c1a700a20be
:102890003b180a1c1a707c683b181a787b19197847
:1028a000f868002301932023fb181b880093230062
:1028b00000f005f803001800bd4604b0b0bd90b5a7
:1028c00095b000aff860080011007b600b243b1945
:1028d000021c1a700a23fb180a1c1a704f23fb18db
:1028e000f1221a7038217b1800221a607b18fa68ce
:1028f0005a607b183a1912781a726023fb181b88e9
:10290000dab27b185a726423fb181b78002b01d0b3
:10291000002200e002224e23fb181a700b23fb1842
:102920001b78202b16d80de038217b185a680b2015
:102930003b181b78d3181b78002b03d17b183a184f
:1029400012781a720b22bb181b78ba18591e117014
:10295000002be9d10a23fb181b78022b16d002dcce
:10296000012b05d0aae0032b47d0042b67d0a5e0ac
:102970004f23fc183823fa184e23fb181b7811003c
:102980001800fff736fd0300237097e07b68002beb
:1029900000d18ee02c243b1900221a603b19002242
:1029a0005a603b1900221a727b68180010f007ff6a
:1029b00002004c217b181a807b181b88402b03d106
:1029c0003b197a681a6009e02c217b187a685a60f2
:1029d0004c23fb181b88dab27b181a724f23fc18a1
:1029e0002c23fa183823f9184e23fb181b781800eb
:1029f000fff73dfd030023705be07b68002b5ad09e
:102a00007b68bb64bb6c9a1c24217b181a60bb6c6e
:102a10005b78013bdab27b181a71bb6c1a787b18b1
:102a20005a714f23fc187a183823f9184e23fb18d3
:102a30001b781800fff70cfd030023703be07b6858
:102a4000002b3ad07b687b6410243b1900221a606b
:102a50007a6c3b195a607b6c15331a003b199a60eb
:102a60003b1900229a817b6c180010f0a8fe03002d
:102a70009ab23b19da817b6c1533180010f09ffe77
:102a800003009ab221007b181a827b1800229a74e4
:102a90007b180022da744f23fc187a183823f918af
:102aa0004e23fb181b781800fff7c8fe03002370a5
:102ab00003e0c04602e0c04600e0c0464f23fb18da
:102ac0001b785bb21800bd4615b090bd80b500af55
:102ad000002300222b2101200af0d8fc030018005b
:102ae000bd4680bd90b585b000af786008243a1926
:102af0007b681000190006231a0010f04ffe3a19e7
:102b00000823022101200af0c1fc03001800bd4681
:102b100005b090bd80b582b000af78607b689a68e0
:102b20007b689a607b685a687b685a607b681a6821
:102b30007b681a607b681a697b681a617a68182357
:102b40000a2102200af0a2fc03001800bd4602b0d0
:102b500080bd80b584b000af0200fb1d1a70fb1d64
:102b60001b78002b01d00b2200e00c220f217b18d8
:102b70001a707b1819780023002202200af086fcc4
:102b800003001800bd4604b080bd80b582b000af20
:102b900078607a680423392101200af077fc030069
:102ba0001800bd4602b080bd90b585b000af78601a
:102bb0000f217b18f4221a707b68002b10d07b68e1
:102bc0001b78fa2b0cd87b681b789bb201339bb225
:102bd0007c187a688f2101200af058fc03002370ca
:102be0000f23fb181b785bb21800bd4605b090bde3
:102bf00090b585b000af78600f243b19f4221a70ad
:102c00007b681800fff7b8f9031e08d13c197a68f1
:102c10000423142101200af039fc030023700f2340
:102c2000fb181b785bb21800bd4605b090bd90b58f
:102c300085b000af0200fb1d1a700f203b18f42274
:102c40001a7008217b1800221a60fb1d1b78012bcb
:102c50000dd87b18fa1d12781a703c187a180423c4
:102c60006b2101200af012fc0300237003e00f2304
:102c7000fb18f1221a700f23fb181b785bb21800a7
:102c8000bd4605b090bd80b584b000af0200bb1d4d
:102c90001a800c217b18ba1d12881a807a18042316
:102ca000152101200af0f2fb03001800bd4604b014
:102cb00080bdb0b584b000af0200fb1d1a700f23b9
:102cc000fb1800221a701d4b1b78002b28d1fb1d0e
:102cd0001b78002b03d0fb1d1b780e2b03d9fb1d8b
:102ce0001b78ff2b17d108217b18fa1d12781a7058
:102cf0000f257c197a180423102101200af0c6fb45
:102d0000030023707b191b785bb2002b0dd10b4b9a
:102d100001221a7009e00f23fb18f1221a7005e056
:102d20000f23fb18f2221a7000e0c0460f23fb1895
:102d30001b785bb21800bd4604b0b0bd841c0020f7
:102d4000b0b584b000af0200fb1d1a703b1d0a1c19
:102d50001a800f23fb1800221a701f4b1b78002bc0
:102d60002cd1fb1d1b78002b03d0fb1d1b780e2bd9
:102d700003d9fb1d1b78ff2b1bd108217b18fa1de3
:102d800012781a707b183a1d12885a800f257c1908
:102d90007a180423232101200af078fb0300237012
:102da0007b191b785bb2002b0dd10b4b01221a70e3
:102db00009e00f23fb18f1221a7005e00f23fb181e
:102dc000f2221a7000e0c0460f23fb181b785bb29a
:102dd0001800bd4604b0b0bd841c0020b0b58ab058
:102de00004af02003960fb1d1a701723fb18f12293
:102df0001a703b4b1b78002b64d1fb1d1b78002bfa
:102e000003d0fb1d1b780e2b03d9fb1d1b78ff2b5a
:102e10005ed13b68002b5bd014217b1800221a8006
:102e20007b181b883a68d21813203b1812781a7046
:102e30003b181b78042b4bd87b181a887b1801325f
:102e40001a801ae014217b181b883a68d3181b7863
:102e5000202b3cd87b181b883a68d3181b789ab271
:102e60007b181b88d3189ab27b1801321a80132161
:102e70007b181a787b18013a1a701323fb181b78f9
:102e8000002bdfd10c217b18fa1d12781a70172540
:102e90007c197a18042302931423fb181b880193ce
:102ea0003b6800930423a12101200af0f1f90300fb
:102eb00023707b191b785bb2002b09d1084b0122d0
:102ec0001a7005e01723fb18f2221a7000e0c046c2
:102ed0001723fb181b785bb21800bd4606b0b0bdc7
:102ee000841c002080b586b000af02003960fb1d55
:102ef0001a70104b00221a700c217b18fa1d1278e0
:102f00001a70fb1d1b78002b07d17b180122396832
:102f10009b180822180010f041fc0c23fa180c230f
:102f20002f2101200af0b2fa03001800bd4606b0b6
:102f300080bdc046841c002080b500af0023002265
:102f4000312101200af0a2fa03001800bd4680bd1d
:102f500080b582b000af0200fb1d1a700c235b42eb
:102f60001800bd4602b080bd80b582b000af02003f
:102f7000fb1d1a700c235b421800bd4602b080bdd9
:102f800090b5a9b000af78600c243a197b681000a6
:102f9000190088231a0010f001fc7b6841331900e6
:102fa0003b1988229b180422180010f0f7fb7b685d
:102fb000413319003b198c229b180422180010f091
:102fc000edfb3b199022002199543b19180000f0a9
:102fd00005f803001800bd4629b090bd90b589b032
:102fe00004af78600f243b19f4221a707b68180034
:102ff000fef764ff031e0ed13c19002302939423b5
:1030000001937b68009300230022c62101200af06f
:103010003ff9030023700f23fb181b785bb21800e5
:10302000bd4605b090bd90b585b000af78600f216a
:103030007b18f4221a707b68002b08d07c187a6801
:103040000423222101200af021fa030023700f2318
:10305000fb181b785bb21800bd4605b090bd80b56b
:1030600000af00230022472101200af00ffa0300dd
:103070001800bd4680bd80b500af002300220321ab
:1030800001200af003fa03001800bd4680bd90b588
:1030900089b004af78600a00bb1c1a800f203b186f
:1030a000ff221a707b68002b1bd0bb1c1b88002bd7
:1030b00017d008217b18ba1c12881a807b180e22a0
:1030c0005a803c187a181a230293bb1c1b88019360
:1030d0007b68009304239c2101200af0d9f80300a7
:1030e00023700f23fb181b785bb21800bd4605b098
:1030f00090bd80b584b000af786039600f23fb18b5
:1031000000221a700af044f8031e02d00c235b421e
:1031100019e07b68180009f017fd031e03d00f2388
:10312000fb1801221a700af065f8031e02d00c2366
:103130005b4208e03b68002b04d03b680f22ba18c2
:1031400012781a7000231800bd4604b080bd80b507
:1031500082b000af78600af01bf8031e02d00c2387
:103160005b4210e07b68180009f034fd03001a0090
:1031700001235340dbb2002b02d00c235b4202e060
:103180000af038f803001800bd4602b080bd80b5d3
:1031900084b000af0200fb1d1a700c217b18fa1dd1
:1031a00012781a707a180423122101200af06ef99d
:1031b00003001800bd4604b080bd80b500af024bcf
:1031c0001b781800bd4680bd7c1c002080b500af78
:1031d000024b1b781800bd4680bdc046851c0020f0
:1031e000b0b584b000af0200fb1d1a70bb1d0a1cf5
:1031f0001a700f257b1900221a7008217b18fa1dfe
:1032000012781a707b18ba1d12785a707c197a18c5
:1032100004232d2101200af039f903002370094b02
:10322000fa1d12781a70fb1d1b785a1e9341dbb2ef
:10323000180009f0cfff7b191b785bb21800bd4660
:1032400004b0b0bd851c002090b585b000af78609b
:103250000f217b1800221a700b4b1b78042b0bd10b
:103260007b68bb607c180823fa1804233a210120ec
:103270000af00cf9030023700f23fb181b785bb2d4
:103280001800bd4605b090bd851c002090b58fb0dc
:1032900000af78600a00fb1c1a70fb1c1a78fb1c3c
:1032a00001321a70fb1c1b782f2b02d9fb1c302219
:1032b0001a70fb1c1a78796808243b19180010f062
:1032c0006dfa3a193023072101200af0dff80300d4
:1032d0001800bd460fb090bd90b58db000af7860be
:1032e00008001100fb1c021c1a70bb1c0a1c1a707f
:1032f000fb1c1b78202b02d90c235b4218e0fb1c23
:103300001a7879680c243b19180010f047fafb1c56
:103310001b783a190021d1543b19ba1c212112788b
:103320005a543a192423252101200af0aff803004a
:103330001800bd460db090bdb0b584b000af786048
:103340000f257c1909f024ff030023702a00bb1805
:103350001b785bb2002b03d0bb181b785bb21ae062
:103360007b68190001200df02fff02000f243b198c
:103370001a7009f03fff2200bb181b785bb2002bcc
:1033800003d0bb181b785bb205e07b6818000df01a
:10339000b5fe03005bb21800bd4604b0b0bd90b5e9
:1033a000abb000aff860b960fb1d1a7014243a1975
:1033b000fb681000190088231a0010f0eff9fb6871
:1033c000413319003b1988229b180422180010f081
:1033d000e5f9fb68413319003b198c229b18042244
:1033e000180010f0dbf93b19902200219954fb1dc5
:1033f0001a78b9683b19180000f005f803001800a6
:10340000bd462bb090bdb0b5bcb000aff860b960a0
:10341000fb1d1a70ef257b19f4221a70fb68002b34
:103420003ad0fb681800fef749fd031e37d1fb6850
:1034300014243a191000190088231a0010f0aef96c
:10344000fb68883319003b19c9229b180c2218000d
:1034500010f0a4f9bb681b78002b1fd0bb68002bb1
:103460001cd03b198822b9689b184022180010f024
:1034700095f920003b19fa1dc82112785a540c4bbb
:1034800000221a707c193a18d8238821012009f0eb
:10349000fdff0300237002e0c04600e0c046ef23ba
:1034a000fb181b785bb21800bd463cb0b0bdc046ef
:1034b000841c002080b500af002300220a210120d7
:1034c00009f0e4ff03001800bd4680bd80b500afe1
:1034d000002300220521012009f0d8ff0300180075
:1034e000bd4680bd80b582b000af78603a1d08232c
:1034f0000b21012009f0caff03001800bd4602b0ed
:1035000080bd80b500af002300221a21012009f000
:10351000bdff03001800bd4680bd80b584b000af7c
:103520000200fb1d1a70fb1d1b78002b01d00c2222
:1035300000e00d220f217b181a707b1819780023e8
:103540000022012009f0a2ff03001800bd4604b0cc
:1035500080bd80b584b000af0200fb1d1a700c2145
:103560007b18fa1d12781a707a180423162101208c
:1035700009f08cff03001800bd4604b080bd80b583
:1035800084b000af0200fb1d1a700c217b18fa1ddd
:1035900012781a707a1804231721012009f076ff97
:1035a00003001800bd4604b080bd80b584b000aff4
:1035b0000200fb1d1a700c217b18fa1d12781a707c
:1035c0007a1804232621012009f060ff0300180067
:1035d000bd4604b080bd80b584b000af0200fb1dc5
:1035e0001a700c217b18fa1d12781a707a180423ad
:1035f0001921012009f04aff03001800bd4604b05c
:1036000080bd80b584b000af0200bb1d1a800c21c4
:103610007b1800221a607b18ba1d12881a807a184b
:1036200004231821012009f031ff03001800bd46d2
:1036300004b080bd80b584b000af78600a00bb1cc8
:103640001a8008217b1800221a605a60bb1c1b8854
:103650000d4a934211d87b68002b0ed07b18ba1c00
:1036600012889a807b187a681a607a1808239f213a
:10367000012009f00bff030001e00c235b4218005e
:10368000bd4604b080bdc0462c06000080b582b0a7
:1036900000af78607a680c232421012009f0f6fe3f
:1036a00003001800bd4602b080bd90b585b000afe4
:1036b00078600a00fb1c1a707b68002b02d10c2377
:1036c0005b4213e008243b19fa1c12789a713a19ec
:1036d0007b681000190006231a0010f05ff83a19f1
:1036e00008231e21012009f0d1fe03001800bd4669
:1036f00005b090bd80b582b000af78600a00bb1cf9
:103700001a807b68002b02d10c235b4207e0064b3a
:103710007a681a60054bba1c12881a8000231800b8
:10372000bd4602b080bdc046a01c0020a41c0020e5
:1037300080b500af024b1b781800bd4680bdc04667
:103740007d1c002080b584b000af0200fb1d1a7004
:103750000c23fb1801221a70fb1d1b78012b02d9c8
:103760000f235b420be00c217b18fa1d12785a7074
:103770007a1804236921012009f088fe030018004b
:10378000bd4604b080bd80b582b000af3b1d0022b5
:103790001a703a1d04236921012009f077fe030005
:1037a0001800bd4602b080bd80b584b000af0200f5
:1037b000fb1d1a70fb1d1b78002b03d0fb1d1b7813
:1037c000012b0cd10c217b18fa1d12781a707a1873
:1037d00004236a21012009f059fe030001e00f23b0
:1037e0005b421800bd4604b080bdc04690b587b0ae
:1037f00000afb96011007b600f243b19021c1a70e6
:103800000e23fb180a1c1a703b191b785bb21a01b5
:103810002f4bd3183b61bb6828217a181288da80b5
:103820000a00bb181b88002b4dd03b691b68002b7e
:1038300049d03b699b88002b45d03b699b7a012b83
:1038400041d116203b181100ba1812881a803b6922
:103850009b887a1812889a4203d93b183a69928851
:103860001a803b69196816243b191a887b6818006e
:1038700009f0dafe031e26d13b691a68bb681a609c
:103880003b1900229a5ebb689a80bb68da883b19b4
:103890001b88d31a9ab2bb68da803b6900229a80ef
:1038a0003b6900221a600b4b1b68002b0bd0094ba5
:1038b0001b68bc680e22ba1811780f22ba180020b3
:1038c000105622009847c046bd4607b090bdc0467e
:1038d000c017002074180020f0b5bdb002af3a60e8
:1038e000fb1d021c1a703b1d0a1c1a80fb1d1b7855
:1038f000412b03d0fb1d1b78542b1ed1d02439192a
:103900003b680422180009f08ffe031e00d0a7e2d6
:1039100021007b1801229a56cc243b191a70b64b11
:103920001b68002b00d19be2b34b1b687a18002068
:1039300010563a190121984792e2fb1d1b78422b41
:103940001ed1c82439193b680422180009f06cfe06
:10395000031e00d08be221007b1801229a56c4245a
:103960003b191a70a44b1b68002b00d17fe2a24bbd
:103970001b687a18002010563a190221984776e2ff
:10398000fb1d1b78432b00d07ae0b82439193b6823
:103990000c22180009f048fe031e00d067e23b1914
:1039a0005b7a5bb2002b4bdb3b195b7a5bb20a2b79
:1039b00046dc3b191b7a5bb219003b195b7a5bb2a0
:1039c00018008e4a0b01d3180b3319788b4a030168
:1039d000d3180b330a1c1a703b195b7a5bb2874a07
:1039e0001b01d3180a3301221a703b195b893a195b
:1039f000527a52b21000083b99b2804a0301d318a0
:103a000008330a1c1a807e4b1b8801339ab27c4b08
:103a10001a807b4b1b88002b05d1794b1b88013307
:103a20009ab2774b1a80b823fb185b7a5bb2180006
:103a3000734b1988714a0301d31806330a1c1a8084
:103a4000b8203b1809229a56a4217b181a707b18bb
:103a500002229a803b185a887b18da803b185a68f1
:103a60007b189a60644b1b68002b00d1ffe1624b0e
:103a70001b683a18082010567a1804219847f6e176
:103a8000fb1d1b78442b08d0fb1d1b784b2b04d04f
:103a9000fb1d1b78572b00d092e09c23fb180022c3
:103aa0001a605a60e6217b1808221a80fb1d1b78d9
:103ab000572b02d07b1804221a80e623fb181a88a1
:103ac0009c2439193b68180009f0aefd031e00d094
:103ad000c8e121007b181b785bb2002b00dac1e142
:103ae0007b181b785bb20a2b00ddbbe1e5243b1998
:103af00005221a707b1800229a5698203b181a70db
:103b00007b1801229a563b185a703b181b785bb2ff
:103b10003a4a1b01d31808331b88002b02d03b19eb
:103b20000a221a709c243b195b785bb2002b1bd1d4
:103b30003b195b8898257a19127852b21000083b1d
:103b400099b22e4a0301d31808330a1c1a807b1934
:103b50001b785bb218003b191979284a0301d31866
:103b60000d330a1c1a7019e098243b191b785bb2bc
:103b700018009c257b199978204a0301d3180e332d
:103b80000a1c1a703b191b785bb218007b19d97894
:103b90001a4a0301d3180f330a1c1a70164b1b68fc
:103ba000002b00d15ee1144b1b6898217a1800208d
:103bb00010567c18e522ba1811782200984751e176
:103bc000fb1d1b784a2b1fd10c2439193b6844225a
:103bd000180009f029fd031e00d048e1094b1b68bd
:103be000002b00d143e1074b1a683b19196c3b19b4
:103bf000180090473be1c04674180020c017002011
:103c00007018002078180020fb1d1b78462b08d068
:103c1000fb1d1b78482b04d0fb1d1b784d2b00d0bf
:103c20009ce0e4217b1806221a70fb1d1b78482bb0
:103c300002d17b1809221a70dc257b1910221a8008
:103c40007b191a88882439193b68180009f0ecfca4
:103c5000031e00d008e121007b181b7b5bb2002b08
:103c600000da01e17b181b7b5bb20a2b00ddfbe075
:103c7000da26bb1900221a80d9203b187a18127b49
:103c80001a70bb197a18d2891a803b181b785bb25c
:103c9000794a1b01d3180c3300221a70d6243b1921
:103ca0007a1812891a80d423fb187a1852891a803c
:103cb0007b185a887023fb185a817b185a68702128
:103cc0007b18da603b181b785bb26b4a1b01d31878
:103cd00006331b88ba1912889a4200d0c4e03b19f7
:103ce00000229b5e002b1edd3b191b883a1d1288ab
:103cf0009a4218d9d423fb181b883a68d3183b6022
:103d00007b193a1912881a803c68e423fb181a7848
:103d100079183b18002018567b191b880093230044
:103d2000fff764fda0e070217b18d622ba18128834
:103d30009a807b1800221a60504b1b68002b00d120
:103d400092e04e4b1b687c18e422ba181178d922f5
:103d5000ba18002010562200984785e0fb1d1b78fa
:103d6000452b07d0fb1d1b78472b03d0fb1d1b7871
:103d70004c2b4ed1e3217b1807221a70fb1d1b78b8
:103d8000472b02d17b1808221a70642439193b682a
:103d90000822180009f048fc031e00d066e021004c
:103da0007b181b785bb2002b60db7b181b785bb247
:103db0000a2b5bdce0203b1800221a80df257b19f0
:103dc0007a1812781a703b187a1892881a807b1821
:103dd00002229a5e6e217b181a807b191b785bb2d7
:103de000254a1b01d31806331b883a1812889a42b9
:103df0003cd1224b1b68002b38d0204b1b687c1811
:103e0000e322ba1811787a19002010562200984738
:103e10002ce0fb1d1b78522b29d1502439193b680b
:103e20001422180009f000fc031e20d121007b1889
:103e30005a68134b1b689a420ed1124b1b68002b19
:103e40000ad0104b1c680a00bb181868bb18996888
:103e5000bb181b7c1a00a0470a4b00221a6006e020
:103e6000c04604e0c04602e0c04600e0c046c0468e
:103e7000bd463bb0f0bdc046c017002074180020fe
:103e8000841800208018002080b500af094b1b78f3
:103e9000002b0bd1084bb022002118000ff087fc3b
:103ea000044b01221a70054b00221a80c046bd4601
:103eb00080bdc0467c180020c0170020701800206c
:103ec00080b500af0a4bb022002118000ff06ffc44
:103ed000084b00221a60084b00221a60074b002290
:103ee0001a60074b00221a70c046bd4680bdc0460e
:103ef000c0170020741800207818002080180020b7
:103f00007c18002080b582b000af78603960054b26
:103f10007a681a60044b3a681a60c046bd4602b01f
:103f200080bdc046741800207818002080b582b08b
:103f300000af7860034b7a681a60c046bd4602b095
:103f400080bdc0467418002080b582b000af786094
:103f5000034b7a681a60c046bd4602b080bdc046b9
:103f60007818002090b589b000af04000800110057
:103f7000bb1d221c1a807b1d021c1a703b1d0a1cd3
:103f80001a701f23fb18ff221a700023bb61bb1d90
:103f90001b88022b00d0b3e07b1d1b78012b30d196
:103fa0001e23fb1800221a7025e017243b19584adb
:103fb00012781a70564b1b781a01564bd318bb61f6
:103fc000534b1b780133072118000cf035fc0b0014
:103fd000dab24f4b1a70bb699b7a002b05d11f23b5
:103fe000fb183a1912781a7047e01e217b181a78cc
:103ff0007b1801321a701e23fb181b78062bd4d9ac
:104000003be07b1d1b78022b37d1434b3b611e23ca
:10401000fb1800221a702be01723fb183f4a127876
:104020001a703e4b1b781b013a69d318bb613b4b9e
:104030001b7801333a4a134004d5013b0422524213
:1040400013430133dab2354b1a70bb699b7a002bec
:1040500008d11723fb181b780733dab21f23fb188c
:104060001a700ae01e217b181a787b1801321a7028
:104070001e23fb181b78032bced9bb69002b3fd026
:10408000bb691022002118000ff091fbbb690122cf
:104090009a72244b1b8801339ab2224b1a80214b0f
:1040a0001b88002b05d11f4b1b8801339ab21d4b77
:1040b0001a801c4b1a88bb69da807b1d1b78012b88
:1040c0001ed13b1d1b78002b1ad00c217b181f2200
:1040d000ba1812781a707a1804235021022009f0b5
:1040e000d5f9bb692122da723b1d1b78022b07d15f
:1040f000bb69db7a802252421343dab2bb69da72bf
:104100001f23fb181b785bb21800bd4609b090bd99
:1041100088180020c01700203018002089180020bf
:10412000030000807018002090b587b000af3960a0
:104130001100fb1d021c1a70bb1d0a1c1a701723ec
:10414000fb1841221a703b68002b16d0fb1d1b7810
:104150007f2b12d8fb1d1b785bb20a2b0ddcfb1ddd
:104160001b785bb2224a1b01d3180a331b78002b41
:1041700003d0bb1d1b78002b02d106235b4232e02b
:10418000fb1d1b785bb21a4a1b01d3180b331b783b
:104190001a000123134003d01723fb1854221a706e
:1041a00008243b19fa1d12781a7239683b19082243
:1041b00018000ff0f3fafb1d1b785bb20c4a1b01d1
:1041c000d31806331a883b195a813a191723fb185a
:1041d00019780c23022009f059f9031e02d0092393
:1041e0005b4200e000231800bd4607b090bdc0460a
:1041f000c017002080b584b000af0200fb1d1a700c
:10420000bb1d0a1c1a70fb1d1b787f2b0ed8fb1dd3
:104210001b785bb20a2b09dcfb1d1b785bb2164acc
:104220001b01d3180a331b78002b02d106235b42f3
:104230001ee00c217b18fa1d12781a707b18ba1d2b
:1042400012785a70fb1d1b785bb20b4a1b01d31806
:1042500006331a887b185a807a18042342210220d8
:1042600009f014f9031e02d009235b4200e0002389
:104270001800bd4604b080bdc017002080b584b0d2
:1042800000afb9607a600f217b18021c1a700a0017
:10429000bb181b787f2b0ed8bb181b785bb20a2b80
:1042a00009dcbb181b785bb2074a1b01d3180a3321
:1042b0001b78002b02d106235b4200e0002318008c
:1042c000bd4604b080bdc046c017002090b587b081
:1042d00000af39601100fb1d021c1a70bb1d0a1cc7
:1042e0001a701723fb1844221a70fb1d1b787f2bb2
:1042f00015d8fb1d1b785bb20a2b10dc3b68002b2a
:104300000dd0fb1d1b785bb2274a1b01d3180a3363
:104310001b78002b03d0bb1d1b78002b02d106237a
:104320005b423de0fb1d1b785bb21f4a1b01d318ab
:104330000b331b781a00012313400ed01723fb18f0
:104340004b221a70fb1d1b785bb2174a1b01d31856
:104350000b331a780823fb185a7208243b19fa1dec
:1043600012781a7239683b19082218000ff016faf1
:10437000fb1d1b785bb20c4a1b01d31806331a884d
:104380003b195a813a191723fb1819780c2302207c
:1043900009f07cf8031e02d009235b4200e00023f1
:1043a0001800bd4607b090bdc017002080b586b08c
:1043b00000af0200fb1d1a700c23fb1800221a60cc
:1043c0005a609a60fb1d1b787f2b0ed8fb1d1b7853
:1043d0005bb20a2b09dcfb1d1b785bb2314a1b0167
:1043e000d3180a331b78002b02d106235b4255e019
:1043f000fb1d1b785bb22b4a1b01d3180b331b78b8
:104400001a0081231340812b02d006235b4245e032
:10441000fb1d1b785bb2234a1b01d31808331b8892
:10442000002b02d106235b4238e0fb1d1b785bb2f8
:104430001c4a1b01d3180b331a78fb1d1b785bb287
:104440007f210a40d1b2174a1b01d3180b330a1c33
:104450001a70fb1d1b785bb2124a1b01d3180b3379
:104460001a780c217b185a727b18fa1d12781a726e
:10447000fb1d1b785bb20b4a1b01d31806331a884d
:104480007b185a817a180c235621022008f0feff6f
:10449000031e02d009235b4200e000231800bd4642
:1044a00006b080bdc0170020b0b58eb004af0400c8
:1044b000b960100019000f257b19221c1a700c24fa
:1044c0003b19021c1a80bb1d0a1c1a8029007b188c
:1044d0001b787f2b17d87b181b785bb20a2b12dc5a
:1044e000bb68002b0fd03b191a88af23db009a4220
:1044f00009d87b181b785bb2364a1b01d3180a33e4
:104500001b78002b02d106235b425ee02523fb18bb
:1045100045221a7026243b1950221a8014217b1838
:104520000f203a1812781a707b180c22ba181288c9
:104530005a803b181b785bb2264a1b01d3180633fe
:104540001a887b189a813b181b785bb2062b02dd18
:104550003b1944221a800f217b181b785bb21d4a3d
:104560001b01d3180b331b781a0081231340012b36
:104570000ed12523fb184c221a707b1800229a5664
:104580002623fb18134912018a18083212881a8050
:104590002523fb181b78802252421343d9b21423df
:1045a000fa182623fb181b8802930c23fb181b8880
:1045b0000193bb6800931023022008f069fe031edc
:1045c00002d00e235b4200e000231800bd460ab073
:1045d000b0bdc046c0170020b0b58eb004af040017
:1045e000b960100019000f257b19221c1a700c24c9
:1045f0003b19021c1a80bb1d0a1c1a8029007b185b
:104600001b787f2b17d87b181b785bb20a2b12dc28
:10461000bb68002b0fd03b191a88af23db009a42ee
:1046200009d87b181b785bb2274a1b01d3180a33c1
:104630001b78002b02d106235b4241e014243b1976
:104640001022002118000ff0b2f821007b180f2073
:104650003a1812781a707b180c22ba1812885a80ed
:104660003b181b785bb2184a1b01d31806331a8813
:104670007b189a81bb6b002b0dd0bb6b7b627b6a76
:104680001a887b189a807b6a5a887b18da807b6a42
:104690005a687b189a601423fa18442302930c2357
:1046a000fb181b880193bb6800931023c7210220cd
:1046b00008f0eefd031e02d00e235b4200e0002353
:1046c0001800bd460ab0b0bdc017002090b589b033
:1046d00000afb96011007b600f243b19021c1a70f7
:1046e0000c203b180a1c1a801f23fb1846221a7044
:1046f0003b191b787f2b15d83b191b785bb20a2b13
:1047000010dcbb68002b0dd03b181b88002b09d098
:104710003b191b785bb23c4a1b01d3180a331b7848
:10472000002b02d106235b426ae00f203b180022d7
:104730009a56354b1201b968d15001007b181b788d
:104740005bb2314a1b01d31804330c22ba18128809
:104750001a807b181b785bb22b4a1b01d3180c33d1
:104760001b78002b01d000234ae00f217b181b7817
:104770005bb2254a1b01d3180c3301221a707b1837
:104780001b785bb2204a1b01d3180b331b781a002d
:1047900081231340012b03d01f23fb184d221a70d5
:1047a0007b68002b05d11023fb18012252421a60ae
:1047b00003e01023fb187a681a6010217b180f2081
:1047c0003a1812781a713b181b785bb20e4a1b011b
:1047d000d31806331a887b18da807b180c22ba1893
:1047e00012881a817a181f23fb1819780c230220cb
:1047f00008f04cfe031e02d00e235b4200e00023b3
:104800001800bd4609b090bdc017002080b584b027
:1048100000af0200fb1d1a700f23fb1849221a700b
:10482000fb1d1b787f2b0ed8fb1d1b785bb20a2b60
:1048300009dcfb1d1b785bb2234a1b01d3180a332a
:104840001b78002b02d106235b4238e008217b183d
:10485000fa1d12781a70fb1d1b785bb21a4a1b01f5
:10486000d31806331a887b185a80fb1d1b785bb25d
:10487000154a1b01d3180b331b781a000123134070
:1048800003d00f23fb184e221a700823fa180f23a7
:10489000fb1819780423022008f0f8fd031e02d04b
:1048a00009235b420be0fb1d1b785bb21a01064b30
:1048b000d3181022002118000ef079ff00231800f1
:1048c000bd4604b080bdc046c017002090b589b079
:1048d00000afb96011007b600f243b19021c1a70f5
:1048e0000c203b180a1c1a802200bb181b787f2b57
:1048f00015d8bb181b785bb20a2b10dcbb68002be9
:104900000dd03b181b88002b09d0bb181b785bb25d
:10491000324a1b01d3180a331b78002b02d106231d
:104920005b4257e00f203b1800229a562b4b120196
:10493000b968d15001007b181b785bb2274a1b0174
:10494000d31804330c22ba1812881a807b181b78eb
:104950005bb2224a1b01d3180c331b78002b01d009
:10496000002337e00f23fb181b785bb21b4a1b01a7
:10497000d3180c3301221a707b68002b05d1142345
:10498000fb18012252421a6003e01423fb187a68d4
:104990001a6014217b180f203a1812781a713b18ec
:1049a0001b785bb20d4a1b01d31806331a887b189b
:1049b000da807b180c22ba1812881a817a180c2314
:1049c0004821022008f062fd031e02d00e235b4244
:1049d00000e000231800bd4609b090bdc0170020bc
:1049e00080b586b000af786000233b611723fb18c9
:1049f00000221a7098e01423fb1800221a803b69e9
:104a00001b0a3b611623fb1800221a7016e01620c1
:104a10003b181b787a68d2180f217b1812781a700d
:104a20000a00bb181b782e2b0dd0bb181b78002b4f
:104a300009d03b181a783b1801321a701623fb185c
:104a40001b78032be3d91622bb181b78002b03d04d
:104a5000bb181b78042b01d100236ce07b685a1c27
:104a60007a600f217a181b7813701623fb181b78b5
:104a7000012b27d97b181b78302b23d100235ae038
:104a80000f22bb181b782f2b03d9bb181b78392b8f
:104a900001d900234fe014217b181b881a1c9200b7
:104aa000d318db189ab20f203b181b789bb2d3188f
:104ab0009ab27b18303a1a807b685a1c7a603a188e
:104ac0001b7813701622bb181b78ba18591e117068
:104ad000002bd5d11423fb181b88ff2b01d90023f1
:104ae00029e01423fb181b881b063a6913433b611a
:104af0000f23fb181b78002b04d11723fb181b78fe
:104b0000032b09d10f23fb181b78002b06d017238a
:104b1000fb181b78032b01d100230ce017217b1815
:104b20001a787b1801321a701723fb181b78032b95
:104b300000d860e73b691800bd4606b080bd90b55f
:104b400089b000aff860b9607a603b607b683b6118
:104b5000bb681b687b61bb68002b05d07b68002ba2
:104b600002d03b680f2b01d800237ae01f23fb18eb
:104b700000221a706fe01d217b187a691a701e23bb
:104b8000fb1864221a707b181b78002b45d01b235e
:104b9000fb1800221a701c23fb1830221a700ee03a
:104ba0001c217b181a787b1801321a701d22bb1841
:104bb000b9181e22ba18097812788a1a1a701d2399
:104bc000fa181e217b1812781b789a42e8d27c18ba
:104bd0007b181b780a2118000df048f80300237099
:104be0001c23fb181b78302b04d11b23fb181b78cc
:104bf000002b0cd07b685a1c7a601c22ba181278e1
:104c00001a701b217b181a787b1801321a701e2328
:104c1000fb181b78002bbed104e07b685a1c7a601d
:104c200030221a701f23fb181b78032b05d17b68d9
:104c30005a1c7a6000221a7004e07b685a1c7a6061
:104c40002e221a707b691b0a7b611f217b181a7840
:104c50007b1801321a701f23fb181b78032b8ad98b
:104c60003b691800bd4609b090bd80b584b000af67
:104c700078607b6818000ef0a2fd02000f217b18ff
:104c80001a707b181b78402b02d906235b4210e078
:104c90000f23fb181b789bb201339bb27a684a2121
:104ca000022008f0f3fb031e02d00e235b4200e05b
:104cb00000231800bd4604b080bd90b597b000af8a
:104cc000040008003a601900fb1d221c1a70bb1d6d
:104cd000021c1a703b1d0a1c1a805723fb18002265
:104ce0001a70fb1d1b785bb2062b02dd06235b42ac
:104cf000bae0fb1d1b785bb25d4a1b01d3180b3376
:104d00001b781a000123134002d106235b42abe05b
:104d10003b1d1b88042b57d1bb1d1b78012b04d1d5
:104d20005723fb1802221a7010e0bb1d1b78032bbf
:104d300004d15723fb1810221a7007e0bb1d1b7803
:104d4000042b03d15723fb1840221a7057203b181d
:104d50001b78002b00d185e03b681b683b653b6df1
:104d6000002b15d0fb1d1b785bb2414a1b01d318e9
:104d70000b331978fb1d1b785bb23a1812780a4383
:104d8000d1b23b4a1b01d3180b330a1c1a7069e0dd
:104d9000fb1d1b785bb2364a1b01d3180b331b7803
:104da0005bb25722ba18127852b2d24352b21340b1
:104db0005ab2fb1d1b785bb2d1b22d4a1b01d3182e
:104dc0000b330a1c1a704de0bb1d1b78022b03d15c
:104dd0003b1d1b883f2b07d9bb1d1b78052b41d1e1
:104de0003b1d1b88202b3dd808243b191800482365
:104df0001a0000210ef0dbfc21007b18fa1d12784e
:104e00001a70fb1d1b785bb2194a1b01d3180633bd
:104e10001a887b185a807b18ba1d12785a703b1d6d
:104e20001a880c007b185a603b1d1a8839683b1998
:104e3000083318000ef0b2fc3a1948235121022021
:104e400008f024fb030003330ad13a194823d12187
:104e5000022008f01bfb031e02d00e235b4203e07e
:104e6000002301e006235b421800bd4617b090bd49
:104e7000c017002090b587b000af040008001100f3
:104e80003b60fb1d221c1a70bb1d021c1a707b1d8f
:104e90000a1c1a70fb1d1b787f2b11d8fb1d1b7879
:104ea0005bb20a2b0cdc3b68002b09d0fb1d1b7886
:104eb0005bb2284a1b01d3180a331b78002b02d19e
:104ec00006235b4242e0bb1d1b78022b0dd1282339
:104ed000fb181c883a687b1d1978fb1d00201856aa
:104ee0002300fff7eafe030030e0bb1d1b78012b17
:104ef0002bd12823fb181b88042b26d117203b1805
:104f00004f221a700c217b187a1d12785a717b1867
:104f1000fa1d12781a713b681a687b181a60fb1d1b
:104f20001b785bb20b4a1b01d31806331a887b1817
:104f3000da807a183b1819780823022008f0a6fabc
:104f4000031e02d009235b4200e000231800bd4687
:104f500007b090bdc017002090b583b000af04002b
:104f6000080011003b60fb1d221c1a70bb1d021cb7
:104f70001a707b1d0a1c1a7006235b421800bd467e
:104f800003b090bd80b588b000aff8607a600b23a5
:104f9000fb180a1c1a70fb68002b02d07b68002be0
:104fa00002d10f235b4223e014217b1801221a81d6
:104fb0007b18fa681a60104b1b685a1c0e4b1a605b
:104fc0000d4b1a687b185a607b180b22ba1812789e
:104fd0009a720a4b7a681a607a180c2352210220be
:104fe00008f054fa031e02d009235b4200e00023bc
:104ff0001800bd4608b080bd84180020801800202d
:1050000090b591b002af02003960fb1d1a703b6889
:1050100018000ef0d4fb03007b63fb1d1b787f2b75
:1050200007d8fb1d1b785bb20a2b02dc3b68002b08
:1050300002d106235b425be07b6b002b02d07b6bd3
:105040001d2b02d906235b4252e00c243b191800a9
:1050500020231a0000210ef0aafb3b19da1c7b6bff
:10506000d3183b632f23fb1800221a707a6b396820
:105070003b19033318000ef091fb7b6b01337b630c
:105080007b6bdab23b195a703b1920229a701de0f3
:105090003b6b013b3b633b6b1b78202b10d12f23d9
:1050a000fb181b78002b02d106235b4220e03b6bf0
:1050b0002f217a1812781a707b1800221a7005e0d6
:1050c0002f217b181a787b1801321a707b6b5a1ebd
:1050d0007a63002bdcd10c23fa18fb1d0020185634
:1050e00020230093130005220221fff7c3fe0300d3
:1050f0001800bd460fb090bd80b582b000af020071
:10510000fb1d1a70fb1d1b787f2b04d8fb1d1b7821
:105110005bb20a2b02dd06235b4221e0fb1d1b78fc
:105120005bb2114a1b01d3180b331b781a00012301
:10513000134009d0fb1d1b785bb20b4a1b01d3182f
:105140000a331b78002b02d106235b4208e0fb1dcb
:105150001b785bb2044a1b01d3180d331b785bb27a
:105160001800bd4602b080bdc017002080b584b0d5
:1051700000af0200fb1d1a70fb1d1b78fb600c23a7
:10518000fa1804235521022008f080f9031e02d0ea
:1051900009235b4200e000231800bd4604b080bd37
:1051a00080b582b000af02003960fb1d1a70fb1d94
:1051b0001b787f2b07d8fb1d1b785bb20a2b02dc08
:1051c0003b68002b02d106235b4221e0fb1d1b78cc
:1051d0005bb2114a1b01d3180a331b78002b02d192
:1051e00006235b4214e0fb1d1b785bb20a4a1b01dd
:1051f000d3180e331a783b681a70fb1d1b785bb20c
:10520000054a1b01d3180f331a783b685a700023e4
:105210001800bd4602b080bdc017002080b500afa9
:10522000024b1b781800bd4680bdc0467c1800208c
:1052300090b583b000af0200fb1d1a70bb1d0a1ca5
:105240001a70fb1d1b785bb25b115bb2db010d4a70
:105250009818fb1d1b781a001f23134001229a4047
:105260001100bb1d1a78fb1d1b781c001f23234057
:105270009a4013001a000bf0ebfdc046bd4603b088
:1052800090bdc0460044004180b582b000af02002e
:10529000fb1d1a70bb1d0a1c1a70bb1d1a78fb1d62
:1052a0001b785bb211001800fff7c2ffc046bd4675
:1052b00002b080bd90b583b000af040008001100bb
:1052c000bb1d221c1a807b1d021c1a703b1d0a1c70
:1052d0001a70bb1d1b881a047b1d1b781b021a4306
:1052e0003b1d1b7813431800bd4603b090bd80b52d
:1052f00082b000af0200bb1d1a80bb1d1a88bb1d07
:1053000001321a80bb1d1b88054a934202d1bb1d86
:1053100001221a80bb1d1b881800bd4602b080bd4b
:10532000ffff0000b0b586b000af78607b689b6d72
:105330007b617b6904333b617b682c229b56013384
:1053400036d07b682d229b56013331d07b691b7888
:10535000002b0bd07b695b685bb218000bf0fbff86
:10536000030019007b68562299546be00f257c19c5
:105370000bf0c8ff030023703b69db685bb21800c9
:105380000bf0e9ff030019007b68542299543b6934
:105390001b695bb218000bf0deff030019007b688d
:1053a000532299547b191b7818000bf0bfff49e07a
:1053b0007b691b78002b0bd07b695b685bb21800a4
:1053c0000bf0c9ff030019007b685522995439e09e
:1053d0000f23fc180bf096ff030023703b691b683a
:1053e00001330ad03b691b685bb218000bf0b3ffb6
:1053f000030019007b68502299543b695b680133b4
:105400000ad03b695b685bb218000bf0a4ff030095
:1054100019007b68512299543b699b6801330ad07b
:105420003b699b685bb218000bf095ff0300190005
:105430007b68522299540f23fb181b7818000bf03d
:1054400075ffffe7c046bd4606b0b0bdb0b586b03b
:1054500000af78607b689b6d7b617b6904333b6147
:105460007b682c229b56013330d07b682d229b56c3
:1054700001332bd07b691b78002b09d07b695b68db
:1054800058b27b6856229b5c19000bf08dff5fe0e1
:105490000f257c190bf036ff030023703b69db6896
:1054a00058b27b6854229b5c19000bf07dff3b696e
:1054b0001b6958b27b6853229b5c19000bf074ff88
:1054c0007b191b7818000bf031ff41e07b691b78da
:1054d000002b09d07b695b6858b27b6855229b5cc6
:1054e00019000bf061ff33e00f23fc180bf00affeb
:1054f000030023703b691b68013308d03b691b68bc
:1055000058b27b6850229b5c19000bf04dff3b6941
:105510005b68013308d03b695b6858b27b685122f5
:105520009b5c19000bf040ff3b699b68013308d07e
:105530003b699b6858b27b6852229b5c19000bf058
:1055400033ff0f23fb181b7818000bf0effeffe76b
:10555000c046bd4606b0b0bd80b584b000af78602f
:105560007b6826229b5c002b19d17b685d33fb6036
:105570000a23fb18012252421a80fb681b78012b78
:1055800004d1fb6800221a70012300e00023002be5
:1055900001d1002304e07b681800fff7c3fe01235c
:1055a0001800bd4604b080bd80b584b000af7860ff
:1055b0007b6826229b5c002b09d17b681800fff7d3
:1055c00045ff7b685d33fb60fb6801221a70c046b3
:1055d000bd4604b080bd80b584b000af78600023c4
:1055e000bb600023fb607b6801333ed07b68002bef
:1055f0003bd07b681b0aff221340bb60bb68002bbb
:1056000001d0002332e07b68ff22134019001948c3
:10561000ba6813005b009b185b01c31808331b6852
:10562000994201d3002321e07b68ff221a40130036
:105630009b009b18db0018000e49ba6813005b0042
:105640009b185b01cb180c331b68c318fb60fb680d
:105650005b6a7a689a4206d1fb68db780122534084
:10566000dbb2002b01d0002300e0fb681800bd4630
:1056700004b080bd941a0020b0b586b000af786049
:105680007b681b881a0013005b009b185b012f4a84
:105690009b183b613b699b69fb6000237b614ae08f
:1056a0007a691300db009b189b001a00fb689b18ab
:1056b0001b7801225340dbb2002b39d07a691300ea
:1056c000db009b189b001a00fb689b1801221a70d4
:1056d0007a691300db009b189b001a00fb689b187b
:1056e00000221a623b69988c7b681b88d9b27b695f
:1056f000ddb27a691300db009b189b001a00fb687f
:105700009c182a00fff7d6fd0300e3613b699b8ce0
:105710001800fff7ecfd03001a003b699a847a69d0
:105720001300db009b189b001a00fb689b1808e025
:105730007b6901337b613b69db697a699a42afd34c
:1057400000231800bd4606b0b0bdc046941a002024
:1057500080b584b000af786039600b217b180022df
:105760001a707b682033fb60fb681b68002b14d128
:10577000fb683a681a607b1801221a7011e0fb6816
:105780001b681b6a002b04d1fb681b683a681a620d
:1057900007e0fb681b682033fb60fb681b68002b7d
:1057a000edd10b23fb181b781800bd4604b080bd5b
:1057b00080b584b000af78600023fb607b681b6a13
:1057c000fb60fb681800bd4604b080bd80b584b0a6
:1057d00000af78607b682033fb60fb681b68002ba0
:1057e00010d0fb681b68bb60fb681b681a6afb680b
:1057f0001a60bb6800225a75bb6800221a62bb6837
:1058000000221a70c046bd4604b080bd80b584b089
:1058100000af786039600023bb607b682033fb6099
:1058200024e0fb681b689a693b685b6a9a4219d15d
:10583000fb681b685b7d012b14d1fb681b68bb6098
:10584000fb681b681a6afb681a60bb6800225a75fd
:10585000bb6801221a75bb6800221a62bb6800226d
:105860001a7003e0fb681b682033fb60fb681b6851
:10587000002bd6d1c046bd4604b080bd80b586b0f1
:1058800000af786000237b617b689b69ff221a4030
:1058900013009b009b18db0018007b689b691b0aa8
:1058a000ff221a406c4913005b009b185b01cb1868
:1058b0000c331b68c3183b613b691b881a0013003b
:1058c0005b009b185b01644a9b18fb60fb6800222d
:1058d000da63fb6800221a647b681a697b68db68fc
:1058e0009a4207d37b681a697b68db68d21afb6827
:1058f000da6306e07b68da687b681b69d21afb68aa
:105900001a64fb682c229b56dbb27a685349180054
:1059100008f042f8fb682d229b56dbb27a685049aa
:10592000180008f039f83b699b69002b0ed1fb6821
:105930002d229b56002118000cf0cefdfb682c2276
:105940009b56002118000cf0c7fd11e0fb682d22ca
:105950009a5680235b00190010000cf0bdfdfb6817
:105960002c229a5680235b00190010000cf0b4fd25
:105970007b681b69002b1ad1fb682d229b560022e5
:10598000002118000cf076fdfb681b6c7b61fb6846
:1059900000221a64fb682d229b56d8b2fb68596b13
:1059a000fb6838331a007b6907f0dcfe14e0fb6803
:1059b0002d22985680231b011a0000210cf05afd5d
:1059c000fb682d229b56d8b2fb68596b7b685a68de
:1059d0007b681b6907f0c6fe7b68db68002b18d16b
:1059e000fb682c229b560022002118000cf042fd7f
:1059f000fb68db6b7b61fb680022da63fb682c22af
:105a00009b56d8b2fb681a6b7b69164907f0aafe51
:105a10001ee0fb682c2298568023db000022190030
:105a20000cf028fdfb681b6c002b03d07b681b6906
:105a30007b6102e07b68db687b61fb682c229b5604
:105a4000d8b27b689968fb681a6b7b6907f08afe9d
:105a5000c046bd4606b080bd941a0020655c0000bb
:105a6000015d0000f41a002080b584b000af7860ba
:105a70007b689b69ff221a4013009b009b18db0088
:105a800018007b689b691b0aff221a4021491300fa
:105a90005b009b185b01cb180c331b68c318fb60c1
:105aa000fb681b881a0013005b009b185b01194af6
:105ab0009b18bb607b689a69bb689b6a9a4204d159
:105ac000fb6820229b5c002b0fd0bb685b691b68c6
