:020000040000fa
:10000000f07f002025480000d33b0000b33d0000f6
:1000100000000000000000000000000000000000e0
:100020000000000000000000000000005f3a000037
:1000300000000000000000005f3a00005f3a00008e
:100040005f3a00005f3a00005f3a00005f3a00004c
:100050005f3a00005f3a0000613a00005f3a00003a
:100060005f3a00005f3a00005f3a0000b91b0000f1
:10007000e51e000000000000000000005f3a0000e4
:100080005f3a00005f3a00005f3a00005f3a00000c
:100090005f3a000000000000000000005f3a00002e
:1000a0005f3a00005f3a00005f3a00005f3a0000ec
:020000040000fa
:1000b000f8b5c046f8bc08bc9e467047054e000027
:1000c000f8b5c046f8bc08bc9e467047dd4d000040
:020000040000fa
:0800d0004419000001000000ca
:020000040000fa
:1000d800f0b599b011930b68139009934b680d9183
:1000e80005938b680a930b691693cb68039313687f
:1000f800089353680898079300220023079904f08f
:100108009dff00280bd1099b5b073bd40823099a64
:100118001a400a9b0b9204930fd0202306e08022fa
:1001280012069446079b634407932d23039a137082
:100138000a9b013b049301230b930b99079b8c4665
:10014800039a089962445b0010925b08c04a002930
:100158001ad1934218d1119bbe4c413b2100192b57
:1001680000d9211d109805f027fd201d05f0e2fc9f
:10017800099b0200009303990a9b139803f09efdc4
:1001880019b0f0bd2b23d1e7934203d811d1089bb6
:10019800002b0ed0119baf4c413b2100192b06d8e8
:1001a8000831109805f008fd20000c30dee70c310e
:1001b800f7e7002200230898079905f03bf9002685
:1001c800a54f002833d000230293119805f0dafcdc
:1001d800c3b20c93059b002b00dacae10c9b069373
:1001e800672b00d045e1059b002b00d1bce1029ba9
:1001f800043304db029b059a934200da34e1652359
:100208004de126002f00029b013302930022934bfd
:100218003000390001f0b8fd089a079b04000d0072
:1002280004f0ecfe0028ecd00024012524e0029024
:10023800ece7029b1a008a4b9a4212da002c10d182
:100248000022884b0898079901f09efd002208902b
:10025800079130003900834b01f096fd2c00060011
:100268000f007e4b30003900002202f051fe0600dc
:100278000f00029b013b029332003b00089807994c
:1002880004f0dcfe0028d4d19fe732003b00089838
:100298000e9902f03dfe02f0b7ff1490159105f09b
:1002a8004bf81022099b1340034300d090e00c9bad
:1002b800672b00d08ce0002c00db9ae00135802011
:1002c800000684460e99089a61440b001498159903
:1002d8000092019332003b0005f04cfc80231b0682
:1002e800cb1808900e933000390000225b4b02f0c7
:1002f8000ffe06000f00013c059b1293179b9c42c2
:1003080006d00d9b059a1b691493053b9342bcd8f4
:10031800079b002b09d1099bdb0606d5059b039a91
:10032800013305932e2312995354059a00259446b8
:10033800039b634407931d70069b652b2ed1169b68
:100348005c1e039b1d55029bab4202da5b42029383
:10035800013503260a27169bf61a029b002b60d14b
:100368003319002b5ddc621e2d23002d00d1023bca
:100378000399023c8b54119b413b192b01d845230f
:100388000693039b1919069b0b70049b023b04936d
:10039800059ba34202da079805f00efc0323099a8d
:1003a8001340022b12d1049b002b0fdd039805f09c
:1003b800c1fb039b049a9b180b9a824242dd049a64
:1003c8003021109805f0aefb00230a930398cde680
:1003d800079b002b0dd1002c0bda059b039a0133e8
:1003e8000593049b1299013b04932e2353542d3bf0
:1003f8000793059b3021ea18944602e0039ad154ea
:1004080001339c45fad16246059b303001335b19b4
:100418000593049b013b5b1b0493039b00259854a5
:100428004de70298390001f031f9039b3031013c66
:1004380019550298390001f043f8049b0290013bda
:1004480004938ae7039a125c1a540138b4e7c04649
:100458000000f07f5c5b00000000f03f00002440db
:10046800d4feffff00005043029b002b16da6623e0
:100478000693059b01330593069b662b10d1029bbf
:10048800002b03da002300263d4f02930c9b672bb9
:1004980004d0029a059b9446634405936623069309
:1004a80000230e960f97089c079d12930e9a0f9b98
:1004b8002000290002f02cfd02f0a6fe14901591f0
:1004c80004f03aff8021220009066b181790009269
:1004d8000193149815990e9a0f9b05f04bfb8023f6
:1004e8001b06cd180022274b04000e980f9902f026
:1004f8000ffd129b0e900f9101331293129a059bd8
:100508009342d3d10022204b01f03efc0e900f9174
:1005180002000b002000290004f090fd00280ad1f9
:100528000e9a0f9b2000290004f084ff002806d0b3
:10053800179bdb0703d4002300240e930f940e9a15
:100548000f9b0898079901f0a5f8069b08900e9153
:10055800029c652b00d100240025059b0795e31a12
:1005680017930b9b0593c7e6012305933fe60623e4
:10057800fbe70c9b672bfad006930623059378e7d5
:0c0588000000f03f000024400000144080
:020000040000fa
:10059400f0b51c000b6897b008934b6813900d934b
:1005a4008b6809930b690e93cb68029313680693c7
:1005b40053680698059300220023059904f040fd32
:1005c40000280ad1089b5b073cd40820089b099aa1
:1005d400034004930ed0202306e0802212069446a2
:1005e400059b634405932d23029a1370099b5a1e9d
:1005f4000123049302990498059b081806995b004b
:10060400413c5b080c9400291ed1b5498b421bd197
:10061400029a049b944663441800b24c0c9b21003c
:10062400192b00d9211d05f0c9fa201d05f084fa03
:10063400089b020000930299099b139803f040fb66
:1006440017b0f0bd2b23cfe7a5498b4203d80fd1b8
:10065400069b002b0cd0a34c0c9b2100192b05d816
:10066400083105f0abfa20000c30dfe70c31f8e775
:10067400049b591c302303700c982833192800d983
:10068400203304980230049002984354931e079335
:10069400002200230698059904f0cefe002800d11c
:1006a4006ee100230026904f03930d9b1293002bc1
:1006b40001da1823129300230a960b97069d059cd2
:1006c400109328000a9a0b9b210002f023fc02f0ed
:1006d4009dfd0a9a0b9b1490159101f057fb0200a3
:1006e4000b002800210005f017fa804b05000c00d0
:1006f4000a980b99002201f049fb109b0a900b9178
:1007040001330f930d9b002b07da002200232800ee
:10071400210004f091fe002806d1129b109a934206
:1007240000dd31e101330f9300220a980b99704bdd
:1007340001f02cfb0a900b9102000b002800210011
:1007440004f07efc00280dd10a9a0b9b280021009e
:1007540004f072fe002809d01498159904f0eefdf7
:10076400c30703d4002300240a930b940a9a0b9b17
:100774000698059900f090ff1291490006904908e7
:10078400002803d1564b994200d141e70025049c2f
:100794000a9505950e9b053ba34230dd3b003200d4
:1007a4000698129902f0b6fb02f030fd10901191f8
:1007b40004f0c4fd031e00d0e8e0059a002a00d12d
:1007c400e4e001353200109811993b0001f0defaa3
:1007d40002000b000698129905f09ef9002206907b
:1007e4001291424b3000390001f0d0fa059b06000b
:1007f40001330593059a0f9b0f009342cad10a9bbc
:10080400002b1cd1029b1b19002d00d10ae10d9a6b
:10081400002a00dc06e1089ad20700d502e12e2264
:1008240002991a702a198a18302159700133934297
:10083400fbd12c19ed43079b0134eb1807930026d9
:10084400029b1b191e7005930e9b5d1e029b5e5539
:10085400039bb34202da5b420393013602230a2765
:100864000e9a9b1a0693039b002b00d0c4e0069bb0
:100874005b19012b00d1bfe06a1e2d23002e00d18d
:10088400023b0299023d8b540c9a5023192a00d939
:100894002033029a51190b70ac4202da059805f024
:1008a4008df90323089a1340022b17d1079c023cad
:1008b400002c13dd029805f03ff9029b1b19049ae2
:1008c400904200dba9e01300029a3021944663446d
:1008d4001800220005f028f9002309930298a5e6e0
:1008e4000000f07f4c5b00000000f03f0000b03fd0
:1008f4000000204026002f00039b013303933200a5
:100904003b003000390000f0c7fe04000d00020077
:100914000b000698059904f093fb0028ead03200f6
:100924003b000698059904f08bfb002800d1bce637
:100934000022404b3000390001f028fa0022002345
:1009440004f07afd00280fd000223b4b3000390020
:1009540001f01cfa002206000f0006980599364b98
:1009640001f014fa06900591324b30003900002250
:1009740001f00cfa039b0600013b0f000393cee742
:10098400039000262d4fbae70f9b99e60a9a002a96
:100994000bd1059a002a08d0079a0299013a0792c6
:1009a4002e220a552d3a01340a92291922008c4626
:1009b40003e030210298815401329445f9d11800a2
:1009c400029a013462441492079a6419013a521b40
:1009d40007925730092b01dc303318000c9b192b7c
:1009e40006d820230343613b192b01d805f0d3f823
:1009f400149b00251870e5e60398390000f048fec2
:100a0400029b3031013d59550398390000f05afddd
:100a1400079b0390013b079325e7029a125c1a5443
:100a240001384ce7089ad20600d408e72e22013494
:100a34001a7004e70000e03f000050430000f03f5c
:020000040000fa
:100a4400f0b58bb0040000910192242901d801294a
:100a540003d11622bc4b1a6056e0e36be26c93425e
:100a640024d25a1ce2631d78202df6d02b00093bba
:100a7400042bf2d90222223b934300220892934290
:100a84000bd12d3d6b425d416b420893e26ce36bed
:100a9400934210d25a1ce2631d78009be26c002b37
:100aa4000ed0102b56d1302d0cd053e0200002f084
:100ab40060fc0500d8e7200002f05bfc0500ece7d1
:100ac400302d45d1e36b934224d25a1ce2631d7846
:100ad40020232b43782b2fd1e36be26c93421ed25d
:100ae4005a1ce2631d781022984b00925b5d0f2b19
:100af40000d8cce0e36c002b00d1b3e1019ae36ba6
:100b0400002a11d0023be36300260027300039009d
:100b14000bb0f0bd200002f02cfc0500d8e720004b
:100b240002f027fc0500dee7013be363002200231b
:100b3400200004f097fde7e7009b002b00d1a4e020
:100b4400009b0a2b00d0a2e00023009f01931ce02d
:100b54000a2300937d4b00995b5d8b42f0d3002afe
:100b640002d0e36b013be36300220023200004f086
:100b740079fd6ee7019ee36b7e437519303d019567
:100b840093426cd25a1ce2631d782b00303be26c1a
:100b9400092b03d86e4b01999942ebd90027019e8a
:100ba4002b00303b0193e36c0493019b092b33d856
:100bb400684b9f4213d802d1674b9e420fd8002343
:100bc4000a223000390003f055ff019b02930023f1
:100bd4000393029bdb434a1c46d1984244d95b4ba6
:100be400009a5b5d934217d2e36be26c934200d3ad
:100bf4001de15a1ce2631878544b009a1b5c934223
:100c0400f2d3109e119f22224f4b1a600123109a97
:100c1400134201d000230893e36c002b02d0e36b52
:100c2400013be363119bbb4200d911e103d1109b4b
:100c3400b34200d90ce10123109a134200d0fae028
:100c4400089b002b00d0f6e0222201267642f717fb
:100c54003d4b1a60109b119cf618674156e7200023
:100c640002f087fb050090e7e36b049a029e039f62
:100c740036184f41934203d25a1ce2631d788fe722
:100c8400200002f076fb05008ae708230093009b0e
:100c94005e1e3340019300d0c1e0009a17335343e2
:100ca4002e4a1b065b0fd35c0293284b009a5b5db4
:100cb400e16c9a4203d92a4a019890422dd9029aaa
:100cc40001204042c11704f0effd0027019e099066
:100cd40004911e4b5b5d0193e36c019a0693009ba8
:100ce400934200d87be7049b9f4200d977e703d166
:100cf400099b9e4200d972e7029a3000390004f041
:100d0400dffd019b069a03431e00e36b0f00934231
:100d140014d25a1ce2631d78dbe7019e029a9640c6
:100d24001e43e36b01968b4203d25a1ce2631d7887
:100d3400bbe7200002f01dfb0500b6e7200002f02f
:100d440018fb0500c5e7c046800b0020de28000024
:100d5400989999199999991999999999d428000068
:100d6400ffffff07019e009a5643f3180193e36bbc
:100d74008b424fd25a1ce2631d783e4b009a5b5d56
:100d8400e16c9a4203d93c4a01989042ead900277f
:100d9400019e384b5b5d0193e36c019a0293009bc7
:100da400934200d81be7002f17d01a00002330000d
:100db400190003f05ffe002309913a00190000981e
:100dc40003f058fe099b069300230793069a079b9a
:100dd40080185941002900d001e73b0032000098f7
:100de400002103f047fe019b049300230593049b19
:100df400db434a1c02d1984200d9f0e6049e059fc9
:100e0400e36b029a36184f4193420bd25a1ce263a9
:100e14001d78bee7200002f0acfa0500ade7002320
:100e24000193aae7200002f0a4fa0500b1e720002c
:100e340002f09ffae0e6119b9f4203d808d1109b71
:100e44009e4205d9109e119f22220c4b1a605de62a
:100e5400089b013300d059e633003c0000275e4272
:100e6400a74153e6019b00260027002b00d04de646
:100e74005ce6c046de280000c6711c07800b00201b
:020000040000fa
:100e84000023f0b506001500afb005910193059954
:100e94000b78002b00d10fe101235b420a930eabc8
:100ea40000240c93802309940b940d930b5d002b69
:100eb40001d0252b2ad1002c06d02200300004f0ca
:100ec40007fa059b1b190593059b1a78252a00d060
:100ed400e7e0013302930593022310219c4608277f
:100ee400059803782b2b1bd025d8202b1bd0232b24
:100ef4001dd02a2b2ad004f0c3f80b90059b1a7836
:100f0400303a092a33d801330593f7e70134cde7a2
:100f14000122099b80180393134309930590dfe78b
:100f24000423099a0ee0099b03933b430be0099bbe
:100f340003930b4307e02d2bead0302bd9d1624623
:100f4400099b0393134309930130e7e72b680130ae
:100f54001a1d1b6805902a600b93002b07da099a67
:100f64005b420392012203990b934a400992099b25
:100f7400da0702d5022293430993059b1a782e2a95
:100f84000ed10022581c0a9205905a782a2a28d198
:100f9400023305932b681a1d1b682a6003930a9376
:100fa40005a804f0e5f9059b0700187804f0ecfdaa
:100fb400692800d183e035dc632800d1d6e01bdc4e
:100fc400252800d1dfe0612859d0252306aa137013
:100fd400029b0593002309930b93013b0a9302336d
:100fe400b2e004f04df80a90059b1a78303a092ac9
:100ff400d6d801330593f7e7642860d06728e4dc8a
:101004002a00390006a804f0b4fa002800d1a9e0a7
:10101400059b09a95a1c05921b7806aa3000fff704
:1010240059f83de0702800d17de016dc6e2800d12f
:1010340091e06f28c9d12b000022390006a802f0e4
:1010440093fa002800d18de0059b06aa013309a973
:101054003000059302f0c7ff22e0752840d07828bd
:101064004fd07328b1d1802f00d07be0059b2a6834
:1010740001330593131d2b601268002364e02a00da
:10108400390006a804f075fa002800d16ae0059b2f
:1010940009a95a1c05921b7806aa3000fff778fab2
:1010a4002418019b1c19a34200dc74e04f223b4b23
:1010b4001a6001235b42019301982fb0f0bd2b000d
:1010c4000122390006a802f04ffa00284ad0059bf5
:1010d40006aa013309a93000059302f0f1f8dfe70d
:1010e4002b000022390006a802f03efa002839d06d
:1010f400059b06aa013309a93000059303f0bcfb44
:10110400cee72b000022390006a802f02dfa0028b1
:1011140028d0059b5a1c05921b7806aa09a9300001
:1011240001f0fff8bce72b000022f02106a802f032
:101134001bfa002816d0059b079a01330593069bda
:10114400134306d1164a163209a9300003f05efd96
:10115400a6e77823e1e7019b39001a1906a82b00ba
:1011640003f0baf8059b013305939ae7802ff9d170
:10117400059b013305932b681a1d1b682a6006aa78
:1011840013700123e0e7802fecd1059b06aa0133fd
:1011940005931070f5e7019479e6c046800b0020b2
:0411a40018580000d7
:020000040000fa
:1011a800f0b5c64600b584b00500b84b1c887f2c46
:1011b80012d8b74b1b78012b32d0002b1fd0022b33
:1011c80000d10be1032b00d157e1b14b03221a7078
:1011d80004b004bc9046f0bd022004f0fbf8ab4b11
:1011e80000221a80280004f01bfc002803d0a84b1a
:1011f80001221a70ece7a64b03221a70e8e7a34b0a
:1012080000221a80a24b01321a7004f009fc00284f
:10121800ded19e4a1388591c11809e4ad554d7e7bf
:1012280004f0fefb0028f4d0002cd1d0621c974bb0
:101238001a80984e35559848743004f0c1f90396d1
:1012480004f0e1fc071e0ed0944d0024e6b203aa78
:101258009049286803f000fd00280dd101340c35b1
:10126800e3b2bb42f2d301230193019804f0b2f830
:10127800874b00221a70abe763001c19a400874b48
:10128800e418874b1c60be42edd2864b00221a70d0
:10129800039c23783d2b26d0834b00221a80804b59
:1012a8001b681a7a002a76d07e4b1b78002b6bd0ed
:1012b800013b9b007d4a9858002203a904f0e6fbf5
:1012c80080b27b4b18808023db0098424ad8039b6e
:1012d8001b78002b51d17048703004f071f96c4bb9
:1012e80002221a7074e7607804f09afb051ed3d1c5
:1012f8000134704b1b1bdfb26c4b1c60002fb2d04b
:10130800002398460194207804f0c4f80600207061
:1013180004f086fb00280bd12c2e13d00135edb23a
:10132800af42a0d001345f4b1b780e2bead99ae765
:10133800002d98d00023019a13705a4a137801336c
:101348001370a9e7002d8ed0019b42461a70554ba9
:101358001b780133dbb2534a13709b00621c53495c
:101368005a50dbe7524b8022d2001a80042004f046
:1013780031f8474b00221a702ae7042004f02af8b3
:10138800434b00221a7023e7012004f023f8404b56
:1013980000221a701ce7444c424a10785d6823000a
:1013a800454a4249a84701902388002b00d15ce7b1
:1013b800424b1b68002b00d157e700243e4d3f4f9e
:1013c800394e285d3b6898470134a4b23388a3425c
:1013d800f7d83148743004f0f3f846e7324b1c88ec
:1013e800002c0ed104f01cfb002800d0f0e6304b96
:1013f8001b88002b3ad0621c2b4b1a802e4b1d5594
:10140800e6e62b4b1b88a342f5d804f009fb00281d
:101418002cd02148743004f0d3f8234c214b187891
:101428001f4b1b685d682300234a2049a847019089
:101438002388002b0fd0214b1b68002b0bd00024d6
:101448001d4d1e4f184e285d3b6898470134a4b2c5
:101458003388a342f7d81048743004f0b1f80198e3
:1014680003f0b8ff0a4b00221a70b1e6042003f01b
:10147800b1ff074b03221a70aae604f0d1fa00283c
:1014880000d1a5e6024b00221a70a1e60600002052
:10149800900400200c000020d43b0000a82c000081
:1014a8000000002008000020040000209404002010
:1014b8008c0000208b00002090000020700b002082
:020000040000fa
:1014c80003460b437fd4002243088b4274d303099d
:1014d8008b425fd3030a8b4244d3030b8b4228d33e
:1014e800030c8b420dd3ff22090212ba030c8b4264
:1014f80002d31212090265d0030b8b4219d300e004
:10150800090ac30b8b4201d3cb03c01a5241830b88
:101518008b4201d38b03c01a5241430b8b4201d338
:101528004b03c01a5241030b8b4201d30b03c01a61
:101538005241c30a8b4201d3cb02c01a5241830adb
:101548008b4201d38b02c01a5241430a8b4201d30a
:101558004b02c01a5241030a8b4201d30b02c01a34
:101568005241cdd2c3098b4201d3cb01c01a52419b
:1015780083098b4201d38b01c01a524143098b4224
:1015880001d34b01c01a524103098b4201d30b010d
:10159800c01a5241c3088b4201d3cb00c01a524132
:1015a80083088b4201d38b00c01a524143088b42f7
:1015b80001d34b00c01a5241411a00d20146524190
:1015c800104670475de0ca0f00d04942031000d3af
:1015d8004042534000229c4603098b422dd3030a04
:1015e8008b4212d3fc22890112ba030a8b420cd314
:1015f800890192118b4208d3890192118b4204d33d
:1016080089013ad0921100e08909c3098b4201d3bc
:10161800cb01c01a524183098b4201d38b01c01af6
:10162800524143098b4201d34b01c01a524103096d
:101638008b4201d30b01c01a5241c3088b4201d31c
:10164800cb00c01a524183088b4201d38b00c01ac9
:101658005241d9d243088b4201d34b00c01a5241a0
:10166800411a00d20146634652415b10104601d32d
:101678004042002b00d54942704763465b1000d3b7
:10168800404201b5002004f0c7fa02bd0029f8d095
:0416980016e770479a
:020000040000fa
:10169c00f0b40125ed070f005f405ad48b4200d106
:1016ac00824205d950404240504059404b4059402d
:1016bc004e18760ddf187f0d3bd0741c640529d0b5
:1016cc00f41b352c26d80e0ddb022b43db0ac9028a
:1016dc002943c9121700202c1ed2e741e240574083
:1016ec00e3415a40a340e3405a400024801859413a
:1016fc000ad3b21c520521d0c207012f6241170038
:10170c004008cb0718434908013636054208af415b
:10171c0060417141f0bc7047203c06d01f00e7418e
:10172c00e3405f400024012a6741c0186141ebd3bc
:10173c00dfe7002eeed129400020ebe70136310522
:10174c000020e7e7e742e5d10020c143090dc904b9
:10175c00e0e76b400e00871a9e4104d26e40c01b1e
:10176c00b141d21973414e18df18ac0ae642e9d2e6
:10177c00760d7f0d31d0f41b362ccbd8b4460e0d24
:10178c00db022b43db0ac9022943c90a012c32d8dc
:10179c0004d1d4075208df073a435b08ef0a6442ce
:1017ac00904199411ed0002239424dd1241940411b
:1017bc0049410124394204d10134001849413942cc
:1017cc00fad06246a24204d9361b013e360589196d
:1017dc00a0e7f10ac90700209ce736429ad1002005
:1017ec00002197e70200224394d0b842ded20100d8
:1017fc0020002024e3d1202c13dd203ce2411700f3
:10180c00a240e2405740e3415a40a340e3405a40d3
:10181c00012fbf410137174300227c42984191416f
:10182c000ce01700e741e2405740e3415a40a34027
:10183c00e3405a407c429041994100220f0303d26d
:10184c00013e241940414941013e36054708ac414f
:08185c0050417141f0bc7047de
:020000040000fa
:10186400200b00201c00000000000000700b002072
:10187400040000000000000000000020d404000068
:1018840000000000400a00203000000001000000b9
:10189400000300006a000000a086010000000000b0
:1018a4000000000000000000000000000000000034
:1018b40000000000dc05000014000000540b0020b0
:1018c4003c0b002018000000010000009c0a0020ce
:1018d4000000000000000000000000000000000004
:1018e400000000009c0a0020240000000100000009
:1018f400135c0000175c00007d3f0000e92100003c
:10190400c12b0000a94300000d4400001b5c000033
:1019140000000000540b002014000000010000002f
:10192400655200000d53000019560000fd5a0000d6
:10193400a1260000740b0020040000000000000039
:10194400d40400204400000000000000c00a00206d
:101954002000000000000000e00a00202000000039
:101964000000000018050020200000000000000016
:10197400700a00202c000000000000007009002004
:10198400800000000000000070050020000400003a
:1019940000000000380500203800000000000000ae
:1019a400780b00200400000000000000f009002073
:1019b4005000000000000000000b00202000000088
:1019c400010000000100000003000000000000000e
:1019d4000000000000000000000000000000000003
:1019e400680b0020680b00200800000000000000c5
:1019f4007c0b00200400000000000000800b00208d
:101a040004000000000000000000000000000000ce
:020000040000fa
:101a1400f0b557464e464546de46e0b5040083b071
:101a24000d00924699468b4230d82dd049465046f7
:101a340003f052ff29000600200003f04dff331a83
:101a44009846203b9b4633d45a46534693404246dd
:101a54001f00534693401e00af423ad8af4200d114
:101a64007be05b46a41bbd41002b00da78e000223a
:101a740000230092019301235a46934001930123ca
:101a840042469340009328e08242cfd900220023ab
:101a9400009201930c9b002b01d01c605d600098a8
:101aa400019903b03cbc90469946a246ab46f0bdb2
:101ab400424620239b1a5246da40414613004a46c6
:101ac4008a40170042461f43534693401e00af42cc
:101ad400c4d900220023009201934346002bd9d09d
:101ae400fb079c46614672080a437b0846460ee0a3
:101af400ab4201d1a2420cd8a41a9d410120241961
:101b04006d410021013e24184d41002e06d0ab4208
:101b1400eed9013e24196d41002ef8d100980199a7
:101b24005b4600196941002b25db2b005a464446cd
:101b3400d3402a00e2401c005b461500002b2bdb3f
:101b440026005f46be40330026004746be403200b2
:101b5400801a9941009001919ce7a342b9d880e78b
:101b64004246202300219b1a002200910192012267
:101b7400da40019283e7424620239b1a2a00464614
:101b84009a402300f340444613432a00e2401c00d9
:101b94005b461500002bd3da2023424626009b1a0d
:101ba400de402f00b4464646b74066463b0033430a
:041bb400cae7c04676
:020000040000fa
:101bb80010b5654b9b7d002b17d0634b5b8b9b0748
:101bc80014d5624b2022ff2199540132fd399954d2
:101bd8005e4a2023d35c5bb2013300d183e05b4ac9
:101be8002023d35c062b00d195e010bd564b5b8bb0
:101bf800db0707d5554b2022ff2199540132fd39c7
:101c08009954e5e7504b5b8b5b0707d54f4b202278
:101c1800ff2199540132fe399954d9e74b4a2023c0
:101c2800d35c5bb2032b40d0042b0fd0022bcfd157
:101c38001369002b04d09088002102f0c5fec7e785
:101c4800424b9888012102f0bffec1e73f4a9369e1
:101c58001269934208d03d4a9168581c9061c95c4a
:101c6800394a2823d154b3e7384b5b69002b0ed08f
:101c7800364b9b885b0001221343334a5362d36976
:101c8800002bfcd1314a20330321d154a0e72e4a3e
:101c98005168c0239b020b435360d369002bfcd1ce
:101ca8002a4a20330621d15492e7284a5369013b36
:101cb800d2699a4209d0254bd968da69501cd86193
:101cc80021482823c35c8b5482e71f4a5168e023cc
:101cd800db020b435360d369002bfcd11b4a203332
:101ce8000621d154e7e720230021d154164a516830
:101cf800c0239b020b435360d369002bfcd1124bca
:101d080083221a76114b5b6a002b00d16de70f4acc
:101d1800906a984769e71300002220215a5401313c
:101d28005a54094b83321a761900533a4b8b134095
:101d3800102bfbd1054b5b6a002b00d155e7034afa
:101d4800906a984751e7c04600100042700a002088
:020000040000fa
:101d580008d1002806d1f54204d801d3002a01d1c0
:101d68006d0d09d10020c143090dc904f0bdf9d199
:101d78001242f7d1640df5d00020c1434905490846
:101d8800a6e000206146f0bdf0b50127ff070e0070
:101d98005e403e40b446be0a4c18dd18f442d7d225
:101da800f542e4d2640decd06d0dead06419c90295
:101db8003943460dc0023143db023b43db0a10b412
:101dc8008e4685b297b26f43140c6c433e0ca4192f
:101dd800260c2404bfb227439cb26c43a419190ce7
:101de8006943250ca4b249190d04090c6419000ca7
:101df80095b245433e0c76193743bfb2360c150ce5
:101e08004543ad19a6b2240cad192e0437432e0c48
:101e180036199db24543ad19acb22e0c89191d0c6b
:101e280045436d182e04290c3443704680b295b290
:101e380045433e0c76193743bfb2360c150c454363
:101e4800ad19a6b2ad19240c2e0437432e0c361941
:101e58009db24543ad19acb22e0c89191d0c4543f2
:101e68006d182e043443290c75462d0c90b2684326
:101e78003e0c80190604bfb23e43070ca0b23f18bf
:101e8800120c6a43d019020c80b2240ca4189ab21e
:101e98006a43121914042043120c89181b0c6b4353
:101ea800c91810bc01273d05294203d1b619404184
:101eb8004941013cff077d0d013d641b0bdb6d00b3
:101ec800ac4209da240500254208be416841614157
:0a1ed80066463143f0bd54e74ee7c3
:020000040000fa
:021ee200704747
:020000040000fa
:101ee40070b55c4b9b7d002b15d05a4b9b7ddb075b
:101ef40003d5584b1b7edb070ed4564b9b7d5b07eb
:101f040003d5544b1b7e5b073cd4524b9b7d5bb289
:101f1400002b00da80e070bd4f4b9a68db689a4270
:101f240000d192e04c4bda68511cd9604b498a5c71
:101f3400d9684b4b994202d9474b0021d96092b2e0
:101f4400444b1a85444b1b7c002bd6d003f0dcfd9c
:101f5400414b1b68002bd0d03f4a127e002a08d088
:101f64003d4a52699042c8d33b4a5168032098477e
:101f7400c3e7394a52699042bfd1374a51680320b6
:101f84009847bae7334b1c8da4b2334b5b6a0133d9
:101f940000227f2199425241524213402e4a926ab2
:101fa4009a421ed02c4a926a9a42aed02a4a516a68
:101fb4002c48445453622c23d35c002ba5d003f04b
:101fc4005bfc254bdb69002b9fd0234934228a5cc0
:101fd400002a17d00a6b904297d3096a00209847c9
:101fe40093e71d4ad269002adcd01b4d296a0120df
:101ff40090476b6a013300227f2199425241524239
:102004001340cfe7144a126b904200d07de7124a86
:10201400116a0020984778e70e4b1b7e5bb2002bb9
:1020240000db78e70b4b5b8b5b0700d173e7094b55
:1020340080221a75084bdb69002b03d0064a116a0b
:102044000220984703f048fb65e7024b01221a750a
:1020540078e7c046001400423805002070050020cf
:08206400ff03000070090020d9
:020000040000fa
:10206c00f0b5de4657464e464546e0b58bb0069079
:10207c000f0005921c0000230993022919d81dd0ca
:10208c00159b002b00d192e0149b002b1ed0159bae
:10209c00234303221a4090461dd0e220fff71bff7a
:1020ac00079007980bb03cbc90469946a246ab46ad
:1020bc00f0bde220fff70fff0790f2e7059b0f2b17
:1020cc00ded9e220fff707ff0790eae7e220fff7ef
:1020dc0002ff0790e5e709ab059a3900069800f076
:1020ec004ffe079000280fd1159b1b19099a93429c
:1020fc000dd86509e406640f464604239a4600236e
:10210c009b46b946159f27e0fff7e5fec9e7e2209d
:10211c00fff7e1fe0790c4e78146fff7dcfe4b4674
:10212c000793bee74b46002b01d1022d30d0ebb20a
:10213c0052460292149a92190192e2b20092059ab6
:10214c004946069801f006fc002826d104360134d5
:10215c00082c29d0be42a4d2002ce3d1bb1b1f2bd0
:10216c00e0d94b46002b01d1022d23d0ebb220221b
:10217c000292149a921901925a460092059a494673
:10218c00069801f0e7fb0028c6d120360135e1e7bf
:10219c00052cccd104360624dce781464846fff7f3
:1021ac009afe4b4607937ce701354446d2e7002361
:1021bc00079376e7ebb252460292149a9219019267
:1021cc00e2b20092059a4946069801f0c3fb00283a
:0c21dc0002d104360134bde78146dfe784
:020000040000fa
:1021e800f0b5d6464f464646c0b584b001901400b7
:1021f80002929a4602abd97103f0f2fc061e56d041
:102208005346002b53d0002c51d0c76a002f53d00f
:102218001b889946002352461380836a5a1e9046ab
:10222800002b55dd02abdd1d297800232a0001981b
:1022380001f0a0fe04004346013b984641d3002824
:10224800f2d130794008022202993b689847002869
:1022580040d00222b168380002f004fe041e3ad1d0
:10226800fb689847f034002835d17378102b3fd09d
:10227800029b1d7804234d4542d89bb2ab4244d8fb
:10228800aa1e02990231307940083b689847002815
:1022980040d0aa1e92b2b168380002f0e3fd0028cf
:1022a80039d1fb689847041e19d0f02033e0e220aa
:1022b800fff713fe040014e0e220fff70efe04000f
:1022c8000fe00028bdd02000fff707fe022506e03a
:1022d800f024f8e7f0242000fff7fffd022553461d
:1022e8001d80200004b01cbc90469946a246f0bd53
:1022f800029a13781b025578ed18adb20523bae798
:10230800ed20fff7eafd0400e9e7e620fff7e5fd29
:0e2318000400e4e7f020fff7e0fd0400dfe73b
:020000040000fa
:10232600f0b58fb00d934b680c9008938b680d0039
:102336000993cb6816000393089b0f68002b60db9c
:1023460002239f4310233b400a9333680593736827
:102356000693099b04930a9b002b06d0059b069abd
:10236600134302d0099b023b049308233b400b9383
:102376005a1e9341049ad31a04932b69039a5c1e3e
:1023860000231355089b0793012c10dd059b069a25
:10239600134339d1079b002b36dc089a049b9b1a02
:1023a600079a9b18002b02dd02231f422cd10a9ba1
:1023b600002b0bd00cce134308d0039b0d9a1b1990
:1023c600013b1a703023039a023c13550b9b002bda
:1023d60003d02023039a013c13552b6900975a1efc
:1023e600039b121b19190c98099b01f068fc0c9ba6
:1023f6005b68db0503d56b68984200da18000fb0fe
:10240600f0bd012308939de70f22059b013c134075
:1024160018005730092b01dc303318000d9b413b67
:10242600192b06d820230343613b192b01d803f04f
:10243600b1fb039b1855079b013b0793069b1a07a5
:10244600059b1b091a43069b05921b0906939be7ee
:020000040000fa
:10245600f0b5de4657464e46c0b592b00790049199
:1024660006929b460023119302291ed8049b022b39
:1024760020d01b9b002b75d01a9b002b22d011abb2
:10248600069a0499079800f07efc059000281ed154
:102496001b9b5b44119a93421cd85b465b09202721
:1024a60000240025a1461c0040e0e220fff716fdaf
:1024b600059059e0069b0f2bdbd9e220fff70efdb6
:1024c600059051e0e220fff709fd05904ce0fff78b
:1024d60005fd49e0e220fff701fd059044e06301b8
:1024e600119ad31a1f2b23d85b465b199b08072228
:1024f6001a4091461c3f1be0fff7f0fc34e07b1ac4
:102506001b9a561b9e4200d91e001a9b581909abee
:102516009c466144320003f0c3faad19202f1fd048
:1025260001239c46e1441b9bab421dd9202fd6d0ec
:10253600e3b2029709aa01924a46d2b20092069adb
:102546000499079800f069ff05900028d4d1e300ac
:102556004b449b0000219b45d1d95a46d11acee760
:102566000134e0e700230593059812b01cbc9146a0
:062576009a46a346f0bde9
:020000040000fa
:10257c004d432b41424f5554000000004d432b421c
:10258c004c4f4254455354004d432b50494e470039
:10259c004d432b4543432b414444522b524541441c
:1025ac00000000004d432b4543432b414444522b28
:1025bc0057524954450000004d432b4543432b478c
:1025cc00454e5055424b4559000000004d432b459c
:1025dc0043432b4c4f434b004d432b4543432b4f15
:1025ec0054502b52454144004d432b4543432b52f1
:1025fc00454144004d432b4543432b5055424b45dd
:10260c00592b5245414400004d432b4543432b531a
:10261c00455249414c0000004d432b4543432b533d
:10262c0049474e4449474553540000004d432b4500
:10263c0043432b5752495445424c4f420000000033
:10264c004d432b4543432b5055424b45592b575229
:10265c00495445004d432b4745544c45440000001c
:10266c004d432b4c495354434f4d4d414e44530015
:10267c004d432b5245534554000000004d432b5302
:10268c0045544c45440000004d432b56455253498c
:04269c004f4e00009d
:020000040000fa
:1026a000f8b500284ad00468002900d13a496300ef
:1026b000994245d3394b9c4244d8080003f062f854
:1026c000051c200003f05ef8011c281c00f0eaff46
:1026d00002f036fc06000f00281c02f031fc304ae4
:1026e000304bfff755fb00222f4bfef7d7ff0200c0
:1026f0000b003000390003f011fa02f0b7fe0500bc
:102700002a4b9c4209d8ff235b00ff209d421cd826
:10271000fe38012d19d9680817e07e23ff3398424f
:1027200012d8032836d94000032100f049f80602e8
:102730000321280000f044f8304306e0002028e0a0
:10274000002026e0002024e019481849a1428941d0
:102750004942184a13680224a3431360d369002b2b
:10276000fcd1144bd8601a68134802400906114383
:1027700019601a6802210a431a601a00d369002bf3
:10278000fcd10c4b10225a831a00d369002bfcd1c8
:102790000120f8bd0948d8e7006cdc0240420f0078
:1027a00048afbc9af2d77a3e00002440801a060057
:1027b0007fff000000100042fffffffc010200004d
:020000040000fa
:1027c000002243088b4274d303098b425fd3030a70
:1027d0008b4244d3030b8b4228d3030c8b420dd383
:1027e000ff22090212ba030c8b4202d31212090211
:1027f00065d0030b8b4219d300e0090ac30b8b424f
:1028000001d3cb03c01a5241830b8b4201d38b03fc
:10281000c01a5241430b8b4201d34b03c01a5241a1
:10282000030b8b4201d30b03c01a5241c30a8b42e4
:1028300001d3cb02c01a5241830a8b4201d38b02cf
:10284000c01a5241430a8b4201d34b02c01a524173
:10285000030a8b4201d30b02c01a5241cdd2c309e5
:102860008b4201d3cb01c01a524183098b4201d361
:102870008b01c01a524143098b4201d34b01c01a4c
:10288000524103098b4201d30b01c01a5241c308c4
:102890008b4201d3cb00c01a524183088b4201d333
:1028a0008b00c01a524143088b4201d34b00c01a1f
:1028b0005241411a00d20146524110467047ffe78b
:1028c00001b5002003f0acf902bdc0460029f7d0e5
:0428d00076e77047f0
:020000040000fa
:1028d400000102040703060500ffffffffffffffdf
:1028e400fffffffffffffffffffffffffffffffff4
:1028f400ffffffffffffffffffffffffffffffffe4
:10290400ffffffffffffffffffff000102030405be
:1029140006070809ffffffffffffff0a0b0c0d0e60
:102924000f101112131415161718191a1b1c1d1e3b
:102934001f20212223ffffffffffff0a0b0c0d0eb8
:102944000f101112131415161718191a1b1c1d1e1b
:102954001f20212223ffffffffffffffffffffffd9
:10296400ffffffffffffffffffffffffffffffff73
:10297400ffffffffffffffffffffffffffffffff63
:10298400ffffffffffffffffffffffffffffffff53
:10299400ffffffffffffffffffffffffffffffff43
:1029a400ffffffffffffffffffffffffffffffff33
:1029b400ffffffffffffffffffffffffffffffff23
:1029c400ffffffffffffffffffffffffffffffff13
:0a29d400ffffffffffffffffffff03
:020000040000fa
:0229de00704740
:020000040000fa
:1029e0002e4a136a2e490b4002210b43136208231f
:1029f000d1680b42fcd02b4b5b689b02fe22d203ba
:102a0000134006221343254a93610423d1680b42e5
:102a1000fcd0224a938c80218b4393841023d1686d
:102a20000b42fcd0204b1a68920e3f2a34d01f4b29
:102a30001b689b059b0d92021343184a9362022365
:102a400093840e33d1680b42fcd0194b194a5a605b
:102a5000194a9a601a0053785bb2002bfbdb144bc7
:102a6000164a5a60164a9a601a0053785bb2002bd5
:102a7000fbdb0f4b134a5a601a0053785bb2002bf2
:102a8000fbdb0b4b104a5a80104a5a80104b1f2216
:102a90009a61d1321a627047203ac8e700080040b4
:102aa0000000ffcf2060800024608000286080004c
:102ab000000c00400104010001200000020601009a
:102ac0000208000000070100164000001740000047
:042ad00000040040be
:020000040000fa
:102ad400f0b587b006000f00100003921d0000231c
:102ae4000e2202a98c466244138005aa1380290091
:102af40002f09efe002852d0731e012b53d8002fe3
:102b040055d00e2102ab9c466144386802f057fe52
:102b1400041e49d1012e25d9786805a902f066fd65
:102b240000281dd005ab1b88002b42d000222a8030
:102b3400039ad7180e2202a98c46624412881e49b1
:102b440008680193009700230221fff782fc002804
:102b54001dd000232b80802464000443a4b21fe012
:102b6400053421e00e2302aa944663441a88124bca
:102b7400186804ab022100f007f905ab049a1a8027
:102b84000028cfd0802464000443a4b20ce005ab39
:102b94001888039a390001f0fdfc288000e0052420
:102ba400200007b0f0bd032400232b80f8e70524a0
:0c2bb400fae70524f8e7c046740b002087
:020000040000fa
:102bc000f0b5c64600b584b0019003f00df80500dd
:102bd0000023039303ab01221a70002826d0c66a93
:102be000002e2cd0876a836898462e4b984505d0d6
:102bf0001900019802f0e0fa041e1bd11e22a968f8
:102c0000300002f033f9041e14d1012203a9002080
:102c10007368984701222349300002f027f9041e07
:102c200008d1a88c02f05afff0340fe0e220fff741
:102c300058f90400200004b004bc9046f0bde22026
:102c4000fff74ff90400f5e70400013f002f16dd00
:102c5000f02c14d128794008042203a9336898473e
:102c60000028f2d004220f49300002f0fff80028bb
:102c7000ead1f36898470028e7d10400e5e7002c83
:102c8000d8d1084b984505d1042103a802f0caf811
:102c90000400cfe74146019802f08efa041ec9d124
:082ca000f2e7c046a086010026
:020000040000fa
:102ca8007c250000214b0000000000008825000062
:102cb800075c00000100000094250000a1550000f9
:102cc800000000009c250000c54f00000000000027
:102cd800b0250000b54e000000000000c42500002b
:102ce800dd3a000000000000d8250000293e000061
:102cf80000000000e4250000552e00000000000040
:102d0800f4250000d52a000000000000002600007d
:102d1800b53d00000000000014260000254a000010
:102d280000000000242600000d3f00000100000004
:102d38003826000059310000010000004c26000030
:102d48004d3c00000100000060260000154700000f
:102d5800000000006c260000b946000000000000da
:102d68007c260000e15700000000000088260000d3
:102d7800cd4700000000000094260000e138000064
:042d88000000000047
:020000040000fa
:102d8c0010b5002810d0002b0ed040684068407859
:102d9c00002817d101290fd0002909d002290ed003
:102dac00e220fff798f802e0e220fff794f810bd5c
:102dbc0058221a600800fae740221a60f7e720222e
:102dcc001a60f4e7042809d0012921d000291bd06e
:102ddc00022921d0e220fff77ef8e8e701290bd089
:102dec00002905d002290bd0e220fff774f8dee7aa
:102dfc0058221a600800dae700221a600020d6e791
:102e0c0020221a600020d2e780221a600800cee748
:102e1c0040221a600020cae7072a03d824221a602d
:102e2c000020c4e7082a05d00f2a08d848221a60c7
:102e3c000020bce79932ff321a600020b7e7e2208d
:062e4c00fff749f8b3e7af
:020000040000fa
:022e52007047c7
:020000040000fa
:102e5400f0b585b006000f0015001c000e236b446e
:102e640000221a802100280002f0e2fc002844d04d
:102e7400012e45d8002f47d0002e22d038680e21cd
:102e8400694402f0b3fb002819d00e236b441b885d
:102e9400002b3bd000222280ee181d4a10680193bb
:102ea4000096002300220121fff7d3fa00281ad04c
:102eb400002323800133ff33184380b21ee0053022
:102ec4001fe0134b186802ab00220121fff75cffdf
:102ed4000e236b44029a1a800028d6d080235b000c
:102ee400184380b20de00e236b4418882a00310089
:102ef40001f050fb2080002000e0052005b0f0bd6b
:102f0400032000232380f9e70520fae70520f8e7ea
:042f1400740b00201a
:020000040000fa
:102f1800f0b40125ed070c005c402c40a446ae0a35
:102f28004c18df18f4423dd2f74245d2640d4cd01c
:102f38007f0d3cd0e41bc9022943cf0adb022b4397
:102f4800db0a0600b61a9f4104d2013cb6197f413c
:102f5800b6185f416812800d241838dd00188442c5
:102f680025d8e80c0021b6197f41b61a9f4103d332
:102f780040414941f7d304e0b6185f410018494180
:102f8800f1d32405b6197f41b61a9f4105d33743bb
:102f9800c20717430022012f504161416246114385
:102fa800f0bc70470cd100280ad1f74208d20020a3
:102fb800c143490d0905f1e7002a01d1f74206d0be
:102fc8000020c143090dc904eae77f0df8d00020ad
:042fd8006146e5e782
:020000040000fa
:102fdc00f0b58db006000d00171e13d00b00083b8a
:102fec009bb2072b13d82023029304ab019300232d
:102ffc0000930a00022100f00dfa041e0ed0fef719
:10300c006aff08e0e220fef766ff040003e0e2201e
:10301c00fef761ff040020000db0f0bd1c2205a9d5
:10302c00380002f03afd2023029304ab01930023f5
:10303c00009301332a000221300000f0ebf9041e4a
:10304c0002d0fef748ffe6e738001c3004ac04223f
:10305c00210002f022fd38002030182206a902f0cf
:10306c001cfd2023029301940023009302332a00b9
:10307c000221300000f0cef9041e02d0fef72bff27
:10308c00c9e738003830082204a902f006fdc2e76f
:020000040000fa
:10309c00434f4d4d414e4448414e444c4552000027
:1030ac00312e332e3000000025730d0a0000000075
:1030bc004649524d5741524500000000312e312ee9
:1030cc003000000043727970746f4175746820543d
:1030dc007275737420506c6174666f726d207072af
:1030ec006f766973696f6e696e67204657000000d2
:1030fc0025730d0a46572025730d0a2573436f6df2
:10310c006d616e642068616e646c65722025730d50
:10311c000a666f72207468652025730d0a00000022
:10312c0043727970746f417574682054727573743e
:10313c0020506c6174666f726d0000004d432b5013
:0c314c004f4e473d257300000d0a0000a7
:020000040000fa
:10315800f0b585b004000f0016001d0000230e22f4
:103168006a44138003aa13802900300002f05efb32
:10317800002838d0032c3ad1002f3cd00e216944c6
:10318800386802f01afb041e32d1786803a902f0ed
:103198002bfa002831d003ab1b88002b2fd02888ae
:1031a800002802d05b00984203d000232b8005241e
:1031b8001ae03200310001f075fd00232b800e3338
:1031c8006b441a880f4b186803ab1b880193009651
:1031d80000230221fef746ff002805d08024640062
:1031e8000443a4b200e00524200005b0f0bd032488
:1031f80000232b80f8e70524fae70524f8e70524df
:08320800f6e7c046740b00203c
:020000040000fa
:103210004b005b0d264af0b55c1e944238d8254a17
:103220009e1825d4332e22dc234a9b1827d4234a08
:10323000da400700214b9743f3403c000f00024067
:103240009f4319403d000a430fd0002f0dda202381
:103250005b42f11824d480204003c8400200802142
:103260004903f1400b00a4185d4120002900f0bd86
:103270000020002901db0021f9e71149f7e72022ae
:103280000e4b921b934001225242f2401a43d0e768
:10329000002becd10022c90fcb0710001900e6e784
:1032a00020218020891b400388400200d7e7c046c8
:1032b000fd07000001fcffffe1fbffffffff0f0028
:0432c0000000f0bf5b
:020000040000fa
:1032c400f0b54b6889b005930b6807009c460793db
:1032d400cb680c008e68049310685168cd0f44d0fd
:1032e4000b000200002150429941059b002b08db92
:1032f4000222634693430793002d02d1079b5a078a
:103304002ad5731e07aa02920a22009301920b0087
:103314000200200000f062fb002d02d1079b5a0737
:103324001ed501382d23002d00d1023b049a1354dd
:1033340023695a1e049b121a1918079b380000931c
:10334400330000f0bdfc7b68db0503d5636898425d
:1033540000da180009b0f0bd1b07db0ff31ad1e740
:103364001b07e5d501382023e0e7059b002bbfdad6
:02337400c4e7ac
:020000040000fa
:10337600026df0b51100436d85b0040019430cd001
:10338600c16d994209db02d1836d934205d30023b7
:103396000120e364404205b0f0bd200002f075f95b
:1033a6000028f4db226d636d00920193019a216c73
:1033b600009be56b13430a00002b19d0a26de36d49
:1033c60002920393029e039f009a019b921bbb41ac
:1033d6001f004b1b16001a00db179c4667451adcbc
:1033e60001d1964217d8009b029a013b9a1aaa1855
:1033f600e264002909d0a66de76d491b01310a0078
:10340600cb1792197b41a265e3656b1e1a7882423f
:0a341600c1d01870bfe70a00eae712
:020000040000fa
:10342000f0b5b7b006000d0011001a003cab1b78d8
:103430003ea80778002e12d03d9800280fd0042f08
:103440002cd0202f12d10e2068440090280001f0cb
:1034500055fd041e0fd02000fef743fd03e0e220df
:10346000fef73ffd0400200037b0f0bde220fef77c
:1034700038fd0400f7e780231d4317e0310004a85e
:1034800000f022f8041e02d0fef72bfdebe73a0015
:10349000172169443d9802f006fbe4e70e206844da
:1034a0000090280001f02afd041ed4d104a9cd709b
:1034b0000e236b441b888b80306802f050fa041e88
:0834c000dcd0fef70efdcee7a3
:020000040000fa
:1034c800f0b585b005000f00486802f03bf8041e0f
:1034d8000ed17868436819784b1e99414b42fc21fc
:1034e800194003316b782a0002f0acf9041e05d0ac
:1034f800786802f001f9200005b0f0bd012002f063
:1035080067fa174eab1d0193c0252a000021019cc4
:10351800200002f007fb02abdd8006332200002109
:10352800786802f09bf9041e10d0022002f050facd
:10353800013e002ee9d1dbe7019801f0dffd041e12
:10354800d6d1019800f0bafd0400d1e702abdc88bf
:10355800032cf1d860426041e6300400c8e7c04659
:04356800e304000078
:020000040000fa
:10356c0030b5882933d015dc812941d003dc802982
:10357c003ed0002030bd822911d08429f9d11c689d
:10358c0002cc1c60002a1ed009b20160c917416030
:10359c000120efe7a02923d00adc9029e9d10724e8
:1035ac0019680731a14330c9196004604560efe721
:1035bc00c02901d0f029dcd11a68111d19601368db
:1035cc000360002312e089b201604260e0e71c68ee
:1035dc0002cc1c60002a01d049b2d6e7c9b2f3e78d
:1035ec001a68111d196013680360db174360cfe77d
:1035fc0019680c1d1c600b680360002ae5d0f4e709
:020000040000fa
:10360c0030b5b3b0051e10d004686846c170828016
:10361c008a070fd5ca43920722d18a061ad54022af
:10362c001900063002f039fa09e0e220fef753fceb
:10363c0004000ce014221900063002f02efa694640
:10364c00200001f0ecfd041e0fd0fef744fc20001e
:10365c0033b030bd20221900063002f01efaeee71e
:10366c00e220fef738fc0400f1e729006846fff77a
:10367c0025ff041e0dd1369b002be8d06b469b79a1
:10368c00222be4d920226b46d91d369802f005fa7c
:08369c00dde7fef720fcdae790
:020000040000fa
:1036a40030b405004d400124e407254042004b009e
:1036b400120e26d01b0e34d0ff2a2dd0ff2b35d06e
:1036c400d21a000220430902214343084908a00ded
:1036d4005b1a02d2013a5b005b185b008b4200d399
:1036e4005b1a4041f9d37f3222ddff2a06d2d2058c
:1036f400c91a8b425041284330bc7047ff20c00593
:10370400f9e71b0e03d0ff2b12d1490210d07f2002
:1037140000010c300005efe74002f8d1ff2bedd19a
:10372400f5e7ff2aead14002f1d1e7e74902eed1f9
:043734002800e1e7a1
:020000040000fa
:10373800f0b5de4657464e464546e0b50b1e31d03d
:103748001c4b04221a751c4b9c6a5a6a002394422b
:1037580024d0194a0138194ca04692460024a146a3
:10376800144d0424a44616000ae06446ac75994238
:1037780018d004242c75b46aa346746aa3450ed0e5
:10378800946a671c9762013347463c5dc454946a47
:103798007f2cead954464f46a762e6e70023054a3c
:1037a8000421917518003cbc90469946a246ab4648
:1037b800f0bdc04600140042380500207009002002
:020000040000fa
:1037c800f0b5c6461f4a204b00b50021934203d2ec
:1037d800197001339342fbd10b231c4a9c46083bca
:1037e80098461368546819000026214311d0170021
:1037f80091680c3700290fd11a19002c03d01e70bc
:1038080001339342fbd13a001368546819002143ed
:10381800edd104bc9046f0bd6146c91a1d19511876
:10382800002c05d05a1c505c187013009542f9d131
:10383800434623405a1e9341a4081c19a4003f196b
:103848003a00e1e77005002000000020641800003d
:020000040000fa
:10385800f8b5de4657464e464546e0b584461a4b0f
:1038680001221a7500292dd00024184b9846184bb0
:103878009a460025c346464643469b6801332a00bc
:10388800504698426a41524213405a46d2689a4278
:103898000ad0b2686046005d81460e484f4687549c
:1038a800b3600134a142e7d101f058ff002802d0eb
:1038b800054b01229a7520003cbc90469946a246c9
:1038c800ab46f8bd0c00efe70014004238050020b5
:0838d800ff0300007005002051
:020000040000fa
:1038e000f8b504000f0015001e000320012c12d8ab
:1038f0001900100001f09eff00282cd0002c0bd1e5
:10390000164a1300103318328021c900280001f034
:10391000fcff30800020f8bd3968104801f069fcd8
:103920000028edd10d483968203001f062fc0028f4
:103930000bd00a4a13002c3318328021c90028000a
:1039400001f0e3ff30800020e5e73868320029000d
:1039500002f05bf9dfe70520dde7c0469c300000a0
:020000040000fa
:1039600070b584b006000d0011001a0008ab1b787a
:103970000aa80078099c002c0fd004281ad020280f
:1039800010d10e2068440090280001f0b7fa041e00
:103990000dd02000fef7a5fa1fe0e220fef7a1fa05
:1039a00004001ae0e220fef79cfa040015e08023f0
:1039b0001d4307e00e2068440090280001f09efaa5
:1039c000041ee6d10e236b441a8800230093099b42
:1039d0002900300000f0c0f80400200004b070bde1
:020000040000fa
:1039e000f0b5050085b019000c9b100001931a6812
:1039f0002b696c68013bef681d00002c00da012484
:103a00000026fe540a9e0123361b0296022616400b
:103a10000b9ad2170392002d04dc002b17d028003c
:103a200005b0f0bd02000a4307d1002c05dc029a64
:103a30001219002af1dd002eefd00b9a039b01f042
:103a400041fb013d130030327a55013ce3e710237e
:0e3a5000019a12689a431300019a1360dfe78f
:020000040000fa
:023a5e00fee781
:020000040000fa
:103a600030b583b0002301931a4a118c0f330b40f9
:103a70003f21545ce4b253540f31525cd2b20192f4
:103a8000019a0120920709d512494e22013088542b
:103a90001901114a5218002111730020019ad2070e
:103aa00008d50c494e220120885419010a4a52189f
:103ab000002111731901084a52185568002d03d0ce
:103ac000054a53189968a847024a3f23d45403b0c3
:0c3ad00030bdc046004800411805002031
:020000040000fa
:103adc00f0b583b006000f0015001c006b460022e9
:103aec00da802100280001f09ffe002828d0002356
:103afc002380012e26d813d06b460022da802e00ac
:103b0c0040366b46d988104b1868320001f03fffe5
:103b1c0000280dd080235b00184380b203b0f0bda9
:103b2c0038686b46991d01f046fe0028e7d0f5e792
:103b3c002a003100403000f029fd20800020ede704
:0c3b4c000520ebe70320e9e7740b0020e4
:020000040000fa
:103b580030b5b3b0051e19d0002b17d004686846dd
:103b6800c170828049b2002915db04221900063091
:103b780001f095ff00226946200001f0cefc041eea
:103b88001ad0fef7aaf9200033b030bde220fef7c4
:103b9800a4f90400f7e720221900063001f07fff9e
:103ba8000022369b002be6d02032190026206844dc
:103bb80001f075ff0122dee729006846fff780fc67
:0a3bc800041ee0d0fef789f9dde7e6
:020000040000fa
:023bd200fee70c
:020000040000fa
:103bd40057656c636f6d6520746f2074686520434e
:103be400727970746f41757468205472757374209f
:103bf400506c6174666f726d206465766b697420b5
:103c040070726f766973696f6e696e6720636f6d2a
:103c14006d616e642068616e646c6572210d0a00ca
:103c240052454144590d0a004f4b0d0a0000000053
:103c34004552524f523a20307825580d0a00000060
:083c44003e0000000d0a000023
:020000040000fa
:103c4c00f0b583b006000f0015001c006b46002277
:103c5c00da802100280001f0e7fd002827d0238816
:103c6c00802b1ed1002323800324022e1cd1386804
:103c7c006b46991d01f09ffd041e15d12a002900e9
:103c8c00802001f00df86b46d9880a4b18682a0081
:103c9c0000f0e9fa002807d00134ff340443a4b241
:103cac0002e0002323800524200003b0f0bd05248e
:083cbc00fae7c046740b00207a
:020000040000fa
:103cc400f0b51e00012389b014000e9a07001a40b3
:103cd4000291019220d1b4421eda351b03952a00c9
:103ce400102d00d91022202104a801f01dff0f2d52
:103cf4001bdc0f22039b04a913401a00380001f0b7
:103d0400e7fa019b002b04d122000299380001f04c
:103d1400dffa300009b0f0bd22000299380001f04a
:103d2400d7fab442d9db2600f3e7102204a93800fd
:083d340001f0cefa103ddae7c0
:020000040000fa
:103d3c0030b5b3b0051e15d004686846c1708280da
:103d4c00002b04d003221900063001f0a6fe6946b0
:103d5c00200001f021fd041e09d0fef7bcf8200064
:103d6c0033b030bde220fef7b6f80400f7e72900c7
:103d7c006846fff7a3fb041e0bd1369b002beed03d
:103d8c006b469b79432b07d0e620fef7a4f8040082
:103d9c00e5e7fef7a0f8e2e740226b46d91d36981e
:063dac0001f07bfedbe7e5
:020000040000fa
:023db200fee72a
:020000040000fa
:103db400f0b585b007000e0010001d0002ab002214
:103dc400da802900019001f033fd002825d000237a
:103dd4002b800324012f02d0200005b0f0bd3068f1
:103de40002ab991d01f0ebfc041ef5d1019f403795
:103df40002abd9880a4b18683a00fff7edf800289f
:103e040004d0802464000443a4b2e5e7019a390095
:103e1400403000f0bffb2880dee70524dce7c04625
:043e2400740b0020fb
:020000040000fa
:103e280010b582b06b460022da80012829d100291a
:103e38002bd008686b46991d01f0bffc041e21d1e8
:103e48006b46d988124b18686b465a1d00f03dfd29
:103e5800002811d16b4605331b78002b12d16b4615
:103e6800d9880b4b186801f09efd00280ad08024e1
:103e780064000443a4b205e00134ff340443a4b24f
:103e880000e00324200002b010bd0524fae7c04674
:043e9800740b002087
:020000040000fa
:103e9c0030b583b005000c00002829d00368002b36
:103eac0001d001f09dfd1349134b0b60134b4b607c
:103ebc00200001f061f8002804d10e4b2b606378d0
:103ecc00032b01d003b030bd0a48023b01930368b9
:103edc0001330093132300220021fef7b6fa0028c9
:103eec00f0d12b681a68537807218b435370e9e79c
:103efc000020e7e7d404002014050020ec04002087
:020000040000fa
:103f0c0070b5060014001d001900100001f08cfca7
:103f1c00002828d0022e03d000232b80032070bd54
:103f2c0028882200210000f0bbfec3b20520202b04
:103f3c00f5d1260040360d4b1868330022000021c5
:103f4c0000f0faf9002806d000232b800133ff3350
:103f5c00184380b2e3e722003100403000f016fb3a
:103f6c0028800020dbe70520d9e7c046740b002031
:020000040000fa
:103f7c00f0b583b00d0001921c0001f02ffe061e5f
:103f8c0029d0c76a002f28d0ff2d02d0019b1d70ad
:103f9c0001341e22b168380000f062ff002809d1fc
:103fac0030794008220001997b6898470300f02083
:103fbc00002b01d103b0f0bda2b2b168380000f003
:103fcc004fff0028f6d1fb6898470028f2d0f0206c
:0e3fdc00fdf781ffeee7e220ece7e220eae7e6
:020000040000fa
:103fea00f0b50b680c008f68cd68496887b0060089
:103ffa000593002902db02218b43059305a9536827
:10400a00126802910821009701912000fff7e3fc52
:10401a00059bdb0602d5302301382b54059b1b0771
:10402a0002d5202301382b54236929185a1e059bcf
:10403a00121a009330003b00fff73ffe7368db055e
:0e404a0003d56368984200da180007b0f0bd95
:020000040000fa
:10405800f0b5d6464f464646c0b59446002821d00e
:104068008a46884680440023134816e043409bb2a2
:104078006d00edb2013e002e0ad0df0b5b009bb253
:104088002c000c40621e9441e4b2bc42eed1efe732
:1040980001229146ca44c24505d0524611780826e5
:1040a8000125eae70023624613701b0a53701cbc03
:0c40b80090469946a246f0bd0580ffff2f
:020000040000fa
:1040c400030002780020042a1dd15878072823d041
:1040d4000cd90f2826d017d9112825d0ff384342f0
:1040e400584140420c239843e1300ce0012815d09c
:1040f400002808d0032813d00538434258414042d1
:104104000a239843e13070470838434258414342f8
:1041140019201840e130f6e7d720f4e7d120f2e780
:0c412400d220f0e7f420eee7f320ece7f7
:020000040000fa
:10413000f0b5124a00215160916011735161916193
:1041400011770f480f4b58630f4c9c630f4c5c6109
:104150003f27d955802636045e640d490180012130
:1041600011704d2403251d55d9555e64094e0682f4
:1041700011741d55084a1a80f0bdc046180500206c
:10418000e00a002000480041c00a002081818181ae
:0c4190000904000009080000020f0000f4
:020000040000fa
:10419c00174b184a1a60184a1a6142220221995484
:1041ac00033203319954443a43315a5401315a542d
:1041bc0003315a5401315a5403315a5401315a546f
:1041cc0001315a5401315a5403315a5401315a5461
:1041dc0004315a54323227395a5402315a54113a52
:1041ec0002315a5401315a5402315a547047c04664
:0c41fc00004400410c0c38002008380082
:020000040000fa
:1042080070b5b2b005000e0000280ed000236a4633
:10421800d37093806946006801f093fb041e09d0af
:10422800fdf75bfe200032b070bde220fdf755fec1
:104238000400f7e729006846fff742f9041e0cd18d
:104248006b469b79232b0bd1002eebd020226b469b
:10425800d91d300001f023fce4e7fdf73efee1e75d
:0a426800e620fdf73afe0400dce753
:020000040000fa
:10427200f0b5a1b006900791141e26d0602200214d
:1042820008a801f052fc2022210009a801f00afc32
:1042920021002031202212a801f004fc08ad0024e4
:1042a20020270026e3b2029701950096079a022181
:1042b2000698fff754fb059000280bd101342035f6
:1042c200032cefd1059821b0f0bde220fdf708fee6
:0a42d2000590f7e7fdf704fef4e79e
:020000040000fa
:1042dc0010b584291fd007dc812915d0822922d062
:1042ec00802911d0002010bd90291cd008dc882911
:1042fc00f8d119680c1d1c600b6803601a7010e073
:10430c00a02901d0c029edd119680c1d1c600b68c7
:10431c0003601a6005e019680c1d1c600b680360d3
:10432c001a800120dfe719680c1d1c600b68036004
:08433c001a60d2175a60f4e781
:020000040000fa
:10434400f0b583b006000091170001930021fff738
:1043540059ff041e12d173685b685b780500032b58
:104364000fd020233a002100300001f01bf8041e76
:104374000ad0fdf7b4fd200003b0f0bdfdf7affd9a
:10438400f9e720254024ece7802149422943c9b2ba
:10439400019b009a300000f09bf8041eebd0fdf75f
:0443a4009efde8e7ab
:020000040000fa
:1043a80030b583b001f01cfc041e27d0c56a002d6f
:1043b80026d001ab02221a701c328168280000f056
:1043c80051fd002809d120794008012201a96b6814
:1043d80098470300f020002b01d103b030bda1683d
:1043e8000122280000f03efd0028f6d1eb6898472e
:1043f8000028f2d0f020fdf770fdeee7e220ece7b0
:04440800e220eae7dd
:020000040000fa
:10440c0030b583b001f0eafb041e27d0c56a002d3d
:10441c0026d001ab01221a701d328168280000f0f1
:10442c001ffd002809d120794008012201a96b68e1
:10443c0098470300f020002b01d103b030bda168d8
:10444c000122280000f00cfd0028f6d1eb689847fb
:10445c000028f2d0f020fdf73efdeee7e220ece77d
:04446c00e220eae779
:020000040000fa
:10447000144b154a1a60154a9a81c02292025a605a
:104480001a00d369002bfcd10e4a136802210b439a
:104490001360d369002bfcd10d4b0022da615a6204
:1044a0009a622c215a5408315a541a631a609a603d
:1044b000da601a741a765a61024b80329a757c3a25
:1044c0009a75704700140042040110402bf6ffff5c
:0444d000380500208b
:020000040000fa
:1044d40070b5b2b005001e0000280dd0002b0bd023
:1044e4006b46d9709a806946006801f040fa041e50
:1044f40009d0fdf7f4fc03e0e220fdf7f0fc040032
:10450400200032b070bd29006846fef7dbff041eb0
:1045140005d16b469b79432b04d0e624f0e7fdf7e5
:10452400defcede740226b46d91d300001f0b9fafc
:02453400e6e7b8
:020000040000fa
:024536007047cc
:020000040000fa
:10453800144b01221a601a00d369002bfcd1114bcd
:10454800802252005a601a00d369002bfcd10d4b0f
:10455800e822da600c4a1a601a00d369002bfcd1f1
:10456800084b10225a831a00d369002bfcd1074b41
:10457800002221215a5401395a54024b83329a7528
:104588007047c0460010004216001000700a002054
:020000040000fa
:10459800f0b5d6464f464646c0b5804617000029b6
:1045a80024d000281dd00e0000250f2399466c004a
:1045b800a4b23b199a463078000901f055fa5346df
:1045c80018700134a4b23c1930784b46184001f0f9
:1045d8004bfa20700135adb20136a845e7d16d0020
:1045e800a8b21cbc90469946a246f0bd0020f8e748
:020000040000fa
:1045f800002370b59eb004000d00160005931390bb
:10460800069098421fdb114bc31814930022002315
:1046180004a801f025f8229a239b31000092019307
:1046280004a80122fcf70afa002d0ad0139b029372
:10463800149b0393039a029b9b1a1a9a9b18e418db
:104648002c601eb070bd01235b42dee7ffffff7fd9
:020000040000fa
:10465800f0b59db004000d0016000021542207a8f3
:104668001f0001f05ffa01235b4202930433ff331a
:104678000393002c00d101ac0023049405959d42be
:1046880000d06b1e0693002d06da4f220120074b3f
:1046980040421a601db0f0bd00233a00237031007b
:1046a80002a80894079401f0f1f8f3e7800b0020c2
:020000040000fa
:1046b800f0b5c64600b515009846002313700024cf
:1046c800104f114e383601f09efaa04211d96300fe
:1046d8001b199b00d959280001f01ef9280001f088
:1046e80029fa28180322310001f0d9f90134e4b27b
:1046f800e9e7280001f01efa43461880002004bcb0
:0c4708009046f0bda82c00001c31000001
:020000040000fa
:1047140070b514001d000323012801d0180070bdda
:104724000968104800f063fd05230028f6d00e4bfd
:104734001b6a5b070ad50b4b1a0020328021c90083
:10474400200001f0e0f828800023e7e7054b1a0079
:1047540010328021c900200001f0d5f82880002300
:0c476400dce7c0460c540000004400419b
:020000040000fa
:1047700000230e4a10b513600d4a13600d4a1360f2
:104780000d4a13600d4a13600d4a536213610133e1
:10479000936001f0ebf9fff7cefe0a4c0a4b9c4206
:1047a00000d310bd08cc9847f8e7c0467c0b00202a
:1047b000fc090020f8090020f0090020f40900207d
:0c47c000000a0020bc000000c000000047
:020000040000fa
:1047cc0010b50c000323022801d0180010bd096895
:1047dc000f4800f008fd05230028f6d00c4861684e
:1047ec000c3000f000fd00280cd16168084808303e
:1047fc0000f0f9fc05230028e7d0064b04229a614f
:10480c000023e2e7034b04225a610023dde7c04694
:08481c000c54000000440041af
:020000040000fa
:1048240010b50e4b002b00d098470d4b002b00d039
:104834009847fef7c7ff0b4bff2293430a4a936046
:104844000a4b98470a4b002b00d09847094b002b82
:1048540000d0984700f04efafee7c0460000000082
:10486400000000000000000000ed00e071470000bf
:0848740000000000000000003c
:020000040000fa
:10487c00f0b50b680c008f68cd68496887b00600ee
:10488c000593002902db02218b43059305a953688c
:10489c00126802910a21009701912000fff79af803
:1048ac00236929185a1e059b121a009330003b00ed
:1048bc00fff702fa7368db0503d56368984200dae8
:0648cc00180007b0f0bd6a
:020000040000fa
:1048d20070b586b00d0016000f2919d8002a17d01e
:1048e2000423029305ab019306230093043b0022a9
:1048f2000021fef794fd041e11d105a94a78120287
:104902000b7813432b41012253401340337003e0d1
:10491200e220fdf7e5fa0400200006b070bdfdf7c5
:04492200dffaf9e7d8
:020000040000fa
:10492600f0b5b3b005000e001f0000280dd06b4691
:10493600d9709a806946006801f022f8041e09d0f1
:10494600fdf7ccfa200033b0f0bde220fdf7c6fa41
:104956000400f7e729006846fef7b3fd6b46db79ee
:1049660072425641334203d1002febd03b70e9e748
:044976000400e7e76b
:020000040000fa
:02497a00704784
:020000040000fa
:10497c00bff35f8f62b6114bc12080001a581049eb
:10498c001140c02212040a431a5040221a6004300b
:10499c001a581202120ac02109060a431a50802220
:1049ac0012011a60c32189005a58ff2082433f38f4
:1049bc0002435a50802252011a60704700e100e015
:0449cc00ffff00ffea
:020000040000fa
:1049d00010b5114b00229a61da61104b83321a76be
:1049e0005a680f4c22405a601a00d369002bfcd140
:1049f00000290cd0084a20330324d4544000084333
:104a0000064b58621a00d369002bfcd110bd024a34
:104a100020230424d454f1e7700a0020001000423f
:044a2000fffffbff9a
:020000040000fa
:104a240070b5060014001d001900100000f000ff0e
:104a3400002819d0002e19d1260009360c4b18680d
:104a4400310000f0a3f9002806d000232b800133a5
:104a5400ff33184380b270bd220031000930fff7e4
:104a640099fd28800020f6e70520f4e70320f2e70b
:044a7400740b00209f
:020000040000fa
:104a7800f0b5ce46474615042d0c2e0080b5070428
:104a8800140c3f0c9946030c7e435d436743634314
:104a98007f19340ce4199c46a54203d980235b0294
:104aa8009846c4444b4643435143250c3604654459
:104ab800360c2404a4195b19591820000cbc904624
:044ac8009946f0bd5e
:020000040000fa
:104acc00f0b5b3b005000e001400002813d0076831
:104adc00c8220021684601f023f86b46de709c80ea
:104aec006946380000f021ff041e09d0fdf7f3f9e8
:104afc00200033b0f0bde220fdf7edf90400f7e73c
:104b0c0029006846fef7dafc041ef1d0fdf7e3f944
:024b1c00eee7c2
:020000040000fa
:104b2000f0b593b016001d004621694405a801f0b8
:104b30004df8041e14d10c480300343302006032d7
:104b400080210a4f1037039707001037029705afef
:104b500001972c300090c900300000f0d6fe28806c
:104b6000200013b0f0bdc0469c3000001c31000096
:020000040000fa
:104b700070b582b06b469e1d002333800c4b012222
:104b80001a700c4b18600c4c200000f01dfd0b4df2
:104b900033002a0000210020fff7c2ff280000f0a8
:104ba00013fd2000503000f00ffd02b070bdc04674
:104bb00090040020700b0020d43b000090000020e7
:020000040000fa
:104bc00010b582b0040001a9406800f07ffc002805
:104bd0001cd101980368a3604268e2608268226188
:104be000c26862610269a261826922624269e2610d
:104bf000026a626261689847002807d1019b1a6abd
:104c0000626200221a62e3682000984702b010bd79
:020000040000fa
:104c1000f0b50f0087b0039015001049072204a8d3
:104c20001c0000f040ffbb687e6802933f68002dc7
:104c300000d104ad002c03d1280000f07fff040058
:104c4000002e02dbb44200d934000097029b220000
:104c500029000398fff736f807b0f0bdf85b0000b5
:020000040000fa
:104c6000f0b583b006000f0001920578002d18d032
:104c700000240021785c00f011fca84213d101341b
:104c8000e4b22100355d002df4d17f1838783d283d
:104c900003d000f0c9fe002806d0019b1f60012050
:0c4ca00002e00021f1e7002003b0f0bdad
:020000040000fa
:104cac00f0b5c64600b5904600291bd001281bd98b
:104cbc004708012318403f180d000026287800f003
:104ccc00b9fc0001c4b2687800f0b4fc044343465c
:104cdc009c5501360235b3b29f42efd8380004bc64
:0c4cec009046f0bd0027f9e70027f7e72d
:020000040000fa
:104cf80010b582b0002000f0cdfa00f0e3fe6b465c
:104d0800063300221a700b4a106800220121fff7af
:104d180006fe0948fff728ff6b46dc1d02e02078f5
:104d2800fcf73efa01212000fef702fd0128f9d127
:0c4d3800f5e7c046740b0020f5580000a1
:020000040000fa
:104d44000200002310b54832d3560400591e0b4309
:104d5400137043698269934203d90022c36a110024
:104d6400984700236068a362a3616361830705d544
:104d74001023184360600120404210bda368e2681c
:0c4d840000079b182364e363c017f6e7e8
:020000040000fa
:104d900030b58db00c1e10d02023029304ab0193cc
:104da0000023009300220021fef73afb051e09d0e4
:104db000fdf797f828000db030bde220fdf791f81f
:104dc0000500f7e7042204a9200000f06cfe201d76
:0a4dd000052206a900f067feece7db
:020000040000fa
:104ddc0010b5064c2378002b07d1054b002b02d0c5
:104dec00044800e000bf0123237010bd200b0020fd
:104dfc000000000000000000044b10b5002b03d095
:104e0c000349044800e000bf10bdc046000000008c
:084e1c00240b0020000000003f
:020000040000fa
:104e240010b582b004000f4b1a6801925b680093be
:104e3400042912d1042201a900f0defc00280ed0be
:104e440004226946200000f0d7fc431e98414042ea
:104e540006239843d73002b010bdd020fbe70020d2
:084e6400f9e7c046e05b000025
:020000040000fa
:104e6c0070b5050008000f4c5443fa218900fdf77a
:104e7c00a1fc01002000fdf79dfc441cab68984789
:104e8c00002805d0013c0ad3012000f021fef5e7f3
:104e9c00601e84416042ef239843f03070bd0020c7
:084eac00fce7c04628230000ca
:020000040000fa
:104eb40000b583b00323012802d0180003b000bd5d
:104ec40008686b46d91d00f02afc00280fd0094859
:104ed4006b4607331b785b00037100f005fe00236b
:104ee4000028ead00133ff3303439bb2e5e70523ef
:084ef400e3e7c046400a00207c
:020000040000fa
:104efc0070b5049d03240440002d05d0022c07d965
:104f0c00e220fcf7e8ff0de0e220fcf7e4ff09e00b
:104f1c0000242c8007342340053c204003d1d200d0
:104f2c0013432b8070bdc900194312021143298011
:044f3c000020f7e773
:020000040000fa
:104f400041008c46012212068a420bd809093823f7
:104f50001b06c918c30fdb07194340076346da4233
:104f600004d27047c10fc9070020704703d138230e
:104f70001b06c918704738231b06c9180122d20422
:044f80001143704722
:020000040000fa
:104f840070b505000c00002812d0002912d0096861
:104f9400002911d06368002b10d0407800f054fd34
:104fa400002800d070bd6168280000f0c8fbf9e754
:104fb400e220f7e7e220f5e7e220f3e7e220f1e779
:020000040000fa
:104fc40070b5060015001c001900100000f030fc3c
:104fd40000280cd0002e0cd1074b1b795b08074a24
:104fe4000721280000f08ffc2080002070bd0520e0
:104ff400fce70320fae7c046400a0020b45b000047
:020000040000fa
:1050040030b401256d054c00e54215d85c00e5423d
:1050140012d80c001c436400044314430cd005d282
:1050240082428b418041404230bc7047904299415a
:105034008041404230bc7047002030bc7047c046bd
:020000040000fa
:1050440030b401256d054c00e54215d85c00e542fd
:1050540012d80c001c436400044314430cd005d242
:10506400904299418041404230bc704782428b411a
:105074008041404230bc7047002030bc7047c0467d
:020000040000fa
:10508400030010b51a78202a0dd01100093904291b
:1050940009d900212b2a02d02d2a01d10131013353
:1050a40000200a2404e00133ece760430133801a52
:1050b4001a78303a092af8d9002900d1404210bda3
:020000040000fa
:1050c400002b11d1002a0fd1002900d1002802d0d1
:1050d4000021c943081c07b4024802a140180290e9
:1050e40003bdc046390b000003b4684601b50298fd
:1050f400fcf78efc019b9e4602b00cbc7047c04678
:020000040000fa
:1051040070b582b005000478023ce4b201ae32000e
:1051140001002000fef79eff32782b5de5209a42c5
:1051240001d002b070bd2c1901ab58786378c01a55
:0c513400431e98414042e5231840f2e77a
:020000040000fa
:105140001c2101231b04984201d3000c10391b0ab7
:10515000984201d3000a08391b09984201d300097b
:10516000043902a2105c40187047c04604030202d2
:0c5170000101010100000000000000002f
:020000040000fa
:10517c0070b50c1e0ed0002a0cd01500022801d9d7
:10518c00280070bd084b002b06d01100200000e059
:10519c0000bff5e70025f3e78e1820780134fdf702
:0c51ac0052feb442f9d1ebe70000000015
:020000040000fa
:1051b80030b583b00c0000f013fd002811d0c56a8b
:1051c800002d10d0019481681e222800fff74afea6
:1051d800041e03d12b69002101a89847200003b0c1
:0a51e80030bde224fae7e224f8e704
:020000040000fa
:1051f200f8b507000e000578002d11d00024002319
:10520200f05c00f04af9a8420cd10134e4b2230068
:105212003d5d002df4d1f05c43425841c0b2f8bd6f
:085222000023f8e70020fae781
:020000040000fa
:10522a0010b5cb7816228a709a0706d41b234b70c6
:10523a00080000f0fdfb002010bdda43920707d1f9
:10524a009b0602d547234b70f2e727234b70efe703
:08525a00e220fcf741feefe742
:020000040000fa
:1052640010b50c4c2023e45c0023002c01d0180062
:1052740010bd084b9880d9605a6100229a601a6167
:10528400012199701a7020315a542039fff79efb7e
:085294000123ece7700a002081
:020000040000fa
:10529c0010b50b4b06225a60fef77afffdf79afb0e
:1052ac00fff7e0f800f07afcfff740f9fdf791fb0f
:1052bc00fef738ff034800f013fcfff759fb10bd55
:0852cc0000400041400a0020ef
:020000040000fa
:1052d400436870b50400d80510d52569954200d9f6
:1052e40015002a00606900f0dcfb226963695b1920
:1052f400551b0022636125611a7070bddb06fcd466
:08530400200000f066fcf8e750
:020000040000fa
:10530c0010b50b4c2023e45c0023002c01d01800ba
:10531c0010bd074b9880dc605c6199601a619c70d1
:10532c001c7021229c540021fff74cfb0123eee75b
:04533c00700a0020d3
:020000040000fa
:10534000f4464a1805d200f093f801d5c01740087a
:10535000604701235b05d34206d200f089f801d5ee
:105360000120c0074042604701d10042f5d0d0176c
:04537000400870473a
:020000040000fa
:10537400f0b5050000200a4c4200165d002e02d153
:10538400a2185078f0bd296801300f78c0b2b74236
:1053940003d1a2180131507829600a28ecd9f1e729
:0453a4001858000095
:020000040000fa
:1053a80010b582b03f24a143202b0fd0402b09d148
:1053b800232319430023009313000022fef722f948
:1053c80002b010bde220fcf788fdf9e7032319437a
:0253d800f0e7fc
:020000040000fa
:1053dc0000b589b0002805d10848583000f0eef827
:1053ec0009b000bd054a030060322021684600f078
:1053fc0086fa684600f0e2f8f2e7c046d43b0000bb
:020000040000fa
:10540c0053544154555300004f4646004f4e000034
:10541c004c45443a2573206973204f4e0a0d000009
:10542c004c45443a2573206973204f46460a0d00bb
:020000040000fa
:10543c0070b4012676054c005d00e6420cd8ee42b5
:10544c000ad825430543154303d0994204d1904211
:10545c0002d1012070bc7047002070bc7047c04660
:020000040000fa
:10546c004a0010d2520d03231b02ff33d21a0ad466
:10547c0052421f3209d4400dc90208430123db07f5
:10548c001843d040704700207047d0177047c04673
:020000040000fa
:10549c00002811d00d280fd00a280dd00300203b76
:1054ac00dbb2402b08d902007b3a032a04d96138bd
:0e54bc00c2b22320192a00d970471800fce75d
:020000040000fa
:1054cc0000280ad000290ad00378052b09d89b00a4
:1054dc00054a9b580b6000207047e220fce7e22055
:0c54ec00fae7e220f8e7c0463c0b002085
:020000040000fa
:1054f80010b582b00c0002780023002a02d11800ef
:1055080002b010bd002201a900f0b7fa2060019b8b
:0a5518001b7858424341dbb2f1e773
:020000040000fa
:1055220010b512238b70c8786d3383428041633b80
:1055320003400b33002a05d14b70080000f07cfabf
:0a554200002010bd20334b70f7e786
:020000040000fa
:10554c0010b5041e0dd08369002b0cd09847d028c1
:10555c0000d010bdb73800f039faa3692000984785
:0a556c00f7e7e220f5e7fd20f3e782
:020000040000fa
:10557600002380290fdb812901dd83290bd1072137
:10558600136807338b431900083111601a685b688a
:0a5596000260436001231800704713
:020000040000fa
:1055a00070b515001c0001280ad10b68054a80213e
:1055b0002c32c900280000f0a8f92080002070bd1e
:0855c0000320fce71c31000090
:020000040000fa
:1055c80070b50400074b1b68002b09d00078002831
:1055d80006d0044d01342b68984720780028f9d16b
:0855e80070bdc046700b0020ed
:020000040000fa
:1055f00010b582b00c0001a9fff77eff002804d08f
:10560000019b044a934202d9002002b010bd2380be
:08561000fbe7c046ffff0000ac
:020000040000fa
:10561800074a2023d35c002b08d1064b588b302334
:1056280018401038431e9841c0b270470120fce76b
:08563800700a0020001000427e
:020000040000fa
:1056400002003038c0b2092805d91300413b052bb0
:1056500002d8373ad0b2704700201300613b052bc7
:08566000f9d8573ad0b2f6e781
:020000040000fa
:10566800f0b51700016cc66b02658c1be517436526
:105678008465c5651f4305d09d4202dc02d1944272
:0856880000d9b118c164f0bda6
:020000040000fa
