:020000040000fa
:080000000001040000000000f3
:020000040000fa
:04000800c60300002b
:020000040000fa
:04000c00d803000015
:020000040000fa
:04001000e803000001
:020000040000fa
:04001400ce03000017
:020000040000fa
:04001800e003000001
:020000040000fa
:04001c00420400009a
:020000040000fa
:040020004204000096
:020000040000fa
:040024004204000092
:020000040000fa
:04002800420400008e
:020000040000fa
:04002c00420400008a
:020000040000fa
:040030004204000086
:020000040000fa
:040034004204000082
:020000040000fa
:04003800420400007e
:020000040000fa
:04003c00420400007a
:020000040000fa
:040040004204000076
:020000040000fa
:040044004204000072
:020000040000fa
:04004800420400006e
:020000040000fa
:04004c00420400006a
:020000040000fa
:040050004204000066
:020000040000fa
:040054000e04000096
:020000040000fa
:04005800f0030000b1
:020000040000fa
:04005c00420400005a
:020000040000fa
:040060004204000056
:020000040000fa
:040064004204000052
:020000040000fa
:04006800420400004e
:020000040000fa
:04006c00420400004a
:020000040000fa
:040070004204000046
:020000040000fa
:040074005003000035
:020000040000fa
:04007800420400003e
:020000040000fa
:04007c00420400003a
:020000040000fa
:040080004204000036
:020000040000fa
:040084004204000032
:020000040000fa
:04008800420400002e
:020000040000fa
:04008c00420400002a
:020000040000fa
:040090004204000026
:020000040000fa
:040094004204000022
:020000040000fa
:04009800420400001e
:020000040000fa
:04009c00420400001a
:020000040000fa
:0400a0004204000016
:020000040000fa
:0400a4004204000012
:020000040000fa
:0400a800420400000e
:020000040000fa
:0400ac00420400000a
:020000040000fa
:0400b0004204000006
:020000040000fa
:0400b4004204000002
:020000040000fa
:0400b80042040000fe
:020000040000fa
:0400bc0042040000fa
:020000040000fa
:0400c00042040000f6
:020000040000fa
:0400c40042040000f2
:020000040000fa
:0400c80042040000ee
:020000040000fa
:0400cc0042040000ea
:020000040000fa
:0400d00042040000e6
:020000040000fa
:0400d40042040000e2
:020000040000fa
:0400d80042040000de
:020000040000fa
:0400dc0042040000da
:020000040000fa
:0400e00042040000d6
:020000040000fa
:0400e40042040000d2
:020000040000fa
:0400e80042040000ce
:020000040000fa
:0400ec00a803000065
:020000040000fa
:0400f0008a0300007f
:020000040000fa
:0400f40042040000c2
:020000040000fa
:0400f80042040000be
:020000040000fa
:0400fc0042040000ba
:020000040000fa
:0401000042040000b5
:020000040000fa
:0401040042040000b1
:020000040000fa
:0401080042040000ad
:020000040000fa
:04010c0042040000a9
:020000040000fa
:0401100042040000a5
:020000040000fa
:0401140042040000a1
:020000040000fa
:04011800420400009d
:020000040000fa
:04011c004204000099
:020000040000fa
:040120004204000095
:020000040000fa
:040124004204000091
:020000040000fa
:04012800420400008d
:020000040000fa
:04012c002c0400009f
:020000040000fa
:040130004204000085
:020000040000fa
:040134004204000081
:020000040000fa
:04013800420400007d
:020000040000fa
:04013c004204000079
:020000040000fa
:040140004204000075
:020000040000fa
:040144004204000071
:020000040000fa
:04014800420400006d
:020000040000fa
:04014c004204000069
:020000040000fa
:040150004204000065
:020000040000fa
:040154004204000061
:020000040000fa
:04015800420400005d
:020000040000fa
:04015c004204000059
:020000040000fa
:040160004204000055
:020000040000fa
:040164004204000051
:020000040000fa
:04016800420400004d
:020000040000fa
:04016c004204000049
:020000040000fa
:040170004204000045
:020000040000fa
:040174004204000041
:020000040000fa
:04017800420400003d
:020000040000fa
:04017c004204000039
:020000040000fa
:040180004204000035
:020000040000fa
:040184004204000031
:020000040000fa
:04018800420400002d
:020000040000fa
:04018c004204000029
:020000040000fa
:040190004204000025
:020000040000fa
:040194004204000021
:020000040000fa
:04019800420400001d
:020000040000fa
:04019c004204000019
:020000040000fa
:0401a0004204000015
:020000040000fa
:0401a4004204000011
:020000040000fa
:0401a800420400000d
:020000040000fa
:0401ac004204000009
:020000040000fa
:0401b0004204000005
:020000040000fa
:0401b4004204000001
:020000040000fa
:0401b80042040000fd
:020000040000fa
:0401bc0042040000f9
:020000040000fa
:0401c00042040000f5
:020000040000fa
:0401c40042040000f1
:020000040000fa
:0401c80042040000ed
:020000040000fa
:0401cc0042040000e9
:020000040000fa
:0401d00042040000e5
:020000040000fa
:0401d40042040000e1
:020000040000fa
:0401d80042040000dd
:020000040000fa
:0401dc0042040000d9
:020000040000fa
:0401e00042040000d5
:020000040000fa
:0401e40042040000d1
:020000040000fa
:0401e80042040000cd
:020000040000fa
:0401ec0042040000c9
:020000040000fa
:0401f00042040000c5
:020000040000fa
:0401f40042040000c1
:020000040000fa
:0401f80042040000bd
:020000040000fa
:0401fc0042040000b9
:020000040000fa
:100200000ffe20000e7f24000e0188000000000079
:10021000000020000000e000020032000001200089
:100220002002880014000700cd0107000000e00054
:1002300003003a00c08a21000100200002003700bc
:100240000000200001002000810f7000010032003a
:1002500014000700000020000000e000020032004f
:1002600000000200000000006a56020000000000ca
:100270000040da000000fe004440a90040302000a9
:100280000000e00003003200002020009001880000
:100290004440a800000006008a1f78008b1f7800e9
:1002a00000000600a1028800800478000000eb0036
:1002b0001f003700e284440054a0b4009905ba003e
:1002c000e284440054a0b4009906ba00e2844400d9
:1002d00054a0b4000006eb00476fde00fd07b2003b
:1002e000ae018800636ce10003003a00eaff0700fa
:1002f0000000eb000e003700606ce10008003a00df
:10030000004deb000a05e800020039003420ec0043
:100310000af0a0008b05e900f9ff3e000400370059
:100320006168e100010032000086eb000b0007006d
:1003300019c7ba001905ba000e04e00003003a001c
:100340000a00e000dbff3a0000000600fe07b200f2
:10035000ae0288008a047800f5ff37000cd0a300b5
:10036000e20f4d001c00390089027800354dba00bb
:100370000a05e800020039003420ec000af0a00071
:100380008b05e9000f003200254dba000a05e80090
:10039000020039003420ec000af0a0008b05e900cf
:1003a000080032000c00e0000600320015cdba0053
:1003b0000a05e800020039003420ec000af0a00031
:1003c0008b05e9008984e80054a0b4000b00e0002c
:1003d000e2ff3a00000006009902ba00055d7800cd
:1003e0008b05e900f7ff3200c82ade00055d7800c2
:1003f0008b05e900f3ff32000c00e000f1ff320052
:1004000019ddba00eeff3700525e04000000000064
:100410001655040000000000885b04000000000086
:100420005a5e04000000000038550400000000007f
:100430009c5b040000000000625e040000000000fd
:100440005a55040000000000b05b040000000000ea
:100450006a5e0400000000007c55040000000000fb
:10046000c25a0400000000006449040000000000bb
:10047000345c040000000000c24e040000000000d4
:10048000b830040000000000ea350400000000005d
:100490004431040000000000ee34040000000000bd
:1004a00068330400000000007e2e040000000000fd
:1004b0000c41040000000000e032040000000000d5
:1004c000e62a040000000000823d04000000000055
:1004d000f046040000000000ec5b04000000000097
:1004e0001e3f040000000000d031040000000000a6
:1004f000a244040000000000ba2c04000000000028
:10050000422a0400000000006458040000000000bb
:10051000625d040000000000203a040000000000ba
:10052000d054040000000000ee5a04000000000057
:10053000ac49040000000000d85a0400000000008c
:100540006c5d040000000000045b0400000000007b
:10055000765d0400000000001a5b0400000000004b
:10056000305b040000000000465b04000000000057
:10057000ca590400000000001a5f040000000000d7
:10058000805d040000000000185a04000000000014
:10059000264f040000000000365104000000000057
:1005a000a8500400000000001c5d040000000000d2
:1005b000485e040000000000285d04000000000008
:1005c0004459040000000000225c04000000000008
:1005d0002859040000000000725b040000000000c5
:1005e000cc48040000000000184c0400000000008b
:1005f000545c040000000000bc5104000000000036
:100600009e5d040000000000a85d040000000000e2
:10061000b25d040000000000bc5d040000000000aa
:10062000c65d040000000000d05d04000000000072
:10063000da5d040000000000d85b04000000000048
:100640000456040000000000e45d04000000000007
:10065000ee5d0400000000009a5e0400000000004f
:10066000be530400000000004a2304000000000004
:100670008610040000000000a05c040000000000e0
:10068000e05c040000000000104b040000000000cb
:100690007e480400000000004c5d040000000000e3
:1006a0003600f800809fbe00829fbe00849fbe007f
:1006b000869fbe000000fa005004800068006000c1
:1006c0000000e0000c0032008a60a9008133800045
:1006d00000002100008060000000e0000600320001
:1006e0007186a900b04280000000e00002003200e4
:1006f000b0428000000001000080fa004f03be00fd
:100700004f02be004f01be004f00be003600f90090
:10071000004006003600f800809fbe00829fbe00a9
:10072000849fbe00869fbe000000fa003042800019
:10073000000001000080fa004f03be004f02be001f
:100740004f01be004f00be003600f9000040060019
:100750003600f800809fbe00829fbe00849fbe00ce
:10076000869fbe000000fa004042800000000100a9
:100770000080fa004f03be004f02be004f01be00d2
:100780004f00be003600f900004006003600f800b9
:100790008020a9000000eb00a22d07003600f80021
:1007a0006e2c07008040a900100020009d2d07003e
:1007b0003600f8008060a90020002000992d070075
:1007c0003600f8008080a90030002000952d070039
:1007d0003600f8008600a90070002000912d070067
:1007e0003600f800809fbe00829fbe00849fbe003e
:1007f000869fbe000000fa0040418000000001001a
:100800000080fa004f03be004f02be004f01be0041
:100810004f00be003600f900004006003600f80028
:10082000809fbe00829fbe00849fbe00869fbe0048
:100830000000fa0050418000000001000080fa0032
:100840004f03be004f02be004f01be004f00be006e
:100850003600f90000400600801f78000000fa0012
:10086000d01c8000620060000000e0000100320047
:100870009a23a9009020a9000080fa004f00780078
:10088000004006000040da000000fe001004b10045
:10089000070035009001b100040034007000b10081
:1008a000030035009001b10001003c00100005007c
:1008b000000005006900e100040035006d00e10062
:1008c000030034000002b100010032000000050006
:1008d00010000500800078001106b100030035000b
:1008e0009101b10001003c000050a1000000060091
:1008f0000a00fa0020079800310798004207980084
:10090000be009000110798000000eb00000f780077
:100910000c00370000000000002507000004a200c2
:100920000004e000fcff3a001e0090001040780038
:100930009e0090008100e8001107980052270700f0
:100940001e0fe8004e0090009e007800808f50003f
:10095000f0ff39004e0090000080fa000000060011
:10096000000005006022b800060220000000d00050
:100970008180d2000482d2008582d2000000a000d3
:100980000202520083825a00030031000202420038
:1009900083824a000000a1000603e900f3ff3a0049
:1009a000000006000000fa00e88157004fb99700e8
:1009b000020007000080fa00000006000c00fa00a8
:1009c000881f780001047800820078000002eb00a4
:1009d0000800e000010032000802e900e4bf9f00c7
:1009e0000001eb00a2bf9f0090bf9f00b0bf9f001f
:1009f000200c2000c0bf9f00030178006e805700cc
:100a0000120107000800e000020032009fb89700c2
:100a10008048eb004f0478000080fa0000000600d8
:100a2000e68747008e1f7800d0bf9f00e1bf9f0080
:100a30000e0037005fba970014407800efb99700b6
:100a4000934078000201e900814f50000400320019
:100a50000080fb008180fb00010050000600370091
:100a600066875700041fe800030fe8000200e0005b
:100a7000f0ff3a000000eb004f0778006f00b10074
:100a8000000006008001780002003700b1597800ac
:100a90000201e9000200e000fcff3a00000006004d
:100aa0008001780002003700815978000201e900d6
:100ab0000200e000fcff3a000000060000017800a0
:100ac00082017800030178003204e000fcff3a0064
:100ad00031417800825978000204e000fcff3a00be
:100ae00000000600800078003104e000feff3a00bc
:100af0000080ea000080400000000600e687470012
:100b0000889fbe008a9fbe008c9fbe008e1f78000b
:100b100081067800820478008000eb00f17e880076
:100b20000d00e00001003200800e78000005780022
:100b3000ba4078000a0478000100fb0081bf9f00e2
:100b40005cff07008fb897000000e000f8ff3a0054
:100b5000d0c2b30080cf500004003a000a047800ed
:100b6000b84078001ec0b300050037000047eb0016
:100b7000b0c2b30080cf500001003a00b840780006
:100b800000c3b30080cf500012003a00b840780094
:100b90000900e00002003200f08f540058003a00d3
:100ba00080c7b30080cf50000300320080c5b3007f
:100bb00080cf500003003a00b840780009012000bf
:100bc0004f0037000900e0004d003a008900200086
:100bd0004b0037000046eb000900e00002003a003d
:100be0000046eb00a90020006055b8000101fb00a1
:100bf0000200780081bf9f00f2b79f0023ff07002b
:100c00008fb897007fb197000000e0000500320028
:100c1000020078002fff070091ccb3000142400092
:100c2000050037000203b100e90f51001e003e002d
:100c300004cdb30004c240000400fb00890f500043
:100c400019003d000402fb00cfa2de006149b9009b
:100c50000a00be00f4b79f0085bf9f00a3030700f2
:100c60007fb297008fba9700040240008582480047
:100c70000800e800840f5500858f5d0005003600f0
:100c800021022000f17e88000004780010c0b3002b
:100c90000600370098407800000478000405be0084
:100ca0001cc0b300d1ff37000040eb000c04e00093
:100cb000030032000d00e00001003200880ee90060
:100cc000e14f5000050032000e04e0000500320044
:100cd00060051500e0851d00020037000085eb006f
:100ce0008085eb000a00be004f0778004f06be006b
:100cf0004f05be004f04be006f00b10000000600ab
:100d00001cc0b300b8ff3700889fbe008a9fbe009a
:100d10008c9fbe00800578008104780082067800f0
:100d20000000eb00f07e88000b0678000c057800d0
:100d30000a0678003c4478000800fb00ddfe07004e
:100d40000000e000f9ff3a00d0c2b300804f540029
:100d50000300320000c0e900804f540002003a0056
:100d60000a05e80001003700004478000d01780012
:100d7000890078000a00780060ff07000900e000a1
:100d800007003200990f550024003a008b0c7800c0
:100d900022003700e00f5000e08f58000f003a00ab
:100da000b2c2b300824f540004003a00e00f50007a
:100db000e08f580015003d0008003700d2c2b30094
:100dc000824f540011003a00020020000300280066
:100dd000820f5000838f58000a0036002002200046
:100de000f07e8800f0ff2f00f1ff2700d2c2b30091
:100df000824f540005003a00000020000100280046
:100e00000200370060001000e08018004f06be00ae
:100e10004f05be004f04be0000000600998f55002c
:100e2000dfff3a00dbff3700d00190000281510064
:100e30004240a90003003400100178000149780005
:100e40000208e8000100780000000600f68747006d
:100e5000889fbe008a9fbe008c9fbe008e1f7800b8
:100e600000057800a1b79f00020778008004eb001e
:100e700090023700afb097008100e800a1b79f0053
:100e800051c2b300814f500003003a00afb0970049
:100e90000004eb0011003700ba0090000000fb00d6
:100ea0000168a30007003200090178008000780083
:100eb0000a007800dcff07000000e00005003a00af
:100ec0007c0237008a00780086020700e10f4000ac
:100ed000780232008904e8007602370001007800c9
:100ee00031417800d3c2b300834f51000c0032006f
:100ef00007003c00edc15100834f51000a00320051
:100f0000ebc14100834f51000d003a00080037004b
:100f100003c3b300834f510009003a0006003700b5
:100f20000830a000edff37000800a000ebff3700fd
:100f30000810a000e9ff37000820a000e7ff3700f5
:100f40000818a300010032000800a1000838a3001f
:100f5000010032000820a1008200fb000103b10063
:100f6000e98f50000c003e00000178008000eb008b
:100f70006a08b900b201fb000303b10080804100a0
:100f8000020078009201fb000303b100e98f5100d9
:100f9000f7ff3600060037008000eb00a3c2b30065
:100fa000834f510002003a00ce0078000000e800b4
:100fb0008005eb00e2c2b300904f110009003a0037
:100fc00008e0a00064415100d04f1100030032003e
:100fd000000178000102780006003700ce05780095
:100fe0000000e80000017800090037006a58b900e5
:100ff0008085410002007800b201fb000303b100cc
:10100000e98f5100f9ff360084007800f5ff3700c2
:1010100032407800a2b79f00c3c6b300834f500090
:10102000250032000f003c0032c6b300824f500052
:101030008800320004003c000004e000220232007c
:101040006b4151000f00370042c6b300824f500081
:101050001700320065414100824f500094003a0071
:101060001300370032c7b300824f50001b0032001c
:1010700007003c0064415100824f500010003200d4
:101080000241e800824f500089003a000f0037000b
:1010900052c7b300824f50008a00320063414100c2
:1010a000824f500082003a00e0df9f0009003700c5
:1010b000e0df9f00850037000840a000d4ff370024
:1010c000e0df9f000860a00080003700e0df9f00a5
:1010d0000850a0000870a0007c003700e0df9f00ef
:1010e0004e007800000678000000e00001003a00a1
:1010f0004cea20000c0178000000eb0001003700f2
:101100000000e800e24178000304e000fcff3a0040
:10111000800678000b00e000030032008d8f550040
:10112000010031008b0678008005eb008d8f5000a8
:10113000010036008d855000680464002a003a00e2
:10114000110037003a0090000068a3000700320049
:1011500009017800010220000a00780032ff070030
:101160000000e00006003a00060037008a00780020
:1011700000022000db010700e10f40000100320007
:101180008904e8008b05e9000b00e000edff3a0060
:101190008085eb00140037003a0090000068a3003f
:1011a000090032000c007800b000fb000006780057
:1011b000090178000a0078001bff07000000e0002a
:1011c00008003a00080037008c0078003100fb006e
:1011d000010678008a007800c2010700e10f400094
:1011e000010032008904e8000d0078008006e90063
:1011f0000000e000e8ff3a000800e000ad01320026
:10120000110037003a0090000068a3000700320088
:1012100009017800010220000a00780002ff07009f
:101220000000e00006003a00060037008a0078005f
:1012300000022000ab010700e10f40000100320076
:101240008904e8008b05e9000b00e000edff3a009f
:10125000980137004e017800cf91de00c81ade00f9
:101260004818dd004812de0004027000e4df9f0031
:101270000848a300080032000404e0000600320021
:10128000e14f420004003200f4df9f0082e79f003c
:101290002d00200002003700f2df9f001d0020001b
:1012a000e2fd2f000f0141000206e80099ff370020
:1012b000e0df9f00ecfd2f000f0646001d00200020
:1012c00094ff3700e0df9f00080cb30008017800ae
:1012d000020cb200700064000200e0000d003a0051
:1012e0000000e000020032004e06be00020037009f
:1012f0004e067800cfe6de00e00f5600e08f5e007d
:101300000a003d003800b30060061600e0861e00ab
:10131000060037000000e000020032004e06be006a
:10132000020037004e0678008006eb000b00e0005c
:1013300005003a008c8576000bf0a7008b05ea00cb
:101340008b05e900cf5dde0088017800030cb20058
:10135000e3b79f0000042000808f5100230032007b
:1013600003003c000300e000080032002d003700bd
:10137000000820006fb29700800f52000d0032006d
:10138000000c2000800f520026003a00c2ea200024
:1013900010c0b30064014100b20f5600a28f5e007e
:1013a0001f0039000040e800ea4f5000f9ff3a0002
:1013b0001b00370010c0b300020120000300200012
:1013c000820f5600838f5e0015003900441add003d
:1013d000cc11de00830172004411dd000040e80002
:1013e000e84f5000f6ff3a000d00370010c0b30080
:1013f0008200200003002000820f5600838f5e00d1
:1014000007003900431add00cd11de0083017200b0
:101410004311dd000040e800eb4f5000f6ff3a00ba
:10142000e0df9f006fd997000200fb008b0f500098
:1014300002003d00ebdf9f0003003700808f550066
:1014400001003d00800578000100e000030032004b
:1014500063006400010032008100e90008e8a30095
:10146000050032008b8f5000020034008b8050004a
:10147000010037008000eb00efd997000300fb006c
:101480000002eb00d4b79f00808f500002003400b0
:1014900000805000d0b79f000828a3004000320011
:1014a000610164000818a3000f0032003a009000a8
:1014b0000068a30006003200b10220000200e00034
:1014c000010032008180e800090178000d0037003a
:1014d000b00220000200e000010032000080e800bd
:1014e0008a0078000e0037000200e0001000320091
:1014f0003a0090000068a30007003200090178005c
:10150000010220000a00780047fe07000000e0000a
:1015100006003a00060037008a007800000220002a
:10152000f0000700e10f4000010032008904e800ec
:101530005fb097000000e0005a003200bcb79f0087
:10154000cdb79f00800678003a0090000068a300a5
:101550000700320009017800010320000a0078002a
:1015600031fe07000000e00006003a0006003700e8
:101570008a00780000032000da000700e10f400035
:10158000010032008904e8008d06e900eeff3a0010
:10159000ddb79f003fb69700cfb6970041003700f8
:1015a000dfb197000300e0001a0032000838a30002
:1015b00018003a00bcb79f00cdb79f0083067800a3
:1015c0003a0090000068a30007003200090178008b
:1015d000010220000a00780013fe07000000e0006e
:1015e00006003a00060037008a007800000220005a
:1015f000bc000700e10f4000010032008904e80050
:101600008d06e900eeff3a00ddb79f003fb6970078
:10161000cfb69700610164000818a3000f003200e4
:101620003a0090000068a30006003200b1022000da
:101630000200e000010032008180e800090178002a
:101640000d003700b00220000200e000010032006f
:101650000080e8008a0078000e0037000200e000f9
:10166000100032003a0090000068a300070032002a
:1016700009017800010220000a007800eafd070055
:101680000000e00006003a00060037008a007800fb
:101690000002200093000700e10f4000010032002b
:1016a0008904e8000b03e9006330b9000001780009
:1016b000b2b79f004233dd00c0ea200000034300c0
:1016c0008e01780093b79f00080778000604780021
:1016d0005c0037008b05e900000420006fb2970022
:1016e000800f52003800320003003c000400e0008c
:1016f000080032003e00370000082000efb09700dd
:10170000808f500020003200000c2000808f50009d
:1017100037003a000e48a300100032001802be0045
:101720000401be000c00be00f4b79f0085bf9f00ff
:101730008cfc0700e0df9f000000fb00cf80de0094
:101740007fb297008fba97000401be00e700070040
:101750000006560081865e000700370018017800f9
:10176000110009000286d800a20020001100090023
:101770000280d800e1df9f006fd997000243b000dc
:10178000e2df9f001a00370030e920000e58a30066
:101790000100320020e82000c1ea2000810054004e
:1017a0000c01be008100e900030033008301d10079
:1017b0000281d300fbff3700ef006100e0c078003a
:1017c000e1df9f000a0037000c00be00bfb19700a8
:1017d0008301e900030033008100d1000080d300c1
:1017e000fbff3700674060000043b000e0df9f0070
:1017f000ba0090006fda97000400fb000168a300b4
:101800000700320009017800800078000a007800a3
:1018100085fd07000000e00005003a0005003700e4
:101820008a0078002f000700e10f4000010032001d
:101830008904e8003fb0970063005000b0b79f00f4
:10184000640454000b00e000a2ff3a000e0478008c
:101850001fb797000838a30016003200dfb09700ca
:101860000100e00013003400010478003a00900009
:101870000068a3000700320009017800010220007f
:101880000a00780068fd07000000e00006003a004a
:10189000060037008a0078000002200011000700cf
:1018a000e10f4000010032008904e8000804e9006b
:1018b000eeff3a002fb1970012407800e0df9f0062
:1018c0000004e0006bfd3a00090078004f07780043
:1018d0004f06be004f05be004f04be006f01b100b1
:1018e00000000600889fbe0001047800b800900048
:1018f0008084eb000118a3003a0032001801900028
:101900000198a30002003a000200e00035003a000e
:101910000190a0003104980080047800f90fb20013
:101920000200e00002003a0028009000000c78005d
:10193000ea8f540005003a000178a30003003a0042
:1019400088007800d0002000e6ff07001800900013
:10195000d8009000810f50000b0032000000e8001a
:10196000100498001800780009487800000ce8007e
:1019700011c0b30080fd200001487800ea8f5400b8
:1019800018003a0005003700880078000940780008
:10199000170007008004780012003700380090001c
:1019a0000088a3000f00320018019000a8009000ea
:1019b00048009000cefb070098009000810f500077
:1019c00004003200380090000003b3003004980097
:1019d0008084eb000000eb001004980028009000c9
:1019e000000c7800090078004f04be0000000600db
:1019f0000200fa00889fbe00a0ff9f00010478004b
:101a0000380090000068a30033003a00e200600054
:101a100005003a000003b300300498001104980058
:101a20000080eb002e003700d80490000900e00091
:101a300006003a0012002000e6805700480090009f
:101a4000abfb07001904980023003700a8009000a2
:101a50000100e00008003a00b1fd200021049800d8
:101a6000010c780021002000510498001104980016
:101a70000030a0003004980018019000a8009000e9
:101a8000480090009afb0700280090008080eb003f
:101a900011049800aff8970001487800000ce800a6
:101aa0002ff89700ea4f50000b003a0038009000e2
:101ab0000088a3000800320018019000a8009000e0
:101ac000480090008afb07000000eb00100498001b
:101ad000a8009000010c7800aff897000100fb000f
:101ae0004f04be000080fa0000000600020ab900a0
:101af000001bb9000200b8008100420081004300d1
:041b000000000600db
:020000040000fa
:101b04004d4300002b410000424f0000555400009b
:101b1400004d0000432b0000424c00004f420000e7
:101b24005445000053540000004d0000432b0000b6
:101b3400504900004e470000004d0000432b0000b8
:101b440045430000432b0000474500004e50000071
:101b5400554200004b450000590000004d43000071
:101b64002b450000434300002b4c00004f43000072
:101b74004b0000004d4300002b4500004343000090
:101b84002b4f0000545000002b5200004541000030
:101b9400440000004d4300002b4500004343000077
:101ba4002b500000554200004b450000592b00000b
:101bb4005245000041440000004d0000432b00004a
:101bc40045430000432b000050550000424b0000e9
:101bd400455900002b5700005249000054450000ad
:101be400004d0000432b000045430000432b000040
:101bf4005245000041440000004d0000432b00000a
:101c040045430000432b00005345000052490000a7
:101c1400414c0000004d0000432b000045430000f0
:101c2400432b000053490000474e00004449000084
:101c34004745000053540000004d0000432b0000b2
:101c440045430000432b0000575200004954000054
:101c5400454200004c4f0000420000004d4300008c
:101c64002b470000455400004c4500004400000090
:101c74004d4300002b4c0000495300005443000026
:101c84004f4d00004d4100004e4400005300000041
:101c94004d4300002b520000455300004554000002
:101ca400004d0000432b000053450000544c00003d
:101cb40045440000004d0000432b00005645000041
:101cc40052530000494f00004e0000004d430000f5
:101cd4002b570000494e0000432b000045520000e2
:101ce40041530000450000004d4300002b57000005
:101cf400494e0000432b00005245000041440000bf
:101d0400004d0000432b0000574900004e430000e3
:101d14002b5700005249000054450000424c00007b
:101d24004f42000000000000828d00006449000062
:101d3400000000008b8d0000345c000001000000f6
:101d4400978d0000c24e0000000000009f8d00002f
:101d5400b830000000000000b08d0000ea3500003b
:101d640000000000bc8d00004431000000000000b1
:101d7400cc8d0000ee34000000000000df8d000078
:101d84006833000001000000f38d00007e2e000087
:101d940000000000ff8d00000c4100000000000066
:101da4000d8e0000e0320000010000001f8e0000d4
:101db400e62a000001000000308e0000823d000091
:101dc400000000003a8e0000f04600000000000011
:101dd4004a8e0000ec5b000000000000538e0000ff
:101de4001e3f0000000000005d8e0000d0310000a6
:101df40000000000688e0000a24400000000000003
:101e0400768e0000ba2c000000000000838e0000d3
:101e1400422a000001000000434f00004d4d000025
:101e2400414e000044480000414e0000444c000074
:101e340045520000003100002e3300002e30000017
:101e440000250000730d00000a0000004649000050
:101e5400524d000057410000524500000030000080
:101e64002e3400002e3600000050000049430000cc
:101e74002d4900006f540000205700004700000067
:101e840050490000432d0000496f00005420000019
:101e9400707200006f76000069730000696f0000c3
:101ea4006e6900006e6700002046000057000000c5
:101eb400257300000d0a000046570000202500008d
:101ec400730d00000a250000734300006f6d0000cd
:101ed4006d6100006e64000020680000616e000007
:101ee400646c00006572000020250000730d000082
:101ef4000a6600006f72000020740000686500002c
:101f040020250000730d00000a0000004d4300006e
:101f14002b5000004f4e0000473d00002573000089
:101f2400000d00000a00000045520000524f00005e
:101f340052000000444100005441000000430000ee
:101f44004f4e00004e000000574900004649000073
:101f5400004f00004e0000004f4600004600000005
:101f64004c450000443a000025730000206900003d
:101f7400732000004f4e00000a0d0000004c0000ca
:101f8400454400003a2500007320000069730000f6
:101f9400204f0000464600000a0d000000570000d4
:101fa400494e000043000000574900004e43000022
:101fb40020660000697200006d7700006172000005
:101fc40065200000256400002e250000642e00001a
:101fd400256400000d0a0000574900004e4300002c
:101fe4002064000072690000766500007220000021
:101ff400256400002e250000642e000025640000e6
:102004000d0a000000000000576500006c6300002a
:102014006f6d000065200000746f000020740000e4
:102024006865000020500000494300002d4900006d
:102034006f540000206300006f6d00006d610000ac
:102044006e64000020680000616e0000646c000093
:1020540065720000210d00000a00000052450000d6
:1020640041440000590d00000a0000003e00000039
:102074000d0a0000004f00004b0d00000a00000094
:1020840045520000524f0000523a00002030000038
:1020940078250000580d00000a0000001a5f0000b7
:1020a400805d0000185a0000264f000036510000e1
:1020b400a85000001c5d0000485e0000285d000080
:1020c40044590000cfff0000ffff0000c9000000da
:1020d400e824000000000000005200005c00000042
:1020e400200100003f00000000000000200100006b
:1020f4000000000000000000041100003343000051
:0821040004070000c4400000c4
:020000040000fa
:10210c00d000fa0000cf990051a7980062a7980060
:10211c0073a798008ec8910010c4b30080cf5000f4
:10212c00040032008ec8910040c5b30080cf50002f
:10213c0014003a00700047004300200000017800b2
:10214c006ea09000fea09000271a07000004e0008b
:10215c0088013a001e5090004057980010408000b3
:10216c000000e00085013200134080000e5090000a
:10217c00f40047000101780011c0b3000300010016
:10218c008f0137008ec8910020c4b30080cf50005f
:10219c0014003a007600470043002000000178004c
:1021ac006ea09000fea090000f1a07000004e00043
:1021bc0083013a007e509000205f98001040800010
:1021cc000000e0007e013200134080006e50900051
:1021dc00fa0047000101780021c0b30003000100a0
:1021ec00770137008ec8910030c4b30080cf500007
:1021fc0051003a007c004700c30020000001780029
:10220c006ea09000fea09000f71907000004e000fb
:10221c006b013a005e6090000004e0003100350074
:10222c005e6090008001fb004e6090000000fb009f
:10223c006c00b90000007800e8004000e0df2000ee
:10224c0000804000104190006c18b90080007800ac
:10225c0060e0200000804000124098005e6090001a
:10226c000000fb006c00b9008000780060e02000ea
:10227c000080400011c0b300014878005e609000ff
:10228c000000fb00be109000688150006c00b9008b
:10229c008000780040e020000080400002087800b8
:1022ac00004080000000e8000040880000408000f2
:1022bc000000e00003003a00004080000000e8004d
:1022cc00004088005e6090000000fb00024080002f
:1022dc006c00b9008000780020e0200000804000f5
:1022ec00020878005e609000006f980020002000cb
:1022fc00501798007e089000601798000e10900000
:10230c009e10900070179800011f980010408000dc
:10231c000000e0002a013200134080004e60900063
:10232c00810220008e8040000101780041c0b30082
:10233c0003000100220137008ec8910040c4b30095
:10234c0080cf5000040032008ec89100b0c4b3009e
:10235c0080cf500024003a00a00320000e00400063
:10236c0043002000000178006ea09000fea09000b9
:10237c009d1907000004e00002013a002e7890003d
:10238c00607f98003e789000707f98003e789000b7
:10239c000004e00009003a002e7890000000fb00d9
:1023ac00ee189000688150006c00b9008000780035
:1023bc0040e02000008040000208780010408000bf
:1023cc000000e000f1003200134080002e789000f5
:1023dc00e10320008e8040000101780051c0b30061
:1023ec0003000100f60037008ec89100a0c4b300b2
:1023fc0080cf500015003a00400820000e0040002d
:10240c0043042000000178006ea09000fea0900014
:10241c00751907000004e000e9003a002040800034
:10242c000000e000e6003200254080002ea0900065
:10243c00bea09000440820000e0242000001be0025
:10244c000400780005000100dd0037008ec8910003
:10245c0060c4b30080cf5000080032008ec89100d9
:10246c0080c4b30080cf5000040032008ec89100ad
:10247c00d0c4b30080cf500060003a0060c0b300fd
:10248c00004f78008ec8910080c4b30080cf5000fc
:10249c0002003a0090c0b300004f78000001200009
:1024ac0030079800000420000e004000be01900090
:1024bc00000178006ea09000fea090004a19070061
:1024cc000004e000b3003a000000eb004007980065
:1024dc00cec89000214f9800fe2090004107980034
:1024ec002e4890000000fb006c00b90080007800c2
:1024fc0080e02000008040008040eb000148780024
:10250c00ce20900061079800de20900071079800a3
:10251c001e209000402f98002e209000be2090008e
:10252c00502f9800612f98002e4890000000fb005f
:10253c006c00b90000007800e4004000e0df2000ef
:10254c0000804000900078004e009000808f50007a
:10255c0092003a006e0090000000e0001800340079
:10256c00ee0090005ea09000808f500014003100af
:10257c007e0090008000eb006ea19000fea1900008
:10258c00020040008380480060a7980071a7980063
:10259c00ee00900031079800000520000e0040006e
:1025ac00be0190006ea29000fea290001e41780029
:1025bc00800078002e489000f90807008000370052
:1025cc00ee009000112f98000000eb00002f9800f7
:1025dc00104080000000e0007200320013408000c8
:1025ec00000520000e004000000178009e4078009d
:1025fc002e48900003000100710037008ec8910036
:10260c0050c4b30080cf5000080032008ec8910037
:10261c0070c4b30080cf5000040032008ec891000b
:10262c00c0c4b30080cf50002f003a0070c0b3007c
:10263c00104798008ec8910070c4b30080cf500032
:10264c0002003a0080c0b3001047980080062000ba
:10265c000e00400083002000000178006ea0900066
:10266c00fea09000e01807000004e0004f003a00c4
:10267c000000eb00100798008ee89000414798008e
:10268c00ee309000110798005e30900030379800c3
:10269c004e4090000000fb006c00b9000000780078
:1026ac00e4004000e0df2000008040009000780053
:1026bc001e009000808f50003e003a0010408000b9
:1026cc000000e0003d003200134080006006200056
:1026dc000e004000000178009e4090004e4090009b
:1026ec0003000100360037008ec8910020c5b300ee
:1026fc0080cf500032003a00000720000e0040004e
:10270c0043012000000178006ea09000fea0900014
:10271c00b51807000004e00029003a002e3990009b
:10272c00be3990005040800061408000800f510005
:10273c00818f59000d003a00404080000000e000fd
:10274c000a003200454080000e4191004e38900046
:10275c00de3890000e3b90009e3b900002427800c9
:10276c000001be000600be00050001000828ef00b5
:10277c0013003700000000001100370000000000bb
:10278c000f003700000000000d00370000000000b3
:10279c000b003700000000000900370000000000ab
:1027ac0007003700000000000500370000000000a3
:1027bc00030037000000000001003700000000009b
:0827cc000080fa000000060085
:020000040000fa
:1027d4000c00fa00204f9800c1408000f007200050
:1027e400808f50000d00360020002000ba1f070023
:1027f4001828ef002e489000be2207000004e000d5
:10280400030032001000200090408800d1003700ff
:102814003000200090408800ce00370090408000b7
:10282400e10f50000a003200e10f500005003900aa
:10283400e20f500078003200e30f5000b500320080
:10284400ba0037001828ef001000200090408800dc
:102854002e489000a72207000004e0000300320085
:10286400c04080000000e000b3003200c14080009e
:10287400f0072000808f5000050036003000200053
:102884009040880020002000931f0700b10037000b
:10289400c0408000e1c520002e499000827078007d
:1028a4000000e800c04088002e48900091220700f4
:1028b4000004e000a20032007c2407009f0d070002
:1028c400000f78001e0078000000e0004e003a007f
:1028d4001628ef00d0408000404090000004e00043
:1028e4002a0032001cc8bf000004e00023003200ac
:1028f4001cc8bf000080fb000000e900800040000d
:10290400e0cd20000080400010007800e80047007f
:102914000001eb00fbf8070000007800a0408800ed
:10292400a140800000402000808f50000600360047
:1029340000402000a040880040002000661f0700df
:102944001228ef00830037004e00900010407800fa
:102954000004e00005003a0080032900212007005c
:1029640020002000904088007a00370040002000ba
:10297400591f07001228ef007600370010002000ce
:10298400551f07001228ef0072003700d040800066
:10299400100290001cc8bf0063812000e285200063
:1029a400e1cd200004000100000f7800b040800059
:1029b4000000e00014003200804080000000e000cd
:1029c400110032000000eb001007980009003700e6
:1029d40081408000e28520001e009000000041003c
:1029e40010407800010001001e0090000000e80083
:1029f40010079800b04080009e009000808f500027
:102a0400f3ff3900292407001e007800321f070055
:102a14001228ef004f003700b04080000000e000b3
:102a240004003a002e489000322207000004e0001f
:102a340045003a00b1408000a0408000808f5000e3
:102a440007003100b04080002e499000e18520004d
:102a5400827078000000e800b04088003d00370034
:102a64002e489000232207000004e00024003200d6
:102a74000e240700d0408000100290001cc8bf0044
:102a840063812000e2852000e1cd200004000100e4
:102a940030079800b04080000000e00013003200ce
:102aa400804080000000e000100032000000eb00d5
:102ab400200798000900370081408000e28520004b
:102ac4002e00900000004100104078000100010039
:102ad4002e0090000000e80020079800b04080001d
:102ae400ae009000808f5000f3ff3900ef23070001
:102af4003e009000f81e07001228ef001500370072
:102b040040002000f41e07003000200090408800a0
:102b1400100037002e489000f62107000004e00062
:102b24000b0032001228ef000a00370030002000aa
:102b340090408800070037000000000005003700bf
:102b4400000000000300370000000000010037000f
:0c2b5400000000000080fa0000000600f5
:020000040000fa
:102b60000c00fa00604798007147980042079800ef
:102b7000530798006011b800c0002000c100200079
:102b8000131d07006011b800c008210001002000db
:102b90000f1d07006011b800c07a2000210020003e
:102ba0000b1d0700120020000300200080112100ef
:102bb00001002000371507000000e000020032008d
:102bc0000040eb00b000370002402000030020006e
:102bd00000402100010020002e1507000000e00049
:102be000030032000040eb00a700370000000000a7
:102bf0004001210001002000f51d0700e00f5000fa
:102c0000e08f5800f9ff3d00c07b2000210020002c
:102c1000ef1d07000001be00100020000100200091
:102c2000020278000301780080017800010078003a
:102c300003026200000061008000eb00c000dd00c4
:102c4000000020000001be006120b80000017100fa
:102c500081817100e00f5100e08f590021003a009e
:102c6000007d2000200798000c0037001000200095
:102c700001002000e91e0700c0002000c100200064
:102c8000d31d07000001be00e0092d00d10a21007c
:102c9000800f5100818f59000c0032002e009000ef
:102ca00000f0a7000000ea000000ea004f00de008c
:102cb00000407800ae0090008100e90021079800f4
:102cc0000004e000e9ff3a000100370000000000c6
:102cd0002e0090000000e00002003a000040eb00ef
:102ce000690037000010200001002000008fbe00a6
:102cf0006e4090000004e00006003200d2572d0024
:102d0000c3c12300c07a200021002000b01c0700ae
:102d1000040037007e4090000004e0000100320013
:102d20001e70a0004e019000de019000c00821003e
:102d300001002000a61c0700f00507000001be00ee
:102d4000f0ff20000100200002027800030178005b
:102d50008001780001007800030262000000610039
:102d60008000eb00c000dd00000020000001be007c
:102d70006120b8000001710081817100f0392000ec
:102d800001002000800f5100818f590001003600a2
:102d90001e10a0001e00be00901b070012f62200ad
:102da00023f52e00c0002000c1002000881c070071
:102db000007d200020079800270037002000200019
:102dc00001002000951e07006e4090000004a20044
:102dd0000004e00015003200c008210001002000be
:102de0007b1d07000001be0060632200312520002a
:102df000800f5100818f590017003a006011b80010
:102e0000c008210001002000711c07009c1d070064
:102e10000004a2000004e000020032000040eb00c9
:102e20001900370010c0b30017003700c07a200027
:102e300021002000661d07000001be00301c2c0090
:102e4000d1752d00800f5100818f590002003a008a
:102e500010c0b3000c0037002e00900000f0a70057
:102e60000000ea000000ea004f00de0000407800a9
:102e7000ae0090008100e900210798000004e00006
:102e8000ceff3a000040eb000080fa000000060090
:020000040000fa
:102e90003c00fa0020779800211f9800321f98000c
:102ea000431f9800541f9800100e2000000f780058
:102eb0000000eb00000f98000000eb0010079800e6
:102ec0000000eb00200798000000eb00300798009e
:102ed00000c2b300004f98000000eb0050079800bc
:102ee0000000eb00600798000000eb0070079800fe
:102ef0002e7090000004e000080032002e70900058
:102f0000e14f5000050032002e709000e24f50005b
:102f100002003200200e20008d0037002e7090003d
:102f2000e24f500005003a002e189000ef0f5000bd
:102f300002003600200e2000850037005e18900049
:102f40000000e00002003a000000eb0080003700c3
:102f50004e1890000000e00002003a00200e200011
:102f60007b0037007000470000017800ae18900029
:102f70002e70900047070700000f78001e007800b1
:102f80000000e0006e003a00be1890005e1890004d
:102f9000808040000e089000808f500002003600b4
:102fa000200e20006a0037003e1890004500de0029
:102fb000200798005d0037008e48900000c2b300e3
:102fc00080cf50000e003a008e0890002e00900036
:102fd0004500dd0000805000ff0f500008003e005b
:102fe00040c0b300004f98009e0090003e18900033
:102ff000008040004200de0067006000300798005b
:103000003e009000804078002e0090000040780044
:10301000720147008e4a90000202780081417800d8
:1030200000417800ae1890002e70900071080700e3
:10303000000f78001e0078000000e00042003a0017
:103040002e009000c300dd003e0090000080400094
:103050004200dd0070079800fe0090003e189000ce
:10306000808f500005003100be1890007e00900057
:103070000080500050079800020037000000eb006d
:1030800050079800de1890001e00900080805000cd
:103090000e4890000081fb005e009000000051008f
:1030a000808f500005003100de1890001e00900057
:1030b0000080500060079800050037000e4890001f
:1030c0008080fb005e009000008050006007980048
:1030d000f20047005e009000808040004e19900092
:1030e0001e009000000041006e01900065f6070090
:1030f0009e0090006e009000008040001007980035
:103100008e48900000c2b30080cf500004003a0007
:103110002e0090000000e800200798000300370010
:103120003e0090000000e800300798009e009000ec
:103130005e189000808f50009fff39000300370019
:103140000000000001003700000000001e007800b1
:083150000080fa0000000600f7
:020000040000fa
:103158005e080000a00400008000000010080000c5
:103168000e000000800000005e0f0000200000003c
:1031780082000000968f52005e165500885b9c0006
:103188008f5a5e0038559c005ba18f00625e5a0022
:1031980055b05b00a68f6a005e7c5500c25a0000dd
:1031a8004e0800000200000080000000be0f000072
:1031b8001a000000800000003e0800000600000021
:1031c800800000005008000002000000800000009d
:1031d8007e0f00002000000082000000225c280012
:1031e80059725b00cc4818004c545c00bc519e00de
:1031f8005da85d00b25dbc005dc65d00d05dda0013
:103208005dd85b0004560000380f0000260000005f
:103218008000000052080000020000008200000048
:10322800010000002c0800000a00000080000000d7
:103238004a08000004000000800000005408000054
:103248000200000080000000d40e00003c000000d6
:10325800820000002c000400001b0000080006008b
:103268000030000032001800003d000000002f0070
:103278000064000034000400001100000400130082
:10328800002c000004000400006500000400090090
:10329800006400002a0004000027000004003e002b
:1032a8000000000036080000080000008000000050
:1032b800fe0d0000840000008000000000080000ef
:1032c8001000000080000000560800000200000006
:1032d8008000000044080000060000008000000094
:1032e800100f00002800000082000000000003000a
:1032f80000b00200a08601000000000000000000ed
:1033080000000000000000000000000000000000b5
:103318000000000000000000001806001400000073
:10332800000000009e0f0000200000008000000048
:10333800580800000200000082000000ffff0000a3
:103348005a0800000200000080000000fe0c000087
:1033580000010000800000001e0800000e000000b0
:10336800800000005c0800000200000080000000ef
:10337800de0f00000200000080000000820e000046
:103388005200000082000000303132003334350032
:103398003637380039414200434445004600300082
:1033a8003132330034353600373839006162630012
:1033b8006465660000286e00756c6c0029000000ca
:1033c80001000000000a0000000064000000000086
:1033d800e8030000001027000000a000860100009c
:1033e80040420f000080960098000000e1f50500bb
:1033f80000ca9a003b000000d80f00000600000039
:0834080080000000000000003c
:020000040000fa
:103410001400fa00204f9800610798007207980086
:10342000030f9800140f9800100e2000000f780072
:103430000000eb00400798000000eb001007980028
:103440000000eb00200798000000eb003007980018
:103450002e4890000004e000080032002e48900042
:10346000e14f5000050032002e489000e24f50001e
:1034700002003200200e20008e0037002e489000ff
:10348000e24f500005003a006e009000ef0f500030
:1034900002003600200e2000860037001e08900033
:1034a0000000e00002003a000000eb00810037005d
:1034b0000e0890000000e00002003a00200e2000fc
:1034c0007c0037007e009000630060000000e00098
:1034d00004003a001e089000630060000000e00055
:1034e00002003200200e2000720037006800470002
:1034f00000017800ee0090002e489000e5050700de
:10350000000f78001e0078000000e00063003a0021
:10351000fe0090001e089000808040004e00900049
:10352000808f500002003600200e2000610037001e
:103530007e0090004500de00200798007e0090008d
:103540007f0060004200de00300798004e00370028
:103550003e0090000000e00022003a009e0890002b
:103560001e00900000805000ff0f50001d0036002c
:103570002e4890000004e00003003a002e00900066
:10358000e20f5000170032008e0890001e009000dd
:10359000808040002e0090000040780005c2b300fb
:1035a000010278008041eb0000417800ee009000bd
:1035b0002e4890007f100700000f78001e00780052
:1035c0000000e00037003a001e0090000002b0004a
:1035d000100798002e0090000000e80020079800d7
:1035e000290037002e4890000004e00006003a0051
:1035f0002e009000e20f500003003a003e009000c1
:10360000e50f5000120032008e0890001e0090005e
:10361000008140003e009000804078002e00900025
:103620000040780045c0b300020278008141780074
:1036300000417800ee0090002e4890005d100700d9
:10364000000f78001e0078000000e00017003a002c
:103650001e00900064004000100798003e0090009b
:103660000000e800300798003e009000e80f50008e
:1036700005003a002e0090000000e80020079800a6
:103680000000eb00300798009e0090001e0890009c
:10369000808f5000aeff39000500370000000000a9
:1036a00003003700000000000100370000000000a8
:0c36b0001e0078000080fa0000000600f8
:020000040000fa
:1036bc002c00fa004017980051179800100e2000ab
:1036cc00000f78000040eb00204798000040eb0012
:1036dc00304798000040eb00404798000040eb005a
:1036ec00504798000040eb00604798005e10900037
:1036fc000000e00002003a00200e2000830037009a
:10370c004e109000e70f5000030036004e10900052
:10371c00ef0f500002003600200e20007b00370017
:10372c000040eb00204798006700470005c2b3003b
:10373c0000027800be4190002e419000ce10900007
:10374c0020c0b300a8060700000f78001e00780008
:10375c000000e00067003a00c0c1b3005047980079
:10376c0040c0b300604798005e4090000081fb00b1
:10377c006e4090000080fb00e70047008080400016
:10378c004e4090000080fb00de1190000080410054
:10379c00b9f40700ce4090005e40900000c040009d
:1037ac004047980010c0b3002047980067004700be
:1037bc0005c2b30000027800be4190002e4190007b
:1037cc00ce10900020c0b30087060700000f7800d1
:1037dc001e0078000000e00048003a0040c0b30032
:1037ec00504798000040eb00604798005e40900006
:1037fc000081fb006e4090000080fb00e70047005a
:10380c00808040004e4090000080fb00de11900054
:10381c000080410098f40700ce4090005e4090007c
:10382c0000c040004047980080c0b300604798003b
:10383c0001c2b3006e40900000c050005047980089
:10384c005e4090000081fb006e4090000080fb0009
:10385c00e7004700808040004e4090000080fb0055
:10386c00de1190000080410083f40700ce409000f0
:10387c005e40900000c040004047980020c0b3005c
:10388c00204798006700470005c2b300000278008b
:10389c00be4190002e419000ce10900020c0b3008d
:1038ac0051060700000f78001e0078000000e000b1
:1038bc0014003a0080c0b300504798000040eb0061
:1038cc00604798005e4090000081fb006e409000c5
:1038dc000080fb00e7004700808040004e409000d5
:1038ec000080fb00de1190000080410062f40700b4
:1038fc000500370000000000030037000000000046
:10390c0001003700000000001e0078000080fa0063
:04391c0000000600a1
:020000040000fa
:103920000a00fa00004f9800f40207000001be00f0
:10393000f0ff20000100200002027800030178005f
:10394000800178000100780003026200000061003d
:103950008000eb00c000dd00000020000001be0080
:103960006120b8000001710081817100f0392000f0
:1039700001002000800f5100818f59007b0036002c
:103980006400470000017800004121000100200090
:10399000281b07000000e0000200320040cfb30007
:1039a000730037002e019000be019000f0ff280048
:1039b00081882f00020278000301780080017800de
:1039c0000100780003026200000061008000eb004b
:1039d000c000dd00000020000001be006120b80032
:1039e000000171008181710022079800330798005f
:1039f0002e019000be019000000021001111200056
:103a00000000710081807100200798003107980044
:103a10002e009000be0090000001be000041210079
:103a2000010020006a1907006011b8008020200002
:103a300011002000661907000e4890000004e00005
:103a400006003200b20a200003002000c02020003f
:103a5000110020005e19070005003700920b2000be
:103a600003002000c020200011002000581907008a
:103a7000120020000300200040212000110020003f
:103a8000531907006011b800c02120001100200068
:103a90004f190700120820000300200040202000da
:103aa000110020004a1907009e1f07000004e000d3
:103ab0000200320040cfb3002d0037000e01780025
:103ac0008021200011002000da1a07000000e00029
:103ad00007003a001e01be00100020000100200077
:103ae000800f5100818f5900f4ff3a000100370028
:103af000000000002e019000be019000f0ff2800a1
:103b000081882f000202780003017800800178008c
:103b10000100780003026200000061008000eb00f9
:103b2000c000dd00000020000001be006120b800e0
:103b3000000171008181710022079800330798000d
:103b40002e009000be0090000100a0002007980009
:103b5000310798002e009000be0090000001be00ca
:103b60000041210001002000191907000040eb006e
:083b70000080fa0000000600cd
:020000040000fa
:103b78001000fa00200798003107980042079800c3
:103b88005307980064079800750798004e00900046
:103b9800de009000c802dd00040020004e01900005
:103ba800de01900000f02f000100200002037800e1
:103bb80003017800800178000100780003036300a6
:103bc800000061008000eb00c000dd000000200064
:103bd8000001be006130b8000001710081817100f0
:103be8004818dd00c810de00810070004810dd00b4
:103bf80000027200818272004e019000de01900086
:103c080000002000f10f2000020378000301780073
:103c18008001780001007800030363000000610060
:103c28008000eb00c000dd00000020000001be00a5
:103c38006130b8000001710081817100481bdd000e
:103c48004810de0000007300c818de000001720092
:103c5800818172004e009000de0090004808de006e
:103c68000100200000007100818071004007980069
:103c7800510798004e009000de0090000010a00050
:103c880040079800510798006011b8008020200074
:103c980011002000cc1807004e019000de019000b2
:103ca800c020200011002000c7180700f2002000e3
:103cb800030020004021200011002000c218070046
:103cc8002e019000be019000c021200011002000ac
:103cd800bd1807006e019000fe019000f0ff2f0054
:103ce800f1002000020278000301780080017800ca
:103cf8000100780003026200000061008000eb0010
:103d0800c000dd00000020000001be006120b800f6
:103d18000001710081817100481add00c812de00bf
:103d2800850272004812dd004008200001002000d2
:103d380000007200818072000001be004020200057
:103d480011002000a01807000e0178008021200033
:103d580011002000351a07000000e00007003a00b3
:103d68001e01be001000200001002000800f51003d
:103d7800818f5900f4ff3a0001003700000000006d
:103d8800e61e07000004e0000200320040cfb30046
:103d9800010037000040eb000080fa000000060038
:020000040000fa
:103da8001000fa003007980042079800530798005f
:103db80064079800750798006e009000fe00900058
:103dc800e00f5000e08f580002003a0040cfb300e7
:103dd8006f0037004e019000de019000f00f2000c8
:103de80001002000020278000301780080017800b9
:103df8000100780003026200000061008000eb000f
:103e0800c000dd00000020000001be006120b800f5
:103e18000001710081817100120798002307980042
:103e28001e009000ae009000e00f5000e08f580098
:103e3800510032001e00900001102000008f500039
:103e48001e0078006101b8006e009000fe0090002e
:103e5800800f5100818f590002003600ee0090005b
:103e6800010f78009e0178003e0190004e009000fe
:103e7800de009000d01107000004e00002003200cc
:103e880040cfb300420037003e0090001e004000c3
:103e9800300798001e0078008000eb004e0190006b
:103ea800de0190000200400083804800400798002f
:103eb800510798001e0078008000eb006e0190000a
:103ec800fe019000000051008180590060079800b1
:103ed80071079800280037006e019000fe019000dd
:103ee800f00f200001002000800f5100818f590041
:103ef8000300360000102000000f78000200370091
:103f0800ee009000010f78009e0178003e019000bd
:103f18004e009000de009000a71107000004e000aa
:103f28000200320040cfb300190037003e00900075
:103f38001e004000300798001e0078008000eb004b
:103f48004e019000de01900002004000838048008e
:103f580040079800510798001e0078008000eb0089
:103f68006e019000fe019000000051008180590010
:103f780060079800710798006e009000fe0090009e
:103f8800e00f5000e08f5800d3ff3a000040eb00ec
:083f98000080fa0000000600a1
:020000040000fa
:103fa0001000fa0020079800310798004207980097
:103fb0005307980064079800750798004e0090001a
:103fc000de009000c802dd00040020004e019000d9
:103fd000de01900000f02f000100200002037800b5
:103fe000030178008001780001007800030363007a
:103ff000000061008000eb00c000dd000000200038
:104000000001be006130b8000001710081817100c3
:104010004818dd00c810de00810070004810dd0087
:1040200000027200818272004e019000de01900059
:1040300000002000f10f2000020378000301780047
:104040008001780001007800030363000000610034
:104050008000eb00c000dd00000020000001be0079
:104060006130b8000001710081817100481bdd00e2
:104070004810de0000007300c818de000001720066
:10408000818172004e009000de0090004808de0042
:10409000010020000000710081807100400798003d
:1040a000510798004e009000de0090006b007000f9
:1040b00040079800510798006e019000fe019000a3
:1040c0008020200011002000c11707004e01900041
:1040d000de019000c020200011002000bc17070066
:1040e000520a2000030020000021200011002000bf
:1040f000b7170700f2012000030020004021200034
:1041000011002000b21707002e019000be019000a0
:10411000c021200011002000ad1707005208200028
:10412000030020004020200011002000a8170700f5
:104130000e01780080212000110020003d190700a9
:104140000000e00007003a001e01be001000200041
:1041500001002000800f5100818f5900f4ff3a00c8
:104160000100370000000000ee1d07000004e00021
:104170000200320040cfb300010037000040eb00e6
:084180000080fa0000000600b7
:020000040000fa
:104188000800fa0020079800310798002e009000d8
:10419800be009000c802dd00040020002e0190003f
:1041a800be01900000f02f000100200002037800fb
:1041b80003017800800178000100780003036300a0
:1041c800000061008000eb00c000dd00000020005e
:1041d8000001be006130b8000001710081817100ea
:1041e8004818dd00c810de00810070004810dd00ae
:1041f80000027200818272002e019000be019000c0
:1042080000002000f10f200002037800030178006d
:10421800800178000100780003036300000061005a
:104228008000eb00c000dd00000020000001be009f
:104238006130b8000001710081817100481bdd0008
:104248004810de0000007300c818de00000172008c
:10425800818172002e009000be0090004808de00a8
:104268000100200000007100818071002007980083
:10427800310798002e009000be0090000050a0006a
:1042880020079800310798006011b80080202000ae
:10429800110020004c1707002e019000be0190006d
:1042a800c02020001100200047170700f20020005e
:1042b80003002000402120001100200042170700c1
:1042c8006011b800c0212000110020003e1707002f
:1042d8004208200003002000402020001100200098
:1042e800391707000e0178008021200011002000f6
:1042f800ce1807000000e00007003a001e01be00cb
:104308001000200001002000800f5100818f59000b
:10431800f4ff3a0001003700000000007f1d07008d
:104328000004e0000200320040cfb3000100370073
:0c4338000040eb000080fa0000000600ce
:020000040000fa
:104344001000fa0060079800710798001000200020
:10435400010020003007980041079800204e2000fb
:104364000100200010079800210798007e009000ab
:1043740010009000d3170700000f78001e0078008b
:104384000000e0004f003a006e00900010409000e2
:104394000081fb00ee0090007e0090001000900071
:1043a400471c0700000f78001e0078000000e000a2
:1043b40046003a003e009000ce009000961a070096
:1043c4006e00900066004000020c20008000eb00ac
:1043d400b2f10700000c2000500798006e00900016
:1043e400e60040007e009000100090006a01470043
:1043f4003f1c0700000f78001e0078000000e0005a
:10440400140032002000200001002000821a07005e
:104414009e0090002e0090000100700000f0a700a4
:104424000000ea000000ea004f00de0000417800ce
:104434001e009000ae00900061005000e080580023
:1044440010079800210798000204e000dcff3a00fe
:1044540001003700000000001e0078000000e000aa
:104464001c003a005e009000e30f500009003e007b
:104474005e0090000000e00003003200600e2000a7
:10448400000f780016003700700e2000000f78002f
:10449400130037006e00900066004000021507000c
:1044a400000f78001e0078000000e0000b003a00c6
:1044b4006e00900066004000400a0700000f78007c
:1044c400070037000000000005003700000000006e
:1044d4000300370000000000010037000000000066
:1044e4007e009000100090009c1b07001e007800c6
:0844f4000080fa000000060040
:020000040000fa
:1044fc000400fa005042800061428000e00f50003e
:10450c00e08f58000300320050428000614280006e
:10451c005b0037000e017800403f210001002000b5
:10452c00411807000000e000020032006000b800f3
:10453c0053003700a284200000002100010020005d
:10454c00391807000000e000020032006000b800db
:10455c004b0037005242800063428000002a20004a
:10456c0001012000800f5100818f59000b003a008f
:10457c001e01be001000200001002000800f510021
:10458c00818f590021003200102a200001012000e7
:10459c0050428800614288001c0037005242800063
:1045ac0063428000002b200001012000800f51008d
:1045bc00818f590015003a001e01be00300020000a
:1045cc0001002000800f5100818f59000f00320034
:1045dc001e01be004000200001002000800f510091
:1045ec00818f590005003a00102b2000010120009a
:1045fc00504288006142880004003700202b2000c4
:10460c000101200050428800614288005242800023
:10461c0063428000f0ff2f0001ff2f0002027800a0
:10462c000301780080017800010078000302620029
:10463c00000061008000eb00c000dd0000002000e5
:10464c000001be006120b800000171008181710081
:10465c0052428800634288005242800063428000cc
:10466c0000002000510020000000710081807100ca
:10467c0050428800614288005042800061428000b4
:08468c000080fa0000000600a6
:020000040000fa
:104694007400fa0040ef980071379800023f9800c8
:1046a400133f980040ed2000000f780032003700df
:1046b4001e007800900078004ee890000080fb0017
:1046c400808f50002a003a001e00780010009000ed
:1046d4000000e0000a0032001e0078009000900004
:1046e4000e80e80081017800000178000e38900007
:1046f4009e389000be1007000004e00045003a0018
:10470400c04180000000e000210032001e0078005b
:10471400100090000000e00010003200cee890008d
:1047240040c3b30080cf5000060032004ee8900032
:10473400f14f500003003a003a68ef002e40900019
:1047440036e8b700c24180000e80e800800078009f
:104754004ee89000020001000e003700c2418000c4
:104764008000eb004ee890000200010009003700d1
:104774009e007800648f40001e007800900078004e
:10478400e0032000808f5000c9ff3a000100370089
:1047940000000000cee8900000c2b30080cf5000bb
:1047a4001d003a00600620000e0040006300200057
:1047b400000178000e3890009e3890008c1007009d
:1047c4000004e00014003a00ce3190003e31900025
:1047d4000e3890009e38900066004000e08048004b
:1047e400831007000004e0000b003a00c041800081
:1047f4000000e00008003200c24180006006200092
:104804000e0040008000780000c2b30002000100e6
:1048140001003700000000000080fa0000000600dc
:020000040000fa
:104824001600fa006007980071079800020f9800bc
:10483400130f98004457980064004700100798002d
:104844006e019000fe019000000320000100200092
:10485400800f5100818f59000a003e0030ccb30014
:104864004047980000c8b3005047980070002000eb
:10487400000f78001e0090000080e80010079800e8
:104884001400370090ccb300404798006e009000ad
:10489400fe0090004008de00004078005047980079
:1048a4006e009000fe0090004809dd004800de0024
:1048b40000007100c808de000040780060479800de
:1048c40080002000000f78001e009000630040006c
:1048d400100798006e009000804078001e00900041
:1048e400014878001e0090000001e8000e089000c6
:1048f4009e0890004808de000040780000497800d7
:104904001e0090000081e8000e0890009e089000b0
:104914004008de0000407800004978001e00900046
:10492400630140000e0890009e089000c809dd0055
:104934004800de0000807100c808de0000407800f6
:10494400004978001e009000640040008e0890002a
:1049540081407800014878004e5090000004e00047
:1049640007003200640047009e0078009617070095
:104974000000e000090032001000200008003700a9
:10498400640047009e007800531907000000e0000f
:1049940002003a0010002000010037000000eb0084
:0849a4000080fa00000006008b
:020000040000fa
:1049ac001000fa004047980031079800024f980019
:1049bc005407980065079800730798004e409000c4
:1049cc000000fb006c00b90080007800e0df2000e4
:1049dc0000804000100798007e0090000000e0006e
:1049ec004f0032001e009000100078000000e00024
:1049fc004b0032001e009000100090000000e00000
:104a0c00470032001e00900000489000e14f50001b
:104a1c0043003a003e009000fe00900021009800f8
:104a2c00fe009000010f78001e0090009000900096
:104a3c007e009000808f5000030031001e0090001b
:104a4c0090009000010f78001e009000100078007c
:104a5c009e017800000178005e009000ee0090004e
:104a6c00e10f07000004e0002a003a001e0090004d
:104a7c00900078003e009000010878009e007800bd
:104a8c003e009000110098003e0090002000900025
:104a9c009e0050003e0090002100980010408000c5
:104aac000000e00005003200134080003e01900041
:104abc008e4890004e409000030001007e00900054
:104acc001e005000700798001e0078008000eb005c
:104adc005e019000ee0190000200400083804800cf
:104aec0050079800610798001e0090000048900045
:104afc000004e00003003a007e0090000000e0009b
:104b0c0006003a007e0090000000e000c4ff3a006e
:104b1c000300370000000000010037000000000017
:084b2c000080fa000000060001
:020000040000fa
:104b3400d600fa0060cf990001af980012af980038
:104b440023af9800f041800090007800110798008e
:104b5400100e2000000f78006ec8910063406000c2
:104b640040479800eec89100114f98008ea890001d
:104b7400510798004e4090000004e000030032000a
:104b84004e409000e14f500006003a006600470096
:104b940066004000420120009ea89000b8ef070084
:104ba400170037004e409000e34f500012003a00c7
:104bb4006ec891008080fb0000022000008060002d
:104bc4000000e00006003200660047006600400076
:104bd400020420009ea89000a9ef070008003700f7
:104be4006600470066004000020220009ea8900074
:104bf400a3ef070002003700200e20002200370038
:104c040066004700800078001e009000f40e070044
:104c1400000f78001e0078000000e00016003a0043
:104c2400f141800066004700c5fd0700000f7800d1
:104c34001e0078000000e00011003a002ea8900049
:104c44000000e0000f003200ce48900020c2b30004
:104c540080cf50000b00360066004700660040001d
:104c64000000e80002022000800078002ea89000d6
:104c740083ef070003003700000000000100370045
:104c8400000000001e0078000080fa00000006000a
:020000040000fa
:104c94000800fa002047980021079800320798007e
:104ca4000000eb00000f78003e0090000000e000e0
:104cb40002003a00200e20004a003700f041800034
:104cc4001000900010009000100090000000e00020
:104cd40018003a002e4090000080fb00e10f5000c5
:104ce40008003200e20f50000a0032000000e00029
:104cf4000d003a003e009000810520000108780074
:104d0400370037003e0090000104200001087800bd
:104d1400330037003e0090000102200001087800b3
:104d2400000000002e003700200e2000000f780045
:104d34002b0037002e4090000080fb00e10f500054
:104d440008003200e20f50000a0032000000e000c8
:104d540020003a003e00900001082000010878007d
:104d64001f0037003e009000010420000108780075
:104d74001b0037002e009000e70f500004003e0097
:104d84003e00900041022000010878001400370022
:104d94002e009000e80f500004003a003e009000fe
:104da400011a2000010878000d0037002e00900041
:104db400ef0f500004003e003e00900081042000ec
:104dc4000108780006003700200e2000000f78004c
:104dd40003003700200e2000000f780000000000c0
:0c4de4001e0078000080fa0000000600ad
:020000040000fa
:104df0000e00fa00400798005107980062079800db
:104e00004e019000de019000f00f20000100200014
:104e1000800f5100818f59000d003e0040ccb3003f
:104e20004047980000c8b300504798004e019000da
:104e3000de0190004818dd00c810de00810070001f
:104e40004810dd0040079800510798000700370020
:104e5000a0ccb300404798004e009000de009000c8
:104e60004008de0000407800504798004e00900057
:104e7000de0090004809dd004800de0000007100ff
:104e8000c808de0000407800604798004e0090009f
:104e900000407800704798006400470041002000ff
:104ea0004a1607000000e000020032001000200057
:104eb00024003700410020000e0078001810070081
:104ec0000000e00002003200100020001d0037004a
:104ed0001e4078000081fb008001eb001e40900026
:104ee0000082fb008002eb004828dd00c820de00c5
:104ef000810070004820dd00000171008181710097
:104f00002e4090000080fb008000eb00c000dd0020
:104f10000000200000017100818171003e4090007e
:104f20000080fb008000eb00c800dd0000002000d6
:104f300000007100818071006e0190000089be0048
:0c4f40000000eb000080fa0000000600fa
:020000040000fa
:104f4c000800fa0020079800614798000040eb0029
:104f5c00004f78000040eb00104798001cc8bf00c1
:104f6c000080fb0080004000e0cd2000008040006d
:104f7c00ae009000010878003d0037001e80fb0059
:104f8c00ae0090000080400010407800e50d070056
:104f9c00204798001e80fb00ae009000008040006f
:104fac00ae409000014878002e409000cf180700ca
:104fbc000004e0000f0032001e4090000004e000ee
:104fcc0002003a0010002000310037001e80fb0068
:104fdc00ae009000008040008040eb00014878005b
:104fec001cc8bf000040e8001ce8b7000000eb0044
:104ffc0027003700ae409000c0c2b30080cf5000f5
:10500c0017003a001e4090000004e00002003a0035
:10501c00100020001e0037001e80fb00ae00900028
:10502c00008040008040eb00014878001cc8bf00a5
:10503c000040e8001ce8b7001cc8bf000080fb0063
:10504c009e80fb008100e8002e0190008100410051
:10505c0000014000e0cd2000000041000108780074
:10506c001e4090000040e800104798001e4fe800da
:10507c006e4090009e40780080cf500003003100bd
:10508c001cc8bf00ee4f5000bcff360010002000c3
:08509c000080fa00000006008c
:020000040000fa
:1050a4000800fa00300798009f150700441b07000a
:1050b400131b070010c0b300b0160700141b070031
:1050c4000040eb009c160700091b0700100020009d
:1050d40001002000401707000040eb00a71607005e
:1050e400071b070010002000010020003a170700ea
:1050f40010c0b300a116070010002000010020001a
:10510400351707000000eb00000f78000b00370094
:105114000040eb0099160700100020000100200059
:105124002d17070010c0b3009416070010002000cc
:1051340001002000281707001e0fe8001e00780059
:10514400e70f5000f2ff34000040eb007a1607002e
:10515400e71a070010002000010020001e170700b6
:10516400e71a070010002000010020001a170700aa
:10517400eb1a0700ce120700100798001e009000db
:10518400e20f500011003a003e0090007110070039
:10519400c7120700100798001e009000e20f50008d
:1051a4000a003a00c0762000010020001a17070008
:1051b400bf120700100798001e009000e20f500075
:1051c40002003a00100f2000070037000040eb00f7
:1051d4004047980050c8bf00e40047001200200078
:1051e4004e1407000000eb000080fa0000000600e7
:020000040000fa
:1051f400d800fa0060cf990001af980022d7990037
:1052040033d7990024af980065d79900f041800006
:105214009000780011079800100e2000000f78000d
:105224002ea890000000e00002003a00200e2000aa
:105234003f0037006ed09100e44f5000060032006a
:10524400eed0910000c2b30080cf500002003200c3
:10525400200e200036003700c00c20000e00400055
:1052640000027800bed191002ed191008ea890004a
:105274006ec891000a020700000f78001e00780033
:105284000000e00024003a00eed0910000c2b30018
:1052940080cf500003003a006ec891000074a00053
:1052a40060cf9900eec89100714798006ea09000fd
:1052b4004007980064004700800078001e009000ba
:1052c400aa170700000f78001e0078000000e00015
:1052d40013003a00f14180006400470018fc070005
:1052e400000f78001e0078000000e0000e003a0075
:1052f4006ed091008080fb0064004700660040008f
:105304000000e80001017800800078002ea89000d9
:10531400dbed070005003700000000000300370044
:105324000000000001003700000000001e007800ab
:085334000080fa0000000600f1
:020000040000fa
:10533c001400fa006007980071079800020f98009b
:10534c00130f9800e4004700020009008018eb00de
:10535c008058eb0080ccb3004047980052c8bf0087
:10536c000004e00002003200100020004000370072
:10537c0010c0b30052e8b7006e009000fe00900021
:10538c004008de0000407800504798006e00900006
:10539c00fe0090004809dd004800de0000007100ae
:1053ac00c808de0000407800604798006e0090004e
:1053bc0000407800704798000040eb00004f9800c8
:1053cc001e089000e10f500005003a000040eb0071
:1053dc00104f980020c0b300204f980007003700f2
:1053ec001e0890004800de0000407800104f980026
:1053fc001e08900000407800204f98006400470081
:10540c0071002000ee1407000000e00002003200e2
:10541c0010002000160037001e089000e10f50000d
:10542c0008003a000e80e80021002000b90e0700a9
:10543c00000f7800ae4090000e08900001487800f4
:10544c00040037009e0890000e089000b10e070073
:10545c00000f78001e0078000000e000020032000f
:10546c0010002000020037005268ef000000eb0033
:08547c000080fa0000000600a8
:020000040000fa
:105484001200fa00204f98006107980072079800f4
:10549400030f98000000eb00000f78000040eb00c1
:1054a400204798006000b800200798003107980052
:1054b4000000eb00400798008e0890007e009000ea
:1054c400fd1407000004a2000004e0000200320002
:1054d400500020003a003700e8004700640047000d
:1054e4008101780000017800ee0090002e489000c1
:1054f400e5160700000f78001e0078000000e000a9
:10550400050032000e0890008000eb0001087800ce
:105514001e0078002a0037000e0890001000780062
:105524000000e000060032000e08900090007800b1
:105534004e00900000004000808f500005003200b3
:105544000e0890008000eb00010878005000200055
:105554001b0037000e089000100078007e019000b8
:10556400fe009000fc0807000e0890008000eb008d
:105574000108780010c0b3002c0907004e00900009
:105584006101b8002e009000be0090000202be002f
