:020000040000fa
:080000000001040000000000f3
:020000040000fa
:040008008e02000064
:020000040000fa
:04000c00d00200001e
:020000040000fa
:0400100010030000d9
:020000040000fa
:04001400ae02000038
:020000040000fa
:04001800f0020000f2
:020000040000fa
:04001c0008040000d4
:020000040000fa
:0400200008040000d0
:020000040000fa
:0400240008040000cc
:020000040000fa
:0400280008040000c8
:020000040000fa
:04002c0008040000c4
:020000040000fa
:0400300008040000c0
:020000040000fa
:0400340008040000bc
:020000040000fa
:0400380008040000b8
:020000040000fa
:04003c0008040000b4
:020000040000fa
:0400400008040000b0
:020000040000fa
:0400440008040000ac
:020000040000fa
:0400480008040000a8
:020000040000fa
:04004c0008040000a4
:020000040000fa
:0400500008040000a0
:020000040000fa
:040054008c03000019
:020000040000fa
:040058003003000071
:020000040000fa
:04005c000804000094
:020000040000fa
:040060000804000090
:020000040000fa
:04006400080400008c
:020000040000fa
:040068000804000088
:020000040000fa
:04006c000804000084
:020000040000fa
:040070000804000080
:020000040000fa
:040074005402000032
:020000040000fa
:040078000804000078
:020000040000fa
:04007c000804000074
:020000040000fa
:040080000804000070
:020000040000fa
:04008400080400006c
:020000040000fa
:040088000804000068
:020000040000fa
:04008c000804000064
:020000040000fa
:040090000804000060
:020000040000fa
:04009400080400005c
:020000040000fa
:040098000804000058
:020000040000fa
:04009c000804000054
:020000040000fa
:0400a0000804000050
:020000040000fa
:0400a400080400004c
:020000040000fa
:0400a8000804000048
:020000040000fa
:0400ac000804000044
:020000040000fa
:0400b0000804000040
:020000040000fa
:0400b400080400003c
:020000040000fa
:0400b8000804000038
:020000040000fa
:0400bc000804000034
:020000040000fa
:0400c0000804000030
:020000040000fa
:0400c400080400002c
:020000040000fa
:0400c8000804000028
:020000040000fa
:0400cc000804000024
:020000040000fa
:0400d0000804000020
:020000040000fa
:0400d400080400001c
:020000040000fa
:0400d8000804000018
:020000040000fa
:0400dc000804000014
:020000040000fa
:0400e0000804000010
:020000040000fa
:0400e400080400000c
:020000040000fa
:0400e8000804000008
:020000040000fa
:0400ec000804000004
:020000040000fa
:0400f0000804000000
:020000040000fa
:0400f40008040000fc
:020000040000fa
:0400f80008040000f8
:020000040000fa
:0400fc0008040000f4
:020000040000fa
:0401000008040000ef
:020000040000fa
:0401040008040000eb
:020000040000fa
:0401080008040000e7
:020000040000fa
:04010c0008040000e3
:020000040000fa
:0401100008040000df
:020000040000fa
:0401140008040000db
:020000040000fa
:0401180008040000d7
:020000040000fa
:04011c0008040000d3
:020000040000fa
:0401200008040000cf
:020000040000fa
:0401240008040000cb
:020000040000fa
:0401280008040000c7
:020000040000fa
:04012c00f2030000da
:020000040000fa
:0401300008040000bf
:020000040000fa
:0401340008040000bb
:020000040000fa
:0401380008040000b7
:020000040000fa
:04013c0008040000b3
:020000040000fa
:0401400008040000af
:020000040000fa
:0401440008040000ab
:020000040000fa
:0401480008040000a7
:020000040000fa
:04014c0008040000a3
:020000040000fa
:04015000080400009f
:020000040000fa
:04015400080400009b
:020000040000fa
:040158000804000097
:020000040000fa
:04015c000804000093
:020000040000fa
:04016000080400008f
:020000040000fa
:04016400080400008b
:020000040000fa
:040168000804000087
:020000040000fa
:04016c000804000083
:020000040000fa
:04017000080400007f
:020000040000fa
:04017400080400007b
:020000040000fa
:040178000804000077
:020000040000fa
:04017c000804000073
:020000040000fa
:04018000080400006f
:020000040000fa
:04018400080400006b
:020000040000fa
:040188000804000067
:020000040000fa
:04018c000804000063
:020000040000fa
:04019000080400005f
:020000040000fa
:04019400080400005b
:020000040000fa
:040198000804000057
:020000040000fa
:04019c000804000053
:020000040000fa
:0401a000080400004f
:020000040000fa
:0401a400080400004b
:020000040000fa
:0401a8000804000047
:020000040000fa
:0401ac000804000043
:020000040000fa
:0401b000080400003f
:020000040000fa
:0401b400080400003b
:020000040000fa
:0401b8000804000037
:020000040000fa
:0401bc000804000033
:020000040000fa
:0401c000080400002f
:020000040000fa
:0401c400080400002b
:020000040000fa
:0401c8000804000027
:020000040000fa
:0401cc000804000023
:020000040000fa
:0401d000080400001f
:020000040000fa
:0401d400080400001b
:020000040000fa
:0401d8000804000017
:020000040000fa
:0401dc000804000013
:020000040000fa
:0401e000080400000f
:020000040000fa
:0401e400080400000b
:020000040000fa
:0401e8000804000007
:020000040000fa
:0401ec000804000003
:020000040000fa
:0401f00008040000ff
:020000040000fa
:0401f40008040000fb
:020000040000fa
:0401f80008040000f7
:020000040000fa
:0401fc0008040000f3
:020000040000fa
:100200002f9221000e7f24000e01880000000000c4
:10021000000020000000e000020032000001200089
:100220002002880014000700970107000000e0008a
:1002300003003a00c0092600010020000200370038
:100240000000200001002000810f7000010032003a
:1002500014000700000020000000e000020032004f
:1002600000000200000000007e5d020000000000af
:100270000040da000000fe004440a9000002200017
:100280000000e00003003200002020009001880000
:100290004440a800000006008a1f78008b1f7800e9
:1002a00000000600a1028800800478000000eb0036
:1002b0001f003700e284440054a0b4009905ba003e
:1002c000e284440054a0b4009906ba00e2844400d9
:1002d00054a0b4000006eb00476fde00fd07b2003b
:1002e000ae018800636ce10003003a00eaff0700fa
:1002f0000000eb000e003700606ce10008003a00df
:10030000004deb000a05e800020039003420ec0043
:100310000af0a0008b05e900f9ff3e000400370059
:100320006168e100010032000086eb000b0007006d
:1003300019c7ba001905ba000e04e00003003a001c
:100340000a00e000dbff3a0000000600fe07b200f2
:10035000ae0288008a047800f5ff37000cd0a300b5
:10036000e20f4d001c00390089027800354dba00bb
:100370000a05e800020039003420ec000af0a00071
:100380008b05e9000f003200254dba000a05e80090
:10039000020039003420ec000af0a0008b05e900cf
:1003a000080032000c00e0000600320015cdba0053
:1003b0000a05e800020039003420ec000af0a00031
:1003c0008b05e9008984e80054a0b4000b00e0002c
:1003d000e2ff3a00000006009902ba00055d7800cd
:1003e0008b05e900f7ff3200c82ade00055d7800c2
:1003f0008b05e900f3ff32000c00e000f1ff320052
:1004000019ddba00eeff37009a5b0400000000001f
:10041000fa61040000000000f85b04000000000026
:10042000125c040000000000445c040000000000b6
:10043000725c040000000000a25c040000000000e8
:10044000ae5c040000000000d45c0400000000006a
:10045000b85c0400000000004c54040000000000e0
:10046000de420400000000003243040000000000ef
:1004700030150400000000005e5104000000000080
:10048000b406040000000000685f040000000000e3
:100490009a4e040000000000b84e04000000000066
:1004a000325d0400000000003600f800809fbe00ae
:1004b000829fbe00849fbe00869fbe000000fa009f
:1004c00050048000680060000000e0000c00320072
:1004d0008133800000002100008060000000e00007
:1004e00006003200004280000000e00002003200fe
:1004f00000428000000001007186a9008a60a90006
:100500000080fa004f03be004f02be004f01be0044
:100510004f00be003600f900004006003600f8002b
:10052000809fbe00829fbe00849fbe00869fbe004b
:100530000000fa008020a9000000eb00ca2f07008d
:100540000080fa004f03be004f02be004f01be0004
:100550004f00be003600f900004006003600f800eb
:10056000809fbe00829fbe00849fbe00869fbe000b
:100570000000fa00c12f07008040a90010002000f1
:10058000b92f07000080fa004f03be004f02be00e3
:100590004f01be004f00be003600f90000400600cb
:1005a0003600f800809fbe00829fbe00849fbe0080
:1005b000869fbe000000fa008060a9002000200095
:1005c000a92f07000080fa004f03be004f02be00b3
:1005d0004f01be004f00be003600f900004006008b
:1005e0003600f800809fbe00829fbe00849fbe0040
:1005f000869fbe000000fa008080a9003000200025
:10060000992f07000080fa004f03be004f02be0082
:100610004f01be004f00be003600f900004006004a
:100620003600f800809fbe00829fbe00849fbe00ff
:10063000869fbe000000fa008600a900700020001e
:10064000892f07000080fa004f03be004f02be0052
:100650004f01be004f00be003600f900004006000a
:100660003600f800809fbe00829fbe00849fbe00bf
:10067000869fbe000000fa00d0408000000001000c
:10068000b1408000a0408000808f500002003a00fe
:100690009980a900190037008980a900100037004f
:1006a000b0408000904078008180fb00e11c880011
:1006b0000000e800b0408800b14080005091210067
:1006c000808f500002003a00c0902100b0408800a6
:1006d000b1408000a0408000808f500006003200b2
:1006e000d11c800000202000008060000000e0009d
:1006f000ebff320001003700000000000080fa002c
:100700004f03be004f02be004f01be004f00be00af
:100710003600f900004006003600f800809fbe0059
:10072000829fbe00849fbe00869fbe000000fa002c
:10073000e0408000000001008960a9001e00370031
:1007400080408000f11c80008140780001487800e2
:1007500081408000d0912100808f5000090032003c
:10076000804080008000e80090408000808f500032
:1007700004003200804080000000e80080408800d3
:100780000d00370081408000d0912100808f500003
:1007900007003a009140800050912100808f500066
:1007a0000300320050912100804088000200370091
:1007b00010c0b30018e8b700d01c800061006000d2
:1007c0000000e000deff3a000080fa004f03be00a8
:1007d0004f02be004f01be004f00be003600f900c0
:1007e00000400600801f78000000fa00d01c800046
:1007f000620060000000e000010032009a23a900be
:100800009020a9000080fa004f0078000040060008
:100810000040da000000fe000a00fa0020079800fd
:100820003107980042079800be0090001107980019
:100830000000eb00000f78000c0037000000000003
:10084000842507000004a2000004e000fcff3a0039
:100850001e009000104078009e0090008100e8008b
:10086000110798005b2507001e0fe8004e0090005e
:100870009e007800808f5000f0ff39004e009000fd
:100880000080fa00000006000000050002000700da
:100890000400be00000006006022b800060220002e
:1008a0000000d0008180d2000482d2008582d20074
:1008b0000000a0000202520083825a0003003100af
:1008c0000202420083824a000000a1000603e90000
:0808d000f3ff3a0000000600ee
:020000040000fa
:1008d80000090000121b0000242d0000363f000014
:1008e800484100005a5300006c6500007e77000004
:1008f800191000000b0200003d3400002f260000f4
:1009080051580000434a0000757c0000676e0000e3
:10091800323b000020290000161f0000040d0000d3
:100928007a730000686100005e5700004c450000c3
:100938002b220000393000000f0600001d140000b3
:10094800636a000071780000474e0000555c0000a3
:10095800646d0000767f000040490000525b000093
:100968002c2500003e370000080100001a13000083
:100978007d7400006f660000595000004b42000073
:10098800353c0000272e000011180000030a000063
:10099800565f0000444d0000727b00006069000053
:1009a8001e1700000c0500003a3300002821000043
:1009b8004f4600005d5400006b6200007970000033
:1009c800070e0000151c0000232a00003138000023
:1009d80041480000535a0000656c0000777e000013
:1009e800090000001b1200002d2400003f36000003
:1009f800585100004a4300007c7500006e670000f3
:100a080010190000020b0000343d0000262f0000e2
:100a1800737a000061680000575e0000454c0000d2
:100a28003b320000292000001f1600000d040000c2
:100a38006a630000787100004e4700005c550000b2
:100a4800222b000030390000060f0000141d0000a2
:100a5800252c0000373e000001080000131a000092
:100a68006d6400007f760000494000005b52000082
:100a78003c3500002e270000181100000a03000072
:100a8800747d0000666f000050590000424b000062
:100a9800171e0000050c0000333a00002128000052
:100aa8005f5600004d4400007b7200006960000042
:100ab8000e0700001c1500002a2300003831000032
:100ac800464f0000545d0000626b00007079000022
:020000040000fa
:100ad8009a5b0000fa610000f85b0000125c0000fd
:100ae800445c0000725c0000a25c0000ae5c000088
:100af800d45c0000b85c0000200100000200000087
:100b080000000000200100000100000000000000bb
:020000040000fa
:100b18001600fa00204f980061079800624f98006d
:100b2800040f9800150f9800230f98002e089000c6
:100b38000000e000880032002e4890000000fb0012
:100b48006c00b90080007800e0842100008040003b
:100b5800100078000000e0007f0032002e4890006e
:100b68000000fb006c00b900000078008080e800fd
:100b7800e084210000804000100078000000e000c0
:100b8800750032002e4890000000fb006c00b90090
:100b980000007800e8004000e08421000080400068
:100ba80010407800e14f50006b003a000e099000a9
:100bb8009e099000028fbe006e009000ae09900062
:100bc8002300980010c0b30060479800ae0890005a
:100bd800210798002e4890000000fb006c00b90027
:100be800000078008080e800e08421000080400058
:100bf80010007800ae009000008050004007980078
:100c08004e0090000000e0000b0034000040eb00b4
:100c1800604798002e4890000000fb006c00b90067
:100c2800000078008080e800e08421000080400017
:100c380010017800220798002e4890000000fb0061
:100c48006c00b90080007800e0842100008040003a
:100c5800100078006e429000ae019000000178000c
:100c68001e00be00342107000004e00039003a00ed
:100c78002e4890000000fb006c00b900800078004e
:100c8800e084210000804000900078006e00900011
:100c980001087800ae0090006e00900011009800e6
:100ca8006e009000a00090002e0090008080500000
:100cb8006e00900021009800304080000000e000a5
:100cc80005003200334080006e019000ee4890002d
:100cd8002e48900003000100ae0890002e009000fe
:100ce80000805000200f98002e0090008000eb003c
:100cf8001e0f40005e9748002e4890000000fb0041
:100d08006c00b90000007800e8004000e084210091
:100d180000804000104078000004e00009003a001c
:100d28002e0890000000e0000600320014c0b30056
:100d38008001eb000001eb006000b800fe20070016
:100d4800050037002e0890000000e0009dff3a00e3
:100d580001003700000000000080fa0000000600d3
:100d6800d000fa0000cf990051a7980062a7980018
:100d780073a798008ec8910010c4b30080cf5000ac
:100d8800040032008ec8910040c5b30080cf5000e7
:100d980015003a00700047000042eb0043002000b5
:100da800000178006ea09000fea09000e2200700ed
:100db8000004e00095013a001e509000405798004a
:100dc800304080000000e000920132003340800093
:100dd8000e509000f40047000101780011c0b300e4
:100de800030001009c0137008ec8910020c4b300a5
:100df80080cf500015003a00760047000042eb0013
:100e080043002000000178006ea09000fea0900032
:100e1800c92007000004e0008f013a007e509000ce
:100e2800205f9800304080000000e0008a01320016
:100e3800334080006e509000fa00470001017800ae
:100e480021c0b30003000100830137008ec8910060
:100e580030c4b30080cf500052003a007c004700f5
:100e68000042eb00c3002000000178006ea0900053
:100e7800fea09000b02007000004e00076013a00d0
:100e88005e6090000004e000310035005e60900074
:100e98008001fb004e6090000000fb006c00b90070
:100ea80000007800e8004000e08421000080400055
:100eb800104190006c18b90080007800608521000e
:100ec80000804000124098005e6090000000fb0027
:100ed8006c00b90080007800608521000080400027
:100ee80011c0b300014878005e6090000000fb006c
:100ef800be109000688150006c00b9008000780036
:100f080040852100008040000208780020408000d1
:100f18000000e80020408800204080000000e00039
:100f280003003a00204080000000e80020408800cc
:100f38005e6090000000fb00224080006c00b90059
:100f48008000780020852100008040000208780099
:100f58005e609000006f98002000200050179800f5
:100f68007e089000601798000e1090009e10900068
:100f780070179800011f9800304080000000e000c2
:100f880035013200334080004e609000810220001d
:100f98008e8040000101780041c0b30003000100c9
:100fa8002d0137008ec8910040c4b30080cf500097
:100fb800040032008ec89100b0c4b30080cf500046
:100fc80025003a00a00320000e0040000042eb007c
:100fd80043002000000178006ea09000fea0900061
:100fe800552007000004e0000c013a002e7890001c
:100ff800607f98003e789000707f98003e7890005f
:101008000004e00009003a002e7890000000fb0080
:10101800ee189000688150006c00b90080007800dc
:1010280040852100008040000208780030408000a0
:101038000000e000fb003200334080002e78900072
:10104800e10320008e8040000101780051c0b30008
:1010580003000100000137008ec89100a0c4b3004e
:1010680080cf500016003a00400820000e004000d3
:101078000042eb0043042000000178006ea09000bd
:10108800fea090002c2007000004e000f2003a00c7
:10109800404080000000e000ef0032004540800042
:1010a8002ea09000bea09000440820000e0242002e
:1010b8000001be000400780005000100e6003700ca
:1010c8008ec8910060c4b30080cf50000800320081
:1010d8008ec8910080c4b30080cf50000400320055
:1010e8008ec89100d0c4b30080cf50006b003a0086
:1010f80060c0b300004f78008ec8910080c4b30070
:1011080080cf500002003a0090c0b300004f780032
:101118000001200030079800000420000e00400065
:101128000042eb00be019000000178006ea0900024
:10113800fea09000002007000004e000bb003a0079
:101148000000eb0040079800cec89000214f98009f
:10115800fe209000410798002e4890000000fb00f8
:101168006c00b90080007800808521000080400074
:101178008040eb0001487800ce209000610798007d
:10118800de209000710798001e209000402f9800e4
:101198002e209000be209000502f9800612f9800bc
:1011a8002e4890000000fb006c00b9000000780099
:1011b800e4004000e08421000080400090007800b6
:1011c8004e009000808f50002a003a006e00900078
:1011d8000000e00018003400ee0090005ea09000cf
:1011e800808f5000140031007e0090008000eb00da
:1011f8006ea19000fea1900002004000838048008c
:1012080060a7980071a79800ee0090003107980039
:10121800000520000e004000be0190006ea2900064
:10122800fea290001e417800800078002e489000b1
:1012380037fe070088003700ee009000112f980055
:101248000000eb00002f9800304080000000e00014
:101258007800320033408000000520000e00400076
:10126800000178009e4078002e489000030001009d
:1012780079003700be0090005ea09000808f50007b
:101288006e00310014c0b3008001eb000001eb00d8
:101298006000b800a81f07006f0037008ec89100d3
:1012a80050c4b30080cf5000080032008ec89100af
:1012b80070c4b30080cf5000040032008ec8910083
:1012c800c0c4b30080cf500030003a0070c0b300f3
:1012d800104798008ec8910070c4b30080cf5000aa
:1012e80002003a0080c0b300104798008006200032
:1012f8000e0040000042eb0083002000000178004f
:101308006ea09000fea090008b1f07000004e00074
:101318004c003a000000eb00100798008ee890009f
:1013280041479800ee309000110798005e30900019
:10133800303798004e4090000000fb006c00b90068
:1013480000007800e4004000e084210000804000b4
:10135800900078001e009000808f50003b003a00fb
:10136800304080000000e0003a0032003340800046
:10137800600620000e004000000178009e409000aa
:101388004e40900003000100330037008ec89100e2
:1013980020c5b30080cf50002f003a00000720007e
:1013a8000e00400014c0b300430120000001780083
:1013b8006ea09000fea090005f1f07000004e000f0
:1013c80025003a002e389000be38900000007800c2
:1013d80060408800604080000000e0001e0032008d
:1013e800654080000e4191004e389000de38900034
:1013f8000e3b90009e3b9000024278000001be0028
:101408000600be00050001001300370000000000c0
:1014180011003700000000000f0037000000000036
:101428000d003700000000000b003700000000002e
:101438000900370000000000070037000000000026
:10144800050037000000000003003700000000001e
:1014580001003700000000000080fa0000000600cc
:101468000000fa000ac8bf000004e0000b003a00c0
:10147800e084210042082000030020008040eb00a7
:1014880009280700416b200020c0b3008d1f07000a
:1014980010c0b3000ae8b7000428ef000080fa0083
:1014a800000006000000fa00e08421004208200045
:1014b800030020008040eb00fb2707008000eb00c2
:1014c80020c0b3007f1f07000628ef000828ef00a0
:1014d8000a68ef000080fa00000006000400fa0025
:1014e800000f7800110798009e00780031408800ae
:1014f8009e009000414088000080fa00000006002d
:101508001000fa0060079800614f9800724f980029
:1015180000c0eb00004f78006e009000e20f500012
:1015280081003a006e489000e14f500026003a00d2
:101538000040eb00104798001f003700e1802000b2
:1015480091407800414798000ec8bf000080fb001a
:101558006c00b90080007800e08421000080400021
:10156800100798000ec8bf000080fb008000e8004c
:101578007000200000017800110009008200d800e6
:101588008000fd00004078000ee8b7001e009000c3
:10159800004890000004e00004003a00ce409000ab
:1015a800014f780000000000340037001e40900012
:1015b8000040e800104798001e409000e64f500099
:1015c800deff36002d0037006e489000e24f5000d5
:1015d8002a003a00208a2100300798000040eb00da
:1015e8001047980022003700f2802000124178004e
:1015f800424798000fc8bf000080fb006c00b9008c
:1016080000007800be00900000804000100798009d
:101618000fc8bf000080fb008000e80030002800f1
:10162800008060000000e00004003d000000e900c8
:10163800c1ff2f00008070000000e8000040780023
:101648000fe8b7001e009000004890000004e0007a
:1016580004003a004e40900067404000004f780078
:10166800060037001e4090000040e8001047980030
:101678001e409000e34f5000dbff36001e4078000c
:101688000004e000280035001e009000c200200081
:10169800030020008040eb00832707001e00900015
:1016a80011c0b30001489800204080000000e80005
:1016b80020408800204080000000e00003003a003d
:1016c800204080000000e800204088002140800081
:1016d8001e009000210098007e4890000080fb00ca
:1016e80061006000004078000004e0000e00320055
:1016f8009e407800014f98001e00900011c2b30070
:1017080011489800680047000003eb008002eb00d6
:101718000002eb00430020000001780001c5b3007f
:1017280020c0b300421c07001e4078000080fa0069
:10173800000006001400fa00604f9800010f98009e
:1017480022579800a0cfb300004f78000e089000f1
:101758000000e000400032006e4890000004e00005
:101768003d0035006e4890000000fb006c00b90099
:1017780000007800e8004000e0842100008040007c
:1017880010407800e14f500033003a002e5090008e
:101798000004e0003000320010c4b3001047980085
:1017a8006e4890000000fb006c00b9000000780053
:1017b800e8004000e08421000080400010409000d4
:1017c8000080fb0061006000004078000004e00039
:1017d8000200320040c5b30010479800ee48900060
:1017e800214f98008e0890000e80e80082002000ab
:1017f80003002000f62607006e4890000000fb005a
:101808006c00b90000007800e4004000e08421008a
:101818000080400010007800600798000e80e80003
:101828000003eb008002eb000002eb00c300200085
:10183800000178009e40900020c0b300fc1b070008
:10184800004f78001e4078000004e00002003200db
:1018580070cfb300004f78001e4078000080fa0077
:10186800000006000800fa006047980071479800d9
:10187800a0cfb300004f78006e4090000004e00055
:10188800260035006e4090000000fb006c00b90097
:1018980000007800e8004000e0842100008040005b
:1018a80010407800e14f50001c003a00ee409000d4
:1018b80021479800fe409000314798006e40900004
:1018c8000000fb006c00b90000007800e400400054
:1018d800e084210000804000100078002007980074
:1018e8000e80e8000003eb008002eb000002eb0032
:1018f800430020000001780021c4b30020c0b300d9
:10190800cb1b0700004f78001e4078000004e00061
:101918000200320070cfb300004f78001e407800fc
:101928000080fa00000006000800fa00204798002e
:101938002107980032079800a0cfb300004f780025
:101948002e4090000004e0000c0035002e4090006e
:101958000000fb006c00b90000007800e8004000bf
:10196800e08421000080400010407800e14f5000e2
:1019780002003a000040eb00004f78001e4078005b
:101988000080fa00000006001400fa00604f98007a
:10199800010f980022579800a0cfb300004f78009d
:1019a8006e4890000004e000490035000e089000e1
:1019b8000000e000460032006e4890000000fb0086
:1019c8006c00b90000007800e8004000e0842100c5
:1019d8000080400010407800e14f50003c003a0081
:1019e8002e5090000004e0003900320040c4b300db
:1019f800104798006e4890000000fb006c00b9008a
:101a080000007800e8004000e084210000804000e9
:101a1800104090000080fb006100600000407800ea
:101a28000004e0000b003200b0c4b3001047980077
:101a38006e4890000000fb006c00b90000007800c0
:101a4800e8004000e0842100008040001040900041
:101a5800304f9800ee489000214f98008e08900073
:101a68000e80e800820020000300200058260700ae
:101a78006e4890000000fb006c00b9000000780080
:101a8800e4004000e084210000804000100078005d
:101a9800600798000e80e8000003eb008002eb006e
:101aa8000002eb00c3002000000178009e40900077
:101ab80020c0b3005e1b0700004f78001e4078006e
:101ac8000004e0000200320070cfb300004f78003d
:101ad8001e4078000080fa00000006001e00fa0090
:101ae80060579800410f9800520f9800630f9800b4
:101af800a0ff2f00000f78006e5090000004e00057
:101b0800520035004e0890000000e0004f003200ff
:101b1800de08900080572000808f50004b003e0068
:101b28006e5090000000fb006c00b90000007800c7
:101b3800e8004000e0842100008040001040780068
:101b4800e14f500041003a0050c4b30040479800ac
:101b58000005200010079800ee509000614798009b
:101b6800de089000410798006e5090000000fb00ce
:101b78006c00b90000007800e4004000e084210017
:101b88000080400010007800100f98006e50900000
:101b9800e64f50000200340040042000100798006f
:101ba8006e5090000000fb006c00b9000000780047
:101bb800e8004000e08421000080400010409000d0
:101bc8000080fb0061006000004078000004e00035
:101bd8000b003200c0c4b300404798006e5090001c
:101be8000000fb006c00b90000007800e60040002f
:101bf800e0842100008040009000780011079800e0
:101c08004e099000e60047004e4090000074a00086
:101c18001e039000de0a90000202780003012000f3
:101c2800010178008040780020c0b300001b070045
:101c38000000fb00000f78001e0078000000e000a4
:101c48000200320020ff2f00000f78001e007800ed
:101c58000080fa00000006002000fa0040579800b3
:101c6800310f9800420f9800530f9800640f9800a6
:101c7800655f9800a0ff2f00000f78004e5090007d
:101c88000004e0004e0035003e0890000000e0002f
:101c98004b003200ce08900080572000808f500003
:101ca80047003e004e5090000000fb006c00b90059
:101cb80000007800e8004000e08421000080400037
:101cc80010407800e14f50003d003a004e5090001f
:101cd8000000fb006c00b90000007800e80040003c
:101ce800e084210000804000104078000004e000fb
:101cf8003300320064004700020120000300200086
:101d08008040eb00e8250700ce509000414798003e
:101d1800ce089000310798004e5090000000fb005c
:101d28006c00b90000007800e4004000e084210065
:101d38000080400010007800000f98006e089000a6
:101d48000000e0000d003200ee0890001107980036
:101d58001e00900010007800400798001e009000b8
:101d680010009000500798001e009000b0009000ee
:101d7800200090006007980071079800be08900046
:101d88006400470046042000ce0a90000102780053
:101d9800030120000001780071ccb30020c0b3001b
:101da800a31a07000000fb00000f78001e0078004f
:101db8000000e0000200320020ff2f00000f780032
:101dc8001e0078000080fa00000006001600fa00e5
:101dd800404f980071079800020f9800140f980060
:101de800250f9800a0ff2f00000f78004e489000a4
:101df8000004e0006e0035007e0090000000e00066
:101e08006b0032000e0890000000e000680032000d
:101e18004e4890000000fb006c00b90000007800fc
:101e2800e8004000e0842100008040001040780075
:101e3800e14f50005e003a000000eb00000f780010
:101e48004e4890000000fb007e0190006c00b90035
:101e580080007800e08421000080400002087800bb
:101e68004e4890000000fb006c00b900800078002c
:101e780000852100008040008e089000010878004d
:101e88004e4890000000fb006c00b900000078008c
:101e9800ea004000e0842100008040001040780003
:101ea8000004e00042003a0060c4b30020479800f4
:101eb8004e4890000000fb006c00b90080007800dc
:101ec800808521000080400011c0b30001487800df
:101ed8004e4890000000fb006c00b900000078003c
:101ee800e8004000e084210000804000104090009d
:101ef8000080fb0061006000004078000004e00002
:101f080002003200d0c4b300204798001e08900099
:101f1800ae089000e00f5000e08f580005003a002e
:101f28000080eb008080eb002007980031079800c4
:101f3800040037001e099000ae099000220798009f
:101f480033079800ce499000034f98004e48900000
:101f58000000fb006c00b90000007800e4004000bd
:101f6800e0842100008040001000780050079800ad
:101f7800640047000003eb008002eb000002eb0066
:101f88008300200000017800ae40900020c0b3001c
:101f9800271a07000000fb00000f78001e007800d9
:101fa8000000e0000200320020ff2f00000f780040
:101fb8001e0078000080fa00000006000800fa0001
:101fc80060479800a0cfb300004f78006e409000a3
:101fd8000004e0004f0035006e4090000000fb0058
:101fe8006c00b90000007800e8004000e08421009f
:101ff8000080400010407800e14f500045003a0052
:1020080090c4b30010479800ee4090002147980014
:102018006e4090000000fb006c00b90000007800e2
:10202800e4004000e08421000080400010007800b7
:10203800200798006e4090000000fb006c00b9007b
:102048008000780060852100008040008040eb001f
:10205800014878006e4090000000fb006c00b90059
:102068008000780020852100008040008000eb007f
:10207800010878006e4090000000fb006c00b90079
:1020880000007800e8004000e08421000080400063
:10209800104090000080fb00610060000040780064
:1020a8000004e00002003200e0c4b30010479800ca
:1020b8000e80e8000003eb008002eb000002eb005a
:1020c80043002000000178009e40900020c0b3002b
:1020d800d7190700004f78001e4078000004e00080
:1020e8000200320070cfb300004f7800e284210074
:1020f8006e4090000000fb006c00b9000000780002
:1021080000004100c2002000030020008040eb00d6
:10211800e52407001e4078000080fa000000060051
:102128001400fa00204f9800610798007207980081
:10213800040f9800150f98000000eb00000f7800be
:102148002e4890000004e000680035006e00900002
:102158000000e000650032007e0090000000e00012
:10216800620032002e4890000000fb006c00b900ad
:1021780000007800e8004000e08421000080400072
:1021880010407800e14f500058003a002e48900067
:102198000000fb006c00b90000007800e800400077
:1021a800e084210000804000104078000004e00036
:1021b800540032000000eb00000f78002e48900019
:1021c8000000fb006e0190006c00b90080007800f0
:1021d800e084210000804000020878002e4890002a
:1021e8000000fb006c00b900800078000085210029
:1021f80000804000fe009000010878002e48900002
:102208000000fb006c00b90000007800ea00400004
:10221800e084210000804000104078000004e000c5
:1022280035003a002e4890000000fb006c00b90011
:1022380080007800808521000080400011c0b30034
:10224800014878000e0890009e089000e00f5000aa
:10225800e08f580005003a000080eb008080eb001a
:102268001007980021079800040037000e09900015
:102278009e0990001207980023079800ae49900025
:10228800634798002e4890000000fb006c00b900de
:1022980000007800e4004000e08421000080400055
:1022a80010007800400798000e80e8000003eb005b
:1022b8008002eb000002eb008300200000017800a0
:1022c80081c4b30020c0b300591907000000fb0007
:1022d800000f78001e0078000000e00008003200bf
:1022e80020ff2f00000f780006003700a0ff2f0006
:1022f800000f7800030037000000000001003700dd
:10230800000000001e0078000080fa0000000600af
:102318000e00fa00600798006000b80020079800d7
:10232800310798000040eb00004f78000040eb00b8
:10233800104798003c0037000040eb002047980009
:102348006e00900010407800304798002e409000b2
:102358000040e800204798002e409000e44f5000cd
:10236800020036006000b80039003700be40900017
:10237800e0c2b30080cf5000030032003e4090001e
:102388000004e00008003a001e4090000080fb00b6
:10239800000047009e407800014898000040eb008c
:1023a800004f780013003700be409000f0c2b30021
:1023b80080cf50000d003600be40900090c3b3009f
:1023c80080cf500009003e001e4078006a00b90026
:1023d80000007800804078003e40900080c04000b7
:1023e80000cdb30000cf4000020037006000b80005
:1023f800170037006e0090000000e80060079800a2
:10240800be409000e0c2b30080cf5000030032000d
:102418003e4090000004e000c9ff3a001e409000d2
:102428000040e800104798001e409000e34f50001d
:10243800c1ff360064004700e80047004200200062
:1024480003002000e22307002e009000be00900049
:102458000080fa00000006000400fa001007980047
:10246800a0cfb300004f78001e0090002b24070077
:10247800104798009e40900000c4b30080cf5000e1
:102488000c003e001e4090000080fb000000e800a9
:102498000003eb008002eb000002eb0080017800f3
:1024a8001e019000a1c4b30020c0b300e0180700cb
:1024b800004f78001e4078000080fa0000000600f7
:1024c8005800fa0020d7980031d79800222f98009a
:1024d800332f9800a0cfb300004f78002ed0900083
:1024e800e64f5000d1003c002ed090000000fb00c9
:1024f8006c00b90000007800e8004000e08421008a
:1025080000804000104090000080fb0061006000e7
:10251800004078000004e000c40032003ed0900083
:10252800e14f50002c003a002e28900090007800cf
:10253800110798001e0090000000e0001200320011
:102548002ed090008001fb002ed090000000fb00f0
:102558006c00b90000007800e8004000e084210029
:102568000080400010409000004178000214a00054
:102578006c18b90080007800608521000080400058
:1025880012409800110037002ed090008001fb0007
:102598002ed090000000fb006c00b900000078000d
:1025a800e8004000e08421000080400010409000d6
:1025b800004178000214a1006c18b900800078006e
:1025c8006085210000804000124098000040eb0028
:1025d800004f7800950037003ed09000e34f500040
:1025e8002c003a002e2890009000780021079800cf
:1025f8002e0090000000e000120032002ed0900063
:102608008001fb002ed090000000fb006c00b90098
:1026180000007800e8004000e084210000804000cd
:1026280010409000004178000244a0006c18b900e6
:1026380080007800608521000080400012409800ea
:10264800110037002ed090008001fb002ed09000a2
:102658000000fb006c00b90000007800e8004000b2
:10266800e084210000804000104090000041780084
:102678000244a1006c18b900800078006085210030
:1026880000804000124098000040eb00004f7800a6
:10269800660037003ed09000e44f50002c003a000e
:1026a8002e28900090007800310798003e00900096
:1026b8000000e000120032002ed090008001fb00e4
:1026c8002ed090000000fb006c00b90000007800dc
:1026d800e8004000e08421000080400010409000a5
:1026e800004178000264a0006c18b90080007800ee
:1026f80060852100008040001240980011003700da
:102708002ed090008001fb002ed090000000fb002e
:102718006c00b90000007800e8004000e084210067
:102728000080400010409000004178000264a10041
:102738006c18b90080007800608521000080400096
:10274800124098000040eb00004f78003700370037
:102758003ed09000e24f500034003a00be2890006e
:10276800f0032000808f500030003e00ae2890001b
:1027780041079800aed09000214f98002ed09000cd
:102788000000fb006c00b90000007800e400400085
:10279800e084210000804000100078006007980065
:1027a800bed09000314f98003e2890008000eb008a
:1027b80070079800010f98006a0047006800400001
:1027c8000204200003002000ce0090000023070030
:1027d8006a0047000003eb008002eb000002eb00f8
:1027e800830420000001780011c5b30020c0b300a5
:1027f8000f180700e34f40000a003a006a0047003c
:102808000003eb008002eb000002eb0083042000d1
:102818000001780011cdb30020c0b30004180700f0
:10282800004f78000040eb00004f78001e40780011
:102838000080fa00000006001200fa00204f9800fd
:10284800314f9800424f980073079800040f980082
:10285800a0cfb300004f78002e4890000004e0009d
:10286800390035007e0090000000e000360032009c
:102878002e4890000000fb006c00b90000007800b2
:10288800e8004000e084210000804000104078000b
:10289800e14f50002c003a003e489000e24f5000b3
:1028a80007003a008e0990007e019000ce48900003
:1028b8002e48900002ff0700004f780022003700e2
:1028c800f0c4b30010479800ce48900071479800b4
:1028d800ae489000614798007e0090001000be004e
:1028e80010079800210798002e4890000000fb0070
:1028f8006c00b90000007800e4004000e08421008a
:102908000080400010007800400798000e80e80022
:102918000003eb008002eb000002eb0083002000c4
:10292800000178009e40900020c0b300c017070047
:10293800004f78001e4078000004e00002003200da
:1029480070cfb300004f78001e4078000080fa0076
:10295800000006000800fa00004f780011479800b0
:102968002247980023079800340798000040eb009e
:102978000080fa00000006001600fa0070079800b0
:10298800010f980022579800230f980010cfb3002a
:10299800004f78007e0090008e089000e00f5000f5
:1029a800e08f5800190032002e0890000000e00067
:1029b8001600320010002000500798007e01900099
:1029c8008e09900012079800230798002e0890009f
:1029d800cf80de003007980041079800ae51900084
:1029e800434f98000e80e8000003eb008002eb00e4
:1029f8000002eb00c30020000001780021c5b300ed
:102a080020c0b3008a170700004f78001e407800e6
:102a18000080fa00000006000600fa00200798006f
:102a28002e0090008000eb00008fbe000e007800a2
:102a38000003eb008002eb000002eb0043002000e3
:102a48000001780051c5b30020c0b3007817070013
:102a58000080fa0000000600a600fa00605f9900f6
:102a6800019798001297980023979800ee589100c4
:102a7800c0c2b30080cf500012003a00680047007f
:102a88000042eb0043002000000178001e909000f7
:102a9800ae909000a81907000004e0002a013a004f
:102aa800a04180000000e00027013200a241800020
:102ab8006800470080007800c0c2b300020001002f
:102ac800210137006e589100fb4f500012003a0068
:102ad8006c0047000042eb008300200000017800f2
:102ae8001e909000ae909000931907000004e0003b
:102af80015013a00a04180000000e00012013200f8
:102b0800a24180006c00470080007800b0c1b3008b
:102b1800020001000c0137006e589100e64f50008a
:102b280014003a00a00320000e00400014c0b300b7
:102b380003032000000178001e909000ae909000e2
:102b48007d1907000004e000ff003a00a041800062
:102b58000000e000fc003200a2418000a003200039
:102b68000e0040008000780060c0b3000200010041
:102b7800f50037006e589100ee4f5000f200320019
:102b8800ee58910020c3b30080cf500012003a00e5
:102b9800740047000042eb00430120000001780068
:102ba8001e909000ae909000631907000004e000aa
:102bb800e5003a00a04180000000e000e200320099
:102bc800a2418000740047008000780020c3b30051
:102bd80002000100dc003700ee589100f0c2b3009b
:102be80080cf50001a003a00a00320000e004000d9
:102bf80042062000030020008040eb002a22070044
:102c0800a00320000e0040000042eb004306200015
:102c1800000178001e909000ae90900046190700c1
:102c28000004e000c8003a00a04180000000e00075
:102c3800c5003200a2418000a00320000e00400021
:102c480080007800f0c2b30002000100be00370027
:102c5800ee58910040c3b30080cf500012003a00f4
:102c6800800220000e0040000042eb0043002000dc
:102c7800000178001e909000ae9090002e19070079
:102c88000004e000b0003a00a04180000000e0002d
:102c9800ad003200a24180008000eb0040c3b300c9
:102ca80002000100a80037006e589100f14f500053
:102cb80017003a003368ef00c00220000e00400001
:102cc8000042eb0043002000000178001e909000b5
:102cd800ae909000181907000004e0009a003a002e
:102ce8004e68900032e8b700a04180000000e00084
:102cf80095003200a2418000c00220000e00400072
:102d08008000780010c1b300020001008e00370077
:102d18006e589100f34f500014003a00a0032000b1
:102d28000e0040000042eb00c302200000017800c2
:102d38001e909000ae909000ff1807000004e0007d
:102d480081003a00a04180000000e0007e003200cf
:102d5800a2418000a00320000e00400080007800ff
:102d680030c1b30002000100770037006e589100af
:102d7800e44f500010003a000042eb0043002000ee
:102d88000e0178001e909000ae909000ea1807009f
:102d98000004e0006c003a00a04180000000e00060
:102da80069003200a24180008e00780040c0b30064
:102db8000200010064003700ee58910050c6b300cd
:102dc80080cf500010003a000042eb004300200082
:102dd8000e0178001e909000ae909000d618070063
:102de8000004e00058003a00a04180000000e00024
:102df80055003200a24180008e00780050c6b30012
:102e080002000100500037006e589100e94f500051
:102e180014003a00a00320000e00400014c0b300c4
:102e280043062000000178001e909000ae909000ac
:102e3800c11807000004e00043003a00a0418000e8
:102e48000000e00040003200a2418000a003200002
:102e58000e0040008000780090c0b300020001001e
:102e680039003700ee589100a0c2b30080cf50005f
:102e780014003a00000320000e00400014c0b30004
:102e880043002000000178001e909000ae90900052
:102e9800a91807000004e0002b003a00a0418000b8
:102ea8000000e00028003200a2418000000320005a
:102eb8000e00400080007800a0c2b30002000100ac
:102ec80021003700ee58910000c2b30080cf5000b7
:102ed8001d003a00400320000e0040000042eb00b5
:102ee80063002000000178001e909000ae909000d2
:102ef800911807000004e00013003a00be19900082
:102f08002e1990001e909000ae9090006600400030
:102f1800e080480014c0b300871807000004e000f0
:102f280009003a00a04180000000e00006003200dd
:102f3800a2418000400320000e004000800078007d
:102f480000c2b300020001000080fa000000060081
:102f58000200fa000040eb00004f7800c61a070094
:102f6800004f78001e4078000004e00002003a009c
:102f78001906070001003700000000001e40780015
:102f88000080fa00000006000400fa00100798000c
:102f98000040eb00004f78001e0090000000e000a9
:102fa80003003a0040cfb300004f780069003700b3
:102fb8001e009000592107000000e00005003200c3
:102fc8001e0090005521070001022000810f5000cb
:102fd8000300360040cfb300004f78005d00370093
:102fe8001e00900010609000ee4f500004003e005c
:102ff8001e009000106090000004e00003003a00fa
:1030080040cfb300004f7800520037001e009000f8
:1030180010c090000004e0000b003a001e00900071
:1030280020c090000004e00007003a001e00900055
:1030380030c090000004e00003003a0040cfb30025
:10304800004f7800430037001e0090007078900011
:10305800e14f50003e0032001e0090007078900052
:10306800e34f500023003a001e00900020609000bb
:103078000004e000040032001e0090002060900070
:10308800e44f50000300360040cfb300004f7800f3
:10309800300037001e00900030609000ea4f50006a
:1030a800070032001e00900030609000fa4f500078
:1030b8000300320040cfb300004f780025003700ee
:1030c8001e0090004002b000142107000000e0003c
:1030d800050032001e0090004002b0000f210700da
:1030e800fa0f50001b00360040cfb300004f7800a5
:1030f800180037001e00900070789000e24f5000d2
:1031080010003a001e009000306090000080fb0024
:103118000000e800e80f5000070034001e0090008f
:10312800306090000080fb008000e8001004200060
:10313800808f50000700340040cfb300004f780064
:103148000400370040cfb300004f7800010037007b
:10315800000000001e4078000080fa000000060011
:103168000400fa00100798000040eb00004f7800b8
:103178001e0090000000e00003003a0040cfb300ba
:10318800004f7800280037001e009000104078009b
:103198000004e00003003a0040cfb300004f78007d
:1031a800210037001e00900010409000e94f5000a9
:1031b800040036001e00900010409000e64f4000ca
:1031c8000300360040cfb300004f780016003700e8
:1031d8001e009000204090000004e000040032002f
:1031e8001e00900020409000e24f5000030036007f
:1031f80040cfb300004f78000b0037001e0090004e
:10320800b0409000d0c9b30080cf50000400350012
:103218001e009000304090000004e00002003500dd
:1032280040cfb300004f78001e4078000080fa00bd
:10323800000006000400fa001007980040cfb30011
:10324800004f78001e0090000003eb00c52a200004
:10325800000278008001eb000001eb0031c8b300e8
:1032680050c0b30072150700004f78001e40780068
:103278000080fa00000006002c00fa0050179800a1
:103288000040eb00004f780010c0b300006f9800ba
:103298005e1090000000e00003003a0040cfb30049
:1032a800004f78001d0037005e1090001000780075
:1032b800a04188003368ef00800220000e00400023
:1032c800171a0700004f78001e4078000004e0003d
:1032d80011003a000000eb0038150700004f780095
:1032e8001e4078000004e00007003a000153210066
:1032f80010c0b300f31707000e80e800a5180700f8
:10330800004f780005003700000000000000eb00c7
:10331800431a070001003700000000001e40780033
:103328000080fa00000006000200fa00000f780092
:103338000000eb00301507000000eb00381a07000a
:103348000040eb000080fa00000006000200fa00ce
:10335800000f7800601707000080fa0000000600e0
:103368000000fa000003eb008002eb000002eb0013
:103378008001eb000001eb0091c2b30010c0b30064
:103388002b1507000080fa00000006000800fa006c
:10339800000f7800214798003247980023079800cb
:1033a800340798008042eb003e029000ae01900086
:1033b8003e419000ae4090001e00780002000700d9
:1033c8000080fa00000006008200fa00403f9800e2
:1033d80021ff980032ff9800633f9800743f9800df
:1033e800054799000040eb00004f78003ef8900038
:1033f800e14f50004d0032006e3890000000e000b0
:1034080003003a0040cfb300004f7800e5003700d2
:103418003ef89000e24f500044003a006e389000a9
:103428003e20070001042000810f50003f003a00b1
:103438000040eb0010479800ee3890001107980004
:10344800360037001e4090000080fb009e00900070
:103458000080400090407800f0c2b30080cf500058
:10346800280036001e4090000080fb009e0090005f
:10347800008040009040780090c3b30080cf500097
:10348800080036001e4090000080fb009e0090005f
:10349800008040009040780000c4b30080cf500006
:1034a800180036001e4090000080fb009e0090002f
:1034b800008040009040780060c4b30080cf500086
:1034c800080036001e4090000080fb009e0090001f
:1034d800008040009040780000c6b30080cf5000c4
:1034e800080036001e4090000080fb009e009000ff
:1034f800008040009040780060c6b30080cf500044
:103508000300360040cfb300004f7800a500370015
:103518001e4090000040e800104798009e40900030
:10352800f0c3b30080cf5000c6ff36002ef89000dd
:103538000004e00004003200aef8900000c2b300be
:1035480080cf50000300360040cfb300004f780012
:10355800940037007e3890000000e000030032003d
:103568007e389000ee0f500007003600fe389000bd
:10357800f00f2000808f50000300320040cfb300ce
:10358800004f7800870037002ef890000080fb007d
:103598008000eb00ce3a90006c01470064042000e4
:1035a800020242000001be00850078000400780095
:1035b800871f07002ef890000080fb0000004700de
:1035c8008040eb0021d09800fe389000012f980031
:1035d8000e4091000080fb000000ea004f00de0072
:1035e8000040780030f798006c00470020079800ea
:1035f8002e009000bef8900011c098003ef8900090
:10360800e34f500034003a00ee389000310798003c
:10361800ae009000410798003e00900010407800ee
:103628008040e9004e009000014878004e0090006c
:1036380010407800e34f50000300360040cfb3003d
:10364800004f7800570037003e009000104090006f
:103658008040e9004e009000114098004e00900014
:1036680010409000ea4f5000070032004e009000d2
:1036780010409000fa4f50000300320040cfb300d2
:10368800004f7800470037003e009000104090003f
:103698000080fb008000eb003e0190008282e80081
:1036a8004e0190000282e8000001be00850078000b
:1036b80004007800461f07003e009000104090006c
:1036c8000080fb00ce009000008040008040eb00ae
:1036d80021409800290037003ef89000e24f500042
:1036e80017003a006e3890008c1f070050079800aa
:1036f8005e0090000000e00004003200de00900050
:1037080000042000808f50000300360040cfb30033
:10371800004f7800230037005e0090000000e800aa
:103728008000eb00ee3a90002e0290000001be00ef
:103738008500780004007800251f07000f00370077
:103748003ef89000e44f500006003a00ee38900032
:103758002e009000e2032000030020001c1f070039
:10376800060037003ef89000e14f50000300320099
:1037780040cfb300004f78000a0037006c004700c4
:103788000003eb008002eb000002eb00c306200000
:103798000001780081c2b30010c0b30024140700f0
:1037a800004f78001e4078000080fa0000000600f4
:1037b8000000fa000003eb008002eb000002eb00bf
:1037c8008001eb000001eb00b1c2b30010c0b300f0
:1037d800171407000080fa00000006000a00fa002b
:1037e800400798006200200003002000ce009000ef
:1037f8000e007800f61e07000003eb008002eb00c5
:103808000002eb00830020000e01780021c0b30005
:1038180010c0b300061407000080fa00000006007c
:103828000200fa00000f78001e007800d000900017
:10383800400090001e017800400198005101980056
:103848001e007800b0009000200090001e01780053
:1038580020019800310198001e0078001000be0079
:103868001e0178000089be001e007800f00090005c
:10387800600090001e0178006001980071019800b6
:103888001e0078000003eb008002eb000002eb0052
:103898004301200000017800a1c0b30020c0b3009c
:1038a800e31307000080fa00000006000000fa0099
:1038b8000040eb000080fa00000006000200fa0059
:1038c800000f78000040eb000080fa0000000600be
:1038d8000400fa00204798002e4090000004e00001
:1038e80002003200b0c0b30001003700c0c0b3000e
:1038f800004f78000003eb008002eb000002eb00b1
:103908008001eb000001eb009e40780020c0b3006e
:10391800c71307000080fa00000006000200fa0042
:10392800000f78001e0078000003eb008002eb0017
:103938000002eb00430020000001780091c3b300af
:1039480010c0b300ba1307000080fa000000060098
:103958000400fa001007980040cfb300004f780029
:103968001e0090000000e000140032001e009000cd
:10397800104078000080fb008000e800b00f2000b5
:10398800808f50000d003c001e0090001040780011
:103998000080fb000000e8000003eb008002eb0061
:1039a8000002eb00800178001e019000f1c8b3000e
:1039b80010c0b3009e130700004f78001e40780027
:1039c8000080fa00000006000400fa0010079800c2
:1039d80040cfb300004f78001e009000e0fd0700c4
:1039e8000004e0000a003a001e0090000003eb000b
:1039f8008002eb000002eb00430020000001780089
:103a080041c1b30010c0b30089130700004f78000c
:103a18001e4078000080fa00000006000800fa0046
:103a28003007980040cfb300004f7800be009000e8
:103a3800110798000e80e8000003eb008002eb00fd
:103a48000002eb00430020000001780051c1b300e0
:103a580010c0b30076130700004f78001e407800ae
:103a68000080fa00000006000800fa00604798008d
:103a78000040eb00004f780033c8bf000004e000ae
:103a88001e003a006e4090000004e000030032007f
:103a98006e409000ee4f5000030036006e409000dc
:103aa800e14f400012003a00ee4090002147980094
:103ab8000e80e8000003eb008002eb000002eb0040
:103ac800430020000001780001c1b30010c0b3001a
:103ad80057130700004f78001e4078000004e000ec
:103ae80009003a0010c0b30033e8b70007003700f8
:103af80010cfb300004f78000400370020cfb30088
:103b0800004f780001003700000000001e407800d8
:103b18000080fa00000006000a00fa0060479800da
:103b2800410798000040eb00004f780033c8bf0001
:103b38000004e00020003a006e4090000004e0001d
:103b4800030032006e409000ee4f50000300360034
:103b58006e409000e14f400014003a00ee409000a3
:103b680021479800ce009000210798000e80e800b9
:103b78000003eb008002eb000002eb004300200092
:103b88000001780031c2b30010c0b3002813070049
:103b9800004f78001e4078000004e00009003a0059
:103ba80010c0b30033e8b7000700370010cfb300e8
:103bb800004f78000400370020cfb300004f780092
:103bc80001003700000000001e4078000080fa0065
:103bd800000006000e00fa00204f980061079800c8
:103be80010cfb300004f780033c8bf000004e000d6
:103bf80042003a002e4890000004e0000300320022
:103c08002e489000ee4f5000030036002e489000da
:103c1800e14f40003d003a006e0090000000e000d7
:103c28003a0032000000eb0010079800ee00900008
:103c38001e009000008040009040780041479800a6
:103c48004e409000e44f500030003e001e009000af
:103c58000000e8001007980013003700ee009000fd
:103c68001e009000008040009040780000c2b30021
:103c780080cf500024003e00ee0090001e0090000f
:103c880000804000104078008080fb001e009000fb
:103c9800008040000000e800100798004e409000a7
:103ca8000040e900404798004e4090000004e000c2
:103cb800eaff3a00ae489000614798006600470066
:103cc800460020009e0290006e02900043002000f3
:103cd8000001780011cab30010c0b300d412070065
:103ce800004f78001e4078000004e00007003a000a
:103cf80010c0b30033e8b7000400370020cfb3008a
:103d0800004f780001003700000000001e407800d6
:103d18000080fa00000006001000fa00404f9800ea
:103d2800710798003368ef00ce489000014f780083
:103d38004e4890000004e00005003a00fe009000a4
:103d48000e00e8008200200003002000a01d0700ec
:103d58000003eb008002eb000002eb00c300200030
:103d68000e017800f1c2b30010c0b300b012070012
:103d78000080fa00000006000200fa000040eb0094
:103d8800004f78000003eb008002eb000002eb001c
:103d98008001eb000001eb0011c3b30010c0b300b9
:103da800a3120700004f78001e4078000080fa0038
:103db800000006000400fa00204798000040eb00cd
:103dc800004f78001e4078000080fa0000000600ce
:103dd8000400fa00204798000040eb00004f7800ec
:103de8001e4078000080fa00000006000800fa0073
:103df800604798000040eb00004f78006e4090004c
:103e0800e14f5000060032006e409000e64f50002f
:103e1800030032006e409000eb4f50000d003a0056
:103e2800ee409000114798000e00e8000003eb00f8
:103e38008002eb000002eb00430020000001780044
:103e4800b1c5b30010c0b30079120700004f780065
:103e58000200370040cfb300004f78001e407800c2
:103e68000080fa00000006000200fa000040eb00a3
:103e7800004f78000003eb008002eb000002eb002b
:103e88008001eb000001eb00c1c5b30010c0b30016
:103e980067120700004f78001e4078000080fa0083
:103ea800000006000400fa001007980040cfb30095
:103eb800004f78001e00900033fc07000004e0006b
:103ec8000a003a001e0090000003eb008002eb009d
:103ed8000002eb00830820000001780061c4b300f1
:103ee80010c0b30052120700004f78001e4078003f
:103ef8000080fa00000006000400fa00100798008d
:103f080040cfb300004f78001e0090000000e00092
:103f18000a0032001e0090000003eb008002eb0054
:103f28000002eb00430020000001780021c2b3002a
:103f380010c0b3003e120700004f78001e40780002
:103f48000080fa00000006000200fa000040eb00c2
:103f5800004f78000003eb008002eb000002eb004a
:103f68008001eb000001eb0071c4b30010c0b30086
:103f78002f120700004f78001e4078000080fa00da
:103f8800000006000200fa000040eb00004f780035
:103f98000003eb008002eb000002eb008001eb0065
:103fa8000001eb0031c0b30010c0b30020120700bd
:103fb800004f78001e4078000080fa0000000600dc
:103fc8000a00fa00300798004107980000c0eb008b
:103fd800004f78003e0090000000e0001100320021
:103fe8004e0090000000e0000e003200ce0090006d
:103ff80011079800e0002000200798000e80e800d4
:10400800a6012000ce0290003e029000430020004e
:1040180000017800c1c9b30010c0b3000412070042
:10402800004f78001e4078000080fa00000006006b
:104038000600fa0010079800210798000040eb00de
:10404800004f78008c110700004f78001e40780060
:104058000004e00009003a00ae0090001e00900045
:104068003c060700004f78001e4078000004e0007e
:1040780002003a00b8110700004f78001e4078008f
:104088000080fa00000006000400fa0010079800fb
:104098000040eb00004f780077110700004f7800d0
:1040a8001e4078000004e00008003a001e0090005e
:1040b80092060700004f78001e4078000004e000d8
:1040c80002003a00a4110700004f78001e40780053
:1040d8000080fa00000006000800fa006047980017
:1040e8000040eb00004f7800ee4090001147980028
:1040f8000e00e8000003eb008002eb000002eb007a
:10410800430020000001780021c1b30010c0b300b3
:10411800c7110700004f78001e4078000080fa00a1
:10412800000006000000fa0032c8bf000080fa0054
:10413800000006000000fa00751107000080fa0070
:10414800000006000800fa006047980071479800d0
:104158000040eb00004f7800ee40900011479800b7
:10416800fe409000214798000e00e8000003eb0095
:104178008002eb000002eb00430020000001780001
:10418800d1c2b30010c0b300a9110700004f7800d6
:104198006e409000581107001e4078000080fa0019
:1041a800000006000a00fa0030079800410798004e
:1041b8000040eb00004f78005511070010479800a9
:1041c8001e409000e44f50000e003a003e0190005f
:1041d800ce01900012079800230798000e80e8008f
:1041e8000003eb008002eb000002eb00430020001c
:1041f80000017800a1c3b30010c0b3008c11070000
:10420800004f78001e4078000080fa000000060089
:104218003400fa00001f980021779800ae709000d3
:10422800f0c2b30080cf50000200360000c3b300d4
:10423800207798002e7090000040e80020779800c2
:104248002e7090000080fb008000eb000001be0093
:104258008e1890000e0078005d1c07000003eb002c
:104268008002eb000002eb00030320000e0178003f
:1042780071c0b30010c0b3006d1107000080fa00d0
:10428800000006000400fa00100798000040eb0048
:10429800004f7800f8100700004f78001e407800a3
:1042a8000004e00004003a001e009000b914070062
:1042b800004f7800281107001e4078000080fa009f
:1042c80000000600d400fa0070a7980001af98001b
:1042d80022d7990040cfb300004f78007ea090000d
:1042e8000000e000230032007ea0900026fb0700bb
:1042f8000004e0001f003a00fea090000e00e80055
:104308008208200003002000311c07000ea890003e
:10431800821c07000000e000160032000ea8900082
:104328000000e000130032008ea890000e00e800a4
:104338008008b0000204200003002000241c0700ad
:10434800aed0910011cf99003368ef000e00e8005d
:104358000003eb008002eb000002eb00c30c20001e
:104368000001780081c8b30010c0b3003011070005
:10437800004f78001e4078000080fa000000060018
:104388000000fa000003eb008002eb000002eb00e3
:104398008001eb000001eb00a1c0b30010c0b30026
:1043a800231107000080fa00000006000000fa0050
:1043b8000003eb008002eb000002eb008001eb0041
:1043c8000001eb0051c0b30010c0b3001811070082
:1043d8000080fa00000006000400fa00008fbe000a
:1043e8000e0078000003eb008002eb000002eb00f7
:1043f8008300200000017800b1c0b30010c0b300f2
:104408000b1107000080fa00000006000000fa0007
:104418000003eb008002eb000002eb008001eb00e0
:104428000001eb00a1c1b30010c0b30000110700e8
:104438000080fa00000006000400fa0020479800f7
:104448002e4090000004e00002003200c0c0b3001b
:1044580001003700d0c0b300004f78000003eb0024
:104468008002eb000002eb008001eb000001eb0092
:104478009e40780010c0b300ed1007000080fa00dd
:10448800000006000800fa00604798000040eb00b2
:10449800004f7800ee409000114798000e00e800a9
:1044a8000003eb008002eb000002eb004300200059
:1044b8000001780061c1b30010c0b300dc10070030
:1044c800004f78001e4078000080fa0000000600c7
:1044d8000800fa00604798000040eb00004f7800a1
:1044e800ee409000114798000e00e8000003eb0032
:1044f8008002eb000002eb0043002000000178007e
:1045080071c1b30010c0b300c9100700004f780094
:104518001e4078000080fa00000006000800fa003b
:10452800604798000040eb00004f7800ee40900094
:10453800114798000e00e8000003eb008002eb0032
:104548000002eb00430020000001780091c1b30095
:1045580010c0b300b6100700004f78001e40780066
:104568000080fa00000006000800fa0030079800f2
:104578000040eb00004f78006000b800100798007a
:1045880021079800be009000110798000e80e800ef
:104598000003eb008002eb000002eb004300200068
:1045a8000001780081c1b30010c0b300a01007005b
:1045b800004f78001e4078000080fa0000000600d6
:1045c8000c00fa00400798005107980040cfb3004c
:1045d800004f7800e2004700020009008018eb0055
:1045e800de00900050632000808f500011003e00d4
:1045f8004e0090000000e0000e003200de00900047
:1046080021079800ce009000110798000e80e8005e
:104618000003eb008002eb000002eb0063002000c7
:1046280000017800f1c9b30010c0b3008010070082
:10463800004f78001e4078000080fa000000060055
:104648000e00fa0050079800610798000040eb0040
:10465800004f78005e019000ee019000120798006c
:10466800230798001e009000ae0090000080a00074
:104678001007980021079800030037000000000089
:1046880001003700000000001e019000ae019000fc
:10469800004a2100010020009b1a07001e0090001c
:1046a800ae009000e00f5000e08f58001400320078
:1046b8006000b8003007980041079800660047007e
:1046c80000017800004a210001002000861a070036
:1046d800004f78001e4078000004e000e7ff3a0031
:1046e8003e019000ce0190001e009000ae009000a8
:1046f800800f5100818f5900e2ff3a000100370016
:10470800000000000040eb000080fa0000000600f6
:104718000400fa006000b800008fbe000e017800a7
:1047280010002000010020006f1a07001e01be00c3
:104738002000200001002000020278000301780018
:104748008001780001007800030262000000610027
:104758008000eb00c000dd00000020000001be006a
:104768006120b8000001710081817100e00f5100e3
:10477800e08f5900160032001e01be00d0ff2f0046
:10478800f1ff2f0002027800030178008001780011
:104798000100780003026200000061008000eb0065
:1047a800c000dd00000020000001be006120b8004c
:1047b8000001710081817100028fbe001e00be00e1
:1047c8000001be0010002000010020004e1a070062
:1047d8000080fa00000006000600fa006000b80039
:1047e80010079800210798000040eb00004f780060
:1047f8000e80e800000178008040210001002000c0
:10480800391a0700004f78001e4078000004e000c5
:1048180025003a001e009000ae0090000080a00025
:1048280010079800210798001e009000ae00900025
:104838000001be008040210001002000321a07005c
:10484800004f78001e4078000004e00018003a008d
:104858000e80e8000001780000a02100010020007f
:10486800211a0700004f78001e4078000004e0007d
:1048780011003a001e009000ae0090000100a00058
:1048880010079800210798001e009000ae009000c5
:104898000001be0000a02100010020001a1a070034
:1048a800004f7800050037000000000003003700c3
:1048b8000000000001003700000000001e407800e2
:1048c8000080fa00000006000600fa006000b80048
:1048d80010079800210798006011b800c000200058
:1048e800c1002000081a0700004f78006011b800c6
:1048f800c008210001002000031a0700804078004a
:104908001e40780000c04000004f78006011b800d9
:10491800c07a200021002000fb19070080407800a1
:104928001e40780000c04000004f78000e80e8006c
:10493800000178008011210001002000ea19070019
:10494800804078001e40780000c04000004f78008a
:104958001e009000ae0090000000a0001007980014
:10496800210798001e009000ae0090000001be00d4
:104978008011210001002000e31907008040780021
:104988001e40780000c04000004f78000e80e8000c
:10499800000178000040210001002000d219070022
:1049a800804078001e40780000c04000004f78002a
:1049b8001e019000ae019000004020000100200080
:1049c8000202780003017800800178000100780075
:1049d80003026200000061008000eb00c000dd00ff
:1049e800000020000001be006120b8000001710035
:1049f80081817100e00f5100e08f59001d003200e5
:104a08001e019000ae019000f0bf2f00f1ff2f00b3
:104a18000202780003017800800178000100780024
:104a280003026200000061008000eb00c000dd00ae
:104a3800000020000001be006120b80000017100e4
:104a48008181710012079800230798001e009000ca
:104a5800ae0090000001be000040210001002000cf
:104a6800a9190700804078001e40780000c0400067
:104a7800004f78001e009000ae00900000a0a0003b
:104a880010079800210798001e009000ae009000c3
:104a98000001be0000402100010020009a19070013
:104aa800804078001e40780000c04000004f780029
:104ab8001000200001002000351d07001e4078006e
:104ac8000080fa00000006000400fa00704180002f
:104ad80081418000e00f5000e08f58006f003a00dd
:104ae800e282200000002100010020007e1907005a
:104af8000004e000040032002e28ef003028ef0008
:104b08006000b800670037000e017800403f2100c0
:104b180001002000741907000004e00004003200be
:104b28002e28ef003028ef006000b8005d00370045
:104b38007241800083418000002a2000010120008a
:104b4800800f5100818f59000b003a001e01be00f2
:104b58001000200001002000800f5100818f5900b3
:104b680033003200102a2000010120007041880023
:104b7800814188002e003700724180008341800007
:104b8800002b200001012000800f5100818f590067
:104b980016003a001e01be0030002000010020006f
:104ba800800f5100818f5900210032001e01be0084
:104bb8004000200001002000800f5100818f590023
:104bc80005003a00102b20000101200070418800e8
:104bd8008141880016003700202b200001012000a9
:104be80070418800814188001100370072418000bf
:104bf80083418000000f200001012000800f510038
:104c0800818f59000a003a00e2822000000020004b
:104c1800b1032000341907000004e000040032004a
:104c28002e28ef003028ef006000b8001d00370084
:104c38007241800083418000f0ff2f0001ff2f00a8
:104c480002027800030178008001780001007800f2
:104c580003026200000061008000eb00c000dd007c
:104c6800000020000001be006120b80000017100b2
:104c780081817100724188008341880072418000ff
:104c880083418000000020005100200000007100d6
:104c980081807100704188008141880070418000e6
:104ca800814180000080fa00000006000400fa003c
:104cb8000e017800403f2100010020000a1907007a
:104cc8000004e000040032006000b800008fbe005d
:104cd8006000b800010037001e00be000080fa0026
:104ce800000006000000fa0077ff07000001be0080
:104cf800f0ff200001002000020278000301780084
:104d08008001780001007800030262000000610061
:104d18008000eb00c000dd00000020000001be00a4
:104d28006120b8000001710081817100f02a200023
:104d380001002000800f5100818f590005003600c6
:104d4800e29c260043782b0080e42100010020002b
:104d5800ed1807000080fa00000006000400fa00c1
:104d68008042210001002000d9180700008fbe00f2
:104d7800e0ff2f00f1ff2f001e01be0002027800a5
:104d880003017800800178000100780003026200c6
:104d9800000061008000eb00c000dd000000200082
:104da8000001be006120b80000017100818171001e
:104db800028fbe001e01be008042210001002000bb
:104dc800d11807001e00a0001e01be00804221006d
:104dd80001002000cc1807000080fa00000006003f
:104de8000400fa00c041210001002000b8180700a3
:104df800008fbe001e20a0001e01be00c041210081
:104e080001002000c0180700d4ff07000080fa0046
:104e1800000006000600fa000040eb00004f780092
:104e280001003700000000000e80e8000001780053
:104e38000001200001002000ab180700004f780097
:104e48001e4078000004e00079003a001e0190003e
:104e5800ae0190001000200001002000020278003e
:104e680003017800800178000100780003026200e5
:104e7800000061008000eb00c000dd0000002000a1
:104e88000001be006120b80000017100818171003d
:104e9800e00f5100e08f5900e2ff3a000e80e80071
:104ea8000001780010002000010020008e18070083
:104eb800004f78001e4078000004e0005e003a00d1
:104ec8001e019000ae01900020002000010020008b
:104ed8000202780003017800800178000100780060
:104ee80003026200000061008000eb00c000dd00ea
:104ef800000020000001be006120b8000001710020
:104f080081817100e00f5100e08f59001d003200cf
:104f18001e019000ae019000d0ff2f00f1ff2f007e
:104f2800020278000301780080017800010078000f
:104f380003026200000061008000eb00c000dd0099
:104f4800000020000001be006120b80000017100cf
:104f58008181710012079800230798001e009000b5
:104f6800ae0090000001be001000200001002000eb
:104f780065180700004f78001e4078000004e00024
:104f88002f003a000e80e80000017800b0002000f1
:104f98000100200054180700004f78001e407800d8
:104fa8000004e00028003a001e009000ae009000c7
:104fb8000000780061006000004078000004e00014
:104fc800220032001e019000ae019000e0ff2f0089
:104fd800f1ff2f00020278000301780080017800b9
:104fe8000100780003026200000061008000eb000d
:104ff800c000dd00000020000001be006120b800f4
:105008000001710081817100120798002307980040
:105018001e009000ae0090000001be00b00020000d
:105028000100200038180700004f780007003700fb
:1050380000000000050037000000000003003700f2
:105048000000000001003700000000001e4078004a
:105058000080fa00000006000e00fa000040eb0095
:10506800004f78006000b8003007980041079800aa
:105078006000b80050079800610798006000b80009
:105088001007980021079800660047000001780083
:10509800b00020000100200013180700004f78001e
:1050a8001e4078000004e0007b003a003e019000ba
:1050b800ce019000100020000100200002027800bc
:1050c8000301780080017800010078000302620083
:1050d800000061008000eb00c000dd00000020003f
:1050e8000001be006120b8000001710081817100db
:1050f800e00f5100e08f59000b003a003e0090008d
:10510800ce0090000000a0000001be00b00020000a
:1051180001002000fc170700004f78001e407800af
:105128000004e0005e003a006600470000017800d5
:105138001000200001002000eb170700004f780046
:105148001e4078000004e00057003a003e0190003d
:10515800ce0190002000200001002000020278000b
:1051680003017800800178000100780003026200e2
:10517800000061008000eb00c000dd00000020009e
:105188000001be006120b80000017100818171003a
:10519800e00f5100e08f59000d003a003e009000ea
:1051a800ce0090000010a0000001be0010002000fa
:1051b80001002000d4170700004f78001e40780037
:1051c8000004e0003a003a00010037000000000047
:1051d8006a00470000017800f0002000010020006c
:1051e800c1170700004f78001e4078000004e00057
:1051f80031003a005e019000ee019000400020006e
:105208000100200002027800030178008001780084
:105218000100780003026200000061008000eb00da
:10522800c000dd00000020000001be006120b800c1
:105238000001710081817100e00f5100e08f590079
:1052480002003200951707001c00370020002000dc
:10525800010020004e1b07001e009000ae009000c9
:1052680061004000e080480010079800210798007e
:105278001e019000ae0190004000200001002000b7
:10528800800f5100818f5900d0ff3600c0cfb30086
:10529800004f7800090037000000000007003700c1
:1052a8000000000005003700000000000300370080
:1052b8000000000001003700000000001e407800d8
:1052c8000080fa00000006000600fa006000b8003e
:1052d80010079800210798000e80e8000001780068
:1052e80080112100010020007f170700004f78007f
:1052f8001e009000ae0090000000a000100798006b
:10530800210798001e009000ae0090000001be002a
:1053180080112100010020007b17070080407800e1
:105328001e40780000c04000004f78000e80e80062
:105338000001780000402100010020006a170700e2
:10534800804078001e40780000c04000004f780080
:105358001e019000ae0190000040200001002000d6
:1053680002027800030178008001780001007800cb
:1053780003026200000061008000eb00c000dd0055
:10538800000020000001be006120b800000171008b
:1053980081817100e00f5100e08f59002600320032
:1053a8001e019000ae019000f0bf2f00f1ff2f000a
:1053b800020278000301780080017800010078007b
:1053c80003026200000061008000eb00c000dd0005
:1053d800000020000001be006120b800000171003b
:1053e8008181710012079800230798001e00900021
:1053f800ae0090000001be00004021000100200026
:1054080041170700804078001e40780000c0400027
:10541800004f78000e80e80000017800004021006d
:105428000100200030170700804078001e407800f7
:1054380000c04000004f78001e4078000080fa004d
:10544800000006000200fa000040eb00004f780060
:1054580001ff0700004f78001e4078000004e000bc
:1054680008003a000d000700004f78001e40780041
:105478000004e00005003a0093ff0700004f7800a1
:1054880003003700000000000100370000000000a2
:105498001e4078000080fa00000006000200fa00b2
:1054a8000040eb00004f78006011b8000040210078
:1054b8000100200014170700004f78002003200087
:1054c80001002000b21a07001e4078000080fa0090
:1054d800000006001400fa00205798000040eb0076
:1054e800404f98006000b800008fbe006000b80010
:1054f80020079800310798006000b800400798001e
:1055080051079800203521002135210070079800a7
:10551800010f98006000b800008fbe004001210014
:1055280001002000ea160700008fbe001e00be0022
:10553800e00f5000e08f58001a003d00c07b2000ab
:1055480021002000e2160700008fbe001e01be00e9
:1055580010002000010020000202780003017800fa
:1055680080017800010078000302620000006100f9
:105578008000eb00c000dd00000020000001be003c
:105588006120b8000001710081817100028fbe00a6
:105598001e00be00e00f5000e08f580005003200ea
:1055a8001a0037001000200001002000781a0700b8
:1055b800daff37006000b800008fbe000d0037002a
:1055c8001000200001002000711a0700c000200010
:1055d800c1002000be160700008fbe002e009000fc
:1055e800be00900061004000e0804800200798005d
:1055f80031079800e0092d00d10a21001e01be00e4
:10560800800f5100818f5900edff3a002e50900015
:10561800e24f50000b003a00d2572d00c3c12300bf
:10562800c07a200021002000b716070002002000e1
:1056380003012000c008210001002000b216070065
