:020000040000fa
:080000000001040000000000f3
:020000040000fa
:04000800c60300002b
:020000040000fa
:04000c00d803000015
:020000040000fa
:04001000e803000001
:020000040000fa
:04001400ce03000017
:020000040000fa
:04001800e003000001
:020000040000fa
:04001c00420400009a
:020000040000fa
:040020004204000096
:020000040000fa
:040024004204000092
:020000040000fa
:04002800420400008e
:020000040000fa
:04002c00420400008a
:020000040000fa
:040030004204000086
:020000040000fa
:040034004204000082
:020000040000fa
:04003800420400007e
:020000040000fa
:04003c00420400007a
:020000040000fa
:040040004204000076
:020000040000fa
:040044004204000072
:020000040000fa
:04004800420400006e
:020000040000fa
:04004c00420400006a
:020000040000fa
:040050004204000066
:020000040000fa
:040054000e04000096
:020000040000fa
:04005800f0030000b1
:020000040000fa
:04005c00420400005a
:020000040000fa
:040060004204000056
:020000040000fa
:040064004204000052
:020000040000fa
:04006800420400004e
:020000040000fa
:04006c00420400004a
:020000040000fa
:040070004204000046
:020000040000fa
:040074005003000035
:020000040000fa
:04007800420400003e
:020000040000fa
:04007c00420400003a
:020000040000fa
:040080004204000036
:020000040000fa
:040084004204000032
:020000040000fa
:04008800420400002e
:020000040000fa
:04008c00420400002a
:020000040000fa
:040090004204000026
:020000040000fa
:040094004204000022
:020000040000fa
:04009800420400001e
:020000040000fa
:04009c00420400001a
:020000040000fa
:0400a0004204000016
:020000040000fa
:0400a4004204000012
:020000040000fa
:0400a800420400000e
:020000040000fa
:0400ac00420400000a
:020000040000fa
:0400b0004204000006
:020000040000fa
:0400b4004204000002
:020000040000fa
:0400b80042040000fe
:020000040000fa
:0400bc0042040000fa
:020000040000fa
:0400c00042040000f6
:020000040000fa
:0400c40042040000f2
:020000040000fa
:0400c80042040000ee
:020000040000fa
:0400cc0042040000ea
:020000040000fa
:0400d00042040000e6
:020000040000fa
:0400d40042040000e2
:020000040000fa
:0400d80042040000de
:020000040000fa
:0400dc0042040000da
:020000040000fa
:0400e00042040000d6
:020000040000fa
:0400e40042040000d2
:020000040000fa
:0400e80042040000ce
:020000040000fa
:0400ec00a803000065
:020000040000fa
:0400f0008a0300007f
:020000040000fa
:0400f40042040000c2
:020000040000fa
:0400f80042040000be
:020000040000fa
:0400fc0042040000ba
:020000040000fa
:0401000042040000b5
:020000040000fa
:0401040042040000b1
:020000040000fa
:0401080042040000ad
:020000040000fa
:04010c0042040000a9
:020000040000fa
:0401100042040000a5
:020000040000fa
:0401140042040000a1
:020000040000fa
:04011800420400009d
:020000040000fa
:04011c004204000099
:020000040000fa
:040120004204000095
:020000040000fa
:040124004204000091
:020000040000fa
:04012800420400008d
:020000040000fa
:04012c002c0400009f
:020000040000fa
:040130004204000085
:020000040000fa
:040134004204000081
:020000040000fa
:04013800420400007d
:020000040000fa
:04013c004204000079
:020000040000fa
:040140004204000075
:020000040000fa
:040144004204000071
:020000040000fa
:04014800420400006d
:020000040000fa
:04014c004204000069
:020000040000fa
:040150004204000065
:020000040000fa
:040154004204000061
:020000040000fa
:04015800420400005d
:020000040000fa
:04015c004204000059
:020000040000fa
:040160004204000055
:020000040000fa
:040164004204000051
:020000040000fa
:04016800420400004d
:020000040000fa
:04016c004204000049
:020000040000fa
:040170004204000045
:020000040000fa
:040174004204000041
:020000040000fa
:04017800420400003d
:020000040000fa
:04017c004204000039
:020000040000fa
:040180004204000035
:020000040000fa
:040184004204000031
:020000040000fa
:04018800420400002d
:020000040000fa
:04018c004204000029
:020000040000fa
:040190004204000025
:020000040000fa
:040194004204000021
:020000040000fa
:04019800420400001d
:020000040000fa
:04019c004204000019
:020000040000fa
:0401a0004204000015
:020000040000fa
:0401a4004204000011
:020000040000fa
:0401a800420400000d
:020000040000fa
:0401ac004204000009
:020000040000fa
:0401b0004204000005
:020000040000fa
:0401b4004204000001
:020000040000fa
:0401b80042040000fd
:020000040000fa
:0401bc0042040000f9
:020000040000fa
:0401c00042040000f5
:020000040000fa
:0401c40042040000f1
:020000040000fa
:0401c80042040000ed
:020000040000fa
:0401cc0042040000e9
:020000040000fa
:0401d00042040000e5
:020000040000fa
:0401d40042040000e1
:020000040000fa
:0401d80042040000dd
:020000040000fa
:0401dc0042040000d9
:020000040000fa
:0401e00042040000d5
:020000040000fa
:0401e40042040000d1
:020000040000fa
:0401e80042040000cd
:020000040000fa
:0401ec0042040000c9
:020000040000fa
:0401f00042040000c5
:020000040000fa
:0401f40042040000c1
:020000040000fa
:0401f80042040000bd
:020000040000fa
:0401fc0042040000b9
:020000040000fa
:10020000ef0a21000e7f24000e018800000000008c
:10021000000020000000e000020032000001200089
:100220002002880014000700980107000000e00089
:1002300003003a004047220001002000020037007e
:100240000000200001002000810f7000010032003a
:1002500014000700000020000000e000020032004f
:1002600000000200000000004072020000000000d8
:100270000040da000000fe004440a90040302000a9
:100280000000e00003003200002020009001880000
:100290004440a800000006008a1f78008b1f7800e9
:1002a00000000600a1028800800478000000eb0036
:1002b0001f003700e284440054a0b4009905ba003e
:1002c000e284440054a0b4009906ba00e2844400d9
:1002d00054a0b4000006eb00476fde00fd07b2003b
:1002e000ae018800636ce10003003a00eaff0700fa
:1002f0000000eb000e003700606ce10008003a00df
:10030000004deb000a05e800020039003420ec0043
:100310000af0a0008b05e900f9ff3e000400370059
:100320006168e100010032000086eb000b0007006d
:1003300019c7ba001905ba000e04e00003003a001c
:100340000a00e000dbff3a0000000600fe07b200f2
:10035000ae0288008a047800f5ff37000cd0a300b5
:10036000e20f4d001c00390089027800354dba00bb
:100370000a05e800020039003420ec000af0a00071
:100380008b05e9000f003200254dba000a05e80090
:10039000020039003420ec000af0a0008b05e900cf
:1003a000080032000c00e0000600320015cdba0053
:1003b0000a05e800020039003420ec000af0a00031
:1003c0008b05e9008984e80054a0b4000b00e0002c
:1003d000e2ff3a00000006009902ba00055d7800cd
:1003e0008b05e900f7ff3200c82ade00055d7800c2
:1003f0008b05e900f3ff32000c00e000f1ff320052
:1004000019ddba00eeff3700467804000000000056
:100410008670040000000000ce750400000000009b
:100420004e78040000000000a870040000000000e6
:10043000e27504000000000056780400000000008f
:10044000ca70040000000000f675040000000000ff
:100450005e78040000000000ec7004000000000062
:100460000875040000000000005d040000000000aa
:10047000f274040000000000c265040000000000e7
:100480007c4104000000000042480400000000001d
:10049000383f040000000000484404000000000051
:1004a0003a42040000000000e43c040000000000a8
:1004b000a055040000000000ea4204000000000013
:1004c0001638040000000000d850040000000000ae
:1004d000da5b0400000000004a7404000000000021
:1004e000b0540400000000009e470400000000001b
:1004f000065b040000000000523b04000000000006
:1005000042370400000000000e71040000000000eb
:100510005677040000000000bc4e040000000000fc
:10052000306a040000000000aa740400000000000b
:10053000d461040000000000927404000000000078
:1005400060770400000000001e7504000000000039
:100550006a77040000000000347504000000000009
:100560004a750400000000006075040000000000ef
:100570003e730400000000000e790400000000003b
:1005800074770400000000003074040000000000d4
:10059000b866040000000000886804000000000045
:1005a000a4670400000000001077040000000000b1
:1005b0003c780400000000001c77040000000000ec
:1005c0007673040000000000327604000000000092
:1005d0005a73040000000000b87504000000000019
:1005e0000e6304000000000000660400000000002c
:1005f0004476040000000000346c04000000000099
:1006000092770400000000009c77040000000000c6
:10061000a677040000000000b0770400000000008e
:10062000ba77040000000000c47704000000000056
:10063000ce770400000000001e76040000000000d9
:10064000da71040000000000d87704000000000008
:10065000e2770400000000008e7804000000000033
:10066000a86f040000000000d83004000000000063
:10067000b61b0400000000005476040000000000d7
:10068000d476040000000000bc64040000000000f8
:1006900074620400000000004077040000000000c5
:1006a0003600f800809fbe00829fbe00849fbe007f
:1006b000869fbe000000fa005004800068006000c1
:1006c0000000e0000c0032008a60a9008133800045
:1006d00000002100008060000000e0000600320001
:1006e0007186a900b04280000000e00002003200e4
:1006f000b0428000000001000080fa004f03be00fd
:100700004f02be004f01be004f00be003600f90090
:10071000004006003600f800809fbe00829fbe00a9
:10072000849fbe00869fbe000000fa003042800019
:10073000000001000080fa004f03be004f02be001f
:100740004f01be004f00be003600f9000040060019
:100750003600f800809fbe00829fbe00849fbe00ce
:10076000869fbe000000fa004042800000000100a9
:100770000080fa004f03be004f02be004f01be00d2
:100780004f00be003600f900004006003600f800b9
:100790008020a9000000eb009c3a07003600f8001a
:1007a0006e3907008040a90010002000973a07002a
:1007b0003600f8008060a90020002000933a07006e
:1007c0003600f8008080a900300020008f3a070032
:1007d0003600f8008600a900700020008b3a070060
:1007e0003600f800809fbe00829fbe00849fbe003e
:1007f000869fbe000000fa0040418000000001001a
:100800000080fa004f03be004f02be004f01be0041
:100810004f00be003600f900004006003600f80028
:10082000809fbe00829fbe00849fbe00869fbe0048
:100830000000fa0050418000000001000080fa0032
:100840004f03be004f02be004f01be004f00be006e
:100850003600f90000400600801f78000000fa0012
:10086000d01c8000620060000000e0000100320047
:100870009a23a9009020a9000080fa004f00780078
:10088000004006000040da000000fe000000050005
:100890000000fa004fb99700e8815700b102070045
:1008a0000080fa00000006000000fa004fb997002f
:1008b000e8815700ab0207000080fa000000060044
:1008c0000000fa004fb99700e8815700a502070021
:1008d0000080fa0000000600010037000201e90074
:1008e0000200e0000500320030427800b14178009b
:1008f000834f5200f9ff320001003700000005006d
:100900000480fb008381fb00030050000000060010
:100910008001780002003700b15978000201e90037
:100920000200e000fcff3a0000000600889fbe00c5
:100930008a9fbe00800478000200e0005a00320066
:1009400001407800814c780082814400f1f99f00d9
:10095000e20f51005400360091449800a1449800e1
:10096000e1f99f00d1f99f00e60f51004e003600db
:10097000b1449800c1f99f00e80f51004a003600c9
:100980000905ea00630565000a8444000a05510070
:10099000c1ff2f00010565000080fb008000eb0017
:1009a0001210200013102000f0080700008cbe0079
:1009b0000a01440060b99f0071b99f00e80f55001b
:1009c0003900360020049800310498004004980053
:1009d0005104980020b99f0031b99f0040b99f0091
:1009e00051b99f00f80f55002f00360060049800a1
:1009f00071049800000c9800110c9800200c9800cd
:100a0000310c9800400c9800510c980020b19f00c8
:100a100031b19f0040b19f0051b19f0060b19f0074
:100a200071b19f0000b99f0011b99f00640164007b
:100a30007801410002044400020555006011b8002d
:100a40000203be000002be000403be006022b80024
:100a500000007200818072000201730083817300c4
:100a60000f00370008027800009abe00029abe000c
:100a7000009abe000292be00000c9800110c980073
:100a8000220c9800330c9800400c9800510c9800f0
:100a9000620c9800730c98000a02b1000802b000c2
:100aa000ff0f5500efff3e00090078004f05be0024
:100ab0004f04be0000000600889fbe000004be0078
:100ac0000800780006000700000044008900780054
:100ad0005d070700080078004f04be000000060014
:100ae00080007800040037003104e00002003a0082
:100af0000000510000000600010178000108a30079
:100b0000f9ff3a008101780031017800f4ef2f00fd
:100b1000020242000281ea00020162000408280089
:100b200004016100f7ff32008300780001017800c2
:100b30003104e000fdff3a00000051000000060013
:100b40004400fa00889fbe008a1f78000004be009f
:100b50000205780094bf9f00a5bf9f00b6bf9f000d
:100b6000c7bf9f008000eb00c19f9f00a8af9f0000
:100b7000d89f9f000081eb00b2af9f006022b800b9
:100b80006033b80060fb2f000f004000290607000b
:100b90001fba9700afba97003fbb9700cfbb970033
:100ba000120020008a00780060fb2f000f00400038
:100bb000000407000900e000060032003fb2970081
:100bc000afaa970004824200df9a97000502520004
:100bd000840c44004f0578004f04be000080fa00ea
:100be00000000600f4ff2f00f5ff2f006033b8006f
:100bf000d3ff370004002000050028006033b80050
:100c0000cfff3700ec874700889fbe008a9fbe0059
:100c10008c9fbe008e1f78000006780001047800cb
:100c2000180790002805900098067800cdb79f001f
:100c3000b80590003202be002203be000400be00d0
:100c40000601be004f18de006011b8008000eb0006
:100c5000d0b79f00e1b79f00f2b79f0083bf9f000e
:100c6000800478000900e000060032006000b8004f
:100c70006011b80004025000858258000603590034
:100c8000878359000e00e000020035000d10a1001e
:100c9000cdb79f000900e00005003a004fb0970073
:100ca0000028a30002003a000038a300020032002e
:100cb0008a00e900010037008a007800f8815700b7
:100cc000a200200008007800860007000900e0006c
:100cd00003003a00cfb097000128a30008003200bb
:100ce0000000e90000814500b1c2b3000900e00046
:100cf00001003200d1c2b30001497800050037007d
:100d00000138a300030032000000e90001c2b30073
:100d100081757800480190000201e900000151004e
:100d2000808045004fb297008a0178000c0078005f
:100d3000c50107009c0090000188a3000400320058
:100d400098009000810f500001003d0001007800e4
:100d50004f0778004f06be004f05be004f04be008f
:100d6000cf00b100000006000200fa00889fbe001c
:100d70008a9fbe0000057800010478000200780018
:100d800018019000a805900098007800b1bf9f005e
:100d9000b80490000200e000020035000110a1003c
:100da000b1bf9f00ea815700820020008b007800cd
:100db0003002be002003be00080078004900070092
:100dc0003fb99700f0006100030032000000e90025
:100dd00001c3b300817478003fb99700e800610057
:100de000030032000000e90001c2b3008174780002
:100df000480190000201e900000151008080440098
:100e00003fba97008b0178000a0078008e01070036
:100e10009a0090000188a30004003200980090001e
:100e2000810f500001003d00010078004f05be0019
:100e30004f04be000080fa0000000600ea87470069
:100e4000889fbe008a9fbe008e1f78000004780035
:100e5000030078007287570084e2260055c72600f9
:100e6000049fbe00c3962200030f78006c875700d2
:100e7000004feb0011059000a1049000910578004f
:100e80000200e00002003200020778000100370093
:100e9000728757000000e00002003a000e00780060
:100ea0000fff07000a00e000030035008a0f500022
:100eb000010036000a0078000b02780089017800f2
:100ec000000178008e007800080078005e010700bd
:100ed0004f0778004f05be004f04be00af00b100c1
:100ee00000000600f4874700889fbe008a9fbe006e
:100ef0008c9fbe008e1f78000605be000404be0055
:100f000081bf9f0082b79f00f3b79f00b0009000a1
:100f1000e1b79f001301780092b79f009006900000
:100f2000400690000c06e9000d00e00001003d00c5
:100f30001d002000efb197000c8041000048eb003d
:100f40001e0020001f0037000c06e9000fb09700bc
:100f5000cf80de006109b900a0b79f00b1b79f0044
:100f6000c2b79f00d3b79f000203be000002be00bd
:100f70000800be000a01be002b0807000007780029
:100f8000efb097000c80400003c3b3000348470054
:100f90008d06e9000fb897000000e90080bf9f00b0
:100fa0002fb29700bfb297004fb39700dfb39700ff
:100fb0000800be000a01be00140807000205be00ba
:100fc0000004be000c00e0000d003200e00f5400f1
:100fd000e08f5c00e00f5d00e08f5d00daff3a001b
:100fe0000d00e000d8ff3c008fb897000100e00042
:100ff000030034001fb197000218a300d2ff3a008b
:101000000e00e00002003a00ffb197001340a1007b
:101010000c0078004f0778004f06be004f05be0059
:101020004f04be004f01b100000006000200fa00ac
:10103000889fbe008a9fbe0080047800010478006b
:1010400002007800180190002805900098007800b0
:10105000b1bf9f00b80590000200e000020035001b
:101060000110a100b1bf9f00ea815700a20020003b
:101070008a0078003002be002003be00080078001d
:1010800098ff0700480190000201e90000015100ab
:10109000808045003fba97008a01780009007800f7
:1010a000e9000700990090000188a30004003200c5
:1010b00098009000810f500001003d000100780071
:1010c0004f05be004f04be000080fa00000006007d
:1010d000fa874700889fbe008a9fbe008c9fbe0093
:1010e0008e1f780080047800010478008205780063
:1010f000180190002805900018077800b8009000ab
:101100000200e000020035000e10a10001003700cf
:101110001200200070006700e0b79f000900320055
:101120003b02be002b03be00e00f5200e08f5a00ce
:10113000e00f5b00e08f5b00020032008a86e9006e
:10114000010037008a067800e8026700f5b79f00c3
:10115000010032008d06e9003b02be002b03be00f9
:10116000e4af9f00f5af9f0086b79f0097b79f0041
:10117000480690000c06e9000c8040000048eb0097
:10118000efb297007fb2970089037800810478005e
:10119000d8af9f00020478008bbf9f008a057800bb
:1011a000034578002a0037000c06e9006fab970072
:1011b0006f006300e90f500002003c000003b00024
:1011c000010037007005b0000a03fb001604b100ef
:1011d000f90f53000c003e00000378000650a000f9
:1011e0001606b100f90f530007003e00b4b79f0088
:1011f000a5b79f00c7b79f00a0050700cfb3970012
:10120000afb297003fb2970080747e000804e900f7
:101210008d06e9006fa89700ffa897000fb197000f
:101220009fb19700460020008301d1000281d300c6
:101230008180d3000080d3000603e900faff3a0062
:10124000e0af9f00f1af9f0082b79f0093b79f0070
:10125000e10f56000f0036006fa89700ffa8970017
:101260000fb197009fb19700e00f5000e08f58003a
:10127000e00f5900e08f5900cbff3a000800e00072
:10128000c9ff3c000d00e000020034000e18a3006e
:10129000c5ff3a0089007800f4b79f008704780002
:1012a0005fac97008a4178000b0578008fbd9700ee
:1012b0000500e000100032003b02be002b03be0020
:1012c000e4af9f00f5af9f0086b79f0097b79f00e0
:1012d000e00f5200e08f5a00e00f5b00e08f5b00f0
:1012e000050032000c06e90083707e000c06e90060
:1012f00000c3b30080707e00ffb297000500e000dd
:10130000030032000c06e90000c2b30080707e00ca
:10131000480190000201e9000c0151008c8040005e
:101320000e0278008a017800090078004600070064
:10133000990090000188a3000400320098009000fa
:10134000810f500001003d00010078004f07780038
:101350004f06be004f05be004f04be00af01b100f6
:1013600000000600f28747008e1f78000202780016
:10137000030178000000e00002003200000778005e
:1013800001003700728757008002eb000100e00087
:10139000010032008102e900708057000600090058
:1013a0000018eb007280570000a8eb00231020000b
:1013b00093bf9f00aebf9f00b1bf9f00c5bf9f00fe
:1013c0000100e00004003d00b004200060858800ba
:1013d0000080eb0005003700004feb00eebf9f00e0
:1013e000debf9f0084007800cc0407004f07780020
:1013f0002f01b10000000600889fbe008a1f780000
:10140000800478004900900002047800800f5400a6
:101410000100360000047800080178006a85440065
:101420001a0078003afd07001a004400000d780009
:10143000e8844400990c14000048eb004f05780044
:101440004f04be0000000600f2874700889fbe00e0
:101450008a9fbe008c9fbe008e1f7800800478009b
:1014600001057800020478008305780061076200b6
:1014700002003a008b0f5400080039000801780080
:101480008a00780009007800dbff07008b0f54000a
:1014900002003900880578001e00370008865500d4
:1014a0000c017800f00f5600010036000201200008
:1014b000010220007e8057001cfd07008c0678008a
:1014c0000500370002012000fe8057000900780067
:1014d000c9ff0700f0865600ef8f5600f9ff3e0067
:1014e0004461de0000ff2f000091b90002014600b8
:1014f000fe80570009007800bfff07000e00e000e3
:1015000004003a00080178008a0078000900780099
:10151000b9ff07000b0078004f0778004f06be00a8
:101520004f05be004f04be002f01b10000000600b1
:1015300000000500000178000040eb008080fb0007
:1015400081804000c307210063c278000404e000ea
:1015500003003a00d007210060c0780000000600b8
:1015600092017800934f520004003a00d007210006
:1015700060c078000309e800010037000040e8007f
:10158000ea4f5000edff360000000600f6874700e6
:10159000889fbe008a9fbe008c9fbe008e1f780071
:1015a0008004780001047800830578000406780040
:1015b0000000eb00c0b79f008080eb00d1b79f0018
:1015c000e0b79f00f2b79f000008200080bf9f0097
:1015d00098007800010078000005eb00010037005a
:1015e0000a05e800304178000204e0000300320000
:1015f00053c2b300834f5100f9ff3a000a00e000e4
:10160000040032000a017800090078007aff070020
:10161000180c45001807780050c2b3009e4f100008
:1016200033013a000e07e8000e0c78001000370076
:10163000cfb097000100a0000b003700cfb097009b
:101640000110a00008003700cfb097000120a000d3
:1016500005003700cfb097000130a000020037002e
:10166000cfb097000140a000c1b79f00000ce80078
:101670001800780090407800b2c2b30082cf5000ca
:10168000f1ff320007003c0002c2b30082cf5000dd
:10169000f0ff320032c2b30082cf500007003a00a0
:1016a000efff3700d2c2b30082cf5000e0ff32001c
:1016b00002c3b30082cf5000e0ff3200a2c2b300e9
:1016c00082cf50000d003a00000ce8001c80e900b9
:1016d000000e780010007800e0b79f000000e000e6
:1016e0000f003d00cfb097000100a200c1b79f00de
:1016f0000000ea00e0b79f00090037006f04070010
:10170000e0b79f0001003700000ce80018007800e7
:101710009000fb000103b100e98f5000faff360092
:101720004fb097000008a300020032000010a10093
:10173000c0b79f0018007800e1c2b30090cf10003e
:1017400016003a008000eb00d1b79f000000e800cf
:10175000000c7800a1c2b30090cf100006003a0040
:10176000000ce8001c80e900000e780010007800f2
:10177000d0b79f000900370050040700d0b79f0082
:1017800001003700000ce800180078009000fb0012
:101790000103b100e98f5000faff3600080078001d
:1017a00064ff070080467800180078001000fb00f6
:1017b0002c04070091062000810f500038003200f1
:1017c00012003c0041062000810f5000340032001e
:1017d0000a003c0011062000810f5000200032005a
:1017e00031062000810f50009a0032005102200083
:1017f000810f5000ae003a00a700370071062000ac
:10180000810f5000aa003c00820037000107200031
:10181000810f50005c00320007003c00e106200010
:10182000810f500074003200f1062000810f50003b
:101830009f003a003900370051072000810f500007
:101840002700320081072000810f50004200320043
:1018500031072000810f500095003a0085003700c5
:101860008d80fb000c01780000fe2f000f0040006f
:10187000380407000000e0009c00320018007800e7
:10188000000ce8009041780002fe2f000f0141009b
:10189000f88057000900780025ff07000e00370088
:1018a0008d80fb008c0178001200200000fe2f00cc
:1018b0000f004000460407000000e0008b003200eb
:1018c000180ce80002fe2f000f014100f8805700bd
:1018d00009007800cbfc07000005450084003700b4
:1018e0008d80fb008c0178000001eb0000fe2f00d2
:1018f0000f004000360407000000e0007b003200cb
:10190000180ce80002fe2f000f014100f88057007c
:1019100009007800c5fd0700efff37008d80fb0050
:101920008c0178000001eb0000fe2f000f0040004a
:10193000270407000000e0006c003200180ce800eb
:1019400002fe2f000f014100f880570009007800c7
:1019500005fd0700e0ff37008d80fb008c0178005b
:101960000001eb0000fe2f000f00400018040700ec
:101970000000e0005d00320018007800000ce80074
:1019800090417800160037008c0178000001eb00d0
:10199000010f200000fe2f000f0040000c04070084
:1019a0000000e00051003200180ce8000fb0970072
:1019b0009fb097002fb19700bfb19700e00f500084
:1019c000e08f5800e00f5900e08f590003003a0003
:1019d0008001eb00620721004000370083c7b3009d
:1019e00002fe2f000f014100f88057000900780027
:1019f000b7fd0700b8ff37000b0145008d80fb00e5
:101a00008c01780000fe2f000f0040004904070001
:101a1000360037008d80fb000c01780000fe2f009f
:101a20000f004000cb0307000000e0002f00320051
:101a300018007800000ce8009041780002fe2f00aa
:101a40000f014100f880570009007800b8fe070038
:101a5000a1ff370000c8b30080cf560023003a0032
:101a6000180ce8001c80e900000e78001040780097
:101a70000d00370000c8b30080cf56001b003a00ad
:101a8000180ce8001c80e900000e78008001eb00d3
:101a9000100178001100370001c8b30081cf560053
:101aa00012003a00180ce800e0df9f000800370041
:101ab00050c2b300e0df9f000e0c78000000eb0086
:101ac000c0b79f00e0b79f008080eb00d1b79f00b8
:101ad00013002000e2fd2f000f014100f8805700a5
:101ae00009007800d5fc07007bff3700180ce800e0
:101af0000a0078004f0778004f06be004f05be0071
:101b00004f04be006f01b100000006008200fa0021
:101b1000889fbe008a1f7800000578008204780044
:101b2000c13f9f000004eb0010003700090278005d
:101b300088017800a2f72f000f01410081f72f00e4
:101b40008f8040000a00780090fe070008004000e7
:101b5000880f500004003d00b0042000608588001c
:101b60000084eb0004003700000478004f38970031
:101b70001004e000edff3a00080078004f057800ff
:101b80004f04be000080fa000000060080007800cc
:101b90001000200002022000828f5000040032005a
:101ba000e9805000e48f5000010036000000eb0097
:101bb000000006006f02b000889fbe008a9fbe0032
:101bc0008c9fbe008e1f7800000678000107780009
:101bd00082047800d4af9f00e5af9f00f6af9f006e
:101be00087b79f0040022000800f57007e003e0014
:101bf000e10f57007c003200fe0046001100780023
:101c00003c119000820f500003003100b086fb00b1
:101c100080087800030037000c0078002a020700d3
:101c2000800678000d007800d8ff07000000e00073
:101c3000f1ff3a00b0022000808f5600050032000c
:101c40008002eb0085af9f00d0022000808f5600fd
:101c500011003a00dd82b2000df0a7008d06ea0007
:101c60008d06e900cfeede008daf9f00fe0046003e
:101c7000110078003c119000820f500003003100e9
:101c8000b086fb0080087800030037000c00780065
:101c90000d020700800678000e00e000020032000e
:101ca000f00f570042003a0000032000808f5600da
:101cb0003c003a00fe004600110078003c11900004
:101cc000820f500003003100b086fb0080087800ce
:101cd000030037000c007800fb0107008006780045
:101ce0008d0078000150a00080072000808f5000f8
:101cf00029003a00fe004600110078003c119000d7
:101d0000820f500003003100b086fb00800878008d
:101d1000030037000c007800eb0107008006780014
:101d200080d0200060c07e000e012000ef4f5000e8
:101d3000900036003c1090000000e00002003200ed
:101d4000fe0046009108e9000900e0000b003200a7
:101d50006022b8006033b800d4af9f00e5af9f00a9
:101d6000f6af9f0087b79f000000e000a50132009a
:101d70007e0646001c0ee9001f0037006022b800f6
:101d80006033b8000c007800aa0107006000b800ba
:101d90006011b800970137000e00e000a301320087
:101da0001a0037000e00e00001003a00ae002000eb
:101db00080d0200060c07e000080fb008e0f5000ad
:101dc000120039003c1090000000e00002003200d8
:101dd0007e0046001008e9006022b8006033b800b9
:101de0000c007800930107006001200060858800e6
:101df0006022b8006033b800d4af9f00e5af9f0009
:101e0000f6af9f0087b79f007e013700ea0f5700ab
:101e100058003a000004eb000d0078000e00370077
:101e20006a44b9000800400008fd2f000004440087
:101e30007e014600920078003c109000808f500098
:101e4000030031003180fb000109780002003700f7
:101e50000c0078009c01070001fd2f0080804000ed
:101e6000e98f500003003e0081992100810f54004a
:101e7000ebff3600800678008004eb006055b80068
:101e8000130037001faa9700afaa97003fab970037
:101e9000cfab97000004420081844a0002054b004a
:101ea00083854b00fe004600110078003c11900035
:101eb000820f500003003100b086fb0080087800dc
:101ec000030037000c0078007f01070080067800cf
:101ed00005fd2f008582460095af9f00e98f5200d7
:101ee0000e013e00909929009199290092992900ac
:101ef000939921000040e10001c8e10002d0e10017
:101f000003d8e100df003e00a4002000050020000f
:101f10006033b8000800be000a01be004604070096
:101f20001faa97008002eb006033b80094af9f00b7
:101f3000a5af9f00b6af9f00c7af9f000482ea0025
:101f40008582ea000683ea008783ea00d4b79f000f
:101f5000e5b79f00f6b79f0087bf9f000400e10030
:101f60000588e1000690e1000798e100c5ff360012
:101f7000c40037000e00e9000e00600003003200cc
:101f80000004eb000d007800680037007770b9009e
:101f90004500de0067006000e1cf2000e1407800ee
:101fa0008100fb000004eb000d0078008104780044
:101fb0000c0037000944dd00010474007e01460076
:101fc000920078003c109000808f50000300310098
:101fd0003180fb0001097800020037000c00780016
:101fe0003901070081d02000e14078008180fb00aa
:101ff0008e8f500003003100f27f2000820f5400ca
:10200000ecff360080067800890078008004eb0041
:102010006055b800f4ff2f00f5ff2f000403be0049
:10202000010078000000e900050033008703d100bb
:102030000683d3008582d3000482d300f9ff3700e2
:102040000d00780081067800210037000d0178002e
:102050000201e900050033000804d0008984d200a1
:102060000a85d2008b85d200f9ff37000180fb0082
:102070008000eb006011b8000804700089847000d3
:102080000a0571008b8571007e0146009200780080
:102090003c109000808f5000030031003180fb0025
:1020a000010978000a0037000c00780094b79f00ff
:1020b000a5b79f00b6b79f00c7b79f0002010700f2
:1020c000cfb397003fb39700afb297001fb297000e
:1020d00081d02000e14078000181fb008e0f51008b
:1020e000620031000440e10005c8e10006d0e100d3
:1020f00007d8e100d5ff36005c0037000ec4b900f8
:10210000088440007e014600920078003c10900058
:10211000808f5000030031003180fb0001097800fe
:10212000020037000c007800e700070081d0200093
:10213000e14078008180fb008e8f50000300310069
:10214000b2712000820f5400ecff36008006780048
:102150008004eb006055b80098af9f00a9af9f00c6
:10216000baaf9f00cbaf9f001300370000024400be
:1021700081824c0002034d0083834d0094af9f0089
:10218000a5af9f00b6af9f00c7af9f00fe004600ff
:10219000110078003c119000820f500003003100c4
:1021a000b086fb0080087800030037000c00780040
:1021b000c50007008006780080d0200060c07e0047
:1021c000e0cf9f00804278000580fb008e0f50001a
:1021d000280031006174b8006055b8000802be00e4
:1021e0000a03be00f0ff2f00f1ff2f000001be0028
:1021f000860307001faa9700afaa97003fab97007e
:10220000cfab97000020e10001a8e10002b0e1009f
:1022100003b8e10017003e000802be000a03be003a
:102220001fa89700afa897003fa99700cfa99700d4
:1022300081030700efca97000584fb008004eb00d0
:102240006055b8000882ea008982ea000a83ea0041
:102250008b83ea000400e1000588e1000690e100bc
:102260000798e100c1ff36000200370080067800c1
:10227000040037001fac9700afac97003fad97004c
:10228000cfad970080d0200060c07e000080fb00b2
:102290008e0f5000210031000d0078000a00370039
:1022a0007e014600920078003c109000808f500024
:1022b000030031003180fb00010978000200370083
:1022c0000c0078008000070081d020006140780079
:1022d0000080fb008e0f5000f1ff3900200220002b
:1022e000608588005fab97000608a30007003200f6
:1022f0005fac9700efac97007fad97008fb597006c
:102300008003eb0087af9f00040037005fac9700ad
:10231000efac97007fad97008fb597003c10900011
:102320000000e000020032007e0646001c0ee900bc
:102330005fa89700efa897007fa997008fb197003b
:102340000040e10001c8e10002d0e10003d8e10053
:102350001c0039000008a3000e003a008fa8970067
:102360000100e0000b003a00200220006085880098
:102370005faa9700efaa97007fab97008fb39700f3
:1023800061025200e0825a0060035b00e0835b0060
:1023900099fe37005fa89700efa897007fa99700e4
:1023a0008fb197000040e10001c8e10002d0e100d8
:1023b00003d8e10003003600200220006085880079
:1023c000100037008fa89700e18f400007003a0007
:1023d0006000b8006011b8000802500089825800ff
:1023e0000a0359008b83590083fe37000800be00a2
:1023f0000a01be00d0af9f00e1af9f00f2af9f0087
:1024000083b79f005fa89700efa897007fa9970068
:102410008fb197004f0778004f06be004f05be00f2
:102420004f04be006f02b100000006008e002000c5
:10243000d0fe3700889fbe008a9fbe0044109800df
:10244000551098006610980077109800f0089000da
:102450002004900001045400cfc4de00614db90097
:1024600008189800191898002a1898003b18980026
:10247000e00f5200e08f5a00e00f5b00e08f5b003e
:102480000c0032000014900001045400cfc4de00a0
:10249000614db9000440e10005c8e10006d0e1004b
:1024a00007d8e100030034006002b0000488400057
:1024b0000200370080109000311098004f05be00d8
:1024c0004f04be00000006002800fa00889fbe00ee
:1024d0008a1f780000047800f80890002800900017
:1024e00000805000081a9000981a9000281b900055
:1024f000b81b9000cf80de000402400085824800b7
:10250000068348008783480048109000d810900048
:1025100068119000f8119000e00f5000e08f580013
:10252000e00f5900e08f5900050032000020e10063
:1025300001a8e10002b0e10003b8e1000d003d0098
:1025400008007800d4b79f00e5b79f00f6b79f005a
:1025500087bf9f007f000700800478005fb297006c
:10256000efb297007fb397008fbb97000900e000a0
:1025700014003d00780890002801900000015100ef
:102580000103200088804000cf91de0084184100c4
:10259000859849008698490087884900301498003a
:1025a000f0ff2f00f1ff2f000001be004014980043
:1025b0005114980062149800731498008084eb0002
:1025c0005100370061004200e0804a0060014b008a
:1025d000e0814b0090bf9f00a1bf9f00b2bf9f0052
:1025e000c3bf9f0048129000d8129000681390005b
:1025f000f813900094b79f00a5b79f00b6b79f004f
:10260000c7b79f00e00f5200e08f5a00e00f5b0059
:10261000e08f5b0029003200780d900008119000d7
:102620000a0151006112b900612bb900d4af9f00bb
:10263000e5af9f00f6af9f0087b79f001fb09700e0
:10264000afb097003fb19700cfb197001fba970086
:10265000afba97003fbb9700cfbb97000400500074
:1026600085805800060159008781590090af9f006e
:10267000a1af9f00b2af9f00c3af9f005faa9700ba
:10268000efaa97007fab97008fb397000020e1007f
:1026900001a8e10002b0e10003b8e1000700340046
:1026a0009fb297001fbb97008681520062022000f4
:1026b000080141000309450002003700881390001b
:1026c0003714980028019000f8089000810151000b
:1026d0000803b0001fba9700afba97003fbb97003e
:1026e000cfbb97004f98de00049c4100051c4800ba
:1026f000061c4800070c48006800b100828f50009b
:1027000001003e00f9f89f00090078004f057800ad
:102710004f04be000080fa00000006000200fa002c
:10272000881f780000047800e2bf9f006481570092
:1027300008007800f5fc0700980090000148a3000d
:10274000010032000080eb004f0478000080fa00a6
:10275000000006000200fa00889fbe000004780016
:1027600008007800100007008084eb000000e00003
:1027700009003a009811900012002000e6805700ee
:102780000800780003000100e10f500002003a0049
:102790002ff897008084fb00090078004f04be00ea
:1027a0000080fa0000000600881f7800000478000e
:1027b0004002200008004000904078000141e900fc
:1027c00001487100d800900068009000808f500090
:1027d00005003600b80990000001eb008200780087
:1027e0000800780003000100740044000008eb00ba
:1027f0006c0044000008eb006a0044000008eb0095
:1028000008007800d00078000118a300030032000f
:102810000140a0000108780008003700280190005e
:10282000380090000000410000149800700c9800df
:102830000000eb000138a300010032000080eb0033
:102840004f04780000000600881f7800000478001c
:1028500008007800f1000700080078004f047800b5
:1028600000000600f1fb2f0080804000f98f50002f
:1028700001003e000050a00000000600f1f92f000a
:1028800080804000f98f500001003e00f005b2004a
:1028900000000600800078001000200002022000e6
:1028a000828f500004003200e9805000e48f500015
:1028b000010036000000eb0000000600889fbe000b
:1028c0008a1f780080047800090478008804780062
:1028d000394578000a00fb00eeff07000000e00029
:1028e000f9ff3a00b0c2b300804f55000500320036
:1028f000d0c2b3008000eb00804f550005003a00c5
:10290000020037008000eb000100370011002000ba
:102910000804e8000000eb00030037006a02b90079
:10292000020052000003b0003801fb0003fd2f003d
:1029300082814100e98f5100f8ff36000100e0007c
:1029400001003a000000ea004f0578004f04be0085
:1029500000000600881f78000004780000082000ae
:10296000808f50001700350010082000808f500025
:102970000b00340030082000808f500011003a0016
:102980009200780068805000000978003002be0094
:102990002003be00049cbe000694be000700370062
:1029a0009202780064805200000978001000be0096
:1029b000ba000700009cbe000294be001000200078
:1029c000010037000000eb004f0478000000060013
:1029d00084082000848f50001d0032000d003c0050
:1029e00014082000848f50002700320002003c00b1
:1029f000040820000400370024082000848f5000c1
:102a00002a00320044082000848f500048003a0019
:102a10003b003700040a2000848f50002c00320055
:102a200004003c0004092000848f500040003a005c
:102a30002d003700020c2000828f50001e00320053
:102a4000020f2000828f500039003a00300037001a
:102a50009380e9000200e00005003200810978005f
:102a60001102fb00cfa2de00612bb9002d00370060
:102a700081097800114278000482fb008002eb009b
:102a80006033b8002700370013027800e4005200da
:102a90000200e0000a003200810978001102be0045
:102aa0004fabde00860378001e00370093027800eb
:102ab000e88052000e00370093027800e480520054
:102ac000810978001102be006033b800150037009c
:102ad0009380e9008109780011027800cfa2de001e
:102ae000612bb9000f00370013037800e800530092
:102af000810978003102be002103be0009003700c1
:102b00009380e9000200e00002003200f1ff37008c
:102b10009380e90081097800110278008002eb00bf
:102b20006033b8000498be000690be001000050097
:102b30000000050044082000848f50002700320068
:102b40000a003c0014082000848f50001c00320052
:102b500024082000848f5000260032000408200042
:102b6000848f50002c003a001c003700040920001c
:102b7000848f50001f00320004003c0084082000b5
:102b8000848f500024003a0007003700040a200018
:102b9000848f500011003200040c2000848f5000fc
:102ba0001d003a00060037009380e9008109780093
:102bb00091007800010878008248780015003700fd
:102bc0009380e9008109780091007800010878007d
:102bd000cf91de008288be000e0037009380e900ae
:102be0008109780091007800010878008208780057
:102bf000080037009380e90081097800910078008f
:102c0000010878006112b900612bb9008498be00f8
:102c10008690be001000050000000500010178004c
:102c200080017800008268000408a30005003200db
:102c30001300370032407800805978000004e0002b
:102c400014003200030278000208a300f9ff3a00e2
:102c50000300780001003700031878008200780034
:102c6000b2017800f5ef2f00838242000382ea0070
:102c7000048262000508280005026200f6ff3200a7
:102c80000002780031417800025878000204e00028
:102c9000fbff3a0004007800000006008103780082
:102ca0001d0007000001be006000b8000478a3000a
:102cb00013003a006220e10015003e000d003900cb
:102cc0008301d1000281d3008180d3008301d10030
:102cd0000281d3008180d3008301d1000281d3001f
:102ce0008180d3000538b000c42add00f300b200b3
:102cf0008381720007f0a70003f0a0000000060027
:102d000083ff2700020020006110b900f9ff37009f
:102d100003ff2700f7ff3700c70ade00f107b20004
:102d2000f50fb20008003200e1cf4200020032008d
:102d30000170a00024000500810f70000100320026
:102d40000408050044000500810f700002003a00ed
:102d5000140005008502e9000000400081c0480021
:102d6000fcff3b000170a00024000500020ab9002e
:102d7000001bb9000200b80081004200810043003e
:102d800000000600889fbe008a9fbe0030044200fb
:102d9000b0844a0030054b0090854b006000b100c4
:102da0000898be000a90be000440e10005c8e1009a
:102db00006d0e10007d8e1000200310068004000c1
:102dc0001008e8004f05be004f04be0000000600da
:102dd000889fbe008a9fbe003004be002005be0052
:102de0000418540005985c0006185d0007985d0003
:102df000110020000440e10005c8e10006d0e10018
:102e000007d8e100010039008000eb0010881000b5
:102e10004f05be004f04be0000000600f4874700c7
:102e2000889fbe008a9fbe008c9fbe008e1f7800c8
:102e3000d0b79f00e1b79f00f2b79f0083bf9f000c
:102e40000605be000404be00cfae97000000eb00f4
:102e5000c0b79f00b0b79f00a0b79f0090b79f007a
:102e600080b79f00000678004fb097000001400037
:102e70000000e00006003d003c0007000f0747008f
:102e8000450007000f004000beff070005003700a7
:102e9000360007000f0747003f0007000f00400003
:102ea000cbff07004fb797000e00e0000c00350085
:102eb0005fb29700efb297007fb397008fbb970088
:102ec00010002000010020006011b8000002720014
:102ed0008182720002037300838373001c00070069
:102ee0000c06e80001042000810f5600deff3a00c6
:102ef0000e00e00005003d000802be000a03be000f
:102f000000fe2f000f0040009eff07000d00e000b4
:102f100005003a000fb297009fb297002fb39700b9
:102f2000bfb397000a0007005fb09700efb09700ab
:102f30007fb197008fb997004f0778004f06be000a
:102f40004f05be004f04be004f01b1000000060057
:102f5000010007000000060094b79f00a5b79f007e
:102f6000b6b79f00c7b79f00000006009fb097004c
:102f70004f08de0002017000a2b79f000fb097005b
:102f80004f01de00818040008100710091b79f00f9
:102f90000efe2f0000000600de0078004f09de0064
:102fa000000040000000710080b79f006fa89700ec
:102fb0004f01de0081804000010f71000e0007000c
:102fc0004f3ade000000400004007000e0af9f00b8
:102fd000090007000402420085824a0006034b00f4
:102fe00087834b00dcff07000802be000a03be0017
:102ff00000fe2f00000006001fb29700afb297003e
:103000003fb39700cfb3970000000600881f7800f9
:1030100018002000881f780080ff07008f87e900d4
:103020004f04780000000600801feb007bff0700c4
:103030008f87e90000000600889fbe008a9fbe00bf
:103040008c1f78000006eb00e00f5000e08f580066
:10305000e00f5900e08f590007003d006044b800c0
:103060006055b8000000540081805c0002015d00e2
:1030700083815d001c002000e00f5200e08f5a00a9
:10308000e00f5b00e08f5b0007003d006044b8008c
:103090006055b8000402540085825c0006035d00a0
:1030a00087835d000c00a2000c0007000c00e0000c
:1030b000060032006022b8006033b8000000520001
:1030c00081805a0002015b0083815b004f0678001b
:1030d0004f05be004f04be0000000600889fbe00e2
:1030e0008a9fbe008c9fbe000404b8000506b8008d
:1030f0008904460060854e000606b8000a054600b1
:10310000e0854e000706b8008b054600040eb800a7
:10311000890446000a854e00e0854d00050eb80082
:103120000a0546008b854e00060eb8008b0546004a
:103130000416b8000a0546008b854e000516b80037
:103140008b054600041eb8008b0546000800be0033
:103150000a01be004f06be004f05be004f04be0070
:043160000000060065
:020000040000fa
:103164004d4300002b410000424f00005554000025
:10317400004d0000432b0000424c00004f42000071
:103184005445000053540000004d0000432b000040
:10319400504900004e470000004d0000432b000042
:1031a40045430000432b0000474500004e500000fb
:1031b400554200004b450000590000004d430000fb
:1031c4002b450000434300002b4c00004f430000fc
:1031d4004b0000004d4300002b450000434300001a
:1031e4002b4f0000545000002b52000045410000ba
:1031f400440000004d4300002b4500004343000001
:103204002b500000554200004b450000592b000094
:103214005245000041440000004d0000432b0000d3
:1032240045430000432b000050550000424b000072
:10323400455900002b570000524900005445000036
:10324400004d0000432b000045430000432b0000c9
:103254005245000041440000004d0000432b000093
:1032640045430000432b0000534500005249000031
:10327400414c0000004d0000432b0000454300007a
:10328400432b000053490000474e0000444900000e
:103294004745000053540000004d0000432b00003c
:1032a40045430000432b00005752000049540000de
:1032b400454200004c4f0000420000004d43000016
:1032c4002b470000455400004c450000440000001a
:1032d4004d4300002b4c00004953000054430000b0
:1032e4004f4d00004d4100004e44000053000000cb
:1032f4004d4300002b52000045530000455400008c
:10330400004d0000432b000053450000544c0000c6
:1033140045440000004d0000432b000056450000ca
:1033240052530000494f00004e0000004d4300007e
:103334002b570000494e0000432b0000455200006b
:1033440041530000450000004d4300002b5700008e
:10335400494e0000432b0000524500004144000048
:10336400004d0000432b0000574900004e4300006d
:103374002b5700005249000054450000424c000005
:103384004f42000000000000b2980000005d000001
:1033940000000000bb980000f2740000010000006f
:1033a400c7980000c265000000000000cf9800002c
:1033b4007c41000000000000e0980000424800004a
:1033c40000000000ec980000383f000000000000fe
:1033d400fc98000048440000000000000f99000021
:1033e4003a4200000100000023990000e43c000080
:1033f400000000002f990000a0550000000000000c
:103404003d990000ea420000010000004f990000cd
:10341400163800000100000060990000d850000038
:10342400000000006a990000da5b00000000000060
:103434007a9900004a74000000000000839900009b
:10344400b0540000000000008d9900009e47000069
:103454000000000098990000065b000000000000d6
:10346400a6990000523b000000000000b399000040
:103474004237000001000000434f00004d4d0000a2
:10348400414e000044480000414e0000444c0000fe
:1034940045520000003100002e3300002e300000a1
:1034a40000250000730d00000a00000046490000da
:1034b400524d00005741000052450000003000000a
:1034c4002e3400002e370000005000004943000055
:1034d4002d4900006f5400002057000047000000f1
:1034e40050490000432d0000496f000054200000a3
:1034f400707200006f76000069730000696f00004d
:103504006e6900006e67000020460000570000004e
:10351400257300000d0a0000465700002025000016
:10352400730d00000a250000734300006f6d000056
:103534006d6100006e64000020680000616e000090
:10354400646c00006572000020250000730d00000b
:103554000a6600006f7200002074000068650000b5
:1035640020250000730d00000a0000004d430000f8
:103574002b5000004f4e0000473d00002573000013
:10358400000d00000a00000045520000524f0000e8
:103594005200000044410000544100000043000078
:1035a4004f4e00004e0000005749000046490000fd
:1035b400004f00004e0000004f460000460000008f
:1035c4004c450000443a00002573000020690000c7
:1035d400732000004f4e00000a0d0000004c000054
:1035e400454400003a250000732000006973000080
:1035f400204f0000464600000a0d0000005700005e
:10360400494e000043000000574900004e430000ab
:1036140020660000697200006d770000617200008e
:1036240065200000256400002e250000642e0000a3
:10363400256400000d0a0000574900004e430000b5
:1036440020640000726900007665000072200000aa
:10365400256400002e250000642e0000256400006f
:103664000d0a000000000000576500006c630000b4
:103674006f6d000065200000746f0000207400006e
:103684006865000020500000494300002d490000f7
:103694006f540000206300006f6d00006d61000036
:1036a4006e64000020680000616e0000646c00001d
:1036b40065720000210d00000a0000005245000060
:1036c40041440000590d00000a0000003e000000c3
:1036d4000d0a0000004f00004b0d00000a0000001e
:1036e40045520000524f0000523a000020300000c2
:1036f40078250000580d00000a0000000e79000033
:103704007477000030740000b86600008868000018
:10371400a4670000107700003c7800001c770000cc
:1037240076730000cfff0000ffff0000c900000017
:10373400e824000000000000005200005c000000cb
:10374400200100003f0000000000000020010000f4
:1037540000000000000000000411000033430000da
:0837640004070000c44000004e
:020000040000fa
:10376c00d000fa00840c20000e024200004a7800bf
:10377c00a00c20000e00400001087800c00c2000b6
:10378c000e0040000288be00800c20000e0040009d
:10379c009040780010c4b30080cf50000600320077
:1037ac00800c20000e0040009040780040c5b30013
:1037bc0080cf500018003a007000470043002000f2
:1037cc0000017800c00c20000e0040001000be006c
:1037dc00572007000004e00017023a007100470070
:1037ec009040780074004700014878001040800039
:1037fc000000e0001202320013408000700047000d
:10380c0010407800f40047000101780011c0b300ab
:10381c00030001001b023700800c20000e0040004a
:10382c009040780020c4b30080cf500018003a00bc
:10383c00760047004300200000017800c00c2000f7
:10384c000e0040001000be00392007000004e0000c
:10385c000c023a0077004700904078007a0047004d
:10386c0001487800104080000000e00005023200a2
:10387c00134080007600470010407800fa004700a3
:10388c000101780021c0b30003000100fd013700e5
:10389c00800c20000e0040009040780030c4b30033
:1038ac0080cf50006f003a007c004700c30020001e
:1038bc0000017800c00c20000e0040001000be007b
:1038cc001b2007000004e000ee013a00500220002b
:1038dc000e004000104078000004e0003f0035006e
:1038ec00500220000e004000104078008001fb00c8
:1038fc00400220000e004000104078000000fb0049
:10390c006c00b90000007800e800400080f0200056
:10391c00008040000000e800104178006c18b900ed
:10392c008000780000f12000008040000000e800da
:10393c0002487800500220000e0040001040780031
:10394c000000fb006c00b9008000780000f1200042
:10395c000080400011c0b3000148780050022000e4
:10396c000e004000104078000000fb0061022000b7
:10397c008e80400091007800688150006c00b90086
:10398c0080007800e0f02000008040000208780001
:10399c00004080000000e8000040880000408000eb
:1039ac000000e00003003a00004080000000e80046
:1039bc0000408800500220000e00400010407800ab
:1039cc000000fb00024080006c00b9008000780011
:1039dc00c0f0200000804000020878005002200057
:1039ec000e00400090407800800220000e00400045
:1039fc000148780021002000a00220000e004000a9
:103a0c00010878007e00470090007800c00220007a
:103a1c000e00400001087800000220000e0040005b
:103a2c001000be00e20220000e0141000089be0021
:103a3c00104080000000e000920132001340800032
:103a4c00400220000e00400010407800810220004f
:103a5c008e8040000101780041c0b30003000100da
:103a6c0088013700800c20000e0040009040780048
:103a7c0040c4b30080cf500006003200800c200000
:103a8c000e00400090407800b0c4b30080cf5000ce
:103a9c0035003a00a00320000e0040004300200037
:103aac0000017800c00c20000e0040001000be0089
:103abc009f1f07000004e00063013a00a0032000f0
:103acc000e00400090407800e00320000e00400003
:103adc0001487800b00320000e00400090407800b0
:103aec00f00320000e00400001487800b0032000d5
:103afc000e004000104078000004e0000d003a0079
:103b0c00a00320000e004000104078000000fb00d5
:103b1c00c10320008e804000910078006881500025
:103b2c006c00b90080007800e0f0200000804000bc
:103b3c0002087800104080000000e00044013200d0
:103b4c0013408000a00320000e00400010407800bd
:103b5c00e10320008e8040000101780051c0b300c9
:103b6c000300010047013700800c20000e004000cc
:103b7c0090407800a0c4b30080cf500017003a00ea
:103b8c00400820000e004000430420000001780093
:103b9c00c00c20000e0040001000be00641f070087
:103bac000004e00037013a00204080000000e000f3
:103bbc003401320025408000400c20000e004000f3
:103bcc001000be00440820000e0242000001be009e
:103bdc0004007800050001002a013700800c200049
:103bec000e0040009040780060c4b30080cf5000bd
:103bfc000c003200800c20000e0040009040780039
:103c0c0080c4b30080cf500006003200800c20002e
:103c1c000e00400090407800d0c4b30080cf50001c
:103c2c0087003a0060c0b300004f7800800c200081
:103c3c000e0040009040780080c4b30080cf50004c
:103c4c0002003a0090c0b300004f78000101200040
:103c5c006600470001087800000420000e004000b8
:103c6c00e60047009101780000017800c00c2000ac
:103c7c000e0040001000be002d1f07000004e000e5
:103c8c00f5003a008000eb0068004700010878005e
:103c9c006a004700c10420008e8040001148780063
:103cac0068004700e10420008e8040001108780075
:103cbc006a004700104078000000fb006c00b9005f
:103ccc008000780020f12000008040008040eb0054
:103cdc00014878006c004700810420008e80400071
:103cec00110878006e004700a10420008e8040006f
:103cfc0011087800200420000e004000900078008d
:103d0c00800520000e0040000108780040042000cf
:103d1c000e0040001000be00a20520000e01410064
:103d2c000089be006a004700104078000000fb00cc
:103d3c006c00b90000007800e400400080f0200026
:103d4c000080400090007800680047001000780068
:103d5c00808f5000c2003a006c00470010007800c1
:103d6c000000e000220034006c0047009000780056
:103d7c00a00c20000e00400010007800808f500036
:103d8c001b0031006e004700100078008000eb0033
:103d9c00c20c20000e0141001201be0002004000c6
:103dac0083804800c20c20000e0141000089be0037
:103dbc0066004700ec004700110878000005200061
:103dcc000e004000e600470091017800c10c200075
:103ddc008e8040001102be001e41780080007800e9
:103dec006a0047001040780060070700a500370004
:103dfc00200520000e004000ec0047001108780060
:103e0c008000eb00000520000e0040000108780047
:103e1c00104080000000e00093003200134080004e
:103e2c00000520000e004000000178009e40780044
:103e3c006a00470010407800030001009100370031
:103e4c00800c20000e0040009040780050c4b3005d
:103e5c0080cf50000c003200800c20000e0040007f
:103e6c009040780070c4b30080cf50000600320040
:103e7c00800c20000e00400090407800c0c4b300bd
:103e8c0080cf500041003a0071c0b3000e00e80032
:103e9c0001487800800c20000e0040009040780013
:103eac0070c4b30080cf500003003a0081c0b3004f
:103ebc000e00e80001487800800620000e0040004b
:103ecc008300200000017800c00c20000e00400090
:103edc001000be00961e07000004e00064003a00cb
:103eec008000eb000e80e8000108780064004700b9
:103efc00810620008e804000114878000e80e8007a
:103f0c00c10620008e80400011087800a006200019
:103f1c000e00400090007800600620000e0040006b
:103f2c000108780064004700104078000000fb0096
:103f3c006c00b90000007800e400400080f0200024
:103f4c0000804000900078000e80e800100078009f
:103f5c00808f500048003a00104080000000e000c4
:103f6c004700320013408000600620000e00400025
:103f7c00000178000e00e8009040780064004700d3
:103f8c0010407800030001003e003700800c200038
:103f9c000e0040009040780020c5b30080cf500048
:103fac0038003a00000720000e00400043012000ba
:103fbc0000017800c00c20000e0040001000be0074
:103fcc005b1e07000004e0002e003a0040072000b2
:103fdc000e0040001001be00504080006140800087
:103fec00800f5100818f590011003a004040800031
:103ffc000000e0000e003200454080000008200068
:10400c000e00400010417800800720000e00400098
:10401c001000be00030720008e8141001303be0078
:10402c00024278000001be000600be00050001003f
:10403c000828ef00130037000000000011003700c3
:10404c00000000000f003700000000000d003700da
:10405c00000000000b0037000000000009003700d2
:10406c0000000000070037000000000005003700ca
:10407c0000000000030037000000000001003700c2
:0c408c00000000000080fa0000000600a8
:020000040000fa
:104098003c00fa00250320008e824200804a780006
:1040a800400320000e004000010878006003200053
:1040b8000e00400002087800800320000e00400037
:1040c80003087800a00320000e00400004087800d0
:1040d800100e2000000f78008000eb0070004700f1
:1040e800010878008000eb000e80e80001087800e5
:1040f8008000eb0064004700010878008000eb00b6
:10410800660047000108780001c2b3006800470054
:10411800014878008000eb006a0047000108780039
:104128008000eb006c004700010878008000eb007d
:104138006e00470001087800200320000e004000b0
:10414800104078000004e0000c003200200320003a
:104158000e00400010407800e14f50000700320088
:10416800200320000e00400010407800e24f50006d
:1041780002003200200e2000d70037002003200064
:104188000e00400010407800e24f500007003a004f
:10419800400320000e00400010007800ef0f500090
:1041a80002003600200e2000cb003700a0032000bc
:1041b8000e004000100078000000e00002003a0005
:1041c8000000eb00c4003700800320000e00400010
:1041d800100078000000e00002003a00200e2000e5
:1041e800bd00370070004700000178004003200040
:1041f8000e00400090007800200320000e004000d0
:1042080010407800480a0700000f78001e00780068
:104218000000e000ac003a00600320000e004000ff
:1042280090007800a00320000e00400010007800e5
:1042380000804000f000470091007800810f500096
:1042480002003600200e2000a30037006003200083
:104258000e00400010007800c500de006400470032
:104268000108780090003700680047009040780007
:1042780000c2b30080cf500015003a00700047001c
:104288009000780064004700100078004500dd00c9
:1042980000805000ff0f50000d003e0041c0b300e9
:1042a80068004700014878000e80e8009000780018
:1042b800600320000e0040001000780000804000dd
:1042c8004200de00e7006000660047000108780051
:1042d80066004700100078008040780064004700be
:1042e800100078000040780072014700e80147009c
:1042f80093427800020278008141780000417800fa
:10430800400320000e0040009000780020032000a9
:104318000e0040001040780023080700000f7800c6
:104328001e0078000000e00069003a0064004700c1
:10433800100078004300dd00e60047009100780097
:1043480001004000c200dd006e004700010878004f
:104358006e00470090007800600320000e004000c7
:1043680010007800808f50000900310060032000a1
:104378000e004000900078006e00470010007800a2
:10438800808050006a004700010878000300370069
:104398008000eb006a00470001087800a0032000b5
:1043a8000e004000900078000e80e80010007800b1
:1043b8008080500068004700104078000080fb00b3
:1043c8006a0147001201780002005000808f5000f7
:1043d80009003100a00320000e0040009000780082
:1043e8000e80e80010007800808050006c004700c4
:1043f800010878000800370068004700104078007e
:104408000080fb00ea00470091007800810050001e
:104418006c0047000108780072004700ea00470076
:104428009100780081004000800320000e004000c9
:10443800100178000e80e8001000780000004100ac
:104448006c014700120178002ff107000e80e80088
:10445800900078006c0047001000780080804000d1
:104468000e80e80001087800680047009040780056
:1044780000c2b30080cf500006003a006400470035
:10448800100078008000e800640047000108780008
:104498000500370066004700100078008000e8003b
:1044a80066004700010878000e80e8009000780058
:1044b800a00320000e00400010007800808f5000fc
:1044c80069ff3900030037000000000001003700d1
:1044d800000000001e0078000080fa0000000600be
:020000040000fa
:1044e8000c00fa00ea00470080487800c1408000cc
:1044f800f0072000808f50000e00360020002000ba
:10450800a32307001828ef006a004700104078002e
:10451800902807000004e00003003200100020008b
:1045280090408800ec003700300020009040880060
:10453800e900370090408000e10f50000a00320087
:10454800e10f500005003900e20f500085003200ed
:10455800e30f5000cf003200d50037001828ef00d5
:1045680010002000904088006a0047001040780042
:10457800782807000004e00003003200c0408000f3
:104588000000e000cd003200c1408000f0072000ac
:10459800808f5000050036003000200090408800d1
:1045a800200020007a230700cb003700c04080009d
:1045b800e1c52000808040006a01470092487800e9
:1045c8000000e800c04088006a00470010407800fa
:1045d800602807000004e000ba0032002c2a070017
:1045e80000110700000f78001e0078000000e000ae
:1045f80058003a001628ef00d040800064004000c0
:10460800104078000004e0002d0032001cc8bf00f4
:104618000004e000260032001cc8bf000080fb0038
:104628000000e90080004000e0cd2000008040004c
:1046380090017800680047000001eb0080007800d6
:104648000300780069f1070000007800a0408800a6
:10465800a140800000402000808f500006003600f6
:1046680000402000a04088004000200048230700a8
:104678001228ef0098003700680047001000780003
:10468800104078000004e00005003a0080b62900d8
:104698008b26070020002000904088008e003700fd
:1046a800400020003a2307001228ef008a00370054
:1046b80010002000362307001228ef00860037007c
:1046c800d04080000080e800100278001cc8bf00bd
:1046d80063812000e2852000e1cd20000400010074
:1046e800000f7800b04080000000e00019003200a0
:1046f800804080000000e000160032008000eb00df
:104708000e80e800010878000c0037008240800025
:10471800e08520008e80e8009100780001004000cc
:1047280010407800020001000e80e80010007800b8
:104738008000e8000e80e80001087800b1408000a1
:104748000e80e80010007800810f5000efff39005c
:10475800cf2907001e0078000d2307001228ef005c
:104768005d003700b04080000000e00005003a001e
:104778006a00470010407800f62707000004e000b0
:1047880052003a00b1408000a0408000808f500065
:1047980009003100b0408000ea004700114178006c
:1047a800e185200080804000824878000000e80011
:1047b800b0408800480037006a0047001040780081
:1047c800e42707000004e0002d003200b0290700ac
:1047d800d04080000080e800100278001cc8bf00ac
:1047e80063812000e2852000e1cd20000400010063
:1047f800800078006600470001087800b04080001b
:104808000000e00018003200804080000000e00056
:10481800150032008000eb006400470001087800b2
:104828000c00370082408000e0852000e40047004b
:10483800910078000100400010407800020001005b
:1048480064004700100078008000e800640047001a
:1048580001087800b140800064004700100078002b
:10486800810f5000efff39008929070066004700d3
:1048780010007800c62207001228ef001600370043
:1048880040002000c222070030002000904088002d
:10489800110037006a00470010407800ad27070074
:1048a8000004e0000b0032001228ef000a00370075
:1048b800300020009040880007003700000000000a
:1048c800050037000000000003003700000000006a
:1048d80001003700000000000080fa000000060018
:020000040000fa
:1048e8005e080000a004000080000000100800001e
:1048f8000e000000800000001610000020000000dc
:1049080082000000c69a460078867000ce75cc00fa
:104918009a4e7800a870e20075d19a005678ca00bd
:1049280070f67500d69a5e0078ec70000875000085
:104938004e080000020000008000000092100000f5
:104948001a000000800000003e0800000600000079
:1049580080000000500800000200000080000000f5
:1049680036100000200000008200000032765a0055
:1049780073b875000e63000066447600346c9200cc
:10498800779c7700a677b00077ba7700c477ce0017
:10499800771e7600da710000f00f00002600000094
:1049a80080000000520800000200000082000000a1
:1049b800010000002c0800000a0000008000000030
:1049c8004a080000040000008000000054080000ad
:1049d80002000000800000008c0f00003c00000076
:1049e800820000002c000400001b000008000600e4
:1049f8000030000032001800003d000000002f00c9
:104a080000640000340004000011000004001300da
:104a1800002c0000040004000065000004000900e8
:104a2800006400002a0004000027000004003e0083
:104a380000000000360800000800000080000000a8
:104a4800080f00008400000080000000000800003b
:104a5800100000008000000056080000020000005e
:104a680080000000440800000600000080000000ec
:104a7800c80f0000280000008200000000000300aa
:104a880000b00200a0860100000000000000000045
:104a9800000000000000000000000000000000000e
:104aa80000000000000000000018060014000000cc
:104ab80000000000561000002000000080000000e8
:104ac800580800000200000082000000ffff0000fc
:104ad8005a0800000200000080000000080e0000d4
:104ae80000010000800000001e0800000e00000009
:104af800800000005c080000020000008000000048
:104b0800761000001c00000082000000286e69007a
:104b18006c29000068076c00094c83006a907400d7
:104b2800a07ac00000806800880084006c820000c1
:104b380081000000fe0c00000a0100008200000055
:104b4800000102000407030006050000ffffff0044
:104b5800ffffff00ffffff00ffffff00ffffff0059
:104b6800ffffff00ffffff00ffffff00ffffff0049
:104b7800ffffff00ffffff00ffffff00ffffff0039
:104b8800ffffff00ffffff00ffffff00ff00010026
:104b980002030400050607000809ff00ffffff00e5
:104ba800ffffff000a0b0c000d0e0f001011120082
:104bb8001314150016171800191a1b001c1d1e00c7
:104bc8001f2021002223ff00ffffff00ffff0a0034
:104bd8000b0c0d000e0f1000111213001415160007
:104be800171819001a1b1c001d1e1f002021220067
:104bf80023ffff00ffffff00ffffff00ffffff0095
:104c0800ffffff00ffffff00ffffff00ffffff00a8
:104c1800ffffff00ffffff00ffffff00ffffff0098
:104c2800ffffff00ffffff00ffffff00ffffff0088
:104c3800ffffff00ffffff00ffffff00ffffff0078
:104c4800ffffff00ffffff00ffffff00ffffff0068
:104c5800ffffff00ffffff00ffffff00ffffff0058
:104c6800ffffff00ffffff00ffffff00ffffff0048
:104c7800ffffff00ffffff00ffffff00ffffff0038
:104c8800ffffff00ffffff00ffffff00ffffff0028
:104c9800ffffff00ffffff00ffffff00ffffff0018
:104ca800ffff0000ac1000000200000080000000c0
:044cb80000000000f8
:020000040000fa
:104cbc001400fa00ea024700804a78006c004700b2
:104ccc00010878006e004700020878007000470069
:104cdc00030878007200470004087800100e2000ca
:104cec00000f78008000eb00680047000108780096
:104cfc008000eb000e80e800010878008000eb00db
:104d0c0064004700010878008000eb006600470053
:104d1c00010878006a004700104078000004e000a9
:104d2c000a0032006a00470010407800e14f500042
:104d3c00060032006a00470010407800e24f500035
:104d4c0002003200200e2000bf0037006a0047002e
:104d5c0010407800e24f500006003a006c0047000b
:104d6c0010007800ef0f500002003600200e2000db
:104d7c00b500370072004700100078000000e0001a
:104d8c0002003a000000eb00af0037007000470053
:104d9c00100078000000e00002003a00200e200015
:104dac00a90037006e004700100078006300600017
:104dbc000000e00005003a00720047001000780087
:104dcc00630060000000e00002003200200e2000b2
:104ddc009d00370068004700000178006c00470018
:104dec00900078006a004700104078004d070700db
:104dfc00000f78001e0078000000e0008c003a00e4
:104e0c006e00470090007800720047001000780098
:104e1c0000804000e800470091007800810f5000ae
:104e2c0002003600200e2000870037006e0047007d
:104e3c0010007800c500de0064004700010878000f
:104e4c006e004700100078007f006000c200de009a
:104e5c0066004700010878006e00370066004700c6
:104e6c00100078000000e00030003a0072004700ab
:104e7c00900078000e80e800100078000080500050
:104e8c00ff0f5000290036006a00470010407800e0
:104e9c000004e00004003a006400470010007800b1
:104eac00e20f5000210032007000470090007800a3
:104ebc000e80e800100078008080400064004700fd
:104ecc00100078000040780005c2b30001027800a1
:104edc008041eb00004178006c00470090007800a6
:104eec006a0047001040780081120700000f78001c
:104efc001e0078000000e0004f003a000e80e80031
:104f0c001000780001022000808040000e80e80034
:104f1c000108780064004700100078008000e80069
:104f2c0064004700010878003a0037006a00470027
:104f3c00104078000004e00008003a0064004700cc
:104f4c0010007800e20f500004003a0066004700a1
:104f5c0010007800e50f5000180032007000470078
:104f6c00900078000e80e80010007800008140006e
:104f7c00660047001000780080407800640047000d
:104f8c00100078000040780045c0b30002027800a1
:104f9c0081417800004178006c0047009000780057
:104fac006a0047001040780051120700000f78008b
:104fbc001e0078000000e00021003a000e80e8009e
:104fcc0010007800e40040000e80e8000108780032
:104fdc0066004700100078008000e800660047007b
:104fec00010878006600470010007800e80f5000b8
:104ffc0008003a0064004700100078008000e800c8
:10500c0064004700010878008000eb006600470050
:10501c00010878000e80e8009000780072004700cc
:10502c0010007800808f50008cff3900050037008d
:10503c0000000000030037000000000001003700f2
:10504c00000000001e0078000080fa00000006003e
:020000040000fa
:10505c002c00fa00820220000e01410000097800a9
:10506c00a00220000e00400001087800100e200065
:10507c00000f78008040eb000e80e80001487800bb
:10508c008040eb0063004700014878008040eb0053
:10509c0064004700014878008040eb006500470041
:1050ac00014878008040eb0066004700014878001a
:1050bc00a00220000e004000100078000000e0006c
:1050cc0002003a00200e2000bc00370080022000b5
:1050dc000e00400010007800e70f5000050036006d
:1050ec00800220000e00400010007800ef0f5000ee
:1050fc0002003600200e2000b00037008040eb008c
:10510c000e80e800014878006700470005c2b30034
:10511c000002780063004700904178000e80e800a0
:10512c0010417800800220000e00400090007800b2
:10513c0020c0b3009b040700000f78001e0078000d
:10514c000000e00097003a00c1c1b30065004700c1
:10515c000148780041c0b300660047000148780060
:10516c0065004700104078000081fb006600470096
:10517c00104078000080fb00e70047008080400072
:10518c0064004700104078000080fb00a302200060
:10519c008e8141009301780000804100d9ed070019
:1051ac00640047009040780065004700104078008c
:1051bc0080c04000640047000148780011c0b30073
:1051cc000e80e800014878006700470005c2b30074
:1051dc000002780063004700904178000e80e800e0
:1051ec0010417800800220000e00400090007800f2
:1051fc0020c0b3006b040700000f78001e0078007d
:10520c000000e00069003a0041c0b30065004700af
:10521c00014878008040eb006600470001487800a8
:10522c0065004700104078000081fb0066004700d5
:10523c00104078000080fb00e700470080804000b1
:10524c0064004700104078000080fb00a30220009f
:10525c008e8141009301780000804100a9ed070088
:10526c0064004700904078006500470010407800cb
:10527c0080c04000640047000148780081c0b30042
:10528c00660047000148780001c2b3006600470081
:10529c001040780080c0500065004700014878003d
:1052ac0065004700104078000081fb006600470055
:1052bc00104078000080fb00e70047008080400031
:1052cc0064004700104078000080fb00a30220001f
:1052dc008e814100930178000080410089ed070028
:1052ec00640047009040780065004700104078004b
:1052fc0080c04000640047000148780021c0b30022
:10530c000e80e800014878006700470005c2b30032
:10531c000002780063004700904178000e80e8009e
:10532c0010417800800220000e00400090007800b0
:10533c0020c0b3001b040700000f78001e0078008b
:10534c000000e0001b003a0081c0b300650047007c
:10535c00014878008040eb00660047000148780067
:10536c0065004700104078000081fb006600470094
:10537c00104078000080fb00e70047008080400070
:10538c0064004700104078000080fb00a30220005e
:10539c008e814100930178000080410059ed070097
:1053ac00050037000000000003003700000000007b
:1053bc0001003700000000001e0078000080fa0099
:0453cc0000000600d7
:020000040000fa
:1053d0000c00fa00889fbe008a9fbe00660247004c
:1053e000004a7800670047000148780068004700dd
:1053f0000288be006011b800c0002000c10020007b
:10540000482007006011b800c008210001002000fa
:10541000442007006011b800c07a2000210020005d
:10542000402007001200200003002000801121000e
:1054300001002000001a07000000e0000200320016
:105440000040eb00ad0037000240200003002000c8
:105450000040210001002000f71907000000e000d3
:10546000030032000040eb00a40037000000000001
:10547000400121000100200027210700e00f50001b
:10548000e08f5800f9ff3d00c07b20002100200084
:105490002121070000007800610060008005eb001a
:1054a000000578000a00be00e00f5000e08f5800b1
:1054b00026003a00017d20006400470001087800c2
:1054c0000c0037001000200001002000c12107005f
:1054d000c0002000c10020000f2107000001be0015
:1054e000e0092d00d10a2100800f5100818f590061
:1054f0000f003200640047001000780000f0a700a1
:105500000000ea000000ea004f00de0000407800e2
:10551000e4004700910078000101e900e400470041
:10552000820878000004e000e6ff3a00010037003e
:105530000000000064004700100078000000e00058
:1055400002003a000040eb006c0037000010200021
:1055500001002000008fbe00660047001040780068
:105560000004e00006003200d2572d00c3c1230022
:10557000c07a200021002000ea1f07000500370044
:1055800067004700104078000004e000010032008e
:105590001e70a000680047001001be00c008210076
:1055a00001002000df1f0700a30807000001be0064
:1055b000f0ff2000010020000202780003017800c3
:1055c00080017800810078000300620081006100a2
:1055d00081047800000478000801be00f039200042
:1055e00001002000800f5100818f5900010036001a
:1055f0001e10a0001e00be00fc1e070012f62200b6
:1056000023f52e00c0002000c1002000c51f0700a8
:10561000017d200064004700010878002800370061
