:100000000C9469000C940B330C94ED2F0C940B336F
:100010000C940B330C940B330C940B330C940B3368
:100020000C940B330C940B330C940B330C940B3358
:100030000C940B330C940B330C940B330C940B3348
:100040000C940B330C940B330C940B330C940B3338
:100050000C940B330C940B330C940B330C940B3328
:100060000C940B330C940B330C940B330C940B3318
:100070000C940B330C94761C0C940B330C94A62824
:100080000C94CF280C94612E0C940B330C940B33EE
:1000900028002CC9802CC92CED0066442CED2D11B4
:1000A000802D112D380066682D382D48802D482D63
:1000B0004C00668F2D4C2D54802D542D5800669386
:1000C0002D582D6E802D6E2D6F0021872D6F2D7276
:1000D000800011241FBECFEFCDBFDFE3DEBFE0E91C
:1000E000F0E040E017C0B591A591359125910591BB
:1000F00007FD0CC095918591EF01F92FE82F059030
:100100000D92A217B307D9F7FE0104C01D92A217E2
:10011000B307E1F7E13DF40731F70E94122B0C948D
:060120009100F894FFCFEE
:10012600AF92BF92CF92DF92EF92FF920F931F93FF
:10013600CF93DF9300D0CDB7DEB7F82E0091042819
:100146001091052800381105A8F082E090E00E9481
:10015600CB2710920428109205288F2D0E94393142
:10016600882321F081E08093892CEAC183E0809383
:10017600892CE6C18091892C8130A9F038F0823033
:1001860009F421C1833009F490C198C11092042862
:100196001092052881E08093892C8F2D0E94393199
:1001A600882361F0CDC18F2D0E943931882309F44F
:1001B60089C10115110509F090C1C2C181E090E025
:1001C6008093042890930528F0920728B9C10F2E32
:1001D600F2E9EF2EFCE8FF2EF02D00E010E06801BA
:1001E600AE014F5F5F4F67E078E2D7018D919C913A
:1001F6000E94F01F882381F0C601880F991F880F7F
:10020600991F8C0D9D1D8E569347809300289093C1
:1002160001280B1548F07CC10F5F1F4FB5E0EB0EB0
:10022600F11C0B15E0F270C11092062809811A81A3
:10023600F80180818D3309F06FC181810E943931C7
:1002460081116AC10F5F1F4F86E898E2D82ED01A37
:1002560000938A2C10938B2CDD2009F459C1E12CD4
:100266005801D8018C910E949B2CF82EF80181939D
:100276008F010E943931882359F0EE2009F448C1D4
:10028600D5011C92809106288F5F8093062844C171
:10029600BCE2FB1212C0EE2009F43AC1F801319714
:1002A6001082E0910628EF5FE0930628F0E0EE0F5B
:1002B600FF1FE657F34D00831183E394DE1409F420
:1002C60027C1809106288F3058F222C1E091062876
:1002D600EE23B1F1F0E0EE0FFF1FE857F34D40E0DB
:1002E60050E0BE016F5F7F4F808191810E94910433
:1002F60060938728709388286130744068F080E0A6
:1003060094E0809387289093882884E090E00E9468
:10031600CB271092892C14C1E981FA818081811141
:1003260008C08FE693E90E94822D82E08093892C93
:1003360007C184E090E00E94CB271092892C00C16F
:1003460081E090E00E94CB271092892CF9C00280B0
:10035600F381E02D22E038E249E858E26AE87CE2DF
:100366008091062809956C018091022890910328B6
:10037600892B19F18091502D9091512D892BE9F0FF
:100386000F2EF9E8EF2EF8E2FF2EF02D00E010E038
:10039600E091502DF091512DD7018D917D01099558
:1003A6000F5F1F4F809102289091032808171907A5
:1003B60078F381E793E90E94822DC6010E94CB273C
:1003C6001092892CBDC000910228109103280115B6
:1003D600110539F48F2D0E943931882309F4A8C0FC
:1003E600AFC080918728909188280817190758F47C
:1003F600C80101968093022890930328F801E757D5
:10040600F74DF0829DC08F2D0E943931882309F463
:1004160044C081E793E90E94822DE0910028F09183
:1004260001280280F381E02D22E038E249E858E213
:100436006AE87CE28091062809956C018091022881
:1004460090910328892BF9F08091502D9091512D90
:10045600892BC9F00F2EF9E8EF2EF8E2FF2EF02DCA
:1004660000E010E0E091502DF091512DD7018D91D3
:100476007D0109950F5F1F4F8091022890910328F7
:100486000817190778F381E793E90E94822DC601C0
:100496000E94CB271092892C53C084E090E00E94E2
:1004A600CB2783E08093892C4BC08F2D0E94393156
:1004B600882309F445C01092892C42C083E08093BA
:1004C600892C3EC0C8010196809304289093052884
:1004D600F801E95FF74DF08233C0C80101968093B9
:1004E600042890930528F801E95FF74DF08281E72B
:1004F60093E90E94822D87E098E289839A830E947D
:100506000D33B82E811163CECC24C394D12C55CF94
:10051600CC24C394D12C51CF1092022810920328D8
:10052600E0910028F091012884818111CFCE0FCF70
:100536008091872890918828892B09F4AECF58CFCF
:100546000F900F90DF91CF911F910F91FF90EF9039
:0A055600DF90CF90BF90AF900895A2
:10056000ABE0B0E0E6EBF2E00C94692D6C017B01AE
:100570008A01FC0116821782838181FFCCC1CE01E2
:1005800001963C01F6019381F70193FD859193FF5C
:1005900081917F01882309F4BAC1853239F493FD32
:1005A000859193FF81917F01853229F4B60190E016
:1005B0000E94A122E7CF912C212C312CFFE1F315D1
:1005C000D8F08B3279F038F4803279F08332A1F4AC
:1005D000232D20611DC08D3261F0803369F4232DFD
:1005E000216016C0832D8260382EE32DE4603E2EFC
:1005F0002AC0F32DF8601DC037FC2DC020ED280F58
:100600002A3040F08E32B9F436FC81C1232D2064AB
:10061000322E19C036FE06C08AE0989E200D1124A5
:10062000922E11C0EAE02E9E200D1124222EF32DD1
:10063000F0623F2E08C08C3621F4832D8068382E5E
:1006400002C0883641F4F70193FD859193FF8191B3
:100650007F018111B3CF982F9F7D9554933028F45B
:100660000C5F1F4F9FE399830DC0833631F08337B2
:1006700071F0833509F059C021C0F8018081898368
:100680000E5F1F4F88248394912C530113C02801BF
:10069000F2E04F0E511CF801A080B18036FE03C07D
:1006A000692D70E002C06FEF7FEFC5010E942E310F
:1006B0004C018201F32DFF773F2E16C0280122E066
:1006C000420E511CF801A080B18036FE03C0692D96
:1006D00070E002C06FEF7FEFC5010E9423314C0133
:1006E000F32DF0683F2E820133FC1BC0822D90E079
:1006F00088169906B0F4B60180E290E00E94A1222B
:100700002A94F4CFF50137FC859137FE81915F0182
:10071000B60190E00E94A12221102A9421E0821AC1
:1007200091088114910471F7E8C0843611F089367C
:1007300041F5F80137FE07C06081718182819381A4
:100740000C5F1F4F08C060817181072E000C880B61
:10075000990B0E5F1F4FF32DFF763F2E97FF09C0B9
:1007600090958095709561957F4F8F4F9F4FF06862
:100770003F2E2AE030E0A3010E946016882E8618E2
:1007800045C0853731F4232D2F7EB22E2AE030E08C
:1007900025C0932D997FB92E8F36C1F018F4883576
:1007A00079F0B5C0803719F0883721F0B0C0E92F53
:1007B000E061BE2EB4FE0DC0FB2DF460BF2E09C05B
:1007C00034FE0AC0292F2660B22E06C028E030E091
:1007D00005C020E130E002C020E132E0F801B7FEC0
:1007E00007C060817181828193810C5F1F4F06C0B9
:1007F0006081718180E090E00E5F1F4FA3010E9435
:100800006016882E8618FB2DFF773F2E36FE0DC012
:10081000232D2E7FA22E891458F434FE0BC032FCF7
:1008200009C0832D8E7EA82E05C0B82CA32C03C032
:10083000B82C01C0B92CA4FE0FC0FE01E80DF11DBB
:100840008081803321F49A2D997EA92E09C0A2FEC1
:1008500006C0B394B39404C08A2D867809F0B3948B
:10086000A3FC11C0A0FE06C0B21488F4280C922C80
:100870009B180EC0B21460F4B60180E290E00E94B2
:10088000A122B394F7CFB21418F42B1802C0982CFD
:10089000212CA4FE10C0B60180E390E00E94A122AA
:1008A000A2FE17C0A1FC03C088E790E002C088E563
:1008B00090E0B6010CC08A2D867859F0A1FE02C0E6
:1008C0008BE201C080E2A7FC8DE2B60190E00E94BD
:1008D000A122891438F4B60180E390E00E94A1229D
:1008E0009A94F7CF8A94F301E80DF11D8081B60147
:1008F00090E00E94A1228110F5CF222009F442CE7F
:10090000B60180E290E00E94A1222A94F6CFF6017F
:100910008681978102C08FEF9FEF2B96E2E10C94C6
:02092000B22DF6
:10092200A0E0B0E0E7E9F4E00C946A2D5C016B0111
:100932007A016115710519F0FB0180839183E1143D
:10094200F10429F0C7010297839708F0E5C0E50199
:100952002196F5011081812F90E00E94CB31892BE5
:1009620011F05E01F4CF1D3229F42196F5011181B7
:1009720001E007C01B3221F4E5012296F501118145
:1009820000E0E114F10409F1F0E1EF16F10429F4B9
:100992003FC010E3E114F10421F128E0E216F10472
:1009A20001F154F4E2E0EE16F10421F5812C912CD0
:1009B200A12CB0E4BB2E3EC0FAE0EF16F10439F0F0
:1009C20020E1E216F104B1F430C0103319F1FAE07B
:1009D200EF2EF12CACEC8A2E982CA82CACE0BA2E7F
:1009E20029C078E0E72EF12C812C912CA12CE0E19A
:1009F200BE2E20C060E070E080E090E897010F2CEE
:100A0200000C440B550B0E946C2A49015A0112C07A
:100A1200103359F488818F7D883509F0BACF198156
:100A22002296026080E1E82EF12C812C912CA12CDF
:100A320068E0B62E40E060E070E0CB0127010F2CA9
:100A4200000C66087708FE0150ED352E310E29E0C4
:100A5200231570F42FEB210F2A3118F439EC332EC1
:100A620006C02FE9210F2A3118F529EA322E310E5C
:100A7200232D30E02E153F05DCF447FD16C0861607
:100A82009706A806B90670F0A30192010E94B02F42
:100A9200630D711D811D911D61307105810520E875
:100AA200920710F04FEF01C041E021961081CBCFA9
:100AB200202F2170C114D10471F0442329F0219711
:100AC200F601C083D18307C001FF19C02297F60146
:100AD200C083D18314C047FF12C0222329F060E0F3
:100AE20070E080E090E804C06FEF7FEF8FEF9FE748
:100AF20022E230E02093C72C3093C82C09C0222375
:100B020081F090958095709561957F4F8F4F9F4FA3
:100B1200462F372F282F12C040E030E020E090E02F
:100B22000DC097FFF5CF82E290E08093C72C90939F
:100B3200C82C6FEF7FEF8FEF9FE7EACF642F732F01
:0C0B4200822FCDB7DEB7E1E10C94B32D9B
:100B4E004F925F926F927F928F929F92AF92BF92CF
:100B5E00FF920F931F93CF93DF9300D000D0CDB7AA
:100B6E00DEB7F82EB62E29013A0120E030E0A901B9
:100B7E006CE070E0CB010E94AE1F20E030E0A901D6
:100B8E006CE870E180E090E00E94AE1F20E030E063
:100B9E00A9016CEA77E082E090E00E94AE1F21E0AE
:100BAE0030E040E050E068E171E180E090E00E94CA
:100BBE001C1E8111BFC020E034E040E050E060E038
:100BCE0074E180E090E00E941C1E8111B5C064E1CA
:100BDE0070E180E090E00E9420299923C4F76CEB2D
:100BEE0077E082E090E00E94202960FD19C00FECB2
:100BFE0017E061E070E080E090E00E947F2C6CE0F6
:100C0E0070E0CB010E9420296E39704D8D4A9041C3
:100C1E0021F00150110968F703C0012B09F48EC0B1
:100C2E00FF2079F02DE735ED4CE15CE36CEA77E0DF
:100C3E0082E090E00E94AE1F812C912C540193947F
:100C4E000DC0BB2039F0812C912C5401689487F88B
:100C5E00939404C0812C912C54019394A30192017E
:100C6E006CE870E180E090E00E94AE1F0E94EB0DF8
:100C7E00DC01CB019F70AA27BB27803A9340A105C8
:100C8E00B10510F0689481F8A501940160EA74E151
:100C9E0080E090E00E94AE1FAE014F5F5F4F60EAB2
:100CAE0074E180E090E00E94392F811109C08981A2
:100CBE009A81AB81BC8188169906AA06BB0621F7DC
:100CCE0021E63FE242E55FEE6CE070E0CB010E9470
:100CDE00AE1F00ED17E062E070E080E090E00E9451
:100CEE007F2CF11017C06CE870E180E090E00E945C
:100CFE0020296633764283459240B9F420E030E0F5
:100D0E00A9016CE870E180E090E00E94AE1F0E94A5
:100D1E00CF2B17C06CEA77E082E090E00E9420298A
:100D2E00633C714C8D45974D59F00150110999F660
:100D3E0080E007C080E005C080E003C080E001C015
:100D4E0081E02496CDBFDEBFDF91CF911F910F9131
:100D5E00FF90BF90AF909F908F907F906F905F901D
:040D6E004F90089505
:100D7200BF92CF92DF92EF92FF920F931F93CF9386
:100D8200DF93CDB7DEB72597CDBFDEBF6B017C0108
:100D9200890160E070E08DE090E00E94220FB82EA1
:100DA2008111C8C00E94C5197C2D6627552744278A
:100DB2008F2D9927AA27BB27842B952BA62BB72BE0
:100DC2008260B701A601442766277727762F652F11
:100DD200542F4427842B952BA62BB72BCC24DD2410
:100DE200FF24CD2CDE2CEF2CFF24C82AD92AEA2A94
:100DF200FB2A20E030E0A90168E072E081E090E0A7
:100E02000E94AE1FA70196016CE072E081E090E0C3
:100E12000E94AE1F2FE030E040E050E064E172E05B
:100E220081E090E00E94AE1F20E030E04DE050E013
:100E32006CE172E081E090E00E94AE1FC801A0E088
:100E4200B0E0BA2FA92F982F88279C01AD01246802
:100E520064E072E081E090E00E94AE1FAE014E5F5E
:100E62005F4F68E172E081E090E00E94392F8111CA
:100E720008C08A819B81AC81BD810197A105B10522
:100E820069F70E94FF32CE0101960E946D14CE01D5
:100E920001960E946D14811103C0898180FDF7CFF4
:100EA20020E030E0A90168E072E081E090E00E9479
:100EB200AE1F24E030E040E050E06CE072E081E000
:100EC20090E00E94AE1F21E030E040E050E064E19B
:100ED20072E081E090E00E94AE1F20E030E0A901C4
:100EE2006CE172E081E090E00E94AE1F21E830E008
:100EF20040E050E064E072E081E090E00E94AE1FCA
:100F0200AE014E5F5F4F68E172E081E090E00E94C7
:100F1200392F811108C08A819B81AC81BD810197E3
:100F2200A105B10569F70E94FF320E94FF328823B2
:100F320051F005C00F2EF4EFBF2EF02D04C00F2E7E
:100F4200F4EFBF2EF02D8B2D2596CDBFDEBFDF91A6
:100F5200CF911F910F91FF90EF90DF90CF90BF90B4
:020F62000895F0
:100F6400A0E0B0E0E8EBF7E00C946A2D5C016B01C3
:100F74007A016115710519F0FB0180839183E114F5
:100F8400F10429F0C7010297839708F0C9C0E5016D
:100F94002196F5011081812F90E00E94CB31892B9D
:100FA40011F05E01F4CF1D3229F42196F50111816F
:100FB40001E007C01B3221F4E5012296F5011181FD
:100FC40000E0E114F104B1F0F0E1EF16F10429F4CA
:100FD400B0C010E3E114F10401F12AE0E216F104D7
:100FE400B1F180E1E816F10471F0E8E0EE16F104E5
:100FF400F1F413C0103341F588818F7D883549F7AA
:10100400198122960260F0E1EF2EF12C88248A9453
:10101400982CA82CAFE0BA2E20C078E0E72EF12C53
:1010240088248A94982CA82CEFE1BE2E16C06FEF6A
:101034007FEFCB0197010F2C000C440B550B0E9442
:101044006C2A49015A0109C08AE0E82EF12C69E9A9
:10105400862E982CA82C69E1B62E40E060E070E062
:10106400CB0127010F2C000C66087708FE0150ED18
:10107400352E310E29E0231570F42FEB210F2A3180
:1010840018F439EC332E06C02FE9210F2A3130F53C
:1010940029EA322E310E232D30E02E153F05F4F4CB
:1010A4004F3FC9F086169706A806B90688F0A30133
:1010B40092010E94B02F232D30E040E050E0620FF7
:1010C400731F841F951F621773078407950710F415
:1010D4004FEF01C041E021961081C8CFC114D10463
:1010E40051F0442311F0219703C001FF04C022975B
:1010F400F601C083D18300FF07C090958095709559
:1011040061957F4F8F4F9F4F4F3F79F482E290E07C
:101114008093C72C9093C82C3FEF2FEF9FEF0DC007
:1011240040E030E020E090E008C0462F372F282F21
:1011340004C0103309F067CF5FCF642F732F822F61
:0A114400CDB7DEB7E1E10C94B32D46
:10114E002F923F924F925F926F927F928F929F92C9
:10115E00AF92BF92CF92DF92EF92FF920F931F93B7
:10116E00CF93DF9300D0CDB7DEB719821A828330CA
:10117E0008F090C0823021F46031710508F08CC007
:10118E000115110509F48AC02115310509F488C02D
:10119E00F801E42BF52BE370FF27EF2B09F082C04B
:1011AE00680129015A011B01F82EAE014F5F5F4FF6
:1011BE000E943E15811198C029813A81C8018A0D7D
:1011CE009B1D2817390708F46FC035017694679474
:1011DE0076946794769467947694679476946794ED
:1011EE008FE1A822BB24B694A794B694A794812C21
:1011FE00912CA114B10409F5C6018819990980979B
:10120E00E0F0F11005C082E06816710409F45EC0CA
:10121E006894EE24E5F88201080D191D20E0462D94
:10122E00B1018F2D0E946C1F81115EC080E2880E6D
:10123E00911C8FEF681A780A27C0F11008C082E05F
:10124E006816710421F485E0A816B10479F168944A
:10125E00EE24E2F88201080D191D2A2D462DB1014A
:10126E008F2D0E946C1F81113FC084E0880E911C4F
:10127E008FEFA81AB80A88E0A816B10429F48FEFE8
:10128E00681A780AA12CB12C8C149D0408F4B1CFE5
:10129E0080E02AC082EE28C082EE26C080E024C004
:1012AE0082EE22C082EE20C082EE1EC084E0880E46
:1012BE00911C0F2EF6E0AF2EB12CF02DE5CF84E071
:1012CE00880E911C8FEFA81AB80ADECF6894EE2410
:1012DE00E2F88201080D191D2A2D462DB1018F2D20
:1012EE000E946C1F882359F30F900F90DF91CF91BE
:1012FE001F910F91FF90EF90DF90CF90BF90AF9026
:10130E009F908F907F906F905F904F903F902F9017
:02131E00089530
:101320002F923F924F925F926F927F928F929F92F5
:10133000AF92BF92CF92DF92EF92FF920F931F93E3
:10134000CF93DF93CDB7DEB7A597CDBFDEBF1982B0
:101350001A82833008F0A1C0823021F46031710517
:1013600008F09DC00115110509F49BC02115310538
:1013700009F499C0680119012A016CA37DA38BA30C
:10138000AE014F5F5F4F0E943E1581118FC02981D2
:101390003A81C801840D951D2817390708F485C0C6
:1013A00032017694679476946794769467947694F1
:1013B0006794769467946894FF24F5F8812C912CB7
:1013C000A12CB12C80E2F8121CC089819A81930172
:1013D000220F331F22953295307F3227207F32270C
:1013E000821B930B809768F442018A0C9B1C969495
:1013F00087949694879497E0892299246894FF248F
:10140000F2F8EF2C8E010D5F1F4F282D462D6CA199
:101410007DA18BA10E942813811148C0C301880FB0
:10142000991F880F991F880F991F880D991D880F84
:10143000991F880F991F8415950520F4B201681B28
:10144000790B02C060E070E08F2D90E0861B970B57
:1014500086010A191B098017910708F48C0183E0A3
:1014600090E08C0F9D1F680F791FA801C1018A0DA4
:101470009B1D0E94D431A00EB11E90E2F91204C04F
:101480008FEF681A780A03C09FEF891A990AAC1483
:10149000BD0408F497CF80E009C082EE07C082EE59
:1014A00005C080E003C082EE01C082EEA596CDBFEC
:1014B000DEBFDF91CF911F910F91FF90EF90DF90F2
:1014C000CF90BF90AF909F908F907F906F905F90E4
:0814D0004F903F902F9008950A
:1014D8004F925F926F927F928F929F92AF92BF923C
:1014E800CF92DF92EF92FF92CF93DF93CDB7DEB723
:1014F8002597CDBFDEBF6B017C014B015C01820EDD
:10150800931EA41EB51E681579058A059B0508F06B
:101518008CC00E94C51981118AC0CE0101960E9413
:101528006D14811186C07C2C6624552444248F2D8B
:101538009927AA27BB27482A592A6A2A7B2A689406
:1015480045F8D701C6018827AA27BB27BA2FA92F94
:10155800982F8827482A592A6A2A7B2AD701C60140
:1015680088279927BB27892F9A2FAB2FBB27482A73
:10157800592A6A2A7B2A20E030E0A90168E072E053
:1015880081E090E00E94AE1FA30192016CE072E03E
:1015980081E090E00E94AE1F2FE030E040E050E094
:1015A80064E172E081E090E00E94AE1F20E030E04C
:1015B800A9016CE172E081E090E00E94AE1F24E88E
:1015C80030E040E050E064E072E081E090E00E94AA
:1015D800AE1FAE014E5F5F4F68E172E081E090E0C0
:1015E8000E94392F811108C08A819B81AC81BD81FD
:1015F8000197A105B10569F70E94FF32882309F117
:101608001EC0CE0101960E946D14811114C09981EB
:1016180090FDF7CF90E1D90EE11CF11CC814D90454
:10162800EA04FB0408F475CF13C080E011C084EF0E
:101638000FC084EF0DC084EF0BC084EF09C084EFA6
:1016480007C0CE0101960E946D148111F6CFD9CF43
:101658002596CDBFDEBFDF91CF91FF90EF90DF9051
:10166800CF90BF90AF909F908F907F906F905F903A
:041678004F900895F2
:10167C008F929F92AF92BF92CF92DF92EF92FF9296
:10168C000F931F93CF93DF931F92CDB7DEB74C010F
:10169C000E94032A1092A3086894CC24C1F8DD247C
:1016AC00D2F804E0D6010C930F2EF5E0EF2EF4E007
:1016BC00FF2EF02D18E0F7011083E1E0F4E0108329
:1016CC000F2EF6E0AF2EF4E0BF2EF02DD5010C93CB
:1016DC00008361E070E080E090E00E94C02FF50193
:1016EC001083D6010C9361E070E080E090E00E94E2
:1016FC00C02FF701108361E070E080E090E00E9461
:10170C00C02F08E010E06894FF24F3F8EF2C0F2EA4
:10171C00F5E0CF2EF4E0DF2EF02DD501EC9261E058
:10172C0070E080E090E00E94C02FF601F08261E052
:10173C0070E080E090E00E94C02F0150110969F721
:10174C0014E0109306041093010461E070E080E053
:10175C0090E00E94C02F6894EE24E1F8FF24F2F888
:10176C00D7011C9361E070E080E090E00E94C02FF4
:10177C0088E0F701808381E08093A3080E940B2C02
:10178C00823089F4C4010E94A41E0E940B2C82306A
:10179C0051F46CE677E080E090E00E944B2F0E94C1
:1017AC000B2C823061F0198241E050E0BE016F5F7A
:1017BC007F4F8091642D0E94272A80E001C081EF29
:1017CC000F90DF91CF911F910F91FF90EF90DF90D1
:0C17DC00CF90BF90AF909F908F90089529
:1017E8000F931F93CF93DF93CDB7DEB72897CDBF65
:1017F800DEBF182F0E94EB0DDC01CB019F70AA27DA
:10180800BB27803A9340A105B10508F48BC0AE010F
:101818004B5F5F4F60E174E180E090E00E94392FF8
:10182800082F811181C08D819E81AF81B8859F78F5
:10183800A878B87F9C01AD013061416151602D836A
:101848003E834F83588760E174E180E090E00E9416
:10185800AE1F20E030E0A90168E072E081E090E08E
:101868000E94AE1F112359F02BEA30E040E050E00F
:101878006CE072E081E090E00E94AE1F0AC029EBA4
:1018880030E040E050E06CE072E081E090E00E94DF
:10189800AE1F21E030E040E050E064E172E081E01A
:1018A80090E00E94AE1F20E030E0A9016CE172E0F8
:1018B80081E090E00E94AE1F21E830E040E050E077
:1018C80064E072E081E090E00E94AE1F0E94FF3267
:1018D80081112CC0AE014F5F5F4F68E172E081E07B
:1018E80090E00E94392F811108C089819A81AB81CB
:1018F800BC810197A105B10569F78D819E81AF81F2
:10190800B8859F78A878B87F9C01AD0141602D8388
:101918003E834F83588760E174E180E090E00E9445
:10192800AE1F05C000E003C004EF01C004EF802F24
:101938002896CDBFDEBFDF91CF911F910F910895FB
:101948004F925F926F927F928F929F92AF92BF92C7
:10195800EF92FF920F931F93CF93DF9300D000D0A5
:10196800CDB7DEB77C0148015901742E6624552491
:101978004424872F9927AA27BB27482A592A6A2A45
:101988007B2A8BE0482ADB01CA018827AA27BB27C4
:10199800BA2FA92F982F8827482A592A6A2A7B2ADA
:1019A800442755277727452F562F672F7727442A0F
:1019B800552A662A772AA901980168E072E081E031
:1019C80090E00E94AE1FA30192016CE072E081E0FA
:1019D80090E00E94AE1F25EA30E040E050E060E170
:1019E80072E081E090E00E94AE1F2FE130E040E01D
:1019F80050E064E172E081E090E00E94AE1F20E0D8
:101A080030E04DE050E06CE172E081E090E00E944F
:101A1800AE1F25E830E040E050E064E072E081E08D
:101A280090E00E94AE1FAE014F5F5F4F68E172E029
:101A380081E090E00E94392F811108C089819A8144
:101A4800AB81BC810197A105B10569F70E94FF32FE
:101A5800882319F00DC084EF0CC09401A70160E041
:101A680070E08DE090E00E94BE16882311F0F3CF5D
:101A780084EF2496CDBFDEBFDF91CF911F910F91E8
:101A8800FF90EF90BF90AF909F908F907F906F9056
:061A98005F904F900895DD
:101A9E000F931F93CF93DF930E946C2440E054E08A
:101AAE0082EDFA01808320E234E0F901108280E4B5
:101ABE0094E0FC011082C0E6D4E01882A0E8B4E005
:101ACE001C9200EA14E069E1F801608360E8FA0113
:101ADE006483F9011482FC0114821C8214961C92F8
:101AEE00149761E0F8016483FA01108A118A128A50
:101AFE00138A148A68E0658B168A178AF901108A90
:101B0E00118A128A138A148A158A168A178AFC0178
:101B1E00108A118A128A138A148A158A168A178ACB
:101B2E00188A198A1A8A1B8A1C8A1D8A1E8A1F8A7B
:101B3E0050961C92509751961C92519752961C9209
:101B4E00529753961C92539754961C9254975596AF
:101B5E001C92559756961C92569757961C92F801C2
:101B6E00108A618B8BE0828B138A148A158A168AEF
:101B7E00178AE0EEF5E0118210821482158213822C
:101B8E0012828DE193E38093602D9093612D8EE10F
:101B9E0093E380935E2D90935F2D8FE193E380937B
:101BAE005C2D90935D2D80E293E380935A2D90935C
:101BBE005B2D81E293E38093582D9093592DDF9105
:081BCE00CF911F910F910895C2
:101BD600CF92DF92EF92FF92CF93DF9300D000D0A7
:101BE600CDB7DEB7C0904C2DD0904D2DE0904E2D48
:101BF600F0904F2DC114D104E104F10409F078C02E
:101C0600AE014F5F5F4F64EF73E180E090E00E94AA
:101C1600392F81116DC04CE45DE260E070E180E037
:101C260090E00E94392F811163C080914C2D9091D4
:101C36004D2DA0914E2DB0914F2D803A22E0920766
:101C460020E1A207B105A9F489819A81AB81BC8103
:101C56000197A105B105C1F181EA92E0A0E1B0E0EA
:101C660080934C2D90934D2DA0934E2DB0934F2DD8
:101C76002BC0803B9240A041B10531F589819A8104
:101C8600AB81BC8183309105A105B105E9F00497CC
:101C9600A105B10569F481EB92E0A0E1B0E0809383
:101CA6004C2D90934D2DA0934E2DB0934F2D0CC0DF
:101CB60082EB92E0A0E1B0E080934C2D90934D2D05
:101CC600A0934E2DB0934F2DC0904C2DD0904D2DFE
:101CD600E0904E2DF0904F2D80EFE82225E0E22A8D
:101CE600C0924C2DD0924D2DE0924E2DF0924F2D5C
:101CF600C701B6012496CDBFDEBFDF91CF91FF901D
:081D0600EF90DF90CF900895EB
:101D0E00AF92BF92CF92DF92EF92FF920F931F93FB
:101D1E00CF93DF93CDB7DEB72697CDBFDEBF182F9B
:101D2E005B016A01790119821A821B821C82B90138
:101D3E00CA010E940B30882309F44FC08FEF810F28
:101D4E00823008F04DC0A114B10409F44CC0BE019C
:101D5E006F5F7F4FF501808191810E94F72D009773
:101D6E0009F046C0123068F0BE016D5F7F4FF5017D
:101D7E00828193810E944829811117C085E090E0ED
:101D8E0037C069817A81AE014B5F5F4F82E00E945E
:101D9E003E152D813E812B833C83882331F090E0CC
:101DAE009160F7011082118238C00B811C810115E0
:101DBE001105E1F021C0A601B5018B819C810E9425
:101DCE002822F7018083918380E090E026C0F701FE
:101DDE001082118290E0916020C085E090E01DC0DD
:101DEE0083E090E005C085E090E002C085E090E0E1
:101DFE00F7011082118211C0F70110821182560173
:101E0E00A00EB11E69817A81950140E050E082E01A
:101E1E000E9490098111DBCFCECF2696CDBFDEBFBB
:101E2E00DF91CF911F910F91FF90EF90DF90CF90A8
:061E3E00BF90AF90089573
:101E44007F928F929F92AF92BF92CF92DF92EF9246
:101E5400FF920F931F93CF93DF93CDB7DEB72897ED
:101E6400CDBFDEBF6A018901FE01319697E0DF0133
:101E74001D929A95E9F797EC998390916E2D9111A3
:101E840049C091E090936E2D2130310511F402E0A8
:101E940010E08A837B836C831E830F8367E0CE010B
:101EA40001960E94762EB82E811137C081EF888763
:101EB40001151105D9F1712C6894882485F80F2E29
:101EC400F3EF9F2EF02D0F2EF2EFAF2EF02D7801B1
:101ED4000130B0E21B0710F0E72CF82C0E191F0993
:101EE40009F4988661E070E0CE0108960E941F19FB
:101EF4008823C9F0B701C6010E941F19882399F0ED
:101F0400A886CE0CDF1C0115110509F70FC010922D
:101F14006E2D12C0BB24B3940FC0BB24B3940CC069
:101F2400BB24B39409C0BB24B39406C083EC0E94C1
:101F34004625882361F3F4CF8B2D2896CDBFDEBFD1
:101F4400DF91CF911F910F91FF90EF90DF90CF9091
:0C1F5400BF90AF909F908F907F900895F9
:101F6000AF92BF92CF92DF92EF92FF920F931F93A7
:101F7000CF93DF9300D000D0CDB7DEB7182F5B0131
:101F80006A01790119821A82B901CA010E940B30D3
:101F9000882309F442C0123008F053C0A114B104E0
:101FA00009F452C0112369F0BE016F5F7F4FF50144
:101FB000808191810E944829811117C085E090E0BD
:101FC00048C0AE014D5F5F4F60E070E081E00E946D
:101FD0003E152B813C8129833A83882331F090E0A0
:101FE0009160F7011082118237C009811A810115B1
:101FF000110569F115C0A601B50189819A810E9478
:102000002822F7018083918380E090E025C0F701CA
:102010001082118290E091601FC085E090E01CC0AA
:10202000F701108211825601A00EB11E950140E009
:1020300050E060E070E081E00E9490098111E7CFFC
:10204000DACF83E090E005C085E090E002C085E053
:1020500090E0F701108211822496CDBFDEBFDF91A0
:10206000CF911F910F91FF90EF90DF90CF90BF9095
:04207000AF90089590
:102074004D432B41424F5554004D432B424C4F424C
:1020840054455354004D432B50494E47004D432B68
:102094004543432B47454E5055424B4559004D430C
:1020A4002B4543432B4C4F434B004D432B4543435C
:1020B4002B4F54502B52454144004D432B45434331
:1020C4002B52454144004D432B4543432B5055422D
:1020D4004B45592B52454144004D432B4543432B1B
:1020E40053455249414C004D432B4543432B5349DF
:1020F400474E444947455354004D432B4543432BD6
:102104005752495445424C4F42004D432B4543439B
:102114002B5055424B45592B5752495445004D437A
:102124002B4745544C4544004D432B4C4953544391
:102134004F4D4D414E4453004D432B52455345544E
:10214400004D432B5345544C4544004D432B5645B9
:102154005253494F4E004D432B57494E432B455242
:10216400415345004D432B57494E432B524541445F
:10217400004D432B57494E432B5752495445424C2B
:032184004F4200C7
:012187000156
:10218800AF92BF92DF92EF92FF920F931F93CF937C
:10219800DF9300D000D0CDB7DEB7D82E5B017A012F
:1021A800890119821A821B821C82B901CA010E9404
:1021B8000B30882309F443C083E0D81246C0A11429
:1021C800B10409F445C0BE016F5F7F4FF5018081FE
:1021D80091810E94F72D009709F042C0BE016D5F02
:1021E8007F4FF501828193810E944829882399F1C4
:1021F8002B813C812115310589F136C0220F331F0F
:102208008217930731F0F8011082118285E090E07F
:1022180031C0A701B7010E94601EF8011082118227
:102228000B811C8169817A81970140E050E082E04E
:102238000E94A708882331F090E091601BC085E0D8
:1022480090E018C080E090E015C083E090E008C0FE
:1022580085E090E005C085E090E002C085E090E070
:10226800F8011082118206C0F801808191810097DF
:1022780051F2C4CF2496CDBFDEBFDF91CF911F911D
:0E2288000F91FF90EF90DF90BF90AF90089500
:102296004F925F926F927F92AF92BF92CF92DF92F0
:1022A600EF92FF920F931F93CF93DF935C012A0166
:1022B6003B0168017901011511052105310509F474
:1022C60050C0DB01CA019927AA27BB270097A105A1
:1022D600B10519F1C0E0D1E0C81BD90BCE01A0E0D1
:1022E600B0E0081719072A073B0708F4E8019E0122
:1022F600A501C301B2010E94B906811134C0AC0E1A
:10230600BD1EAE0160E070E0440E551E661E771ECF
:10231600C41AD50AE60AF70A49F100E011E08FEF80
:10232600C816D104E104F10409F010F4E60102C074
:10233600C02FD12F9E01A501C301B2010E94B9068B
:10234600811113C0AC0EBD1EAE0160E070E0440EFC
:10235600551E661E771EC41AD50AE60AF70AF9F64E
:1023660005C084EF03C084EF01C084EFDF91CF91F5
:102376001F910F91FF90EF90DF90CF90BF90AF909D
:0A2386007F906F905F904F900895D4
:10239000AF92BF92CF92DF92EF92FF921F93CF93B3
:1023A000DF9300D0CDB7DEB76C017B01DB016D910F
:1023B0007C91FC0182810E941817811157C0D701BE
:1023C000ED91FC911197A280B38012968D919C9112
:1023D00013970E944C2E182F811142C0F6014181A3
:1023E00050E0B601D70112968D919C9113970E94EF
:1023F0002432182F811134C0B50180E090E00E9492
:102400004B2FB6E0CB0ED11C80ECF60111928A95D1
:10241000E9F780EC90E089839A83AE014F5F5F4FCC
:10242000B601D70112968D919C9113970E942B3281
:10243000182F811115C089819A818430910520F46B
:10244000892B69F417EE0CC0C6010E94E325182FF2
:10245000811106C0C6010E94AD26182F01C016EEDC
:10246000F701828193810E945C2F812F0F900F9042
:10247000DF91CF911F91FF90EF90DF90CF90BF90B1
:04248000AF9008957C
:10248400DF92EF92FF920F931F93CF93DF938230EB
:1024940008F05EC08901D52ED42F7B01C82FB90165
:1024A400842F952F0E940B30882309F454C0CC2329
:1024B40049F0F701608171818EEC9DE70E947B25D4
:1024C4008823D1F08DED9DE79F938F9383EE9DE755
:1024D4009F938F9384E08F931F92DF92DF930E94E8
:1024E4000F27F801808391838DB79EB708968DBF1F
:1024F4009EBF80E090E031C0F7016081718188EE79
:102504009DE70E947B258823D1F081EF9DE79F936F
:102514008F9383EE9DE79F938F9384E08F931F9215
:10252400DF92DF930E940F27F801808391838DB798
:102534009EB708968DBF9EBF80E090E00EC0A801B4
:102544006D2F7D2DF701808191810E94052D05C09D
:1025540083E090E002C085E090E0DF91CF911F918D
:0A2564000F91FF90EF90DF900895B3
:10256E008F929F92BF92CF92DF92EF92FF920F9334
:10257E001F93CF93DF93CDB7DEB72697CDBFDEBFC8
:10258E00B82E4B016A01790119821A821B821C82B4
:10259E001D821E82B901CA010E940B308823E9F107
:1025AE008E010B5F1F4F9E012F5F3F4F43E0B40123
:1025BE008B2D0E941025009721F0F70110821182B9
:1025CE0031C0F70180819181009739F02D813E81D4
:1025DE00220F331F8217930731F0F70110821182F9
:1025EE0085E090E01FC0A601B6010E94601EF701B3
:1025FE001082118281E00E94041D0D811E8120E057
:10260E0030E049815A816B817C81C6010E944B1159
:10261E00882331F090E0926005C085E090E002C022
:10262E0080E090E02696CDBFDEBFDF91CF911F9167
:10263E000F91FF90EF90DF90CF90BF909F908F9073
:02264E000895ED
:10265000AF92BF92CF92DF92EF92FF920F931F93B0
:10266000CF93DF93CDB7DEB7C95CD109CDBFDEBF55
:10267000F82E6801012BB1F1E091522DF091532D0C
:10268000A080B18084E0E816D9F180E2E8122CC085
:102690002EC08F2D8068F82EFC82C853DF4F8881B2
:1026A0009981C85CD0408D839E83BE016F5F7F4F50
:1026B000C5010E946B3181112BC06091522D709128
:1026C000532DCE0101960E94C811182F81110EC002
:1026D0004E2D50E0BE01685F7F4FC6010E94D4318D
:1026E000812F16C082EE14C082EE12C011C08E017E
:1026F00008531F4F8F2D0E943F27811109C0C9CF5A
:102700008E0108531F4F8F2D0E943F27882321F2EF
:10271000C753DF4FCDBFDEBFDF91CF911F910F9128
:0E272000FF90EF90DF90CF90BF90AF900895A4
:10272E00AF92BF92CF92DF92EF920F931F93CF9300
:10273E00DF93CDB7DEB7A097CDBFDEBF61157105B4
:10274E0009F44AC09C01285031092830310508F09F
:10275E0045C06B015C016894EE24E5F88E010F5FB5
:10276E001F4F20E040E0BC0182E00E94281381113F
:10277E0036C08CE1FE013596D60101900D928A95F8
:10278E00E1F720E041E0B50182E00E9428138111BB
:10279E0026C089819A81F601848F958F8B819C81C9
:1027AE00868F978F88E1FE013996D601909601901B
:1027BE000D928A95E1F720E042E0B50182E00E9499
:1027CE00281381110CC0D601D89698E0F80101901B
:1027DE000D929A95E1F703C082EE01C082EEA096AB
:1027EE00CDBFDEBFDF91CF911F910F91EF90DF90A4
:0827FE00CF90BF90AF90089549
:10280600EF92FF920F931F93CF93DF93CDB7DEB76F
:10281600C75CD109CDBFDEBFA091522DB091532D1B
:10282600ED90FC90982F93708C836D837E8392300D
:1028360048F484E1FA01DE01179601900D928A951B
:10284600E1F715C09330B1F585FF09C080E4FA01C0
:10285600DE01179601900D928A95E1F708C080E295
:10286600FA01DE01179601900D928A95E1F789012A
:10287600BE016F5F7F4FC7010E94B62C81111FC03A
:102886006091522D7091532DCE0101960E94C81170
:10289600811115C00115110579F08F81833270F011
:1028A60080E2FE013896D80101900D928A95E1F7F3
:1028B60080E005C082EE03C080E001C080E0C9531D
:1028C600DF4FCDBFDEBFDF91CF911F910F91FF90FC
:0428D600EF900895E2
:1028DA000F931F93CF93DF9300D000D0CDB7DEB70D
:1028EA008C0124E030E040E050E068E072E081E0F2
:1028FA0090E00E94AE1F25E030E040E050E06CE03E
:10290A0072E081E090E00E94AE1F21E030E040E0FA
:10291A0050E064E172E081E090E00E94AE1F24E89A
:10292A0030E140E050E06CE172E081E090E00E942A
:10293A00AE1F21E830E040E050E064E072E081E060
:10294A0090E00E94AE1FAE014F5F5F4F68E172E0F8
:10295A0081E090E00E94392F811108C089819A8113
:10296A00AB81BC810197A105B10569F764E870E103
:10297A0080E090E00E94202969837A838B839C837C
:10298A000E94FF32811105C08981F801808380E0AD
:10299A0001C084EF2496CDBFDEBFDF91CF911F9196
:0429AA000F910895EC
:1029AE008F929F92BF92CF92DF92EF92FF920F93F0
:1029BE001F93CF93DF93CDB7DEB72697CDBFDEBF84
:1029CE00B82E4B016A01790119821A821B821C8270
:1029DE001D821E82B901CA010E940B308823B1F1FB
:1029EE008E010B5F1F4F9E012F5F3F4F42E0B401E0
:1029FE008B2D0E941025F70110821182009741F550
:102A0E008D809E808C0C9D1C81E00E94041D0D818A
:102A1E001E8120E030E049815A816B817C81C401A6
:102A2E000E94BD1C882331F0F7011082118290E0C4
:102A3E0092600EC0A601B4018D819E810E94282253
:102A4E00F7018083918380E090E002C085E090E002
:102A5E002696CDBFDEBFDF91CF911F910F91FF90D4
:0E2A6E00EF90DF90CF90BF909F908F900895D3
:102A7C004115510509F45AC0E091522DF091532D96
:102A8C000280F381E02D0180F281E02D9181911182
:102A9C001BC0813059F018F0823079F049C088E5BC
:102AAC0090E0FA018083918380E0089580E490E0C7
:102ABC00FA018083918380E0089580E290E0FA012E
:102ACC008083918380E00895813059F018F0823032
:102ADC0079F030C080E890E0FA018083918380E047
:102AEC00089580E490E0FA018083918380E008955A
:102AFC006830710538F484E290E0FA0180839183A8
:102B0C0080E008956830710539F480EA91E0FA01AB
:102B1C008083918380E008956031710568F488E4C6
:102B2C0090E0FA018083918380E0089582EE08950D
:0C2B3C0082EE089582EE089582EE089566
:102B48000F931F93CF93DF93EC018091522D9091B7
:102B5800532D892B11F00E943530ECEAFCE283EC0E
:102B68009CE28083918380EB9CE282839383BF0104
:102B7800CE010E949D2781113CC08CEA9CE2809383
:102B8800522D9093532D8981833091F52091AC2C4F
:102B98003091AD2C2F5F3F4F01E010E043E150E052
:102BA80060E070E080E00E9490098823A9F080EB43
:102BB8009CE20E943E0BE091522DF091532D208112
:102BC80031812F5F3F4F43E150E060E070E080E0EB
:102BD8000E94900981110DC0E091522DF091532D62
:102BE8000190F081E02D8181887F818380E001C0A0
:0C2BF80080E0DF91CF911F910F910895B4
:102C0400FF920F931F93CF93DF93CDB7DEB72C972B
:102C1400CDBFDEBF6115710509F440C08B01F82EEC
:102C240086E2FB0111928A95E9F7AE01475F5F4F97
:102C340068E070E08CE090E00E94392F811134C08C
:102C440089859A85AB85BC850097A105B10561F19D
:102C5400BC01CD01836028E030E0AE014F5F5F4FDF
:102C64000E94BE16811120C08D819E81AF81B885DE
:102C7400AA27BB270097A105B10591F0F11003C065
:102C840080E090E0DC01BC01CD01836026E230E00D
:102C9400A8010E94BE16882341F004C081EF05C03C
:102CA40084EF03C084EF01C084EF2C96CDBFDEBF58
:0C2CB400DF91CF911F910F91FF900895C8
:102CC000FA01AA27283051F1203181F1E8946F935D
:102CD0006E7F6E5F7F4F8F4F9F4FAF4FB1E03ED003
:102CE000B4E03CD0670F781F891F9A1FA11D680FA1
:102CF000791F8A1F911DA11D6A0F711D811D911DD4
:102D0000A11D20D009F468943F912AE0269F112448
:102D10003019305D3193DEF6CF010895462F4770AC
:102D2000405D4193B3E00FD0C9F7F6CF462F4F7007
:102D3000405D4A3318F0495D31FD4052419302D065
:102D4000A9F7EACFB4E0A69597958795779567950B
:102D5000BA95C9F700976105710508959B01AC010B
:102D60000A2E06945795479537952795BA95C9F732
:0C2D7000620F731F841F951FA01D0895A3
:102D7C00EF92FF920F931F93CF93DF93CDB7DEB7F4
:102D8C002997CDBFDEBFFE01339697E0DF011D9280
:102D9C009A95E9F798EC9B8390916E2D911131C027
:102DAC0089017A0191E090936E2D8C837D836E83E3
:102DBC002130310549F482E0898767E0CF010E9418
:102DCC00762E882359F01FC01887298767E0CE011B
:102DDC0003960E94762E882359F017C062E070E0AB
:102DEC00CE0101960E94A3249981F701908304C01F
:102DFC00B801C7010E94A324811109C010926E2D45
:102E0C0007C081E005C081E003C081E001C081E022
:102E1C002996CDBFDEBFDF91CF911F910F91FF900F
:042E2C00EF90089586
:102E3000CF93DF93EB019881913009F43FC090F07C
:102E4000923019F0933029F033C054E1E2E6F7E90B
:102E500040C099819832B1F19836C1F156E1E2EE65
:102E6000F5E937C02FEF3FEF2A833B835EE0EEE6C4
:102E7000FCE99081891311C008C0F9012D5F3F4F13
:102E8000D90113974C9148130CC0818192818A8398
:102E90009B83019659F482EF21C09F012D5F3F4F24
:102EA00090E09F5F951748F382EF18C080E016C04E
:102EB0008FEF9FEF8A839B8382EF10C053E1E4EC96
:102EC000F8E907C056E1E0EAF5E903C056E1EEE5AE
:102ED000F5E92FEF3FEF2A833B83CBCFDF91CF91F3
:022EE000089553
:102EE200AF92BF92DF92EF92FF920F931F93CF9315
:102EF200DF9300D0CDB7DEB7D82E5B017A0189010E
:102F020019821A82B901CA010E940B30882361F129
:102F1200F80110821182F1E0FD1548F1DF120BC0B9
:102F2200BE016F5F7F4FF501808191810E94F72D75
:102F3200009711F502C019821A825701F0E4AF0E10
:102F4200B11CB50189819A810E94DD31811112C0C3
:102F5200A701B50180E490E00E942822F801808355
:102F6200918380E090E008C085E090E005C083E0B6
:102F720090E002C090E091600F900F90DF91CF91AE
:102F82001F910F91FF90EF90DF90BF90AF90089547
:102F9200AF92BF92DF92EF92FF920F931F93CF9364
:102FA200DF9300D0CDB7DEB7D82E5B017A0189015D
:102FB20019821A82B901CA010E940B30882359F181
:102FC200F801808191818038910529F01082118267
:102FD20085E090E028C0F80110821182F2E0DF1251
:102FE2001DC0BE016F5F7F4FF501808191810E94FC
:102FF200F72D0097C1F4A701B70180E890E00E9485
:10300200601EB70189819A810E94CB18882349F0FA
:1030120090E0916008C085E090E005C083E090E018
:1030220002C080E090E00F900F90DF91CF911F914E
:0E3032000F91FF90EF90DF90BF90AF90089548
:103040000F931F93CF93DF93813009F048C0E901BC
:10305000052F142FFB01808191810E947B268823FC
:1030600011F090E03EC080916404E091AA2CF091B0
:10307000AB2C928189239817C9F081818F9380812D
:103080008F938AED96E89F938F9384E08F931F929E
:103090000F931F930E940F27888399838DB79EB744
:1030A00008968DBF9EBF80E090E01BC081818F930A
:1030B00080818F9389EE96E89F938F9384E08F931E
:1030C0001F920F931F930E940F27888399838DB7B8
:1030D0009EB708968DBF9EBF80E090E002C083E05F
:0C30E00090E0DF91CF911F910F910895B7
:1030EC000F931F93CF93DF93CDB7DEB7C75CD10996
:1030FC00CDBFDEBF41155105F1F1E091522DF0919C
:10310C00532D008111818C836D837E838823ACF4D5
:10311C0080E2FA01DE01179601900D928A95E1F793
:10312C0021153105A9F080E2F901DE019796019095
:10313C000D928A95E1F741E00CC0FA0180819181F2
:10314C008F8398878281938189879A8740E001C019
:10315C0040E04170BE016F5F7F4FC8010E94CA2DD5
:10316C0081110AC06091522D7091532DCE010196A0
:10317C000E94C81101C082EEC953DF4FCDBFDEBF24
:0A318C00DF91CF911F910F9108957C
:10319600AF92BF92CF92DF92EF92FF920F931F935F
:1031A600CF93DF93CDB7DEB7C056D109CDBFDEBF13
:1031B6006115710589F15C019E012F5F3F4F80E625
:1031C600F90111928A95E9F780E2FB01DE01159675
:1031D60001900D928A95E1F7FB01B09680E2DE013F
:1031E600999601900D928A95E1F76901F12C689400
:1031F600EE24E5F8860120E04F2DB50182E00E941D
:103206006C1F81110AC0F394F0E2CF0ED11C83E04B
:10321600F812EDCF80E001C082EEC05ADF4FCDBF7D
:10322600DEBFDF91CF911F910F91FF90EF90DF905E
:08323600CF90BF90AF90089506
:10323E00AF92BF92CF92DF92EF92FF920F931F93B6
:10324E00CF93DF935C016B01892BC9F1E09114A33D
:10325E00F09115A3099580E88093060480E8C816BE
:10326E00D104F0F08601E501E0901AA3F0901BA3C3
:10327E0060E870E0CE01F701099500581109C058B9
:10328E00DF4F00381105A0F7B6016F777727C6011B
:10329E0080589109807880589F4FA80EB91E01C0A2
:1032AE00B601C2E1D3EAE885F985C501099580E842
:1032BE0080930504E881F981099581E001C080E0E1
:1032CE00DF91CF911F910F91FF90EF90DF90CF90F4
:0632DE00BF90AF900895BF
:1032E400AF92BF92CF92DF92EF92FF920F931F9310
:1032F400CF93DF935C016B01892BC9F1E09114A397
:10330400F09115A3099580E88093060480E8C81617
:10331400D104F0F08601E501E0901CA3F0901DA318
:1033240060E870E0CE01F701099500581109C05812
:10333400DF4F00381105A0F7B6016F777727C60174
:1033440080589109807880589F4FA80EB91E01C0FB
:10335400B601C2E1D3EAEA85FB85C501099580E897
:1033640080930504E881F981099581E001C080E03A
:10337400DF91CF911F910F91FF90EF90DF90CF904D
:06338400BF90AF90089518
:10338A00CF93DF9300D000D0CDB7DEB720E030E096
:10339A00A90168E072E081E090E00E94AE1F26E099
:1033AA0030E040E050E06CE072E081E090E00E94A2
:1033BA00AE1F21E030E040E050E064E172E081E0DD
:1033CA0090E00E94AE1F20E030E0A9016CE172E0BB
:1033DA0081E090E00E94AE1F21E830E040E050E03A
:1033EA0064E072E081E090E00E94AE1FAE014F5FA0
:1033FA005F4F68E172E081E090E00E94392F81110D
:10340A0008C089819A81AB81BC810197A105B10568
:10341A0069F70E94FF32811184EF2496CDBFDEBF87
:06342A00DF91CF9108952F
:10343000AF92BF92DF92EF92FF920F931F93CF93C1
:10344000DF9300D0CDB7DEB7D82E5B017A018901BA
:1034500019821A82B901CA010E940B30882339F1FE
:10346000F80110821182F1E0DF1224C0BE016F5F0B
:103470007F4FF501808191810E94F72D0097F9F42B
:103480005701F0E4AF0EB11CB50189819A810E9409
:103490009713811112C0A701B50180E490E00E944A
:1034A0002822F8018083918380E090E008C085E0C5
:1034B00090E005C083E090E002C090E091600F9042
:1034C0000F90DF91CF911F910F91FF90EF90DF90C0
:0634D000BF90AF900895CB
:1034D600E0E1FDE280818E7F808380910C2D9091CA
:1034E6000D2D019719F40E94893202C00E94833281
:1034F600EDEEFCE2878D90A10197878F90A3892B33
:1035060071F0A58DB68D8091A8088C93858D968DCA
:103516000196858F968F0E94713284E00895ADEEF4
:10352600BCE25D96ED91FC915E978091A808808340
:103536005D968D919C915E9701965D968D939C9379
:103546005E97E0E1FDE2808188608083ED91FC91E9
:1035560011971C968D919C911D97099582508230EA
:1035660020F40E94893288E008950E946930089507
:10357600CF92DF92EF92FF920F931F93CF93DF9339
:10358600CDB7DEB7E197CDBFDEBFD42EC52E79010C
:10359600BE016F5F7F4FCE0103960E94E7328C011A
:1035A600892B21F587EF9DE79F938F938DED9DE7FF
:1035B6009F938F93CE0103969F938F9381EF9DE701
:1035C6009F938F9382E09EE79F938F938AE19EE776
:1035D6009F938F9384E08F931F92CF92DF920E94E6
:1035E6000F27F70180839183CDBFDEBFC801E19627
:1035F600CDBFDEBFDF91CF911F910F91FF90EF906E
:06360600DF90CF90089553
:10360C000F931F93CF93DF93CDB7DEB72897CDBF22
:10361C00DEBF8A016F3F71058105910509F048F401
:10362C0024EC2D8320E82E83982F872F762F662766
:10363C0003C02AEC2D838E837F83688764E0CE01E0
:10364C0005960E94762E81111BC064E070E0CE01BD
:10365C0001960E94A324811115C09A814B8150E0E0
:10366C0060E070E0BA0155274427592B9981492B0A
:10367C009C81792BF801408351836283738303C04F
:10368C0081E001C081E02896CDBFDEBFDF91CF91F4
:06369C001F910F9108953B
:1036A200AF92BF92CF92DF92EF920F931F93CF937D
:1036B200DF9300D000D0CDB7DEB78031910550F551
:1036C2006115710549F15B016C016894EE24E2F821
:1036D2008E010F5F1F4F26E042E060E070E080E065
:1036E2000E942813811119C02A8130E0322F22272B
:1036F2009981292B41E050E002C0440F551FCA9422
:10370200E2F72423352391E0232B09F090E0F50121
:10371200908303C082EE01C082EE2496CDBFDEBF4D
:10372200DF91CF911F910F91EF90DF90CF90BF90DB
:04373200AF900895B7
:103736000F931F93CF93DF93CDB7DEB7C75CD10945
:10374600CDBFDEBF8901E091522DF091532D20812E
:1037560031818C836D837E834115510539F0FA01E1
:10376600808191818F83988782818987BE016F5F6F
:103776007F4FC9010E94A02F81111AC06091522D5E
:103786007091532DCE0101960E94C811811110C06F
:103796000115110569F09F81933449F490E4FE0107
:1037A6003896D80101900D929A95E1F701C086EE00
:1037B600C953DF4FCDBFDEBFDF91CF911F910F9170
:0237C600089564
:1037C8000F931F93CF93DF9300D000D0CDB7DEB710
:1037D80021E030E040E050E06BE070E080E090E015
:1037E8000E941C1E22E030E040E050E061E070E002
:1037F80080E090E00E941C1E0E94FF32082F811179
:103808001EC014E0AE014F5F5F4F6FE070E080E0D4
:1038180090E00E94392F811113C0898182FF04C072
:103828000E94FD3101E00CC062E070E080E090E0B1
:103838000E947F2C115031F70E94FD3101C000E039
:10384800802F2496CDBFDEBFDF91CF911F910F91BE
:023858000895D1
:10385A008F929F92AF92BF92CF92DF92EF92FF9296
:10386A00CF93DF9300D000D0CDB7DEB76B017C01D8
:10387A0049015A01AE014F5F5F4F0E94392F89817A
:10388A009A81AB81BC81AC01BD01482159216A21D1
:10389A007B21452B462B472BA1F0B501A40140956E
:1038AA005095609570959A01AB01282339234A23D4
:1038BA005B2329833A834B835C83C701B6010E9449
:1038CA00AE1F80916E2D2496CDBFDEBFDF91CF91C2
:1038DA00FF90EF90DF90CF90BF90AF909F908F9026
:0238EA0008953F
:1038EC001F920F920FB60F9211242F933F934F9369
:1038FC005F936F937F938F939F93AF93BF93EF934C
:10390C00FF93B99B05C0E091602DF091612D099555
:10391C00B89B05C0E0915E2DF0915F2D0995BB9B86
:10392C0005C0E0915C2DF0915D2D0995BA9B05C009
:10393C00E0915A2DF0915B2D0995BC9B05C0E0914F
:10394C00582DF091592D09958FEF87BBFF91EF9171
:10395C00BF91AF919F918F917F916F915F914F919B
:0E396C003F912F910F900FBE0F901F90189556
:10397A008F929F92AF92BF92CF92DF92EF92FF9275
:10398A000F931F93CF93DF93EC014A015B01680108
:10399A0079010130104821053105D8F000E010E81E
:1039AA0020E030E0B501A401CE010E94A40C8111EF
:1039BA0018C080E8D81AE108F10880E8980EA11C1E
:1039CA00B11CD05881E0C81680E8D806E104F10499
:1039DA0028F797018601B501A401CE010E94A40C23
:1039EA0001C084EFDF91CF911F910F91FF90EF906B
:0E39FA00DF90CF90BF90AF909F908F90089578
:103A08001F93CF93DF93CDB7DEB72B97CDBFDEBF24
:103A1800882329F08091712D882341F02CC0809152
:103A2800712D811112C080E090E02AC00E940233FB
:103A3800882321F080E090E00E9405320E948F2FB9
:103A4800182F81E08093712D0CC0CE0101962BE0D8
:103A5800FC0111922A95E9F70E947630182F1092EE
:103A6800712D8AEF90E00E940231112339F0812FE5
:103A780090E0926005C080E090E002C080E090E0B5
:0E3A88002B96CDBFDEBFDF91CF911F91089529
:103A9600EF92FF920F931F93CF93DF93F82E8A0135
:103AA600E901B901CA010E940B30882361F182E065
:103AB600F81629F01882198283E090E029C0A8013F
:103AC600B801888199810E94601E8032F9F47801DC
:103AD60080E4E80EF11CA701B80180E090E00E94A6
:103AE600DA2481110BC0A801B70180E490E00E949E
:103AF60028228883998380E090E00AC01882198280
:103B060090E0916005C085E090E002C085E090E01D
:0E3B1600DF91CF911F910F91FF90EF900895D6
:103B2400CF92DF92EF92FF920F931F93CF93DF9385
:103B3400CDB7DEB7A697CDBFDEBFD82EC92E7B0189
:103B4400CE0101960E94C92E8C01892B11F58A851C
:103B54001F928F9389851F928F9388851F928F93CD
:103B64008F811F928F938E811F928F938D811F92CD
:103B74008F9384EA96E89F938F931F928FE28F939B
:103B8400CF92DF920E940F27F70180839183CDBFEC
:103B9400DEBFC801A696CDBFDEBFDF91CF911F91D6
:0C3BA4000F91FF90EF90DF90CF900895FC
:103BB000EF92FF921F93CF93DF93CDB7DEB7C75C31
:103BC000D109CDBFDEBF182F7A01E091522DF091BF
:103BD000532D808191811C836D837E83BE016F5F35
:103BE0007F4F0E947F3181111DC06091522D7091D5
:103BF000532DCE0101960E94C811988541E050E0F6
:103C0000112311F040E050E0292F30E02423352328
:103C1000232B41F4E114F10421F0F701908380E0BB
:103C200001C080E0C953DF4FCDBFDEBFDF91CF9130
:083C30001F91FF90EF90089531
:103C38008F929F92AF92BF92CF92DF92EF92FF92B4
:103C4800CF93DF9300D000D0CDB7DEB74B015C0136
:103C580069017A01AE014F5F5F4F0E94392F498198
:103C68005A816B817C81DB01CA018C219D21AE21A7
:103C7800BF21C816D906EA06FB0671F09A01AB0106
:103C88002C293D294E295F2929833A834B835C835C
:103C9800C501B4010E94AE1F80916E2D2496CDBF40
:103CA800DEBFDF91CF91FF90EF90DF90CF90BF9074
:083CB800AF909F908F900895DA
:103CC000AF92BF92CF92DF92EF92FF921F93CF936A
:103CD000DF936115710531F18230910530F15C019E
:103CE000B694A79481709927A80EB91EA114B104A7
:103CF000F9F06A01EB017A01CA0CDB1C88810E9491
:103D0000A02E182F1295107F89810E94A02E812B42
:103D1000F70181937F012296EC15FD0579F78A2D35
:103D20009B2D08C080E090E005C080E090E002C0DC
:103D300080E090E0DF91CF911F91FF90EF90DF90B6
:083D4000CF90BF90AF900895F1
:103D48000F931F93CF93DF93CDB7DEB72597CDBFE2
:103D5800DEBF0E94B4328C018FEF8D8380E00E9419
:103D6800AF258823D9F361E070E0CE0105960E9463
:103D78007E2F60E070E080E090E00E9453320E9465
:103D8800C4320E94032A8130E1F3F8016289738901
:103D980080E090E00E94C02F44E050E0BE016F5FD9
:103DA8007F4F8091642D0E94282C64E070E0CE0142
:103DB80001960E9472202596CDBFDEBFDF91CF917C
:063DC8001F910F91089508
:103DCE00434F4D4D414E4448414E444C45520031B7
:103DDE002E332E300025730D0A004649524D5741A1
:103DEE00524500302E342E38004156522D496F5414
:103DFE00205747004156522D496F542070726F76EE
:103E0E006973696F6E696E672046570025730D0AD8
:103E1E0046572025730D0A2573436F6D6D616E64D1
:103E2E002068616E646C65722025730D0A666F7270
:103E3E00207468652025730D0A004D432B504F4E9C
:053E4E00473D25730053
:103E54000F931F93CF93DF93CDB7DEB7C75CD10920
:103E6400CDBFDEBF4115510549F18A01282FE091EC
:103E7400522DF091532D808191812C836D837E830B
:103E8400BE016F5F7F4F0E94753181111AC060912E
:103E9400522D7091532DCE0101960E94C8118111AB
:103EA40010C08F81833461F480E4FE013896D80118
:103EB40001900D928A95E1F780E003C082EE01C083
:103EC40086EEC953DF4FCDBFDEBFDF91CF911F9187
:043ED4000F910895AD
:103ED800CF92DF92EF92FF920F931F93CF93DF93CE
:103EE80000D0CDB7DEB7F82E6801012B99F084E039
:103EF800E816E9F080E2E8120FC010C08F2D806844
:103F0800F82E69817A8120E030E0A6018F2D0E9489
:103F1800761815C082EE13C082EE11C08E010F5FB5
:103F28001F4F8F2D0E943F27811109C0E7CF8E01B7
:103F38000F5F1F4F8F2D0E943F27882311F30F908B
:103F48000F90DF91CF911F910F91FF90EF90DF902D
:043F5800CF90089569
:103F5C00CF92DF92EF92FF92CF93DF93CDB7DEB784
:103F6C002897CDBFDEBFE0916E2DE11126C0E1E0B8
:103F7C00E0936E2D613371058105910540F4E3ECFE
:103F8C00E983E0E8EA83FE013396A7E007C0E9EC99
:103F9C00E9838A837B83FE013496A8E06083518396
:103FAC004283338324836A2FCE0101960E94762E9E
:103FBC00811105C010926E2D03C081E001C081E01B
:103FCC002896CDBFDEBFDF91CF91FF90EF90DF90B1
:043FDC00CF900895E5
:103FE000AF92BF92CF92DF92EF92FF921F93CF9347
:103FF000DF935C016B017A01FC01D081DD23A9F024
:1040000080E090E010E0F601E80FF91F80810E9447
:104010009B2C8D131BC01F5F812F90E0F501E80FD3
:10402000F91FD081D111EFCF02C080E090E0E6010E
:10403000C80FD91F88818D3321F00E943931882320
:1040400031F0F701C083D18381E001C080E0DF91CE
:10405000CF911F91FF90EF90DF90CF90BF90AF90E6
:024060000895C1
:10406200DF92EF92FF920F931F93CF93DF937A0128
:104072008901DA011C92D12CCDE0DAE01AC08D2D33
:1040820090E0FC01EE0FFF1FEE0FFF1F8E0F9F1F30
:10409200FC01EE56F34760817181C7010E9418311D
:1040A200F70101900020E9F73197C083D183128292
:1040B200D3940E940D33D81610F3F701019000201B
:1040C200E9F73197EE19FF09D801ED93FC9380E0EF
:1040D20090E0DF91CF911F910F91FF90EF90DF90D1
:0240E20008953F
:1040E4000F931F93CF93DF93CDB7DEB72897CDBF40
:1040F400DEBFAC0194E0998321E12A8323E32B837F
:1041040023E42C839D8397E09E8394EC9F8390E427
:10411400988764307105B9F48A0144E050E0BE0127
:104124006F5F7F4FC8010E948330892B71F044E098
:1041340050E0BE016B5F7F4FC8010E948330892B22
:1041440031F080ED05C080ED03C080E001C087ED53
:104154002896CDBFDEBFDF91CF911F910F910895B7
:10416400CF93DF9300D01F92CDB7DEB719821A82A6
:10417400813029F56115710529F1FB01BE016F5FDD
:104184007F4F808191810E94F72D009719F5BE0120
:104194006D5F7F4F89819A810E94511B882319F09A
:1041A40090E0916017C08B8181110FC089819A8141
:1041B4000E94E531882361F090E091600BC083E0B8
:1041C40090E008C085E090E005C080E090E002C087
:1041D40080E090E02396CDBFDEBFDF91CF910895BC
:1041E400CF93DF93D82F0E941933882379F10E944B
:1041F400D8320E94DC3262E370E080E090E00E94FA
:104204007F2C0E94D4326AE070E080E090E00E944B
:104214007F2C0E94E0326AE070E080E090E00E942F
:104224007F2C0E94F531C82F811112C0DD2399F033
:104234000E94ED2B882371F020E030E0A90160E0BA
:1042440073E082E090E00E94AE1F05C0C1E003C0AD
:0E425400C1E001C0C1E08C2FDF91CF91089531
:104262000F931F93CF93DF93CDB7DEB7C75CD1090E
:10427200CDBFDEBF8C01E091522DF091532D808194
:1042820091811C821D821E82BE016F5F7F4F0E9440
:10429200613181111AC06091522D7091532DCE015E
:1042A20001960E94C811811110C09F81933261F45E
:1042B2000115110551F090E2FE013896D8010190E6
:1042C2000D929A95E1F701C086EEC953DF4FCDBF3B
:0C42D200DEBFDF91CF911F910F91089586
:1042DE00EF92FF920F931F93CF93DF93FA0100811A
:1042EE001181108211820115110521F17A01EB0164
:1042FE00188241E050E08091642D0E94282C488164
:10430E008CEF840F8834C0F4842F90E008171907BF
:10431E00A8F0AC0141505109BE016F5F7F4F8091F3
:10432E00642D0E94282C888190E0F7018083918370
:10433E0080E005C08DEE03C084EE01C08DEEDF91EE
:0C434E00CF911F910F91FF90EF90089508
:10435A000E94A5328823C9F0ADEEBCE21696ED9113
:10436A00FC91179752968D919C915397099582309B
:10437A0019F0833021F006C00E945C3008950E9433
:10438A00903008950E94D6300895E0E1FDE28081E0
:10439A0088608083ADEEBCE2ED91FC9111971C968A
:1043AA008D919C911D970995833039F0843041F0A5
:1043BA00823049F40E945C3008950E94903008953A
:0C43CA000E94C52308950E94D63008957B
:1043D600CF92DF92EF920F931F93CF93DF93CDB7D8
:1043E600DEB7A097CDBFDEBF009719F16C016894C8
:1043F600EE24E5F88E010F5F1F4F20E040E060E0FD
:1044060070E080E00E942813811114C029813A814E
:10441600F601208331832B813C8122833383D601AD
:10442600149695E0FE01399601900D929A95E1F762
:1044360001C082EEA096CDBFDEBFDF91CF911F9166
:0A4446000F91EF90DF90CF900895E2
:10445000AF92BF92CF92DF92EF92FF920F931F9392
:10446000CF93DF936115710501F1009709F15C01AC
:10447000C42FD52F8B016B01C80ED91E7801F8010E
:1044800081918F0182958F700E9440328883F7015D
:1044900080818F700E944032898322960C151D0501
:1044A00069F7C501880F991F05C080E090E002C040
:1044B00080E090E0DF91CF911F910F91FF90EF90FE
:0A44C000DF90CF90BF90AF900895F9
:1044CA001F93CF93DF9300D000D0CDB7DEB70E9401
:1044DA00FF32182F811127C0AE014F5F5F4F60E195
:1044EA0070E080E090E00E94392F81111DC089811F
:1044FA0080FDF2CF22E030E040E050E061E070E081
:10450A0080E090E00E942D1C21E030E040E050E085
:10451A006BE070E080E090E00E942D1C0E94FF3268
:10452A0011E0182701C010E0812F2496CDBFDEBF0D
:08453A00DF91CF911F9108955C
:104542000F931F93CF93DF93FB01238121FD03C0C0
:104552008FEF9FEF2CC022FF16C046815781248126
:1045620035814217530744F4A081B1819D012F5F29
:104572003F4F208331838C93268137812F5F3F4FBA
:104582002683378314C08B01EC01FB010084F18583
:10459200E02D0995892BE1F6D80116968D919C9113
:1045A2001797019616968D939C931797CE01DF91DC
:0845B200CF911F910F910895B4
:1045BA00CF92DF92EF92FF92CF93DF93813021F572
:1045CA006115710521F1E901FB0140E050E060E06D
:1045DA0070E0808191810E9491046B017C011882B4
:1045EA00198281E00E94041D20E030E140E050E0A1
:1045FA00C701B6010E946C0A882319F090E0926004
:10460A000BC080E090E008C083E090E002C085E043
:10461A0090E0F90110821182DF91CF91FF90EF9023
:06462A00DF90CF9008951F
:10463000FC01892B69F1248130E0322F2227868109
:104640008F70A901482B258180E1289F90011124BA
:104650003327242B352B678170E0762F66278185E1
:104660008F70682B408580E1489FA0011124552759
:10467000CB01842B952B2115310561F0009761F05A
:104680008236934158F42136334150F080E008954A
:1046900081EF089581EF089581EF089583EF0895E4
:0446A00083EF089507
:1046A40057494E43206669726D77617265202564AF
:1046B4002E25642E25640D0A57494E4320647269E1
:1046C4007665722025642E25642E25640D0A004F1C
:1046D4004E004F4646004C45443A257320697320EA
:1046E4004F4E0A0D004C45443A2573206973204F00
:1046F40046460A0D0057494E43004552524F520058
:104704004441544100434F4E4E00574946490041ED
:034714004C4C000A
:10471800CF93DF93823069F5EB01888199810E94FC
:104728007B26882311F090E029C06A817B8183ED84
:1047380096E80E947B25882351F0E091AA2CF091FD
:10474800AB2C82818093660480E090E017C06A8178
:104758007B8186ED96E80E947B25882369F0E091AD
:10476800AA2CF091AB2C82818093650480E090E0C4
:1047780005C083E090E002C085E090E0DF91CF9132
:02478800089592
:10478A000E94A5328823C9F0ADEEBCE21696ED91DF
:10479A00FC91179752968D919C9153970995823067
:1047AA0019F0833021F006C00E945C3008950E94FF
:1047BA00903008950E94D6300895E0E1FDE28081AC
:1047CA008E7F8083EDEEFCE2A58DB68DCD0101963C
:1047DA00858F968F8C918093A808878D90A10197D9
:1047EA00878F90A3892B11F485E0089583E00895BB
:1047FA00EF92FF920F931F93CF93DF93F82EEA0164
:10480A008901B901CA010E940B308823E9F0F1102D
:10481A001EC07E0189E0E80EF11CC7010E94EB214F
:10482A0081110CC0AE01B70189E090E00E942822F4
:10483A00F8018083918380E090E00BC0F801108238
:10484A00118290E0916005C085E090E002C083E0AB
:10485A0090E0DF91CF911F910F91FF90EF90089513
:10486A00EF92FF920F931F93CF93DF937A010097F2
:10487A0011F1EB018B01080F191F20E030E016C07F
:10488A00A32FAA1FAA27AA1F220F331F71E09B2F4B
:10489A00952309F470E07A1719F085E02827305833
:1048AA00550F319769F7C017D10739F0B991E8E088
:1048BA00F0E051E0E5CF20E030E0F70120833183DA
:0E48CA00DF91CF911F910F91FF90EF90089515
:1048D800E0E9F4E0808188608193E83984E0F807B2
:1048E800C9F7E0EBF4E0808188608193E83B84E0DD
:1048F800F807C9F7E0E1F4E0808188608193E83146
:1049080084E0F807C9F7E0E3F4E0808188608193E8
:10491800E83384E0F807C9F7E0E5F4E080818860CF
:104928008193E83584E0F807C9F7E0E7F4E080818F
:0E49380088608193E83784E0F807C9F7089596
:10494600CF92DF92EF92FF920F931F93CF93DF9355
:104956007C018B01672BE9F0C12C6894DD24D5F826
:10496600E801013080E2180710F0CC2DDD2D80EF34
:104976000E9446258C7079F4BE01C7010E94721907
:10498600882359F0EC0EFD1E0C1B1D0B49F780E029
:1049960005C080E003C081E001C081E0DF91CF91D6
:0E49A6001F910F91FF90EF90DF90CF9008953A
:1049B400DF92EF92FF920F931F93CF93DF938C01BB
:1049C400EB017A0180E090E00E94312181111EC048
:1049D400E091522DF091532D0190F081E02D8081D2
:1049E400833029F46894DD24D5F880E402C0D12C06
:1049F40080E040E250E0BE010E94B52E811106C065
:104A0400A701B8018D2D80680E942A1FDF91CF91E4
:0C4A14001F910F91FF90EF90DF9008952C
:104A20000F931F93CF93DF9384131DC061157105FE
:104A3000E9F0EB01B901888199810E948E2A8823CF
:104A4000C1F0B8018A819B810E9448298823A1F086
:104A5000F8018081918101978F3F910509F078F4E9
:104A600080E090E00EC083E090E00BC085E090E035
:104A700008C085E090E005C085E090E002C085E0D8
:0C4A800090E0DF91CF911F910F910895FD
:104A8C000F931F93CF93DF931F92CDB7DEB7082FF1
:104A9C001BE061E070E0CE0101960E947219882340
:104AAC00C9F0003F21F48981807F803FC1F089816A
:104ABC0008130AC061E070E0CE0101960E947219E1
:104ACC00882351F089810BC0811108C0115009F75E
:104ADC008FEF05C08FEF03C08FEF01C08FEF0F90EA
:0A4AEC00DF91CF911F910F91089503
:104AF600EF92FF920F931F93CF93DF937C018B016D
:104B0600FC01C081CC23A9F080E090E0D0E0F80160
:104B1600E80FF91F80810E949B2C8C1315C0DF5F64
:104B26008D2F90E0F701E80FF91FC081C111EFCF7B
:104B360002C080E090E0F801E80FF91F81E0908163
:104B4600992319F080E001C080E0DF91CF911F9199
:084B56000F91FF90EF9008950C
:104B5E009091102D92FD2EC0EDEEFCE2848FA0E11F
:104B6E00BDE2892F887F9EE091A324EF31E0228F52
:104B7E00338F846088608C9383E193E38083918389
:104B8E00148615868283938316861786848395836F
:104B9E00108A118A86839783128A138A85E193E39A
:104BAE0080879187148A158A0E94B9310E945F32DC
:084BBE0080E0089581E00895F4
:104BC600EF92FF920F931F93CF93DF9300D0CDB751
:104BD600DEB77C01FC0100818EEF800F082F10E00C
:104BE600AE014F5F5F4FB701C8010E943524F70140
:104BF600E00FF11F99818081981309C0F701E00F3A
:104C0600F11F9A818181981304C080E003C085EE6C
:104C160001C085EE0F900F90DF91CF911F910F91FC
:064C2600FF90EF900895DD
:104C2C00CF93DF93CDB7DEB7A697CDBFDEBF00978E
:104C3C00F9F0FC01808191818093622D9093632D1A
:104C4C0010926F2D21E633E140E353E160E080E008
:104C5C000E94A83081110EC082E08093702D0E94BA
:104C6C008F32811109C0CE0101960E94EB2C05C038
:104C7C0081EF03C08BEF01C08BEFA696CDBFDEBFDB
:064C8C00DF91CF910895B5
:104C92007460BB1A007D60E432018960DF290091F3
:104CA20060711700A260B22000AE60B00F00BE605B
:104CB200870E00CA60181A00DD60FD2300EB604B0E
:104CC2001D01FD60C410010E61C917012261201887
:104CD200002C613120003C61A7310045618C23002A
:104CE2004F614212005A61DD22006861D7140075DB
:044CF20061B7120193
:104CF600CF92DF92EF92FF920F931F93CF93DF93A2
:104D06006C0109E21DE2C0E0D0E0B601F801808145
:104D160091810E947B25882369F0CE01880F991F17
:104D26008C0F9D1F875D924D8093AA2C9093AB2C80
:104D360080E007C021960D5F1F4FC530D10529F7CA
:104D460085E0DF91CF911F910F91FF90EF90DF905B
:044D5600CF9008955D
:104D5A00FC012081243049F581818730D1F040F46B
:104D6A00813089F020F1833081F0853081F01BC0D9
:104D7A008F3099F018F4883071F015C0813179F0CC
:104D8A008F3F79F010C081ED089582ED089586ED88
:104D9A00089587ED08958AEF089584EF089583EFC3
:104DAA00089584ED089581EE089580E0089580E0E5
:024DBA0008955A
:104DBC000F931F93CF93DF93EC018B0189819A8121
:104DCC000E945228F801808191818B839C8382817F
:104DDC0093818D839E83848195818F83988786812F
:104DEC00978189879A87808591858B879C87848515
:104DFC0095858F87988B828593858D879E878089F3
:104E0C009189898B9A8B80E0DF91CF911F910F91C3
:024E1C000895F7
:104E1E00AEE0B0E0E5E1F7E20C94772D0D891E8946
:104E2E008F89988D26E02C8309831A8397FF02C001
:104E3E0080E090E801978D839E83AE01455E5F4FC3
:104E4E00698D7A8DCE0101960E94B0024D815E81F0
:104E5E0057FD0AC02F813885421753070CF49A016B
:104E6E00F801E20FF31F10822E96E4E00C94C02D91
:104E7E000F931F930115110541F0837041F082309D
:104E8E00A1F0813021F082EE1FC082EE1DC050E0F5
:104E9E00440F551F440F551F440F551F2770422BAB
:104EAE00F8014083518380E00FC0277030E0342B2F
:104EBE00660F771F660F771F660F771F262B372B10
:0E4ECE00F8012083318380E01F910F91089539
:104EDC000F931F93CF93DF93CDB7DEB76297CDBF00
:104EEC00DEBF8C01BE016F5F7F4F0E94DE26D801B2
:104EFC0011966D917C9112971396ED91FC911497EC
:104F0C00CE010196099581110AC089899A89F80107
:104F1C00818B928B0580F681E02DC80109956296F4
:0E4F2C00CDBFDEBFDF91CF911F910F91089591
:104F3A000F931F93CF93DF930097E1F061157105EB
:104F4A00D9F0FB012081318121153105B9F0428167
:104F5A005381452BA9F0EB018C01B901FC01818138
:104F6A000E944D3181110DC06A817B81C8010E9466
:104F7A00DD2E07C082EE05C082EE03C082EE01C0BC
:0C4F8A0082EEDF91CF911F910F910895EE
:104F96000F931F93CF93DF93CDB7DEB7A097CDBF07
:104FA600DEBF009729F48CE593E90E94822D15C097
:104FB6009F938F9381E693E99F938F931F9280E24D
:104FC6008F938E010F5F1F4F1F930F930E940F2722
:104FD600C8010E94822DCDBFDEBFA096CDBFDEBF29
:0A4FE600DF91CF911F910F91089504
:104FF000CF93DF93CDB7DEB7C75CD109CDBFDEBF9E
:10500000E091522DF091532D20813181FE01319696
:1050100097ECDF011D929A95E9F78C836D837E836F
:10502000BF01C9010E945731811108C06091522D02
:105030007091532DCE0101960E94C811C953DF4FC4
:0A504000CDBFDEBFDF91CF910895D0
:10504A00CF93DF930E945F328091102D80FF07C0BB
:10505A000E94A532882319F08FE080930E2D0E94BA
:10506A006B32882319F080E180930E2D0E946532FD
:10507A00882319F081E180930E2DCDEEDCE2E9A1BF
:10508A00F0E0EE0FFF1FE753F34D0190F081E02DA2
:0A509A00099589A3DF91CF910895D5
:1050A400FB01DC018C91811124C08DE192E38083AA
:1050B40091838FE093E3828393838FE691E28683E7
:1050C400978380EC90E38483958382E29EE28487D5
:1050D400958784EA9EE1808791878DE09EE28287AE
:1050E400938781E193E386879787108A118A80E00A
:0650F400089580EF08950D
:1050FA00CF93DF9300D0CDB7DEB719821A8221E0B1
:10510A002093892C8093502D9093512D8AE293E914
:10511A000E94822D9E012F5F3F4F49E858E260E0CE
:10512A0070E080E00E94BB1A89E898E20E94822D12
:10513A0084E593E90E94822D0F900F90DF91CF9121
:02514A000895C6
:10514C001F920F920FB60F9211242F933F934F93F0
:10515C005F936F937F938F939F93AF93BF93EF93D3
:10516C00FF93E091562DF091572D309709F009954A
:10517C00FF91EF91BF91AF919F918F917F916F9123
:10518C005F914F913F912F910F900FBE0F901F90F9
:02519C00189564
:10519E001F920F920FB60F9211242F933F934F939E
:1051AE005F936F937F938F939F93AF93BF93EF9381
:1051BE00FF93E091542DF091552D309709F00995FC
:1051CE00FF91EF91BF91AF919F918F917F916F91D1
:1051DE005F914F913F912F910F900FBE0F901F90A7
:0251EE00189512
:1051F0000F931F93CF93DF9300D0CDB7DEB7FC01A1
:1052000020812223A9F08B0140E050E0BE016F5FB6
:105210007F4F0E94B207F80160837183828393837A
:10522000E981FA8181E09081992319F080E001C041
:1052300080E00F900F90DF91CF911F910F91089513
:10524000CF93DF9300D000D0CDB7DEB720916E2D85
:10525000211111C021E020936E2DAE014F5F5F4FF1
:105260000E94061B81110BC010926E2D69817A81FC
:105270008B819C8107C060E070E0CB0103C060E0DF
:1052800070E0CB012496CDBFDEBFDF91CF910895B2
:105290000F931F93CF93DF9300D000D0CDB7DEB72D
:1052A0008B01BE016F5F7F4F0E94F828882379F041
:1052B00049815A816B817C814115510591E06907D3
:1052C000710520F4F8014083518301C080E02496E9
:0E52D000CDBFDEBFDF91CF911F910F910895EA
:1052DE0040E068ED88E790E00E94BC3240E068ED67
:1052EE008CE790E00E94BC3240E068ED80E790E0F1
:1052FE000E94BC3241E068ED81E690E00E94BC3233
:10530E0040E068ED80E690E00E94BC3240E068ED3F
:0C531E0082E690E00E94BC3280E008951E
:10532A0057656C636F6D6520746F207468652061C2
:10533A0076722D696F7420636F6D6D616E6420687B
:10534A00616E646C6572210D0A0052454144590D23
:10535A000A004F4B0D0A004552524F523A203078FC
:0A536A0025580D0A003E000D0A0050
:105374006115710581F090E0FC01EE0FFF1FE35110
:10538400F34D60837183880F991FFC01E750F34D3F
:1053940040835183089590E0FC01EE0FFF1FE35119
:1053A400F34D23E133E320833183880F991FFC01FC
:0A53B400E750F34D108211820895B6
:1053BE00CF93DF938130D9F4E901FB0181818F9383
:1053CE0080818F9388E49EE79F938F9384E08F93E1
:1053DE001F925F934F930E940F27888399838DB7F7
:1053EE009EB708968DBF9EBF80E090E002C083E01E
:0853FE0090E0DF91CF910895CA
:10540600CF93DF930E946532882341F0E0E1FDE20D
:1054160080818D7F808382E080930F2D8091102D77
:1054260081FD0EC0E0E1FDE28B7F8083CDEEDCE204
:105436008FEF8C8F0E945F320E9459328AA101C081
:0854460081E0DF91CF91089590
:10544E00EF92FF920F931F93CF93C82F8B017A0188
:10545E008C2F0E94AF258823D9F3B701C8010E9473
:10546E007E2F60E070E087E193E30E9453320E944A
:10547E00C4320E94032A8130E1F3CF911F910F9124
:06548E00FF90EF9008956D
:10549400E0E1FDE280818E7F8083ADEEBCE282E0BC
:1054A40092968C9392971496ED91FC911597509641
:1054B4008D919C9151970995823019F0833021F098
:1054C40006C00E945C3008950E94903008950E94A6
:0454D400D630089531
:1054D800A1E21A2EAA1BBB1BFD010DC0AA1FBB1FF0
:1054E800EE1FFF1FA217B307E407F50720F0A21B62
:1054F800B30BE40BF50B661F771F881F991F1A94CF
:1055080069F760957095809590959B01AC01BD01F8
:04551800CF01089522
:10551C000F931F93CF93DF9300D000D0CDB7DEB79E
:10552C008B01BE016F5F7F4F0E94F828882349F0E2
:10553C0049815A816B817C81F8014083518362835C
:10554C0073832496CDBFDEBFDF91CF911F910F9156
:02555C000895B0
:10555E00511B002828002419001C32004313021589
:10556E002300408D0230050056A500172300083792
:10557E00001614004632001B170002050080E001E1
:10558E00771409474B00419902200A00453D041249
:02559E002D00DE
:1055A000511B002828002419001C320043AC0015B0
:1055B000230040D70030050056A500172300083708
:1055C000001614004632001B170002050080A000E0
:1055D000777102472A0041DC00200A0045270112AA
:0255E0002D009C
:1055E200511B002828002419001C3200434B0015CF
:1055F200190040730030050056A500172300083734
:10560200001614004632001B1700020500805000ED
:1056120077FA00472400417300200A00456900120E
:025622002D0059
:10562400CF93DF931F92CDB7DEB70E948B2E0E94DB
:1056340047320E94332B1982AE014F5F5F4F60E007
:1056440070E081E00E94D81D85E992E30E947D28E4
:10565400009126A3109127A3F80109950E949300B5
:02566400FBCF7A
:10566600CF93DF93CDB7DEB72B97CDBFDEBFCE018D
:1056760001962BE0FC0111922A95E9F70E947630FB
:10568600882339F0CE0101960E94763090E0926030
:1056960002C080E090E02B96CDBFDEBFDF91CF91B8
:0256A600089565
:1056A8008091652D882389F0E091662DEF5FE77082
:1056B800E093662DF0E0E85CF24D8081809342082B
:1056C8008091652D81508093652D8091652D811184
:0E56D80005C0E0E4F8E085818F7D85830895AC
:1056E6002091672D2F5F27709091652D9830E1F3FB
:1056F600E22FF0E0E85CF24D80832093672D0FB631
:10570600F8940F928091652D8F5F8093652D0F9091
:0E5716000FBEE0E4F8E085818062858308958F
:105724000E947732ADEEBCE282E092968C9392971F
:105734001296ED91FC9113971E968D919C911F9753
:105744000995823019F0833021F006C00E945C3044
:0E57540008950E94903008950E94CB30089571
:10576200280D002414001C3200433A00150B00409F
:105772007300111700300200172000080E00161DDA
:10578200000103004630001B170002050047090014
:0C579200413C00200A00454800121A00AB
:10579E0020E031E040E050E068E074E180E090E02D
:1057AE000E941C1E81110FC020E030E041E050E04D
:1057BE0060E07AE180E090E00E941C1E91E0882378
:0C57CE0019F090E001C090E0892F0895D0
:1057DA0021E030E040E050E068E171E180E090E0F3
:1057EA000E941C1E81110FC020E034E040E050E00E
:1057FA0060E074E180E090E00E942D1C91E0882333
:0C580A0019F090E001C090E0892F089593
:105816008091642D0E94AF258130D1F361E070E064
:1058260080E090E00E947E2F60E070E080E090E0F3
:105836000E9453320E94C0320E94032A813021F412
:0A5846000E94032A8130E1F3089567
:10585000EF92FF920F931F93CF93C82F8B017A0182
:105860008C2F0E94AF258823D9F3B701C8010E946D
:105870007E2F0E94C0320E94032A8130E1F3CF9133
:0A5880001F910F91FF90EF90089523
:10588A00E0E4F8E08BE591E08087918780ED8583FD
:10589A0080EC868383E087831386148616861586B2
:1058AA001092692D10926A2D1092682D1092662D11
:0A58BA001092672D1092652D0895DD
:1058C400280D002414001C3200150B004073001135
:1058D4001700300200172000080E00161D000103F7
:1058E400004630001B1700020500470900413C0038
:0958F400200A00454800121A00C8
:1058FE00CF92DF92EF92FF926115710581059105AE
:10590E0071F0DC01CB016C017D0181E090E00E9421
:10591E00023181E0C81AD108E108F108B1F7FF9011
:08592E00EF90DF90CF90089587
:10593600882389F08D3089F08A3089F090EE980FAF
:10594600913480F025E8280F243060F081568A31A2
:1059560040F4892F089580E008958DE008958AE047
:06596600089583E208959C
:10596C00FB019381892F837026E12283823018F406
:10597C008BE1818309C0833061F495FF03C087E418
:10598C00818302C087E28183CF010E94423080E094
:06599C00089582EE08955B
:1059A200CF930E94DE2F882369F080E00E94F40BDF
:1059B200C82F811109C00E941B33882339F00E942D
