:100000000C94CE010C9411550C945F4C0C942B392C
:100010000C94E4400C9411550C9411550C9411550A
:100020000C9411550C9411550C9411550C941155B8
:100030000C9411550C9411550C9411550C941744B3
:100040000C9411550C9411550C9411550C94115598
:100050000C9411550C9411550C94414C0C94104176
:100060000C9411550C9411550C9411550C94115578
:100070000C9411550C94842F0C9411550C948E42B1
:100080000C94B7420C94C4490C9411550C9411551E
:1000900033B233B38033763378803238324200ABB8
:1000A0005E33B333B48033B433B5802FD43038806B
:1000B0003170318800AAD3280028098033423346A2
:1000C00000AC1833B533B68031EF31FF00AB4032AE
:1000D00042324C00AB68324C325600AB7232563270
:1000E0006000AB7C280928198031A031B500AB0332
:1000F0003378337A8033B633B7803260326A00ABFC
:1001000086326A327400AB903274327E00AB9A321F
:100110007E328800ABA42819281B80337A337C8078
:10012000281B287F80287F2A69802A692AE180335A
:100130007C337E802AE12AFC803346334A00AC1CA3
:10014000334A334E00AC2033B733B88033B833B9B9
:1001500080334E335280335233568032883292008D
:10016000ABAE337E338080338033828033823384FE
:100170008033B933BA00AC2C2B732D03802D032EA2
:10018000938031DD31EF803292329C00ABB8329CEB
:1001900032A600ABC232A632B000ABCC32B032BA1B
:1001A00000ABD632BA32C400ABE033BA33BB8033D3
:1001B0008433868033BB33BC8033BC33BD8033BDD6
:1001C00033BE80322B323880320F321D8031FF3205
:1001D0000F80315331708033BE33BF8033BF33C0A3
:1001E000802AFC2AFE80338633888033C033C18066
:1001F0003388338A80338A338C80338C338E8033D8
:100200008E33908033903392803392339480339442
:1002100033968033C133C2803356335A00AC243313
:10022000963398803398339A80339A339C80310B7D
:10023000312F00AAAF312F315380339C339E80334E
:100240009E33A000AC2833A033A200AC2A33C233C3
:10025000C38033C333C48033C433C580303830786F
:100260008033C533C68033C633C78033C733C880B5
:10027000307830B880321D322B00AB5033C833C9D0
:1002800000AC2D33C933CA8033CA33CB8033A23399
:10029000A480335A335E8033CB33CC80335E3362F9
:1002A0008033CC33CD00AC2E336233668033A4333D
:1002B000A68030B830E500AA8233CD33CE8033A695
:1002C00033A88033CE33CF8033CF33D08033D03395
:1002D000D18033D133D2803366336A8033A833AAD6
:1002E0008033D233D38033AA33AC8033AC33AE8087
:1002F00033AE33B0802F5B2FD4802E932F5B8030B2
:10030000E5310B80336A336E8032C432CE00ABEA03
:1003100033D333D48031B531C900AB182AFE2B63F7
:100320008031C931DD00AB2C33D433D58032CE32AD
:10033000D88032D832E28032E232EC8032EC32F6CF
:100340008032F63300803300330A80330A3314805E
:100350003314331E80331E332700ABF4332733307E
:1003600000ABFD3330333900AC063339334200ACD7
:100370000F336E3372803372337680318831A00050
:10038000AAEB33B033B2802B632B69802B692B6DC2
:10039000802B6D2B71802B712B73800011241FBE5D
:1003A000CFEFCDBFDFE3DEBFE0E9F0E043E017C011
:1003B000B591A59135912591059107FD0CC09591B9
:1003C0008591EF01F92FE82F05900D92A217B30741
:1003D000D9F7FE0104C01D92A217B307E1F7EB396C
:1003E000F40731F70E941B540C94F601F894FFCFE8
:1003F0004F4B0D00646562756720706172616D65B9
:10040000746572206D7573742062652062657477FF
:1004100065656E203020284C656173742920616EFB
:1004200064203420284D6F737429200D00342E3041
:100430002E30007625730D0A0400332E302E310045
:1004400025730D0A0400556E6B6E6F776E2E0D0AC4
:1004500004004572726F722067657474696E67205C
:100460006B65792E0D0A04002C0000003100256414
:10047000004572726F722E2057692D466920636F96
:100480006D6D616E6420666F726D6174206973209A
:1004900077696669203C737369643E5B2C3C7061CC
:1004A00073733E2C5B61757468547970655D5D0D86
:1004B0000A04004F4B0D0A04002D2D2D2D2D2D2D3E
:1004C0002D2D2D2D2D2D2D2D2D2D2D2D2D2D2D2D5C
:1004D0002D2D2D2D2D2D2D2D2D2D2D2D2D2D2D2D4C
:1004E0002D2D2D2D2D0D0A556E6B6E6F776E2063A1
:1004F0006F6D6D616E642E204C697374206F662081
:10050000617661696C61626C6520636F6D6D616EAF
:1005100064733A0D0A72657365740D0A64657669D1
:1005200063650D0A6B65790D0A7265636F6E6E65A2
:1005300063740D0A76657273696F6E0D0A636C6978
:100540005F76657273696F6E0D0A77696669203C24
:10055000737369643E5B2C3C706173733E2C5B610A
:10056000757468547970655D5D0D0A6465627567C0
:100570000D0A2D2D2D2D2D2D2D2D2D2D2D2D2D2DEE
:100580002D2D2D2D2D2D2D2D2D2D2D2D2D2D2D2D9B
:100590002D2D2D2D2D2D2D2D2D2D2D2D2D2D0D0ACE
:1005A00004000D0A436F6D6D616E6420746F6F20DF
:1005B0006C6F6E670D007265736574007265636FB2
:1005C0006E6E6563740077696669006B65790064B7
:1005D000657669636500636C695F76657273696FE0
:1005E0006E0076657273696F6E0064656275670090
:1005F0006961740065787000617564002D2D2D2D82
:100600002D424547494E205055424C4943204B45C9
:10061000592D2D2D2D2D0D0A25730D0A2D2D2D2D26
:100620002D454E44205055424C4943204B45592DB1
:100630002D2D2D2D0D0A040025303258006D7174BA
:10064000742E676F6F676C65617069732E636F6D71
:10065000002564002A2E706F6F6C2E6E74702E6FE2
:100660007267004D4348502E494F542E4143434535
:100670005353504F494E540000000000000000004A
:10068000000000003132333435363738393000005D
:1006900000000000000000000000000000000064F6
:1006A00025730070726F6A656374732F25732F6CE6
:1006B0006F636174696F6E732F25732F726567693D
:1006C0007374726965732F25732F6465766963652A
:1006D000732F2573003A20426173653634206368B6
:1006E00061727320616674657220656E642070614A
:1006F0006464696E67202D2D205374617475733A9C
:1007000020253032580D0A003A206465636F646515
:10071000642062756666657220746F6F20736D6108
:100720006C6C202D2D205374617475733A20253024
:1007300032580D0A0025303258200025303258003A
:100740000D002573003A204E756C6C20696E707533
:100750007420706172616D65746572202D2D205357
:1007600074617475733A20253032580D0A003A20AE
:10077000496E76616C69642062617365363420630A
:100780006861726163746572202D2D2053746174E9
:1007900075733A20253032580D0A003A20496E769A
:1007A000616C6964206E756D626572206F6620628F
:1007B0006173653634206368617273202D2D205378
:1007C00074617475733A20253032580D0A003A204E
:1007D0006E65776C696E652072756C65735B335DF1
:1007E000206D757374206265206D756C7469706C12
:1007F00065206F662034202D2D205374617475732D
:100800003A20253032580D0A003A204C656E677444
:1008100068206F6620656E636F646564206275662C
:1008200066657220746F6F20736D616C6C202D2D66
:10083000205374617475733A20253032580D0A00C4
:10084000041133430407C440222573223A2225733E
:100850002200222573223A256C640022746F676798
:100860006C65223A00746F7069633A2025731B5BD4
:10087000306D007061796C6F61643A2025731B5B89
:10088000306D002F646576696365732F6425732F5F
:100890006576656E7473007B224C69676874223AD2
:1008A00025642C2254656D70223A25642E25303241
:1008B000647D004D4348502E494F54006D6963726A
:1008C0006F63686970002564002F646576696365ED
:1008D000732F6425732F636F6E6669670025730439
:1008E00020257320257320001B5B306D0D001B5BE2
:1008F00033376D4E4F524D414C1B5B33376D001BF0
:100900005B33326D2020474F4F441B5B33376D0004
:100910001B5B33316D2020204241441B5B33376D1C
:10092000001B5B33316D1B5B376D204552524F52BC
:100930001B5B32376D1B5B33376D001B5B33376DD1
:100940002020204E4F4E451B5B33376D001B5B3321
:10095000336D5741524E494E471B5B33376D001B79
:100960005B33346D204E4F544943451B5B33376D29
:10097000001B5B33356D202020494E464F1B5B33F7
:10098000376D001B5B33316D202044454255471BBA
:100990005B32376D1B5B33376D00B645EE4CBC45A3
:1009A0000335C6451B19CB45A643CF45E046D64582
:1009B000054CE245F64BEA458C4C3059301306079E
:1009C0002A8648CE3D020106082A8648CE3D03010C
:1009D00007034200044156522D494F540075732DB0
:1009E00063656E7472616C31006176722D696F742B
:1009F00000982F8A4291443771CFFBC0B5A5DBB573
:100A0000E95BC25639F111F159A4823F92D55E1CBF
:100A1000AB98AA07D8015B8312BE853124C37D0C35
:100A200055745DBE72FEB1DE80A706DC9B74F19B3F
:100A3000C1C1699BE48647BEEFC69DC10FCCA10C26
:100A4000246F2CE92DAA84744ADCA9B05CDA88F9F9
:100A50007652513E986DC631A8C82703B0C77F595A
:100A6000BFF30BE0C64791A7D55163CA0667292992
:100A700014850AB72738211B2EFC6D2C4D130D3819
:100A80005354730A65BB0A6A762EC9C281852C72DB
:100A900092A1E8BFA24B661AA8708B4BC2A3516CFF
:100AA000C719E892D1240699D685350EF470A06A4C
:100AB0001016C1A419086C371E4C774827B5BCB076
:100AC00034B30C1C394AAAD84E4FCA9C5BF36F2E24
:100AD00068EE828F746F63A5781478C8840802C7A3
:100AE0008CFAFFBE90EB6C50A4F7A3F9BEF27871BC
:100AF000C667E6096A85AE67BB72F36E3C3AF54F8E
:100B0000A57F520E518C68059BABD9831F19CDE090
:100B10005B7B22616C67223A224553323536222CA8
:100B200022747970223A224A5754227D00511B00C8
:100B30002828002419001C3200431302152300400A
:100B40008D0230050056A500172300083700161443
:100B5000004632001B170002050080E001771409EF
:100B6000474B00419902200A00453D04122D0051D7
:100B70001B002828002419001C320043AC00152358
:100B80000040D70030050056A500172300083700A5
:100B90001614004632001B170002050080A00077E3
:100BA0007102472A0041DC00200A00452701122D6E
:100BB00000511B002828002419001C3200434B0060
:100BC00015190040730030050056A50017230008D2
:100BD00037001614004632001B1700020500805033
:100BE0000077FA00472400417300200A004569009D
:100BF000122D00280D002414001C3200433A001569
:100C00000B00407300111700300200172000080E7F
:100C100000161D000103004630001B1700020500EE
:100C2000470900413C00200A00454800121A0028EC
:100C30000D002414001C3200150B00407300111726
:100C400000300200172000080E00161D00010300EE
:100C50004630001B1700020500470900413C0020F8
:100C60000A00454800121A002826001C3E00152BD9
:100C700000114500300200171800082300163C0040
:100C80000102001B3200020500471600200C001272
:100C90002A00F954E154694F174B294B3B4BFC5444
:100CA000FF540000000038482B464E5155519453D4
:100CB00057498F5354520C468144CFFFFFFF00C960
:100CC00000E824000000525C34256C0C405540556F
:100CD0007D2340554055EE48FF48104921493B4986
:080CE0004D495F497149834948
:100CE8002F923F924F925F926F927F928F929F9234
:100CF800AF92BF92CF92DF92EF92FF920F931F9322
:100D0800CF93DF93CDB7DEB7C455D140CDBFDEBF9B
:100D1800C55BDE4F88839983CB54D140C15B0E9469
:100D28007A544A835B83CF54D140CB5CDE4F6883CF
:100D3800C553D140CA5CDE4F7883C653D140CF5BE0
:100D4800DE4F188219821A821B82C154D1409E013B
:100D58002F5B3F4FCF5D0E947A54C152D140AE0104
:100D68004F535F4FCD5DDE4F48835983C352D14007
:100D780088559F4FC35BDE4F88839983CD54D140FC
:100D8800CF5BDE4F688179818A819B81C154D140D4
:100D9800C15BDE4F488059806A807B80CF54D14048
:100DA800641575058605970509F426C30E94325413
:100DB800C95CDE4F68837983C753D140FB01CB5CA4
:100DC800DE4FA881B981C553D1408C918383119698
:100DD8008C91119782830E944254818313968C913F
:100DE8001397808314963496CF5D0E947654C1522F
:100DF800D140E817F90749F7C95CDE4F28803980E8
:100E0800C753D1403101D10114960E94035317975B
:100E1800D8960E94D051E4E02E0E311C6A017B0165
:100E280017E00E9412531A95E1F78A019B01E9E144
:100E3800000F111F221F331FEA95D1F7C02AD12AAC
:100E4800E22AF32A4A015B01FEE0880C991CAA1CDD
:100E5800BB1CFA95D1F78A019B01E2E136952795EB
:100E680017950795EA95D1F7082919292A293B29C1
:100E78000C251D252E253F256A017B01F3E00E94E4
:100E88000652E9F70C251D252E253F25F301C080C4
:100E9800D180E280F380F10140A151A162A173A148
:100EA8000E941753C00ED11EE21EF31E8C019D0135
:100EB8004FE0000F111F221F331F4A95D1F7AC01D5
:100EC800BD01E1E17695679557954795EA95D1F784
:100ED800042B152B262B372BAC01BD01FDE0440F4D
:100EE800551F661F771FFA95D1F72C013D01E3E1E5
:100EF8000E94DC51E9F7442A552A662A772A4026B7
:100F0800512662267326FAE00E94D651E9F7482650
:100F180059266A267B264C0C5D1C6E1C7F1CD10151
:100F2800DC964D925D926D927C92DF97CD5DDE4F9F
:100F3800E881F981C352D1402E163F0609F062CFED
:100F4800C55BDE4F28803980CB54D140F8E82F0E9E
:100F5800311C9E012F5F3E4FCD5A0E947A54C355D3
:100F6800D140C901F1014191519161917191DC0127
:100F78004D935D936D937D93CD010E940851E415C7
:100F8800F50589F7CD5ADE4FA881B981C355D140FF
:100F98000D911D912D913C91139714960E94085321
:100FA8001797C35D0E94E251CD52D14018960E9416
:100FB80008531B97CF5C0E94E251C153D140509611
:100FC8000E94D0510E940F514488558866887788BE
:100FD800C75C0E94E251C953D140408C518C628C4D
:100FE800738CC35C0E94E251CD53D140448C558C24
:100FF800668C778CC95B0E94E251C754D140448407
:10100800558466847784CB5DDE4F488259826A8234
:101018007B82C552D14041EF59E4CB5BDE4F488318
:101028005983C554D140CB5BDE4FE881F981C55463
:10103800D1404191519161917191CB5B0E9466546D
:10104800C554D1404C015D01EAE1880C991CAA1CE9
:10105800BB1CEA95D1F76C017D01F6E00E940652AF
:10106800E9F7C828D928EA28FB282C013D01E5E141
:101078000E941C53EA95E1F74C015D01FBE0B69430
:10108800A79497948794FA95D1F784289528A62849
:10109800B7288C249D24AE24BF246C017D01E9E18E
:1010A8000E941253EA95E1F72C013D01F7E00E94F6
:1010B8001C53FA95E1F7C428D528E628F728C82450
:1010C800D924EA24FB24C95CDE4FE881F981C7539F
:1010D800D14081909190A190B190C95C0E946654D2
:1010E800C753D140480D591D6A1D7B1D0E94D0531E
:1010F8002C013D014094509460947094C35CDE4F81
:1011080088809980AA80BB80CD53D140482059203F
:101118006A207B20C75C0E94E851C953D140C8228D
:10112800D922EA22FB220E9421530E94D053C95B94
:10113800DE4FA880B980CA80DB80C754D1404A0DF1
:101148005B1D6C1D7D1DCB5D0E94E851C552D140D1
:101158000E941753C75D0E94EE51C952D140480101
:101168005901EEE1880C991CAA1CBB1CEA95D1F721
:1011780068017901F2E00E940652E9F7C828D928E7
:10118800EA28FB2828013901E3E1440C551C661CB8
:10119800771CEA95D1F748015901FDE00E940D53EB
:1011A800FA95E1F7482859286A287B280E94215394
:1011B80028013901E6E10E94DC51E9F748015901AB
:1011C800FAE0880C991CAA1CBB1CFA95D1F7842854
:1011D8009528A628B728240135014C245D246E24BF
:1011E8007F24CB5D0E94E251C5520E94524E0E945C
:1011F8003C4F482459246A247B24402251226222ED
:101208007322C35D0E94E851CD52D140C820D92035
:10121800EA20FB200E942153CB5DDE4F4880598095
:101228006A807B80C552D140C40CD51CE61CF71CD3
:101238000E941753C35C0E94F451CD53D140C95B3F
:101248000E94FA51C754D1400E943C4FCB5DDE4FFB
:1012580088829982AA82BB82C552D140CB5BDE4F7D
:1012680048815981C554D140415F5A44A1F1C75CB6
:10127800DE4F488059806A807B80C953D140C35C67
:10128800DE4F488259826A827B82CD53D140C75C47
:10129800DE4F88839983AA83BB83C953D140C75D36
:1012A8000E947654AA81BB81C952D140C35D0E9475
:1012B800F451CD52D140CF5C0E94FA51C153D14074
:1012C800C35DDE4F088319832A833B83CD52D14007
:1012D80097018601A8CECF5F0E94EE51C150D14040
:1012E800CB5FDE4F088319832A833B83C5500E9456
:1012F800524EC75FDE4F488259826A827B82C9504C
:10130800D140C75D0E94F451C952D140CF5E0E94BE
:10131800FA51C151D140CB5EDE4F88839983AA83AD
:10132800BB83C551D140C75CDE4F88809980AA80B5
:10133800BB80C953D140C75EDE4F88829982AA829A
:10134800BB82C951D140C35CDE4FA880B980CA8036
:10135800DB80CD53D140C35EDE4FA882B982CA82FA
:10136800DB82CD51D140CF5C0E94E851C153D140BE
:10137800C35F0E94EE51CD50D1400E940F51819120
:101388009191A191B191CD5A0E946654C355D14013
:10139800F1010E94E953840F951FA61FB71F81937F
:1013A8009193A193B1931F010E9408514E165F06B5
:1013B80021F7CF5BDE4F288139814A815B81C15497
:1013C800D1402F5F3F4F4F4F5F4FCF5BDE4F28839A
:1013D80039834A835B83C154D140CB5CDE4F48815B
:1013E8005981C553D140405C5F4FCB5CDE4F488389
:1013F8005983C553D140C4CCCC5ADE4FCDBFDEBFD4
:10140800DF91CF911F910F91FF90EF90DF90CF90D8
:10141800BF90AF909F908F907F906F905F904F900C
:061428003F902F90089593
:10142E000F931F93CF93DF9300D0CDB7DEB78C0110
:10143E001092BC338091BA33823020F0833009F49D
:10144E0090C033C28091BF3380FF2FC2C8010E946B
:10145E006150C80108960E94615041E050E063E57A
:10146E0071E3C8010E94473564E571E380916E31E6
:10147E0090916F310E94404A482F50E064E571E32D
:10148E00C8010E9447354AE050E068E571E3C801A3
:10149E000E94473542E050E062E671E3C8010E94C7
:1014AE0047356091643170916531FB0101900020E8
:1014BE00E9F73197AF01461B570BC8010E9447351C
:1014CE0080916A3190916B31892B31F48091663124
:1014DE0090916731892B41F142E050E066E671E36D
:1014EE00C8010E94473540916631509167310E9484
:1014FE0086546091683170916931C8010E944735F8
:10150E0042E050E06AE671E3C8010E94473540911F
:10151E006A3150916B310E94865460916C3170919A
:10152E006D31C8010E944735C8010E948447882347
:10153E0009F4C4C18091BF338E7F8093BF3385E0A1
:10154E008093BC330E9449538AEB92E30E943B3C4A
:10155E0082E08093BA338091BD338E7F8093BD330A
:10156E00A4C12091BF33222309F49FC180E030E053
:10157E00482FB901082E02C0759567950A94E2F7B7
:10158E0060FD02C08F5FF4CF81E090E001C0880F54
:10159E004A95EAF7883009F4B8C020F4843009F48B
:1015AE0043C083C1803109F410C1803209F07DC17E
:1015BE008091BD3381FF79C18091BD338D7F809342
:1015CE00BD3319821A82C8010E946150C801089663
:1015DE000E94615089818170806C8E7F89831A820E
:1015EE0041E050E0BE016F5F7F4FC8010E9447355A
:1015FE000E9432510E944735C8010E9484478823B9
:10160E0009F453C18091BF338F7D8093BF33809196
:10161E00BE3380618093BE330E94495386EA92E3C3
:10162E000E943B3C85E04BC180EB92E30E942C4A2A
:10163E00C8010E946150C80108960E94615041E0A5
:10164E0050E06FEF71E3C8010E94473560E072E32E
:10165E0080910D3290910E320E94404A482F50E0F8
:10166E0060E072E3C8010E94473542E050E064E05A
:10167E0072E3C8010E944735409104325091053201
:10168E000E9486546091063270910732C8010E9402
:10169E0047358091FF318670823071F441E050E021
:1016AE0069E072E3C8010E94473541E050E068E00E
:1016BE0072E3C8010E94473540910A3250E06091B2
:1016CE000B3270910C32C8010E9447358091BF33A6
:1016DE0082FD04C08091FF3183FFF4C0C8010E94D7
:1016EE008447882309F4EEC08091BF338B7F8093AB
:1016FE00BF338091FF318670823009F0BFC0809178
:10170E00BE3380628093BE33B9C0C8010E9461505F
:10171E00C80108960E94615041E050E06FE072E30C
:10172E00C8010E94473560E172E380911B329091AF
:10173E001C320E94404A482F50E060E172E3C8011B
:10174E000E94473541E050E065E172E3C8010E9416
:10175E00473541E050E064E172E3C8010E9447352D
:10176E0042E050E066E172E3C8010E9447354091C5
:10177E001632509117320E94865460911832709131
:10178E001932C8010E94473541E050E06AE172E328
:10179E00C8010E944735C8010E948447882309F476
:1017AE0070C08091BF33877F8093BF338091BE33EB
:1017BE0084608093BE338091BD33877F8093BD3329
:1017CE000E9449538CE992E357C0C8010E946150B0
:1017DE00C80108960E94615041E050E06BE272E34E
:1017EE00C8010E9447356CE272E3809136329091C7
:1017FE0037320E94404A482F50E06CE272E3C80133
:10180E000E94473541E050E061E372E3C8010E9457
:10181E00473541E050E060E372E3C8010E9447356E
:10182E0042E050E062E372E3C8010E944735409106
:10183E003232509133320E9486546091343270911C
:10184E003532C8010E944735C8010E94844788235B
:10185E00C1F08091BF338F7E8093BF338091BE33B2
:10186E0088608093BE338091BD338F7E8093BD336D
:10187E000E94495382E992E30E943B3C85E08093AB
:10188E00BC3320916031309161312115310569F001
:10189E003227232732270E9444530E946E4CAB01FD
:1018AE00BC0180EB92E30E943B3C8091BA330F90D7
:1018BE000F90DF91CF911F910F91089586E0809345
:0A18CE00BC33F3CF1092BA33F0CF11
:1018D8002F923F924F925F926F927F928F929F9238
:1018E800AF92BF92CF92DF92EF92FF920F931F9326
:1018F800CF93DF93CDB7DEB7C455D109CDBFDEBFD7
:101908005B0169017A01813411F08435B1F40E94D8
:10191800B9500E94A0398111E9C18A8126968FAFFA
:101928002697E091AC33F091AD33309709F4DEC1DE
:10193800AE014B5B5F4F61E017C08234C1F40E9477
:10194800B9500E94A0398111D1C18A8126968FAFE2
:101958002697E091AC33F091AD33309709F4C6C1C6
:10196800AE014B5B5F4F62E089810995BFC183344B
:1019780009F073C02CE030E0AE014B5B5F4FC7014C
:10198800B6010E94A0398111B1C12F963FAD2F97A2
:1019980037FD3FC0432F032E000C550B2E962FAD5D
:1019A8002E976BE02603F0011124E55AF04D81854E
:1019B800649FF001659FF00D1124E55AF04D818771
:1019C80081E0808761968EAD9FAD61970897868389
:1019D80097838091AE339091AF33BC016F5F7F4F97
:1019E80029F06093AE337093AF3305C002968093AD
:1019F800AE339093AF338BE0849FF001859FF00D59
:101A08001124E55AF04D8091AE339091AF33848321
:101A18009583398382E090E08A839B8329968EADF3
:101A28009FAD29978C839D832D968CAD9DADAEADD2
:101A3800BFAD2D978E839F83A887B987E091AC337C
:101A4800F091AD33309709F451C1AE014F5F5F4F4C
:101A580064E02E968FAD2E9788CF843411F08B34A6
:101A680031F50E94B9500E94A03981113FC1898186
:101A780026968FAF26979A8127969FAF2797911121
:101A88000AC00E94EE53E55AF04D2B813C81285044
:101A9800310926833783E091AC33F091AD33309729
:101AA80009F424C1AE014B5B5F4F65E05ECF8A3419
:101AB800C1F424E40E947F510E94A039811116C10B
:101AC800E091AA33F091AB33309709F40FC1259612
:101AD8004CAD5DAD6EAD7FAD2597CE0101960995F4
:101AE80005C1863429F0883431F08D3409F0A7C057
:101AF80096E0992E02C089E0982E20E130E0AE01F0
:101B08004B5B5F4FC701B6010E94A0398111EEC03F
:101B180062968FAC629765964EAD5FAD6597882DDE
:101B28000E94EE53E55AF04D12862F968EAD9FAD6A
:101B38002F9761966EAD7FAD619729962EAD3FAD1B
:101B4800299729873A872D960CAD1DAD2EAD3FAD4F
:101B58002D970B871C872D873E870E94E45309F039
:101B6800C5C0181619060CF059C08C018A159B05BA
:101B780008F054C00E94365409F4B8C08281938199
:101B8800892B09F4B3C08085813009F0AFC02601E4
:101B98003701460E571E611C711C0D831E835F01A1
:101BA8001F01E2E02E0E311C6501F8E0CF0ED11CBA
:101BB800F101E080F1800E151F0508F47801F501A8
:101BC800408151819701C301B2010E94A03981115E
:101BD8008DC00E94C65489839A83EB82FC828D81D2
:101BE8009E818E199F098D839E83E091AC33F0917D
:101BF800AD33309731F0AE014F5F5F4F692D882DBF
:101C080009954E0C5F1C611C711CF60180818823AC
:101C180009F46CC00E191F0959F668C08B839C83A0
:101C280019821A82E091AC33F091AD33309709F400
:101C38005DC0AE014F5F5F4F692D882D96CE85340C
:101C480021F0873421F08C3429F517E001C018E021
:101C580028E00E947F510E94A039811147C08981E4
:101C68004D815E812B813C8127962EAF3FAF279710
:101C78000E94EE53E55AF04D0E94E453B9F5E09105
:101C8800AC33F091AD33309789F1AE014B5B5F4FC8
:101C9800612F6BCE823551F524E10E947F510E945D
:101CA800A039811123C04D815E816F817885809133
:101CB800663390916733A0916833B09169330E947D
:101CC800F45281F4E091A833F091A933309751F0A0
:101CD80029853A854B855C8569817A818B819C81D0
:101CE800098909951092A8331092A933CC5ADF4F6D
:101CF800CDBFDEBFDF91CF911F910F91FF90EF9085
:101D0800DF90CF90BF90AF909F908F907F906F9013
:0A1D18005F904F903F902F900895C8
:101D2200ABE0B0E0E7E9FEE00C9483486C017B0194
:101D32008A01FC0116821782838181FFCCC1CE0108
:101D420001963C01F6019381F70193FD859193FF82
:101D520081917F01882309F4BAC1853239F493FD58
:101D6200859193FF81917F01853229F4B60190E03C
:101D72000E944C3AE7CF912C212C312CFFE1F31534
:101D8200D8F08B3279F038F4803279F08332A1F4D2
:101D9200232D20611DC08D3261F0803369F4232D23
:101DA200216016C0832D8260382EE32DE4603E2E22
:101DB2002AC0F32DF8601DC037FC2DC020ED280F7E
:101DC2002A3040F08E32B9F436FC81C1232D2064D2
:101DD200322E19C036FE06C08AE0989E200D1124CC
:101DE200922E11C0EAE02E9E200D1124222EF32DF8
:101DF200F0623F2E08C08C3621F4832D8068382E85
:101E020002C0883641F4F70193FD859193FF8191D9
:101E12007F018111B3CF982F9F7D9554933028F481
:101E22000C5F1F4F9FE399830DC0833631F08337D8
:101E320071F0833509F059C021C0F801808189838E
:101E42000E5F1F4F88248394912C530113C02801E5
:101E5200F2E04F0E511CF801A080B18036FE03C0A3
:101E6200692D70E002C06FEF7FEFC5010E941F4E27
:101E72004C018201F32DFF773F2E16C0280122E08C
:101E8200420E511CF801A080B18036FE03C0692DBC
:101E920070E002C06FEF7FEFC5010E94144E4C014B
:101EA200F32DF0683F2E820133FC1BC0822D90E09F
:101EB20088169906B0F4B60180E290E00E944C3A8E
:101EC2002A94F4CFF50137FC859137FE81915F01A9
:101ED200B60190E00E944C3A21102A9421E0821A25
:101EE20091088114910471F7E8C0843611F08936A3
:101EF20041F5F80137FE07C06081718182819381CB
:101F02000C5F1F4F08C060817181072E000C880B87
:101F1200990B0E5F1F4FF32DFF763F2E97FF09C0DF
:101F220090958095709561957F4F8F4F9F4FF06888
:101F32003F2E2AE030E0A3010E94692D882E8618E8
:101F420045C0853731F4232D2F7EB22E2AE030E0B2
:101F520025C0932D997FB92E8F36C1F018F488359C
:101F620079F0B5C0803719F0883721F0B0C0E92F79
:101F7200E061BE2EB4FE0DC0FB2DF460BF2E09C081
:101F820034FE0AC0292F2660B22E06C028E030E0B7
:101F920005C020E130E002C020E132E0F801B7FEE6
:101FA20007C060817181828193810C5F1F4F06C0DF
:101FB2006081718180E090E00E5F1F4FA3010E945B
:101FC200692D882E8618FB2DFF773F2E36FE0DC019
:101FD200232D2E7FA22E891458F434FE0BC032FC1E
:101FE20009C0832D8E7EA82E05C0B82CA32C03C059
:101FF200B82C01C0B92CA4FE0FC0FE01E80DF11DE2
:102002008081803321F49A2D997EA92E09C0A2FEE7
:1020120006C0B394B39404C08A2D867809F0B394B1
:10202200A3FC11C0A0FE06C0B21488F4280C922CA6
:102032009B180EC0B21460F4B60180E290E00E94D8
:102042004C3AB394F7CFB21418F42B1802C0982C60
:10205200212CA4FE10C0B60180E390E00E944C3A0D
:10206200A2FE17C0A1FC03C088E790E002C088E589
:1020720090E0B6010CC08A2D867859F0A1FE02C00C
:102082008BE201C080E2A7FC8DE2B60190E00E94E3
:102092004C3A891438F4B60180E390E00E944C3A3D
:1020A2009A94F7CF8A94F301E80DF11D8081B6016D
:1020B20090E00E944C3A8110F5CF222009F442CEE2
:1020C200B60180E290E00E944C3A2A94F6CFF601E3
:1020D2008681978102C08FEF9FEF2B96E2E10C94ED
:0220E200E448D0
:1020E400CF92DF92EF92FF92CF930E94D2470E9449
:1020F4007C2E0E94B84A85EB91E30E94905285EBB6
:1021040091E30E9411540E94D24C811105C0809128
:102114000E28846080930E2885EB91E30E944E364E
:102124008093622B882329F080910E288460809309
:102134000E2885EB91E30E94905285EB91E30E9477
:10214400A25140E2C42E47E4D42E46E1E42EF12C01
:1021540080E090E0DC0140E050E0BA0126B3207456
:10216400420F511D611D711D26B32072820F911DF6
:10217400A11DB11D21E0C21AD108E108F10871F7CF
:10218400403953426B40710508F0E7C080399342EF
:10219400AB40B10508F080C063EB78E489E69AE2CD
:1021A4000E94B7516CEB78E48AE89AE20E94B75136
:1021B4001F9282E08F9386EC98E49F938F938FED28
:1021C4009AE29F938F930E942D452AEFC22ED12C21
:1021D400E12CF12CC0923933D0923A33E0923B3364
:1021E400F0923C33C0923D33D0923E33E0923F3381
:1021F400F092403389E393E30E943C1BC092303356
:10220400D0923133E0923233F0923333C09234338C
:10221400D0923533E0923633F092373380E393E350
:102224000E943C1B109227331092283310922933BA
:1022340010922A33C12CD12C7601C394C0922B3333
:10224400D0922C33E0922D33F0922E3387E293E335
:102254000E943C1B10921E3310921F3310922033A5
:1022640010922133C0922233D0922333E09224334C
:10227400F09225338EE193E30E943C1B80910E285B
:1022840088608F7D806480930E280F900F900F904C
:102294000F900F900F90C0C084EF91E0A0E0B0E0E9
:1022A4008093393390933A33A0933B33B0933C33C8
:1022B40080933D3390933E33A0933F33B0934033A8
:1022C40089E393E30E943C1B109230331092313324
:1022D4001092323310923333C12CD12C7601C39433
:1022E400C0923433D0923533E0923633F0923733A0
:1022F40080E393E30E943C1B10922733109228330F
:102304001092293310922A33C0922B33D0922C335B
:10231400E0922D33F0922E3387E293E30E943C1B2C
:1023240010921E3310921F331092203310922133D7
:10233400C0922233D0922333E0922433F092253397
:102344008EE193E30E943C1B80910E28877F80627C
:102354008F7B80930E28C0E060C08AEF90E0A0E0FD
:10236400B0E08093393390933A33A0933B33B093E6
:102374003C3380933D3390933E33A0933F33B093EB
:10238400403389E393E30E943C1B10923033109254
:1023940031331092323310923333C12CD12C760165
:1023A400C394C0923433D0923533E0923633F092F2
:1023B400373380E393E30E943C1B1092273310923F
:1023C40028331092293310922A33C0922B33D0929F
:1023D4002C33E0922D33F0922E3387E293E30E9464
:1023E4003C1B10921E3310921F3310922033109214
:1023F4002133C0922233D0922333E0922433F092DB
:1024040025338EE193E30E943C1B80910E28886063
:102414008F7D8F7B80930E28C1E06C2F87E094E53D
:102424000E946946C13061F485EB91E30E9401503A
:1024340044E650E060E070E084EC92E30E943B3CB0
:102444000E947C2E85EB91E39F938F9389EC98E413
:102454009F938F938EEF9AE29F938F930E942D45C3
:102464000F900F900F900F900F900F9067E179E20B
:102474008EEF9AE2CF91FF90EF90DF90CF900C9483
:02248400184AF4
:10248600AF92BF92CF92DF92EF92FF920F931F937C
:10249600CF93DF93CDB7DEB72997CDBFDEBF7C01E3
:1024A6001092BC3319868091BD3382FD08C080919D
:1024B600BD3383FD04C08091BD3384FF05C01092F7
:1024C600BA33C7010E94704EF70186859785109131
:1024D600BA33892B11F4812F82C1123051F0133097
:1024E60009F484C0113009F478C187E08093BA33C7
:1024F60074C18091BD3380FD70C0C0906031D090B2
:1025060061318AEB92E30E942C4A5701F8E0AF0E44
:10251600B11C41E050E0BE01675F7F4FC5010E94DC
:1025260008439C019985892F807F803209F047C036
:10253600BE016F5F7F4F84E0FB0111928A95E9F738
:1025460041E050E0C5010E94124241E050E0BE0168
:102556006E5F7F4FC5010E94124241E050E0BE010E
:102566006D5F7F4FC5010E94124241E050E0BE01FF
:102576006C5F7F4FC5010E9412428C81882311F047
:1025860080E001C083E08093BA338330B1F43C2D00
:102596002D2D2115310579F08091BF33806280930E
:1025A600BF330E9444530E946E4CAB01BC0180EBCA
:1025B60092E30E943B3C84E016C083E014C0109373
:1025C600BC339093BB33209384333093853310927E
:1025D600BA33C7010E94704E00C11092BA33C701C8
:1025E6000E94704E81E08093BC33F7C08701085F7C
:1025F6001F4F41E050E0BE01675F7F4FC8010E9458
:102606000843898582958F70893099F138F4833033
:1026160009F4B8C0843009F4B9C0DFC08B3009F4BE
:1026260071C08D3009F0D9C08091BE3384FFD5C00A
:102636008091BD3382FDD1C086EA92E30E942C4A86
:1026460019821A8241E050E0BE016F5F7F4FC801D8
:102656000E9412428091603190916131892B29F05C
:102666008091BF3380628093BF33C8010E9461505E
:10267600B4C08091BE3382FFB0C08091BD3383FD6C
:10268600ACC08CE992E30E942C4A0E94325488E046
:10269600FB0111928A95E9F741E050E0C8010E94DA
:1026A60012420E9432510E94124241E050E0BE01A5
:1026B6006A5F7F4FC8010E94124241E050E0BE01AE
:1026C600695F7F4FC8010E9412429F818091143238
:1026D600981711F0F12C12C09E8180911532981333
:1026E600F9CF41E050E0BE01685F7F4FC8010E940C
:1026F60012428885803871F393E0F92E8091BE33BB
:102706008B7F38C08091BE3383FF67C08091BD3315
:1027160084FD63C082E992E30E942C4A0E943254EF
:1027260084E0FB0111928A95E9F741E050E0C80187
:102736000E9412420E9432510E9412428A818230C5
:1027460091F40E942B510E9412420E9439510E941C
:1027560012429C8180913032981305C09B818091F2
:102766003132981711F0F12C02C083E0F82E8091D7
:10277600BE33877F8093BE33C8010E946150F092BA
:10278600BA332BC0C7010E94E61D27C0BE016F5F8A
:102796007F4FFB0111928A95E9F741E050E0C801AD
:1027A6000E9412420E9432510E9412420E943951E6
:1027B6000E9412420E942B510E9412429B818091DC
:1027C600083298130AC09C8180910932981305C07B
:1027D6008091BE338F7D8093BE338091BA33299624
:1027E600CDBFDEBFDF91CF911F910F91FF90EF908C
:0A27F600DF90CF90BF90AF900895E0
:10280000CF92DF92EF92FF92CF93DF938B3109F457
:1028100023C1EB018C3120F4893009F42CC161C152
:102820008C3221F0823309F4FEC05BC18881813093
:1028300009F075C08091B633882341F18EE792E3A9
:102840000E942C4A1092B6338AEF90E0A0E0B0E0EC
:102850008093393390933A33A0933B33B0933C3316
:1028600080933D3390933E33A0933F33B0934033F6
:1028700089E393E30E943C1B48EE53E060E070E084
:1028800084E792E30E943B3C0E94784D80910E28A1
:102890008A708830F9F48AEF90E0A0E0B0E080938D
:1028A000303390933133A0933233B09333338093EA
:1028B000343390933533A0933633B093373380E37A
:1028C00093E30E943C1B80910E288260877B80618D
:1028D00080930E2880910E2885FF1EC08F7D8093E7
:1028E0000E2888EE93E0A0E0B0E080933933909317
:1028F0003A33A0933B33B0933C3380933D33909372
:102900003E33A0933F33B093403383E08093413311
:1029100089E393E30E943C1B0E94CB4A71C0811162
:102920006FC01092273310922833109229331092DF
:102930002A33C12CD12C7601C394C0922B33D09270
:102940002C33E0922D33F0922E3387E293E30E94F2
:102950003C1B10921E3310921F33109220331092A2
:102960002133C0922233D0922333E0922433F09269
:1029700025338EE193E30E943C1B80910E2886FD57
:102980002CC01092303310923133109232331092A7
:102990003333C0923433D0923533E0923633F092F1
:1029A000373380E393E30E943C1B8AEF90E0A0E082
:1029B000B0E08093393390933A33A0933B33B09394
:1029C0003C3380933D3390933E33A0933F33B09399
:1029D000403389E393E30E943C1B80910E288D7E57
:1029E000886080930E2842E350E060E070E080E66B
:1029F00092E30E943B3C80910E28816080930E28D8
:102A0000E0917833F0917933309709F46AC080917E
:102A10000E2880FD66C08881DF91CF91FF90EF90F6
:102A2000DF90CF9009948DE396E40E946A4881116B
:102A300058C080910E2880FF09C080E692E30E9472
:102A40002C4A80910E288E7F80930E2880910E282C
:102A50008B7F80930E2845C0FB0180819181892B5B
:102A600009F43FC0CB01DF91CF91FF90EF90DF9051
:102A7000CF900C94F33EFB01ED59FF4F8081811103
:102A800030C0319780811F928F9381E596E49F93A8
:102A90008F938FED9AE29F938F930E942D45BE01F5
:102AA00089E69AE20E94B751BE016F5D7F4F8AE8C6
:102AB0009AE20E94B75181E08093B6330F900F9055
:102AC0000F900F900F900F9040E050E0BA018EE70A
:102AD00092E3DF91CF91FF90EF90DF90CF900C9435
:102AE0003B3CDF91CF91FF90EF90DF90CF90089526
:102AF0002F923F924F925F926F927F928F929F920E
:102B0000AF92BF92CF92DF92EF92FF920F931F93FB
:102B1000CF93DF93CDB7DEB72897CDBFDEBF7C0163
:102B20006B014F8358872B833C83452B39F0892BCE
:102B300029F0232B19F00115110531F41F9282EEB3
:102B40008F9385E497E423C0CB0163E070E00E949B
:102B50007C4A21E030E0892B11F420E030E0C6010E
:102B600063E070E00E947C4A260F371F220F331F5C
:102B7000220F331FD80113966C916623D1F0862F54
:102B8000837079F01F9282EE8F938EEC97E49F937F
:102B90008F930E9499490F900F900F900F9082EEA3
:102BA000ECC070E0C9010E947C4A660F771F260FB7
:102BB000371F2F5F3F4FEB81FC818081918182170E
:102BC000930778F41F928DEE8F9389E098E49F939A
:102BD0008F930E9499490F900F900F900F908DEE58
:102BE000CCC0AB81BC811D921C92212C312C612C5C
:102BF000712C812C912CEF81F885E60DF71D8C143A
:102C00009D0408F0ABC0D80113966C916623D9F0EF
:102C100081149104C1F070E0C301821993090E94EC
:102C20007C4A892B81F4BDE0B083F30131962F817A
:102C30003885E20FF31F32E0630E711C4AE04083D7
:102C400052E0250E311C8F819885860D971D898352
:102C50009A83D7018C91B801869586950E94AF45DD
:102C6000E981FA818083D7018C9183708295807F7E
:102C700093012F5F3F4FEF81F885E20FF31FED8344
:102C8000FE832E5F3F4F2901A3014C5F5F4F5A0126
:102C900094012F5F3F4F2C153D05F0F552E0650E76
:102CA000711C11969C9192959F70B801892B0E947E
:102CB000AF45AD81BE818C93F70181818F70880F04
:102CC000880F2F813885620E731E94012E5F3F4F4F
:102CD0002C153D05C8F49281929596959695937022
:102CE000B801892B0E94AF45D3018C933501AF8089
:102CF000B884A40CB51CF7018281B8018F730E94BF
:102D0000AF45D5018C931CC0B8010E94AF45F301BB
:102D100080833501D8010DC0B8010E94AF45ED8117
:102D2000FE818083D8010E944254E981FA81828326
:102D3000350112968C91EF81F885E40DF51D8083A5
:102D4000F3E08F0E911C23E0E20EF11C54CF9301AF
:102D5000215031098291811105C0390132E0631699
:102D60007104A8F74F815885460D571DDA011C9252
:102D7000EB81FC816082718280E02896CDBFDEBF4E
:102D8000DF91CF911F910F91FF90EF90DF90CF9047
:102D9000BF90AF909F908F907F906F905F904F907B
:062DA0003F902F90089502
:102DA600CF92DF92EF92FF92CF93DF930E94C34FB1
:102DB6006B017C010E949F52882309F47EC02091FA
:102DC6006A3330916B3340916C3350916D33C70148
:102DD600B6010E94375516161706180619060CF086
:102DE60082C0C0926A33D0926B33E0926C33F09219
:102DF6006D3385EB91E39F938F9383E898E49F93DC
:102E06008F9385EE90E39F938F930E942D4580913B
:102E16000E280F900F900F900F900F900F9081FF3C
:102E260062C00E94A546EC010E940E55482FE92F6C
:102E3600CE01D7FF04C0882799278C1B9D0B24E65B
:102E460030E0B9010E94904A9F938F93CE01B90159
:102E56000E94904A7F936F93EF934F9387E998E48C
:102E66009F938F9383E99EE29F938F930E942D45B4
:102E76002DB73EB7265F3F4F2DBF3EBF181619062A
:102E860094F5AC0163E97EE285EE90E30E949A52E6
:102E96008091D333882321F081508093D33323C08C
:102EA60084EF91E0A0E0B0E080932733909328333D
:102EB600A0932933B0932A330AC010922733109275
:102EC60028331092293310922A330E940C5480938F
:102ED6002B3390932C33A0932D33B0932E3387E26C
:102EE60093E30E943C1B80910E2883FD4EC081FF18
:102EF60016C00E940C548093393390933A33A093B2
:102F06003B33B0933C3310923D3310923E331092D4
:102F16003F331092403389E393E30E943C1B809138
:102F26000E2884FD32C00E949F52882399F00E9489
:102F36000C548093303390933133A0933233B09353
:102F46003333109234331092353310923633109255
:102F5600373317C080910E2887FF17C08AEF0E946B
:102F6600CE548093303390933133A0933233B09361
:102F760033338093343390933533A0933633B09301
:102F8600373380E393E30E943C1B80910E2882FF37
:102F960013C00E940C5480931E3390931F33A0934A
:102FA6002033B093213310922233109223331092A0
:102FB60024331092253312C010921E3310921F3301
:102FC60010922033109221330E940C5480932233A6
:102FD60090932333A0932433B09325338EE193E368
:102FE6000E943C1B64E60E94D254DF91CF91FF9071
:082FF600EF90DF90CF900895E9
:102FFE00CF92DF92EF92FF92CF93DF9380910928C9
:10300E00982F957051F4E091EF31F091F03162E428
:10301E0072E38CE492E309951FC083FD1DC0E0911D
:10302E00FB31F091FC310995811116C08091092870
:10303E0081FD12C040E157E260E070E08CE492E363
:10304E000E943B3C80910E288F7780930E288091B2
:10305E00092888608093092880910E2881FD0BC075
:10306E00E091FB31F091FC310995882309F4D1C030
:10307E000E94EA54CEC00E94E7540E94344E0E9431
:10308E00574FC82F0E9490456B017C010E94C34F81
:10309E00672B682B692BF9F0E091FB31F091FC3135
:1030AE0009958823C1F080910E28806880930E28A0
:1030BE008091423390914333A0914433B091453384
:1030CE000E94CC5241F0C0924233D0924333E092F0
:1030DE004433F0924533C23009F49BC030F0C33014
:1030EE00E1F0C43009F091C094C00E94E0426091BA
:1030FE000A2870910B2880910C2890910D28E09150
:10310E00F131F091F23109958F3F09F47EC0809133
:10311E000E28806180930E287CC0E091FD31F091E5
:10312E00FE310995882331F0E091F331F091F431BD
:10313E0009956FC00E94E754EC010E94431287303C
:10314E0069F00E94F054823039F0843039F40E94D4
:10315E00C34F0E94CC4F02C00E94F354CE010E9476
:10316E00170A0E94F0540E94E754FC01C484D584CF
:10317E000E94E754DC011896ED90FC9019970E947E
:10318E00E754DC015096ED91FC915197808120E03F
:10319E0030E0A601B7010E948A540E94703CE09173
:1031AE00FB31F091FC310995882399F180910E281D
:1031BE008F7E8B7F80930E288CE492E30E942C4AA4
:1031CE0082E492E30E942C4A809109288B7F877FAC
:1031DE008093092884FF05C0E091F531F091F63116
:1031EE0009950E94904561317E40810591058CF0D4
:1031FE00E091F931F091FA310995E889F9898081E8
:10320E000E948A540E94874604C080910E288460D2
:10321E0081CF64EF71E080E090E0DF91CF91FF907D
:08322E00EF90DF90CF900895AE
:10323600CF92DF92EF92FF921F93CF93DF93CDB79A
:10324600DEB72697CDBFDEBF1B821C821D821E8283
:1032560068E674E40E94205489839A839E012F5F56
:103266003F4F790110E0009771F0133061F0F701DC
:10327600819391937F011F5F68E674E480E090E09C
:103286000E942054F0CFE980FA80E114F104D9F0CD
:103296002B813C818D819E812115310519F4009782
:1032A60079F417C0009761F4C9010E94DA549EEFC1
:1032B600980F923008F443C0813059F012E01DC0D7
:1032C6000E94DA54182F113021F0C8F11430A8F0FA
:1032D60036C040E250E0B70189E69AE20E947D4C92
:1032E6006AE674E48AE89AE20E94B7516CE674E4EE
:1032F6008FED9AE20E94B75135C040E250E0B70127
:1033060089E69AE20E947D4C6B817C8140E450E024
:103316008AE89AE20E947D4C1F921F938EE694E4FF
:103326009F938F938FED9AE29F938F930E942D45E3
:103336000F900F900F900F900F900F9013C081E792
:1033460094E49F938F930E9499490F900F9026962D
:10335600CDBFDEBFDF91CF911F91FF90EF90DF9041
:10336600CF90089583EB94E49F938F930E9499499D
:103376000E949F520F900F90882321F00E94E754DD
:103386000E94704E80910E2887FF07C08F7780932A
:103396000E280E94E7540E94843A0E94A84C10927C
:1033A6002733109228331092293310922A33C12CD6
:1033B600D12C7601C394C0922B33D0922C33E09259
:1033C6002D33F0922E3387E293E30E943C1B10923A
:1033D6001E3310921F331092203310922133C09265
:1033E6002233D0922333E0922433F09225338EE1B8
:1033F60093E30E943C1B10923033109231331092AB
:10340600323310923333C0923433D0923533E09254
:103416003633F092373380E393E30E943C1B8AEF06
:1034260090E0A0E0B0E08093393390933A33A093D4
:103436003B33B0933C3380933D3390933E33A0931C
:103446003F33B093403389E393E32696CDBFDEBF87
:10345600DF91CF911F91FF90EF90DF90CF900C946A
:023466003C1B0D
:103468008F929F92AF92BF92CF92DF92EF92FF928C
:103478000F931F93CF93DF9300D0CDB7DEB7FC0136
:103488005B01892B09F4E4C0A081B181109709F48C
:10349800DFC082819381892B09F4DAC08481958108
:1034A800009709F4D5C0AD01480F591F9A01215062
:1034B8003109D9012C912D3731F0019684839583F8
:1034C8008DE7DA018C932481358160E070E0621722
:1034D800730759F0A081B181A60FB71F8C916F5F58
:1034E8007F4F8E32A1F76B0101C0690149018C1829
:1034F8009D08C401805C9F4F0E94BD5263E070E04C
:103508000E947C4A82819381821B930B6D5F7F4F5F
:103518008617970710F484EE9CC07F0120813181C3
:10352800B9016C0D7D1DA401820F931F0E945F4B92
:10353800F7012281338129833A830E945654AF01CF
:103548004C0D5D1DD7010E94DF53B901681B790B33
:10355800CB0106E413E30E945A54B4018E0F9F1F57
:103568000E947815811175C069817A816C0D7D1D65
:10357800D70114966D937C93159712964D915C9193
:103588001397CA01885591096817790708F0C3CFBE
:103598008D919C9140525109480F591F0E94AC3F90
:1035A800811157C0F7016081718182819381AC01DB
:1035B80040545109460F571F8097680F791FC5015E
:1035C8000E94B538811145C0D7012D913C911197C2
:1035D8000E94DF53AC014F5F5F4F14964D935C938D
:1035E8001597F901E80FF91F2EE2208312962D9105
:1035F8003C9113970E94DB52C901841B950B898368
:103608009A83ED91FC914E0F5F1FC9018054910977
:103618009E012F5F3F4F60E470E08E0F9F1F0E9456
:103628007815F7012481358189819A81820F931F4A
:1036380084839583228133818217930708F06BCFA7
:1036480020813181F901E80FF91F108280E001C063
:1036580082EE0F900F90DF91CF911F910F91FF9005
:10366800EF90DF90CF90BF90AF909F908F9008958C
:10367800CF93DF93EC018885813009F46FC008F49B
:10368800A1C08230B9F1833009F0D7C08AE093E352
:103698000E942C4A84E193E30E942C4A8C819D81EC
:1036A800AE81BF81892B8A2B8B2B11F488E09BC0BC
:1036B800488159816A817B814115510561057105F0
:1036C80011F488E09DC0C0931633D0931733C0938C
:1036D8000C33D0930D338CEF9EE480931433909386
:1036E800153382EF9EE480930A3390930B3384E181
:1036F80093E39FC086EF92E30E942C4A80E093E315
:103708000E942C4A8C819D81AE81BF81892B8A2B96
:103718008B2B11F484E067C0488159816A817B81D1
:10372800411551056105710511F484E069C0C09324
:103738000233D0930333C093F832D093F93288EE32
:103748009EE480930033909301338EED9EE4809342
:10375800F6329093F73280E093E36BC082EE92E307
:103768000E942C4A8CEE92E30E942C4A8C819D8107
:10377800AE81BF81892B8A2B8B2B11F482E033C059
:10378800488159816A817B8141155105610571051F
:1037980011F482E035C0C093EE32D093EF32C0937B
:1037A800E432D093E53284ED9EE48093EC3290933A
:1037B800ED328AEC9EE48093E2329093E3328CEE11
:1037C80092E337C08EEC92E30E942C4A88ED92E394
:1037D8000E942C4A8C819D81AE81BF81892B8A2BC6
:1037E8008B2B21F481E08093660427C0488159819E
:1037F8006A817B81411551056105710521F481E0DC
:10380800809365041AC0C093DA32D093DB32C09338
:10381800D032D093D13280EC9EE48093D83290930A
:10382800D93286EB9EE48093CE329093CF3288EDE6
:1038380092E3DF91CF910C943B3CDF91CF910895B7
:103848002F923F924F925F926F927F928F929F92A8
:10385800AF92BF92CF92DF92EF92FF920F931F9396
:10386800CF93DF93CDB7DEB72C97CDBFDEBF962FB2
:103878009F779A8789870115110529F0F7013896EE
:10388800EC0DFD1D02C0F9013896EB87FC87EB852E
:10389800FC85ED33F64008F047C0360159016A014E
:1038A800962E882E0E94684A81113EC02B853C8541
:1038B800C901A0E0B0E0DC019927882788299C018C
:1038C800AD0139292D833E834F8358870E94B75312
:1038D8000E943E3D22E00E94D65468E70E94C254EE
:1038E8000E943E3D0E94CB5348EE842E43E0942E26
:1038F80009C085EF881681E0980620F40E94AD5330
:103908000E94CC4891E0891A9108E0F0AE014B5F23
:103918005F4F68E70E94C2540E94D64B0E94085528
:10392800882321F00E9413498FEF56C08D8181FDB5
:10393800E0CFAE014F5F5F4F60E074E085E190E05B
:103948000E94D64B0E940855811109C029803A80EF
:103958004B805C80211431044104510421F40E94FD
:1039680013498DEF39C028E030E0AE01475F5F4F63
:10397800C201B1010E94A32898E0290E311C411C04
:10398800511CC114D10431F09501A601C201B10145
:103998000E94A3280115110551F0C201B101660D5D
:1039A800771D811D911D9701A8010E94A328898177
:1039B8009A81AB81BC8122E00E948A52E9F79C017E
:1039C800AD0122606CE60E94C2540E943E3D0E94F6
:1039D80013490E94085581952C96CDBFDEBFDF9113
:1039E800CF911F910F91FF90EF90DF90CF90BF90F4
:1039F800AF909F908F907F906F905F904F903F9087
:043A08002F9008955E
:103A0C004F925F926F927F92BF92CF92DF92EF9222
:103A1C00FF920F931F93CF93DF9300D000D0CDB7BD
:103A2C00DEB7B82EF62E29013A0120E030E0A901CC
:103A3C006CE070E0CB010E943E3D20E030E0A9013B
:103A4C000E94B7530E943E3D20E030E0A9010E9445
:103A5C00BC530E943E3D0E948D4F0E940C37882320
:103A6C0011F080E09CC00E94964F0E940C3781118F
:103A7C00F8CF64E10E94C2540E94E94497FFF9CF49
:103A8C006CEB77E082E090E00E94E94460FF0BC0B1
:103A9C00BB20F9F02DE735ED4CE15CE30E94BC5303
:103AAC000E943E3D1FC000ED17E00150110980F34C
:103ABC000E94AD530E94CC486CE070E0CB010E9498
:103ACC00E9446E39704D8D4A904179F7012B01F71D
:103ADC00C8CFFF2039F090E8C92EDD24D394E12C17
:103AEC00F12C04C0C12CD12C7601D394A3019201EA
:103AFC000E94B7530E943E3D0E943E260E94AC4E4F
:103B0C0010F06894C1F8A701960160EA74E180E0B6
:103B1C0090E00E943E3D0E942E5460EA74E180E0E9
:103B2C0090E00E94D64B811107C089819A81AB81AC
:103B3C00BC810E94CC5239F721E63FE242E55FEEB0
:103B4C006CE070E0CB010E943E3D01ED17E00150AE
:103B5C00110909F486CF62E00E94D2540E94CC482D
:103B6C00B11013C00E94B7530E94E94466337642E9
:103B7C008345924061F720E030E0A9010E94B753E1
:103B8C000E943E3D0E9451480AC00E94BC530E94B4
:103B9C00E944633C714C8D45974DC9F681E0249600
:103BAC00CDBFDEBFDF91CF911F910F91FF90EF90B2
:103BBC00DF90CF90BF907F906F905F904F90089563
:103BCC002F923F924F925F926F927F928F929F9221
:103BDC00AF92BF92CF92DF92EF92FF920F931F930F
:103BEC00CF93DF93CDB7DEB7CE53D140CDBFDEBF81
:103BFC008E01035D1E4F20E1D8011D922A95E9F735
:103C0C00FE01E753FF4FC35C0E946654CD53D14075
:103C1C0024E611922A95E9F70E945A54390128ECAE
:103C2C00D3011D922A95E9F708967C0141E050E0FA
:103C3C00B8010E9412426801BFEFCB1ADB0A41E0C7
:103C4C0050E0B601C7010E9412424801E5E08E0E19
:103C5C00911CD6018D916D0187FF0AC0A815B9057D
:103C6C0039F041E050E0B601C7010E941242F1CF99
:103C7C00F801212C312C2101812C912C540183949D
:103C8C00D180AD2DAF77B0E0A50194010E94FE4D1F
:103C9C00260E371E481E591E87E0880C991CAA1C3C
:103CAC00BB1C8A95D1F7D7FE02C03196E9CF42E012
:103CBC0050E0B8016B5F7F4FC7010E94124229ECA4
:103CCC0030E02C0F3D1FF80127833087458156814A
:103CDC000E948654B901C7010E941242D8010E9469
:103CEC00EA520E948E544EEF5FEF6FEF7FEF481B4E
:103CFC00590B61097109420D531D641D751D1C96EC
:103D0C006D927C921D97B301C7010E9412420E94D2
:103D1C005353FC01892B51F0D8011C966D917C9169
:103D2C001D9717968D919C9118970995C7010E9424
:103D3C00615083E0C25CDE4FCDBFDEBFDF91CF911F
:103D4C001F910F91FF90EF90DF90CF90BF90AF90AD
:103D5C009F908F907F906F905F904F903F902F909F
:023D6C000895B8
:103D6E00A8E0B0E0EDEBFEE10C948D488B01FC0178
:103D7E00608171818281938120E831E541E050E0DC
:103D8E000E940B4569017A012CE330E040E050E0DF
:103D9E000E942A4929833A834B835C8389819A81C5
:103DAE00AB81BC81F80160836CE370E00E94904AA5
:103DBE00DC01CB01F801A1838283C601069667E080
:103DCE0070E00E947C4A84832DEA3EE840E050E099
:103DDE00C701B6010E942A4929833A836D837E83E7
:103DEE008F83988789819A8124E6289F6001299F75
:103DFE00D00C11246D817E818F81988525EB35E065
:103E0E0040E050E00E942A4929833A836D837E83E5
:103E1E00E980FA80EE0CFF1CEE0CFF1CEC0CFD1C76
:103E2E008D819E81F5E6EF16F10410F0019604C027
:103E3E0024E6E216F10419F021E030E002C020E0A1
:103E4E0030E0A90144595E4F4817590768F46DE6F2
:103E5E0071E0821B930B0E94904ADC01CB01E80EAD
:103E6E00F91ECD0120E030E044E6E40EF11CF8012D
:103E7E00E682F78280879187255C3F4F82179307F2
:103E8E0048F46FE170E00E94904ADC01CB01F8012A
:103E9E00858322C069E970E0821B930B0E94904AD1
:103EAE00DC01CB01F82EFF0CFF0CF80E6DE370E079
:103EBE00CD010E94904ADC01CB01E82EEE0C6FE1A1
:103ECE0070E0CD010E94904ADC01CB0122E0280F68
:103EDE00F20EFE0CF801F582A383F801128613860A
:0E3EEE0083818F5F83832896E8E00C94EE4872
:103EFC002F923F924F925F926F927F928F929F92EE
:103F0C00AF92BF92CF92DF92EF92FF920F931F93DB
:103F1C00CF93DF93CDB7DEB7A597CDBFDEBF19A288
:103F2C001AA2833010F082EE8CC0823019F460310A
:103F3C007105C8F70115110511F480E082C0211537
:103F4C00310589F328012CA33DA35A011B01F82E3E
:103F5C00AE014F5D5F4F0E946639811172C029A17D
:103F6C003AA1C8018A0D9B1D28173907E0F23501CB
:103F7C0065E0769467946A95E1F720E22BA3C12C57
:103F8C00D12C812C912C84149504B8F68BA1803201
:103F9C00C1F489A19AA1930155E0220F331F5A95C0
:103FAC00E1F7821B930B809760F46401CA0CDB1C55
:103FBC00D694C794D694C79497E0C922DD2424E004
:103FCC002BA3EBA00E9462542C2D462DB1018F2DFA
:103FDC000E94E92B811135C0C30123E0880F991F82
:103FEC002A95E1F78C0D9D1D0E94BD528A159B05EB
:103FFC0020F4B501681B790B02C060E070E02BA1C6
:10400C00822F90E0861B970B8201081919098017E3
:10401C00910708F48C010E94D750A8018CA19DA196
:10402C00880D991D0E94DE4F800E911E9BA190322F
:10403C0021F42FEF621A720AA6CF8FEFC81AD80A92
:10404C00A2CFA596CDBFDEBFDF91CF911F910F916F
:10405C00FF90EF90DF90CF90BF90AF909F908F909C
:0E406C007F906F905F904F903F902F9008953F
:10407A002F923F924F925F926F927F928F929F926E
:10408A00AF92BF92CF92DF92EF92FF920F931F935C
:10409A00CF93DF93EC018B0149015A018C819D81F9
:1040AA00AE81BF8140E4C42ED12CE12CF12CC81A78
:1040BA00D90AEA0AFB0A8C149D04AE04BF0410F460
:1040CA00750164010896A601B8018C0F9D1F0E9414
:1040DA00DE4F8C819D81AE81BF81880D991DAA1DFD
:1040EA00BB1D80349105A105B105B8F48C839D836D
:1040FA00AE83BF83DF91CF911F910F91FF90EF9015
:10410A00DF90CF90BF90AF909F908F907F906F90ED
:10411A005F904F903F902F9008951E0188E0280EDF
:10412A00311C21E030E040E050E0B101CE010E94B4
:10413A0074068C189D08AE08BF082401350186E074
:10414A0076946794579447948A95D1F7B8016C0D81
:10415A007D1DA3019201CE010E947406D301C20102
:10416A000196A11DB11D26E0880F991FAA1FBB1F2A
:10417A002A95D1F7488159816A817B81840F951FDD
:10418A00A61FB71F88839983AA83BB83B501A4019D
:10419A004F735527662777274C835D836E837F830A
:1041AA0036E0440C551C3A95E1F7C40CD51CC801FD
:1041BA008C0D9D1DBC01C101DF91CF911F910F9103
:1041CA00FF90EF90DF90CF90BF90AF909F908F902D
:1041DA007F906F905F904F903F902F900C94DE4F9E
:1041EA005F926F927F928F929F92AF92BF92CF927D
:1041FA00DF92EF92FF920F931F93CF93DF93C0E06A
:10420A006090AC4C7090AD4CA090A64CB090A74C6E
:10421A008AEB882E89E4982E99EBC92E94E4D92E3C
:10422A00F3010995882309F476C0F5010995E0910F
:10423A00B4338D3019F08A3009F05EC0F0E0EC52E8
:10424A00F04D10829091B333911149C091E08A30B8
:10425A0029F42091B2332D3009F490E08093B233DF
:10426A009923E9F1C1113BC060E270E084ED9FE25D
:10427A000E94094E8C01009719F0FC0111928F01DE
:10428A00E4EDFFE201900020E9F73197E45DFF4297
:10429A005E2ECAE9D9E4E880F980B70184ED9FE28D
:1042AA000E94E74FF70101900020E9F73197EE19D4
:1042BA00FF09811109C05E1207C0EA81FB813097AC
:1042CA0019F0C80109950AC024968C169D0619F79B
:1042DA00DF92CF920E9499490F900F90C1E080918E
:1042EA00B333882321F082EA95E40E94643E109257
:1042FA00B4331092B33394CFE43648F491E09E0F6E
:10430A009093B433F0E0EC52F04D808389CF81E092
:10431A008093B33385CF0E949552DF91CF911F913D
:10432A000F91FF90EF90DF90CF90BF90AF909F904A
:0A433A008F907F906F905F900895C0
:10434400A0E0B0E0E8EAF1E20C948948EC01EE81E7
:10435400FF818F0104561109B9F0CF0185569109E7
:104364006C0197FF03C023E0C20ED11CD594C794FF
:10437400D594C7946CE97FEF0E94904AC60ED71E6D
:104384008FEFC81AD80A02C0C12CD12C2DE631E017
:10439400D8010E94A9510D2C000CEE08FF08C60E8E
:1043A400D71EE81EF91E8B81082E000C990B8C0178
:1043B400015011092D8122302CF4222379F1015E60
:1043C4001F4F2CC0CF018459984F0E94A44A282F14
:1043D40030E0255C3F4F200F311F8D81082E000CEB
:1043E400990B02978530910514F027563F4F65E0ED
:1043F40070E00E94904AAC0197FF02C04F5F5F4F8C
:10440400559547959DE3949F8001959F100D112428
:10441400020F131F80FF02C0015E1F4FC801110F5E
:10442400AA0BBB0B9C01AD012C0D3D1D4E1D5F1D48
:1044340060E871E581E090E00E94E64B4B015C018D
:10444400AA810A2E000CBB0B20E13EE00E94A95178
:104454006B017C01A9810A2E000CBB0B2CE330E01C
:104464000E94A951C60ED71EE81EF91E6881862F28
:10447400660F990BAA0BBB0B8C0D9D1DAE1DBF1DAA
:10448400BC01CD01680D791D8A1D9B1DCDB7DEB71A
:06449400ECE00C94EA4884
:10449A00CF93DF93FC018DE1A3E5B1E3ED0119921E
:1044AA008A95E9F7809153318F70806180935331F7
:1044BA0084E0809359319DE490935A3191E5909329
:1044CA005B3194E590935C3190935D3180935E31DA
:1044DA006789708D6115710521F483899489892B07
:1044EA0011F082EC01C082E080935F318585968568
:1044FA000E948E548093603190936131A189B28970
:10450A00A0936431B0936531ED0109900020E9F779
:10451A0021979E012A1B3B0B209362313093633112
:10452A0040915F3146FF0AC0818D928D80936C3134
:10453A0090936D3160936A3170936B3147FF16C067
:10454A0085899689809368319093693163897489E2
:10455A00609366317093673180916A3190916B31C3
:10456A00860F971F0496820F931F01C0C9010C96EC
:10457A0080936E3190936F31407CA1F080916A31C3
:10458A0090916B310E948E5480936A3190936B3173
:10459A0080916631909167310E948E548093663182
:1045AA009093673132272327322720936231309341
:1045BA00633181E08093BF338093BA33DF91CF9127
:0245CA00089552
:1045CC000F931F93CF93DF930E94D23D40E054E0B2
:1045DC008EEDFA01808320E234E0F901108280E450
:1045EC0094E0FC011082C0E6D4E06FE06883A0E8A0
:1045FC00B4E01C9200EA14E079E1F801708370E8F1
:10460C00FA017483F9011482FC0114826C831496F0
:10461C001C921497F8011482FA010E94604FF90160
:10462C000E94604FFC010E94604F188A198A1A8AF6
:10463C001B8A1C8A84E08D8B1E8A1F8A50961C92C2
:10464C00509751961C92519752961C925297539692
:10465C001C92539754961C92549755961C925597AE
:10466C0056961C92569757961C92F801108A88E021
:10467C00818B9BE0928B138A148A858B868B178A8D
:10468C00E0EEF5E011821082148215821382128200
:10469C008AE395E580939433909395338BE395E57A
:1046AC0080939233909393338CE395E5809390337E
:1046BC00909391338DE395E580938E3390938F3364
:1046CC008EE395E580938C3390938D338FE395E552
:1046DC0080938A3390938B3389E395E58093883369
:0E46EC0090938933DF91CF911F910F91089524
:1046FA00CF92DF92EF92FF92CF93DF93CDB7DEB7DF
:10470A00C057D109CDBFDEBF69017A01863029F1D0
:10471A00873009F434C0813009F075C020E70E945F
:10472A007F510E94A03981116EC0E091A433F091AB
:10473A00A533309709F467C080E7C80ED11CE11C85
:10474A00F11CC0926233D0926333E0926433F092E8
:10475A0065330E94465481E055C00E94B9500E94B8
:10476A00A039811150C0E091A433F091A53330975C
:10477A0009F449C0BE016F5F7F4F86E043C028E05D
:10478A000E947F510E94A039882351F0E091A433FE
:10479A00F091A5333097B9F16CEC73E387E032C03E
:1047AA004D815E812F813885EB81FC8189819A81D7
:1047BA004115510519F461E06093CC33420F531F40
:1047CA009C01332721303105C9F048F022303105E8
:1047DA0099F06091CC332330310531F00AC0209131
:1047EA00CC33213059F408C0623041F0643021F4EE
:1047FA0005C0623019F084E08093CC33E417F507E2
:10480A0011F4C4CF0995C059DF4FCDBFDEBFDF9188
:0C481A00CF91FF90EF90DF90CF900895B9
:10482600CF93DF93CDB7DEB72897CDBFDEBF0E940B
:104836007151882309F47CC0AE014B5F5F4F0E9423
:10484600A8530E94D64B882311F084EF76C00E94AD
:10485600FD5380FFFACF9C01AD012E7F2D833E8351
:104866004F8358870E94A8530E943E3D8111EDCF89
:104876000E94FD5322E0B695A795979587952A95B0
:10488600D1F79F708093A2339093A333892B09F4B9
:1048960051C04AE553E30E9402540E94D64B81114F
:1048A600D4CF60915A3370915B3380915C33909191
:1048B6005D330E9466520E94D92F8111C6CF6B814B
:1048C6007C818091A2339091A333861B970B059729
:1048D60098F5E9818FEF8E0F873008F0B6CF80917B
:1048E6005A3390915B33A0915C33B0915D339C0158
:1048F600AD01285F3F4F4F4F5F4F685071090E94CF
:104906003A54EA53F34B0E9456548A81099581E042
:104916000E946D4922E00E94D6540E94A8530E942C
:104926000C3780E00E946D490E94085581118DCF99
:1049360080E003C08EEF01C08AEF2896CDBFDEBFB0
:06494600DF91CF910895FE
:10494C008F929F92AF92BF92CF92DF92EF92FF9293
:10495C000F931F93CF93DF93EC018B014C815D81FF
:10496C006E817F81C880D980EA80FB800E941753BA
:10497C00C882D982EA82FB8283E00E940052E9F766
:10498C000E94A64D2FE382220E94334F8C839D837D
:10499C00AE83BF83FE010E94904D8C0F9D1F0E9421
:1049AC00B0518C819D81AE81BF810E949B4DFE01D7
:1049BC00E40FF51FF0860E940151FE01E40FF51F74
:1049CC00E0860E94FA50FE01E40FF51FD0860E948B
:1049DC00F3504C835D836E837F830796A11DB11DBD
:1049EC00FE01E80FF91FC0869A01AB0196E05695BF
:1049FC004795379527959A95D1F7BE01685F7F4FFC
:104A0C00CE010E947406C801FE01E857FF4FC8553D
:104A1C00DF4F9C012C5F3F4FD90140814E930E9488
:104A2C00E953452F562F672F772740835183628395
:104A3C007383A817B90789F73496C901EC17FD07DA
:104A4C0041F7DF91CF911F910F91FF90EF90DF9085
:0C4A5C00CF90BF90AF909F908F90089576
:104A6800AF92BF92CF92DF92EF92FF921F93CF93B4
:104A7800DF93CDB7DEB7CC56D109CDBFDEBF182F37
:104A880069017A0188EBA82E80E3B82EF5018081B0
:104A98008E3399F181132DC0D50111962D913C913A
:104AA80012972115310539F4E091A633F091A73317
:104AB800309759F422C0AE014F5F5F4FC701B6016E
:104AC8000E94A039811143C0EFCFD5010E94C15384
:104AD800892B51F0113129F41092CD3389818093BB
:104AE800CF330E94325402C060E070E0812F0995F4
:104AF80004C0B3E0AB0EB11CC9CF103241F528E0B9
:104B080030E0AE014B595F4FC701B6010E94A03992
:104B180081111DC0AB962EAD3FADAB97A7964EAD9C
:104B28005FADA797C701B601685F7F4F8F4F9F4F53
:104B38000E94A03981110BC0E091A633F091A733F0
:104B4800309729F0BE016B597F4F80E20995C4590F
:104B5800DF4FCDBFDEBFDF91CF911F91FF90EF9068
:0A4B6800DF90CF90BF90AF9008954A
:104B7200EF92FF921F93CF93DF9300D000D0CDB777
:104B8200DEB7029709F06EC0613009F51091D1339A
:104B920027E03BE087E0E82EF12C812F90E0389F60
:104BA200F001399FF00D1124E55AF04D0196B7013D
:104BB2000E94904A9085911103C08093D13327C0FF
:104BC2002150182F51F78093D1331FEF20C062304C
:104BD20009F048C01091D03324E08BE0189FF00117
:104BE2001124E855F04D812F90E0019683709927AA
:104BF2003085311104C08093D033195F06C0215033
:104C0200182F59F78093D0331FEF309761F18BE063
:104C1200DF011D928A95E9F781E080878091AE33AA
:104C22009091AF339C012F5F3F4F29F02093AE3319
:104C32003093AF3305C002968093AE339093AF3377
:104C42008091AE339091AF338483958340FF0BC044
:104C5200198381E281870E946C5260E582E00E94A2
:104C6200EE4901C01FEF812F2496CDBFDEBFDF9139
:0A4C7200CF911F91FF90EF9008957D
:104C7C00CF92DF92EF92FF92CF93DF9300D000D0D0
:104C8C00CDB7DEB7C0905E33D0905F33E090603329
:104C9C00F09061330E94A35309F062C0AE014F5FE4
:104CAC005F4F64EF73E180E090E00E94D64B81117E
:104CBC0057C04EE553E360E00E94C2540E94D64BAD
:104CCC0081114EC080915E3390915F33A09160331F
:104CDC00B0916133803A22E0920720E1A207B1053E
:104CEC0041F40E94C15041F181EA92E0A0E1B0E0B0
:104CFC001BC0803B9240A041B105F1F489819A819F
:104D0C00AB81BC8183309105A105B105A9F0049755
:104D1C00A105B10529F481EB92E0A0E1B0E004C05B
:104D2C0082EB92E0A0E1B0E080935E3390935F332E
:104D3C00A0936033B0936133C0905E33D0905F33F7
:104D4C00E0906033F090613380EFE82225E0E22AB6
:104D5C00C0925E33D0925F33E0926033F092613355
:104D6C00C701B6012496CDBFDEBFDF91CF91FF9076
:084D7C00EF90DF90CF90089545
:104D8400CF93DF93FC0180E1AFEFB1E3ED01199222
:104D94008A95E9F78091BA33833009F06AC090911B
:104DA400FF319F7090639093FF31808183FB88274C
:104DB40080F980FB93F99093FF3180818670997F0D
:104DC400982B9093FF31892F8E70883019F4977F38
:104DD4009093FF3190818091FF3190FB80F9809313
:104DE400FF31878190858093063290930732A781A3
:104DF400B085ED0109900020E9F72197CE018A1BC7
:104E04009B0B809304329093053220812695237066
:104E140061F021852093083222852093093222E013
:104E240030E020930D3230930E3224853585209363
:104E34000B3230930C32438540930A3220910D3269
:104E440030910E322E5F3F4F240F311D280F391F32
:104E540020930D3230930E320E948E54809304328C
:104E6400909305328091BF3384608093BF3381E097
:0A4E740001C080E0DF91CF910895A6
:104E7E00AF92BF92CF92DF92EF92FF920F931F935A
:104E8E00CF93DF93CDB7DEB7CC59D109CDBFDEBFFF
:104E9E004115510509F453C07A019B018E01035946
:104EAE001F4F4CE650E062E00E94862B182F8111B6
:104EBE0047C0CE0101965C018CE6F50111928A95F0
:104ECE00E9F7F70160817181828193816115710526
:104EDE00B9F0892BA1F580E4898340E2CE010296D8
:104EEE000E94F243811111EF498150E0F701608178
:104EFE007181CE0102960E94DE4F112371F020C007
:104F0E000097E9F0F70144814134C8F4498350E039
:104F1E00BC01CE0102960E94DE4F80E3C82ED12C3A
:104F2E009CE6E92EF12C850120E330E0AE014359D9
:104F3E005F4F6BEB81E00E94241C182F01C011EF14
:104F4E00812FC456DF4FCDBFDEBFDF91CF911F91B2
:104F5E000F91FF90EF90DF90CF90BF90AF9008959C
:104F6E00CF92DF92EF920F93CF93DF93CDB7DEB751
:104F7E002B97CDBFDEBF6C01F90119821A828B838C
:104F8E009C836D830E83E11002C082E001C080E03D
:104F9E006132D0F04230E1F040F4413009F04DC0C2
:104FAE000E9432540E94A44449C0433079F14430E7
:104FBE0009F43FC042C0615048F09601260F311DE2
:104FCE00D9012C912111F7CF962FF5CF9D83E2CFEA
:104FDE00309799F11F82188619861A861B86DF0173
:104FEE000D900020E9F71197AE1BBF0BA034B10551
:104FFE0019F4EF83F88703C0E987FA87AB87AE0110
:10500E00495F0E94B8520E943F2718C03097A9F0FE
:10501E009F012E5F3F4F2F83388791819150998743
:10502E0090819A87AE01495F0E94B8520E94D43097
:10503E0005C0EF2B11F084EF01C081EF2B96CDBF91
:10504E00DEBFDF91CF910F91EF90DF90CF9008955B
:10505E00AF92BF92CF92DF92EF92FF921F93CF93B8
:10506E00DF9300D0CDB7DEB77C016B01DB016D9114
:10507E007C91FC0182810E940433811151C0D601C2
:10508E00ED91FC911197A280B3800E94E0520E9494
:10509E00FC48182F81113EC0F701418150E0B70145
:1050AE00D6010E94E0520E940C52182F811132C07C
:1050BE00B50180E090E00E94144CB6E0EB0EF11CBE
:1050CE0080ECF70111928A95E9F780EC90E08983E4
:1050DE009A83AE014F5F5F4FB701D6010E94E05237
:1050EE000E941252182F811115C089819A81843025
:1050FE00910520F4892B69F417EE0CC0C7010E94AC
:10510E000640182F811106C0C7010E94B840182F03
:10511E0001C016EEF601828193810E94484D812FC7
:10512E000F900F90DF91CF911F91FF90EF90DF9036
:08513E00CF90BF90AF900895DF
:105146009F92AF92BF92CF92DF92EF92FF920F9310
:105156001F93CF93DF93CDB7DEB72897CDBFDEBFC2
:105166005A018901FE01319697E0DF011D929A9559
:10517600E9F797EC99839091C833992319F0DD24C8
:10518600D39442C091E09093C8332130310511F495
:1051960002E010E08A837B836C831E830F8367E0C3
:1051A600CF010E94D949D82E8111E9CF81EF888796
:1051B60093EFC92E22EF922E01151105F1F0780119
:1051C6000130B0E21B0718F0E12C80E2F82E0E1930
:1051D6001F0909F4C88661E070E0CE0108960E94B6
:1051E600CC35882361F2B701C5010E94CC358823EE
:1051F60031F29886AE0CBF1CDFCF83EC0E943340A1
:105206008111BDCF1092C8338D2D2896CDBFDEBF3C
:10521600DF91CF911F910F91FF90EF90DF90CF908C
:08522600BF90AF909F90089526
:10522E000F931F93CF93DF93182F092FEB01EEEF00
:10523E00FAE201900020E9F73197AF014E5F5A4232
:10524E00682F792F8EEF9AE20E94E04C892BB9F5E8
:10525E006BE578E4CE010E94EC47009781F1FC01EA
:10526E008185813399F40E940C5480932733909357
:10527E002833A0932933B0932A3310922B331092F4
:10528E002C3310922D3310922E3312C010922733DE
:10529E00109228331092293310922A330E940C5404
:1052AE0080932B3390932C33A0932D33B0932E33C6
:1052BE0087E293E30E943C1B82E08093D3330F93EB
:1052CE001F9385E698E49F938F931F921F920E94DF
:1052DE003E38DF93CF9383E798E49F938F931F928B
:1052EE001F920E943E388DB79EB70C968DBF9EBF03
:0A52FE00DF91CF911F910F910895E9
:10530800CF92DF92EF92FF920F931F93CF93DF9389
:10531800EC01CE80DF80E884F9840091803310911D
:1053280081331C821D828091523390915333A09116
:105338005433B09155330E94CC5268F40E94F43A29
:105348002FEFE21AF20AC61AD70AE80AF90ACE8239
:10535800DF82E886F986E0E0F0E081E001151105DA
:1053680041F0D80116960E94035319970E943553AD
:1053780018F4813009F505C080E0F8010481158131
:10538800EDCF6FEF7FEF80E090E00E94503F0E94EA
:105398002A52E0918033F0918133B2E3E838FB0779
:1053A80019F40480F581E02DEC83FD83C0938033EC
:1053B800D093813381E007C0848195818C839D835C
:1053C800C483D58380E0DF91CF911F910F91FF9027
:0853D800EF90DF90CF900895E3
:1053E000CF92DF92EF92FF920F931F93CF93DF93B1
:1053F000CDB7DEB76097CDBFDEBF0E94C25209F4C1
:105400004CC06B017C0182E090E089839A838BEB36
:1054100091E00E94F6548B839C83CD82DE82EF82E2
:10542000F8860E94E7548C010E94344E0E94574F28
:10543000811118C0F801E088F18841E050E061E096
:1054400070E082E090E00E944F45D7018C930E946B
:10545000D05087FD07C00E945843009719F021E003
:10546000FC012483D8010E94214F0E94574F8130B4
:10547000A1F40E94D05040E150E0BE016F5F7F4F29
:105480000E948A540E94222EF82E882339F0D801D7
:105490000E94214F0E94874601C0F12C8F2D6096FB
:1054A000CDBFDEBFDF91CF911F910F91FF90EF90A5
:0654B000DF90CF9008958B
:1054B6008F929F92AF92BF92CF92DF92EF92FF921E
:1054C6000F931F93CF93DF93CDB7DEB72697CDBF4C
:1054D600DEBF5C014B0169017A010E94D24C811149
:1054E60002C091E038C0A114B104A1F18114910465
:1054F60089F1A401B501CE0101960E948130811186
:10550600F0CFA701960160EF75E4CE0101960E94E7
:105516004B2C8111E6CFA7019601205F314F4F4FEB
:105526005F4F64EF75E4CE0101960E944B2C81110A
:10553600D8CFA80168EF75E4CE0101960E94C72D69
:105546008111CFCF60E00E943E540E94341A91E050
:10555600811101C090E0892F2696CDBFDEBFDF9175
:10556600CF911F910F91FF90EF90DF90CF90BF905A
:08557600AF909F908F90089503
:10557E00CF92DF92EF92FF920F931F93CF93DF9311
:10558E00CDB7DEB76497CDBFDEBF0E94C34F6B01B0
:10559E007C01672B682B692B09F43DC00E941654C1
:1055AE000E94C7520E945E54C8010E944E361F933D
:1055BE000F938FE996E49F938F930BE41AE21F9358
:1055CE000F930E942D451F930F9385ED99E49F93A2
:1055DE008F938DED99E49F938F9389EE99E49F932A
:1055EE008F9383EA96E49F938F938BE198E29F9338
:1055FE008F930E942D4509EE19E4A701960168ECE0
:10560E0071E08FE798E20E945B2A0E9416540E9476
:10561E00063CCDBFDEBF80910928806180930928AA
:10562E006496CDBFDEBFDF91CF911F910F91FF909A
:08563E00EF90DF90CF9008957A
:10564600EF92FF920F931F93CF93DF93CDB7DEB701
:10565600C258D109CDBFDEBFF82EE92E80E890E012
:10566600CF57DF4F88839983C158D04080E791E3B5
:105676000E94E733882311F081E03AC08BE1EAEB20
:10568600F9E4DE0196960E945254E9F7BE016F5B7B
:105696007F4F80E090E00E94DE508111EDCF9E01A9
:1056A6002F573F4F8E010F5F1F4FA8016BE570E02C
:1056B600CE0186960E942A4F8111DECFCF57DF4F4B
:1056C600E881F981C158D040E00FF11F10821F9385
:1056D6000F938CEF95E49F938F93EF92FF920E9426
:1056E6002D450F900F900F900F900F900F9080E028
:1056F600CE57DF4FCDBFDEBFDF91CF911F910F9108
:06570600FF90EF900895F2
:10570C000F931F93CF93DF93F901D801445D5F4F43
:10571C00309709F450C022813381232B09F44BC0FC
:10572C009481913208F047C0109709F442C090E37D
:10573C00E80119929A95E9F74D935C931197813092
:10574C0049F070F08230B9F50E9442548260129692
:10575C008C9312970E944254816012968C931297EC
:10576C0085818F3F19F081508E3028F513968C93DC
:10577C0013978FEF860F8430F0F4ED018F016CA737
:10578C0084818C83448150E062817381CD010596C4
:10579C000E94DE4FF8010E94365479F081E08DA30F
:1057AC00DE0196960E94565486E00E945254E9F708
:1057BC0004C084EF03C081EF01C080E0DF91CF9182
:0657CC001F910F910895EA
:1057D200AF92BF92CF92DF92EF92FF920F931F93FD
:1057E200CF93DF93CDB7DEB7C95CD109CDBFDEBFA2
:1057F200F82E6801012B09F43DC084E0E81619F087
:1058020080E2E81237C0E0917C33F0917D33A080D2
:10581200B1808E0108531F4F8F2D0E94604081116D
:105822002AC080E2E81203C08F2D8068F82EFC8225
:10583200C853DF4F88819981C85CD0408D839E8395
:105842000E94FE520E943950811115C060917C3332
:1058520070917D33CE0101960E942F2881110BC0D9
:105862004E2D50E0BE01685F7F4FC6010E94DE4FA1
:1058720080E001C082EEC753DF4FCDBFDEBFDF91B4
:10588200CF911F910F91FF90EF90DF90CF90BF903B
:04589200AF90089536
:10589600AF92BF92CF92DF92EF92FF920F931F9338
:1058A600CF93DF93EC01892B09F445C08881998158
:1058B600892B09F440C08A819B81892B09F43BC05E
:1058C6006115710509F437C0A52EB42EC32ED22E4C
:1058D6007B01CE010E943C420E942150AF92BF92B2
:1058E600CF92DF92FF92EF9222E538E43F932F9317
:1058F6001F930F9328813981820F931F9F938F9354
:105906000E94943E6C01092E000CEE08FF082DB78C
:105916003EB7245F3F4F2DBF3EBF1C141D041E041F
:105926001F045CF4A80160E070E00E9435532CF47B
:105936000E94195003C082EE01C081EEDF91CF9123
:105946001F910F91FF90EF90DF90CF90BF90AF9097
:025956000895B2
:1059580010920A2810920B2810920C2810920D28E9
:1059680080910E288D7F886080930E288091092869
:10597800877F8B7F809309280E94D83C6AE97CE462
:105988008BE09DE20E94A84F0E94E0428AE0EFE08F
:10599800F8E2DF011D928A95E9F7CF010E9458537A
:1059A8000E94E754FC018089918980930F28909385
:1059B800102883E195E5809311289093122880910F
:1059C800692A882329F081E09091DF2A911101C08A
:1059D80080E00E94E841882391F082E492E30E94EB
:1059E8002C4A40E157E260E070E08CE492E30E94C8
:1059F8003B3C809109288D7F8860816003C080913D
:0E5A080009288E7F809309280E942A54089551
:105A1600EF92FF920F931F93CF93DF93E82EF62E0C
:105A2600EA010E9458438C01892B09F448C086E09C
:105A3600F81641F18F1520F0A5E0FA1641F03FC0A7
:105A4600B7E0FB16C9F1E9E0FE1659F038C0209719
:105A5600B1F1898187FD0BC083E0D80114968C9340
:105A66002EC0209761F1888199810097D1F48E2DFF
:105A7600EE0C990BDF91CF911F910F91FF90EF9054
