:100000000C946F000C94B1430C940E430C94B143C8
:100010000C94B1430C94B1430C94B1430C94B14390
:100020000C94B1430C94B1430C94B1430C94B14380
:100030000C94B1430C94B1430C94B1430C94B14370
:100040000C94B1430C94B1430C94B1430C94B14360
:100050000C94B1430C94B1430C94B1430C94B14350
:100060000C94B1430C94B1430C94B1430C94B14340
:100070000C94B1430C94F3290C94B1430C9427379E
:100080000C9450370C94AE3F0C94B1430C94B14394
:1000900028002C82802C822CA600879A2CA62CEA81
:1000A000802CEA2D020087BE2D022D15802D152DE6
:1000B000240087D62D242D3C802D3C2D400087E543
:1000C0002D402D52802D522D560087E92D562D6E34
:1000D000802D6E2D6F0037312D6F2D728000112411
:1000E0001FBECFEFCDBFDFE3DEBFE0E9F0E040E0D1
:1000F00017C0B591A59135912591059107FD0CC0CB
:1001000095918591EF01F92FE82F05900D92A21797
:10011000B307D9F7FE0104C01D92A217B307E1F798
:10012000ED3DF40731F70E94B7390C944E41F89435
:02013000FFCFFF
:10013200A8E2B0E0EFE9F0E00C94893C89A39AA32D
:10014200688F798F2A8FFB010190F081E02DED8776
:10015200FE87FB010280F381E02DEB83FC83FB0130
:100162000480F581E02DEC8BFD8BFB010084F18591
:10017200E02DEDA3FEA3FB010680F781E02DE983CC
:10018200FA83FA01408051806280738020E030E07F
:10019200A901C301B2010E94344387FF06C077FA66
:1001A200709477F870948DE204C0FD85F2FF6DC300
:1001B2008BE2E981FA8180832C893D8921503109C2
:1001C2002F83388741E050E04A8B5B8B06C08C89D5
:1001D2009D898F8398871A8A1B8AD301C201BF77B0
:1001E2000097E0E8AE07EFE7BE07C9F42A8D022EBA
:1001F200000C330B2154310989819A814A895B8928
:10020200840F951F2A31310518F466ED74EC02C093
:100212006AED74EC0E945B428AED94EC25C301976F
:10022200A048BF47E8F08A8D082E000C990B815434
:1002320091098B839C8389819A81EA89FB898E0F3C
:100242009F1F2B813C812A31310518F46EED74EC2D
:1002520002C062EE74EC0E945B4282EE94EC04C334
:1002620020E030E0A901C301B2010E943443812C95
:10027200912C20E8A22E2FE3B22E212C312C8823A0
:1002820009F488C049865A866B867C8620E030E075
:1002920040E251E4C501B4010E947F436B017C013D
:1002A200D301C2018C199D09AE09BF09B7FF07C06E
:1002B200B095A095909581959F4FAF4FBF4F0297F4
:1002C200A105B10534F43FEF231A330A4601570161
:1002D200DDCFA3019201C701B6010E94344387FD1D
:1002E200F2CFC984DA84EB84FC84C818D908EA08FE
:1002F200FB084FEFC41AD40AE40AF40A53E0C51605
:10030200D104E104F10408F443C000E010E0A301C9
:100312009201C501B4010E9439431816DCF584ED3F
:1003220028168EEF3806CCF401151105B1F420E041
:1003320030E040E85AE5C301B2010E947F432B013D
:100342003C0120E030E040E85AE5C501B4010E94DA
:100352007F434B015C0101E010E020E030E040E22D
:1003620051E4C501B4010E947B434B015C0191E061
:10037200291A3108D301C20188199909AA09BB09AE
:100382000196A11DB11D0397A105B10508F0BFCFCC
:1003920024013501EA8D0E2E000CFF0BEA8FFB8F34
:1003A200CF010E94534288A32B813C8137FD03C0B9
:1003B20029873A8704C046E050E049875A8758A106
:1003C200573649F48B819C81892B41F4E1E0F0E0BE
:1003D200E987FA8703C048A1498B10C02CEF221687
:1003E2002FEF32060CF456C229853A8522163306BF
:1003F2000CF050C237FE51C256E6598B89859A8558
:10040200019689879A879989963699F437FE08C0AA
:10041200812C912C90E8A92E9FE3B92E212C312C0E
:10042200E8A1E73631F029853A85220D331D298767
:100432003A8788A69FA2AB82BF86730162011E8A99
:100442001F8A8E899F89E985FA858E179F07E4F5B1
:1004520028A53FA14B815F85C701B6010E947B435E
:100462000E9464196C8F7D8F8E8F9F8F0E94A44291
:100472006BA38701760117FB109517F9109528A534
:100482003FA14B815F856C8D7D8D8E8D9F8D0E94EE
:10049200F3166B017C01F7FAF094F7F8F09420E080
:1004A20030E040E251E468A57FA18B819F850E94E4
:1004B2007B4368A77FA38B839F874E895F894F5FAA
:1004C2005F4F4E8B5F8BBDCF20E030E040EA50E4BF
:1004D20068A57FA18B819F850E947F436B837C836C
:1004E2008D839E839B01AC01C701B6010E943443F8
:1004F20087FD0DC02B813C814D815E81C701B60114
:100502000E943443811107C0FBA1F0FD04C01B828D
:100512001C821D821E82A30192016B817C818D81CE
:100522009E810E949E422B013C0120E030E040E28D
:1005320051E4C501B4010E947F436B837F87D82EAB
:10054200C92E9B01482F592FC301B2010E94394382
:1005520087FD11C02FEF221A320A3989363679F413
:1005620049855A854F5F5F4F49875A875B815FA3F1
:100572008F8588A70BC08B829F86DA2CCB2C99891A
:10058200953631F0EB81EFA3FF85F8A7410106C054
:100592002B812FA33F8538A7812C912CAA88BB8859
:1005A200E12CF12C1E8A1F8A1F86188A4D855E85D2
:1005B200407155274BA35CA3EF85F88929853A85BD
:1005C200E217F30734F04E895F89452B09F4A0C086
:1005D200ACC08501E88DF98D808591850597A816B7
:1005E200B90688F72FA138A54D2D5C2DC301B201A4
:1005F2000E947B430E9464196C8F7D8F8E8F9F8F28
:100602000E94A4426A30710514F069E070E08BA187
:100612009CA1892B69F46115710551F498A1973653
:1006220039F497FE05C0F7013196EB83FC8341C094
:100632002E893F89232BA1F497FE12C03FEFA31A04
:10064200B30AE981FA81E00FF11F4EE240838F8104
:10065200988501978F839887E1E0F0E0EE8BFF8B1E
:10066200E981FA81EA0DFB1DEB82FC828B819C8180
:10067200892B49F020E321934B815C814150510940
:100682004B835C83F3CFC7018A0D9B1D2F81388575
:100692002E193F095C01EFEFAE1ABE0AE981FA8119
:1006A200E80FF91F605D6083A901415051094F8332
:1006B20058878301720117FB109517F910952FA126
:1006C20038A54D2D5C2D6C8D7D8D8E8D9F8D0E945C
:1006D200F3162B013C0177FA709477F8709420E0BE
:1006E20030E040E251E46FA178A58D2D9C2D0E944F
:1006F2007B436FA378A7D82EC92E51E0851A9108A3
:100702008F85988901968F87988BEB80FC8054CFD8
:10071200FD85F4FF0AC0E981FA81EA0DFB1D8EE234
:10072200808395012F5F3F4F590149815A814A0DBC
:100732005B1D4B835C83FA011082F989F53609F05F
:1007420060C0E981FA812DA13EA1E20FF31F31972A
:10075200108237FE06C031942194310801E010E086
:1007620002C000E010E0EDA1FEA1319749815A815B
:10077200E40FF51F22E030E08AE0E82EF12CCF01F1
:1007820049815A81841B950B2114310479F0C101EE
:10079200B7010E942C3E805D82931B0121503109DA
:1007A2008F81988501978F839887E9CF1216130658
:1007B20074F3FC013197E40FF51F012B11F42BE2C6
:1007C20001C02DE22083029769817A81680F791F27
:1007D2002A8D3B8D215431092A31310510F025E64D
:1007E20001C025E4FB0120832F8138852250310985
:1007F2002F833887A816B90624F48B819C810E9426
:100802005B423D8531FF2EC030FD2CC04F815885A3
:10081200141615063CF589819A810E944440E981AB
:10082200FA818E0F9F1F9C0149815A81241B350B2F
:10083200EA89FB892E173F074CF0FC012081EF81EA
:10084200F885E80FF91F20830197EDCF4F81588576
:1008520060E370E089819A818E0F9F1F0E940A4295
:100862001C8A1D8A89819A810E9444400D851E85B9
:100872002C893D89AC0169817A8189A19AA10E9462
:10088200B631A896E2E10C94023D5D8553FF9FCC00
:1008920080E28FCC35E6398BCCCD46E6498BC9CD8B
:1008A200A0E2B0E0E7E5F4E00C94893C888F998FF0
:1008B200FB01298320812F8331813A8F82819381A9
:1008C200888B998B248135812C873D878085918502
:1008D2008B8F9C8F66807780FA01C080D180E28006
:1008E200F38020E030E0A901C701B6010E94344341
:1008F20087FF06C0F7FAF094F7F8F0948DE204C08F
:100902005F8152FFE1C28BE2F30180832C853D853A
:10091200215031092E873F8741E050E04D835E83AD
:1009220006C08C859D858E879F871D821E82B7019A
:10093200A6017F77E9810E2E000CFF0BEA87FB8769
:1009420041155105F0E86F07FFE77F07A9F42A85F3
:100952003B85215431098D819E81860D971D2A3157
:10096200310518F466EC74EC02C06AEC74EC0E9477
:100972005B428AEC94EC98C28D819E81860D971D14
:100982004130510560487F4788F02A853B852154D4
:1009920031092A31310518F46EEC74EC02C062EDB3
:1009A20074EC0E945B4282ED94EC7EC220E3FC0177
:1009B2002083ED81FE813196E60DF71D2D813E816A
:1009C2002E5F3F4F2D833E834A855B8541545109FB
:1009D2004E8B5F8B4A31510510F088E701C088E5E4
:1009E200808320E030E0A901C701B6010E943443B0
:1009F2001B821C821F8E1982882309F469C050E869
:100A020058A38FE38A832F8D398148A15A816F8D34
:100A1200798188A19A810E949E425B018C01A70183
:100A220096010E94394318160CF447C0EB81FC81F1
:100A32003196EB83FC83AF8EB98208A31A83E3CF8E
:100A420020E030E040E05FE36F8D798188A19A81F8
:100A52000E947F4320E030E0A9010E9434438111CB
:100A620018C020E030E040E85AE56F8D798188A116
:100A72009A810E947F436F8F798388A39A8320E0B3
:100A820030E040E85AE5C701B6010E947F436B019E
:100A92007C0120E030E040E05FE36F8D798188A146
:100AA2009A810E947F436F8F798388A39A832B81D7
:100AB2003C81215031092B833C832F8D398148A100
:100AC2005A81C701B6010E94344387FDB9CF04C0E1
:100AD20030E838A34FE34A838889998997FF02C097
:100AE20088E190E0FC013196E887F9878F8C998044
:100AF200A8A0BA8016018701412C512C9401A501AE
:100B0200B101C8010E947B430E9464196A8B7B8BEE
:100B12008C8B9D8B9401A5010E947F439B01AC01AC
:100B2200B101C8010E949D421B018C0120E030E00E
:100B320040E85DE3B401C5010E947F434B015C01C3
:100B4200FFEF4F1A5F0A2889398937FF09C020E071
:100B520030E0A901B101C8010E943443882331F079
:100B620048855985441655064CF202C04886598676
:100B720020E030E040E051E4B401C5010E947F432F
:100B82004B015C019B01AC01B101C8010E943443DD
:100B920087FD12C0A5019401B101C8010E9434432E
:100BA20081110DC06A897B898C899D890E94A4422A
:100BB20061707727672B19F4812C912C5401A501C0
:100BC2009401C701B6010E949E426B017C01DC01C7
:100BD200CB01BF770097A048BF4709F4B8CE2E8457
:100BE2003F8482E0281A3108E885F985F195E1957C
:100BF200F109EA8BFB8B0D811E81412C512C1E8643
:100C02001F86188619862B8D3C8D255031092D8F14
:100C12003E8F0A871B87ED8DFE8D0E171F0708F08A
:100C220093C02F8D398148A15A81C701B6010E9414
:100C32007B430E9464194B015C010E94A442AB01F8
:100C42006115710541F4E885F985EF2B21F0FFEF7D
:100C52004F1A5F0A4FC02E853F85232B99F4E885F2
:100C6200F985EF2B79F00F5F1F4FEA85FB85E60DC3
:100C7200F71D2EE2208331E0231A3108E1E0F0E093
:100C8200EE87FF87F301E00FF11F92012115310575
:100C920029F0A0E3A19321503109F8CFF801E40D26
:100CA200F51DEA87FB87241835084A3051051CF4E4
:100CB200605D7F4F02C0695A7F4F2E893F892A317A
:100CC200310550F4CB018062815691094A9720F494
:100CD200CB010E940142BC010A851B850F5F1F4F99
:100CE200EA85FB85E60DF71D608331E0231A3108A2
:100CF200412C512C2F8D398148A15A81C501B40153
:100D02000E947F439B01AC01C701B6010E949D4234
:100D12006B017C0120E030E040E85DE36F8D79817A
:100D220088A19A810E947F436F8F798388A39A83D7
:100D32004885598541505109488759878A899B8935
:100D42008417950709F065CF2E853F85232B49F53A
:100D5200F301E00FF11F41145104E1F04889598970
:100D620014161506BCF45F8150FD14C08EE2808318
:100D7200F8013196E60DF71DC20120E32193019798
:100D8200E9F7040D151D0F5F1F4F40945094240C7A
:100D9200351C07C08F8184FF04C08EE280830F5F01
:100DA2001F4FF301E00FF11FE887F9871082EB8DE7
:100DB200FC8D3197E60DF71D10822B813C8137FFA8
:100DC20009C03195219531092B833C83EE24E394AC
:100DD200F12C02C0E12CF12C21E030E08AE0C82E97
:100DE200D12CCF01861997094B815C81452B79F073
:100DF2008B819C81B6010E942C3E805D82936B8325
:100E02007C832150310941E0241A3108EACF213094
:100E1200310571F3FC013197E60DF71DE114F10480
:100E220011F42BE201C02DE220830297B301680F77
:100E3200791FEE89FF897A9710F020E701C020E53B
:100E4200FB0120830817190724F4888599850E94DD
:100E52005B42FF81F1FF27C0F0FD25C022E0221A8C
:100E6200310812141304FCF4C3010E944440860D9D
:100E7200971D9C01261937094D815E81241735077C
:100E82003CF0FC012081E20DF31D20830197F1CF9C
:100E9200A10160E370E08D819E81860D971D0E9405
:100EA2000A421C861D86C3010E9444400F811A8D8E
:100EB2002C853D85AC01B301888D998D0E94B63198
:100EC200A096E2E10C94023D5F8153FF2ACD80E2BD
:020ED2001BCD36
:100ED400AF92BF92CF92DF92EF92FF920F931F9344
:100EE400CF93DF9300D0CDB7DEB7F82E0091462D17
:100EF4001091472D00381105A8F082E090E00E947F
:100F040022361092462D1092472D8F2D0E946F414C
:100F1400882321F081E08093632DEAC183E08093EC
:100F2400632DE6C18091632D8130A9F038F08230C1
:100F340009F421C1833009F490C198C11092462D5F
:100F44001092472D81E08093632D8F2D0E946F4175
:100F5400882361F0CDC18F2D0E946F41882309F44D
:100F640089C10115110509F090C1C2C181E090E069
:100F74008093462D9093472DF092022CB9C10F2EE9
:100F8400F6EEEF2EF8EAFF2EF02D00E010E06801F7
:100F9400AE014F5F5F4F62E07CE2D7018D919C917F
:100FA4000E946D2D882381F0C601880F991F880F38
:100FB400991F8C0D9D1D8A5197458093442D9093C4
:100FC400452D0B1548F07CC10F5F1F4FB5E0EB0EAC
:100FD400F11C0B15E0F270C11092622D09811A8187
:100FE400F80180818D3309F06FC181810E946F41C6
:100FF40081116AC10F5F1F4F81E89CE2D82ED01A7D
:101004000093CA2C1093CB2CDD2009F459C1E12C98
:101014005801D8018C910E94BB3BF82EF8018193B2
:101024008F010E946F41882359F0EE2009F448C1D2
:10103400D5011C928091622D8F5F8093622D44C1F3
:10104400BCE2FB1212C0EE2009F43AC1F801319758
:101054001082E091622DEF5FE093622DF0E0EE0FDD
:10106400FF1FE653F34D00831183E394DE1409F468
:1010740027C18091622D8F3058F222C1E091622DF8
:10108400EE23B1F1F0E0EE0FFF1FE853F34D40E023
:1010940050E0BE016F5F7F4F808191810E94734356
:1010A40060934A2D70934B2D6130744068F080E05A
:1010B40094E080934A2D90934B2D84E090E00E941D
:1010C40022361092632D14C1E981FA818081811145
:1010D40008C081E790EB0E94A23C82E08093632DDC
:1010E40007C184E090E00E9422361092632D00C173
:1010F40081E090E00E9422361092632DF9C00280B4
:10110400F381E02D28E43DE242E058E26AEC7CE21F
:101114008091622D09956C018091482D9091492D03
:10112400892B19F180914C2D90914D2D892BE9F04B
:101134000F2EF2E0EF2EF8E2FF2EF02D00E010E08B
:10114400E0914C2DF0914D2DD7018D917D010995A4
:101154000F5F1F4F8091482D9091492D0817190753
:1011640078F383E790EB0E94A23CC6010E942236EA
:101174001092632DBDC00091482D1091492D011589
:10118400110539F48F2D0E946F41882309F4A8C0FA
:10119400AFC080914A2D90914B2D0817190758F430
:1011A400C80101968093482D9093492DF801EE5F74
:1011B400F74DF0829DC08F2D0E946F41882309F462
:1011C40044C083E790EB0E94A23CE091442DF0914F
:1011D400452D0280F381E02D28E43DE242E058E20F
:1011E4006AEC7CE28091622D09956C018091482D16
:1011F4009091492D892BF9F080914C2D90914D2D92
:10120400892BC9F00F2EF2E0EF2EF8E2FF2EF02D1D
:1012140000E010E0E0914C2DF0914D2DD7018D911F
:101224007D0109950F5F1F4F8091482D9091492DA5
:101234000817190778F383E790EB0E94A23CC601D4
:101244000E9422361092632D53C084E090E00E94E5
:10125400223683E08093632D4BC08F2D0E946F4113
:10126400882309F445C01092632D42C083E0809323
:10127400632D3EC0C80101968093462D9093472D5F
:10128400F801EE5FF34DF08233C0C80101968093FC
:10129400462D9093472DF801EE5FF34DF08283E7DE
:1012A40090EB0E94A23C82E09CE289839A830E9494
:1012B400B343B82E811163CECC24C394D12C55CF23
:1012C400CC24C394D12C51CF1092482D1092492D87
:1012D400E091442DF091452D84818111CFCE0FCF23
:1012E40080914A2D90914B2D892B09F4AECF58CF84
:1012F4000F900F90DF91CF911F910F91FF90EF907E
:0A130400DF90CF90BF90AF900895E6
:10130E00A2E1B0E0EDE8F9E00C948C3C4C016B01ED
:10131E0019821A828FEF9FEF8B839C831D821E8210
:10132E004F83588729873A87A12CB12CD6016D900F
:10133E007C90F301EA0DFB1D808181110FC0D60157
:10134E00ED93FC938081853209F0D9C13F01BFEF47
:10135E006B1A7B0AF6016082718219C0853279F3AD
:10136E00B401082E000C990B0E94AA294FEFA41A63
:10137E00B40ADCCF8C32ACF08D32F9F489819A81CB
:10138E00816089839A833196D601ED93FC93D601C1
:10139E00ED91FC9180818B3269F789819A8184600D
:1013AE00F0CF803221F489819A818860EACF83322E
:1013BE0051F489819A818061E4CF803321F489814F
:1013CE009A818260DECFB701C6010E94F4358D830B
:1013DE009E8397FF0BC029813A81B1E02B27298389
:1013EE003A839195819591098D839E8389819A8106
:1013FE0080FF03C08D7F89839A83D601ED91FC9186
:10140E00119780818E3249F43196ED93FC93B7019A
:10141E00C6010E94F4358B839C83C6010E94F93964
:10142E00582ED601ED91FC918081082E000C990B5F
:10143E000E945342893609F443C084F4833609F47A
:10144E0008C134F4853209F42DC18136E1F036C17C
:10145E008436B1F188360CF4DFC030C1803709F420
:10146E009AC03CF48E3609F4C2C08F3609F461C0BE
:10147E0025C1853709F440C0883709F476C0833713
:10148E0009F01CC1F9C0652D70E0A701CE010B96C5
:10149E000E94193A892B09F42CC1D601ED91FC91C9
:1014AE001197CF0101968D939C932081AE01455FDC
:1014BE005F4FBE016F5F7F4FC4010E94510416C182
:1014CE00652D70E0970141E050E0CE010B960E9431
:1014DE007D13892B09F40DC1F6018081918101964E
:1014EE0080839183AE01455F5F4FBE016F5F7F4F7B
:1014FE00C4010E94BE12FAC0652D70E0970140E053
:10150E0050E0CE010B960E947D13892B09F4F1C099
:10151E00D6018D919C91119701968D939C93AE015E
:10152E00455F5F4FBE016F5F7F4FC4010E94AC24C9
:10153E00DDC0652D70E0970140E050E0CE010B96C6
:10154E000E947D13892B09F4D4C0F601808191810C
:10155E00019680839183AE01455F5F4FBE016F5F41
:10156E007F4FC4010E94F120C1C0652D70E097012C
:10157E0040E050E0CE010B960E947D13892B09F4BA
:10158E00B8C0D601ED91FC911197CF0101968D93C4
:10159E009C93208122C0D701ED91FC911197CF0130
:1015AE0002968D939C93008111810B871C871D865B
:1015BE001E861F86188A198A1A8AF60180819181E1
:1015CE000196808391838B859C85892B29F420E05D
:1015DE0030E040E557EC84C028E7AE01455F5F4F31
:1015EE00BE016F5F7F4FC4010E94DC0C7FC0A5015E
:1015FE00400F511F652D70E09701CE010B960E9492
:10160E00471F892B09F475C0D6018D919C911197B6
:10161E0001968D939C9373C0652D70E0A701CE014A
:10162E000B960E94193A892B09F463C0D601ED91ED
:10163E00FC911197CF0101968D939C932081AE0161
:10164E00455F5F4FBE016F5F7F4FC4010E949900DF
:10165E004DC0B0E85B124DC0F601808191810196BC
:10166E0080839183D701ED91FC911197CF01029662
:10167E008D939C93808120C0B0E85B123AC0F60136
:10168E0080819181019680839183D701ED91FC91A8
:10169E001197CF0102968D939C934081518120E04A
:1016AE0030E01EC0B0E85B1224C0F601208131810B
:1016BE002F5F3F4F208331838B870DC085E28B8751
:1016CE00D6016D927C9219821A821D821E828FEF34
:1016DE009FEF8B839C8321E030E0AE01455F5F4F2F
:1016EE00BE016F5F7F4FC4010E94D4368A0D9B1DD1
:1016FE0007C0F60180819181019680839183C50197
:08170E006296EFE00C94053D2A
:10171600A9E0B0E0E1E9FBE00C94893C4C011B0137
:101726005A012B834532510524F441E0A416B10435
:1017360039F486E190E080930028909301284DC00B
:10174600009709F44AC0DC01BC91B887BB2309F4B1
:1017560044C08C01E885E03209F493C08E2FEE0F69
:10176600990B0997059708F48CC028852D3209F046
:101776008EC0D8011196BC91B8870F5F1F4FE1E06C
:10178600E983E885E03309F095C07801FFEFEF1AA9
:10179600FF0AD8011196BC91B887C5018F7E892BA7
:1017A60009F08AC08B2F8F7D8835F9F4F801F28114
:1017B600F8878F2F8062082E000C990B81569109AD
:1017C600CF2EFF0FDD084A9708F46CC0C6010E94B1
:1017D600903E892B09F0D7C04701C12CD12C760148
:1017E6002114310409F049C0DEC0A114B10409F482
:1017F600D3C0870121E029878B81882309F467C03C
:101806009981911169C044244A94542C642C4FE761
:10181600742E1A82C12CD12C7601C5010B2C000C1A
:10182600AA0BBB0B8C839D83AE83BF832885206266
:10183600022E000C330B21563109A8858A2FAA0FD8
:10184600990B2A31310508F04DC00E940142875399
:101856008887E8858E2F0E2E000C990B8A159B051E
:101866000CF448C04A81442309F480C02114310491
:1018760009F499C0998591114801D1018D929C92E4
:1018860092C00F5F1F4FF801F081F88763CFF8858C
:10189600FB3231F4D8011196BC91B8870F5F1F4F08
:1018A60019826FCFC6010E940142875380310CF422
:1018B6008DCF92CF198603C0870141E04987A114D5
:1018C600B10409F099CF5AE0A52EB12C95CF442446
:1018D6004A94542C32019DCF412C512C612C20E886
:1018E600722E97CFC0970A9708F0BCCFB885B05331
:1018F600B887AFCFFA81F1112BC02C813D814E8183
:101906005F81C701B6010E94BE3F2E2FEE0F330B3B
:10191600440B550BDC01CB01820F931FA41FB51F8F
:101926008C159D05AE05BF0540F02B812223A1F045
:10193600481659066A067B0678F482E290E08093A0
:10194600002890930128D301C201E1E0EA8304C094
:10195600D701C601F1E0FA830F5F1F4FF801F0814E
:10196600F88721E029876C017D0160CF8981882372
:1019760009F47CCFF094E094D094C094C11CD11C9F
:10198600E11CF11C73CF780142E0E40EF11C1986CC
:1019960090E1A92EB12C05C081E0898788E0A82EA8
:1019A600B12C870129CFC701B6012996E2E10C9433
:0219B600023DF0
:1019B800A4E1B0E0E2EEFCE00C94893C8F839887C8
:1019C80069837A834B8B5C8B122FDB011296ED9126
:1019D800FC91139714962D913C9115972D833E8376
:1019E800CD90DC90119716962D903C901797F7FDA7
:1019F80003C0E894C1F802C0E1E0F0E0C6018071DC
:101A0800992789879A87C4FE1FC0AB89BC892C9106
:101A180011963C91119712964C91129713965C91DE
:101A2800139714966C91149715967C9115971696A2
:101A38008C91169717969C91A0E00E94DE4021F0A9
:101A48008D819E81029702C08D819E8196012870AA
:101A580033272B873C87C3FC0197AB89BC894C9003
:101A680011965C90119712966C90129713967C9031
:101A7800139714968C90149715969C901597169614
:101A8800AC9016971796BC90A981BA811896ED90DC
:101A9800FC901997B1E0EB1AF108D101AE0DBF1D0A
:101AA8001C928B839C839F01281B390B2D873E87B3
:101AB800C601827099278F87988B812F012E000C81
:101AC800990BDC01A154B109A98BBA8B32E0E3165A
:101AD800F10430F489859A85892B09F04CC073C0CC
:101AE8009201A301B401C501A0E00E94DE4081F18A
:101AF800B1E0EB1AF108C2018F7099278A3091057D
:101B080014F4C09602C0895A9F4FE989FA897A97D6
:101B180048F49C012062215631092A31310510F41C
:101B28000E940142F101EE0DFF1D80832B813C8153
:101B3800215031092B833C839201A301B401C501D3
:101B480004E00E94F23A29013A014B015C01BECF40
:101B58008D859E85AB81BC818A0F9B1F181619063F
:101B68003CF21A161B060CF0B5CFEF85F889EF2B5F
:101B780009F0BECFAFCFAB89BC892C9111963C91AF
:101B8800119712964C91129713965C91139714968D
:101B98006C91149715967C91159716968C911697BB
:101BA80017969C91A0E00E94DE4069F0F101EE0DCD
:101BB800FF1D31971083B2E0EB1AF108F101EE0D29
:101BC800FF1D80E38083EB85FC85EF2B41F0F1E07E
:101BD800EF1AF108F101EE0DFF1D80E28083A98163
:101BE800BA8118964D915C911997415051094E1937
:101BF8005F09B1016E0D7F1D86012D813E818F81A8
:101C080098850E94B6319C01EF81F8858081918189
:101C180090FF09C0A981BA8112968D919C91139762
:101C2800821793070CF4C9016496E2E10C94023D13
:101C38004F925F926F927F928F929F92AF92BF92D4
:101C4800FF920F931F93CF93DF9300D000D0CDB7AF
:101C5800DEB7F82EB62E29013A0120E030E0A901BE
:101C68006CE070E0CB010E942B2D20E030E0A90150
:101C78006CE870E180E090E00E942B2D20E030E0DD
:101C8800A9016CEA77E082E090E00E942B2D21E028
:101C980030E040E050E068E171E180E090E00E94CF
:101CA800992B8111BFC020E034E040E050E060E0B3
:101CB80074E180E090E00E94992B8111B5C064E145
:101CC80070E180E090E00E94A1379923C4F76CEBA3
:101CD80077E082E090E00E94A13760FD19C00FEC28
:101CE80017E061E070E080E090E00E949F3B6CE0CC
:101CF80070E0CB010E94A1376E39704D8D4A90413A
:101D080021F00150110968F703C0012B09F48EC0B6
:101D1800FF2079F02DE735ED4CE15CE36CEA77E0E4
:101D280082E090E00E942B2D812C912C54019394F9
:101D38000DC0BB2039F0812C912C5401689487F890
:101D4800939404C0812C912C54019394A301920183
:101D58006CE870E180E090E00E942B2D0E942D1825
:101D6800DC01CB019F70AA27BB27803A9340A105CD
:101D7800B10510F0689481F8A501940160EA74E156
:101D880080E090E00E942B2DAE014F5F5F4F60EA2C
:101D980074E180E090E00E94263F811109C08981AA
:101DA8009A81AB81BC8188169906AA06BB0621F7E1
:101DB80021E63FE242E55FEE6CE070E0CB010E9475
:101DC8002B2D00ED17E062E070E080E090E00E94CB
:101DD8009F3BF11017C06CE870E180E090E00E9432
:101DE800A1376633764283459240B9F420E030E06B
:101DF800A9016CE870E180E090E00E942B2D0E9420
:101E0800B43A17C06CEA77E082E090E00E94A1370C
:101E1800633C714C8D45974D59F00150110999F665
:101E280080E007C080E005C080E003C080E001C01A
:101E380081E02496CDBFDEBFDF91CF911F910F9136
:101E4800FF90BF90AF909F908F907F906F905F9022
:041E58004F9008950A
:101E5C00BF92CF92DF92EF92FF920F931F93CF938B
:101E6C00DF93CDB7DEB72597CDBFDEBF6B017C010D
:101E7C00890160E070E08DE090E00E94F719B82EC7
:101E8C008111C8C00E94A8267C2D6627552744279F
:101E9C008F2D9927AA27BB27842B952BA62BB72BE5
:101EAC008260B701A601442766277727762F652F16
:101EBC00542F4427842B952BA62BB72BCC24DD2415
:101ECC00FF24CD2CDE2CEF2CFF24C82AD92AEA2A99
:101EDC00FB2A20E030E0A90168E072E081E090E0AC
:101EEC000E942B2DA70196016CE072E081E090E03E
:101EFC000E942B2D2FE030E040E050E064E172E0D6
:101F0C0081E090E00E942B2D20E030E04DE050E08D
:101F1C006CE172E081E090E00E942B2DC801A0E002
:101F2C00B0E0BA2FA92F982F88279C01AD01246807
:101F3C0064E072E081E090E00E942B2DAE014E5FD8
:101F4C005F4F68E172E081E090E00E94263F8111D2
:101F5C0008C08A819B81AC81BD810197A105B10527
:101F6C0069F70E94A243CE0101960E941D20CE016A
:101F7C0001960E941D20811103C0898180FDF7CF3D
:101F8C0020E030E0A90168E072E081E090E00E947E
:101F9C002B2D24E030E040E050E06CE072E081E07A
:101FAC0090E00E942B2D21E030E040E050E064E115
:101FBC0072E081E090E00E942B2D20E030E0A9013E
:101FCC006CE172E081E090E00E942B2D21E830E082
:101FDC0040E050E064E072E081E090E00E942B2D44
:101FEC00AE014E5F5F4F68E172E081E090E00E94CD
:101FFC00263F811108C08A819B81AC81BD810197EC
:10200C00A105B10569F70E94A2430E94A24388234F
:10201C0051F005C00F2EF4EFBF2EF02D04C00F2E83
:10202C00F4EFBF2EF02D8B2D2596CDBFDEBFDF91AB
:10203C00CF911F910F91FF90EF90DF90CF90BF90B9
:02204C000895F5
:10204E002F923F924F925F926F927F928F929F92BA
:10205E00AF92BF92CF92DF92EF92FF920F931F93A8
:10206E00CF93DF9300D0CDB7DEB719821A828330BB
:10207E0008F090C0823021F46031710508F08CC0F8
:10208E000115110509F48AC02115310509F488C01E
:10209E00F801E42BF52BE370FF27EF2B09F082C03C
:1020AE00680129015A011B01F82EAE014F5F5F4FE7
:1020BE000E942822811198C029813A81C8018A0D77
:1020CE009B1D2817390708F46FC035017694679465
:1020DE0076946794769467947694679476946794DE
:1020EE008FE1A822BB24B694A794B694A794812C12
:1020FE00912CA114B10409F5C6018819990980978C
:10210E00E0F0F11005C082E06816710409F45EC0BB
:10211E006894EE24E5F88201080D191D20E0462D85
:10212E00B1018F2D0E94E92C81115EC080E2880ED4
:10213E00911C8FEF681A780A27C0F11008C082E050
:10214E006816710421F485E0A816B10479F168943B
:10215E00EE24E2F88201080D191D2A2D462DB1013B
:10216E008F2D0E94E92C81113FC084E0880E911CB6
:10217E008FEFA81AB80A88E0A816B10429F48FEFD9
:10218E00681A780AA12CB12C8C149D0408F4B1CFD6
:10219E0080E02AC082EE28C082EE26C080E024C0F5
:1021AE0082EE22C082EE20C082EE1EC084E0880E37
:1021BE00911C0F2EF6E0AF2EB12CF02DE5CF84E062
:1021CE00880E911C8FEFA81AB80ADECF6894EE2401
:1021DE00E2F88201080D191D2A2D462DB1018F2D11
:1021EE000E94E92C882359F30F900F90DF91CF9125
:1021FE001F910F91FF90EF90DF90CF90BF90AF9017
:10220E009F908F907F906F905F904F903F902F9008
:02221E00089521
:102220002F923F924F925F926F927F928F929F92E6
:10223000AF92BF92CF92DF92EF92FF920F931F93D4
:10224000CF93DF93CDB7DEB7A597CDBFDEBF1982A1
:102250001A82833008F0A1C0823021F46031710508
:1022600008F09DC00115110509F49BC02115310529
:1022700009F499C0680119012A016CA37DA38BA3FD
:10228000AE014F5F5F4F0E94282281118FC02981CC
:102290003A81C801840D951D2817390708F485C0B7
:1022A00032017694679476946794769467947694E2
:1022B0006794769467946894FF24F5F8812C912CA8
:1022C000A12CB12C80E2F8121CC089819A81930163
:1022D000220F331F22953295307F3227207F3227FD
:1022E000821B930B809768F442018A0C9B1C969486
:1022F00087949694879497E0892299246894FF2480
:10230000F2F8EF2C8E010D5F1F4F282D462D6CA18A
:102310007DA18BA10E94FD1D811148C0C301880FC2
:10232000991F880F991F880F991F880D991D880F75
:10233000991F880F991F8415950520F4B201681B19
:10234000790B02C060E070E08F2D90E0861B970B48
:1023500086010A191B098017910708F48C0183E094
:1023600090E08C0F9D1F680F791FA801C1018A0D95
:102370009B1D0E946441A00EB11E90E2F91204C0A0
:102380008FEF681A780A03C09FEF891A990AAC1474
:10239000BD0408F497CF80E009C082EE07C082EE4A
:1023A00005C080E003C082EE01C082EEA596CDBFDD
:1023B000DEBFDF91CF911F910F91FF90EF90DF90E3
:1023C000CF90BF90AF909F908F907F906F905F90D5
:0823D0004F903F902F900895FB
:1023D8004F925F926F927F928F929F92AF92BF922D
:1023E800CF92DF92EF92FF92CF93DF93CDB7DEB714
:1023F8002597CDBFDEBF6B017C014B015C01820ECE
:10240800931EA41EB51E681579058A059B0508F05C
:102418008CC00E94A82681118AC0CE0101960E9414
:102428001D20811186C07C2C6624552444248F2DC0
:102438009927AA27BB27482A592A6A2A7B2A6894F7
:1024480045F8D701C6018827AA27BB27BA2FA92F85
:10245800982F8827482A592A6A2A7B2AD701C60131
:1024680088279927BB27892F9A2FAB2FBB27482A64
:10247800592A6A2A7B2A20E030E0A90168E072E044
:1024880081E090E00E942B2DA30192016CE072E0A4
:1024980081E090E00E942B2D2FE030E040E050E0FA
:1024A80064E172E081E090E00E942B2D20E030E0B2
:1024B800A9016CE172E081E090E00E942B2D24E8F4
:1024C80030E040E050E064E072E081E090E00E949B
:1024D8002B2DAE014E5F5F4F68E172E081E090E026
:1024E8000E94263F811108C08A819B81AC81BD81F1
:1024F8000197A105B10569F70E94A243882309F154
:102508001EC0CE0101960E941D20811114C0998120
:1025180090FDF7CF90E1D90EE11CF11CC814D90445
:10252800EA04FB0408F475CF13C080E011C084EFFF
:102538000FC084EF0DC084EF0BC084EF09C084EF97
:1025480007C0CE0101960E941D208111F6CFD9CF78
:102558002596CDBFDEBFDF91CF91FF90EF90DF9042
:10256800CF90BF90AF909F908F907F906F905F902B
:042578004F900895E3
:10257C00ADE0B0E0E4ECF2E10C94893C89879A87F9
:10258C006B837C83FA01DB011296CD90DC90139760
:10259C0014968D919C9115978D839E83ED90FC9054
:1025AC001197E982FA8216960D90BC91A02DAF83FB
:1025BC00B88720803180428053806480758086800B
:1025CC0097808101B42DF52DE62D7B868C869D861A
:1025DC009101A201B301C401A0E00E94DE404CF4C1
:1025EC000E94CE3F8901B42FF52FE62F7B878C8775
:1025FC009D87D7FC04C0E894E1F8E982FA82910146
:10260C00A201B301C401A0E0ED80FE800E94DE4077
:10261C001CF0898182FF04C081E0E81AF10805C032
:10262C0083FF03C091E0E91AF108CE0101965C0129
:10263C008AE0C82ED12C2B2F3F2F4E2F5B856C851B
:10264C007D858B819C810E949C15FC019101A201CE
:10265C00B301C401A0E00E94DE401CF0898182FF1E
:10266C0012C031970F8118850E0F1F1F9101A20107
:10267C00B301C401A0E00E94DE4014F08BE201C063
:10268C008DE2D80108C083FF07C03197AF81B885B0
:10269C00AE0FBF1F80E28C9309811A81AB81BC8184
:1026AC0018964D915C911997415051094E1B5F0B37
:1026BC006F8178856E0F7F1F2D813E8189859A856C
:1026CC000E94B6319C01E985FA858081918190FF49
:1026DC0009C0AB81BC8112968D919C911397821786
:0E26EC0093070CF4C9012D96E2E10C94023D17
:1026FA000F931F93CF93DF93FC01D90168387105BB
:10270A0031F194F461387105B1F12CF46038710536
:10271A0009F478C09FC06238710509F459C0643859
:10272A00710509F46FC096C0603A710509F448C092
:10273A002CF46039710509F44BC08CC0603C7105FA
:10274A0009F476C0603F710509F472C083C0CD9167
:10275A00DC911197CE0102968D939C93452B39F00B
:10276A009881892F880F880B908381835BC0888129
:10277A008083118268C0CD91DC911197CE010496B5
:10278A008D939C93452B99F088819981AA81BB816D
:10279A00AC01BD01770F440B542FBA01808391839A
:1027AA00A283B383448345834683478328C0088131
:1027BA0019812A813B81008311832283338345C097
:1027CA00CD91DC911197CE0102968D939C9323C0F3
:1027DA00CD91DC911197CE0108968D939C937881C7
:1027EA0069815A814B813C812D819E818F817083C1
:1027FA00618352834383348325839683878381E06D
:10280A0090E02AC0CD91DC911197CE0102968D936A
:10281A009C93452BA1F099812881892F880F880BD9
:10282A002083918382838383848385838683E6CF0F
:10283A00CD91DC911197CE0102968D939C930881DC
:10284A0019810083118312821382148215821682DF
:10285A001782D5CF80E090E0DF91CF911F910F9141
:02286A000895CF
:10286C008F929F92AF92BF92CF92DF92EF92FF9294
:10287C000F931F93CF93DF930F92CDB7DEB74C011D
:10288C000E9484381092A3086894CC24C1F8DD24EB
:10289C00D2F804E0D6010C930F2EF5E0EF2EF4E005
:1028AC00FF2EF02D18E0F7011083E1E0F4E0108327
:1028BC000F2EF6E0AF2EF4E0BF2EF02DD5010C93C9
:1028CC00008361E070E080E090E00E94DE3FF50163
:1028DC001083D6010C9361E070E080E090E00E94E0
:1028EC00DE3FF701108361E070E080E090E00E9431
:1028FC00DE3F08E010E06894FF24F3F8EF2C0F2E75
:10290C00F5E0CF2EF4E0DF2EF02DD501EC9261E056
:10291C0070E080E090E00E94DE3FF601F08261E022
:10292C0070E080E090E00E94DE3F0150110969F7F1
:10293C0014E0109306041093010461E070E080E051
:10294C0090E00E94DE3F6894EE24E1F8FF24F2F858
:10295C00D7011C9361E070E080E090E00E94DE3FC4
:10296C0088E0F701808381E08093A3080E940E3BEE
:10297C00823089F4C4010E94212C0E940E3B8230CB
:10298C0051F46CE677E080E090E00E94383F0E94C2
:10299C000E3B823061F0198241E050E0BE016F5F66
:1029AC007F4F8091642D0E94CC3880E001C081EF74
:1029BC000F90DF91CF911F910F91FF90EF90DF90CF
:0C29CC00CF90BF90AF909F908F90089527
:1029D8000F931F93CF93DF93CDB7DEB72897CDBF63
:1029E800DEBF182F0E942D18DC01CB019F70AA278B
:1029F800BB27803A9340A105B10508F48BC0AE010E
:102A08004B5F5F4F60E174E180E090E00E94263FF9
:102A1800082F811181C08D819E81AF81B8859F78F3
:102A2800A878B87F9C01AD013061416151602D8368
:102A38003E834F83588760E174E180E090E00E9414
:102A48002B2D20E030E0A90168E072E081E090E001
:102A58000E942B2D112359F02BEA30E040E050E082
:102A68006CE072E081E090E00E942B2D0AC029EB17
:102A780030E040E050E06CE072E081E090E00E94DD
:102A88002B2D21E030E040E050E064E172E081E08D
:102A980090E00E942B2D20E030E0A9016CE172E06B
:102AA80081E090E00E942B2D21E830E040E050E0EA
:102AB80064E072E081E090E00E942B2D0E94A24326
:102AC80081112CC0AE014F5F5F4F68E172E081E079
:102AD80090E00E94263F811108C089819A81AB81CC
:102AE800BC810197A105B10569F78D819E81AF81F0
:102AF800B8859F78A878B87F9C01AD0141602D8387
:102B08003E834F83588760E174E180E090E00E9443
:102B18002B2D05C000E003C004EF01C004EF802F97
:102B28002896CDBFDEBFDF91CF911F910F910895F9
:102B3800A2E1B0E0E2EAF5E10C94893CFC010A8BE1
:102B4800912E822E732E642E552E462E7D83CC8692
:102B5800DA86A886B986268137812E833F83D501F8
:102B68008D919C91228133810084F185E02D3197EC
:102B780037FF02C021E030E04E815F81E40FF51F8E
:102B88001082EB83FC831701A1E0B0E0A983BA832C
:102B9800F901EE19FF09ED87FE879C0122703327A2
:102BA8002F87388B3A85330F330B398BEB81FC81B8
:102BB8002E813F81E21BF30B4B815C814217530747
:102BC80009F44FC02A89392D482D572D662D752DAA
:102BD800842D9D81A0E00E94DE4099F14C854B87B1
:102BE800A42EBA84C988DC2CEC2CFC2C0C2D1C2DB2
:102BF8002A89392D482D572D662D752D842D9D81B7
:102C08000E945240C90129839A83805DAB81BC81AF
:102C18008E93AB83BC83B1E02B1A31082A89392DF6
:102C2800482D572D662D752D842D9D810E94544069
:102C38002A8B932E842E752E662E572E482E9D8312
:102C4800B5CF8D859E85820D931D1816190634F211
:102C58001214130444F48F859889892B09F0BECF88
:102C680002C0E0E0F0E0A981BA81AB2B41F4A8856D
:102C7800B9858D919C9111978F7E8D939C93CF01EF
:082C88006296E2E10C94023DAA
:102C90004F925F926F927F928F929F92AF92BF926C
:102CA000EF92FF920F931F93CF93DF9300D000D04A
:102CB000CDB7DEB77C0148015901742E6624552436
:102CC0004424872F9927AA27BB27482A592A6A2AEA
:102CD0007B2A8BE0482ADB01CA018827AA27BB2769
:102CE000BA2FA92F982F8827482A592A6A2A7B2A7F
:102CF000442755277727452F562F672F7727442AB4
:102D0000552A662A772AA901980168E072E081E0D5
:102D100090E00E942B2DA30192016CE072E081E013
:102D200090E00E942B2D25EA30E040E050E060E189
:102D300072E081E090E00E942B2D2FE130E040E036
:102D400050E064E172E081E090E00E942B2D20E0F1
:102D500030E04DE050E06CE172E081E090E00E94F4
:102D60002B2D25E830E040E050E064E072E081E0A7
:102D700090E00E942B2DAE014F5F5F4F68E172E043
:102D800081E090E00E94263F811108C089819A81EC
:102D9000AB81BC810197A105B10569F70E94A243EF
:102DA000882319F00DC084EF0CC09401A70160E0E6
:102DB00070E08DE090E00E944A23882311F0F3CF69
:102DC00084EF2496CDBFDEBFDF91CF911F910F918D
:102DD000FF90EF90BF90AF909F908F907F906F90FB
:062DE0005F904F90089582
:102DE600A5E1B0E0E9EFF6E10C94893C4701580112
:102DF6000E947F432B013C01A80197010E949E423D
:102E0600162FC72ED82EF92E862F9C2DAD2DBF2D11
:102E160089839A83AB83BC83AA81FB81EC81ED8095
:102E26003E802F8008850D8B5E2F5F71212F3A2FF4
:102E36004F2F60E070E080E090E0211531054105FC
:102E460000E15007610571058105910509F05EC035
:102E56005E2F6E2D732D822D9D8904E30E94F23A1A
:102E66002D873E874F87588B698B7A8B8B8B9C8BF4
:102E76008D859E8597708F3F974009F447C0A301C3
:102E86009201612F7C2D8D2D9F2D0E949D429B01CD
:102E9600AC01C501B4010E9434438823B9F14986C7
:102EA6005A866B867C8629853A854B855C85C50165
:102EB600B4010E949E42B62E872E982EA92E262F4A
:102EC600372F482F592F612F7C2D8D2D9F2D0E9436
:102ED6003443811118C02B2D8B2D982DA92DBA2D79
:102EE60089839A83AB83BC833A814B815C816E2D47
:102EF600732D822D9D89A1E00E94EA40122FC32ED8
:102F0600D42EF52E03C01B2D6401FA2C612F7C2DC7
:0C2F16008D2D9F2D6596E2E10C94023D8C
:102F22000F931F93CF93DF930E94963240E054E0B9
:102F320082EDFA01808320E234E0F901108280E41C
:102F420094E0FC011082C0E6D4E01882A0E8B4E06C
:102F52001C9200EA14E069E1F801608360E8FA017A
:102F62006483F9011482FC0114821C8214961C925F
:102F7200149761E0F8016483FA01108A118A128AB7
:102F8200138A148A68E0658B168A178AF901108AF7
:102F9200118A128A138A148A158A168A178AFC01E0
:102FA200108A118A128A138A148A158A168A178A33
:102FB200188A198A1A8A1B8A1C8A1D8A1E8A1F8AE3
:102FC20050961C92509751961C92519752961C9271
:102FD200529753961C92539754961C925497559617
:102FE2001C92559756961C92569757961C92F8012A
:102FF200108A618B8BE0828B138A148A158A168A57
:10300200178AE0EEF5E01182108214821582138293
:10301200128285EC93E480935E2D90935F2D86EC73
:1030220093E480935C2D90935D2D87EC93E48093E1
:103032005A2D90935B2D88EC93E48093582D9093B6
:10304200592D89EC93E48093562D9093572DDF915F
:08305200CF911F910F91089529
:10305A00CF92DF92EF92FF92CF93DF9300D000D00E
:10306A00CDB7DEB7C090402DD090412DE090422DD3
:10307A00F090432DC114D104E104F10409F078C0A1
:10308A00AE014F5F5F4F64EF73E180E090E00E9412
:10309A00263F81116DC040E45DE260E070E180E0AE
:1030AA0090E00E94263F811163C08091402D90914B
:1030BA00412DA091422DB091432D803A22E09207F2
:1030CA0020E1A207B105A9F489819A81AB81BC816B
:1030DA000197A105B105C1F181EA92E0A0E1B0E052
:1030EA008093402D9093412DA093422DB093432D70
:1030FA002BC0803B9240A041B10531F589819A816C
:10310A00AB81BC8183309105A105B105E9F0049733
:10311A00A105B10569F481EB92E0A0E1B0E08093EA
:10312A00402D9093412DA093422DB093432D0CC076
:10313A0082EB92E0A0E1B0E08093402D9093412D84
:10314A00A093422DB093432DC090402DD090412D95
:10315A00E090422DF090432D80EFE82225E0E22A0C
:10316A00C092402DD092412DE092422DF092432DF3
:10317A00C701B6012496CDBFDEBFDF91CF91FF9084
:08318A00EF90DF90CF90089553
:10319200AF92BF92CF92DF92EF92FF920F931F9363
:1031A200CF93DF93CDB7DEB72697CDBFDEBF182F03
:1031B2005B016A01790119821A821B821C82B901A0
:1031C200CA010E941A40882309F44FC08FEF810F71
:1031D200823008F04DC0A114B10409F44CC0BE0104
:1031E2006F5F7F4FF501808191810E94473D00977B
:1031F20009F046C0123068F0BE016D5F7F4FF501E5
:10320200828193810E94C937811117C085E090E0C5
:1032120037C069817A81AE014B5F5F4F82E00E94C5
:1032220028222D813E812B833C83882331F090E03C
:103232009160F7011082118238C00B811C81011547
:103242001105E1F021C0A601B5018B819C810E948C
:10325200A52FF7018083918380E090E026C0F701DB
:103262001082118290E0916020C085E090E01DC044
:1032720083E090E005C085E090E002C085E090E048
:10328200F7011082118211C0F701108211825601DA
:10329200A00EB11E69817A81950140E050E082E082
:1032A2000E9410118111DBCFCECF2696CDBFDEBF9B
:1032B200DF91CF911F910F91FF90EF90DF90CF9010
:0632C200BF90AF900895DB
:1032C8004F925F926F927F928F929F92AF92BF922E
:1032D800CF92DF92EF92FF92CF93DF93CDB7DEB715
:1032E8002897CDBFDEBF6B017C01DC01CB0147E134
:1032F800B695A795979587954A95D1F799278F57AA
:103308009109873191059CF597FD36C088248A94E8
:10331800982C3FE7A32EB12C04C0B594A79497949A
:1033280087948A95D2F7D501C4018C219D21AE21BD
:10333800BF21892B8A2B8B2BD1F020E030E040E88D
:103348005BE7C701B6010E949E426D837E838F832F
:103358009887F7FE04C0C80CD91CEA1CFB1C809493
:103368009094A094B094C820D920EA20FB205C2D2A
:103378004D2D3E2D2F2D21C020E030E040E85BE7A9
:10338800C701B6010E949E4269837A838B839C831E
:10339800F7FE0FC0D701C601880F991FAA1FBB1FD0
:1033A800892B8A2B8B2B19F350E040E030E82FEB68
:1033B80004C050E040E030E020E0652F742F832FF8
:1033C800922F2896CDBFDEBFDF91CF91FF90EF906F
:1033D800DF90CF90BF90AF909F908F907F906F902D
:0633E8005F904F90089574
:1033EE007F928F929F92AF92BF92CF92DF92EF9287
:1033FE00FF920F931F93CF93DF93CDB7DEB728972E
:10340E00CDBFDEBF6A018901FE01319697E0DF0173
:10341E001D929A95E9F797EC998390916E2D9111E3
:10342E0049C091E090936E2D2130310511F402E0E8
:10343E0010E08A837B836C831E830F8367E0CE014B
:10344E0001960E94B13DB82E811137C081EF888759
:10345E0001151105D9F1712C6894882485F80F2E69
:10346E00F3EF9F2EF02D0F2EF2EFAF2EF02D7801F1
:10347E000130B0E21B0710F0E72CF82C0E191F09D3
:10348E0009F4988661E070E0CE0108960E9402264B
:10349E008823C9F0B701C6010E940226882399F03D
:1034AE00A886CE0CDF1C0115110509F70FC010926E
:1034BE006E2D12C0BB24B3940FC0BB24B3940CC0AA
:1034CE00BB24B39409C0BB24B39406C083EC0E9402
:1034DE007033882361F3F4CF8B2D2896CDBFDEBFDA
:1034EE00DF91CF911F910F91FF90EF90DF90CF90D2
:0C34FE00BF90AF909F908F907F9008953A
:10350A00AF92BF92CF92DF92EF92FF920F931F93E7
:10351A00CF93DF9300D000D0CDB7DEB7182F5B0171
:10352A006A01790119821A82B901CA010E941A40F4
:10353A00882309F442C0123008F053C0A114B10420
:10354A0009F452C0112369F0BE016F5F7F4FF50184
:10355A00808191810E94C937811117C085E090E06E
:10356A0048C0AE014D5F5F4F60E070E081E00E94AD
:10357A0028222B813C8129833A83882331F090E0E9
:10358A009160F7011082118237C009811A810115F1
:10359A00110569F115C0A601B50189819A810E94B8
:1035AA00A52FF7018083918380E090E025C0F70181
:1035BA001082118290E091601FC085E090E01CC0EB
:1035CA00F701108211825601A00EB11E950140E04A
:1035DA0050E060E070E081E00E9410118111E7CFB5
:1035EA00DACF83E090E005C085E090E002C085E094
:1035FA0090E0F701108211822496CDBFDEBFDF91E1
:10360A00CF911F910F91FF90EF90DF90CF90BF90D5
:04361A00AF900895D0
:10361E004D432B41424F5554004D432B424C4F428C
:10362E0054455354004D432B50494E47004D432BA8
:10363E004543432B47454E5055424B4559004D434C
:10364E002B4543432B4C4F434B004D432B4543439C
:10365E002B4F54502B52454144004D432B45434371
:10366E002B52454144004D432B4543432B5055426D
:10367E004B45592B52454144004D432B4543432B5B
:10368E0053455249414C004D432B4543432B53491F
:10369E00474E444947455354004D432B4543432B16
:1036AE005752495445424C4F42004D432B454343DC
:1036BE002B5055424B45592B5752495445004D43BB
:1036CE002B4745544C4544004D432B4C49535443D2
:1036DE004F4D4D414E4453004D432B52455345548F
:1036EE00004D432B5345544C4544004D432B5645FA
:1036FE005253494F4E004D432B57494E432B455283
:10370E00415345004D432B57494E432B524541449F
:10371E00004D432B57494E432B5752495445424C6B
:03372E004F420007
:013731000196
:10373200AF92BF92DF92EF92FF920F931F93CF93BC
:10374200DF9300D000D0CDB7DEB7D82E5B017A016F
:10375200890119821A821B821C82B901CA010E9444
:103762001A40882309F443C083E0D81246C0A1144A
:10377200B10409F445C0BE016F5F7F4FF50180813E
:1037820091810E94473D009709F042C0BE016D5FE2
:103792007F4FF501828193810E94C937882399F175
:1037A2002B813C812115310589F136C0220F331F4F
:1037B2008217930731F0F8011082118285E090E0C0
:1037C20031C0A701B7010E94DD2BF80110821182DE
:1037D2000B811C8169817A81970140E050E082E08F
:1037E2000E942710882331F090E091601BC085E091
:1037F20090E018C080E090E015C083E090E008C03F
:1038020085E090E005C085E090E002C085E090E0B0
:10381200F8011082118206C0F8018081918100971F
:1038220051F2C4CF2496CDBFDEBFDF91CF911F915D
:0E3832000F91FF90EF90DF90BF90AF90089540
:103840004F925F926F927F92AF92BF92CF92DF9230
:10385000EF92FF920F931F93CF93DF935C012A01A6
:103860003B0168017901011511052105310509F4B4
:1038700050C0DB01CA019927AA27BB270097A105E1
:10388000B10519F1C0E0D1E0C81BD90BCE01A0E011
:10389000B0E0081719072A073B0708F4E8019E0162
:1038A000A501C301B2010E942E0F811134C0AC0EDC
:1038B000BD1EAE0160E070E0440E551E661E771E10
:1038C000C41AD50AE60AF70A49F100E011E08FEFC1
:1038D000C816D104E104F10409F010F4E60102C0B5
:1038E000C02FD12F9E01A501C301B2010E942E0F4E
:1038F000811113C0AC0EBD1EAE0160E070E0440E3D
:10390000551E661E771EC41AD50AE60AF70AF9F68E
:1039100005C084EF03C084EF01C084EFDF91CF9135
:103920001F910F91FF90EF90DF90CF90BF90AF90DD
:0A3930007F906F905F904F90089514
:10393A00AF92BF92CF92DF92EF92FF921F93CF93F3
:10394A00DF9300D0CDB7DEB76C017B01DB016D914F
:10395A007C91FC0182810E94A423811157C0D70166
:10396A00ED91FC911197A280B38012968D919C9152
:10397A0013970E949C3D182F811142C0F601418184
:10398A0050E0B601D70112968D919C9113970E942F
:10399A007A42182F811134C0B50180E090E00E946C
:1039AA00383FB6E0CB0ED11C80ECF60111928A9515
:1039BA00E9F780EC90E089839A83AE014F5F5F4F0D
:1039CA00B601D70112968D919C9113970E9481425C
:1039DA00182F811115C089819A818430910520F4AC
:1039EA00892B69F417EE0CC0C6010E940D34182FFA
:1039FA00811106C0C6010E94D734182F01C016EEE5
:103A0A00F701828193810E94493F812F0F900F9085
:103A1A00DF91CF911F91FF90EF90DF90CF90BF90F1
:043A2A00AF900895BC
:103A2E00DF92EF92FF920F931F93CF93DF9382302B
:103A3E0008F05EC08901D52ED42F7B01C82FB901A5
:103A4E00842F952F0E941A40882309F454C0CC234A
:103A5E0049F0F7016081718188EC98E90E94A533E5
:103A6E008823D1F087ED98E99F938F938DED98E998
:103A7E009F938F9384E08F931F92DF92DF930E9428
:103A8E00683EF801808391838DB79EB708968DBFEF
:103A9E009EBF80E090E031C0F7016081718182EEBF
:103AAE0098E90E94A5338823D1F08BEE98E99F9375
:103ABE008F938DED98E99F938F9384E08F931F9250
:103ACE00DF92DF930E94683EF801808391838DB769
:103ADE009EB708968DBF9EBF80E090E00EC0A801F5
:103AEE006D2F7D2DF701808191810E94253C05C0AF
:103AFE0083E090E002C085E090E0DF91CF911F91CE
:0A3B0E000F91FF90EF90DF900895F3
:103B18008F929F92BF92CF92DF92EF92FF920F9374
:103B28001F93CF93DF93CDB7DEB72697CDBFDEBF08
:103B3800B82E4B016A01790119821A821B821C82F4
:103B48001D821E82B901CA010E941A408823E9F128
:103B58008E010B5F1F4F9E012F5F3F4F43E0B40163
:103B68008B2D0E943A33009721F0F70110821182C1
:103B780031C0F70180819181009739F02D813E8114
:103B8800220F331F8217930731F0F7011082118239
:103B980085E090E01FC0A601B6010E94DD2BF70169
:103BA8001082118281E00E94812A0D811E8120E00D
:103BB80030E049815A816B817C81C6010E94201CBA
:103BC800882331F090E0926005C085E090E002C063
:103BD80080E090E02696CDBFDEBFDF91CF911F91A8
:103BE8000F91FF90EF90DF90CF90BF909F908F90B4
:023BF80008952E
:103BFA00AF92BF92CF92DF92EF92FF920F931F93F1
:103C0A00CF93DF93CDB7DEB7C95CD109CDBFDEBF95
:103C1A00F82E6801012BB1F1E091502DF091512D50
:103C2A00A080B18084E0E816D9F180E2E8122CC0C5
:103C3A002EC08F2D8068F82EFC82C853DF4F8881F2
:103C4A009981C85CD0408D839E83BE016F5F7F4F90
:103C5A00C5010E94A14181112BC06091502D709124
:103C6A00512DCE0101960E949D1C182F81110EC064
:103C7A004E2D50E0BE01685F7F4FC6010E9464412D
:103C8A00812F16C082EE14C082EE12C011C08E01BE
:103C9A0008531F4F8F2D0E943935811109C0C9CF92
:103CAA008E0108531F4F8F2D0E943935882321F228
:103CBA00C753DF4FCDBFDEBFDF91CF911F910F9169
:0E3CCA00FF90EF90DF90CF90BF90AF900895E5
:103CD80010C00E94B24258F00E94AB4240F029F452
:103CE8005F3F29F00C941A4351110C94BA420C947A
:103CF800AB430E94113968F39923B1F3552391F32B
:103D0800951B550BBB27AA2762177307840738F042
:103D18009F5F5F4F220F331F441FAA1FA9F335D09F
:103D28000E2E3AF0E0E832D091505040E695001C53
:103D3800CAF72BD0FE2F29D0660F771F881FBB1F0D
:103D4800261737074807AB07B0E809F0BB0B802DEB
:103D5800BF01FF2793585F4F3AF09E3F510578F017
:103D68000C941A430C94BA425F3FE4F3983ED4F3A0
:103D7800869577956795B795F7959F5FC9F7880FEB
:103D8800911D9695879597F90895E1E0660F771F3D
:103D9800881FBB1F621773078407BA0720F0621BCE
:0E3DA800730B840BBA0BEE1F88F7E09508959D
:103DB600AF92BF92CF92DF92EF920F931F93CF9362
:103DC600DF93CDB7DEB7A097CDBFDEBF6115710516
:103DD60009F44AC09C01285031092830310508F001
:103DE60045C06B015C016894EE24E5F88E010F5F17
:103DF6001F4F20E040E0BC0182E00E94FD1D8111C2
:103E060036C08CE1FE013596D60101900D928A9559
:103E1600E1F720E041E0B50182E00E94FD1D81113D
:103E260026C089819A81F601848F958F8B819C812A
:103E3600868F978F88E1FE013996D601909601907C
:103E46000D928A95E1F720E042E0B50182E00E94FA
:103E5600FD1D81110CC0D601D89698E0F80101909D
:103E66000D929A95E1F703C082EE01C082EEA0960C
:103E7600CDBFDEBFDF91CF911F910F91EF90DF9005
:083E8600CF90BF90AF900895AA
:103E8E00CF93DF93DC01F90164387105D9F164F445
:103E9E006138710521F16238710509F440C060384E
:103EAE00710509F054C02EC060397105C1F184F45A
:103EBE006838710509F04BC0C081D181CE010296E0
:103ECE0080839183E881F981ED93FC9340833CC01C
:103EDE00603A7105B9F0603C7105A1F038C0C0813F
:103EEE00D181CE01029680839183E881F981ED9391
:103EFE00FC93052E000C660B770B40835183628377
:103F0E00738322C0C081D181CE01029680839183BA
:103F1E00E881F981ED93FC934083518315C0C081F4
:103F2E00D181CE01029680839183E881F981ED9350
:103F3E00FC9340835183852F880F880B8283838364
:103F4E00848385838683878381E090E002C080E04E
:083F5E0090E0DF91CF9108957E
:103F6600EF92FF920F931F93CF93DF93CDB7DEB7F8
:103F7600C75CD109CDBFDEBFA091502DB091512DA8
:103F8600ED90FC90982F93708C836D837E83923096
:103F960048F484E1FA01DE01179601900D928A95A4
:103FA600E1F715C09330B1F585FF09C080E4FA0149
:103FB600DE01179601900D928A95E1F708C080E21E
:103FC600FA01DE01179601900D928A95E1F78901B3
:103FD600BE016F5F7F4FC7010E94D63B81111FC094
:103FE6006091502D7091512DCE0101960E949D1C1D
:103FF600811115C00115110579F08F81833270F09A
:1040060080E2FE013896D80101900D928A95E1F77B
:1040160080E005C082EE03C080E001C080E0C953A5
:10402600DF4FCDBFDEBFDF91CF911F910F91FF9084
:04403600EF9008956A
:10403A000F931F93CF93DF9300D000D0CDB7DEB795
:10404A008C0124E030E040E050E068E072E081E07A
:10405A0090E00E942B2D25E030E040E050E06CE03B
:10406A0072E081E090E00E942B2D21E030E040E0F8
:10407A0050E064E172E081E090E00E942B2D24E898
:10408A0030E140E050E06CE172E081E090E00E94B3
:10409A002B2D21E830E040E050E064E072E081E05E
:1040AA0090E00E942B2DAE014F5F5F4F68E172E0F6
:1040BA0081E090E00E94263F811108C089819A819F
:1040CA00AB81BC810197A105B10569F764E870E18C
:1040DA0080E090E00E94A13769837A838B839C8376
:1040EA000E94A243811105C08981F801808380E082
:1040FA0001C084EF2496CDBFDEBFDF91CF911F911F
:04410A000F91089574
:10410E000FC00E94AB4238F00E94B24220F09523BD
:10411E0011F00C941A430C94AB4311240C94BA4234
:10412E000E94113970F3959FC1F3950F50E0551F02
:10413E00629FF001729FBB27F00DB11D639FAA27EE
:10414E00F00DB11DAA1F649F6627B00DA11D661F3D
:10415E00829F2227B00DA11D621F739FB00DA11D5E
:10416E00621F839FA00D611D221F749F3327A00D18
:10417E00611D231F849F600D211D822F762F6A2FB4
:10418E0011249F5750409AF0F1F088234AF0EE0F19
:10419E00FF1FBB1F661F771F881F91505040A9F746
:1041AE009E3F510580F00C941A430C94BA425F3F27
:1041BE00E4F3983ED4F3869577956795B795F79582
:1041CE00E7959F5FC1F7FE2B880F911D96958795FA
:0441DE0097F90895B0
:1041E200A2E0B0E0E7EFF0E20C94893C1C014B0145
:1041F200FA01DB0112962D913C91139714964D9082
:104202005C9015978D919C91119789839A8316964C
:104212006D907C90179737FD03C08D7F89839A83B9
:1042220000811181228133814481558166817781A8
:10423200FE0131965F0188E0C82ED12C7201C401C3
:104242000E949C15298124FF06C00197F301E80F03
:10425200F91F20E32083298123FF06C00197F30180
:10426200E80FF91F20E2208309811A81D4011896F0
:104272004D915C91199741505109481B590BB3015B
:10428200680F791F9201C1010E94B6319C01F101B0
:104292008081918190FF08C0D40112968D919C91EA
:1042A2001397821793070CF4C9012296E2E10C944A
:0242B200023DCB
:1042B4008F929F92BF92CF92DF92EF92FF920F93D1
:1042C4001F93CF93DF93CDB7DEB72697CDBFDEBF65
:1042D400B82E4B016A01790119821A821B821C8251
:1042E4001D821E82B901CA010E941A408823B1F1BD
:1042F4008E010B5F1F4F9E012F5F3F4F42E0B401C1
:104304008B2D0E943A33F70110821182009741F5F8
:104314008D809E808C0C9D1C81E00E94812A0D81E1
:104324001E8120E030E049815A816B817C81C40187
:104334000E943A2A882331F0F7011082118290E01A
:1043440092600EC0A601B4018D819E810E94A52FAA
:10435400F7018083918380E090E002C085E090E0E3
:104364002696CDBFDEBFDF91CF911F910F91FF90B5
:0E437400EF90DF90CF90BF909F908F900895B4
:1043820011C00E94AB4238F00E94B24220F039F4D0
:104392009F3F19F426F40C94AB430EF4E095E7FB2F
:1043A2000C941A43E92F0E94113958F3BA17620785
:1043B20073078407950720F079F4A6F50C94B942A7
:1043C2000EF4E0950B2EBA2FA02D0B01B90190012E
:1043D2000C01CA01A0011124FF27591B99F0593F72
:1043E20050F4503E68F11A16F040A22F232F342FBA
:1043F2004427585FF3CF469537952795A795F04008
:104402005395C9F77EF41F16BA0B620B730B840B1C
:10441200BAF09150A1F0FF0FBB1F661F771F881FD4
:10442200C2F70EC0BA0F621F731F841F48F487952C
:1044320077956795B795F7959E3F08F0B0CF93951E
:0E444200880F08F09927EE0F9795879508953B
:104450004115510509F45AC0E091502DF091512DAC
:104460000280F381E02D0180F281E02D9181911194
:104470001BC0813059F018F0823079F049C088E5CE
:1044800090E0FA018083918380E0089580E490E0D9
:10449000FA018083918380E0089580E290E0FA0140
:1044A0008083918380E00895813059F018F0823044
:1044B00079F030C080E890E0FA018083918380E059
:1044C000089580E490E0FA018083918380E008956C
:1044D0006830710538F484E290E0FA0180839183BA
:1044E00080E008956830710539F480EA91E0FA01BE
:1044F0008083918380E008956031710568F488E4D9
:1045000090E0FA018083918380E0089582EE08951F
:0C45100082EE089582EE089582EE089578
:10451C000F931F93CF93DF93EC018091502D9091CB
:10452C00512D892B11F00E946040E4E3FDE288E3F9
:10453C009DE28083918382E09DE282839383BF011D
:10454C00CE010E94C63581113CC084E39DE280936C
:10455C00502D9093512D8981833091F52091342DDC
:10456C003091352D2F5F3F4F01E010E043E150E0DB
:10457C0060E070E080E00E9410118823A9F082E0D6
:10458C009DE20E943614E091502DF091512D208126
:10459C0031812F5F3F4F43E150E060E070E080E0FD
:1045AC000E94101181110DC0E091502DF091512DF0
:1045BC000190F081E02D8181887F818380E001C0B2
:0C45CC0080E0DF91CF911F910F910895C6
:1045D800FF920F931F93CF93DF93CDB7DEB72C973E
:1045E800CDBFDEBF6115710509F440C08B01F82EFF
:1045F80086E2FB0111928A95E9F7AE01475F5F4FAA
:1046080068E070E08CE090E00E94263F811134C0A1
:1046180089859A85AB85BC850097A105B10561F1AF
:10462800BC01CD01836028E030E0AE014F5F5F4FF1
:104638000E944A23811120C08D819E81AF81B88557
:10464800AA27BB270097A105B10591F0F11003C077
:1046580080E090E0DC01BC01CD01836026E230E01F
:10466800A8010E944A23882341F004C081EF05C0B5
:1046780084EF03C084EF01C084EF2C96CDBFDEBF6A
:0C468800DF91CF911F910F91FF900895DA
:10469400EF92FF920F931F93CF93DF93CDB7DEB7C3
:1046A4002997CDBFDEBFFE01339697E0DF011D924F
:1046B4009A95E9F798EC9B8390916E2D911131C0F6
:1046C40089017A0191E090936E2D8C837D836E83B2
:1046D4002130310549F482E0898767E0CF010E94E7
:1046E400B13D882359F01FC01887298767E0CE01A0
:1046F40003960E94B13D882359F017C062E070E030
:10470400CE0101960E94CD329981F701908304C0B5
:10471400B801C7010E94CD32811109C010926E2DDB
:1047240007C081E005C081E003C081E001C081E0F1
:104734002996CDBFDEBFDF91CF911F910F91FF90DE
:04474400EF90089555
:10474800CF93DF93EB019881913009F43FC090F04B
:10475800923019F0933029F033C054E1ECE2F5EBD4
:1047680040C099819832B1F19836C1F156E1ECE236
:10477800F3EB37C02FEF3FEF2A833B835EE0EEE099
:10478800FBEB9081891311C008C0F9012D5F3F4FE1
:10479800D90113974C9148130CC0818192818A8367
:1047A8009B83019659F482EF21C09F012D5F3F4FF3
:1047B80090E09F5F951748F382EF18C080E016C01D
:1047C8008FEF9FEF8A839B8382EF10C053E1E4E071
:1047D800F7EB07C056E1EAEEF2EB03C056E1E8EA70
:1047E800F2EB2FEF3FEF2A833B83CBCFDF91CF91C3
:0247F800089522
:1047FA00AF92BF92DF92EF92FF920F931F93CF93E4
:10480A00DF9300D0CDB7DEB7D82E5B017A018901DC
:10481A0019821A82B901CA010E941A40882361F1D9
:10482A00F80110821182F1E0FD1548F1DF120BC088
:10483A00BE016F5F7F4FF501808191810E94473DE4
:10484A00009711F502C019821A825701F0E4AF0EDF
:10485A00B11CB50189819A810E941342811112C04B
:10486A00A701B50180E490E00E94A52FF80180839A
:10487A00918380E090E008C085E090E005C083E085
:10488A0090E002C090E091600F900F90DF91CF917D
:10489A001F910F91FF90EF90DF90BF90AF90089516
:1048AA00AF92BF92DF92EF92FF920F931F93CF9333
:1048BA00DF9300D0CDB7DEB7D82E5B017A0189012C
:1048CA0019821A82B901CA010E941A40882359F131
:1048DA00F801808191818038910529F01082118236
:1048EA0085E090E028C0F80110821182F2E0DF1220
:1048FA001DC0BE016F5F7F4FF501808191810E94CB
:10490A00473D0097C1F4A701B70180E890E00E94F3
:10491A00DD2BB70189819A810E94AE25882349F04F
:10492A0090E0916008C085E090E005C083E090E0E7
:10493A0002C080E090E00F900F90DF91CF911F911D
:0E494A000F91FF90EF90DF90BF90AF90089517
:10495800A2E0B0E0E2EBF4E20C94893C3C014B01AC
:10496800FA01DB0112962D913C91139714964D9004
:104978005C9015978D919C91119789839A831696CF
:104988002D903C90179737FD03C08D7F89839A83BC
:10499800008111812281338144815581668177812B
:1049A800FE0131965F018AE0C82ED12C7201C40144
:1049B8000E949C1509811A81D40118964D915C9129
:1049C800199741505109481B590BB101680F791FBC
:1049D8009201C3010E94B6319C01F301808191814B
:1049E80090FF08C0D40112968D919C91139782175D
:0E49F80093070CF4C9012296E2E10C94023DF3
:104A06000F931F93CF93DF93813009F048C0E901DC
:104A1600052F142FFB01808191810E94A5348823E4
:104A260011F090E03EC080916404E0914E2DF0912B
:104A36004F2D928189239817C9F081818F938081A8
:104A46008F938CEB92EA9F938F9384E08F931F92C0
:104A56000F931F930E94403E888399838DB79EB71C
:104A660008968DBF9EBF80E090E01BC081818F932A
:104A760080818F938BEC92EA9F938F9384E08F9340
:104A86001F920F931F930E94403E888399838DB790
:104A96009EB708968DBF9EBF80E090E002C083E07F
:0C4AA60090E0DF91CF911F910F910895D7
:104AB2000F931F93CF93DF93CDB7DEB7C75CD109B6
:104AC200CDBFDEBF41155105F1F1E091502DF091BE
:104AD200512D008111818C836D837E838823ACF4F8
:104AE20080E2FA01DE01179601900D928A95E1F7B4
:104AF20021153105A9F080E2F901DE0197960190B6
:104B02000D928A95E1F741E00CC0FA018081918112
:104B12008F8398878281938189879A8740E001C039
:104B220040E04170BE016F5F7F4FC8010E941A3D95
:104B320081110AC06091502D7091512DCE010196C4
:104B42000E949D1C01C082EEC953DF4FCDBFDEBF64
:0A4B5200DF91CF911F910F9108959C
:104B5C00AF92BF92CF92DF92EF92FF920F931F937F
:104B6C00CF93DF93CDB7DEB7C056D109CDBFDEBF33
:104B7C006115710589F15C019E012F5F3F4F80E645
:104B8C00F90111928A95E9F780E2FB01DE01159695
:104B9C0001900D928A95E1F7FB01B09680E2DE015F
:104BAC00999601900D928A95E1F76901F12C689420
:104BBC00EE24E5F8860120E04F2DB50182E00E943D
:104BCC00E92C81110AC0F394F0E2CF0ED11C83E0E2
:104BDC00F812EDCF80E001C082EEC05ADF4FCDBF9E
:104BEC00DEBFDF91CF911F910F91FF90EF90DF907F
:084BFC00CF90BF90AF90089527
:104C0400AF92BF92CF92DF92EF92FF920F931F93D6
:104C1400CF93DF935C016B01892BC9F1E09180C3D1
:104C2400F09181C3099580E88093060480E8C81652
:104C3400D104F0F08601E501E09086C3F09087C3CB
:104C440060E870E0CE01F701099500581109C058D9
:104C5400DF4F00381105A0F7B6016F777727C6013B
:104C640080589109807880589F4FA80EB91E01C0C2
:104C7400B601CEE7D3ECE885F985C501099580E84E
:104C840080930504E881F981099581E001C080E001
:104C9400DF91CF911F910F91FF90EF90DF90CF9014
:064CA400BF90AF900895DF
:104CAA00AF92BF92CF92DF92EF92FF920F931F9330
:104CBA00CF93DF935C016B01892BC9F1E09180C32B
:104CCA00F09181C3099580E88093060480E8C816AC
:104CDA00D104F0F08601E501E09088C3F09089C321
:104CEA0060E870E0CE01F701099500581109C05833
:104CFA00DF4F00381105A0F7B6016F777727C60195
:104D0A0080589109807880589F4FA80EB91E01C01B
:104D1A00B601CEE7D3ECEA85FB85C501099580E8A3
:104D2A0080930504E881F981099581E001C080E05A
:104D3A00DF91CF911F910F91FF90EF90DF90CF906D
:064D4A00BF90AF90089538
:104D5000CF93DF9300D000D0CDB7DEB720E030E0B6
:104D6000A90168E072E081E090E00E942B2D26E02E
:104D700030E040E050E06CE072E081E090E00E94C2
:104D80002B2D21E030E040E050E064E172E081E072
:104D900090E00E942B2D20E030E0A9016CE172E050
:104DA00081E090E00E942B2D21E830E040E050E0CF
:104DB00064E072E081E090E00E942B2DAE014F5F35
:104DC0005F4F68E172E081E090E00E94263F811130
:104DD00008C089819A81AB81BC810197A105B10589
:104DE00069F70E94A243811184EF2496CDBFDEBFF4
:064DF000DF91CF91089550
:104DF600AF92BF92DF92EF92FF920F931F93CF93E2
:104E0600DF9300D0CDB7DEB7D82E5B017A018901DA
:104E160019821A82B901CA010E941A40882339F1FF
:104E2600F80110821182F1E0DF1224C0BE016F5F2B
:104E36007F4FF501808191810E94473D0097F9F4EB
:104E46005701F0E4AF0EB11CB50189819A810E9429
:104E5600DB1E811112C0A701B50180E490E00E941B
:104E6600A52FF8018083918380E090E008C085E05B
:104E760090E005C083E090E002C090E091600F9062
:104E86000F90DF91CF911F910F91FF90EF90DF90E0
:064E9600BF90AF900895EB
:104E9C0088249924F401E401B0E49F93AA279A157D
:104EAC008B049C04ED05FE05CF05D007A10798F4F3
:104EBC00AD2FDC2FCF2FFE2FE92D982C892E982F7C
:104ECC00872F762F652F542F432F322F2227B85040
:104EDC0031F7BF9127C01B2EBF91BB27220F331F69
:104EEC00441F551F661F771F881F991F881C991C0C
:104EFC00EE1FFF1FCC1FDD1FAA1FBB1F8A149B04B4
:104F0C00EC05FD05CE05DF05A007B10748F08A18B2
:104F1C009B08EC09FD09CE09DF09A00BB10B216040
:104F2C001A94E1F62EF49401AF01BE01CD01000CF0
:024F3C000895D6
:104F3E00E9ECFCE280818E7F80838091C52C90917C
:104F4E00C62C019719F40E94024302C00E94FC4233
:104F5E00E6EAFCE2878D90A10197878F90A3892BBB
:104F6E0071F0A58DB68D8091A8088C93858D968D48
:104F7E000196858F968F0E94EA4284E00895A6EAF4
:104F8E00BCE25D96ED91FC915E978091A8088083BE
:104F9E005D968D919C915E9701965D968D939C93F7
:104FAE005E97E9ECFCE2808188608083ED91FC9154
:104FBE0011971C968D919C911D9709958250823068
:104FCE0020F40E94024388E008950E9494400895C0
:104FDE00CF92DF92EF92FF920F931F93CF93DF93B7
:104FEE00CDB7DEB7E197CDBFDEBFD42EC52E79018A
:104FFE00BE016F5F7F4FCE0103960E948A438C01E4
:10500E00892B21F581EF98E99F938F9387ED98E98E
:10501E009F938F93CE0103969F938F938BEE98E978
:10502E009F938F938CEF98E99F938F9384E199E9E7
:10503E009F938F9384E08F931F92CF92DF920E9463
:10504E00683EF70180839183CDBFDEBFC801E19634
:10505E00CDBFDEBFDF91CF911F910F91FF90EF90EB
:06506E00DF90CF900895D1
:105074000F931F93CF93DF93CDB7DEB72897CDBFA0
:10508400DEBF8A016F3F71058105910509F048F47F
:1050940024EC2D8320E82E83982F872F762F6627E4
:1050A40003C02AEC2D838E837F83688764E0CE015E
:1050B40005960E94B13D81111BC064E070E0CE01F1
:1050C40001960E94CD32811115C09A814B8150E026
:1050D40060E070E0BA0155274427592B9981492B88
:1050E4009C81792BF801408351836283738303C0CD
:1050F40081E001C081E02896CDBFDEBFDF91CF9172
:065104001F910F910895B8
:10510A00AF92BF92CF92DF92EF920F931F93CF93FA
:10511A00DF9300D000D0CDB7DEB78031910550F5CE
:10512A006115710549F15B016C016894EE24E2F89E
:10513A008E010F5F1F4F26E042E060E070E080E0E2
:10514A000E94FD1D811119C02A8130E0322F2227C9
:10515A009981292B41E050E002C0440F551FCA949F
:10516A00E2F72423352391E0232B09F090E0F5019F
:10517A00908303C082EE01C082EE2496CDBFDEBFCB
:10518A00DF91CF911F910F91EF90DF90CF90BF9059
:04519A00AF90089535
:10519E000F931F93CF93DF93CDB7DEB7C75CD109C3
:1051AE00CDBFDEBF8901E091502DF091512D2081B0
:1051BE0031818C836D837E834115510539F0FA015F
:1051CE00808191818F83988782818987BE016F5FED
:1051DE007F4FC9010E949E3F81111AC06091502DD0
:1051EE007091512DCE0101960E949D1C811110C00F
:1051FE000115110569F09F81933449F490E4FE0185
:10520E003896D80101900D929A95E1F701C086EE7D
:10521E00C953DF4FCDBFDEBFDF91CF911F910F91ED
:02522E000895E1
:105230000F931F93CF93DF9300D000D0CDB7DEB78D
:1052400021E030E040E050E06BE070E080E090E092
:105250000E94992B22E030E040E050E061E070E0F5
:1052600080E090E00E94992B0E94A243082F8111B8
:105270001EC014E0AE014F5F5F4F6FE070E080E052
:1052800090E00E94263F811113C0898182FF04C0F3
:105290000E94334201E00CC062E070E080E090E0E8
:1052A0000E949F3B115031F70E94334201C000E041
:1052B000802F2496CDBFDEBFDF91CF911F910F913C
:0252C00008954F
:1052C2008F929F92AF92BF92CF92DF92EF92FF9214
:1052D200CF93DF9300D000D0CDB7DEB76B017C0156
:1052E20049015A01AE014F5F5F4F0E94263F8981FB
:1052F2009A81AB81BC81AC01BD01482159216A214F
:105302007B21452B462B472BA1F0B501A4014095EB
:105312005095609570959A01AB01282339234A2351
:105322005B2329833A834B835C83C701B6010E94C6
:105332002B2D80916E2D2496CDBFDEBFDF91CF91B4
:10534200FF90EF90DF90CF90BF90AF909F908F90A3
:025352000895BC
:105354000F931F93CF93DF93DB012D913C91119712
:1053640030FF25C016964D915C91179714962D9198
:105374003C9115974217530778F41296ED91FC91DE
:105384001397808312962D913C9113972F5F3F4F73
:1053940012962D933C93139716962D913C91179743
:1053A4002F5F3F4F16962D933C93179715C01C966D
:1053B400ED91FC911D97309719F48FEF9FEF0CC07E
:1053C4008B01EC010995892BC1F7F801868197813E
:1053D400019686839783CE01DF91CF911F910F9120
:0253E40008952A
:1053E6001F920F920FB60F9211242F933F934F9354
:1053F6005F936F937F938F939F93AF93BF93EF9337
:10540600FF93B99B05C0E0915E2DF0915F2D099544
:10541600B89B05C0E0915C2DF0915D2D0995BB9B75
:1054260005C0E0915A2DF0915B2D0995BA9B05C0F8
:10543600E091582DF091592D0995BC9B05C0E0913E
:10544600562DF091572D09958FEF87BBFF91EF9160
:10545600BF91AF919F918F917F916F915F914F9186
:0E5466003F912F910F900FBE0F901F90189541
:105474008F929F92AF92BF92CF92DF92EF92FF9260
:105484000F931F93CF93DF93EC014A015B016801F3
:1054940079010130104821053105D8F000E010E809
:1054A40020E030E0B501A401CE010E94481681112C
:1054B40018C080E8D81AE108F10880E8980EA11C09
:1054C400B11CD05881E0C81680E8D806E104F10484
:1054D40028F797018601B501A401CE010E94481660
:1054E40001C084EFDF91CF911F910F91FF90EF9056
:0E54F400DF90CF90BF90AF909F908F90089563
:105502001F93CF93DF93CDB7DEB72B97CDBFDEBF0F
:10551200882329F08091712D882341F02CC080913D
:10552200712D811112C080E090E02AC00E94A54333
:10553200882321F080E090E00E943B420E947C3F61
:10554200182F81E08093712D0CC0CE0101962BE0C3
:10555200FC0111922A95E9F70E94A140182F10929E
:10556200712D8AEF90E00E943841112339F0812F8A
:1055720090E0926005C080E090E002C080E090E0A0
:0E5582002B96CDBFDEBFDF91CF911F91089514
:10559000EF92FF920F931F93CF93DF93F82E8A0120
:1055A000E901B901CA010E941A40882361F182E031
:1055B000F81629F01882198283E090E029C0A8012A
:1055C000B801888199810E94DD2B8032F9F478013D
:1055D00080E4E80EF11CA701B80180E090E00E9491
:1055E000043381110BC0A801B70180E490E00E9450
:1055F000A52F8883998380E090E00AC018821982E1
:1056000090E0916005C085E090E002C085E090E008
:0E561000DF91CF911F910F91FF90EF900895C1
:10561E00CF92DF92EF92FF920F931F93CF93DF9370
:10562E00CDB7DEB7A697CDBFDEBFD82EC92E7B0174
:10563E00CE0101960E94043E8C01892B11F58A85BC
:10564E001F928F9389851F928F9388851F928F93B8
:10565E008F811F928F938E811F928F938D811F92B8
:10566E008F9386E892EA9F938F931F928FE28F9388
:10567E00CF92DF920E94543EF70180839183CDBF7B
:10568E00DEBFC801A696CDBFDEBFDF91CF911F91C1
:0C569E000F91FF90EF90DF90CF900895E7
:1056AA00EF92FF921F93CF93DF93CDB7DEB7C75C1C
:1056BA00D109CDBFDEBF182F7A01E091502DF091AC
:1056CA00512D808191811C836D837E83BE016F5F22
:1056DA007F4F0E94B54181111DC06091502D70917C
:1056EA00512DCE0101960E949D1C988541E050E003
:1056FA00112311F040E050E0292F30E02423352314
:10570A00232B41F4E114F10421F0F701908380E0A6
:10571A0001C080E0C953DF4FCDBFDEBFDF91CF911B
:08572A001F91FF90EF9008951C
:105732008F929F92AF92BF92CF92DF92EF92FF929F
:10574200CF93DF9300D000D0CDB7DEB74B015C0121
:1057520069017A01AE014F5F5F4F0E94263F498186
:105762005A816B817C81DB01CA018C219D21AE2192
:10577200BF21C816D906EA06FB0671F09A01AB01F1
:105782002C293D294E295F2929833A834B835C8347
:10579200C501B4010E942B2D80916E2D2496CDBFA0
:1057A200DEBFDF91CF91FF90EF90DF90CF90BF905F
:0857B200AF909F908F900895C5
:1057BA00AF92BF92CF92DF92EF92FF921F93CF9355
:1057CA00DF936115710531F18230910530F15C0189
:1057DA00B694A79481709927A80EB91EA114B10492
:1057EA00F9F06A01EB017A01CA0CDB1C88810E947C
:1057FA00DB3D182F1295107F89810E94DB3D812B9A
:10580A00F70181937F012296EC15FD0579F78A2D20
:10581A009B2D08C080E090E005C080E090E002C0C7
:10582A0080E090E0DF91CF911F91FF90EF90DF90A1
:08583A00CF90BF90AF900895DC
:105842000F931F93CF93DF93CDB7DEB72597CDBFCD
:10585200DEBF0E9443438C018FEF8D8380E00E9464
:10586200D9338823D9F361E070E0CE0105960E9416
:105872006B3F60E070E080E090E00E94CC420E94CA
:1058820053430E9484388130E1F3F80162897389BD
:1058920080E090E00E94DE3F44E050E0BE016F5F96
:1058A2007F4F8091642D0E942B3B64E070E0CE011B
:1058B20001960E94EF2D2596CDBFDEBFDF91CF91DD
:0658C2001F910F910895F3
:1058C800434F4D4D414E4448414E444C45520031A2
:1058D8002E332E300025730D0A004649524D57418C
:1058E800524500302E342E39004156522D496F54FE
:1058F800205747004156522D496F542070726F76D9
:105908006973696F6E696E672046570025730D0AC3
:1059180046572025730D0A2573436F6D6D616E64BC
:105928002068616E646C65722025730D0A666F725B
:10593800207468652025730D0A004D432B504F4E87
:05594800473D2573003E
:10594E000F931F93CF93DF93CDB7DEB7C75CD1090B
:10595E00CDBFDEBF4115510549F18A01282FE091D7
:10596E00502DF091512D808191812C836D837E83FA
:10597E00BE016F5F7F4F0E94AB4181111AC06091D3
:10598E00502D7091512DCE0101960E949D1C8111BA
:10599E0010C08F81833461F480E4FE013896D80103
:1059AE0001900D928A95E1F780E003C082EE01C06E
:1059BE0086EEC953DF4FCDBFDEBFDF91CF911F9172
:0459CE000F91089598
:1059D200CF92DF92EF92FF920F931F93CF93DF93B9
:1059E20000D0CDB7DEB7F82E6801012B99F084E024
:1059F200E816E9F080E2E8120FC010C08F2D80682F
:105A0200F82E69817A8120E030E0A6018F2D0E9474
:105A1200592515C082EE13C082EE11C08E010F5FB0
:105A22001F4F8F2D0E943935811109C0E7CF8E019A
