:100000000C949B000C942B380C942B380C942B38AC
:100010000C942B380C942B380C942B380C942B38D4
:100020000C940F270C942B380C942B380C942B38F1
:100030000C942B380C942B380C942B380C942B38B4
:100040000C942B380C942B380C942B380C94FC1FEC
:100050000C942B380C942B380C942B380C942B3894
:100060000C94DD370C942B380C942B380C942B38D3
:100070000C942B380C942B380C9465210C942B3851
:100080000C94B42E0C94E12E0C9432340C94E7377B
:100090000C942B380C942B380C942B380C942B3854
:1000A0000C942B380C942B380C942B380C942B3844
:1000B0000C942B380C94D5290C94E2370C942B38E3
:1000C0000C942B380C942B380C942B380C942B3824
:1000D0000C942B380C940E2F0C943B2F0C9446341C
:1000E0000C942B380C942B380C942B380C942B3804
:1000F0000C942B3840004742804742476A00709A70
:10010000476A478A80478A47B80070C247B847CBDA
:100110008047CB47EB0070F047EB47F98047F94841
:10012000060071104806481C80481C481E00711DBE
:10013000481E48638000809101108F7C8060806839
:100140008093011011241FBECFEFCDBFDFE7DEBFCC
:10015000E4EFF0E041E019C0B791A7913791279102
:10016000079107FD0EC097918791EF01F92FE82FB6
:100170000BBF07900D92A217B307D9F7FE011BBE64
:1001800004C01D92A217B307E1F7E533F40721F786
:0C0190000E942A350C945536F894FFCFDD
:10019C004D432B41424F5554004D432B424C4F4243
:1001AC0054455354004D432B50494E47004D432B5F
:1001BC004252494447454D4F4445004D432B45431E
:1001CC00432B47454E5055424B4559004D432B450B
:1001DC0043432B4C4F434B004D432B4543432B4F39
:1001EC0054502B52454144004D432B4543432B5017
:1001FC0055424B45592B52454144004D432B4543E9
:10020C00432B5055424B45592B5752495445004DA1
:10021C00432B4543432B52454144004D432B45430F
:10022C00432B53455249414C004D432B4543432BE3
:10023C005349474E444947455354004D432B45437E
:10024C00432B5752495445424C4F42004D432B4788
:10025C0045544C4544004D432B4C495354434F4D4E
:10026C004D414E4453004D432B5245534554004D84
:10027C00432B5345544C4544004D432B5645525348
:04028C00494F4E0088
:10029000434F4D4D414E4448414E444C4552003130
:1002A0002E332E300025730D0A004649524D57411A
:1002B000524500312E312E34004156522D496F5493
:1002C0002043656C6C756C6172204D696E690041EC
:1002D00056522D496F542043656C6C756C617220C9
:1002E0004D696E692070726F766973696F6E696EA1
:1002F000672046570025730D0A46572025730D0ABF
:10030000436F6D6D616E642068616E646C65722010
:1003100025730D0A666F72207468652025730D0AB7
:0C032000004D432B504F4E473D2573000D
:10032C0057656C636F6D6520746F20746865204130
:10033C0056522D496F542043656C6C756C6172205C
:10034C004D696E692070726F766973696F6E696E34
:10035C006720636F6D6D616E642068616E646C659F
:10036C0072210D0A0052454144590D0A004F4B0DA4
:10037C000A004552524F523A20307825580D0A0047
:05038C003E000D0A0017
:100391009C81932F00A581223801B181F83000B9E9
:1003A10081122A00C781172200D881DD2800E4814B
:1003B100D01800F48119240007826F22011B82A248
:1003C10017002782362B00358282260147825A196F
:1003D100015882401F0062821B28007282F736009A
:0A03E1007B825B29008582E11E008B
:1003EB00511B002828002419001C3200431302154E
:1003FB002300408D0230050056A500172300083757
:10040B00001614004632001B170002050080E001A5
:10041B00771409474B00419902200A00453D04120D
:02042B002D00A2
:10042D00511B002828002419001C320043AC001574
:10043D00230040D70030050056A5001723000837CC
:10044D00001614004632001B170002050080A000A4
:10045D00777102472A0041DC00200A00452701126E
:02046D002D0060
:10046F00511B002828002419001C3200434B001593
:10047F00190040730030050056A5001723000837F8
:10048F00001614004632001B1700020500805000B2
:10049F0077FA00472400417300200A0045690012D3
:0204AF002D001E
:1004B1004F4E004F4646004C45443A257320697320
:1004C100204F4E0A0D004C45443A25732069732094
:1004D1004F46460A0D004552524F52004441544185
:1004E10000434F4E4E0043454C4C0055534552007E
:1004F100280D002414001C3200433A00150B004063
:100501007300111700300200172000080E00161D9D
:10051100000103004630001B1700020500470900D7
:0C052100413C00200A00454800121A006E
:10052D00280D002414001C3200150B00407300111F
:10053D001700300200172000080E00161D000103E1
:10054D00004630001B1700020500470900413C0022
:09055D00200A00454800121A00B2
:100566002826001C3E00152B0011450030020017FE
:100576001800082300163C000102001B3200020589
:0A05860000471600200C00122A00A6
:100590008032F433FE2D2C2EA52B0000CE37F835FB
:0405A00075370000AB
:1005A400E336ED36003740314E2A2538333785316E
:0205B40004360B
:0A05B6005045524D414E454E540091
:1005C000AAE9B0E0E6EEF2E00C940A336C017A019D
:1005D000C756DF4F68837983C959D040A12CB12C0D
:1005E00066246A94762C90E8492E512C25E2222E1E
:1005F000C756DF4F68817981C959D040FB0180819E
:10060000882309F471C3CF57DF4F18821982C1586C
:10061000D040CD57DF4F68827982C358D040CB5746
:10062000DF4F18821982C558D04081E090E08C0FCE
:100630009D1FC957DF4F88839983C758D040C7573C
:10064000DF4F48825982C958D040FB0100E010E0DA
:100650008191811116C001151105C1F0A801C601D3
:100660000E946332C756DF4F88819981C959D040B3
:10067000800F911FC756DF4F88839983C959D04097
:1006800005C0853241F30F5F1F4FE2CFC756DF4FE2
:10069000E881F981C959D0408081853209F012C3BF
:1006A0004F019FEF891A990AC756DF4F88829982B6
:1006B000C959D040C756DF4F88819981C959D04068
:1006C000DC012C912B3241F4CF57DF4F2881398147
:1006D000C158D04024600BC02C32BCF02D3249F5FB
:1006E000CF57DF4F28813981C158D0402160CF5783
:1006F000DF4F28833983C158D0400196C756DF4F5A
:1007000088839983C959D040D5CF203241F4CF573F
:10071000DF4F28813981C158D0402860E8CF23328B
:1007200091F4CF57DF4F28813981C158D0402061E3
:10073000DECF203341F4CF57DF4F28813981C158B4
:10074000D0402260D4CF2A3289F50196C756DF4FB8
:1007500088839983C959D040D701ED91FC911197B5
:10076000CF0102968D939C9380819181CB57DF4F6F
:1007700088839983C558D04097FF35C0CF57DF4F46
:1007800028813981C158D040B1E02B27CF57DF4FA6
:1007900028833983C158D040919581959109CB57D1
:1007A000DF4F88839983C558D0401DC00E94FD2A21
:1007B000CB57DF4F88839983C558D040C756DF4F4A
:1007C000E881F981C959D0408081082E000C990B2D
:1007D000C0970A9740F43196C756DF4FE883F983F4
:1007E000C959D040EBCFCF57DF4F88819981C1588D
:1007F000D04080FF07C08D7FCF57DF4F888399831C
:10080000C158D040C756DF4FE881F981C959D0405F
:1008100080818E3209F046C0CD57DF4F1882198291
:10082000C358D040CF010196C756DF4F88839983C4
:10083000C959D04021812A32C1F43296C756DF4FC0
:10084000E883F983C959D040D701ED91FC91119704
:10085000CF0102968D939C9380819181CD57DF4F7C
:1008600088839983C358D0401DC00E94FD2ACD576C
:10087000DF4F88839983C358D040C756DF4FE88144
:10088000F981C959D0408081082E000C990BC0977E
:100890000A9740F43196C756DF4FE883F983C95968
:1008A000D040EBCFCE0187569F4F0E94E731382EC4
:1008B000C756DF4FE881F981C959D0408081082EA1
:1008C000000C990B0E943B378936910509F456C0FC
:1008D000B4F48336910509F46BC144F48532910573
:1008E00009F4A2C18136910529F1B4C1843691057C
:1008F00009F444C0883691050CF436C1ABC1803789
:10090000910509F4C4C04CF48E36910509F420C158
:100910008F36910509F47AC09DC18537910509F498
:1009200051C08837910509F495C08337910509F0C6
:1009300091C15DC1632D70E0A701CE0185579F4F26
:100940000E940732892B09F4B0C1C756DF4FE881F6
:10095000F981C959D040CF010196C756DF4F88832E
:100960009983C959D0402081AE0145575F4FBE01E0
:100970006F577F4FC6010E94BA0994C1632D70E082
:10098000970141E050E0CE0185579F4F0E94A61588
:10099000892B09F48AC1C756DF4F88819981C959CB
:1009A000D0400196C756DF4F88839983C959D040FC
:1009B000AE0145575F4FBE016F577F4FC6010E9482
:1009C000E71470C1632D70E0970140E050E0CE0164
:1009D00085579F4F0E94A615892B09F466C1C756FB
:1009E000DF4F88819981C959D0400196C756DF4FA2
:1009F00088839983C959D040AE0145575F4FBE01E6
:100A00006F577F4FC6010E94C6224CC1632D70E014
:100A1000970140E050E0CE0185579F4F0E94A615F8
:100A2000892B09F442C1C756DF4F88819981C95982
:100A3000D0400196C756DF4F88839983C959D0406B
:100A4000AE0145575F4FBE016F577F4FC6010E94F1
:100A5000E51C28C1632D70E0970140E050E0CE0115
:100A600085579F4F0E94A615892B09F41EC1C756B2
:100A7000DF4FE881F981C959D040CF010196C756AF
:100A8000DF4F88839983C959D040208157C097018F
:100A900040E050E060EF70E0CE0185579F4F0E942C
:100AA000A615892B09F401C1C756DF4F88819981AA
:100AB000C959D0400196C756DF4F88839983C959D9
:100AC000D04086E0E0E0F8E4DE01AD56BF4F019093
:100AD0000D928A95E1F7C557DF4F2881CB58D0405A
:100AE000C457DF4F3881CC58D040C357DF4F4881BF
:100AF000CD58D040C257DF4F5881CE58D040C15753
:100B0000DF4F6881CF58D040C057DF4F7881C05940
:100B1000D040CF56DF4F8881C159D040CE56DF4FED
:100B20009881C259D040A0E00E941C3631F420E0E8
:100B300030E0AE014D565F4FAFC028E7AE014557DC
:100B40005F4FBE016F577F4FC6010E944310AAC07E
:100B5000632D70E09701A501400F511FCE0185570D
:100B60009F4F0E94A51BA1C0632D70E0A701CE017D
:100B700085579F4F0E940732892B09F496C0C756AC
:100B8000DF4FE881F981C959D040CF010196C7569E
:100B9000DF4F88839983C959D0402081AE014557E2
:100BA0005F4FBE016F577F4FC6010E947A067AC021
:100BB000B0E83B127AC0C756DF4F88819981C95986
:100BC000D0400196C756DF4F88839983C959D040DA
:100BD000D701ED91FC911197CF0102968D939C93D3
:100BE0008081C557DF4F8883CB58D04050C0B0E8D4
:100BF0003B125BC0C756DF4F88819981C959D040ED
:100C00000196C756DF4F88839983C959D040D701D1
:100C1000ED91FC911197CF0102968D939C934081A9
:100C2000518120E030E038C0B0E83B123EC0C756EA
:100C3000DF4F88819981C959D0400196C756DF4F4F
:100C400088839983C959D040C557DF4F2882CB5834
:100C5000D0401DC0C557DF4F2882CB58D040C75663
:100C6000DF4F88829982C959D040CF57DF4F188211
:100C70001982C158D040CB57DF4F18821982C5580E
:100C8000D040CD57DF4F68827982C358D04021E0F1
:100C900030E0AE0145575F4FBE016F577F4FC60131
:100CA0000E947A2C800F911F0EC0C756DF4F88819B
:100CB0009981C959D0400196C756DF4F88839983DF
:100CC000C959D040C8018501080F191F0A151B0515
:100CD0004CF48FE490E080930040909301408FEFBC
:100CE0009FEF03C0580184CCC501C656DF4FE2E137
:040CF0000C948333AA
:100CF400A6E2B0E0E0E8F6E00C940A338E8F9F8F12
:100D0400688F798F122FFB010190F081E02DE98724
:100D1400FA87FB01C280D380248135812B8B3C8BE5
:100D24008085918588A399A326803780FA018080E5
:100D34009180A280B38020E030E0A901C501B40114
:100D44000E94EC3787FF06C0B7FAB094B7F8B094A6
:100D54008DE204C0598552FFF0C28BE2F101808319
:100D64002B893C89215031092F83388741E050E099
:100D7400498B5A8B06C08B899C898F839887198AE3
:100D84001A8AD501C401BF770097E0E8AE07EFE700
:100D9400BE07B1F4212F110F330B21543109898976
:100DA4009A89820D931D2A31310518F46BEC77E48E
:100DB40002C06FEC77E40E9443378FEC97E4ADC236
:100DC4000197A048BF47B0F0212F110F330B2154D6
:100DD400310989899A89820D931D2A31310518F4C4
:100DE40063ED77E402C067ED77E40E94433787ED53
:100DF40097E493C220E030E0A901C501B4010E9448
:100E0400EC371B821C82882309F46CC020E82D83F4
:100E14003FE33E8319821A8220E030E040E251E44D
:100E24006B817C818D819E810E941E38F62E072F56
:100E34008D879B87A50194010E94F13718166CF0E9
:100E440049815A814F5F5F4F49835A83FB820C83E8
:100E54005D855D838B858E83DFCF1B861C862B810E
:100E64003C814D815E81C501B4010E94EC3787FF4E
:100E74003FC0E981FA81E43DFE4F04F54B855C8572
:100E8400452BE1F420E030E040E85AE5C501B40127
:100E94000E941E384B015C0120E030E040E85AE536
:100EA4006B817C818D819E810E941E386B837C8343
:100EB4008D839E8381E090E08B879C8720E030E0E7
:100EC40040E251E46B817C818D819E810E941A38BD
:100ED4006B837C838D839E83E981FA813197E983D7
:100EE400FA83BDCFF0E8FD832FE32E8319821A82A3
:100EF400412F110F550B4AA35BA3CA010E943B3734
:100F04008B8FD7FC03C0CDA2DEA204C086E090E0A4
:100F14008DA39EA39B8D973641F4CD2809F012C270
:100F2400E1E0F0E0EDA3FEA30DC28B8D8D8B06C036
:100F340029813A8137FF19C296E69D8BEDA1FEA166
:100F44003196EDA3FEA3FD89F636B9F429813A81E1
:100F540037FF08C01B821C8230E83D834FE34E8379
:100F640019821A825B8D573641F08DA19EA1E981C9
:100F7400FA818E0F9F1F8DA39EA3FB81FB872C817B
:100F84002D873D813E8B4E814A8F750164011C8EF5
:100F94001D8EEC8DFD8D2DA13EA1E217F307B9F155
:100FA4002B853D854E895A8DC701B6010E941A389A
:100FB4000E943D182B013C010E94A6376CA38701B7
:100FC400760117FB109517F910952B853D854E89F1
:100FD4005A8DC301B2010E9404176B017C01F7FA18
:100FE400F094F7F8F09420E030E040E251E46B85AF
:100FF4007D858E899A8D0E941A386B877D878E8BAA
:101004009A8F8C8D9D8D01968C8F9D8FC2CF20E001
:1010140030E040EA50E46B857D858E899A8D0E948C
:101024001E382B013C019B01AC01C701B6010E9493
:10103400EC3787FD0BC0A3019201C701B6010E94E2
:10104400EC37811106C03CA130FD03C0412C512C6A
:101054003201A3019201C501B4010E94A0374B01E2
:101064005C014D89453619F069807A8002C0612C93
:10107400712C23018DA19EA1481A590AC988DA88C6
:1010840000E010E01B861C86E985FA85E071FF27E5
:10109400EE8BFF8B6414750431F4EB85FC85EF2B28
:1010A40009F496C0A1C0CC8EDD8EE88DF98D8085C3
:1010B40091850597C816D90680F72B813C814D810F
:1010C4005E81C501B4010E941A380E943D186D87E3
:1010D4007E878F87988B0E94A637CB012E893F8904
:1010E400232B69F4892B59F43B8D373641F477FE71
:1010F40006C0A8014F5F5F4F4C8F5D8F3FC08B854B
:101104009C85892BA9F477FE13C09FEFC91AD90ACD
:10111400EC8DFD8DE20DF31D2EE220834F81588569
:10112400415051094F83588781E090E08B879C8719
:10113400F101EC0DFD1D0C8F1D8F4C8D5D8D452B2C
:1011440049F090E391932C8D3D8D215031092C8FE2
:101154003D8FF3CFC8018C0D9D1D2F813885201B39
:10116400310B6C015FEFC51AD50AF101E80FF91FC5
:10117400605D6083C90101978F839887850174013D
:1011840017FB109517F910952B813C814D815E81D9
:101194006D857E858F8598890E9404174B015C01BB
:1011A400B7FAB094B7F8B09420E030E040E251E4EC
:1011B4006B817C818D819E810E941A386B837C8334
:1011C4008D839E8391E0691A71080C8D1D8D62CF09
:1011D400F985F4FF09C0F101EC0DFD1D8EE2808359
:1011E40096012F5F3F4F6901A1014C0D5D1D4B8797
:1011F4005C87FA011082FD89F53609F061C0E8A127
:10120400F9A1E20DF31D3197108229813A8137FF4C
:1012140008C031952195310929833A8301E010E012
:1012240002C000E010E0E8A1F9A13197E20DF31D3E
:1012340022E030E08AE0E82EF12CCF0182199309F4
:1012440049815A81452B91F089819A81B7010E9485
:101254006E34805D829369837A83215031094F8192
:101264005885415051094F835887E7CF121613060A
:101274005CF3FC013197E20DF31D012B11F42BE219
:1012840001C02DE220830297B101680F791F2AA1C2
:101294003BA1215431092A31310510F025E601C062
:1012A40025E4FB0120832F813885225031092F83C7
:1012B4003887C816D90624F48B859C850E94433749
:1012C400398531FF29C030FD27C04F815885141658
:1012D400150614F5C1010E94B535820D931D9C01BC
:1012E4002219330949895A89241735074CF0FC011E
:1012F4002081EF81F885E80FF91F20830197EFCF54
:101304004F81588560E370E089899A89820D931D25
:101314000E9412371B8A1C8AC1010E94B5350985B7
:101324001A852B893C89AC01B1018E8D9F8D0E9459
:101334006C24A696E2E10C948333598553FF1BCDAC
:1013440080E20CCD89819A818C3F9F4F5CF029818A
:101354003A814DA15EA1241735070CF4E9CD55E679
:101364005D8B0BCEF5E6FD8B08CE36E63D8B05CEC8
:10137400A0E2B0E0E0ECF9E00C940A338A8F9B8F92
:10138400FB01298320812F8331813C8F82819381CA
:10139400888B998B248135812A873B878085918529
:1013A4008E8B9F8B66807780FA01C080D180E2802B
:1013B400F38020E030E0A901C701B6010E94EC37B8
:1013C40087FF06C0F7FAF094F7F8F0948DE204C0B2
:1013D4005F8152FFE3C28BE2F30180832A853B8560
:1013E400215031092C873D8741E050E04D835E83D5
:1013F40006C08A859B858C879D871D821E82B701C6
:10140400A6017F77E9810E2E000CFF0BEE87FF8784
:1014140041155105F0E86F07FFE77F07A9F42E8512
:101424003F85215431098D819E81860D971D2A3176
:10143400310518F46BED77E402C06FED77E40E9498
:1014440043378FED97E49AC28D819E81860D971D57
:101454004130510560487F4788F02E853F852154EF
:1014640031092A31310518F463EE77E402C067EEDE
:1014740077E40E94433787EE97E480C220E3FC01BF
:101484002083ED81FE813196E60DF71D2D813E818D
:101494002E5F3F4F2D833E834E855F854154510916
:1014A400488F598F4A31510510F088E701C088E50B
:1014B400808320E030E0A901C701B6010E94EC3727
:1014C4001B821C821F8E1982882309F469C050E88C
:1014D40058A38FE38A832F8D398148A15A816F8D58
:1014E400798188A19A810E94A0375B018C01A701B0
:1014F40096010E94F13718160CF447C0EB81FC8169
:101504003196EB83FC83AF8EB98208A31A83E3CFB1
:1015140020E030E040E05FE36F8D798188A19A811B
:101524000E941E3820E030E0A9010E94EC378111AE
:1015340018C020E030E040E85AE56F8D798188A139
:101544009A810E941E386F8F798388A39A8320E042
:1015540030E040E85AE5C701B6010E941E386B012D
:101564007C0120E030E040E05FE36F8D798188A169
:101574009A810E941E386F8F798388A39A832B8166
:101584003C81215031092B833C832F8D398148A123
:101594005A81C701B6010E94EC3787FDB9CF04C058
:1015A40030E838A34FE34A838889998997FF02C0BA
:1015B40088E190E0FC013196E887F9878F8C998067
:1015C400A8A0BA8016018701412C512C9401A501D1
:1015D400B101C8010E941A380E943D186A8B7B8BA6
:1015E4008C8B9D8B9401A5010E941E389B01AC013C
:1015F400B101C8010E949F371B018C0120E030E03B
:1016040040E85DE3B401C5010E941E384B015C0152
:10161400FFEF4F1A5F0A2889398937FF09C020E094
:1016240030E0A901B101C8010E94EC37882331F0F0
:1016340048855985441655064CF202C04886598699
:1016440020E030E040E051E4B401C5010E941E38BE
:101654004B015C019B01AC01B101C8010E94EC3754
:1016640087FD12C0A5019401B101C8010E94EC37A5
:1016740081110DC06A897B898C899D890E94A63756
:1016840061707727672B19F4812C912C5401A501E3
:101694009401C701B6010E94A0376B017C01DC01F3
:1016A400CB01BF770097A048BF4709F4B8CE2C847C
:1016B4003D8482E0281A3108E885F985F195E195A1
:1016C400F109EA8BFB8B0D811E81412C512C1C8668
:1016D4001D86188619862E893F89255031092D8F3C
:1016E4003E8FED8DFE8D0E171F070CF092C02F8DCF
:1016F400398148A15A81C701B6010E941A380E9453
:101704003D184B015C010E94A637AB0161157105C0
:1017140041F4E885F985EF2B21F0FFEF4F1A5F0ABA
:101724004EC02C853D85232B91F4E885F985EF2B5C
:1017340071F0F301E00FF11F2EE2208331E0231A50
:1017440031080F5F1F4FE1E0F0E0EC87FD87F30104
:10175400E00FF11F92012115310529F0A0E3A193B7
:1017640021503109F8CFF801E40DF51DEE87FF870C
:10177400241835084A3051051CF4605D7F4F02C0BF
:10178400695A7F4F288D398D2A31310550F4CB01A8
:101794008062815691094A9720F4CB010E9409374F
:1017A400BC010E851F850F5F1F4FEE85FF85E60D7B
:1017B400F71D608331E0231A3108412C512C2F8D01
:1017C400398148A15A81C501B4010E941E389B0188
:1017D400AC01C701B6010E949F376B017C0120E078
:1017E40030E040E85DE36F8D798188A19A810E94A1
:1017F4001E386F8F798388A39A8348855985415011
:101804005109488759878A899B898417950709F064
:1018140068CF2C853D85232B49F5F301E00FF11F9B
:1018240041145104E1F04889598914161506BCF491
:101834005F8150FD14C08EE28083F8013196E60D7D
:10184400F71DC20120E321930197E9F7040D151D4B
:101854000F5F1F4F40945094240C351C07C08F8198
:1018640084FF04C08EE280830F5F1F4FF301E00FFB
:10187400F11FE887F9871082EE89FF89E60DF71DCD
:10188400319710822B813C8137FF09C03195219516
:1018940031092B833C83EE24E394F12C02C0E12C28
:1018A400F12CEE89FF893197E60DF71D21E030E038
:1018B4008AE0C82ED12CCF01861997094B815C810F
:1018C400452B79F08B819C81B6010E946E34805D3A
:1018D40082936B837C832150310941E0241A3108BF
:1018E400EACF2130310571F3FC013197E60DF71D84
:1018F400E114F10411F42BE201C02DE220830297DC
:10190400B301680F791FE88DF98D7A9710F020E7FD
:1019140001C020E5FB0120830817190724F48885FA
:1019240099850E944337FF81F1FF27C0F0FD25C050
:1019340022E0221A310812141304FCF4C3010E9499
:10194400B535860D971D9C01261937094D815E8199
:10195400241735073CF0FC012081E20DF31D2083A0
:101964000197F1CFA10160E370E08D819E81860D26
:10197400971D0E9412371A861B86C3010E94B53533
:101984000F811C8D2A853B85AC01B3018A8D9B8D0B
:101994000E946C24A096E2E10C9483335F8153FF90
:0619A40028CD80E219CD00
:1019AA00AF92BF92CF92DF92EF92FF920F931F9363
:1019BA00CF93DF9300D0CDB7DEB7F82E0091104851
:1019CA001091114800381105A8F082E090E00E94B9
:1019DA005A2E10921048109211488F2D0E946B3681
:1019EA00882321F081E080935548EAC183E08093FF
:1019FA005548E6C1809155488130A9F038F08230C7
:101A0A0009F421C1833009F490C198C11092104899
:101A1A001092114881E0809355488F2D0E946B36B1
:101A2A00882361F0CDC18F2D0E946B36882309F47B
:101A3A0089C10115110509F090C1C2C181E090E088
:101A4A008093104890931148F0920245B9C10F2E25
:101A5A00F1E9EF2EF3E8FF2EF02D00E010E0680127
:101A6A00AE014F5F5F4F62E075E4D7018D919C91A3
:101A7A000E945C28882381F0C601880F991F880F6D
:101A8A00991F8C0D9D1D8F569C4780930E489093ED
:101A9A000F480B1548F07CC10F5F1F4FB5E0EB0EE6
:101AAA00F11C0B15E0F270C11092544809811A8199
:101ABA00F80180818D3309F06FC181810E946B36F4
:101ACA0081116AC10F5F1F4F81E895E4D82ED01AA1
:101ADA0000936A4710936B47DD2009F459C1E12C42
:101AEA005801D8018C910E94D432F82EF8018193C2
:101AFA008F010E946B36882359F0EE2009F448C101
:101B0A00D5011C92809154488F5F8093544844C1F8
:101B1A00BCE2FB1212C0EE2009F43AC1F801319777
:101B2A001082E0915448EF5FE0935448F0E0EE0FE2
:101B3A00FF1FE659F84B00831183E394DE1409F47E
:101B4A0027C1809154488F3058F222C1E0915448FD
:101B5A00EE23B1F1F0E0EE0FFF1FE859F84B40E039
:101B6A0050E0BE016F5F7F4F808191810E941238E1
:101B7A0060931448709315486130744068F080E0AF
:101B8A0094E0809314489093154884E090E00E9472
:101B9A005A2E1092554814C1E981FA818081811127
:101BAA0008C08CE893E80E94233382E0809355486A
:101BBA0007C184E090E00E945A2E1092554800C155
:101BCA0081E090E00E945A2E10925548F9C0028096
:101BDA00F381E02D22E138E442E050E46AE677E45A
:101BEA008091544809956C0180911248909113484C
:101BFA00892B19F18091164890911748892BE9F0A1
:101C0A000F2EF2E0EF2EF0E4FF2EF02D00E010E0B0
:101C1A00E0911648F0911748D7018D917D010995F9
:101C2A000F5F1F4F809112489091134808171907A8
:101C3A0078F38EE893E80E942333C6010E945A2E55
:101C4A0010925548BDC000911248109113480115D1
:101C5A00110539F48F2D0E946B36882309F4A8C028
:101C6A00AFC080911448909115480817190758F485
:101C7A00C80101968093124890931348F801EE5FC9
:101C8A00FF4BF0829DC08F2D0E946B36882309F48A
:101C9A0044C08EE893E80E942333E0910E48F09105
:101CAA000F480280F381E02D22E138E442E050E45B
:101CBA006AE677E48091544809956C01809112484C
:101CCA0090911348892BF9F0809116489091174802
:101CDA00892BC9F00F2EF2E0EF2EF0E4FF2EF02D43
:101CEA0000E010E0E0911648F0911748D7018D9175
:101CFA007D0109950F5F1F4F8091124890911348FB
:101D0A000817190778F38EE893E80E942333C6016F
:101D1A000E945A2E1092554853C084E090E00E94C7
:101D2A005A2E83E0809355484BC08F2D0E946B3604
:101D3A00882309F445C01092554842C083E0809335
:101D4A0055483EC0C80101968093104890931148A7
:101D5A00F801EE5FFA4BF08233C0C8010196809316
:101D6A00104890931148F801EE5FFA4BF0828EE822
:101D7A0093E80E94233382E095E489839A830E9440
:101D8A002D38B82E811163CECC24C394D12C55CFD3
:101D9A00CC24C394D12C51CF1092124810921348DC
:101DAA00E0910E48F0910F4884818111CFCE0FCF78
:101DBA008091144890911548892B09F4AECF58CFD9
:101DCA000F900F90DF91CF911F910F91FF90EF909D
:0A1DDA00DF90CF90BF90AF90089506
:101DE400A9E0B0E0E8EFFEE00C940A334C011B01DB
:101DF4005A012B834532510524F441E0A416B10461
:101E040039F486E190E080930040909301404DC006
:101E1400009709F44AC0DC01BC91B887BB2309F4DC
:101E240044C08C01E885E03209F493C08E2FEE0F94
:101E3400990B0997059708F48CC028852D3209F071
:101E44008EC0D8011196BC91B8870F5F1F4FE1E097
:101E5400E983E885E03309F095C07801FFEFEF1AD4
:101E6400FF0AD8011196BC91B887C5018F7E892BD2
:101E740009F08AC08B2F8F7D8835F9F4F801F2813F
:101E8400F8878F2F8062082E000C990B81569109D8
:101E9400CF2EFF0FDD084A9708F46CC0C6010E94DC
:101EA400AA34892B09F0D7C04701C12CD12C760163
:101EB4002114310409F049C0DEC0A114B10409F4AD
:101EC400D3C0870121E029878B81882309F467C067
:101ED4009981911169C044244A94542C642C4FE78D
:101EE400742E1A82C12CD12C7601C5010B2C000C46
:101EF400AA0BBB0B8C839D83AE83BF832885206292
:101F0400022E000C330B21563109A8858A2FAA0F03
:101F1400990B2A31310508F04DC00E9409378753C7
:101F24008887E8858E2F0E2E000C990B8A159B0549
:101F34000CF448C04A81442309F480C021143104BC
:101F440009F499C0998591114801D1018D929C920F
:101F540092C00F5F1F4FF801F081F88763CFF885B7
:101F6400FB3231F4D8011196BC91B8870F5F1F4F33
:101F740019826FCFC6010E940937875380310CF450
:101F84008DCF92CF198603C0870141E04987A11400
:101F9400B10409F099CF5AE0A52EB12C95CF442471
:101FA4004A94542C32019DCF412C512C612C20E8B1
:101FB400722E97CFC0970A9708F0BCCFB885B0535C
:101FC400B887AFCFFA81F1112BC02C813D814E81AE
:101FD4005F81C701B6010E945C352E2FEE0F330BD3
:101FE400440B550BDC01CB01820F931FA41FB51FBB
:101FF4008C159D05AE05BF0540F02B812223A1F071
:10200400481659066A067B0678F482E290E08093CB
:10201400004090930140D301C201E1E0EA8304C08F
:10202400D701C601F1E0FA830F5F1F4FF801F08179
:10203400F88721E029876C017D0160CF898188239D
:1020440009F47CCFF094E094D094C094C11CD11CCA
:10205400E11CF11C73CF780142E0E40EF11C1986F7
:1020640090E1A92EB12C05C081E0898788E0A82ED3
:10207400B12C870129CFC701B6012996E2E10C945E
:022084008333A4
:10208600A4E1B0E0E9E4F0E10C940A338F83988789
:1020960069837A834B8B5C8B122FDB011296ED9151
:1020A600FC91139714962D913C9115972D833E83A1
:1020B600CD90DC90119716962D903C901797F7FDD2
:1020C60003C0E894C1F802C0E1E0F0E0C601807107
:1020D600992789879A87C4FE1FC0AB89BC892C9132
:1020E60011963C91119712964C91129713965C910A
:1020F600139714966C91149715967C9115971696CE
:102106008C91169717969C91A0E00E941C3621F0A0
:102116008D819E81029702C08D819E8196012870D5
:1021260033272B873C87C3FC0197AB89BC894C902E
:1021360011965C90119712966C90129713967C905C
:10214600139714968C90149715969C90159716963F
:10215600AC9016971796BC90A981BA811896ED9007
:10216600FC901997B1E0EB1AF108D101AE0DBF1D35
:102176001C928B839C839F01281B390B2D873E87DE
:10218600C601827099278F87988B812F012E000CAC
:10219600990BDC01A154B109A98BBA8B32E0E31685
:1021A600F10434F489859A85892B09F04CC073C0F3
:1021B6009201A301B401C501A0E00E941C3681F181
:1021C600B1E0EB1AF108C2018F7099278A309105A8
:1021D60014F4C09602C0895A9F4FE989FA897A9702
:1021E60048F49C012062215631092A31310510F448
:1021F6000E940937F101EE0DFF1D80832B813C8182
:10220600215031092B833C839201A301B401C501FE
:1022160004E00E94473229013A014B015C01BECF1E
:102226008D859E85AB81BC818A0F9B1F181619066A
:102236003CF21A161B060CF0B5CFEF85F889EF2B8A
:1022460009F0BECFAFCFAB89BC892C9111963C91DA
:10225600119712964C91129713965C9113971496B8
:102266006C91149715967C91159716968C911697E6
:1022760017969C91A0E00E941C3669F0F101EE0DC4
:10228600FF1D31971083B2E0EB1AF108F101EE0D54
:10229600FF1D80E38083EB85FC85EF2B41F0F1E0A9
:1022A600EF1AF108F101EE0DFF1D80E28083A9818E
:1022B600BA8118964D915C911997415051094E1962
:1022C6005F09B1016E0D7F1D86012D813E818F81D3
:1022D60098850E946C249C01EF81F885808191810C
:1022E60090FF09C0A981BA8112968D919C9113978E
:1022F600821793070CF4C9016496E2E10C948333C8
:102306002F923F924F925F926F927F928F929F92FF
:10231600AF92BF92CF92DF92EF92FF920F931F93ED
:10232600CF93DF9300D0CDB7DEB719821A82833000
:1023360008F090C0823021F46031710508F08CC03D
:102346000115110509F48AC02115310509F488C063
:10235600F801E42BF52BE370FF27EF2B09F082C081
:10236600680129015A011B01F82EAE014F5F5F4F2C
:102376000E94B51D811198C029813A81C8018A0D34
:102386009B1D2817390708F46FC0350176946794AA
:102396007694679476946794769467947694679423
:1023A6008FE1A822BB24B694A794B694A794812C57
:1023B600912CA114B10409F5C601881999098097D1
:1023C600E0F0F11005C082E06816710409F45EC001
:1023D6006894EE24E5F88201080D191D20E0462DCB
:1023E600B1018F2D0E94972781115EC080E2880E71
:1023F600911C8FEF681A780A27C0F11008C082E096
:102406006816710421F485E0A816B10479F1689480
:10241600EE24E2F88201080D191D2A2D462DB10180
:102426008F2D0E94972781113FC084E0880E911C52
:102436008FEFA81AB80A88E0A816B10429F48FEF1E
:10244600681A780AA12CB12C8C149D0408F4B1CF1B
:1024560080E02AC082EE28C082EE26C080E024C03A
:1024660082EE22C082EE20C082EE1EC084E0880E7C
:10247600911C0F2EF6E0AF2EB12CF02DE5CF84E0A7
:10248600880E911C8FEFA81AB80ADECF6894EE2446
:10249600E2F88201080D191D2A2D462DB1018F2D56
:1024A6000E949727882359F30F900F90DF91CF91C1
:1024B6001F910F91FF90EF90DF90CF90BF90AF905C
:1024C6009F908F907F906F905F904F903F902F904E
:0224D600089567
:1024D8002F923F924F925F926F927F928F929F922C
:1024E800AF92BF92CF92DF92EF92FF920F931F931A
:1024F800CF93DF93CDB7DEB7A597CDBFDEBF1982E7
:102508001A82833008F0A1C0823021F4603171054D
:1025180008F09DC00115110509F49BC0211531056E
:1025280009F499C0680119012A016CA37DA38BA342
:10253800AE014F5F5F4F0E94B51D81118FC0298189
:102548003A81C801840D951D2817390708F485C0FC
:102558003201769467947694679476946794769427
:102568006794769467946894FF24F5F8812C912CED
:10257800A12CB12C80E2F8121CC089819A819301A8
:10258800220F331F22953295307F3227207F322742
:10259800821B930B809768F442018A0C9B1C9694CB
:1025A80087949694879497E0892299246894FF24C5
:1025B800F2F8EF2C8E010D5F1F4F282D462D6CA1D0
:1025C8007DA18BA10E945B1A811148C0C301880FAD
:1025D800991F880F991F880F991F880D991D880FBB
:1025E800991F880F991F8415950520F4B201681B5F
:1025F800790B02C060E070E08F2D90E0861B970B8E
:1026080086010A191B098017910708F48C0183E0D9
:1026180090E08C0F9D1F680F791FA801C1018A0DDA
:102628009B1D0E946036A00EB11E90E2F91204C0F4
:102638008FEF681A780A03C09FEF891A990AAC14B9
:10264800BD0408F497CF80E009C082EE07C082EE8F
:1026580005C080E003C082EE01C082EEA596CDBF22
:10266800DEBFDF91CF911F910F91FF90EF90DF9028
:10267800CF90BF90AF909F908F907F906F905F901A
:082688004F903F902F90089540
:102690000F931F93CF93DF9340E054E06FE0FA0174
:1026A000608320E234E085E0F901808380E494E0F7
:1026B0007DEAFC017083C0E6D4E01882A0E8B4E0B3
:1026C0001C9200EA14E0F8011082FA01648364E0CD
:1026D000F901648360E8FC0164831C8214961C92F7
:1026E0001497F8011482FA01108A118A128A138A47
:1026F000148A158A168A178AF901108A118A128A91
:10270000138A148A158A168A178AFC01108A118A7C
:10271000128A138A21E0248B158A168A178A188A4E
:10272000198A1A8A1B8A1C8A1D8A1E8A1F8A509639
:102730001C92509751961C92519752961C92529708
:1027400053961C92539754961C92549755961C92EC
:10275000559756961C92569757961C92F801108AD8
:10276000118A128A138A148A158A168A178AE0EE49
:10277000F5E011861182108214821682178210866B
:1027800082E0858312821382128686E398E3809327
:102790003A4890933B4887E398E380933848909376
:1027A000394888E398E3809336489093374889E323
:1027B00098E380933448909335488AE398E3809374
:1027C0003248909333488BE398E38093304890935A
:1027D00031488CE398E380932E4890932F488DE303
:1027E00098E380932C4890932D488EE398E3809350
:1027F0002A4890932B488FE398E38093284890933E
:10280000294880E498E3809326489093274881E400
:1028100098E3809324489093254882E498E380933A
:1028200022489093234883E498E380932048909330
:0C2830002148DF91CF911F910F91089576
:10283C008F929F92AF92BF92CF92DF92EF92FF92C4
:10284C000F931F93CF93DF930F92CDB7DEB74C014D
:10285C000E94F4330F2EF2E4CF2EF4E0DF2EF02D95
:10286C0004E0D6010C930F2EF5E4EF2EF4E0FF2ECE
:10287C00F02D18E0F7011083E1E4F4E010830F2E43
:10288C00F6E4AF2EF4E0BF2EF02DD5010C930083AF
:10289C0061E070E080E090E00E949935F5011083D2
:1028AC00D6010C9361E070E080E090E00E949935D5
:1028BC00F701108361E070E080E090E00E949935B0
:1028CC0008E010E06894FF24F3F8EF2C0F2EF5E4E9
:1028DC00CF2EF4E0DF2EF02DD501EC9261E070E00C
:1028EC0080E090E00E949935F601F08261E070E0A2
:1028FC0080E090E00E9499350150110969F714E0CD
:10290C00109346041093410461E070E080E090E085
:10291C000E9499350F2EF2E4EF2EF4E0FF2EF02DED
:10292C00D7011C9361E070E080E090E00E94993543
:10293C0088E0F70180830E9480320E940E30882349
:10294C0089F0C4010E94B2200E940E30882351F0FD
:10295C006CE677E080E090E00E94F7340E940E3045
:10296C0081111EC0198280915648E0911C48F0914B
:10297C001D480480F581E02D41E050E0BE016F5F01
:10298C007F4F90E00995882369F0E0911C48F09105
:10299C001D480684F785E02D09958111F6CF03C0FB
:1029AC0081EF01C080E00F90DF91CF911F910F91CB
:1029BC00FF90EF90DF90CF90BF90AF909F908F9053
:0229CC0008956C
:1029CE00ADE0B0E0EDEEF4E10C940A3389879A871E
:1029DE006B837C83FA01DB011296CD90DC9013970A
:1029EE0014968D919C9115978D839E83ED90FC90FE
:1029FE001197E982FA8216960D90BC91A02DAF83A5
:102A0E00B8872080318042805380648075808680B4
:102A1E0097808101B42DF52DE62D7B868C869D86C3
:102A2E009101A201B301C401A0E00E941C364CF436
:102A3E000E946C358901B42FF52FE62F7B878C878A
:102A4E009D87D7FC04C0E894E1F8E982FA829101EF
:102A5E00A201B301C401A0E0ED80FE800E941C36ED
:102A6E001CF0898182FF04C081E0E81AF10805C0DC
:102A7E0083FF03C091E0E91AF108CE0101965C01D3
:102A8E008AE0C82ED12C2B2F3F2F4E2F5B856C85C5
:102A9E007D858B819C810E945F16FC019101A201B4
:102AAE00B301C401A0E00E941C361CF0898182FF94
:102ABE0012C031970F8118850E0F1F1F9101A201B1
:102ACE00B301C401A0E00E941C3614F08BE201C0D9
:102ADE008DE2D80108C083FF07C03197AF81B8855A
:102AEE00AE0FBF1F80E28C9309811A81AB81BC812E
:102AFE0018964D915C911997415051094E1B5F0BE1
:102B0E006F8178856E0F7F1F2D813E8189859A8515
:102B1E000E946C249C01E985FA858081918190FF49
:102B2E0009C0AB81BC8112968D919C91139782172F
:0E2B3E0093070CF4C9012D96E2E10C94833349
:102B4C000F931F93CF93DF93FC01D9016838710564
:102B5C0031F194F461387105B1F12CF460387105E0
:102B6C0009F478C09FC06238710509F459C0643803
:102B7C00710509F46FC096C0603A710509F448C03C
:102B8C002CF46039710509F44BC08CC0603C7105A4
:102B9C0009F476C0603F710509F472C083C0CD9111
:102BAC00DC911197CE0102968D939C93452B39F0B5
:102BBC009881892F880F880B908381835BC08881D3
:102BCC008083118268C0CD91DC911197CE0104965F
:102BDC008D939C93452B99F088819981AA81BB8117
:102BEC00AC01BD01770F440B542FBA018083918344
:102BFC00A283B383448345834683478328C00881DB
:102C0C0019812A813B81008311832283338345C040
:102C1C00CD91DC911197CE0102968D939C9323C09C
:102C2C00CD91DC911197CE0108968D939C93788170
:102C3C0069815A814B813C812D819E818F8170836A
:102C4C00618352834383348325839683878381E016
:102C5C0090E02AC0CD91DC911197CE0102968D9314
:102C6C009C93452BA1F099812881892F880F880B83
:102C7C002083918382838383848385838683E6CFB9
:102C8C00CD91DC911197CE0102968D939C93088186
:102C9C001981008311831282138214821582168289
:102CAC001782D5CF80E090E0DF91CF911F910F91EB
:022CBC00089579
:102CBE00A2E1B0E0E5E6F6E10C940A33FC010A8BE2
:102CCE001B832C83732E642E552E462E7D83CC862D
:102CDE00D886AE82BF82868197818A879B87D501EF
:102CEE004D915C91228133818085918501971C01E4
:102CFE0037FF02C021E030E0EA85FB85E80FF91FBF
:102D0E0010824701E1E0F0E0E983FA83C9018E19F0
:102D1E009F098D879E87DA01A270BB27AF87B88B7C
:102D2E00B885BB0FBB0BB98B1214130474F0A981B9
:102D3E00BA81AB2B09F05CC0AE81BF818D919C91A5
:102D4E0011978F7E8D939C9353C02A893B814C8122
:102D5E00572D662D752D842D9D81A0E00E941C3669
:102D6E00B1F1E1E02E1A3108FC85F987AF2EB88457
:102D7E00C988DC2CEC2CFC2C0C2D1C2D2A893B81BB
:102D8E004C81572D662D752D842D9D810E94C33546
:102D9E00C90129839A83EA85FB85E20DF31D805DC7
:102DAE00808381E0881A91082A893B814C81572DB6
:102DBE00662D752D842D9D810E94C5352A8B3B83F2
:102DCE004C83752E662E572E482E9D83ADCF8D8546
:102DDE009E85880D991D181619061CF218141904D3
:102DEE000CF0A5CFEF85F889EF2B09F0BACF9FCF66
:0A2DFE00C1016296E2E10C948333F8
:102E0800A5E1B0E0EAE0F7E10C940A334701580184
:102E18000E941E382B013C01A80197010E94A0378F
:102E2800162FC72ED82EF92E862F9C2DAD2DBF2DEF
:102E380089839A83AB83BC83AA81FB81EC81ED8073
:102E48003E802F8008850D8B5E2F5F71212F3A2FD2
:102E58004F2F60E070E080E090E0211531054105DA
:102E680000E15007610571058105910509F05EC013
:102E78005E2F6E2D732D822D9D8904E30E944732AB
:102E88002D873E874F87588B698B7A8B8B8B9C8BD2
:102E98008D859E8597708F3F974009F447C0A301A1
:102EA8009201612F7C2D8D2D9F2D0E949F379B01B4
:102EB800AC01C501B4010E94EC378823B9F14986F9
:102EC8005A866B867C8629853A854B855C85C50143
:102ED800B4010E94A037B62E872E982EA92E262F31
:102EE800372F482F592F612F7C2D8D2D9F2D0E9414
:102EF800EC37811118C02B2D8B2D982DA92DBA2DAB
:102F080089839A83AB83BC833A814B815C816E2D24
:102F1800732D822D9D89A1E00E942836122FC32E81
:102F2800D42EF52E03C01B2D6401FA2C612F7C2DA5
:0C2F38008D2D9F2D6596E2E10C948333F3
:102F4400AF92BF92CF92DF92EF92FF920F931F93B3
:102F5400CF93DF93CDB7DEB72697CDBFDEBF182F53
:102F64005B016A01790119821A821B821C82B901F0
:102F7400CA010E948B35882309F44FC08FEF810F5B
:102F8400823008F04DC0A114B10409F44CC0BE0154
:102F94006F5F7F4FF501808191810E94C933009753
:102FA40009F046C0123068F0BE016D5F7F4FF50135
:102FB400828193810E948630811117C085E090E060
:102FC40037C069817A81AE014B5F5F4F82E00E9416
:102FD400B51D2D813E812B833C83882331F090E005
:102FE4009160F7011082118238C00B811C81011598
:102FF4001105E1F021C0A601B5018B819C810E94DD
:10300400C926F7018083918380E090E026C0F70110
:103014001082118290E0916020C085E090E01DC094
:1030240083E090E005C085E090E002C085E090E098
:10303400F7011082118211C0F7011082118256012A
:10304400A00EB11E69817A81950140E050E082E0D2
:103054000E946C128111DBCFCECF2696CDBFDEBF8E
:10306400DF91CF911F910F91FF90EF90DF90CF9060
:06307400BF90AF9008952B
:10307A004F925F926F927F928F929F92AF92BF927E
:10308A00CF92DF92EF92FF92CF93DF93CDB7DEB765
:10309A002897CDBFDEBF6B017C01DC01CB0147E184
:1030AA00B695A795979587954A95D1F799278F57FA
:1030BA009109873191059CF597FD36C088248A9439
:1030CA00982C3FE7A32EB12C04C0B594A7949794EB
:1030DA0087948A95D2F7D501C4018C219D21AE210E
:1030EA00BF21892B8A2B8B2BD1F020E030E040E8DE
:1030FA005BE7C701B6010E94A0376D837E838F8389
:10310A009887F7FE04C0C80CD91CEA1CFB1C8094E3
:10311A009094A094B094C820D920EA20FB205C2D7A
:10312A004D2D3E2D2F2D21C020E030E040E85BE7F9
:10313A00C701B6010E94A03769837A838B839C8377
:10314A00F7FE0FC0D701C601880F991FAA1FBB1F20
:10315A00892B8A2B8B2B19F350E040E030E82FEBB8
:10316A0004C050E040E030E020E0652F742F832F48
:10317A00922F2896CDBFDEBFDF91CF91FF90EF90BF
:10318A00DF90CF90BF90AF909F908F907F906F907D
:06319A005F904F900895C4
:1031A000AF92BF92CF92DF92EF92FF920F931F9355
:1031B000CF93DF9300D000D0CDB7DEB7182F5B01DF
:1031C0006A01790119821A82B901CA010E948B35FC
:1031D000882309F442C0123008F053C0A114B1048E
:1031E00009F452C0112369F0BE016F5F7F4FF501F2
:1031F000808191810E948630811117C085E090E026
:1032000048C0AE014D5F5F4F60E070E081E00E941A
:10321000B51D2B813C8129833A83882331F090E0CE
:103220009160F7011082118237C009811A8101155E
:10323000110569F115C0A601B50189819A810E9425
:10324000C926F7018083918380E090E025C0F701D3
:103250001082118290E091601FC085E090E01CC058
:10326000F701108211825601A00EB11E950140E0B7
:1032700050E060E070E081E00E946C128111E7CFC5
:10328000DACF83E090E005C085E090E002C085E001
:1032900090E0F701108211822496CDBFDEBFDF914E
:1032A000CF911F910F91FF90EF90DF90CF90BF9043
:0432B000AF9008953E
:1032B400AF92BF92DF92EF92FF920F931F93CF933F
:1032C400DF9300D000D0CDB7DEB7D82E5B017A01F2
:1032D400890119821A821B821C82B901CA010E94C7
:1032E4008B35882309F443C083E0D81246C0A11467
:1032F400B10409F445C0BE016F5F7F4FF5018081C1
:1033040091810E94C933009709F042C0BE016D5FEC
:103314007F4FF501828193810E948630882399F141
:103324002B813C812115310589F136C0220F331FD1
:103334008217930731F0F8011082118285E090E042
:1033440031C0A701B7010E945327F80110821182EE
:103354000B811C8169817A81970140E050E082E011
:103364000E948311882331F090E091601BC085E0B6
:1033740090E018C080E090E015C083E090E008C0C1
:1033840085E090E005C085E090E002C085E090E033
:10339400F8011082118206C0F801808191810097A2
:1033A40051F2C4CF2496CDBFDEBFDF91CF911F91E0
:0E33B4000F91FF90EF90DF90BF90AF900895C3
:1033C200AF92BF92CF92DF92EF92FF921F93CF9371
:1033D200DF9300D0CDB7DEB76C017B01DB016D91CD
:1033E2007C91FC0182810E940C21811157C0D7017E
:1033F200ED91FC911197A280B38012968D919C91D0
:1034020013970E94DF33182F811142C0F6014181C8
:1034120050E0B601D70112968D919C9113970E94AC
:103422006737182F811134C0B50180E090E00E9407
:10343200F734B6E0CB0ED11C80ECF60111928A95DE
:10344200E9F780EC90E089839A83AE014F5F5F4F8A
:10345200B601D70112968D919C9113970E946E37F7
:10346200182F811115C089819A818430910520F429
:10347200892B69F417EE0CC0C6010E94AE2C182FDE
:10348200811106C0C6010E94122D182F01C016EE2E
:10349200F701828193810E940835812F0F900F904E
:1034A200DF91CF911F91FF90EF90DF90CF90BF906F
:0434B200AF9008953A
:1034B600AF92BF92CF92DF92EF92FF920F931F933C
:1034C600CF93DF93CDB7DEB7C95CD109CDBFDEBFE1
:1034D600F82E6801012BB1F1E0911A48F0911B48D2
:1034E600A080B18084E0E816D9F180E2E8122CC011
:1034F6002EC08F2D8068F82EFC82C853DF4F88813E
:103506009981C85CD0408D839E83BE016F5F7F4FDB
:10351600C5010E94CF3681112BC060911A48709167
:103526001B48CE0101960E94E119182F81110EC089
:103536004E2D50E0BE01685F7F4FC6010E94603687
:10354600812F16C082EE14C082EE12C011C08E0109
:1035560008531F4F8F2D0E94432D811109C0C9CFDB
:103566008E0108531F4F8F2D0E94432D882321F271
:10357600C753DF4FCDBFDEBFDF91CF911F910F91B4
:0E358600FF90EF90DF90CF90BF90AF90089530
:1035940010C00E94B43758F00E94AD3740F029F4AF
:1035A4005F3F29F00C94C83751110C94BC370C942C
:1035B40028380E94633168F39923B1F3552391F3BA
:1035C400951B550BBB27AA2762177307840738F08E
:1035D4009F5F5F4F220F331F441FAA1FA9F335D0EB
:1035E4000E2E3AF0E0E832D091505040E695001C9F
:1035F400CAF72BD0FE2F29D0660F771F881FBB1F59
:10360400261737074807AB07B0E809F0BB0B802D36
:10361400BF01FF2793585F4F3AF09E3F510578F062
:103624000C94C8370C94BC375F3FE4F3983ED4F352
:10363400869577956795B795F7959F5FC9F7880F36
:10364400911D9695879597F90895E1E0660F771F88
:10365400881FBB1F621773078407BA0720F0621B19
:0E366400730B840BBA0BEE1F88F7E0950895E8
:10367200AF92BF92CF92DF92EF920F931F93CF93AD
:10368200DF93CDB7DEB7A097CDBFDEBF6115710561
:1036920009F44AC09C01285031092830310508F04C
:1036A20045C06B015C016894EE24E5F88E010F5F62
:1036B2001F4F20E040E0BC0182E00E945B1A8111B2
:1036C20036C08CE1FE013596D60101900D928A95A5
:1036D200E1F720E041E0B50182E00E945B1A81112E
:1036E20026C089819A81F601848F958F8B819C8176
:1036F200868F978F88E1FE013996D60190960190C8
:103702000D928A95E1F720E042E0B50182E00E9445
:103712005B1A81110CC0D601D89698E0F80101908D
:103722000D929A95E1F703C082EE01C082EEA09657
:10373200CDBFDEBFDF91CF911F910F91EF90DF9050
:08374200CF90BF90AF900895F5
:10374A00CF93DF93DC01F90164387105D9F164F490
:10375A006138710521F16238710509F440C0603899
:10376A00710509F054C02EC060397105C1F184F4A5
:10377A006838710509F04BC0C081D181CE0102962B
:10378A0080839183E881F981ED93FC9340833CC067
:10379A00603A7105B9F0603C7105A1F038C0C0818A
:1037AA00D181CE01029680839183E881F981ED93DC
:1037BA00FC93052E000C660B770B408351836283C2
:1037CA00738322C0C081D181CE0102968083918306
:1037DA00E881F981ED93FC934083518315C0C08140
:1037EA00D181CE01029680839183E881F981ED939C
:1037FA00FC9340835183852F880F880B82838383B0
:10380A00848385838683878381E090E002C080E099
:08381A0090E0DF91CF910895C9
:10382200EF92FF920F931F93CF93DF93CDB7DEB743
:10383200C75CD109CDBFDEBFA0911A48B0911B4829
:10384200ED90FC90982F93708C836D837E839230E1
:1038520048F484E1FA01DE01179601900D928A95EF
:10386200E1F715C09330B1F585FF09C080E4FA0194
:10387200DE01179601900D928A95E1F708C080E269
:10388200FA01DE01179601900D928A95E1F78901FE
:10389200BE016F5F7F4FC7010E94EF3281111FC0CF
:1038A20060911A4870911B48CE0101960E94E1195D
:1038B200811115C00115110579F08F81833270F0E5
:1038C20080E2FE013896D80101900D928A95E1F7C7
:1038D20080E005C082EE03C080E001C080E0C953F1
:1038E200DF4FCDBFDEBFDF91CF911F910F91FF90D0
:0438F200EF900895B6
:1038F6000FC00E94AD3738F00E94B43720F09523F0
:1039060011F00C94C8370C94283811240C94BC3749
:103916000E94633170F3959FC1F3950F50E0551FD8
:10392600629FF001729FBB27F00DB11D639FAA270E
:10393600F00DB11DAA1F649F6627B00DA11D661F5D
:10394600829F2227B00DA11D621F739FB00DA11D7E
:10395600621F839FA00D611D221F749F3327A00D38
:10396600611D231F849F600D211D822F762F6A2FD4
:1039760011249F5750409AF0F1F088234AF0EE0F39
:10398600FF1FBB1F661F771F881F91505040A9F766
:103996009E3F510580F00C94C8370C94BC375F3FAE
:1039A600E4F3983ED4F3869577956795B795F795A2
:1039B600E7959F5FC1F7FE2B880F911D969587951A
:0439C60097F90895D0
:1039CA00A2E0B0E0EBEEFCE10C940A331C014B01DF
:1039DA00FA01DB0112962D913C91139714964D90A2
:1039EA005C9015978D919C91119789839A8316966D
:1039FA006D907C90179737FD03C08D7F89839A83DA
:103A0A0000811181228133814481558166817781C8
:103A1A00FE0131965F0188E0C82ED12C7201C401E3
:103A2A000E945F16298124FF06C00197F301E80F5F
:103A3A00F91F20E32083298123FF06C00197F301A0
:103A4A00E80FF91F20E2208309811A81D401189610
:103A5A004D915C91199741505109481B590BB3017B
:103A6A00680F791F9201C1010E946C249C01F10127
:103A7A008081918190FF08C0D40112968D919C910A
:103A8A001397821793070CF4C9012296E2E10C946A
:023A9A00833374
:103A9C0011C00E94AD3738F00E94B43720F039F4D1
:103AAC009F3F19F426F40C9428380EF4E095E7FBAC
:103ABC000C94C837E92F0E94633158F3BA17620788
:103ACC0073078407950720F079F4A6F50C94BB379F
:103ADC000EF4E0950B2EBA2FA02D0B01B90190011D
:103AEC000C01CA01A0011124FF27591B99F0593F61
:103AFC0050F4503E68F11A16F040A22F232F342FA9
:103B0C004427585FF3CF469537952795A795F040F6
:103B1C005395C9F77EF41F16BA0B620B730B840B0B
:103B2C00BAF09150A1F0FF0FBB1F661F771F881FC3
:103B3C00C2F70EC0BA0F621F731F841F48F487951B
:103B4C0077956795B795F7959E3F08F0B0CF93950D
:0E3B5C00880F08F09927EE0F9795879508952A
:103B6A004115510509F45AC0E0911A48F0911B48D1
:103B7A000280F381E02D0180F281E02D9181911183
:103B8A001BC0813059F018F0823079F049C088E5BD
:103B9A0090E0FA018083918380E0089580E490E0C8
:103BAA00FA018083918380E0089580E290E0FA012F
:103BBA008083918380E00895813059F018F0823033
:103BCA0079F030C080E890E0FA018083918380E048
:103BDA00089580E490E0FA018083918380E008955B
:103BEA006830710538F484E290E0FA0180839183A9
:103BFA0080E008956830710539F480EA91E0FA01AD
:103C0A008083918380E008956031710568F488E4C7
:103C1A0090E0FA018083918380E0089582EE08950E
:0C3C2A0082EE089582EE089582EE089567
:103C3600EF92FF920F931F93CF93DF93FA010081C8
:103C46001181108211820115110509F44AC07A0109
:103C5600EB01188280915648E0911C48F0911D486E
:103C66000680F781E02D41E050E090E00995882339
:103C760051F0E0911C48F0911D480684F785E02D2F
:103C860009958111F6CF48818CEF840F883458F559
:103C9600842F90E00817190740F1AC0141505109F3
:103CA60080915648E0911C48F0911D480680F781A6
:103CB600E02DBE016F5F7F4F90E00995882351F09C
:103CC600E0911C48F0911D480684F785E02D099582
:103CD6008111F6CF888190E0F7018083918380E09F
:103CE60005C08DEE03C084EE01C08DEEDF91CF914D
:0A3CF6001F910F91FF90EF900895C9
:103D0000CF93DF938091050982FF0CC0EBEEF7E4BF
:103D100086E0858783E08487E0E0F9E08581846040
:103D2000858337C080910709882381F08091050938
:103D300084FF0CC0EBEEF7E485E0858781E08487A3
:103D4000E0E0F9E085818061858323C080910809E6
:103D5000882381F08091050984FF0CC0EBEEF7E425
:103D600085E0858782E08487E0E0F9E085818061F5
:103D700085830FC08091050983FF0BC0EBEEF7E44C
:103D800086E0858783E08487E0E0F9E085818860CC
:103D90008583CBEED7E4ED85F0E0EE0FFF1FEC5509
:103DA000FA470190F081E02D09958D878C85882355
:103DB00029F0E0911E48F0911F480995DF91CF91BD
:023DC000089564
:103DC200EF92FF920F931F93CF93DF93823008F00D
:103DD2004AC08901E52EF42EEB01882341F0688167
:103DE200798180E992E80E94122C8823D1F08FE930
:103DF20092E89F938F9385EA92E89F938F9384E052
:103E02008F931F92EF92FF920E948234F801808377
:103E120091838DB79EB708968DBF9EBF80E090E0DC
:103E220027C0688179818AEA92E80E94122C88234D
:103E3200E9F083EB92E89F938F9385EA92E89F9350
:103E42008F9384E08F931F92EF92FF920E948234AD
:103E5200F801808391838DB79EB708968DBF9EBF70
:103E620080E090E005C083E090E002C085E090E051
:0E3E7200DF91CF911F910F91FF90EF90089577
:103E80000F931F93CF93DF93813009F050C0E90166
:103E9000052F142FFB01808191810E94462C8823DD
:103EA00011F090E046C0E0911848F0911948068062
:103EB000F781E02D09958823E9F0E0911848F09109
:103EC000194881818F9380818F9388EB94E89F9329
:103ED0008F9384E08F931F920F931F930E948234DD
:103EE000888399838DB79EB708968DBF9EBF80E06B
:103EF00090E01FC0E0911848F091194881818F939C
:103F000080818F9387EC94E89F938F9384E08F93C5
:103F10001F920F931F930E948234888399838DB7D9
:103F20009EB708968DBF9EBF80E090E002C083E000
:0C3F300090E0DF91CF911F910F91089558
:103F3C000F931F93CF93DF93EC0180911A489091CC
:103F4C001B48892B11F00E94D135E6E0F8E48AE099
:103F5C0098E48083918388EB97E482839383BF01F9
:103F6C00CE010E94D02D81113CC086E098E4809354
:103F7C001A4890931B488981833091F5209106480B
:103F8C00309107482F5F3F4F01E010E043E150E0D4
:103F9C0060E070E080E00E946C128823A9F088EB4E
:103FAC0097E40E941E14E0911A48F0911B4820815E
:103FBC0031812F5F3F4F43E150E060E070E080E0E3
:103FCC000E946C1281110DC0E0911A48F0911B48AF
:103FDC000190F081E02D8181887F818380E001C098
:0C3FEC0080E0DF91CF911F910F910895AC
:103FF8001F920F920FB60F9211240BB60F922F93A8
:104008003F934F935F936F937F938F939F93AF9358
:10401800BF93CF93DF93EF93FF938091050984FDBE
:1040280007C08091050982FD03C08091050983FDC1
:104038000E94801E80910509882324F0809105093B
:1040480086FF1CC08091050984FD08C08091050980
:1040580082FD04C08091050983FF03C00E94801E71
:104068000DC0CBEED7E4ED85F0E0EE0FFF1FEC5569
:10407800FA470190F081E02D09958D87FF91EF9126
:10408800DF91CF91BF91AF919F918F917F916F9168
:104098005F914F913F912F910F900BBE0F900FBEE4
:0640A8000F901F90189517
:1040AE00E0915948F0E0EE0FFF1FEE5FFB4B1082E0
:1040BE0011828091210882FF11C0E0915948F0E0F1
:1040CE00EE0FFF1FEE5FFB4B808182608083E091DD
:1040DE004448F0914548309709F0099580912108A0
:1040EE0081FF0CC0E6E4F8E4808181608083E0917A
:1040FE004048F0914148309709F009958091210888
:10410E0086FF11C0E0915948F0E0EE0FFF1FEE5F01
:10411E00FB4B808184608083E0914248F09143485C
:10412E00309709F0099590912008E0915948EF5F7A
:10413E00EF7780915848E81759F0E0935948F0E02E
:10414E00EE57FA4B9083809157488F5F8093574874
:06415E000E9410360895D6
:104164000F931F93CF93DF93CDB7DEB72597CDBFC2
:10417400DEBF0E940E388C011D8280915648E0916A
:104184001C48F0911D480480F581E02D41E050E089
:10419400BE016B5F7F4F90E00995882351F0E09159
:1041A4001C48F0911D480684F785E02D099581117E
:1041B400F6CFF8016289738980E090E00E94993516
:1041C40080915648E0911C48F0911D480680F78183
:1041D400E02D44E050E0BE016F5F7F4F90E0099511
:1041E400882351F0E0911C48F0911D480684F7851E
:1041F400E02D09958111F6CF64E070E0CE010196BF
:104204000E949D282596CDBFDEBFDF91CF911F91DF
:044214000F91089569
:10421800CF93DF93EB019881913009F43FC090F080
:10422800923019F0933029F033C054E1E1EFF4E80B
:1042380040C099819832B1F19836C1F156E1EFE664
:10424800F4E837C02FEF3FEF2A833B835EE0E6E6D2
:10425800F5E89081891311C008C0F9012D5F3F4F1F
:10426800D90113974C9148130CC0818192818A839C
:104278009B83019659F482EF21C09F012D5F3F4F28
:1042880090E09F5F951748F382EF18C080E016C052
:104298008FEF9FEF8A839B8382EF10C053E1EDE29B
:1042A800F5E807C056E1EDE2F4E803C056E1EBEEAD
:1042B800F3E82FEF3FEF2A833B83CBCFDF91CF91FA
:0242C800089557
:1042CA001F920F920FB60F9211240BB60F922F93D3
:1042DA003F934F935F936F937F938F939F93AF9384
:1042EA00BF93EF93FF935C9B05C0E0913A48F0912E
:1042FA003B4809955F9B05C0E0913848F0913948E1
:10430A000995599B05C0E0913648F09137480995BF
:10431A00589B05C0E0913448F091354809955B9B5C
:10432A0005C0E0912E48F0912F4809955A9B05C087
:10433A00E0912C48F0912D4809955D9B05C0E091CC
:10434A002048F091214809958FEF8BB9FF91EF91A1
:10435A00BF91AF919F918F917F916F915F914F9193
:10436A003F912F910F900BBE0F900FBE0F901F9091
:02437A00189594
:10437C00E0915F48F0E0EE0FFF1FEE5FF94B10820B
:10438C0011828091610882FF11C0E0915F48F0E0DA
:10439C00EE0FFF1FEE5FF94B808182608083E0910E
:1043AC005048F0915148309709F009958091610877
:1043BC0081FF0CC0E2E5F8E4808181608083E091AC
:1043CC004C48F0914D48309709F00995809161085F
:1043DC0086FF11C0E0915F48F0E0EE0FFF1FEE5F2B
:1043EC00F94B808184608083E0914E48F0914F4876
:1043FC00309709F0099590916008E0915F48EF5F64
:10440C00EF7380915E48E81759F0E0935F48F0E055
:10441C00EE53F94B908380915D488F5F80935D489C
:02442C000895F1
:10442E00AF92BF92DF92EF92FF920F931F93CF93B3
:10443E00DF9300D0CDB7DEB7D82E5B017A018901AC
:10444E0019821A82B901CA010E948B35882361F143
:10445E00F80110821182F1E0FD1548F1DF120BC058
:10446E00BE016F5F7F4FF501808191810E94C9333C
:10447E00009711F502C019821A825701F0E4AF0EAF
:10448E00B11CB50189819A810E942337811112C016
:10449E00A701B50180E490E00E94C926F80180834F
:1044AE00918380E090E008C085E090E005C083E055
:1044BE0090E002C090E091600F900F90DF91CF914D
:1044CE001F910F91FF90EF90DF90BF90AF900895E6
:1044DE00AF92BF92DF92EF92FF920F931F93CF9303
:1044EE00DF9300D0CDB7DEB7D82E5B017A018901FC
:1044FE0019821A82B901CA010E948B35882359F19B
:10450E00F801808191818038910529F01082118205
:10451E0085E090E028C0F80110821182F2E0DF12EF
:10452E001DC0BE016F5F7F4FF501808191810E949A
:10453E00C9330097C1F4A701B70180E890E00E944B
:10454E005327B70189819A810E947223882349F0EB
:10455E0090E0916008C085E090E005C083E090E0B7
:10456E0002C080E090E00F900F90DF91CF911F91ED
:0E457E000F91FF90EF90DF90BF90AF900895E7
:10458C00A2E0B0E0ECECF2E20C940A333C014B01FB
:10459C00FA01DB0112962D913C91139714964D90D4
:1045AC005C9015978D919C91119789839A8316969F
:1045BC002D903C90179737FD03C08D7F89839A838C
:1045CC0000811181228133814481558166817781FB
:1045DC00FE0131965F018AE0C82ED12C7201C40114
:1045EC000E945F1609811A81D40118964D915C9135
:1045FC00199741505109481B590BB101680F791F8C
:10460C009201C3010E946C249C01F3018081918171
:10461C0090FF08C0D40112968D919C91139782172C
:0E462C0093070CF4C9012296E2E10C9483334B
:10463A000F931F93CF93DF93CDB7DEB7C75CD10932
:10464A00CDBFDEBF41155105F1F1E0911A48F09155
:10465A001B48008111818C836D837E838823ACF48F
:10466A0080E2FA01DE01179601900D928A95E1F730
:10467A0021153105A9F080E2F901DE019796019032
:10468A000D928A95E1F741E00CC0FA01808191818F
:10469A008F8398878281938189879A8740E001C0B6
:1046AA0040E04170BE016F5F7F4FC8010E949B339B
:1046BA0081110AC060911A4870911B48CE01019677
:1046CA000E94E11901C082EEC953DF4FCDBFDEBFA0
:0A46DA00DF91CF911F910F91089519
:1046E400AF92BF92CF92DF92EF92FF920F931F93FC
:1046F400CF93DF93CDB7DEB7C056D109CDBFDEBFB0
:104704006115710589F15C019E012F5F3F4F80E6C1
:10471400F90111928A95E9F780E2FB01DE01159611
:1047240001900D928A95E1F7FB01B09680E2DE01DB
:10473400999601900D928A95E1F76901F12C68949C
:10474400EE24E5F8860120E04F2DB50182E00E94B9
:10475400972781110AC0F394F0E2CF0ED11C83E0B5
:10476400F812EDCF80E001C082EEC05ADF4FCDBF1A
:10477400DEBFDF91CF911F910F91FF90EF90DF90FB
:08478400CF90BF90AF900895A3
:10478C00CF93DF93C0E2D8E08D818F778D8387E55F
:10479C0090E280933C4890933D488D818F7D8D8332
:1047AC008CE992E380933E4890933F4881E493E0F8
:1047BC008887998780ED8D8380EC8E8383E08F834F
:1047CC001B861C861E861D8684E498E380934448D1
:1047DC009093454885E498E38093424890934348EE
:1047EC0086E498E3809340489093414884E396E3B1
:1047FC000E94D837109246481092474810925C4855
:10480C0010925B4880E480935A4810925948109259
:10481C005848109257488D8180688D830E941036BD
:06482C00DF91CF91089519
:10483200AF92BF92DF92EF92FF920F931F93CF93AB
:10484200DF9300D0CDB7DEB7D82E5B017A018901A4
:1048520019821A82B901CA010E948B35882339F163
:10486200F80110821182F1E0DF1224C0BE016F5FF5
:104872007F4FF501808191810E94C9330097F9F43D
:104882005701F0E4AF0EB11CB50189819A810E94F3
:10489200391B811112C0A701B50180E490E00E948A
:1048A200C926F8018083918380E090E008C085E00A
:1048B20090E005C083E090E002C090E091600F902C
:1048C2000F90DF91CF911F910F91FF90EF90DF90AA
:0648D200BF90AF900895B5
:1048D800A0E1B0E0E2E7F4E20C940C335C013B01A8
:1048E8006A017901280181E04822552400FD14C09D
:1048F800421753078CF487010C191D094801A801B8
:104908000131110510F040E150E060E270E0CE01A5
:1049180001960E9412370AC0A601B301C5010E9480
:104928006332CE14DF043CF3C60120C00031110508
:1049380058F040E150E0BE016F5F7F4FC5010E9413
:10494800633200511109F2CFA4014F705527BE01FF
:104958006F5F7F4FC5010E9463324114510429F4EF
:10496800A601B301C5010E946332C7016096E0E168
:044978000C948533E3
:10497C0088249924F401E401B0E49F93AA279A15A2
:10498C008B049C04ED05FE05CF05D007A10798F418
:10499C00AD2FDC2FCF2FFE2FE92D982C892E982FA1
:1049AC00872F762F652F542F432F322F2227B85065
:1049BC0031F7BF9127C01B2EBF91BB27220F331F8E
:1049CC00441F551F661F771F881F991F881C991C31
:1049DC00EE1FFF1FCC1FDD1FAA1FBB1F8A149B04D9
:1049EC00EC05FD05CE05DF05A007B10748F08A18D8
:1049FC009B08EC09FD09CE09DF09A00BB10B216066
:104A0C001A94E1F62EF49401AF01BE01CD01000C15
:024A1C000895FB
:104A1E0040E068ED80E690E00E94D33740E068ED1C
:104A2E0081E690E00E94D33740E068ED85E690E0A5
:104A3E000E94D33740E068ED88E790E00E94D337BC
:104A4E0044E268ED88E690E00E94D33740E068EDDE
:104A5E0089E690E00E94D33740E068ED80E790E071
:104A6E000E94D33740E068ED8CE790E00E94D33788
:104A7E0040E068ED82E690E00E94D33740E068EDBA
:104A8E0083E690E00E94D33740E068ED84E690E044
:104A9E000E94D33740E068ED80E890E00E94D33763
:0C4AAE00E0E6F0E0858181FFFDCF089577
:104ABA00AF92BF92CF92DF92EF920F931F93CF9351
:104ACA00DF9300D000D0CDB7DEB78031910550F525
:104ADA006115710549F15B016C016894EE24E2F8F5
:104AEA008E010F5F1F4F26E042E060E070E080E039
:104AFA000E945B1A811119C02A8130E0322F2227C5
:104B0A009981292B41E050E002C0440F551FCA94F5
:104B1A00E2F72423352391E0232B09F090E0F501F5
:104B2A00908303C082EE01C082EE2496CDBFDEBF21
:104B3A00DF91CF911F910F91EF90DF90CF90BF90AF
:044B4A00AF9008958B
:104B4E000F931F93CF93DF93CDB7DEB7C75CD10919
:104B5E00CDBFDEBF8901E0911A48F0911B4820813C
:104B6E0031818C836D837E834115510539F0FA01B5
:104B7E00808191818F83988782818987BE016F5F43
:104B8E007F4FC9010E944C3581111AC060911A489D
:104B9E0070911B48CE0101960E94E119811110C03F
:104BAE000115110569F09F81933449F490E4FE01DB
:104BBE003896D80101900D929A95E1F701C086EED4
:104BCE00C953DF4FCDBFDEBFDF91CF911F910F9144
:024BDE00089538
:104BE000E0E6F8E085818F7785838EEB91E2809314
:104BF00048489093494885818F7D858388EB92E36F
:104C000080934A4890934B4881E493E08087918752
:104C100080ED858380EC868383E08783138614860A
:104C20001686158687E498E3809350489093514800
:104C300088E498E380934E4890934F4889E498E342
:104C400080934C4890934D4810925248109253488C
:104C5000109262481092614880E4809360481092FC
:104C60005F4810925E4810925D4885818068858318
:024C70000895A5
:104C72000F931F93CF93DF93DB012D913C911197FB
:104C820030FF25C016964D915C91179714962D9181
:104C92003C9115974217530778F41296ED91FC91C7
:104CA2001397808312962D913C9113972F5F3F4F5C
:104CB20012962D933C93139716962D913C9117972C
:104CC2002F5F3F4F16962D933C93179715C01C9656
:104CD200ED91FC911D97309719F48FEF9FEF0CC067
:104CE2008B01EC010995892BC1F7F8018681978127
:104CF200019686839783CE01DF91CF911F910F9109
:024D0200089512
:104D0400EF92FF920F931F93CF93DF93F82E8A01B4
:104D1400E901B901CA010E948B35882361F182E05F
:104D2400F81629F01882198283E090E029C0A801BE
:104D3400B801888199810E9453278032F9F478015F
:104D440080E4E80EF11CA701B80180E090E00E9425
:104D5400DC2B81110BC0A801B70180E490E00E9414
:104D6400C9268883998380E090E00AC0188219825A
:104D740090E0916005C085E090E002C085E090E09D
:0E4D8400DF91CF911F910F91FF90EF90089556
:104D92008F929F92AF92BF92CF92DF92EF92FF9249
:104DA2000F931F93CF93DF936115710529F100973C
:104DB20031F15A016C01EA014B017B01E80EF91E47
:104DC2008401F40181914F0182958F700E9498377E
:104DD2008883F80180818F700E9498378983229698
:104DE2008E149F0469F7CC0CDD1CF501EC0DFD1D42
:104DF20010828C2D9D2D05C080E090E002C080E0E5
:104E020090E0DF91CF911F910F91FF90EF90DF9093
:0C4E1200CF90BF90AF909F908F900895BC
:104E1E001F920F920FB60F9211240BB60F922F9373
:104E2E003F934F935F936F937F938F939F93AF9324
:104E3E00BF93EF93FF93189B05C0E0912A48F09122
:104E4E002B480995199B05C0E0912848F0912948F7
:104E5E0009951A9B05C0E0912648F09127480995BF
:104E6E001B9B05C0E0912448F091254809958FEFD2
:104E7E0083B9FF91EF91BF91AF919F918F917F91E8
:104E8E006F915F914F913F912F910F900BBE0F90AD
:084E9E000FBE0F901F90189544
:104EA600AF92BF92CF92DF92EF92FF921F93CF9372
:104EB600DF936115710531F18230910530F15C01A6
:104EC600B694A79481709927A80EB91EA114B104AF
:104ED600F9F06A01EB017A01CA0CDB1C88810E9499
:104EE6000934182F1295107F89810E940934812B6D
:104EF600F70181937F012296EC15FD0579F78A2D3E
:104F06009B2D08C080E090E005C080E090E002C0E4
:104F160080E090E0DF91CF911F91FF90EF90DF90BE
:084F2600CF90BF90AF900895F9
:104F2E00CF92DF92EF92FF920F931F93CF93DF9367
:104F3E0000D0CDB7DEB7F82E6801012B99F084E0D2
:104F4E00E816E9F080E2E8120FC010C08F2D8068DD
:104F5E00F82E69817A8120E030E0A6018F2D0E9423
:104F6E001D2315C082EE13C082EE11C08E010F5F9D
:104F7E001F4F8F2D0E94432D811109C0E7CF8E0147
:104F8E000F5F1F4F8F2D0E94432D882311F30F901B
:104F9E000F90DF91CF911F910F91FF90EF90DF90C7
:044FAE00CF90089503
:104FB2000F931F93CF93DF93CDB7DEB7C75CD109B1
:104FC200CDBFDEBF4115510549F18A01282FE0917D
:104FD2001A48F0911B48808191812C836D837E83D6
:104FE200BE016F5F7F4F0E94D93681111AC0609156
:104FF2001A4870911B48CE0101960E94E119811155
:1050020010C08F81833461F480E4FE013896D801A8
:1050120001900D928A95E1F780E003C082EE01C013
:1050220086EEC953DF4FCDBFDEBFDF91CF911F9117
:045032000F9108953D
:10503600DF92EF92FF920F931F93CF93DF937A0144
:105046008901DA011C92D12CCDE0DAE01AC08D2D4F
:1050560090E0FC01EE0FFF1FEE0FFF1F8E0F9F1F4C
:10506600FC01EF56FC4760817181C7010E94E43460
:10507600F70101900020E9F73197C083D1831282AE
:10508600D3940E942D38D81610F3F7010190002012
:10509600E9F73197EE19FF09D801ED93FC9380E00B
:1050A60090E0DF91CF911F910F91FF90EF90DF90ED
:0250B60008955B
:1050B800AF92BF92CF92DF92EF92FF921F93CF935E
:1050C800DF935C016B017A01FC01D081DD23A9F03B
:1050D80080E090E010E0F601E80FF91F80810E945F
:1050E800D4328D131BC01F5F812F90E0F501E80FAC
:1050F800F91FD081D111EFCF02C080E090E0E60126
:10510800C80FD91F88818D3321F00E946B36882300
:1051180031F0F701C083D18381E001C080E0DF91E5
:10512800CF911F91FF90EF90DF90CF90BF90AF90FD
:025138000895D8
:10513A000F931F93CF93DF93CDB7DEB72897CDBFD9
:10514A00DEBFAC0194E0998321E12A8323E32B8318
:10515A0023E42C839D8397E09E8394EC9F8390E4C1
:10516A00988764307105B9F48A0144E050E0BE01C1
:10517A006F5F7F4FC8010E94D134892B71F044E0E0
:10518A0050E0BE016B5F7F4FC8010E94D134892B6A
:10519A0031F080ED05C080ED03C080E001C087EDED
:1051AA002896CDBFDEBFDF91CF911F910F91089551
:1051BA00CF93DF9300D00F92CDB7DEB719821A8250
:1051CA00813029F56115710529F1FB01BE016F5F77
:1051DA007F4F808191810E94C933009719F5BE01E2
:1051EA006D5F7F4F89819A810E945D25882319F01E
:1051FA0090E0916017C08B8181110FC089819A81DB
:10520A000E941B37882361F090E091600BC083E015
:10521A0090E008C085E090E005C080E090E002C020
:10522A0080E090E02396CDBFDEBFDF91CF91089555
:10523A000F931F93CF93DF93CDB7DEB7C75CD10926
:10524A00CDBFDEBF8C01E0911A48F0911B488081E6
:10525A0091811C821D821E82BE016F5F7F4F0E9458
:10526A00C53681111AC060911A4870911B48CE0147
:10527A0001960E94E119811110C09F81933261F455
:10528A000115110551F090E2FE013896D8010190FE
:10529A000D929A95E1F701C086EEC953DF4FCDBF53
:0C52AA00DEBFDF91CF911F910F9108959E
:1052B600CF93DF93823089F5EB01888199810E9433
:1052C600462C882311F090E02DC06A817B8181EB0A
:1052D60094E80E94122C882361F0E0911848F0911E
:1052E60019480480F581E02D81E0099580E090E081
:1052F60019C06A817B8184EB94E80E94122C882372
:1053060079F0E0911848F09119480480F581E02D74
:1053160080E0099580E090E005C083E090E002C05F
:0A53260085E090E0DF91CF9108953B
:10533000CF92DF92EF920F931F93CF93DF93CDB76E
:10534000DEB7A097CDBFDEBF009719F16C0168945E
:10535000EE24E5F88E010F5F1F4F20E040E060E093
:1053600070E080E00E945B1A811114C029813A81AB
:10537000F601208331832B813C8122833383D60144
:10538000149695E0FE01399601900D929A95E1F7F9
:1053900001C082EEA096CDBFDEBFDF91CF911F91FD
:0A53A0000F91EF90DF90CF90089579
:1053AA001F920F920FB60F9211240BB60F922F93E2
:1053BA003F934F935F936F937F938F939F93AF9393
:1053CA00BF93EF93FF93399B05C0E0913248F09168
:1053DA0033480995389B05C0E0913048F09131482F
:1053EA0009953A9B05C0E0912248F0912348099516
:1053FA008FEF87B9FF91EF91BF91AF919F918F91F5
:10540A007F916F915F914F913F912F910F900BBEBA
:0A541A000F900FBE0F901F90189521
:10542400CF93DF93813061F4FB016081718186EB5E
:1054340095E80E94122C811107C085E090E029C0F4
:10544400823010F5D0E001C0D1E080E090E00E940D
:105454005A2E0E948A37882371F00E94C731C82FC0
:10546400D11102C0843099F00E9483378823E1F37C
:105474008C2F0E94A6310E947C37882351F30E940E
:10548400D3300E94AD30E5CF83E090E002C080E0ED
:0854940090E0DF91CF91089533
:10549C008091F4479091F547019731F4E0E0F9E001
:1054AC0084818460848305C0E0E0F9E084818B7F93
:1054BC008483EBEEF7E4818592850197818792874F
:1054CC00892B79F0A781B085CD01019687839087D0
:1054DC00E0E0F9E080858C9384818260848384E0B1
:1054EC000895EBEEF7E4A781B085CD010196878393
:1054FC009087E0E0F9E080858C93848184608483DC
:06550C000E9485310895A4
:10551200A0E1B0E0EFE8FAE20C941633FB01BA0125
:10552200AE014F5F5F4F7A0140E1D7011D924A956C
:10553200E9F742E051E049835A838B839C83F7FF6A
:1055420009C08FE490E080930040909301408FEF78
:105552009FEF14C0A9018C013197ED83FE83C7012F
:105562000E9453334F8158852D813E814217530744
:1055720008F49A01F801E20FF31F10826096E6E048
:045582000C948F33C3
:10558600A0E1B0E0E9ECFAE20C941633FB01BA01B3
:10559600AE014F5F5F4F7A0140E1D7011D924A95F8
:1055A600E9F742E051E049835A838B839C83F7FFF6
:1055B60009C08FE490E080930040909301408FEF04
:1055C6009FEF14C0A9018C013197ED83FE83C701BB
:1055D6000E946B334F8158852D813E8142175307B8
:1055E60008F49A01F801E20FF31F10826096E6E0D4
:0455F6000C948F334F
:1055FA00AC01FA0190814F5F5F4F9032D1F3292FAE
:10560A00092E000C330B295031092530310588F356
:10561A009B3209F540E050E0319602C040E050E08C
:10562A0080E090E06AE02191022E000C330B2053B7
:10563A0031092A30310548F4689FD001699FB00DBD
:10564A001124CD01821B930BEECF452B49F4919582
:10565A008195910908959D3209F741E050E0DCCF28
:02566A000895A1
:10566C00EF92FF920F931F93CF93DF93F82EEA01E3
:10567C008901B901CA010E948B358823E9F0F11028
:10568C001EC07E0189E0E80EF11CC7010E9498291A
:10569C0081110CC0AE01B70189E090E00E94C926CF
:1056AC00F8018083918380E090E00BC0F8011082B8
:1056BC00118290E0916005C085E090E002C083E02B
:1056CC0090E0DF91CF911F910F91FF90EF90089593
:1056DC00EF92FF920F931F93CF93DF937A01009772
:1056EC0011F1EB018B01080F191F20E030E016C0FF
:1056FC00A32FAA1FAA27AA1F220F331F71E09B2FCB
:10570C00952309F470E07A1719F085E028273058B2
:10571C00550F319769F7C017D10739F0B991E8E007
:10572C00F0E051E0E5CF20E030E0F7012083318359
:0E573C00DF91CF911F910F91FF90EF90089594
:10574A008F929F92AF92BF92CF92DF92EF92FF9287
:10575A000F931F93CF93DF935C016B017A01490189
:10576A000E94F835811115C0CBEED7E481E0888319
:10577A00A982BA828B87CB82DC82ED82FE828F82FB
:10578A00988609871A871C860E9400378D8781E0D0
:10579A0001C080E0DF91CF911F910F91FF90EF90B0
:0E57AA00DF90CF90BF90AF909F908F900895AA
:1057B800DF92EF92FF920F931F93CF93DF938C01A9
:1057C800EB017A0180E090E00E941D2981111EC042
:1057D800E0911A48F0911B480190F081E02D8081FA
:1057E800833029F46894DD24D5F880E402C0D12CF4
:1057F80080E040E250E0BE010E941E34811106C0E4
:10580800A701B8018D2D80680E94D927DF91CF911B
:0C5818001F910F91FF90EF90DF9008951A
:10582400EF92FF920F931F93CF93DF937C018B0131
:10583400FC01C081CC23A9F080E090E0D0E0F80125
:10584400E80FF91F80810E94D4328C1315C0DF5FEA
:105854008D2F90E0F701E80FF91FC081C111EFCF40
:1058640002C080E090E0F801E80FF91F81E0908128
:10587400992319F080E001C080E0DF91CF911F915E
:085884000F91FF90EF900895D1
:10588C00CF92DF92EF92FF920F931F93CF93DF9300
:10589C007C0102E417E4C0E0D0E0B701F80180819C
:1058AC0091810E94122C882379F0CE01880F991FC8
:1058BC00880F991F880F991F8E5B984B80931848FF
:1058CC009093194880E007C02196085F1F4FC530A0
:1058DC00D10519F785E0DF91CF911F910F91FF90C2
:0858EC00EF90DF90CF900895CA
:1058F400A7E0B0E0E0E8FCE20C9410335C017A012C
:10590400C90127E0E9EFF7E4DE01119601900D9259
:105914002A95E1F7FB01C280D380848095800081C1
:105924001181452B21F49E012F5F3F4F7901009790
:1059340019F4C7010E94B535D7FC04C0C816D906AE
:1059440008F4C6019401AC01B701C5010E946C249E
:085954002796ECE00C94893366
:10595C00EF92FF920F931F93CF93DF9300D0CDB7AD
:10596C00DEB77C01FC0100818EEF800F082F10E068
:10597C00AE014F5F5F4FB701C8010E946E2BF7015C
:10598C00E00FF11F99818081981309C0F701E00F96
:10599C00F11F9A818181981304C080E003C085EEC9
:1059AC0001C085EE0F900F90DF91CF911F910F9159
:0659BC00FF90EF9008953A
:1059C2000F931F93CF93DF93EC018B0189819A810F
:1059D2000E94682FF801808191818B839C83828150
:1059E20093818D839E83848195818F83988786811D
:1059F200978189879A87808591858B879C87848503
:105A020095858F87988B828593858D879E878089E0
