:100000006FC10000A3C10000A1C100009FC100009A
:100010009DC100009BC100000C94582E97C10000A8
:100020000C947A2B0C94692E91C100008FC10000B2
:100030008DC100008BC1000089C1000087C1000094
:1000400085C1000083C100000C94652C7FC10000B5
:100050007DC100007BC1000079C1000077C10000B4
:100060000C94712B73C1000071C100006FC10000BE
:100070006DC100006BC100000C94742B0C94432BD9
:100080000C94CD2C0C948F2C61C100000C946B2B24
:100090005DC100005BC1000059C1000057C10000F4
:1000A00055C1000053C100000C943B2C4FC100000F
:1000B0004DC100000C94772B0C946E2B47C10000AF
:1000C00045C1000043C1000041C100003FC1000024
:1000D0003DC100000C94CD2B0C94C82B0C94D22B5A
:1000E00035C1000033C1000031C100002FC1000044
:1000F0002DC1000008000000BE922449123EABAAA8
:10010000AA2ABECDCCCC4C3E00000080BEABAAAA31
:10011000AA3E00000000BF000000803F0000000079
:1001200000084178D3BB4387D1133D190E3CC3BDB2
:100130004282AD2B3E68EC8276BED98FE1A93E4C5F
:1001400080EFFFBE01C4FF7F3F00000000006E6132
:100150006E00696E660000407A10F35A00A0724E7D
:1001600018090010A5D4E80000E87648170000E45C
:100170000B54020000CA9A3B000000E1F5050000A4
:1001800080969800000040420F000000A086010009
:100190000000102700000000E803000000006400D9
:1001A000000000000A000000000001000000000044
:1001B0002C76D888DC674F0823DFC1DFAE59E1B168
:1001C000B796E5E3E453C63AE651997696E8E6C277
:1001D0008426EB898C9B62ED407C6FFCEFBC9C9F7E
:1001E00040F2BAA56FA5F490055A2AF75C936B6CA0
:1001F000F9676DC11BFCE0E40D47FEF520E6B50094
:10020000D0ED902E0300943577050080841E080001
:1002100000204E0A000000C80C333333330F986EB1
:1002200012831141EF8D2114893BE65516CFFEE66E
:10023000DB18D1844B381BF77C1D901DA4BBE42434
:10024000203284725E228100C9F124ECA1E53D27B1
:100250006364696E6F70737578585B00546F6F4498
:10026000656570004E6F4D656D6F727900496E76F1
:10027000616C6964496E70757400496E636F6D706E
:100280006C657465496E70757400456D707479495C
:100290006E707574004F6B00000020410000C84272
:1002A00000401C4620BCBE4CCA1B0E5AAEC59D74F5
:1002B000CDCCCC3D0AD7233C17B7D13877CC2B32E5
:1002C0009595E6241FB14F0A95028A027A026D02C3
:1002D00064025C0200080A400CFFC000C000023249
:1002E00011241FBECFEFCDBFDFE7DEBF80914000FE
:1002F00080934000811105C098ED21E094BF2093C8
:1003000041008CBB23E6AAE8B1E501C01D92A634EA
:10031000B207E1F711E5A0E0B0E4E6EFFDE700E0A9
:100320000BBF02C007900D92AA38B107D9F711E0B0
:10033000C0E7D1E004C02197FE010E944039CF36CA
:10034000D107C9F70E94AF320C94F93E59CEFB0198
:10035000A485B585ED91FC9111970190F081E02D78
:10036000682FCD01099590E080E00895F0CF1092BC
:100370005958E091D157F091D257309709F009942C
:1003800008959FB7F894E0912A0BF0912B0B809180
:10039000260B2091CD573091CE574091CF57509199
:1003A000D0579FBF80FF08C0EC3E8CE2F80720F4D6
:1003B0002F5F3F4F4F4F5F4F0F01169407941694D6
:1003C00007941694079416940794F00116940794D2
:1003D000E00DF11D16940794102C16940118169434
:1003E000010C169401181694010C16940118169419
:1003F0001694010C1124E019F109A8EEB3E00E9453
:1004000048376E0F7F1F811D911D08958F929F9217
:10041000AF92BF92CF92DF92EF92FF924B015C01BD
:10042000B0DF6B017C01ADDF6C197D098E099F097E
:10043000683E734081059105B0F321E0821A91086E
:10044000A108B10888EEC80E83E0D81EE11CF11C9B
:1004500081149104A104B10431F7FF90EF90DF9073
:10046000CF90BF90AF909F908F900895CF93DF93E0
:10047000F0E0E0E0DB0111975DE0E617F70709F433
:1004800044C0F8942091255F3091265F2F5F3F4F45
:1004900031702093255F3093265FEC012991CE01C6
:1004A000C091255FD091265FCB5DD24A28832091F1
:1004B000235D3091245D2F5F3F4F2093235D309368
:1004C000245DEA17FB07F1F44423E1F02091255F56
:1004D0003091265F2F5F3F4F31702093255F30931F
:1004E000265FC091255FD091265FCB5DD24A5883AD
:1004F0002091235D3091245D2F5F3F4F2093235D3A
:100500003093245D78943196B8CF549B06C061E057
:1005100070E080E090E07ADFF8CF8091250880627B
:1005200080932508DF91CF9108952FB7F8946091BB
:10053000CD577091CE578091CF579091D0572FBF04
:1005400008958091A90486FF05C00C94000080E402
:100550008093A9040895AF92BF92CF92DF92EF9259
:10056000FF920F931F93CF93DF936C017B018B015D
:10057000040F151FEB015E01AE18BF08C017D107AD
:1005800059F06991D601ED91FC910190F081E02D37
:10059000C6010995892B79F7C501DF91CF911F918C
:1005A0000F91FF90EF90DF90CF90BF90AF900895A4
:1005B00090E0FC01E65EFD4B20812F3F69F18D5BF1
:1005C0009D4BFC018081E82FE295EE0FE07EE20F6B
:1005D000F0E0E05FFB4F9081917F908390E0FC0121
:1005E00034E0EE0FFF1F3A95E1F7422F50E061E053
:1005F00070E001C0660F2A95EAF76383880F991FA0
:10060000FC01E25FFF4B440F551F0190F081E02D8C
:10061000E40FF51F108211820895282F30E0F901B0
:10062000E65EFD4B90819F3F59F1433051F14430DC
:1006300051F143E02D5B3D4BD901EC91F0E0DF013E
:10064000AA0FBB1FA25FBF4B2D913C912115310515
:10065000B9F0A92FB0E0AA0FBB1FA20FB31F6D9373
:100660007C939F0155E0220F331F5A95E1F7E0E19B
:10067000E90FE20FF0E0FC5F8081887F842B8083AC
:10068000089542E0D7CF41E0D5CFFC015589468996
:10069000252F30E0842F90E0821B930B541710F02D
:1006A000CF96089501970895FC019389848998173E
:1006B00061F0A489AE0FBF2FB11D57968C9194891C
:1006C0009F5F9F73948B90E008958FEF9FEF089545
:1006D0000F931F932ADF6093996170939A618093BF
:1006E0009B6190939C6181E991E6DEDF97FF1CC0DE
:1006F0001CDF0091996110919A6120919B6130916A
:100700009C61601B710B820B930B009195611091A2
:100710009661209197613091986160177107820707
:10072000930708F38FEF9FEF1F910F910895FC013E
:1007300093898489981731F08489E80FF11D87899E
:1007400090E008958FEF9FEF0895FC01938924892D
:10075000892F90E0805C9F4F821B91098F739927AE
:100760000895CF93DF93EC01E881F9810680F7814A
:10077000E02D0995EC85FD8586811682858115829F
:1007800080E484838C898B8B1A8ADF91CF910895C2
:100790008F929F92AF92BF92FF920F931F93CF932E
:1007A000DF938C014A015B01D22FC32FDC015296EB
:1007B0008C91529780FF07C0ED91FC910288F389DC
:1007C000E02DC8010995D11101C0D3E0FD2EE894B8
:1007D000F2F8DC2FD095D07CB1E68B16B3EE9B06F9
:1007E000B6E1AB06B10428F0D260B694A794979412
:1007F000879460E078ED88EB95E0A50194010E9474
:100800001539C9012034310510F480E490E03C2F03
:100810003B72D7FD30684D2F487C30FD41605FB79B
:10082000F894D8011C96ED91FC911682F78280878E
:10083000918735FF8FC04F7781E084878FEF858761
:100840003F7D3583D683F8012189C08986859785C8
:10085000FC0133E0239FE00DF11D1124659174919B
:100860002C1708F059C0272F46FF76C0793288F43C
:1008700030E0F901E459FD4BA081AF3F51F02D5B11
:100880003D4BF901308120E2329FF0011124FC5FE1
:10089000A18347FF2AC021E0270F293230F530E03D
:1008A000F901E459FD4BD081DF3FF9F0F901ED5B2F
:1008B000FD4BA081F0E2AF9FD0011124BC5F265E0A
:1008C0003D4BF9011081F0E0E0E0183030F49D017B
:1008D000205F3F4FF901E10FF11D3FB7F8941296E9
:1008E000DC932081286020833FBF40FF15C023E0B8
:1008F000270F293288F430E0F901E459FD4B40819B
:100900004F3F51F02D5B3D4BD901EC91B0E2EB9F95
:10091000F0011124FC5F4183FC0123E0C29FE00D44
:10092000F11D1124319625913491F901FF27EE51E3
:10093000FA4F9081832F80958923682B60835FBF56
:10094000DF91CF911F910F91FF90BF90AF909F903B
:100950008F900895148674CF342F307509F499CF91
:10096000793208F096CF30E0F901E459FD4BD0819F
:10097000DF3F09F48ECFF901ED5BFD4BA081E0E292
:10098000AE9FD0011124BC5F265E3D4BF901108162
:10099000F0E0E0E0183030F49D01205F3F4FF901B6
:1009A000E10FF11D3FB7F8941296DC932081286087
:1009B00020833FBF6ECFFC010FB607FE04C08091BD
:1009C00011018823A9F0A485B58514968C911497FC
:1009D00085FF0EC095898689981739F015968C91F8
:1009E00015978F7D15968C930895E8940C94DD2BC4
:1009F00008950F931F93CF93DF93EC018A89982F6B
:100A000091609A8B2D899E8929130AC0EC85FD85FA
:100A1000948195FF05C081FD0DC080E4848312C0E0
:100A2000062F1D891F5F1F738E89811315C0CE018C
:100A3000C2DFFACF85818F77806490E49483EC8560
:100A4000FD858583EC85FD85628381E090E0DF9103
:100A5000CF911F910F910895ED89EC0FFD2FF11D9E
:100A6000E95AFF4F00831D8BEC85FD858A8981FF44
:100A700009C085818F77806690E49483EC85FD853D
:100A80008583E3CF85818062FBCFCF93DF93EC0139
:100A90008A8980FF0BC0EC85FD85858185FD03C0BB
:100AA000848186FD03C0CE0186DFF5CFDF91CF9133
:100AB000089581E00895CF92DF92EF92FF92CF9355
:100AC000DF93EC016A017B0160E07BE187EB90E062
:100AD000A70196010E94153980ECC81687E2D80656
:100AE00089E0E806F10438F0285031092230310558
:100AF00064F422E00AC080E8C8168AE1D80686E0DD
:100B0000E806F10410F129503109E881F981868164
:100B1000821799F093811382268381E8C8168AE1AF
:100B2000D80686E0E806F104D8F0808182608083F0
:100B3000938390FF02C081E0858380E0DF91CF91B5
:100B4000FF90EF90DF90CF9008952C503109223024
:100B500031057CF22F3F3105C1F2BCF22FEFD5CF2A
:100B600080818D7FE4CFDC011A96ED91FC911B977B
:100B7000309731F015968C91882311F090E009940C
:100B80000895CF93DF93FC01A081B1811B968C91D6
:100B90001B97982F9C7029F01D968C9115821482BA
:100BA00029C086FF2AC0EF0180FF1DC081FF11C050
:100BB0001D968C918383CF01D6DF1C821F82E8852E
:100BC000F985309709F00995E881F98183E08287FA
:100BD00011C01D968C911D9783831582168283E028
:100BE0001A968C9307C080E41B968C93CF01BBDFD1
:100BF0001D821E82DF91CF91089587FFFBCF81FF79
:100C000022C084FF09C0828187FF06C08F7782835C
:100C100082E01A968C93C3CF828180688283C781D9
:100C20008481C81770F4CE0FDF2FD11D8C851D96DF
:100C30008C931D9783E01A968C9387818F5F8783AF
:100C4000D9CF82E0CDCF1D969C911D9785818238AA
:100C500068F4DF01A80FB11DA257BF4F9C93858197
:100C60008F5F85830190F081E02DB0CF86E01A96EA
:100C70008C9315821682BECFCF93DF93DC01ED916A
:100C8000FC9111978581837009F444C0838180FFB2
:100C900041C030E020E090E04581842F83702F5FD9
:100CA0003F4F213C5DE5350750F0823079F18130CE
:100CB00079F184E093E09483DF91CF910895542FEC
:100CC0005C7021F08CE0858382E1F4CF813041F4C7
:100CD00013968C9113978E7F878330E020E0DCCFD2
:100CE0008230D1F646FFD8CF44FF04C0992311F3D8
:100CF00083E0E0CF14968C911497981768F4ED0177
:100D0000C90FD11D8C8580879F5FE7CF85E0D2CF4B
:100D100081E1D0CF80E1D0CF80E0662369F2CACFF5
:100D2000DC011C96ED91FC919381818513821186E3
:100D3000938391E09583818708959C0126563F4FC8
:100D4000DC015296EC91529751968C91E81730F451
:100D5000E20FF32FF11D808190E008958FEF9FEF58
:100D60000895FC01DC01A656BF4F9289818998172E
:100D700040F4A90FB11D2C919F5F928B822F90E0C0
:100D800008958FEF9FEF0895FC0181899289891B57
:100D9000990B0895CF92DF92EF92FF920F931F93DA
:100DA000CF936C014338510510F042E850E0C42F56
:100DB0007B0110E000E00C1780F4D7016D917D01FC
:100DC000D601ED91FC910190F081E02DC6010995CD
:100DD00098012F5F3F4F892B49F4C801CF911F9194
:100DE0000F91FF90EF90DF90CF9008958901E3CFAE
:100DF000FC01A089A23858F4A80FB92FB11D58964C
:100E00006C9380898F5F808B81E090E0089590E003
:100E100080E0089560E0ECCFCF93DF93DC01660FB4
:100E20001F966C931F9752961C9252971C96ED91A9
:100E3000FC911D978581837009F440C061606783D0
:100E400030E020E090E080E072E05581652F637033
:100E50002F5F3F4F213CCDE53C0728F4C52FCC70D8
:100E600059F09CE0958351968C93DF91CF91089532
:100E700030E020E097E0E9CF9923C9F0623099F79C
:100E8000948357FF17C08238A8F72085ED01C80F5B
:100E9000D11DC656DF4F28838F5F242F433808F0BB
:100EA00022E8821728F7748330E020E0CECF62304A
:100EB00061F6E7CF56FFC9CF93E0C7CF80E0D5CF2B
:100EC00090E080E008955C9B09C0549B08C080912D
:100ED00025088F7D8093250880E18BB90895809146
:100EE00025088062F7CF8091250885FD0DC05499B3
:100EF0000BC08091235D9091245D892B29F0809116
:100F0000250880628093250808958091A45581303A
:100F100071F08091585881110AC080915E5A909169
:100F20005F5A8E3F914010F44F9808954F9A08955C
:100F3000CF93DF9380915E5A90915F5A892BE9F0AD
:100F4000F894C0915C5AD0915D5A2196D170C093AB
:100F50005C5AD0935D5A80915E5A90915F5A019786
:100F600080935E5A90935F5A7894CFDFC45AD74AE1
:100F7000888190E0DF91CF9108958FEF9FEFFACFB6
:100F80008F929F92AF92BF92CF92DF92EF92FF9299
:100F90000F931F93CF93DF93C82F6A017B01C8DFA4
:100FA0008C01C3DA4B015C01D0E0C017D107D9F046
:100FB000BFDF8C0198DFB9DA681979098A099B09C2
:100FC0006C157D058E059F0580F380E0DF91CF9144
:100FD0001F910F91FF90EF90DF90CF90BF90AF9057
:100FE0009F908F90089581E0F1CFF89410925E5A0F
:100FF00010925F5A80915A5890915B5880935C5A36
:1010000090935D5A789481CF81E0809356580895EB
:10101000DC01ED91FC910088F189E02D23E030E0C6
:1010200009948091536085FF0CC0E0915160F0916C
:10103000526086FF13821682809153608F7D809369
:1010400053608091536086FF0FC0E0915160F09132
:10105000526085FF13821486118616868091536034
:101060008F7B80935360118290E080E0089585EF3C
:1010700090E00895CF92DF92EF92FF920F931F932B
:10108000CF93DF937A018901F9014081518185E491
:1010900090E6C2DE90E0F80180839183E7016E0163
:1010A000CE18DF08F80180819181C816D90640F476
:1010B00085E490E656DE8F3F9807A1F38993EFCF42
:1010C00090E080E0DF91CF911F910F91FF90EF9022
:1010D000DF90CF90089590E080E008951F93CF9324
:1010E000DF93DA01FB01EB01C80FD91F30E020E0EC
:1010F000CE17DF0739F42C9311963C93DF91CF91F3
:101100001F910895819168E070E091E0132F111F05
:101110001127111F220F331F41E0582F592309F4C3
:1011200040E0411719F045E024273058990F6150ED
:10113000710961F7DDCFBC016F5F7F4FFC018181D9
:10114000825090E0AB01480F591FC8CF009771F053
:10115000DC01ED91FC91309749F02081318181E0F3
:101160002130310529F02830310511F080E0089553
:101170000895009779F0DC01ED91FC91309751F0E2
:1011800020813181C9010497029730F081E022303B
:10119000310519F080E0089581E00895009761F02D
:1011A000DC011296ED91FC91309749F00084F185B5
:1011B000E02D309721F0099482EE90E008958DEFB4
:1011C00090E00895009761F0DC011296ED91FC919A
:1011D000309749F00680F781E02D309721F009948F
:1011E00082EE90E008958DEF90E00895CF93DF9325
:1011F0000097D9F0DC011296ED91FC91139730978E
:10120000C9F00480F581E02D3097A1F00D90BC91DC
:10121000A02DCD91DC911197CD2B21F46F3F11F4CE
:1012200014966C91DF91CF91099482EE90E0DF915A
:10123000CF9108958DEF90E0FACF009759F0DC013F
:10124000ED91FC91309731F080819181892B11F4DF
:10125000848108958FEF0895009741F0DC01ED91AE
:10126000FC91309719F082819381089580E290E09B
:10127000089580339CF08A3324F08F3524F08B3727
:1012800024F481E0089581344CF08B35D4F393ED50
:10129000980F81E09230B0F380E008958B32B9F777
:1012A000F0CFFC01848581110AC0A185B285CD01F2
:1012B0000196818792878C91838781E084878385DB
:1012C00008951F93CF93DF93EC01162FEADF81136C
:1012D00006C01C8681E0DF91CF911F91089580E0C8
:1012E000FACFCF93DF93EC01CE01DBDF8B303CF400
:1012F00089304CF4882349F081E0888710C08D3014
:1013000011F08032C9F71C86EFCF888581110AC0A1
:1013100081E090E0C15BDF4F8883998380E0DF91BB
:10132000CF91089582E090E0F5CF089580917E53AB
:1013300090917F53826080937E5390937F53089562
:1013400080917E5390917F53846080937E539093DD
:101350007F53089580917E5390917F53886080934E
:101360007E5390937F53089580917B538F5F8F714D
:1013700080937B53E0917B5384E0E89FF00111243C
:10138000E650FD4A20833183428353830895809140
:10139000690482FF0CC080917E5390917F538061DD
:1013A00080937E5390937F5384E0809369040895E3
:1013B000FC0124813581A9014F5F5F4F86819781B0
:1013C0004817590748F48281938144835583FC016F
:1013D000E20FF31F608308950190F081E02D81E01A
:1013E000808708959F92AF92BF92CF92DF92EF9243
:1013F000FF920F931F93CF93DF93CDB7DEB725975F
:10140000CDBFDEBF8C014DDFD82ED8011C961C92BB
:10141000F12CE12C60EFC62EC80143DFF8011486E1
:10142000D81609F4B7C0811117C0F801E15BFF4F6E
:1014300082E090E08083918380E02596CDBFDEBF7F
:10144000DF91CF911F910F91FF90EF90DF90CF90A0
:10145000BF90AF909F9008958C3509F099C0C80156
:1014600020DF882311F3E2EDF2E4853709F084C030
:10147000D8011C961C9254E0952EB12CA12CC801C9
:1014800010DF882391F281344CF48053803148F08E
:10149000F801E15BFF4F83E090E0CCCF8F7D875375
:1014A000F5CF44E0AA0CBB1C4A95E1F7A82AF80145
:1014B00014869A949110E3CFC501985D81159440EC
:1014C00020F4750123E0F222A7CFC5019C5D8115B0
:1014D0009440A0F4B3E0BB22B701762F6627770FC4
:1014E000770F6A297B2990E080E0019660387105CA
:1014F0008105910538F4C8015BDF8ECFB50190E01E
:1015000080E0F4CF1982262F2F7320682A8326E0EB
:1015100096958795779567952A95D1F760327105ED
:1015200078F4606C6B835E01E4E0AE0EB11CD50113
:101530006E915D01662309F46FCFC80139DFF7CFE3
:10154000262F2F7320682B8386E0769567958A95E2
:10155000E1F76031710538F4606E6C835E01F5E08F
:10156000AF0EB11CE4CF60686C83CD825E0126E0D3
:10157000A20EB11CDCCF32969081992309F488CF5A
:101580008913F9CF8181882309F482CFF801148669
:10159000682FB1CF0190F081E02D8085882331F054
:1015A000F801E15BFF4F84E090E044CF81E045CF5C
:1015B0004F925F926F927F928F929F92AF92BF9263
:1015C000CF92DF92EF92FF920F931F93CF93DF930F
:1015D000EC018B0188818B32C9F18D32C1F52196E6
:1015E000FF24F394888190ED980F9A3018F08E3292
:1015F00009F04DC160E070E0CB01FE012191A0ED4A
:101600008A2E820E39E0381520F16A3949E97407CB
:10161000840749E1940738F5AAE0B0E09B01AC01EA
:101620000E944837912CB12CA12C24013501409403
:10163000509460947094461657066806790698F0A0
:10164000680D791D8A1D9B1DEF01D7CF2196F12CC6
:10165000C9CF211108C0FF20F1F16130710581056A
:1016600050E89507A0F0E12CEAE08E2E912CA12CF9
:10167000B12C61157105F0E88F079105C0F1A50146
:1016800094010E941539CA01B901E394F2CFF8011F
:10169000248120782A6024839B01AC018827992724
:1016A000DC01821B930BA40BB50B80839183A28377
:1016B000B3838F2DDF91CF911F910F91FF90EF900A
:1016C000DF90CF90BF90AF909F908F907F906F9062
:1016D0005F904F900895F80124812078286024833A
:1016E0006083718382839383FF24F394E2CFFE01AE
:1016F000299130ED320F3A3010F4E394F8CF2E32C6
:10170000F1F4EF012196FE012196208150EDD52EB6
:10171000D20E29E02D1598F06C3C3CEC73073CE0B0
:101720008307910580F7AAE0B0E09B01AC010E941D
:1017300048376D0D711D811D911DEA94E4CF208104
:101740002F7DD0E0C0E0253409F05DC021812D322D
:10175000D9F53296CC24C394DF01D0E0C0E02E2D21
:101760000E2C000C330B4AE0B42EFD01DD9040ED51
:101770004D0D4A3008F042C0BC9EA001BD9E500DE8
:101780001124CD2DDD0CDD0BE097C40FD51FAE016C
:10179000420F531F4732510544F3F8018481CC2096
:1017A000D1F040E050E060E070E8F11003C040E0AC
:1017B00050E0BA0180788C60F801848340835183C3
:1017C00062837383FC2C75CF2B3219F03196C12CB8
:1017D000C3CF3296FCCF40E050E060E87FEFF110DD
:1017E00004C040E050E060E87FE780788C60F8015A
:1017F0008483408351836283738376CFCC2019F036
:10180000D195C195D1092081211141C0CE0DD11DA5
:10181000E7FCDA950E9430361C161D0604F5E12C13
:10182000C0FF0CC024E0E29EF0011124E856FD4FF9
:1018300025913591459154910E949136D595C79542
:10184000E394209769F7F1109058F80124812078EB
:101850002C602483608371838283938345CFD195E9
:10186000C195D109E12C209771F3C0FF0CC044E071
:10187000E49EF0011124E055FD4F259135914591ED
:1018800054910E949136D595C795E394ECCFF12CF5
:1018900010CFCF92DF92EF92FF92CF93DF93CDB72D
:1018A000DEB72597CDBFDEBFFC0184818F77863000
:1018B000B1F028F48430F8F490E080E012C08A306F
:1018C00021F08C3019F18830B9F780819181A281A3
:1018D000B381009721E0A207B10518F0EDCF808118
:1018E00090E02596CDBFDEBFDF91CF91FF90EF90C6
:1018F000DF90CF900895808191811D82BE016F5F3E
:101900007F4F56DECE010196C4DFEBCFC080D18081
:10191000E280F38020E030E0A901C701B6010E9417
:101920005A3887FDC9CF20E03FEF4FE757E4C701A2
:10193000B6010E942C3618160CF4BECFC701B601B2
:101940000E942E38CB01CDCFFC01892B31F0848150
:101950008F77843029F0853019F090E080E0089589
:10196000808191810895CF93DF93DC01EB01EC81BD
:10197000FD818A819B810896E817F90740F481E090
:101980008887F0E0E0E0CF01DF91CF9108953897AC
:10199000EC83FD833097B9F31296CD91DC911397C8
:1019A000209791F0CF018C1B9D0B23E09595879597
:1019B0002A95E1F78D831296ED93FC931397158288
:1019C000148216821782DFCFED93FC931197F3CF29
:1019D000EF92FF920F931F93CF93DF937C01DC0173
:1019E00012962D913C911397ED91FC91AB01420F12
:1019F000531FEF01C60FD71FC217D307A0F488816A
:101A000081110BC0E901CF014C175D0751F009911D
:101A1000DC011D91CD010117B9F381918111FDCF39
:101A2000E8CF309751F4620F731FCB010196F70195
:101A300082839383DB011C92F901CF01DF91CF9167
:101A40001F910F91FF90EF900895CF93DF93CDB743
:101A5000DEB72E97CDBFDEBF86EB91E089879A87F0
:101A60001B861C8682E08C838B899C898D879E8750
:101A7000AE01495E5F4F63EE72E4CE0101960E94B3
:101A80009B2E2E96CDBFDEBFDF91CF910895209182
:101A90002A6230912B6212161306B4F49F938F932F
:101AA0008AEE92E49F938F9383EE92E49F938F93B9
:101AB000809129628F93809128628F93C6DF8DB7C2
:101AC0009EB708968DBF9EBF089520912A623091DF
:101AD0002B6223303105B4F09F938F9383EF92E410
:101AE0009F938F9383EE92E49F938F9380912962CB
:101AF0008F93809128628F93A8DF8DB79EB7089649
:101B00008DBF9EBF089520912A6230912B622230B2
:101B10003105B4F09F938F938BEF92E49F938F9353
:101B200083EE92E49F938F93809129628F938091AB
:101B300028628F938ADF8DB79EB708968DBF9EBFB0
:101B40000895CF93DF93CDB7DEB72E97CDBFDEBF1D
:101B500087EA91E089879A871B861C8682E08C83BE
:101B600080912862909129628D879E87AE01495E9F
:101B70005F4F6D897E89CE0101960E949B2E2E9625
:101B8000CDBFDEBFDF91CF910895CF92DF92EF926C
:101B9000FF920F931F93CF93DF93CDB7DEB72E97AE
:101BA000CDBFDEBF6B8D7C8DEDB6FEB680912A6217
:101BB00090912B6204970CF442C0CDB6DEB6FB01C7
:101BC00001900020E9F7CF010197861B970B9C013C
:101BD000275F3F4F4DB75EB7421B530B4DBF5EBFF4
:101BE0000DB71EB70F5F1F4F29E0E3E0F3E4D80104
:101BF00001900D922A95E1F7EDB7FEB73A9601975D
:101C000010F01192FCCFC80108960E94743B87EA3D
:101C100091E089879A871B861C8682E08C8380915D
:101C20002862909129628D879E87AE01435E5F4F47
:101C3000B801CE0101960E949B2ECDBEDEBEEDBE48
:101C4000FEBE2E96CDBFDEBFDF91CF911F910F91CB
:101C5000FF90EF90DF90CF900895CF92DF92EF92B8
:101C6000FF920F931F93CF93DF93CDB7DEB72E97DD
:101C7000CDBFDEBF6B8D7C8DEDB6FEB680912A6246
:101C800090912B62181619060CF042C0CDB6DEB644
:101C9000FB0101900020E9F7CF010197861B970B0C
:101CA0009C01275F3F4F4DB75EB7421B530B4DBFA3
:101CB0005EBF0DB71EB70F5F1F4F29E0EAEEF2E4DB
:101CC000D80101900D922A95E1F7EDB7FEB73A964B
:101CD000019710F01192FCCFC80108960E94743B46
:101CE00087EA91E089879A871B861C8682E08C832D
:101CF00080912862909129628D879E87AE01435E14
:101D00005F4FB801CE0101960E949B2ECDBEDEBE74
:101D1000EDBEFEBE2E96CDBFDEBFDF91CF911F91EF
:101D20000F91FF90EF90DF90CF9008958230910552
:101D300019F1C4F4009721F181309105D9F09F93F6
:101D40008F938CE093E49F938F9388E292E69F9326
:101D50008F9383DF0F900F900F900F900F900F9045
:101D600088EC08958330910549F08430910539F766
:101D70008AE0089581E0089582E0089583E008955F
:101D800080E00895CF92DF92EF92FF920F931F931E
:101D9000CF93DF93CDB7DEB72E97CDBFDEBF6B8D70
:101DA0007C8DEDB6FEB680912A6290912B620397EE
:101DB0000CF442C0CDB6DEB6FB0101900020E9F77D
:101DC000CF010197861B970B9C01285F3F4F4DB7B2
:101DD0005EB7421B530B4DBF5EBF0DB71EB70F5F03
:101DE0001F4F28E0E3EFF2E4D80101900D922A950D
:101DF000E1F7EDB7FEB73996019710F01192FCCFDD
:101E0000C80107960E94743B87EA91E089879A8708
:101E10001B861C8682E08C838091286290912962C7
:101E20008D879E87AE01435E5F4FB801CE0101965C
:101E30000E949B2ECDBEDEBEEDBEFEBE2E96CDBF59
:101E4000DEBFDF91CF911F910F91FF90EF90DF9058
:101E5000CF9008954F925F926F927F928F929F9250
:101E6000AF92BF92CF92DF92EF92FF920F931F93A8
:101E7000CF93DF93CDB7DEB7162F4A0139014DB6A8
:101E80005EB6FC0101900020E9F731977F01E81A66
:101E9000F90AA7014F5F5F4F2DB73EB7241B350BE3
:101EA0002DBF3EBFEDB7FEB731965F016F01BC019C
:101EB000CF010E94893BF501EE0DFF1D108200232A
:101EC00081F0602F002E000C770BC5010E94603B53
:101ED000009791F0FC016F0181910817E1F38032C6
:101EE000D1F36CE270E0C6010E94603B760101E034
:101EF000009721F4112381F080E032C0101790F098
:101F00007C01FFEFEF1AFF0A6CE270E0C7010E944C
:101F1000603B0F5F009791F7F60101900020E9F711
:101F2000CF010197FC0110826DE070E0C7010E94B3
:101F3000603B009711F0FC011082F7010190002036
:101F4000E9F73197EE19FF09E615F70520F082E36E
:101F500093E49DDDD1CFB701C4010E94743B81E0C1
:101F60004DBE5EBEDF91CF911F910F91FF90EF901C
:101F7000DF90CF90BF90AF909F908F907F906F90A9
:101F80005F904F900895CF92DF92EF92FF920F9360
:101F90001F93CF93DF936C01FC0101900020E9F7C0
:101FA0003197E81BF90B93EEE92E9BE5F92ED0E073
:101FB000C0E08F011127A801B701C6010E944A3B6A
:101FC000892B99F485E0CC0FDD1F8A95E1F7CD517F
:101FD000D44A1C8E1E8E1F8EDF91CF911F910F91C0
:101FE000FF90EF90DF90CF900895219680E2E80E69
:101FF000F11CCA30D105F9F6EFCF8F929F92BF92B4
:10200000CF92DF92EF92FF920F931F93CF93DF93C4
:102010008C017B01B42EFC0101900020E9F731977F
:10202000DE2ED81A912C812CE40135E0CC0FDD1F77
:102030003A95E1F7CD51D44A8C8DD81216C0BE0125
:10204000C8010E946B3B892B81F4EE8EFF8EBD8E02
:1020500081E0DF91CF911F910F91FF90EF90DF9082
:10206000CF90BF909F908F9008952FEF821A920A81
:102070008AE088169104C1F690E080E0EC0125E04A
:10208000CC0FDD1F2A95E1F7CD51D44A6E01ACE1AA
:10209000CA0ED11C2C8D21110EC0B801CE010E9498
:1020A000743BF80101900020E9F73197E01BF10B38
:1020B000D601EC93CACF01968A309105F9F682E9F0
:1020C00093E4E5DC80E0C5CF0F931F93CF93DF93BC
:1020D00061157105B9F08B01FC01C081D181209798
:1020E00099F06E817F81C8010E946B3B892B61F062
:1020F0008D81882339F0F8E08F02C0011124C80FC8
:10210000D91FEDCFD0E0C0E0CE01DF91CF911F917C
:102110000F9108959F92AF92BF92CF92DF92EF926C
:10212000FF920F931F93CF93DF93EC018B01E42E6B
:10213000D8D8D82E81110EC0F12C8F2DDF91CF91E0
:102140001F910F91FF90EF90DF90CF90BF90AF90D5
:102150009F900895CE01A5D8873209F416C1FCF4EA
:10216000823209F412C1CE019CD8E82E5E01FFE054
:10217000AF0EB11CF12C9A2CCB2C8E2D7AD8882343
:1021800009F42DC18FE3F81609F429C11C86F394D4
:10219000F501E1925F01CE0184D8E82EEECF8B35B8
:1021A00009F445C08B37F9F6F801848180788062A4
:1021B00084831082118212821382EE2009F442C0BD
:1021C0001C86CE018ED8882309F4B6CF6DE7CE01E8
:1021D00078D8F82E81114AC0CC24C394EA94E881BF
:1021E000F981828193818A839B8384819581228175
:1021F0003381821B930B8E839F831C821D82892BCC
:1022000009F4C086CE014DD8873209F457C0823216
:1022100009F454C0CE0145D8D82E2BD88111A1C0C5
:10222000C15BDF4F83E090E08883998386CFF8011C
:102230008481807880648483108211821282138268
:10224000E11007C0C15BDF4F85E090E08883998390
:1022500073CF1C86CE0145D8882309F46DCF6DE578
:10226000CE012FD8F82EEA94882311F0FD2C65CFEB
:102270006D857E85C80177DB009729F4C15BDF4F50
:1022800084E090E0D1CF4E2DBC01CE0143DF882306
:1022900009F452CFCE0125D8882309F44DCF6DE53E
:1022A000CE010FD88111E2CF6CE2CE010AD88111A4
:1022B000DFCFC15BDF4F83E090E0C8CFCE0192D883
:1022C000882309F43ACFCE010CD8882309F435CFFE
:1022D0006AE3CE010E946109882309F4A1CFEA8153
:1022E000FB818C819D81E80FF91F1082AC80BD803D
:1022F0006A817B81C801E8DEBC01892B99F4B501B4
:102300008881998165DB5C016D857E85C8012BDB49
:10231000FC01892B09F4B2CF848180688483A68272
:10232000B782BF014E2DCE01F5DE882309F405CF1B
:10233000CE010E947109882309F4FFCE6DE7CE011A
:102340000E94610981111FC06CE2CE010E946109E7
:10235000882309F465CFCE010E94710981113FCF16
:10236000ECCE1C866D2DCE0123D8CE010E945109E2
:10237000D82E0E9439098111F4CFE881F981808536
:1023800081117CCFA0CFF82ED8CEE881F98182814F
:1023900093818A839B838481958122813381821BEF
:1023A000930B8E839F831C821D82892B11F481E005
:1023B0008087CE0117D8F82E882309F4BDCECC80B3
:1023C000DD80B6018881998103DBF80124812078C2
:1023D0002560248380839183C282D382AECEFE01A6
:1023E000EF0DF11D17868F85843781F4F801848104
:1023F00080788660848381E08083F4E0FF1609F4AE
:1024000035CFC15BDF4F82E090E020CF863641F4CC
:10241000F80184818078866084831082F5E0EECFB5
:102420008E3621F484E0F812ECCF20CFB801892D4C
:102430009C2DBED8882309F43CCF18CFFC01248101
:1024400025FD42CE90E080E008954091E05B509100
:10245000E15BBC0180E69AE50E94573B81E08093F6
:10246000E25B08954F925F926F927F928F929F925C
:10247000AF92BF92CF92DF92EF92FF920F931F9392
:10248000CF93DF93CDB7DEB72997CDBFDEBF4C0129
:102490002B013A011092E25B4093E05B5093E15BC9
:1024A00041E065E272E1A9DD8987882309F45FC014
:1024B0000E9495027B018C0120E030E0A901698334
:1024C000FA828B831C832D833E834F8358878091B0
:1024D000E25B811125C00E9495029B01AC0160E086
:1024E00070E080E090E0A980BA80CB80DC80ED8055
:1024F000FE800F8118850E9437392F313E444105F7
:102500005105610571058105910509F048F40E94A6
:10251000730761E070E080E090E00E940602D7CF90
:10252000C40131DD0E9495029B01AC0160E070E0C6
:1025300080E090E0A980BA80CB80DC80E12CF12C97
:1025400000E010E00E9437392F313E44410551052B
:10255000610571058105910509F048F441145104A4
:1025600031F0A30160E67AE5C2010E94573B8985FC
:102570002996CDBFDEBFDF91CF911F910F91FF90C4
:10258000EF90DF90CF90BF90AF909F908F907F9013
:102590006F905F904F9008952F923F924F925F926D
:1025A0006F927F928F929F92AF92BF92CF92DF9263
:1025B000EF92FF920F931F93CF93DF93CDB7DEB7C8
:1025C0006097CDBFDEBF8B879C8719821A82FE0180
:1025D000339688E0DF011D928A95E9F7EB85FC854B
:1025E000EF2B39F46AE070E09E012F5F3F4F2B879D
:1025F0003C878B859C85860F971F8F87988BFC0166
:10260000319710820E9495021B012C01612C712CC4
:102610004301AB85BC85AD87BE87ED85FE852F85E3
:102620003889E217F30709F486C080915E5A9091C9
:102630005F5A892B09F50E9495029B01AC0160E06D
:1026400070E080E090E051016201730184010E941A
:1026500037392F3C3740410551056105710581052A
:10266000910509F048F40E94730761E070E080E092
:1026700090E00E940602D9CF0E9495029B01AC0116
:1026800060E070E080E090E051016201730184013C
:102690000E9437392F3C37404105510561057105CE
:1026A0008105910511F008F049C00E9495021B01B7
:1026B0002C01612C712C43010E949807ED85FE8549
:1026C0008193ED87FE87329790819D3009F0A5CFE9
:1026D0008A3009F0A2CF6FE972E48B859C850E9455
:1026E000983B0097D1F0DC011C9281E090E060966D
:1026F000CDBFDEBFDF91CF911F910F91FF90EF9083
:10270000DF90CF90BF90AF909F908F907F906F9011
:102710005F904F903F902F90089565E972E48B850C
:102720009C850E94983B009709F477CFFC011082AA
:1027300082E090E0DCCF83E090E0D9CF84E090E0CD
:10274000D6CF9F92AF92BF92CF92DF92EF92FF923D
:102750000F931F93CF93DF93CDB7DEB76297CDBFB3
:10276000DEBFA82E992E7B016A010E94F5079F9279
:10277000AF928CEC93E49F938F9388E292E69F93C1
:102780008F9303DA0F900F900F900F900F900F9090
:1027900086E0B82EAA2DB92DFD0101900020E9F7A1
:1027A0003197BF016A1B7B0B41E08A2D992D0E9456
:1027B0003602B601C701F0DE8C01019709F44FC063
:1027C00064EF71E080E090E00E940602BA94B110DC
:1027D000E1CF0330110509F445C0A4F50115110539
:1027E00009F446C06AE074E40230110599F188E208
:1027F00092E620912A6230912B622430310591F4C7
:102800009E012F5F3F4F3F932F9325E134E43F9389
:102810002F939F938F9395D90F900F900F900F90B8
:102820000F900F90C8016296CDBFDEBFDF91CF91B0
:102830001F910F91FF90EF90DF90CF90BF90AF90DE
:102840009F9008950430110581F06EEF73E4053018
:10285000110569F6CE0101960E94743BC8CF63EE64
:1028600073E4F8CF66EE73E4F5CF66EF73E4F2CF6E
:1028700060E174E4EFCF80915160909152608115D6
:1028800029E0920741F48091E5058C7F8260809376
:10289000E50581E008958032994021F48091E505B5
:1028A00088E0F5CF80E00895CF92DF92EF92FF921B
:1028B0000F931F93CF93DF93CDB7DEB76597CDBF4F
:1028C000DEBF40E851E0BC0183E294E50E94893B11
:1028D00000E023E830E040EA53E561E083E294E57C
:1028E000B9DA8823B9F1E1EAF3E501900020E9F7CC
:1028F0003297108225E030E0AE014F5E5F4F62E01C
:1029000083E294E5A7DA882329F120E130E0AE01E3
:102910004F5F5F4F64E083E294E59CDA882331F1F6
:10292000CE0101960E9483346C01990FEE08FF08D6
:1029300000919E5310919F530115110559F0CE013E
:1029400041960E948334A7019601BC0181EA93E578
:10295000F80109956596CDBFDEBFDF91CF911F913C
:102960000F91FF90EF90DF90CF900895CC24CA9400
:10297000DC2C7601DDCF0F931F93CF93DF93893249
:1029800008F08CC090E0DC01A459BD4B2C912F3F86
:1029900009F484C08C010D5B1D4BE801E881D0E295
:1029A000ED9FF0011124FC5F611137C02683308157
:1029B0002323AC01465E5D4B211111C0EA01288141
:1029C0003097B1F12830A0F57096E20FF11D3FB7B6
:1029D000F894208161112FC0277F20833FBFFA0127
:1029E00030813F3F09F45AC0E80128813630D0F5E4
:1029F0003091E60540911C4044FF1FC0532F577093
:102A000025131BC0EC91E53008F0EE0F8091010A10
:102A1000E095E823E093010A41C0643039F4348141
:102A2000322361E009F060E02783C1CF2583BFCF67
:102A3000F0E0E0E0CCCF2860D0CF43FF13C0387186
:102A400069F4213079F4EC91E53008F0EE0F8091D3
:102A5000410AE095E823E093410A20C0383111F49F
:102A6000263089F38F509E4BFC01808185FF14C076
:102A700030E1839FF0011124F75F918197709730C7
:102A800069F4EC91853278F48032A0F48830E1F278
:102A9000803109F4B8CF02C08111F3CFDF91CF911B
:102AA0001F910F910895803471F08038B9F710921A
:102AB000A006F4CF90E1899FF0011124F75F818196
:102AC0008F7E8183EBCF8091920B8E2339F3C0E20E
:102AD0002C9F900111243C5FE83030F5205F3F4F80
:102AE000E20FF32FF11D4FB7F8949091800B9E7F6A
:102AF0009093800B90918E0B90FFFCCF2091920BC6
:102B000090E08095909530E08223932328ED24BFB8
:102B10008093920B8091800B81608093800B8081E9
:102B20008F7780834FBFBACFF0E0E0E0DCCFCF9269
:102B3000DF92EF92FF9280915558882309F479C073
:102B40008EE194E420DA50E040E070E060E083E25F
:102B500094E4F7DD0E9495026B017C018091575847
:102B6000882359F00E9495026C197D098E099F09EE
:102B7000603D77408105910588F38DE294E403DAA6
:102B800010922508109226081092270880E2809360
:102B900042049FB7F89480915504887F84608093A5
:102BA00055049FBF61E085E1E6DE80E88093420442
:102BB0009FB7F89480915704887F8460809357046E
:102BC0009FBF80E4809342049FB7F894809156049D
:102BD000887F8460809356049FBF84E10E94D8025E
:102BE00080E1809342049FB7F89480915404887FD9
:102BF0008460809354049FBF82E10E94D80281E0E8
:102C0000809342049FB7F89480915004887F8C6031
:102C1000809350049FBF82E0809342049FB7F89452
:102C200080915104887F8C60809351049FBF1092E3
:102C300055581092565810925758FF90EF90DF90C9
:102C4000CF90089573D860E096CE70D861E093CEAF
:102C500083E394E498D985E494E495D987E594E4F2
:102C600092D91092D3571092D4571092D1571092F4
:102C7000D25781E090E0E9DF20915958222389F072
:102C800080915758882359F050E040E070E060E0B0
:102C90008CE694E456DD21E0019709F020E0822FD4
:102CA000089521E0FCCFFC018281803369F481E04A
:102CB0008093595881E090E0C5DFE091D357F091BF
:102CC000D457309759F0099481E090E0BEDF10921C
:102CD0005958E091D157F091D257F3CF0895FC01A4
:102CE00081818B7F813331F481E08093575890E06C
:102CF00080E0A8CF80915758882369F010925758E8
:102D000090E080E0A2DFA4DFE0919C53F0919D531E
:102D1000309709F009940895FC0182818076B1F51D
:102D2000A081B181A11589E0B807F9F48091E5058A
:102D300083708230B1F48CE080934604828180629B
:102D4000828381E013968C93139715968C938281DE
:102D500085FF1CC040EA56E861E070E0CF010C94AA
:102D60005B058CE080930604E9CFA03289E0B807C8
:102D700029F78091E5058C70883021F48CE08093F0
:102D80002604DCCF8CE08093A604D8CF0895CF939F
:102D9000DF93EB0170DD4E815F8168857985483E68
:102DA00083E058076105710540F08091536085FF0D
:102DB00004C081E590E60E945B0581E590E6ACDF0A
:102DC00090E080E0DF91CF910895660FFC01678766
:102DD000108A0895CF93C82F60914B5785E490E6F1
:102DE000F4DF6C2F85E490E60E94F80660E081E550
:102DF00090E60E943C0642E050E060914B5785E42B
:102E000090E60E940C079091566080915760981749
:102E100069F085E490E60E94B106C82F85E490E64B
:102E20000E94B106982F8C2FCF91089580E0C0E0CA
:102E3000F9CF0F931F93CF93DF9300D0CDB7DEB7B9
:102E4000182F60914A5789E29FE5BFDF612F89E221
:102E50009FE50E94F80661E085E39FE50E943C063D
:102E600042E050E060914A5789E29FE50E940C07DA
:102E70008E010F5F1F4F90913A5F80913B5F9817D3
:102E800041F089E29FE50E94B106F80181938F012C
:102E9000F2CF89819A819827892798270F900F90E0
:102EA000DF91CF911F910F910895EF92FF920F93B1
:102EB0001F93CF93DF938A01790185E490E685DF44
:102EC000D0E0C0E0CE15DF0560F4F801EC0FFD1F87
:102ED000608185E490E60E94F806892B99F321969B
:102EE000F1CF61E081E590E60E943C0690E080E051
:102EF000DF91CF911F910F91FF90EF9008954F9226
:102F00005F926F927F92AF92BF92CF92DF92EF92D9
:102F1000FF920F931F93CF93DF93CDB7DEB7A397A5
:102F2000CDBFDEBF5C01CDB6DEB6DC010D9000206A
:102F3000E9F711977D01E81AF90A10915958111112
:102F40001CC084E894E40E94470D82E090E07DDE9E
:102F5000812FCDBEDEBEA396CDBFDEBFDF91CF9168
:102F60001F910F91FF90EF90DF90CF90BF90AF90A7
:102F70007F906F905F904F90089582E090E062DEC6
:102F80002701712C612CC301B7010E9430360E94C9
:102F90005E380E94A93820E030E040E85FE30E94FC
:102FA00062370E942E3865567F4F8DB79EB7861BBD
:102FB000970B8DBF9EBF0DB71EB70F5F1F4F1F92A0
:102FC0001F925F92EF921F9281E08F9385ED97E5BC
:102FD0009F938F938AEB94E49F938F931F930F9308
:102FE0000E94B23BF80101900020E9F73197BF0140
:102FF000601B710B41E0C8010E94360240ED57E0B2
:1030000060E070E08EE30E94C007182FADB7BEB736
:103010001C96ADBFBEBF811105C08BED94E40E942C
:10302000830D93CFBF92AF9286E095E49F938F93E9
:1030300088E292E69F938F930E94C50D40E0B7010E
:10304000C5010E94360219821A82FE0133968EE172
:10305000DF011D928A95E9F719A21AA21BA240E28C
:1030600050E0BE016F5F7F4F84E295E4FBD9182FDB
:103070000F900F900F900F900F900F90811105C03F
:1030800086E395E40E94830D63CF0E94F50700E07C
:1030900023E030E0AE014F5D5F4F62E0CE0101966C
:1030A0000E942A0F182F811105C083E695E40E9423
:1030B000470D4ECFCE0181960E948334082F8F3F5B
:1030C00009F401E182E090E0C0DD002309F440CF83
:1030D000B8E10B02C0011124835E9F4B9F938F9335
:1030E0008CE995E49F938F9388E292E69F938F9368
:1030F0000E942D0E0F900F900F900F900F900F9039
:1031000010E026CF0F931F93CF93DF93EC018881BC
:103110009981009759F02A813B812617370730F0B3
:1031200081E0DF91CF911F910F9108958B016F5F27
:103130007F4F0E946E3A009759F0888399830A83E3
:103140001B832C813D81232B59F7FC011082E8CF92
:1031500080E0E7CFEF92FF920F931F93CF93DF931F
:10316000EC01188219821A821B821C821D82611551
:103170007105D9F08B01FB0101900020E9F731972F
:103180007F01E61AF70AB701BDDF28813981811175
:1031900013C02115310519F0C9010E94E5391882C3
:1031A00019821C821D821A821B82DF91CF911F918E
:1031B0000F91FF90EF900895EC82FD82B801C90154
:1031C000DF91CF911F910F91FF90EF900C94743B82
:1031D0002F923F924F925F926F927F928F929F9227
:1031E000AF92BF92CF92DF92EF92FF920F931F9315
:1031F000CF93DF93CDB7DEB7A497CDBFDEBF1C0161
:103200003B01CB010E941D098C8B6114710409F4F0
:103210006BC0D301ED91FC91309709F465C04788EC
:10322000508C2091D3413091D4414091D54150915F
:10323000D6412D8F3E8F4F8F58A38091D7419091CB
:10324000D841A091D941B091DA4189A39AA3ABA307
:10325000BCA3D30118968C911897833009F450C001
:103260006114710409F44CC00D911C9101151105F4
:1032700009F446C0C3010E94B908811105C0C30109
:103280000E94A608882399F1D3011296ED91FC9132
:103290003097B1F10084F185E02D309789F130E06D
:1032A00020E050E040E060E0C30109958C01803DE2
:1032B0009105B9F48AEF90E0E8E5F2E03197F1F793
:1032C0000197D1F7D3011296ED91FC910084F1851D
:1032D000E02D30E020E050E040E060E0C3010995DF
:1032E0008C01012B49F00CC0512C412C9ACFF801D4
:1032F00080819181892B91F183E0D30118968C9381
:10330000D301ED91FC9180819181009709F072C108
:1033100083E0F1018083F101E180F12CC3010E947F
:10332000B908882309F476C19701A1016FEFC301A1
:103330000E94F6088C01073E110509F08BC1D301EC
:1033400018961C92B1E04B1A5108C201019618164A
:1033500019060CF47ECF07EE10E0C5C181E08B8B1F
:10336000C3010E941D098C8FF8010788F08DE02DA4
:10337000EE8BFF8BD301ED91FC9186819781A08527
:10338000B185813A9648A140B105F0F020EA36E8CF
:1033900041E050E02D873E874F87588B24E030E096
:1033A000AE01435F5F4F66E0C3010E94CE088C010F
:1033B000853F910559F430E020E050E040E060E0C6
:1033C000C3010E94CE088CCF10E000E021E030E085
:1033D000AE014D5E5F4F60E0C3010E94F608D3016D
:1033E000ED91FC916CED75E0309711F0658976896F
:1033F00090E080E00E9430364B015C0120E030E03C
:1034000040E051E40E9491366B017C0120E030E005
:1034100040E85FE30E942C3687FDB1C020E030E039
:1034200040EC50E4C501B4010E949136688F798F59
:103430008A8F9B8F20E03FEF4FE757E40E945A3876
:1034400018160CF048C020E030E04AE754E4C5010B
:10345000B4010E94C6374B015C0120E030E84BEB21
:1034600055E40E9491366B017C0120E030E040E899
:103470005FE30E942C3687FD2BC020E03FEF4FE733
:1034800057E4C701B6010E945A381816CCF420E060
:1034900030E040E251E4C501B4010E9491360E943F
:1034A0002E386115710529F4ED89EA95F1F7ED8B58
:1034B00026C088E592E00197F1F761507109F1CFDC
:1034C000C701B6010E942E38CB010197F1F7ECCF6E
:1034D00061E070E0F9CF20E030E04FE753E4C7014E
:1034E000B6010E945A3818160CF043C0688D798DC9
:1034F0008A8D9B8D0E942E38CB010197F1F784E0D5
:1035000090E0898B9A8B0115110509F04BC09E0143
:103510002F5E3F4FAE01475F5F4F6C8DC3010E942E
:10352000E2088C01892BF1F5D301ED91FC918681A4
:103530009781A085B185813AE6E89E07E1E0AE0774
:10354000B10500F589899A892D8D3E8D4F8D58A141
:103550002D833E834F83588729A13AA14BA15CA1BB
:1035600029833A834B835C83049759F100ED10E083
:1035700019C0C701B6010E942E386D8B95CFB1E0FE
:10358000BD8B92CF8D879E87AF87B88B24E030E0CC
:10359000AE01435F5F4F66E0C3010E94CE08009713
:1035A00089F28C014E895F89141615060CF099CEAC
:1035B000415051094E8B5F8B0115110509F0DACE90
:1035C00090CE44E050E0BE016B5F7F4FCE01099684
:1035D0000E944A3B892B31F344E050E0BE016F5F0B
:1035E0007F4FCE0109960E944A3B07ED10E0892BE0
:1035F000C9F2BCCF8130910521F487E7D1018C93CA
:103600008ACE089709F087CE82819381059709F0C9
:1036100082CE7ECE30E020E050E040E064E0C301A6
:103620000E94CE088C01853F910511F0892B49F449
:1036300097012F5F3F4FA1016C89C3010E94F608DB
:103640008C0130E020E050E040E065E0C3010E94E2
:10365000CE0871CEF3018085833011F083E080873E
:103660000115110509F03FC080E797E10197F1F7D7
:10367000D12CC12C7101F6E0EF0EF11C80EC582E1C
:10368000AA24A394B12C410127E0820E911C28E8C2
:10369000422ED701E52D1D92EA95E9F720EC30E0A6
:1036A0002D833E83A982BA82C3010E94B908882370
:1036B00009F45EC09E012B5F3F4FA70160E0C3018C
:1036C0000E94E2088C010115110509F407C180EE82
:1036D0009EE20197F1F7FFEFCF1ADF0A23EEC21641
:1036E00024E0D206B1F6D301ED91FC918281938161
:1036F000059739F1C3010E94B908811106C0C301C1
:103700000E94A608882309F4D4C061147104B1F0A2
:10371000D3011296ED91FC91309781F00084F185F0
:10372000E02D309759F030E020E050E040E061E0DB
:10373000C301099580E797E10197F1F782E0F30172
:103740008087C801A496CDBFDEBFDF91CF911F91C6
:103750000F91FF90EF90DF90CF90BF90AF909F9030
:103760008F907F906F905F904F903F902F90089533
:1037700030E020E050E040E064E0C3010E94CE0869
:103780008C01853F910511F0892BB9F4D301ED919E
:10379000FC91808191810197C9F44986828193814E
:1037A0000597B1F49E012F5F3F4FA7016C89C301BC
:1037B0000E94E2088C01892BC1F030E020E050E04B
:1037C00040E065E0C3010E94CE087DCF1986E6CFB8
:1037D00021E030E0AE01475F5F4F6C89C3010E947A
:1037E000F6088C01892B49F7DDCFF101868190E045
:1037F00089839A832D813E810DEE10E028173907C9
:10380000E0F206EE10E084309105B8F2019789836A
:103810009A839E012F5F3F4FA4016C89C3010E94D0
:10382000E2088C01892B49F689819A810196898366
:103830009A838D839E83C1CF06EE10E0892B09F019
:1038400052CF89CDF1018681843009F04CCF878138
:10385000873049F188F4813049F108F444CF02ED12
:1038600010E0833009F43FCF06ED10E0853009F415
:103870003ACF01EE10E037CF04EF10E08F3009F4BB
:1038800032CF30F40AEF10E0883009F42CCFF1CFBA
:1038900003EF10E0813109F426CF04ED10E08F3FF3
:1038A00009F421CFE6CF07ED10E01DCF01ED10E0C8
:1038B0001ACFC3010E942C09059709F43FCF82E07B
:1038C0008983C3010E941D0921E030E0AE014F5FF2
:1038D0005F4F682FC3010E94F60830CF8D819E8113
:1038E0008430910508F4A8CFD1011696CC90CA94E3
:1038F000CA94D12CAE014F5F5F4FB701C6010E9441
:103900006E08F701EC0DFD1D99818081981305C0AB
:103910009A818181981709F495CF05EE10E0E3CEE6
:103920002F923F924F925F926F927F928F929F92CF
:10393000AF92BF92CF92DF92EF92FF920F931F93BD
:10394000CF93DF93CDB7DEB7C05FD109CDBFDEBF68
:10395000E114F10409F439C10097C9F482EE90E052
:10396000C051DF4FCDBFDEBFDF91CF911F910F91CF
:10397000FF90EF90DF90CF90BF90AF909F908F908F
:103980007F906F905F904F903F902F900895DC0153
:10399000ED91FC910280F381E02D309761F461306C
:1039A00009F469C070E2C72ED12C623059F0E8E505
:1039B000CE2ED12C07C0349709F055C0D12CC12C84
:1039C000613081F7F701E20FF31FCE16DF0630F208
:1039D0001701C151DF4F08831983CF5ED040290101
:1039E000C751DF4F6883C95ED040C351DF4F888322
:1039F0009983CD5ED0405901E5E0B694A794EA954D
:103A0000E1F79A01F3E0220F331FFA95E1F7C6516F
:103A1000DF4F28833983CA5ED04030E2C851DF4F80
:103A20003883C85ED04010E000E0F12CE12C462F36
:103A30004068C451DF4F4883CC5ED040C851DF4F4F
:103A40005881C85ED040503209F0C2C0C50175E04F
:103A5000880F991F7A95E1F7D601A81BB90B9097AB
:103A6000D0F0802F28C0613031F0623041F0B0E8F2
:103A7000CB2ED12CA7CFA0E4CA2ED12CA3CFF0EA15
:103A8000CF2EDD24D3944830510509F49BCFA4E216
:103A9000CA2ED12C97CF82010E0D1F1D16950795AA
:103AA0001695079507701127802FB4E0C851DF4F96
:103AB000B883C85ED040877090E0C751DF4F38812F
:103AC000C95ED040323009F48CC0950153E0220F1A
:103AD000331F5A95E1F7287F3770822B932BC851FB
:103AE000DF4F5881C85ED040C451DF4F2881CC5E83
:103AF000D040503229F0C751DF4F2881C95ED040F5
:103B00002C838D839E8382E08B8397E09A83CE0102
:103B100001960E949B08C351DF4F68817981CD5E79
:103B2000D040CE01019654DB009709F019CFC8515F
:103B3000DF4FA881C85ED0408A2E912CA401BE011F
:103B4000685F7F4FCE0188539F4F0E94573BC5014E
:103B500023E0880F991F2A95E1F7800F911F880FA6
:103B6000991F880F991F70E060E08415950518F47F
:103B7000B201681B790B861A970A31016E187F080B
:103B80008614970408F4340128EC30E02C0F3D1F14
:103B9000620F731FA301C151DF4F88819981CF5EEE
:103BA000D0408E0D9F1D0E94573BE60CF71CC8515C
:103BB000DF4F3881C85ED0403032F1F44FEFA41AA5
:103BC000B40AE214F30408F439CF90E080E0C8CEE0
:103BD000C851DF4F2881C85ED040243009F0BECEE6
:103BE00040CF3A2D2227C651DF4F48815981CA5E06
:103BF000D040242B352B71CF0F5F1F4FE2CF4F9258
:103C00005F926F927F928F929F92AF92BF92CF926C
:103C1000DF92EF92FF920F931F93CF93DF9300D029
:103C2000CDB7DEB73C01E091275FF091285F82EECF
:103C3000309781F00190F081E02D228133812B7F3C
:103C400090EA492E55245394232B19F420E2422E56
:103C5000512C80E0FA01811116C06A014B01B12C90
:103C6000A12C82E0E82EF12C8E010F5F1F4F9501F1
:103C700048E050E062E08091275F9091285F50DE3D
:103C80008823A9F0F60110820F900F90DF91CF9159
:103C90001F910F91FF90EF90DF90CF90BF90AF906A
:103CA0009F908F907F906F905F904F900895698163
:103CB0008A81782F7170982F96959615170429F59B
:103CC0003B016A187B08C3010197F6012081281780
:103CD0001906C0F0F2E06F1A710895012E5F3F4F90
:103CE0007301840148E050E062E08091275F909189
:103CF000285F16DEF6018111C6CF6082860C971C04
:103D0000F401C1CF108282E0BFCF8E7F39F05B011A
:103D1000C50102964816590608F0A3CFF601108295
:103D200081E0B2CF2F923F924F925F926F927F923B
:103D30008F929F92AF92BF92CF92DF92EF92FF92BB
:103D40000F931F93CF93DF93CDB7DEB7C35CD440FF
:103D5000CDBFDEBF2DB63EB680E8CE53DB4F8883A5
:103D6000C25CD440CF53DB4F8883C15CD4408E010A
:103D700007531C4FAE014E535B4FB80181E090E0FA
:103D80003EDF8823F9F082EC95E40E94470DF12C88
:103D90008F2D2DBE3EBECD53DB4FCDBFDEBFDF919D
:103DA000CF911F910F91FF90EF90DF90CF90BF9038
:103DB000AF909F908F907F906F905F904F903F90CB
:103DC0002F9008956E0127EBC21A2CEFD20AAE0194
:103DD0004F535B4FB60182E090E011DF882319F06A
:103DE0008DEE95E4D2CF1F930F93DF92CF9286E1B1
:103DF00096E49F938F9388E292E69F938F930E941D
:103E0000C50D4DB75EB7485F5F4F4DBF5EBF4DB646
:103E10005EB680915958882341F050E040E070E050
:103E200060E08CE694E40E94A113F8010190002068
:103E3000E9F73197CF01801B910B8DB69EB69C019F
:103E4000245E3F4FADB7BEB7A21BB30BADBFBEBF25
:103E5000EDB7FEB731965F0111961C9231964A96E6
:103E600097FD03C011920197FBCF1F9281E08F93C2
:103E700082EE92E49F938F939F938F931F930F9360
:103E800080E596E49F938F93BF92AF920E94B23BDE
:103E900050E040E070E060E0C5010E94A113EDB782
:103EA000FEB73C96EDBFFEBF019741F083E796E475
:103EB0000E94470D8DBE9EBEF12CB3C18DBE9EBE2D
:103EC00041E063E576E185E494E40E94FD0F41E082
:103ED00067EB71E087E594E40E94FD0F2DB73EB7D4
:103EE000205A31092DBF3EBF0DB71EB70F5F1F4FC0
:103EF000ADB7BEB711961C92F80131968DB79EB73B
:103F00008F559F4F11928E179F07E1F71F928CE3F9
:103F10008F9382E28F9383EB8F93DF92CF928CE823
:103F200096E49F938F931F930F930E94B23B50E0B0
:103F300040E070E060E0C8010E94A113EDB7FEB759
:103F40003A96EDBFFEBF019729F08CEA96E40E94F5
:103F5000470DB2CF19821A82FE0133968EE791E0A7
:103F6000DF019C011D9221503040E1F740E851E013
:103F7000BE016F5F7F4F8AED96E40E94321281117D
:103F800003C085EE96E4E3CF6E013FE7C31A3EEF30
:103F9000D30AF601119211928FEFDF011D928A95DB
:103FA000E9F781E08093585880E88093450400E069
:103FB00026E030E0AE0145545B4F60E0CE01019653
:103FC0000E942A0F811107C080E197E40E94470DEB
:103FD00082E797E4BCCF00E021E430E0AE01475B2C
:103FE0005B4F63E0CE0101960E942A0FF82E8111EB
:103FF00003C08FE197E4EACF8E0106571B4FFE0105
:10400000E75BFB4F3F01E02ECD53DB4F1883C35CD2
:10401000D4406EE3A62E67E4B62E4E01F7E78F1A62
:10402000FBEF9F0A1F930F93BF92AF927F926F9205
:104030000E94DC3B22E0620E711C0F5F1F4F0F904D
:104040000F900F900F900F900F906814790451F714
:10405000A090275FB090285FA114B10409F4EAC0D2
:104060008E010E571D4FD80113961C92139714966C
:104070001D921C9215978BE112968C93129787E0F4
:1040800011968C93C8010E949B08B501C801A0D865
:10409000892B09F0CFC0F8018681833209F0CAC0AC
:1040A000D501ED91FC9182819381039709F0BCC009
:1040B00050E2752E80E48360F801838314821582B8
:1040C00080E2EE2DCD53DB4FF881C35CD440D801A4
:1040D000169601900D928A95E1F786E1D801129625
:1040E0008C93129747E2E42E1196EC92C8010E943D
:1040F0009B08B501C8016CD8892B09F09BC0872D9E
:104100008068F801838314821582C5010E942C09FE
:1041100021E4D80112962C931297059709F487C0D1
:1041200087E011968C93C8010E949B08B501C801D5
:104130004FD8892B09F07EC0D80116968C91833414
:1041400009F078C080E4F8013796DE01A75BBB4F29
:1041500001900D928A95E1F781E1E7E9F7E4DE014C
:10416000A655BB4F01900D928A95E1F7F801119287
:1041700011928FE7DF011D928A95E9F7FE01E75B57
:10418000FB4FC8012191A22F022E000CBB0B34E083
:10419000B595A7953A95E1F7AF70BB274AEA54E089
:1041A0004C0F5D1FA40FB51F3C91DC013C93A22F67
:1041B000AF709A012A0F311DD9012C91DC011196A3
:1041C0002C9302968E169F06E9F6CE5FDC4F18827E
:1041D000C250D340CE0185549B4F0E9483341F931D
:1041E0000F939F938F9387E597E49F938F93DF922D
:1041F000CF920E94B23BF60101900020E9F731977F
:10420000BF016C197D0941E0C6010E94360210927F
:10421000585880E880934604EDB7FEB73896EDBF56
:10422000FEBF4DBE5EBEB4CD712C80E044CFF80120
:10423000E18279CF84E497E4C9CEEF92FF920F93A5
:104240001F93CF93DF9381E080934C578BE1E0E89D
:10425000F3E5DF011D928A95E9F783E090E0809312
:1042600082539093835388E58093845382E08093B4
:10427000855380EA96E8A1E0B0E08093865390935E
:104280008753A0938853B093895388E196E0809335
:1042900095539093965384E190E080939753909335
:1042A0009853C091275FD091285F209731F1E88122
:1042B000F9813097C1F080819181892B41F4E0919F
:1042C0000A40F0910B40309731F51E821F82E88141
:1042D000F98180819181069731F48A819B810E94C6
:1042E000E5391A821B828091275F9091285F0E9496
:1042F000E5391092275F1092285F86E190E00E94D6
:104300004939EC01892B69F41092275F1092285FDC
:1043100081EE90E05AC08E819F810995892BA9F288
:10432000D6CF84E1FE013296DF011D928A95E9F72E
:1043300080E893E58883998380918053909181539D
:10434000892B09F049C080E090E48A839B831C821A
:104350001D82E0910040F09101403097E9F1809199
:10436000024090910340892BB9F160E873E5CE01DA
:104370000995892B89F5EA81FB810280F381E02D83
:10438000CE010995009741F5C093275FD093285F30
:10439000209182533091835323303105B1F48E0143
:1043A000075F1F4FEE24E394F12C23E130E050E04F
:1043B00040E060E0CE01B4DA009739F4E091275F85
:1043C000F091285F2185287F2187DF91CF911F9170
:1043D0000F91FF90EF900895CE010E94E53994CFA0
:1043E00080EA99E08093D3579093D4578AEA99E072
:1043F0008093D1579093D25784EB99E080939E534A
:1044000090939F5341E064E574E183E394E40E9458
:10441000FD0F80914C5781110EC00FDF882359F09A
:1044200088EA97E40E94470D68EE73E080E090E030
:104430000E940602EECF76DC8823B1F308952F9216
:104440003F924F925F926F927F928F929F92AF9224
:10445000BF92CF92DF92EF92FF920F931F93CF9371
:10446000DF93CDB7DEB7CB59D109CDBFDEBF86E92B
:1044700099E080939C5390939D53CE018D5B9F4F09
:10448000C656DF4F88839983CA59D0407E0191E791
:10449000E90EF11C3701E2E06E0E711C5701FFEFCF
:1044A000AF1ABF0A4E0123E0820E911C809155582D
:1044B00081116FC011E0109341049FB7F89480916F
:1044C0005004887F809350049FBF82E08093420411
:1044D0009FB7F89480915104887F809351049FBFC7
:1044E00080E8809341049FB7F89480915704887FB7
:1044F000809357049FBF61E085E10E94BB1480E177
:10450000809342049FB7F89480915404887F896017
:10451000809354049FBF44E063E677E082E10E9409
:104520000D0380E2809341049FB7F8948091550475
:10453000887F809355049FBF61E083E10E94BB1494
:104540006AE070E080E090E00E94060260E083E1B3
:104550000E94BB1481E493E080932808909329087B
:1045600080EA8093250880EC8093260883E080937E
:1045700027080E94850740E851E070E060E08AEC7F
:1045800097E40E94321281115BC083ED97E40E9490
:10459000470D41E064E078E08EE194E40E94FD0F75
:1045A00050E040E070E060E086E098E40E94A113F3
:1045B00050E040E070E060E080E198E40E94A113E8
:1045C00050E040E070E060E08AE198E40E94A113CE
:1045D00050E040E070E060E085E298E40E94A113C2
:1045E00023961EAE1FAE23978EE2C656DF4FE8819C
:1045F000F981CA59D04011928A95E9F7F7011082E2
:1046000011828EE1F30111928A95E9F740E851E0B9
:1046100070E060E08DE294E40E94321240E350E0EA
:10462000BE016F5B7F4F8FE298E40E94A113019758
:1046300061F088E398E40E94470D0E94971536CFF9
:104640000E94F50710935558A4CF0AE320E230E00A
:10465000A70160E0CE018F5B9F4F0E942A0F81115E
:1046600003C082E698E4E7CF45E050E060E878E4F4
:10467000C7010E947B3B892BA9F0FF92EF9286E84D
:1046800098E49F938F9388E292E69F938F930E9482
:104690002D0E0E9497150F900F900F900F900F9076
:1046A0000F9004CF40E06FE676E18DE294E40E9443
:1046B000FD0F88EA98E49F938F9388E292E69F9398
:1046C0008F930E94C20E0F900F900F900F9084E670
:1046D000C82E89E4D82E08E212E68091575881113D
:1046E00017C060910804609561700E94BB1464EF6C
:1046F00071E080E090E00E940602DF92CF921F936B
:104700000F930E94A10D0F900F900F900F90E5CF87
:104710008FEB98E49F938F9388E292E69F938F9319
:104720000E94A10D40E350E0BE016F5B7F4F86EC1D
:1047300098E40E94A1130F900F900F900F90019793
:1047400019F08FEC98E477CF0AE320E230E0A7017C
:1047500060E0CE018F5B9F4F0E942A0F811103C042
:1047600088EF98E468CFC756DF4F1882C959D04008
:10477000CA56DF4F1882C659D040CD56DF4F188237
:10478000C359D040F50180819181C956DF4F88839C
:104790009983C759D040F70184819581CC56DF4F6A
:1047A00088839983C459D04087819085CF56DF4F45
:1047B00088839983C159D040CE0189569F4F0E946A
:1047C00083348634910509F05AC0CE018C569F4F30
:1047D0000E948334019709F052C0CE018F569F4F3B
:1047E0000E948334019709F04AC00E9495021B0180
:1047F0002C010E94950262197309840995096031A0
:1048000077428105910520F480915658882389F3D9
:1048100080915658811133C08BE199E40E94650D57
:104820001EE380915758811107C00E94971586E6B4
:1048300099E40E94830D3ACE50E040E070E060E0E1
:104840008AE999E40E94A113019759F719821A8203
:10485000F401212F11922A95E9F740E450E0BE01BE
:104860006F5F7F4F88ED99E40E9432128823C9F26E
:104870008A818033B1F68FED99E40E94650D8EE157
:1048800094E40E94C30F80917E5390917F53816086
:1048900080937E5390937F53C556DF4FCDBFDEBFCD
:1048A000DF91CF911F910F91FF90EF90DF90CF900C
:1048B000BF90AF909F908F907F906F905F904F9040
:1048C0003F902F9008952F923F924F925F926F9258
:1048D0007F928F929F92AF92BF92CF92DF92EF9290
:1048E000FF920F931F93CF93DF93CDB7DEB7CD52D7
:1048F000D240CDBFDEBF2DB63EB681E991E60E9423
:10490000A503892B09F4B1C062EE72E4CE010196D1
:104910000E94AA180E9468038D809E8097FD25C082
:104920008A30910511F1CF57DE4F8883C158D140AD
:10493000CE57DE4F1882C258D1402FEF821A920A0A
:10494000B401CE0101960E948218882319F32981AF
:104950003A818D819E81BE016F577E4F820F931FDA
:104960000E94743B8D829E82D5CFE980FA80ADB6DD
:10497000BEB66DE370E0C7010E94603B8C01892BDD
:1049800021F58401015011090E0D1F1D80912A622D
:1049900090912B620497CCF08DEE99E49F938F93C6
:1049A00083E093E49F938F9383EE92E49F938F939E
:1049B000809129628F93809128628F930E94250DA8
:1049C0008DB79EB708968DBF9EBF0E191F0928018F
:1049D0009FEF491A590AADB7BEB7A419B509ADBFC3
:1049E000BEBFEDB7FEB731966F01A801B701CF0189
:1049F0000E94573BF601E00FF11F1082801A910AC6
:104A00003401F1E06F1A71082DB73EB72819390942
:104A10002DBF3EBF0DB71EB70F5F1F4FB701640D0F
:104A2000751DA301C8010E94573BF801E60DF71D53
:104A3000108268E07AE4C6010E946B3B892B09F082
:104A400093C08DE09AE49F938F9388E292E69F93C0
:104A50008F930E94A10D0F900F900F900F90ADBEFD
:104A6000BEBE89819A810E94E53980917E539091E2
:104A70007F5380FF1BC180917C5390917D53892B84
:104A800009F068C081E090E080937C5390937D535F
:104A900090E080E00E94221619821A82FE0133966D
:104AA0008EE3DF011D928A95E9F7E258FE4F1192DD
:104AB00011928EE2DF011D928A95E9F70E94F507B7
:104AC00050E040E070E060E08CE29BE40E94A113C3
:104AD0000E94F50740E450E0BE016F5F7F4F88E31E
:104AE0009BE40E94A113019709F4BBC081E49BE4FD
:104AF0000E94470D63E67BE4CE01825E9D4F0E94DB
:104B0000AA18C15EDD4F8881CF51D2408F93C25E1B
:104B1000DD4F8881CE51D2408F9386E99BE49F93ED
:104B20008F9388E292E69F938F930E94C20EC25E9B
:104B3000DD4F88819981CE51D2400E94E53982EBC8
:104B40009BE40E94650D4CDC0F900F900F900F902E
:104B50000F900F9080917E5390917F538E7F809322
:104B60007E5390937F536BC363EC7AE4C6010E943B
:104B70006B3B892B09F04BC06CEC7AE4C8010E94B6
:104B8000983B892B41F562ED7AE4C8010E94983B7D
:104B9000892BA1F567ED7AE4C8010E94983B892B27
:104BA00081F56CED7AE4C8010E94983B892B61F590
:104BB0001F930F9382EE9AE49F938F9388E292E67D
:104BC0009F938F930E942D0E0F900F900F900F9038
:104BD0000F900F9044CF84E090E028E232E680937B
:104BE0002A6290932B621F930F938FEF9AE49F9307
:104BF0008F933F932F930E94A10DE6CF83E090E027
:104C0000ECCF82E090E0E9CF81E090E0E6CF60E792
:104C10007FE4C6010E946B3B892B51F480917E5347
:104C200090917F53806180937E5390937F5317CFF1
:104C300065E17BE4C6010E946B3B892B19F40C945F
:104C400000000DCF8BE19BE40E94650D8DE09AE49E
:104C50009F938F9388E292E69F938F930E94A10D7A
:104C6000FECE0AE320E330E0AE014F575E4F62E034
:104C7000CE0101960E942A0F811103C081E79BE4B7
:104C800037CF01E811E00C0F1D1F0F5F1F4F6FE2C0
:104C900070E0C8010E948335E1E8F1E0EC0FFD1FF0
:104CA0008E0F9F1FDC011C92B80126CF80917E538E
:104CB00090917F5381FF25C010927C5310927D53B9
:104CC00090E080E00E94251681E090E00E94251689
:104CD00082E090E00E94251684E090E00E94251674
:104CE00083E090E00E9425168FEC9BE40E94650D06
:104CF0000E949715A4DB80917E5390917F538D7F06
:104D00002ECF20917E5330917F5380917C53909190
:104D10007D5322FFAEC0019709F071C082E090E0A0
:104D200080937C5390937D530DE417E51F930F936D
:104D300081E09CE49F938F9388E292E69F938F9308
:104D40000E94C20E0F900F900F900F900F900F9037
:104D500080915958811105C087E39CE40E94470D5A
:104D60004EC07E01BFE7EB1ABEEFFB0AF7011192BE
:104D700011928BE9DF011D928A95E9F71F9281E07C
:104D80008F931F930F9384E79CE49F938F93FF92DD
:104D9000EF920E94B23B50E040E070E060E0C7015B
:104DA0000E94A113EDB7FEB73896EDBFFEBF019785
:104DB00019F083E99CE4D2CF19821A82FE0133965E
:104DC00082EADF011D928A95E9F7C25EDD4F188203
:104DD0001982CE51D240C05EDD4F1882C052D240FF
:104DE00044EA50E0BE016F5F7F4F84EB9CE40E9479
:104DF000321281110AC088EC9CE40E94830D8091DC
:104E00007E5390917F538B7FAACE00E023E030E069
:104E1000AE01425E5D4F62E0CE0101960E942A0F14
:104E2000811103C087EF9CE499CFCE01825E9D4F34
:104E30000E9483348F3FD9F0882309F3B8E18B02B5
:104E4000C0011124835E9F4B9F938F9382E39DE467
:104E50009F938F9388E292E69F938F930E942D0EEB
:104E60000F900F900F900F900F900F90C8CF81E18F
:104E7000E5CF20917E5330917F538901087011272F
:104E800023FF26C08230910541F00397A1F0809165
:104E90007E5390917F53877F62CE81E090E0809334
:104EA0007C5390937D5389E59DE40E94650D0E949B
:104EB000281696DAECCF81E090E080937C539093B3
:104EC0007D5389E59DE40E94650D1092000AEFCFA5
:104ED00030917B5320917A53321709F44DC20297D7
:104EE000029708F0ACC119821A82FE0133968EE750
:104EF00091E0DF019C011D9221503040E1F7F894D0
:104F000080917A538F5F8F7180937A53E0917A53B7
:104F100034E0E39FF0011124E650FD4A7080618087
:104F2000928183817894872C962CA92EB82E0E948A
:104F3000F507B7FEC8C07E018FE7E81A8EEFF80AC2
:104F4000F7011192119289E9DF011D928A95E9F723
:104F50008DE497E59F938F938FE89DE49F938F93C4
:104F6000FF92EF920E94B23BF70101900020E9F717
:104F70003197BF016E197F0941E0C7010E943602D7
:104F80000F900F900F900F900F900F9044E650E00D
:104F900060E070E08DE00E94C007882309F4E7C15B
:104FA00044E650E060E070E08AE00E94C007882399
:104FB00009F4DDC160E871E0CE0101966C010E9448
:104FC000CC12019709F0D3C184E392E620913462B8
:104FD00030913562209336623093376220913A6285
:104FE00030913B62209338623093396210923C6278
:104FF00010924162CA5DDD4F88839983C652D240C8
:1050000028E0FE01EA5DFD4FDE01A25EBD4F01908A
:105010000D922A95E1F728E0FE01E25EFD4FDE01E8
:10502000AF57BE4F01900D922A95E1F7C757DE4F5B
:105030001882C958D140C657DE4FC882D982CA5893
:10504000D140C357DE4F1882CD58D140C257DE4FF2
:1050500088839983CE58D140C053DE4F188219827D
:10506000C05DD1404AE06DE372E6CE018F579E4F9E
:105070000E948A10C053DE4FE881F981C05DD140A3
:10508000309771F4C457DE4F8881CC58D1408823C3
:1050900009F4E2C28091416283FFDEC2E3E0F0E006
:1050A000EE0FFF1FE853FD4F859194919F938F93CF
:1050B0008CEC9DE49F938F9388E292E69F938F936D
:1050C0000E942D0EB6C0CDB6DEB6C501B4010E9459
:1050D00032360E945E380E94A93820E030E040E875
:1050E0005FE30E9462370E942E384B015C01BCE9ED
:1050F0008B0E911CA11CB11CEDB7FEB7E819F90984
:10510000EDBFFEBF2DB73EB72F5F3F4F7901118234
:1051100032968DB79EB784569F4F680F791FCB018B
:105120008E1B9F0B97FD02C01192F9CF6F927F9259
:105130008DE497E59F938F938CEA9DE49F938F93E3
:10514000FF92EF920E94B23BF70101900020E9F735
:105150003197BF016E197F0941E0C7010E943602F5
:10516000CDBEDEBE13CF62E37EE40E946B3B892B93
:1051700009F09DC06AE37EE48DE392E60E941E1270
:10518000009721F590E080E00E94A40C7C016AE386
:105190007EE48DE392E60E941E12009779F060E4AF
:1051A0007EE40E941E12009749F06AE37EE40E94AA
:1051B0001E12009719F00E94490C8C01E114F104B1
:1051C00081F4DF92CF9285E49EE474CF60E47EE4C4
:1051D0000E941E120097B1F266E37EE40E941E1246
:1051E000D3CF69E87EE4C7010E946B3B892B69F04D
:1051F0006AE074E4C7010E946B3B892B09F443C049
:105200001F921F928EE89EE455CF94E0C92ED12CB8
:10521000012BE9F1FF92EF928EEB9EE49F938F9327
:1052200088E292E69F938F930E94C20EC6010E946D
:1052300022160F900F900F900F900F900F9080916B
:105240007C5390917D538230910509F4A8C1039756
:1052500009F4C3C12DBE3EBEC35DDD4FCDBFDEBF71
:10526000DF91CF911F910F91FF90EF90DF90CF9042
:10527000BF90AF909F908F907F906F905F904F9076
:105280003F902F90089583E0C82ED12CC1CFFF927C
:10529000EF9282ED9EE49F938F9388E292E69F9334
:1052A0008F930E94C20EC6010E942516C2CF67EEE0
:1052B0007EE4C7010E946B3B892B09F049C06AE379
:1052C0007EE48DE392E60E941E12009779F060E47E
:1052D0007EE40E941E12009749F06EEE7EE40E946A
:1052E0001E12009719F00E94490C8C016AE37EE4BB
:1052F0008DE392E60E941E12009799F060E47EE42E
:105300000E941E12009769F067EF7EE40E941E1251
:10531000009739F00E94490C0115110511F0009712
:1053200029F4DF92CF928CEF9EE4C4CE8093EE51AD
:105330009093EF511092EC511092ED510093F45272
:105340001093F55280917E5390917F53806407CCE7
:1053500062E47FE4C7010E946B3B892B09F06FCFA9
:1053600084E090E080932A6290932B6268CF8FE470
:105370009FE40E94470D63CF20917E5330917F536D
:1053800024FF1BC00297029790F488E69FE40E94D6
:10539000650D8BED91E40E947F170E94950260934A
:1053A000F6527093F7528093F8529093F95280918D
:1053B0007E5390917F538F7ED2CB20917E5330913C
:1053C0007F5326FF3AC0029791F583E090E08093E7
:1053D0007C5390937D538091F4529091F5529F931A
:1053E0008F938AE79FE49F938F9388E292E69F933F
:1053F0008F930E94C20E1092000A80911C408F7EF3
:1054000080931C408FE08093050A91E090930A0AF4
:105410002DE83BE52093260A3093270A7894809361
:10542000000A0F900F900F900F900F900F908091A7
:105430007E5390917F538F7B92CB20917E533091FE
:105440007F5325FF10C0039731F482E090E08093F2
:105450007C5390937D531092000A80917E539091DB
:105460007F538F7D7CCB20917E5330917F5327FFDC
:10547000E6CE039709F06CC00E9495026093F0524B
:105480007093F1528093F2529093F35285E00E9410
:10549000EA16F82EE92E85E00E9419178C011127D3
:1054A000692F94FF5BC06F7070E090E080E00E9415
:1054B000323620E030E040E851E40E9491364B0162
:1054C0005C01B801110F880B990B0E94323620E065
:1054D00030E040E85DE30E9491369B01AC01C501DC
:1054E000B4010E9462379B01AC0160E070E080E88B
:1054F00093E40E94613790580E942E38EF92FF92F9
:105500007F936F9383EA9FE49F938F9300EF11E55E
:105510001F930F930E94B23BC8010E947F17ADB743
:10552000BEB71896ADBFBEBF811112C01F930F93B7
:1055300086E690E59F938F9388E292E69F938F9300
:105540000E942D0E0F900F900F900F900F900F90C4
:1055500080917E5390917F538F7701CB6F7170E074
:1055600090E080E00E94323620E030E040E851E4F4
:105570000E9491364B015C01B801110F880B990B09
:105580000E94323620E030E040E85DE30E94913630
:105590009B01AC01C501B4010E946237ADCF0E94EE
:1055A00095020091F6521091F7522091F8523091E5
:1055B000F952601B710B820B930B613177428105AD
:1055C000910508F447CE80917E5390917F5380617E
:1055D00080937E5390937F533DCE0E94950200911D
:1055E000F6521091F7522091F8523091F952601B07
:1055F000710B820B930B613177428105910548F065
:1056000080917E5390917F53806180937E539093DD
:105610007F530E949502E091EE51F091EF5100917D
:10562000F0521091F1522091F2523091F352AB01AD
:10563000BC01401B510B620B730BCF01B0E0A0E02B
:1056400084179507A607B70708F004CE80917E530C
:1056500090917F538068BCCF6AE37EE48DE392E64D
:105660000E941E12009721F066EF7DE40E941E1238
:105670000E94A40C7C01009709F075CDDF92CF92B7
:105680008AEF9DE417CD1F920F920FB60F9211244F
:105690008F939F93AF93BF938091CD579091CE57A7
:1056A000A091CF57B091D0570196A11DB11D809305
:1056B000CD579093CE57A093CF57B093D05781E05A
:1056C0008093260BBF91AF919F918F910F900FBE4A
:1056D0000F901F9018950F930AE00FC00F9308E0EA
:1056E0000CC00F9306E009C00F9304E006C00F93AF
:1056F00002E003C00F9300E000C00F920FB60F92BC
:105700000BB60F921F921124FF921F932F933F937A
:105710004F935F936F937F938F939F93AF93BF93B9
:10572000CF93DF93EF93FF93AEE0B0E4A00FB11DF2
:10573000CD91DC91000F0D5FA02FB0E0FC90109791
:1057400061F01F2D169518F041F02296FBCFE991DC
:10575000F9913097B9F30995F5CFA02FB0E0FC92FD
:10576000FF91EF91DF91CF91BF91AF919F918F9179
:105770007F916F915F914F913F912F911F91FF907A
:105780001F900F900BBE0F900FBE0F900F911895AA
:10579000EF93FF93E1E9F1E608C0EF93FF93E1E9AE
:1057A000F1E632C0EF93E0E653C02F932FB72F936B
:1057B0008F939F93AF93BF936894CF93DF9320E031
:1057C000C485D8E09689DF01A90FB21FA95ABF4F3F
:1057D0008C9120E42C838A839F5F9F738D81258920
:1057E000291302C08F7D8D83968BDF91CF9116F0A8
:1057F0000C94F804BF91AF919F918F912F912FBF7F
:105800002F91FF91EF9118952F932FB72F938F938F
:105810009F93CF93DF93C485D8E08981988181FDE0
:105820000DC0C38981E08C0F8F732489281731F054
:10583000CE0FDF2F20E0D21F9F8B838BDF91CF9184
:105840009F918F912F912FBF2F91FF91EF911895DD
:10585000FF938F938FB78F93F8E08081848187FFC8
:10586000FCCF85818F7B806885838F918FBF8F91DF
:10587000FF91EF9118951F920F920FB60F9211247E
:105880000BB60F922F933F934F935F936F937F933A
:105890008F939F93AF93BF93EF93FF9385E39FE520
:1058A0000E94C105FF91EF91BF91AF919F918F91A0
:1058B0007F916F915F914F913F912F910F900BBE10
:1058C0000F900FBE0F901F9018951F920F920FB65A
:1058D0000F9211240BB60F922F933F934F935F9328
:1058E0006F937F938F939F93AF93BF93EF93FF93A8
:1058F00081E590E60E94C105FF91EF91BF91AF91C4
:105900009F918F917F916F915F914F913F912F91D7
:105910000F900BBE0F900FBE0F901F9018951F9207
:105920000F920FB60F9211240BB60F928F939F9385
:10593000EF93FF938091235D9091245D892B39F142
:10594000809148579091495701969170809348579C
:1059500090934957E0914857F0914957EB5DF24ACF
:105960008081809322088091235D9091245D01972E
:105970008093235D9093245DFF91EF919F918F9190
:105980000F900BBE0F900FBE0F901F901895809137
:1059900025088F7D80932508EFCF1F920F920FB6B9
:1059A0000F9211240BB60F920F931F932F933F93D7
:1059B0004F935F936F937F938F939F93AF93BF9317
:1059C000CF93DF93EF93FF938091200820915A5853
:1059D00030915B582F5F3F4F317020935A5830936E
:1059E0005B58E0915A58F0915B58E45AF74A80832B
:1059F00020915E5A30915F5A2F5F3F4F20935E5A3D
:105A000030935F5A20910C4030910D402130310588
:105A100071F108F447C02230310509F4D7C02330B2
:105A2000310561F48B3251F410924657109247576A
:105A300081E090E080930C4090930D400E94850798
:105A4000FF91EF91DF91CF91BF91AF919F918F9196
:105A50007F916F915F914F913F912F911F910F9186
:105A60000F900BBE0F900FBE0F901F90189590EDEA
:105A7000980F9A3018F483E090E0DCCF20914657DD
:105A800030914757A9014F5F5F4F4093465750935E
:105A90004757265D384AF901808310920C401092D6
:105AA0000D40CCCF8A3319F08D3009F077C083E0F8
:105AB00090E080930C4090930D4010E000E0E801EE
:105AC00085E0CC0FDD1F8A95E1F7CD51D44A2C8DAE
:105AD00080914657909147572817190609F057C0EB
