:100000000C949D000C94742A0C9431270C94742A3F
:100010000C94742A0C94742A0C94742A0C94742AE8
:100020000C94742A0C94742A0C94742A0C94742AD8
:100030000C94742A0C94742A0C94742A0C94742AC8
:100040000C94742A0C94742A0C94742A0C94A22193
:100050000C94742A0C94742A0C94742A0C94742AA8
:100060000C94742A0C94742A0C94742A0C94742A98
:100070000C94742A0C94742A0C94881F0C94742A7F
:100080000C946C200C9499200C944A250C94742A9E
:100090000C94742A0C94742A0C94742A0C94742A68
:1000A0000C94742A0C94742A0C94742A0C94CA210B
:1000B0000C94742A0C94742A0C94742A0C94742A48
:1000C0000C94742A0C94742A0C94742A0C94742A38
:1000D0000C94742A0C94742A0C94742A0C94742A28
:1000E0000C94742A0C94742A0C94742A0C94742A18
:1000F0000C94742A0C94742A0C9412200C943F20B3
:100100000C9418254000460A80460A465B005506B6
:10011000465B467F80467F46A300555746A346C7A9
:100120008046C746DF00557B46DF46E38046E34610
:10013000ED00559346ED46FC800011241FBECFEF25
:10014000CDBFDFE7DEBFE4E0F1E041E019C0B791E9
:10015000A79137912791079107FD0EC0979187913D
:10016000EF01F92FE82F0BBF07900D92A217B307ED
:10017000D9F7FE011BBE04C01D92A217B307E1F719
:10018000E933F40721F70E94E1270C94C700F894A3
:02019000FFCF9F
:100192004D432B41424F5554004D432B424C4F424D
:1001A20054455354004D432B50494E47004D432B69
:1001B2004252494447454D4F4445004D432B454328
:1001C200432B47454E5055424B4559004D432B4515
:1001D20043432B4C4F434B004D432B4543432B4F43
:1001E20054502B52454144004D432B4543432B5021
:1001F20055424B45592B52454144004D432B4543F3
:10020200432B5055424B45592B5752495445004DAB
:10021200432B4543432B52454144004D432B454319
:10022200432B53455249414C004D432B4543432BED
:100232005349474E444947455354004D432B454388
:10024200432B5752495445424C4F42004D432B4792
:1002520045544C4544004D432B4C495354434F4D58
:100262004D414E4453004D432B5245534554004D8E
:10027200432B5345544C4544004D432B5645525352
:04028200494F4E0092
:10028600434F4D4D414E4448414E444C455200313A
:100296002E332E300025730D0A004649524D574124
:1002A600524500302E332E31004156522D496F549F
:1002B6002043656C6C756C6172004156522D496F16
:1002C600542043656C6C756C61722070726F766930
:1002D60073696F6E696E672046570025730D0A466F
:1002E600572025730D0A436F6D6D616E642068613A
:1002F6006E646C65722025730D0A666F72207468D1
:10030600652025730D0A004D432B504F4E473D2562
:0503160073000D0A0058
:10031B00920100FD1D009B0100592A01A701001944
:10032B002200AF0100C71D00BD0100791400CE01F2
:10033B0000C21A00DA01006F0E00EA0100821500FC
:10034B00FD0100FD12011102003A0D001D0200AE6D
:10035B001C002B0200D815013D0200DA0D014E02E4
:10036B0000301200580200B91900680200FB280087
:0C037B007102003F1A007B02005C1100C0
:100387000D0A0057656C636F6D6520746F20746884
:1003970065204156522D496F542043656C6C756C2E
:1003A70061722070726F766973696F6E696E67200C
:1003B700636F6D6D616E642068616E646C65722138
:1003C7000D0A0052454144590D0A004F4B0D0A00D2
:1003D7004552524F523A20307825580D0A003E00B8
:1003E700511B002828002419001C32004313021552
:1003F7002300408D0230050056A50017230008375B
:10040700001614004632001B170002050080E001A9
:10041700771409474B00419902200A00453D041211
:020427002D00A6
:10042900511B002828002419001C320043AC001578
:10043900230040D70030050056A5001723000837D0
:10044900001614004632001B170002050080A000A8
:10045900777102472A0041DC00200A004527011272
:020469002D0064
:10046B00511B002828002419001C3200434B001597
:10047B00190040730030050056A5001723000837FC
:10048B00001614004632001B1700020500805000B6
:10049B0077FA00472400417300200A0045690012D7
:0204AB002D0022
:1004AD004F4E004F4646004C45443A257320697324
:1004BD00204F4E0A0D004C45443A25732069732098
:1004CD004F46460A0D0045525200444154410043E7
:0E04DD004F4E4E0043454C4C005553455200C7
:1004EB00280D002414001C3200433A00150B004069
:1004FB007300111700300200172000080E00161DA4
:10050B00000103004630001B1700020500470900DD
:0C051B00413C00200A00454800121A0074
:10052700280D002414001C3200150B004073001125
:100537001700300200172000080E00161D000103E7
:10054700004630001B1700020500470900413C0028
:09055700200A00454800121A00B8
:100560002826001C3E00152B001145003002001704
:100570001800082300163C000102001B320002058F
:0A05800000471600200C00122A00AC
:0A058A005045524D414E454E5400BD
:100594009F92AF92BF92CF92DF92EF92FF920F930E
:1005A4001F93CF93DF9300D01F92CDB7DEB7F82E01
:1005B400009105401091064000381105A8F082E032
:1005C40090E00E94971E10920540109206408F2DD5
:1005D4000E948328882321F081E080938A4406C204
:1005E40083E080938A4402C280918A448130A9F0D6
:1005F40038F0823009F433C1833009F4A4C1ACC1AA
:10060400109205401092064081E080938A448F2D19
:100614000E948328882361F0E9C18F2D0E948328DA
:10062400882309F49DC10115110509F0A4C1DEC197
:1006340081E090E08093054090930640F09208405A
:10064400D5C10F2EFBE1CF2EF3E0DF2EF0E0EF2E2D
:10065400F02D00E010E05801F6015E2D0E9478288C
:100664009E012F5F3F4F48E050E40E947717882394
:10067400A9F0C501880F991FA80EB91EAA0CBB1CAE
:10068400C501A0E0855E9C4FAF4F809300409093DE
:100694000140A09302400F1550F086C10F5F1F4F19
:1006A40026E0C20ED11CE11C0F15A8F279C11092EC
:1006B400074009811A81D8018C918D3309F078C1E2
:1006C40011968C910E948328811172C10F5F1F4F74
:1006D40087E890E4D82ED01A00938B4410938C446E
:1006E400DD2009F461C1E12C5801F80180810E94E8
:1006F400C924F82ED8018D938D010E948328882364
:1007040059F0EE2009F450C1F501108280910740A0
:100714008F5F809307404CC1FCE2FF1212C0EE20B1
:1007240009F442C1F80131971082E0910740EF5F6C
:10073400E0930740F0E0EE0FFF1FE557FB4B00830B
:100744001183E394DE1409F42FC1809107408F30A4
:1007540058F22AC1E0910740EE23E1F1F0E0EE0FF8
:10076400FF1FE757FB4B6081718180E820E030E098
:10077400AE014F5F5F4F0E942907609388407093DA
:1007840089406130744068F080E094E08093884050
:100794009093894084E090E00E94971E10928A44CE
:1007A40025C199818A815B81E92FF82F0E949029C4
:1007B400611109C065EE73E080E00E94652282E069
:1007C40080938A4413C184E090E00E94971E1092A3
:1007D4008A440CC181E090E00E94971E10928A44E2
:1007E40005C10396A11DFC015A2F0E941F29FB017C
:1007F40023E030E44AE850E46BE874E48091074075
:1008040009956C018091034090910440892B09F172
:100814008091DF469091E046892BD9F00F2EFAE8BB
:10082400EF2EF0E4FF2EF02D00E010E0E091DF4623
:10083400F091E046D7018D917D0109950F5F1F4F1F
:1008440080910340909104400817190778F30E949F
:100854009729C6010E94971E10928A44C7C000912E
:100864000340109104400115110539F48F2D0E94A5
:100874008328882309F4B2C0B9C08091884090913C
:1008840089400817190758F4C8010196809303405A
:1008940090930440F801E657FF4BF082A7C08F2DD8
:1008A4000E948328882309F446C00E9497298091D6
:1008B400004090910140A09102400396A11DFC01CB
:1008C4005A2F0E941F29FB0123E030E44AE850E438
:1008D4006BE874E48091074009956C0180910340B2
:1008E40090910440892BF9F08091DF469091E04685
:1008F400892BC9F00F2EFAE8EF2EF0E4FF2EF02D2D
:1009040000E010E0E091DF46F091E046D7018D91E0
:100914007D0109950F5F1F4F809103409091044022
:100924000817190778F30E949729C6010E94971E99
:1009340010928A445BC084E090E00E94971E83E09A
:1009440080938A4453C08F2D0E948328882309F4FE
:100954004DC010928A444AC083E080938A4446C0C2
:10096400C80101968093054090930640F801E85F22
:10097400FF4BF0823BC0C8010196809305409093E1
:100984000640F801E85FFF4BF0820E94972988E057
:1009940090E489839A830E94762AF82E811151CE9D
:1009A400CC24C394D12C55CFCC24C394D12C51CF77
:1009B40010920340109204408091004090910140B5
:1009C400A09102409C014A2F2B5F3F4F4F4FF901EA
:1009D400542F0E9490296111BDCE03CF809188408D
:1009E40090918940892B09F4A6CF4ECF2396CDBF91
:1009F400DEBFDF91CF911F910F91FF90EF90DF90B9
:0A0A0400CF90BF90AF909F9008952F
:100A0E002F923F924F926F927F928F929F92AF92C0
:100A1E00BF92CF92DF92EF92FF920F931F93CF93DD
:100A2E00DF93CDB7DEB76297CDBFDEBF6C013A0163
:100A3E00862E7901FC0117821086848181FFEBC11D
:100A4E009E012F5F3F4F2C873D87C901A0E8888B01
:100A5E00998BAA8B9FE3992EF301582D0E94902912
:100A6E00862F662309F4D3C1482D93012F5F3F4F84
:100A7E004F4F653219F03901842E0BC0F901542FF6
:100A8E000E949029862F92E0690E711C811C65329E
:100A9E0029F4B60190E00E94FD1BDECFB12C00E0E0
:100AAE0010E01032A0F48B3269F030F4803259F03D
:100ABE00833269F410612CC08D3239F0803339F4F1
:100ACE00116026C01260146023C0186021C017FD8B
:100ADE002AC090ED980F9A3078F416FF06C0AAE05F
:100AEE00BA9E900D1124B92E13C0EAE00E9F900D00
:100AFE001124092F10620CC08E3221F416FD87C10D
:100B0E00106406C08C3611F4106802C0883659F491
:100B1E00F301582D0E949029862FFFEF6F1A7F0A3E
:100B2E008F0A6111BECF982F9F7D9554933028F474
:100B3E0024E0E20EF11C99820FC0833631F0833728
:100B4E0091F0833509F064C027C0F7018081898355
:100B5E0097012E5F3F4F7901288839884A88AA2449
:100B6E00A394B12C17C0A7014D5F5F4F4E875F87CF
:100B7E00F70120803180428016FF03C04B2D50E0DC
:100B8E0002C04FEF5FEF842DB1010E94AD245C01D6
:100B9E00EE84FF841F7718C097012D5F3F4F2E877D
:100BAE003F87F70120803180428016FF03C04B2D16
:100BBE0050E002C04FEF5FEF842DB1010E94AD24D3
:100BCE005C011068EE84FF8413FD1EC0802F90E040
:100BDE00A816B906C8F4B60180E290E00E94FD1B8B
:100BEE000150F4CFF101542D0E949029862FFFEF72
:100BFE002F1A3F0A4F0AB60190E00E94FD1B011109
:100C0E00015021E0A21AB108A114B10459F7F5C0A0
:100C1E00843611F0893671F5F70117FF08C060812F
:100C2E0071818281938197012C5F3F4F09C0608152
:100C3E007181072E000C880B990B97012E5F3F4F89
:100C4E0079011F76312E97FF0AC090958095709589
:100C5E0061957F4F8F4F9F4F312F3068332E2AE093
:100C6E0030E0AE014F5F5F4F0E94BF13482E4C85A0
:100C7E00441A4AC0853729F41F7EA12E2AE030E09F
:100C8E0025C0512F597FA52E8F36C1F018F4883507
:100C9E0079F0BDC0803719F0883721F0B8C0852FA4
:100CAE008061A82EA4FE0DC09A2D9460A92E09C0B5
:100CBE0014FF0AC0A52FA660AA2E06C028E030E0B9
:100CCE0005C020E130E002C020E132E0F701A7FECE
:100CDE0008C06081718182819381A7014C5F5F4F53
:100CEE0007C06081718180E090E0A7014E5F5F4F89
:100CFE007A01AE014F5F5F4F0E94BF13482E5C8595
:100D0E00451A8A2D8F77382E36FE0DC0932D9E7F75
:100D1E00A92E4B1458F434FE0BC032FC09C0A32D7F
:100D2E00AE7EAA2E05C0142DA32C03C0142D01C017
:100D3E001B2DA4FE0EC0FE01E40DF11D808180333B
:100D4E0021F4EA2DE97EAE2E08C0A2FE05C01E5F7C
:100D5E0004C08A2D867809F01F5FA3FC11C0A0FE87
:100D6E0006C0101788F4040DB02EB11A0EC010175D
:100D7E0060F4B60180E290E00E94FD1B1F5FF7CF8A
:100D8E00101718F4011B02C0B42C00E0A4FE10C012
:100D9E00B60180E390E00E94FD1BA2FE17C0A1FCED
:100DAE0003C088E790E002C088E590E0B6010CC071
:100DBE008A2D867859F0A1FE02C08BE201C080E236
:100DCE00A7FC8DE2B60190E00E94FD1B4B1438F497
:100DDE00B60180E390E00E94FD1BBA94F7CF4A94CF
:100DEE00E1E0F0E0EC0FFD1FE40DF11D8081B60196
:100DFE0090E00E94FD1B4110F2CF002309F42CCE8F
:100E0E00B60180E290E00E94FD1B0150F6CFF60184
:100E1E008781908502C08FEF9FEF6296CDBFDEBFB8
:100E2E00DF91CF911F910F91FF90EF90DF90CF90B8
:100E3E00BF90AF909F908F907F906F904F903F900C
:040E4E002F90089544
:100E52002F923F924F925F926F927F928F92AF92B8
:100E6200BF92CF92DF92EF920F931F93CF93DF93B4
:100E7200CDB7DEB72697CDBFDEBF3B01882E5A0124
:100E820019014115510521F0FA01608371838283B2
:100E92002114310429F0C1010297839708F021C17E
:100EA200E82C6301FFEFCF1ADF0AEF0AF301582D96
:100EB2000E949029162F862F90E00E9428293C2D0F
:100EC2002D2D5E2D892B19F036018E2CE9CF1D3286
:100ED20069F4E82C630142E0C40ED11CE11CE32F4B
:100EE200F22F0E949029162F01E00EC01B3259F4F6
:100EF200E82C630182E0C80ED11CE11CE32FF22F23
:100F02000E949029162F00E02114310409F190E18A
:100F12002916310429F43FC010E32114310421F1D0
:100F2200F8E02F16310401F154F432E023163104B3
:100F320021F5412C512C612C50E4752E4CC04AE015
:100F42002416310439F050E125163104B1F43EC0C3
:100F5200103319F13AE0232E312C4CEC442E542C50
:100F6200642C4CE0742E37C098E0292E312C412C91
:100F7200512C612C20E1722E2EC060E070E080E0E6
:100F820090E89101032C000C440B550B0E943A236C
:100F920029013A0120C01033C9F4F6015E2D0E94E6
:100FA20090296F7D683509F0B7CFAE2DC601019645
:100FB200A11DFC015A2F0E949029162FE2E0CE0EAD
:100FC200D11CE11C026060E1262E312C412C512CF7
:100FD200612C88E0782E70E080E090E0DC019101E5
:100FE200032C000C440B550B29833A834B835C83FF
:100FF200E0EDE10FEA3060F02FEB210F2A3110F41F
:10100200E9EC05C02FE9210F2A3178F5E9EAE10F71
:101012002E2F30E02215330544F577FD1CC048160B
:1010220059066A067B06A0F029813A814B815C81D0
:10103200BC01CD010E941227DC01CB018E0F911D54
:10104200A11DB11D81309105A10530E8B30710F053
:101052007FEF01C071E0F6015E2D0E949029162FEC
:101062004FEFC41AD40AE40AC3CF202F2170A1146F
:10107200B104B1F0772349F051E0C51AD108E10873
:10108200F501C082D182E2820BC001FF1DC0F2E0F5
:10109200CF1AD108E108F501C082D182E28214C0E0
:1010A20077FF12C0222329F080E090E0A0E0B0E8B0
:1010B20004C08FEF9FEFAFEFBFE722E230E0209353
:1010C200C8443093C94409C0222381F0B095A09549
:1010D200909581959F4FAF4FBF4FBC012A2F9B2FF9
:1010E20012C060E070E020E090E00DC0B7FFF5CFE5
:1010F20082E290E08093C8449093C9448FEF9FEFBF
:10110200AFEFBFE7EACF822F2696CDBFDEBFDF91DA
:10111200CF911F910F91EF90DF90CF90BF90AF9042
:101122008F907F906F905F904F903F902F90089597
:101132004F925F926F927F928F92AF92BF92CF92B5
:10114200DF92EF92FF920F931F93CF93DF93CDB76E
:10115200DEB72697CDBFDEBF3B01882E5A0189013B
:101162004115510521F0FA016083718382830115D3
:10117200110529F0C8010297839708F005C1E82CF0
:101182006301FFEFCF1ADF0AEF0AF301582D0E9425
:101192009029F62E862F90E00E9428293C2D2D2D95
:1011A2005E2D892B19F036018E2CE9CF4DE2F41217
:1011B2000EC0E82C630182E0C80ED11CE11CE32FB3
:1011C200F22F0E949029F62E882483940FC0EBE21E
:1011D200FE120BC0E82C6301F2E0CF0ED11CE11C21
:1011E200E32FF22F0E949029F62E812C0115110572
:1011F200A1F00031110531F4D0C080E3F82E0115C1
:10120200110571F10A30110509F442C000311105CE
:10121200F1F00830110569F523C0F0E3FF1236C082
:10122200F6015E2D0E9490296F7D683531F7AE2D53
:10123200C6010196A11DFC015A2F0E949029F62E8B
:1012420022E0C20ED11CE11C382D3260832E00E157
:1012520010E044244A94542C642C3FE0732E1EC0A8
:1012620008E010E044244A94542C642C2FE1722E9E
:1012720015C06FEF7FEFCB019801012E000C440BDC
:10128200550B0E943A2329013A0108C00AE010E0F6
:1012920099E9492E542C642C99E1792E70E080E072
:1012A20090E0DC019801012E000C440B550B2983C0
:1012B2003A834B835C83E0EDEF0DEA3060F02FEB75
:1012C2002F0D2A3110F4E9EC05C02FE92F0D2A3138
:1012D20090F5E9EAEF0D2E2F30E0201731075CF58B
:1012E2007F3FF9F0481659066A067B06B8F0298155
:1012F2003A814B815C81BC01CD010E9412272E2FC5
:1013020030E040E050E0DC01CB01820F931FA41FCC
:10131200B51F82179307A407B50710F47FEF01C02A
:1013220071E0F6015E2D0E949029F62E3FEFC31A5E
:10133200D30AE30AC0CFA114B10489F0772329F0BC
:1013420041E0C41AD108E10806C081FE08C0F2E0FB
:10135200CF1AD108E108F501C082D182E28280FE73
:1013620007C0B095A095909581959F4FAF4FBF4F05
:101372007F3F79F482E290E08093C8449093C9441D
:101382006FEF2FEF9FEF0DC060E070E020E090E084
:1013920008C0BC012A2F9B2F04C020E3F21257CFB2
:1013A2003FCF822F2696CDBFDEBFDF91CF911F9117
:1013B2000F91FF90EF90DF90CF90BF90AF908F9002
:0A13C2007F906F905F904F900895A8
:1013CC002F923F924F926F927F928F929F92AF92F9
:1013DC00BF92CF92EF92FF920F931F93CF93DF9315
:1013EC00CDB7DEB72697CDBFDEBF19821A82833008
:1013FC0008F0A1C0823021F46031710508F09DC065
:10140C00E114F10409F49BC001151105210509F43F
:10141C0098C0F701E42BF52BE370FF27EF2B09F0B5
:10142C0092C057011801422E4A016D837E83182FFA
:10143C00AE014F5F5F4F0E9497128111ABC02981A3
:10144C003A81C701880D991D2817390708F47DC00A
:10145C00C40196958795929582958F7089279F7078
:10146C0089278B839C839FE1892299249694879466
:10147C0096948794612C712C8114910441F5C501CB
:10148C0086199709809718F1111105C08B819C81E1
:10149C00029709F46CC06894CC24C5F8042D710132
:1014AC00E60CF71C011D77FC0A9520E04B816D8141
:1014BC007E81812F0E94C61781116CC090E2690E4B
:1014CC00711C8B819C8101968B839C832EC0111186
:1014DC0008C08B819C81029721F495E089169104B8
:1014EC00B1F16894CC24C2F8042D7101E60CF71C00
:1014FC00011D77FC0A95282D4B816D817E81812FF2
:10150C000E94C617811146C084E0680E711C9FEFC3
:10151C00891A990A88E08816910439F48B819C8188
:10152C0001968B839C83812C912C6A147B0408F488
:10153C00A3CF80E02FC082EE2DC082EE2BC080E0C6
:10154C0029C082EE27C082EE25C082EE23C094E033
:10155C00690E711C0F2EF6E08F2E912CF02DE5CF1D
:10156C0084E0680E711C9FEF891A990ADECF68948B
:10157C00CC24C2F8042D7101E60CF71C011D77FC7C
:10158C000A95282D4B816D817E81812F0E94C61773
:10159C00882331F32696CDBFDEBFDF91CF911F910B
:1015AC000F91FF90EF90CF90BF90AF909F908F9046
:0C15BC007F906F904F903F902F9008950B
:1015C8002F923F924F925F926F927F928F929F924B
:1015D800AF92BF92CF92DF92EF92FF920F931F9339
:1015E800CF93DF93CDB7DEB7A597CDBFDEBF198206
:1015F8001A82833008F0A2C0823021F4603171056C
:1016080008F09EC00115110509F49CC0211531058B
:1016180009F49AC0680119012A016CA37DA38BA360
:10162800AE014F5F5F4F0E949712811190C02981D0
:101638003A81C801840D951D2817390708F486C01A
:101648003201769467947694679476946794769446
:101658006794769467946894FF24F5F8812C912C0C
:10166800A12CB12C80E2F8121CC089819A819301C7
:10167800220F331F22953295307F3227207F322761
:10168800821B930B809768F442018A0C9B1C9694EA
:1016980087949694879497E0892299246894FF24E4
:1016A800F2F8EF2C8E010D5F1F4F282D462D6CA1EF
:1016B8007DA18BA10E94EC10811149C0C301880F44
:1016C800991F880F991F880F991F880D991D880FDA
:1016D800991F880F991F8415950520F4A201481BAE
:1016E800590B02C040E050E08F2D90E0841B950B11
:1016F80086010A191B098017910708F48C0183E0F9
:1017080090E08C0F9D1F480F591F60E89801C10198
:101718008A0D9B1D0E946325A00EB11E90E2F9124E
:1017280004C08FEF681A780A03C09FEF891A990AD4
:10173800AC14BD0408F496CF80E009C082EE07C05F
:1017480082EE05C080E003C082EE01C082EEA5965D
:10175800CDBFDEBFDF91CF911F910F91FF90EF902A
:10176800DF90CF90BF90AF909F908F907F906F90B9
:0A1778005F904F903F902F9008956E
:10178200EF92FF921F93CF93DF930E94031B60E0BF
:1017920074E0FB01108240E254E0FA01108220E47E
:1017A20034E081E0F901808380E694E0FC0110825C
:1017B200C0E8D4E01882A0EAB4E01C920F2EF0EC4C
:1017C200EF2EF4E0FF2EF02D11E1F7011083FB0163
:1017D2001482FA011482F9011482FC0114821C821F
:1017E20014961C921497F7011482FB01108A118A35
:1017F200128A138A148A158A168A178AFA01108A9B
:10180200118A18E0128B138B148A158A168A178A8A
:10181200F901108B118B128A138A148A158A168A7F
:10182200178AFC01108A118A128A138A148A158A6D
:10183200168A178A188A198A1A8A1B8A1C8A1D8A8A
:101842001E8A1F8A50961C92509751961C9251974D
:1018520052961C92529753961C92539754961C92EE
:10186200549755961C92559756961C925697579692
:101872001C925797F701108B118B128A138A148AC4
:10188200158A168A178AFB01138616861586148610
:10189200FA011386168615861486F90113861686B2
:1018A20015861486FC0113861686158614861B86F9
:1018B2001E861D861C861B961C921B971E961C92CA
:1018C2001E971D961C921D971C961C92F70113865B
:1018D200168615861486E0EEF5E0118611821082D6
:1018E2001482168217821086158312821382128640
:0C18F200DF91CF911F91FF90EF900895BF
:1018FE008F929F92AF92BF92CF92DF92EF92FF9212
:10190E000F931F93CF93DF931F92CDB7DEB74C018A
:10191E000E94AF22109223090F2EF2E2CF2EF4E096
:10192E00DF2EF02D04E0D6010C930F2EF5E2EF2EF4
:10193E00F4E0FF2EF02D18E0F7011083E1E2F4E061
:10194E0010830F2EF6E2AF2EF4E0BF2EF02DD50150
:10195E000C93008361E070E080E090E00E944F27DE
:10196E00F5011083D6010C9361E070E080E090E009
:10197E000E944F27F701108361E070E080E090E055
:10198E000E944F2708E010E06894FF24F3F8EF2C34
:10199E000F2EF5E2CF2EF4E0DF2EF02DD501EC92D6
:1019AE0061E070E080E090E00E944F27F601F08247
:1019BE0061E070E080E090E00E944F270150110935
:1019CE0069F714E0109326041093210461E070E08F
:1019DE0080E090E00E944F270F2EF2E2EF2EF4E00F
:1019EE00FF2EF02DD7011C9361E070E080E090E0B7
:1019FE000E944F2788E0F70180838CE080932604B5
:101A0E0081E0809323090E945624823089F4C40118
:101A1E000E9475190E945624823051F46CE677E0CC
:101A2E0080E090E00E94AD260E945624823061F044
:101A3E00198241E050E0BE016F5F7F4F8091EF460B
:101A4E000E94D32280E001C081EF0F90DF91CF91F1
:101A5E001F910F91FF90EF90DF90CF90BF90AF90BE
:061A6E009F908F90089587
:101A7400AF92BF92CF92DF92EF92FF920F931F9398
:101A8400CF93DF93CDB7DEB72697CDBFDEBFB82E99
:101A94008B016A01790119821A821B821C82BA01A4
:101AA40080E8A9010E942227882309F453C08FEFFC
:101AB4008B0D823008F051C00115110509F450C096
:101AC400F8016081718180E8AE014F5F5F4F0E9431
:101AD4001E26009709F049C0F1E0FB1570F4F801E7
:101AE4006281738180E8AE014D5F5F4F0E94F221F5
:101AF400811117C085E090E038C069817A81AE0118
:101B04004B5F5F4F82E00E9497122D813E812B83B1
:101B14003C83882331F090E09160F70110821182B8
:101B240039C00B811C8101151105E9F022C0A50102
:101B340060E896018B819C810E942E16F7018083B8
:101B4400918380E090E026C0F7011082118290E03A
:101B5400916020C085E090E01DC083E090E005C066
:101B640085E090E002C085E090E0F70110821182E8
:101B740011C0F701108211825601A00EB11E6981B5
:101B84007A81950140E050E082E00E94E40A8111EC
:101B9400DBCFCDCF2696CDBFDEBFDF91CF911F9196
:101BA4000F91FF90EF90DF90CF90BF90AF9008958A
:101BB4006F927F928F92BF92CF92DF92EF92FF92B9
:101BC4000F931F93CF93DF9300D000D0CDB7DEB730
:101BD400B82E6B017A01890119821A821B821C8238
:101BE4003A0180E8882EA901882DB3010E9422279A
:101BF400882309F447C0E3E0BE124AC0C114D104EB
:101C040009F449C0F6016081718180E8AE014F5F3B
:101C14005F4F0E941E26009709F045C0F6016281BD
:101C2400738180E8AE014D5F5F4F0E94F2218823EB
:101C3400A9F12B813C812115310599F138C0220F7E
:101C4400331F8217930731F0F8011082118285E067
:101C540090E033C09701682DA3010E942C15F80170
:101C640010821182EB80FC8069817A81282D8301A6
:101C740040E050E082E00E94E609882331F090E0E1
:101C840091601BC085E090E018C080E090E015C032
:101C940083E090E008C085E090E005C085E090E036
:101CA40002C085E090E0F8011082118206C0F801BC
:101CB40080819181009741F2C2CF2496CDBFDEBFCF
:101CC400DF91CF911F910F91FF90EF90DF90CF9014
:0A1CD400BF908F907F906F900895ED
:101CDE00AF92BF92CF92DF92EF92FF920F931F932C
:101CEE00CF93DF9300D000D0CDB7DEB7182F5B01B6
:101CFE006A01790119821A82BA0180E8A9010E944B
:101D0E002227882309F444C0123008F055C0A114CC
:101D1E00B10409F454C0112371F0F5016081718191
:101D2E0080E8AE014F5F5F4F0E94F221811117C014
:101D3E0085E090E049C0AE014D5F5F4F60E070E01E
:101D4E0081E00E9497122B813C8129833A8388235C
:101D5E0031F090E09160F7011082118238C0098154
:101D6E001A810115110571F116C0A50160E89601E1
:101D7E0089819A810E942E16F7018083918380E0DB
:101D8E0090E025C0F7011082118290E091601FC093
:101D9E0085E090E01CC0F701108211825601A00E62
:101DAE00B11E950140E050E060E070E081E00E94DD
:101DBE00E40A8111E7CFD9CF83E090E005C085E03A
:101DCE0090E002C085E090E0F70110821182249627
:101DDE00CDBFDEBFDF91CF911F910F91FF90EF909E
:0A1DEE00DF90CF90BF90AF900895F2
:101DF8006F927F928F92CF92DF92EF92DB019C914C
:101E0800913009F463C0C0F0923019F0933031F08A
:101E180055C074E12BEE34E040E066C011969C9109
:101E28001197983209F457C0983609F459C076E1E9
:101E38002BE634E040E058C02FEF3FEF12962D9389
:101E48003C9313977EE020E635E040E0F901542FFB
:101E58000E949029861327C012C03901842E2D5F55
:101E68003F4F4F4F6901E42E53E0C51AD108E108EE
:101E7800F6015E2D0E949029681319C002C039012D
:101E8800842E482D93012F5F3F4F4F4FF901542F58
:101E98000E941F2912966D937C9313976F3F7F4F73
:101EA80059F482EF28C02D5F3F4F4F4F90E09F5F5E
:101EB800971798F282EF1FC080E01DC08FEF9FEF49
:101EC80012968D939C93139782EF15C073E127E2C6
:101ED80035E040E009C076E129E234E040E004C0A2
:101EE80076E127EE33E040E0EFEFFFEF1296ED9357
:101EF800FC931397ABCFEF90DF90CF908F907F90AC
:041F08006F90089539
:101F0C00AF92BF92CF92DF92EF92FF921F93CF933B
:101F1C00DF9300D0CDB7DEB76C017B01DB016D9197
:101F2C007C91FC0182810E94FC0E811158C0D7016A
:101F3C00ED91FC911197A280B38012968D919C919A
:101F4C0013970E945E26182F811143C0F601418120
:101F5C0050E0B601D70112968D919C9113970E9477
:101F6C006D29182F811135C0B50180E090E00E94D9
:101F7C00AD26B6E0CB0ED11C80ECF60111928A9501
:101F8C00E9F780EC90E089839A83AE014F5F5F4F55
:101F9C00B601D70112968D919C9113970E947429CA
:101FAC00182F811116C089819A818430910520F4F3
:101FBC00892B71F417EE0DC0B60180E80E94EB1866
:101FCC00182F811106C0C6010E94C81E182F01C00F
:101FDC0016EEF701828193810E94BE26812F0F900D
:101FEC000F90DF91CF911F91FF90EF90DF90CF90EA
:061FFC00BF90AF900895B4
:102002006F927F928F92AF92BF92CF92DF92EF92B6
:102012000F931F93CF93DF93CDB7DEB7A097CDBFBA
:10202200DEBF6115710509F450C09C0128503109C9
:102032002830310508F04BC06B015C016894EE2436
:10204200E5F88E010F5F1F4F20E040E0BC0182E007
:102052000E94EC1081113DC0AE014B5F5F4F60E802
:102062002CE130E0C6010E94632520E041E0B50189
:1020720082E00E94EC1081112CC0380180E8882E89
:1020820024E030E0682DA301C6014C960E9463252E
:10209200AE01475F5F4F60E828E130E0C6018096FD
:1020A2000E94632520E042E0B50182E00E94EC102C
:1020B200182F81110EC028E030E0682DA301C6015F
:1020C200C8960E946325812F04C082EE02C082EE70
:1020D20000C0A096CDBFDEBFDF91CF911F910F91BF
:1020E200EF90DF90CF90BF90AF908F907F906F90E6
:0220F20008954F
:1020F4006F927F928F92EF92FF920F931F93CF93E1
:10210400DF93CDB7DEB7C75CD109CDBFDEBF3901E0
:10211400842EE091E146F091E246E080F180982F30
:1021240093708C836D837E83923048F424E130E095
:10213400682DA301CE0107960E94632515C0933034
:10214400B1F585FF09C020E430E0682DA301CE017C
:1021540007960E94632508C020E230E0682DA301A1
:10216400CE0107960E946325BE016F5F7F4FC701B2
:102174000E94E424811120C06091E1467091E246FE
:10218400CE0101960E94860F811116C0011511051A
:1021940081F08F81833278F0AE01485F5F4F60E851
:1021A40020E230E0C8010E94632580E005C082EE91
:1021B40003C080E001C080E0C953DF4FCDBFDEBF64
:1021C400DF91CF911F910F91FF90EF908F907F90AF
:0421D4006F9008956B
:1021D800AF92BF92CF92DF92EF92FF920F931F932D
:1021E800CF93DF93CDB7DEB7C95CD109CDBFDEBFD2
:1021F800F82E6801012BB9F1E091E146F091E24631
:10220800A080B18084E0E816E1F180E2E8122DC0F8
:102218002FC08F2D8068F82EFC82C853DF4F88812D
:102228009981C85CD0408D839E83BE016F5F7F4FCC
:10223800C5010E94DD2881112CC06091E146709192
:10224800E246CE0101960E94860F182F81110FC019
:102258002E2D30E0AE01485F5F4F60E8C6010E9456
:102268006325812F16C082EE14C082EE12C011C001
:102278008E0108531F4F8F2D0E942A1F811109C0FC
:10228800C8CF8E0108531F4F8F2D0E942A1F882305
:1022980019F2C753DF4FCDBFDEBFDF91CF911F913A
:1022A8000F91FF90EF90DF90CF90BF90AF9008957F
:1022B800EF92FF920F931F93CF93DF93823008F032
:1022C80056C08901E52EF42EEB01882351F02881B0
:1022D800398140E866E872E080E00E94831688232E
:1022E800F1F085E992E0A0E0AF939F938F938BE99B
:1022F80092E0A0E0AF939F938F9384E08F931F9217
:10230800EF92FF920E94581DF801808391838DB748
:102318009EB70A968DBF9EBF80E090E02DC02881B1
:10232800398140E860EA72E080E00E9483168823E1
:1023380009F189EA92E0A0E0AF939F938F938BE92C
:1023480092E0A0E0AF939F938F9384E08F931F92C6
:10235800EF92FF920E94581DF801808391838DB7F8
:102368009EB70A968DBF9EBF80E090E005C083E0CF
:1023780090E002C085E090E0DF91CF911F910F912E
:06238800FF90EF900895A4
:10238E006F927F928F92CF92DF92EF92FF920F9386
:10239E001F93CF93DF93CDB7DEB7C75CD109CDBF07
:1023AE00DEBF21153105410509F442C06701E02E5B
:1023BE003901842EA091E146B091E2460D911C9117
:1023CE008C836D837E838823B4F420E230E0682D05
:1023DE00A301CE0107960E946325C114D104E10426
:1023EE00A1F020E230E06E2DA601CE0187960E946C
:1023FE00632541E00BC024E030E0682DA301CE013F
:10240E0007960E94632540E001C040E04170BE0186
:10241E006F5F7F4FC8010E94AC2581110AC0609189
:10242E00E1467091E246CE0101960E94860F01C0F0
:10243E0082EEC953DF4FCDBFDEBFDF91CF911F912B
:10244E000F91FF90EF90DF90CF908F907F906F90D5
:02245E000895DF
:102460000F931F93CF93DF93813009F059C0E90197
:10247000052F142FFB016081718180E80E94391CB7
:10248000882311F090E04EC0E091AB44F091AC4451
:102490000780F085E02D0995882309F1E091AB4490
:1024A000F091AC4482818F9381818F9380818F934F
:1024B00084EB94E0A0E0AF939F938F9384E08F939D
:1024C0001F920F931F930E94581D888399838DB785
:1024D0009EB70A968DBF9EBF80E090E023C0E0913A
:1024E000AB44F091AC4482818F9381818F93808142
:1024F0008F9383EC94E0A0E0AF939F938F9384E05D
:102500008F931F920F931F930E94581D8883998366
:102510008DB79EB70A968DBF9EBF80E090E002C047
:0E25200083E090E0DF91CF911F910F9108951D
:10252E004115510509F45AC0E091E146F091E24699
:10253E000280F381E02D0180F281E02D91819111D5
:10254E001BC0813059F018F0823079F049C088E50F
:10255E0090E0FA018083918380E0089580E490E01A
:10256E00FA018083918380E0089580E290E0FA0181
:10257E008083918380E00895813059F018F0823085
:10258E0079F030C080E890E0FA018083918380E09A
:10259E00089580E490E0FA018083918380E00895AD
:1025AE006830710538F484E290E0FA0180839183FB
:1025BE0080E008956830710539F480EA91E0FA01FF
:1025CE008083918380E008956031710568F488E41A
:1025DE0090E0FA018083918380E0089582EE089561
:0C25EE0082EE089582EE089582EE0895BA
:1025FA008F929F92AF92BF92CF92DF92EF92FF9209
:10260A000F931F93CF93DF9300D0CDB7DEB7F82E89
:10261A004B015A01890119821A826A0180E8E82E5F
:10262A00A9018E2DB6010E942227882371F1F80193
:10263A00808191818038910529F01082118285E08C
:10264A0090E02BC0F80110821182F2E0FF1220C044
:10265A00F4016081718180E8AE014F5F5F4F0E9493
:10266A001E260097D1F495016E2DA60180E890E010
:10267A000E942C156E2DA60189819A810E941D1433
:10268A00882349F090E0916008C085E090E005C099
:10269A0083E090E002C080E090E00F900F90DF911D
:1026AA00CF911F910F91FF90EF90DF90CF90BF9045
:0826BA00AF909F908F900895EE
:1026C2000F931F93CF93DF93EC018091E14690919A
:1026D200E246892B11F00E947927EDEAF4E484ECBA
:1026E20094E48083918381EB94E482839383BF019A
:1026F200CE010E94B71F81113CC08DEA94E4809301
:10270200E1469093E2468981833091F52091AD4470
:102712003091AE442F5F3F4F01E010E043E150E0C3
:1027220060E070E080E00E94E40A8823A9F081EB77
:1027320094E40E947F0CE091E146F091E246208110
:1027420031812F5F3F4F43E150E060E070E080E075
:102752000E94E40A81110DC0E091E146F091E24647
:102762000190F081E02D8181887F818380E001C02A
:0C27720080E0DF91CF911F910F9108953E
:10277E00FA01AA27283051F1203181F1E8946F93A4
:10278E006E7F6E5F7F4F8F4F9F4FAF4FB1E03ED04A
:10279E00B4E03CD0670F781F891F9A1FA11D680FE8
:1027AE00791F8A1F911DA11D6A0F711D811D911D1B
:1027BE00A11D20D009F468943F912AE0269F112490
:1027CE003019305D3193DEF6CF010895462F4770F4
:1027DE00405D4193B3E00FD0C9F7F6CF462F4F704F
:1027EE00405D4A3318F0495D31FD4052419302D0AD
:1027FE00A9F7EACFB4E0A695979587957795679553
:10280E00BA95C9F700976105710508959B01AC0152
:10281E000A2E06945795479537952795BA95C9F779
:0C282E00620F731F841F951FA01D0895EA
:10283A008F929F92AF92BF92CF92DF92EF92FF92C6
:10284A000F931F93CF93DF93CDB7DEB7C056D1094D
:10285A00CDBFDEBF411551056105A1F16A01E62E22
:10286A004C018E010F5F1F4F80E6F80111928A9585
:10287A00E9F720E230E0CE0105960E9463256E2D2D
:10288A00A601405E5F4F6F4F20E230E0CE0189968D
:10289A000E946325580110E0C501A0E86894CC2481
:1028AA00C5F87C010A2F20E0412FB40182E00E9482
:1028BA00C617811108C0F0E2AF0EB11C1F5F1330BA
:1028CA0059F701C082EEC05ADF4FCDBFDEBFDF919C
:1028DA00CF911F910F91FF90EF90DF90CF90BF9013
:0828EA00AF909F908F900895BC
:1028F200AF92BF92DF92EF92FF920F931F93CF930B
:10290200DF9300D0CDB7DEB7D82E5B017A01890103
:1029120019821A82BA0180E8A9010E94222788231B
:1029220071F1F80110821182F1E0FD1558F1DF1208
:102932000CC0F5016081718180E8AE014F5F5F4F8D
:102942000E941E26009719F502C019821A825701A9
:10295200F0E4AF0EB11CB50189819A810E948627ED
:10296200811113C0A50160E8970180E490E00E9404
:102972002E16F8018083918380E090E008C085E004
:1029820090E005C083E090E002C090E091600F907B
:102992000F90DF91CF911F910F91FF90EF90DF90F9
:0629A200BF90AF90089504
:1029A800CF92DF92EF92FF920F931F93CF93DF9313
:1029B800CDB7DEB7C75CD109CDBFDEBFFB01642F41
:1029C800A9016801A091E146B091E246ED90FC9022
:1029D8008C83ED83FE8341155105610531F023E0B9
:1029E80030E0CE0107960E946325BE016F5F7F4FDE
:1029F800C7010E940227182F81111CC06091E1466F
:102A08007091E246CE0101960E94860F182F81111F
:102A180011C0C114D10471F08F81833451F4AE0117
:102A2800485F5F4F60E820E430E0C6010E946325FC
:102A380001C016EE812FC953DF4FCDBFDEBFDF9136
:102A4800CF911F910F91FF90EF90DF90CF90089555
:102A58008F929F92AF92BF92CF92DF92EF920F9395
:102A68001F93CF936A01E62E452B462BA1F18230A6
:102A78009105A0F14C019694879481709927880E4E
:102A8800991E8114910469F189015901A80CB91C96
:102A9800F6015E2D0E949029862F0E947326C82F6A
:102AA800C295C07F82E0C80ED11CE11CAE2DC601C4
:102AB8000197A109FC015A2F0E949029862F0E9494
:102AC80073268C2BF80181938F01EA15FB0501F71A
:102AD800882D992D08C080E090E005C080E090E046
:102AE80002C080E090E0CF911F910F91EF90DF90AE
:0C2AF800CF90BF90AF909F908F900895FA
:102B0400AF92BF92DF92EF92FF920F931F93CF93F6
:102B1400DF9300D0CDB7DEB7D82E5B017A018901EF
:102B240019821A82BA0180E8A9010E942227882307
:102B340049F1F80110821182F1E0DF1226C0F5019B
:102B44006081718180E8AE014F5F5F4F0E941E2655
:102B5400009701F55701F0E4AF0EB11CB50189816E
:102B64009A810E940110811113C0A50160E89701A8
:102B740080E490E00E942E16F8018083918380E027
:102B840090E008C085E090E005C083E090E002C0DA
:102B940090E091600F900F90DF91CF911F910F9172
:0C2BA400FF90EF90DF90BF90AF9008957D
:102BB000AF92BF92CF92DF92EF92FF920F931F934B
:102BC000CF93DF93F82E8A01E9016A0180E8E82EAD
:102BD000A9018E2DB6010E942227882379F182E077
:102BE000F81629F01882198283E090E02CC0980131
:102BF0006E2DA601888199810E942C15803209F5DD
:102C0000580180E4A80EB11C95016E2DA60180E04C
:102C100090E00E94741C81110CC0A50160E898012D
:102C200080E490E00E942E168883998380E090E0F3
:102C30000AC01882198290E0916005C085E090E09A
:102C400002C085E090E0DF91CF911F910F91FF903E
:0C2C5000EF90DF90CF90BF90AF90089500
:102C5C006F927F928F92AF92BF92CF92DF92EF9250
:102C6C000F931F93CF93DF9341155105610599F194
:102C7C000097A1F159013A01862E8C016A01E62ECA
:102C8C00E901680E791E811C97FD8A94F6015E2D70
:102C9C000E949029862F82958F700E9489298883A3
:102CAC00F6015E2D0E949029862F8F700E94892933
:102CBC0089838FEFC81AD80AE80A2296C614D7045B
:102CCC00E80421F7000F111FF501E00FF11F10822E
:102CDC00802F912F05C080E090E002C080E090E052
:102CEC00DF91CF911F910F91EF90DF90CF90BF901C
:0A2CFC00AF908F907F906F900895C5
:102D06006F927F928F92CF92DF92EF92CF93DF9363
:102D16003B01882E6901E42EFB01582D0E94902963
:102D2600C62F662339F180E090E0D0E04E2D960163
:102D3600280F391F411D97FD4A95A42FC901F90196
:102D46005A2F0E949029862F0E94C9248C1322C0D4
:102D5600DF5F8D2F90E0482D9301280F391F411D0D
:102D660097FD4A95F901542F0E949029C62F6111AB
:102D7600DDCF02C080E090E0C80ED91EE11C97FDB1
:102D8600EA9481E0F6015E2D0E949029662319F0EF
:102D960080E001C080E0DF91CF91EF90DF90CF908F
:082DA6008F907F906F9008955B
:102DAE00EEE7F6E480818E7F808380917A46909163
:102DBE007B46019719F40E94C72902C00E94C129BF
:102DCE00EBE5F6E4878D90A10197878F90A3892B71
:102DDE0071F0A58DB68D809108098C93858D968D99
:102DEE000196858F968F0E94B52984E00895ABE5F4
:102DFE00B6E45D96ED91FC915E9780910809808313
:102E0E005D968D919C915E9701965D968D939C93A8
:102E1E005E97EEE7F6E4808188608083ED91FC9109
:102E2E0011971C968D919C911D9709958250823019
:102E3E0020F40E94C72988E008950E94AD270895C6
:102E4E00E6ECF6E480818E7F80838091C24690917D
:102E5E00C346019719F40E94032A02C00E94FD295D
:102E6E00E3EAF6E4878D90A10197878F90A3892BD3
:102E7E0071F0A58DB68D809128098C93858D968DD8
:102E8E000196858F968F0E94F12984E00895A3EA1A
:102E9E00B6E45D96ED91FC915E9780912809808352
:102EAE005D968D919C915E9701965D968D939C9308
:102EBE005E97E6ECF6E4808188608083ED91FC916C
:102ECE0011971C968D919C911D9709958250823079
:102EDE0020F40E94032A88E008950E94D4270895C2
:102EEE006F927F928F92CF92DF92EF92FF921F930B
:102EFE00CF93DF933B01882E6A017901FB01582D98
:102F0E000E949029D62F6623E9F080E090E010E031
:102F1E00F601E80FF91F80810E94C9248D1323C08A
:102F2E001F5F812F90E0482D9301280F391F411DFF
:102F3E0097FD4A95F901542F0E949029D62F6111C1
:102F4E00E7CF02C080E090E0E601C80FD91F88816C
:102F5E008D3321F00E948328882331F0F701C0833E
:102F6E00D18381E001C080E0DF91CF911F91FF906E
:0E2F7E00EF90DF90CF908F907F906F9008952E
:102F8C006F927F928F92CF92DF92EF92FF920F937C
:102F9C001F93CF93DF9300D0CDB7DEB7D82E370178
:102FAC00802EEF28E02AA9F084E0C816F9F080E220
:102FBC00C81211C012C08D2D8068D82E69817A81FB
:102FCC00E12CF12C00E0482D93018D2D0E94C711AE
:102FDC0015C082EE13C082EE11C08E010F5F1F4F21
:102FEC008D2D0E942A1F811109C0E5CF8E010F5F24
:102FFC001F4F8D2D0E942A1F882301F30F900F90D5
:10300C00DF91CF911F910F91FF90EF90DF90CF90B8
:08301C008F907F906F900895E2
:10302400AF92BF92CF92DF92EF920F931F93CF9301
:10303400DF9300D000D0CDB7DEB78031910550F5D5
:103044006115710549F15B016C016894EE24E2F8A5
:103054008E010F5F1F4F26E042E060E070E080E0E9
:103064000E94EC10811119C02A8130E0322F2227EE
:103074009981292B41E050E002C0440F551FCA94A6
:10308400E2F72423352391E0232B09F090E0F501A6
:10309400908303C082EE01C082EE2496CDBFDEBFD2
:1030A400DF91CF911F910F91EF90DF90CF90BF9060
:0430B400AF9008953C
:1030B800CF92DF92EF920F931F93CF93DF93CDB709
:1030C800DEB72897CDBFDEBF6B01E82E84E0898389
:1030D80091E19A8393E39B8393E49C838D8387E0B8
:1030E8008E8384EC8F8380E4888744305105C1F453
:1030F8009E012F5F3F4F40E804E010E08E2DB6019F
:103108000E947721892B71F09E012B5F3F4F40E889
:103118008E2DB6010E947721892B31F080ED05C0F4
:1031280080ED03C080E001C087ED2896CDBFDEBFEB
:10313800DF91CF911F910F91EF90DF90CF9008957D
:103148006F927F928F92CF92DF92EF92CF93DF931D
:10315800E901009779F16A01E62E3A01862E680E98
:10316800791E811C97FD8A9480E090E01BC0A92FEE
:10317800AA1FAA27AA1F880F991F71E0362F352387
:1031880009F470E07A1719F025E082279058550F56
:10319800319769F72FEFC21AD20AE20AC614D70488
:1031A800E80451F0F6015E2D0E949029E8E0F0E075
:1031B80051E0DDCF80E090E088839983DF91CF9163
:0E31C800EF90DF90CF908F907F906F900895E2
:1031D600CF92DF92EF920F931F93CF93DF9300D09E
:1031E600CDB7DEB76B01E82EFB015E2D0E9490295C
:1031F6006250062F10E09E012F5F3F4F6E2DA601F5
:10320600C8010E94A418AE2DC601800F911FA11DF2
:1032160017FDAA952981FC015A2F0E949029261391
:1032260010C00F5F1F4FC00ED11EE11C17FDEA94A0
:103236008A81F6015E2D0E949029861304C080E0E3
:1032460003C085EE01C085EE0F900F90DF91CF9100
:0C3256001F910F91EF90DF90CF90089532
:10326200EF92FF921F93CF93DF93CDB7DEB7C75C88
:10327200D109CDBFDEBF7C01E091E146F091E2468B
:10328200808191811C821D821E82BE016F5F7F4FF1
:103292000E94D328182F81111CC06091E1467091C1
:1032A200E246CE0101960E94860F182F811111C0AD
:1032B2008F81833269F4E114F10459F0AE01485F61
:1032C2005F4F60E820E230E0C7010E94632501C041
:1032D20016EE812FC953DF4FCDBFDEBFDF91CF91F5
:0832E2001F91FF90EF90089589
:1032EA000F931F93CF93DF93CDB7DEB72597CDBF4B
:1032FA00DEBF0E94352A8C018FEF8D8380E00E9409
:10330A00901D8823D9F361E070E0CE0105960E94F2
:10331A00F12660E070E080E090E00E94CD290E94F2
:10332A00492A0E94AF228130E1F3F8016289738948
:10333A0080E090E00E944F2744E050E08E010F5F4A
:10334A001F4FB8018091EF460E947324B80180E8AC
:10335A0044E050E00E945C182596CDBFDEBFDF91A5
:08336A00CF911F910F9108950E
:10337200FF920F931F93CF93DF93EA018901188283
:10338200F12C26C08F2D90E09C01220F331F820F5B
:10339200931F880F991F092E000CAA0B855E9C4F64
:1033A200AF4FFC015A2F0E947828AB01682FCE0143
:1033B2000E94F125FE0101900020E9F7CF0123E0F0
:1033C20030E048E153E060E001970E946325F39406
:1033D2000E94762AF816B0F2BE0180E80E949B266F
:1033E200F8018083918380E090E0DF91CF911F917B
:0633F2000F91FF90089509
:1033F8000F931F93CF93DF93CDB7DEB7C75CD10987
:10340800CDBFDEBF4115510551F18A01282FE0914A
:10341800E146F091E246808191812C836D837E8321
:10342800BE016F5F7F4F0E94E72881111BC060912A
:10343800E1467091E246CE0101960E94860F811105
:1034480011C08F81833469F4AE01485F5F4F60E833
:1034580020E430E0C8010E94632580E003C082EECA
:1034680001C086EEC953DF4FCDBFDEBFDF91CF91DC
:063478001F910F91089561
:10347E00CF93DF938230B1F5EB016881798180E8DB
:10348E000E94391C882311F090E031C02A813B81C3
:10349E0040E86DEA74E080E00E948316882361F0B4
:1034AE00E091AB44F091AC440580F681E02D81E0D3
:1034BE00099580E090E01BC02A813B8140E860EBDB
:1034CE0074E080E00E948316882379F0E091AB448B
:1034DE00F091AC440580F681E02D80E0099580E006
:1034EE0090E005C083E090E002C085E090E0DF91BF
:0434FE00CF910895CD
:10350200CF92DF92EF920F931F93CF93DF93CDB7BA
:10351200DEB7A097CDBFDEBF009731F16C01689492
:10352200EE24E5F88E010F5F1F4F20E040E060E0DF
:1035320070E080E00E94EC10182F811117C0AE01DC
:103542004F5F5F4F60E824E030E0C6010E946325D0
:10355200AE01475F5F4F60E825E030E0C6010496A8
:103562000E946325812F02C082EE00C0A096CDBFCB
:10357200DEBFDF91CF911F910F91EF90DF90CF903F
:023582000895AA
:10358400CF93DF9300D01F92CDB7DEB719821A8292
:10359400813031F56115710531F1FB016081718173
:1035A40080E8AE014F5F5F4F0E941E26009719F519
:1035B400BE016D5F7F4F89819A810E941218882312
:1035C40019F090E0916017C08B8181110FC089813F
:1035D4009A810E943129882361F090E091600BC0A8
:1035E40083E090E008C085E090E005C080E090E0D2
:1035F40002C080E090E02396CDBFDEBFDF91CF9183
:02360400089527
:10360600E0E9F4E0808188608193E83984E0F80796
:10361600C9F7E0EBF4E0808188608193E83B84E0C1
:10362600F807C9F7E0EDF4E0808188608193E83D12
:1036360084E0F807C9F7E0E1F4E0808188608193CF
:10364600E83184E0F807C9F7E0E3F4E080818860B8
:103656008193E83384E0F807C9F7E0E5F4E0808178
:1036660088608193E83584E0F807C9F7E0E7F4E07D
:10367600808188608193E83784E0F807C9F7089568
:10368600EF92FF920F931F93CF93DF93FA0100817E
:103696001181108211820115110521F17A01EB01C8
:1036A600188241E050E08091EF460E9473244881E1
:1036B6008CEF840F8834C0F4842F90E00817190724
:1036C600A8F0AC0141505109BE016F5F7F4F809158
:1036D600EF460E947324888190E0F70180839183EE
:1036E60080E005C08DEE03C084EE01C08DEEDF9153
:0C36F600CF911F910F91FF90EF9008956D
:103702000E940E2A8823C9F0ABE5B6E41696ED9125
:10371200FC91179752968D919C91539709958230FF
:1037220019F0833021F006C00E94A02708950E945C
:10373200FA2708950E9457280895EEE7F6E480815B
:1037420088608083ABE5B6E4ED91FC9111971C96FD
:103752008D919C911D970995833039F0843041F009
:10376200823049F40E94A02708950E94FA27089502
:0C3772000E94E81C08950E94572808954A
:10377E000E94132A8823C9F0A3EAB6E41696ED91A7
:10378E00FC91179752968D919C9153970995823083
:10379E0019F0833021F006C00E94BA2708950E94C6
:1037AE00122808950E9462280895E6ECF6E48081BE
:1037BE0088608083A3EAB6E4ED91FC9111971C9684
:1037CE008D919C911D970995833039F0843041F08D
:1037DE00823049F40E94BA2708950E941228089553
:0C37EE000E94201D08950E94622808958A
:1037FA000F931F93CF93DF93FB01248121FD03C015
:10380A008FEF9FEF2CC022FF16C04781508525817C
:10381A0036814217530744F4A081B1819D012F5F7D
:10382A003F4F208331838C93278130852F5F3F4F11
:10383A002783308714C08B01EC01FB010184F285D8
:10384A00E02D0995892BE1F6D80117968D919C9167
:10385A001897019617968D939C931897CE01DF912E
:08386A00CF911F910F91089509
:103872006F927F928F92EF92FF920F931F93CF934B
:10388200DF933B01882E0AE016E4C0E0D0E0F801A5
:10389200608171818281482D93010E948316882361
:1038A20089F0CE01880F991F880F991F880F991FE1
:1038B2008C0F9D1F865F994B8093AB449093AC44D1
:1038C20080E007C02196075F1F4FC530D105F9F68A
:1038D20085E0DF91CF911F910F91FF90EF908F9034
:0638E2007F906F90089535
:1038E800CF92DF92EF92FF920F931F93CF93DF93C4
:1038F800EC016A01E62E890180E090E00E9431190E
:1039080081111FC0E091E146F091E2460190F081FB
:10391800E02D8081833029F46894FF24F5F880E451
:1039280002C0F12C80E020E230E06E2DA6010E945A
:10393800FF24811106C0A801BE018F2D80680E9456
:10394800FC19DF91CF911F910F91FF90EF90DF90BD
:04395800CF9008956F
:10395C00EF92FF920F931F93CF93DF93F82EEA0110
:10396C008901BA0180E8A9010E9422278823F1F07D
:10397C00F1101FC07E0189E0E80EF11CC7010E9406
:10398C00811A81110DC0A70160E89E0189E090E0C9
:10399C000E942E16F8018083918380E090E00BC08A
:1039AC00F8011082118290E0916005C085E090E0F2
:1039BC0002C083E090E0DF91CF911F910F91FF90B7
:0439CC00EF900895DB
:1039D0000E940E2A8823C9F0ABE5B6E41696ED9155
:1039E000FC91179752968D919C915397099582302F
:1039F00019F0833021F006C00E94A02708950E948C
:103A0000FA2708950E9457280895EEE7F6E480818A
:103A10008E7F8083EBE5F6E4A58DB68DCD01019612
:103A2000858F968F8C9180930809878D90A101973F
:103A3000878F90A3892B11F485E0089583E0089582
:103A40000E94132A8823C9F0A3EAB6E41696ED91E2
:103A5000FC91179752968D919C91539709958230BE
:103A600019F0833021F006C00E94BA2708950E9401
:103A7000122808950E9462280895E6ECF6E48081F9
:103A80008E7F8083E3EAF6E4A58DB68DCD010196A5
:103A9000858F968F8C9180932809878D90A10197AF
:103AA000878F90A3892B11F485E0089583E0089512
:103AB0000F931F93CF93DF93CDB7DEB72F97CDBF73
:103AC000DEBF0E891F89888D998D26E02D8309839D
:103AD0001A8397FF02C080E090E801978E839F834E
:103AE0009E01235E3F4F4A8D5B8D6C8DCE0101960A
:103AF0000E9407054E815F8157FD0AC028853985E0
:103B0000421753070CF49A01F801E20FF31F1082D9
:103B10002F96CDBFDEBFDF91CF911F910F910895FA
:103B20009091C64692FD31C0E3EAF6E4848FA6EC9C
:103B3000B6E4892F887F9EE091A324EF31E0228FA5
:103B4000338F846088608C938CE79AE280839183C2
:103B500014861586828393831686178684839583BD
:103B6000108A118A86839783128A138A8EE79AE2D3
:103B700080879187148A158A8DEE809325090E948B
:0E3B8000DF290E94D32980E0089581E0089596
:103B8E00CF93813071F4FB012081318140E86AE8E6
:103B9E0075E080E00E948316811107C085E090E0F9
:103BAE0023C08230E0F4C0E001C0C1E080E090E0CC
:103BBE000E94971E0E947B29882341F00E94312586
:103BCE00C11102C0843071F00E945C230E948229D0
:103BDE00882381F30E94DA230E949C23EBCF83E09B
:0C3BEE0090E002C080E090E0CF910895CC
:103BFA00CF93DF93E9018FEA92E0A0E0AF939F931E
:103C0A008F9385E992E0A0E0AF939F938F9389EA1F
:103C1A0092E0A0E0AF939F938F9380EC92E0A0E0B4
:103C2A00AF939F938F9381EE92E0A0E0AF939F931F
:103C3A008F9384E08F931F925F934F930E94581D36
:103C4A00888399838DB79EB743968DBF9EBF80E0C8
:083C5A0090E0DF91CF91089585
:103C62000F931F93CF93DF9300D01F92CDB7DEB790
:103C7200962F9A01E62FF72F582F0E94902966233C
:103C8200D1F08901692F20E030E0AE014F5F5F4F34
:103C92000E949908F801608371838283938329814A
:103CA2009A815B8181E0E22FF92F0E94902966239D
:103CB20019F080E001C080E02396CDBFDEBFDF9126
:083CC200CF911F910F910895AD
:103CCA0040E068ED88E790E00E94092A40E068ED4C
:103CDA008CE790E00E94092A40E068ED81E690E0D6
:103CEA000E94092A40E068ED82E690E00E94092AD3
:103CFA0040E068ED83E690E00E94092A40E068ED22
:103D0A0080E690E00E94092A40E068ED85E690E0AE
:103D1A000E94092A44E268ED88E690E00E94092A96
:043D2A0080E0089598
:103D2E000F931F93CF93DF93CDB7DEB7A097CDBF81
:103D3E00DEBF009731F462ED73E080E00E946522F1
:103D4E0018C09F938F9387ED93E0A0E0AF939F935E
:103D5E008F931F9280E28F938E010F5F1F4F1F93E1
:103D6E000F930E94581DB80180E80E946522CDBFB6
:103D7E00DEBFA096CDBFDEBFDF91CF911F910F9119
:023D8E00089596
:103D9000FC012081243049F581818730D1F040F445
:103DA000813089F020F1833081F0853081F01BC0B3
:103DB0008F3099F018F4883071F015C0813179F0A6
:103DC0008F3F79F010C081ED089582ED089586ED62
:103DD000089587ED08958AEF089584EF089583EF9D
:103DE000089584ED089581EE089580E0089580E0BF
:023DF000089534
:103DF2000F931F93CF93DF93EC018B0189819A81FB
:103E02000E944C21F801808191818B839C83828165
:103E120093818D839E83848195818F839887868108
:103E2200978189879A87808591858B879C878485EE
:103E320095858F87988B828593858D879E878089CC
:103E42009189898B9A8B80E0DF91CF911F910F919D
:023E52000895D1
:103E54000F931F930115110541F0837041F08230D7
:103E6400A1F0813021F082EE1FC082EE1DC050E02F
:103E7400440F551F440F551F440F551F2770422BE5
:103E8400F8014083518380E00FC0277030E0342B69
:103E9400660F771F660F771F660F771F262B372B4A
:0E3EA400F8012083318380E01F910F91089573
:103EB2000F931F93CF93DF93CDB7DEB76297CDBF3A
:103EC200DEBF8C01BE016F5F7F4F0E94F91ED801D9
:103ED20011966D917C9112971396ED91FC91149726
:103EE200CE010196099581110AC089899A89F80142
:103EF200818B928B0580F681E02DC801099562962F
:0E3F0200CDBFDEBFDF91CF911F910F910895CB
:103F10001F920F920FB60F9211240BB60F922F9390
:103F20003F934F935F936F937F938F939F93AF9341
:103F3000BF93EF93FF935E9B05C0E091ED46F09138
:103F4000EE4609958FEF8BB9FF91EF91BF91AF913D
:103F50009F918F917F916F915F914F913F912F91A1
:0E3F60000F900BBE0F900FBE0F901F90189584
:103F6E000F931F93CF93DF930097E1F061157105C7
:103F7E00D9F0FB012081318121153105B9F0428143
:103F8E005381452BA9F0EB018C01B901FC01818114
:103F9E000E94BF2881110DC06A817B81C8010E94D9
:103FAE00882607C082EE05C082EE03C082EE01C0F5
:0C3FBE0082EEDF91CF911F910F910895CA
:103FCA00CF93DF93CDB7DEB7C75CD109CDBFDEBFD4
:103FDA00E091E146F091E24620813181FE0131967D
:103FEA0097ECDF011D929A95E9F78C836D837E83A6
:103FFA00BF01C9010E94C928811108C06091E14628
:10400A007091E246CE0101960E94860FC953DF4F96
:0A401A00CDBFDEBFDF91CF91089506
:104024001F920F920FB60F9211240BB60F922F937B
:104034003F934F935F936F937F938F939F93AF932C
:10404400BF93EF93FF93E091E546F091E6463097F6
:1040540009F00995FF91EF91BF91AF919F918F91D5
:104064007F916F915F914F913F912F910F900BBE74
:0A4074000F900FBE0F901F901895DB
:10407E001F920F920FB60F9211240BB60F922F9321
:10408E003F934F935F936F937F938F939F93AF93D2
:10409E00BF93EF93FF93E091E346F091E4463097A0
:1040AE0009F00995FF91EF91BF91AF919F918F917B
:1040BE007F916F915F914F913F912F910F900BBE1A
:0A40CE000F900FBE0F901F90189581
:1040D8001F920F920FB60F9211240BB60F922F93C7
:1040E8003F934F935F936F937F938F939F93AF9378
:1040F800BF93EF93FF93E091EB46F091EC46309736
:1041080009F00995FF91EF91BF91AF919F918F9120
:104118007F916F915F914F913F912F910F900BBEBF
:0A4128000F900FBE0F901F90189526
:104132001F920F920FB60F9211240BB60F922F936C
:104142003F934F935F936F937F938F939F93AF931D
:10415200BF93EF93FF93E091E946F091EA463097DF
:1041620009F00995FF91EF91BF91AF919F918F91C6
:104172007F916F915F914F913F912F910F900BBE65
:0A4182000F900FBE0F901F901895CC
:10418C00CF93DF930E94A32980917E4680FF07C0C6
:10419C000E940E2A882319F08FE080937C460E949F
:1041AC00AF29882319F080E180937C460E94A929CD
:1041BC00882319F081E180937C46CBE5D6E4E9A114
:1041CC00F0E0EE0FFF1FE95CF94B0190F081E02D60
:0A41DC00099589A3DF91CF910895A2
:1041E600CF93DF930E94DF298091C64680FF07C0E8
:1041F6000E94132A882319F08FE08093C4460E94F8
:10420600EB29882319F080E18093C4460E94E529B2
:10421600882319F081E18093C446C3EAD6E4E9A174
:10422600F0E0EE0FFF1FE158F94B0190F081E02D11
:0A423600099589A3DF91CF91089547
:10424000CF93DF9300D0CDB7DEB719821A8221E079
:1042500020938A448093DF469093E0466AE873E0B7
:1042600080E00E9465229E012F5F3F4F4AE850E4A4
:1042700060E070E080E00E94FD1D6AE870E480E884
:104280000E9465226AEC73E080E00E9465220F9034
:084290000F90DF91CF9108951A
:10429800FB01DC018C91811124C086E699E28083C0
:1042A800918388E79AE28283938383E49BE1868300
:1042B800978386E398E28483958389E496E28487EA
:1042C800958785E799E18087918784E396E28287DD
:1042D80093878AE79AE286879787108A118A80E00F
:0642E800089580EF089527
:1042EE00CF92DF92EF920F931F936B01E82E011581
:1042FE001105A9F0F6015E2D0E949029862FF90175
:10430E00542F0E94902986130DC0015011098FEF72
:10431E00C81AD80AE80A2F5F3F4F4F4FE8CF80E008
:10432E0090E003C090E0861B91091F910F91EF90D2
:06433E00DF90CF9008950E
:104344001F920F920FB60F9211240BB60F922F9358
:104354003F934F935F936F937F938F939F93AF9309
:10436400BF93EF93FF930E94C620FF91EF91BF91FB
:10437400AF919F918F917F916F915F914F913F91F9
:104384002F910F900BBE0F900FBE0F901F9018959A
:104394001F920F920FB60F9211240BB60F922F9308
:1043A4003F934F935F936F937F938F939F93AF93B9
:1043B400BF93EF93FF930E94F320FF91EF91BF917E
:1043C400AF919F918F917F916F915F914F913F91A9
:1043D4002F910F900BBE0F900FBE0F901F9018954A
:1043E4000F931F93CF93DF9300D000D0CDB7DEB7E8
:1043F4008A01AE014F5F5F4F0E94311E882379F01E
:1044040049815A816B817C814115510591E069078D
:10441400710520F4F8014083518301C080E02496A3
:0E442400CDBFDEBFDF91CF911F910F910895A4
:10443200CF93DF938130E9F4E901FB0181818F930E
:1044420080818F938DE093E0A0E0AF939F938F9351
:1044520084E08F931F925F934F930E94581D88832D
:1044620099838DB79EB709968DBF9EBF80E090E07D
:0C44720002C083E090E0DF91CF9108953C
:10447E00E0E2F8E081E493E08087918780ED858328
:10448E0080EC868383E087831386148616861586D2
:10449E00E091E746F091E84681E498E209951092A2
:1044AE00FA461092FB461092F9461092F746109279
:0C44BE00F8461092F6460E94EE27089582
:1044CA00CF92DF92EF926B01E82E8091DF469091B6
:1044DA00E046892BB1F0F6015E2D0E9490296623F1
:1044EA0081F08FEFC81AD80AE80AE091DF46F09106
:1044FA00E046862F0995F6015E2D0E9490296111EA
:0A450A00F0CFEF90DF90CF900895FE
:104514006115710581F090E0FC01EE0FFF1FED5570
:10452400F94B60837183880F991FFC01E155F94BA6
:1045340040835183089590E0FC01EE0FFF1FED5579
:10454400F94B2CE73AE220833183880F991FFC0151
:0A455400E155F94B10821182089521
:10455E00CF93DF930E94E529882341F0E6ECF6E441
:10456E0080818D7F808382E08093C5468091C64690
:10457E0081FD0EC0E6ECF6E48B7F8083C3EAD6E4C1
:10458E008FEF8C8F0E94DF290E94D9298AA101C04A
:08459E0081E0DF91CF91089547
:1045A600EF92FF920F931F93CF93C82F8B017A013F
:1045B6008C2F0E94901D8823D9F3B701C8010E9451
:1045C600F12660E070E080E89AE20E94CD290E9420
:1045D600492A0E94AF228130E1F3CF911F910F91BA
:0645E600FF90EF90089524
:1045EC00EEE7F6E480818E7F8083ABE5B6E482E073
:1045FC0092968C9392971496ED91FC9115975096F8
:10460C008D919C9151970995823019F0833021F04E
:10461C0006C00E94A02708950E94FA2708950E94C0
:04462C00572808956E
:10463000E6ECF6E480818E7F8083A3EAB6E482E034
:1046400092968C9392971496ED91FC9115975096B3
:104650008D919C9151970995823019F0833021F00A
:1046600006C00E94BA2708950E94122808950E9449
:04467000622808951F
:10467400A1E21A2EAA1BBB1BFD010DC0AA1FBB1F62
:10468400EE1FFF1FA217B307E407F50720F0A21BD4
:10469400B30BE40BF50B661F771F881F991F1A9441
:1046A40069F760957095809590959B01AC01BD016B
:0446B400CF01089595
:1046B8002091F8462F5F2F739091F6469034E1F3DE
:1046C800E22FF0E0E653FA4B80832093F8460FB6CA
:1046D800F8940F928091F6468F5F8093F6460F907C
:1046E8000FBE569905C0E0E2F8E0858180628583B7
:0246F800089523
:1046FA008091F046882389F0E091F146EF5FEF73ED
:10470A00E093F146F0E0E65BFA4B80818093A208E1
:10471A008091F04681508093F0468091F046811155
:0E472A0005C0E0EAF8E085818F7D8583089563
:104738002091F2462F5F2F739091F0469034E1F369
:10474800E22FF0E0E65BFA4B80832093F2460FB647
:10475800F8940F928091F0468F5F8093F0460F9007
:0E4768000FBEE0EAF8E0858180628583089547
:104776008091F646882389F0E091F746EF5FEF7364
:10478600E093F746F0E0E653FA4B808180932208E7
:104796008091F64681508093F6468091F6468111C7
:0E47A60005C0E0E2F8E085818F7D85830895EF
:1047B400CF938091F9468823E1F3E091FA46EF5FC5
:1047C400CE2FCF77C093FA460FB6F8940F9280910C
:1047D400F94681508093F9460F900FBE0E94EE2750
:0E47E400EC2FF0E0E653FB4B8081CF9108955F
:1047F2000E94A329ABE5B6E482E092968C9392974D
:104802001296ED91FC9113971E968D919C911F9794
:104812000995823019F0833021F006C00E94A0274A
:0E48220008950E94FA2708950E944C280895D8
:104830000E94DF29A3EAB6E482E092968C939297D5
:104840001296ED91FC9113971E968D919C911F9756
:104850000995823019F0833021F006C00E94BA27F2
:0E48600008950E94122808950E941E280895AF
:10486E0080E480934204E6E5F4E0808188608083F2
:10487E0082E89AE28093ED469093EE46E0E4F4E00F
:10488E008689887F8160868B80E88093450480933B
:0E489E00410482E08093860480938104089593
:1048AC008091EF460E94901D8130D1F361E070E061
:1048BC0080E090E00E94F12660E070E080E090E003
:1048CC000E94CD290E94452A0E94AF22813021F4FA
:0A48DC000E94AF228130E1F308953D
:1048E600EF92FF920F931F93CF93C82F8B017A01FC
:1048F6008C2F0E94901D8823D9F3B701C8010E940E
:10490600F1260E94452A0E94AF228130E1F3CF9121
:0A4916001F910F91FF90EF9008959C
:10492000E0EAF8E081E493E08087918780ED858379
:1049300080EC868383E0878313861486168615862B
:104940001092F4461092F5461092F3461092F146FA
:0A4950001092F2461092F04608950E
:10495A00CF92DF92EF926B01E82E9A01A82FCB013A
:10496A002115310531F48C199D09EF90DF90CF9014
:10497A000895FC015A2F0E9490296623A1F30196FB
:08498A00A11D21503109ECCF01
:10499200882389F08D3089F08A3089F090EE980F63
:1049A200913480F025E8280F243060F081568A3156
:1049B20040F4892F089580E008958DE008958AE0FB
:0649C200089583E2089550
:1049C800FB019381892F837026E12283823018F4BA
:1049D8008BE1818309C0833061F495FF03C087E4CC
:1049E800818302C087E28183CF010E945D2780E036
:0649F800089582EE08950F
:1049FE000F931F93807C2032310511F4836004C025
:104A0E002034310551F483629A01462F00E010E004
:104A1E0060E070E00E947A1001C082EE1F910F914B
:024A2E000895E9
:104A30001F920F920FB60F9211240BB60F928F9305
:104A4000EF93FF93E0EAF8E0848180648483FF9130
:104A5000EF918F910F900BBE0F900FBE0F901F9094
:024A60001895A7
:104A62008091F3468823E1F3E091F446EF5FEF7320
:104A7200E093F4460FB6F8940F928091F34681507A
:104A82008093F3460F900FBEF0E0E657FA4B808119
:024A9200089585
:104A94001F920F920FB60F9211240BB60F928F93A1
:104AA400EF93FF93E0E2F8E0848180648483FF91D4
:104AB400EF918F910F900BBE0F900FBE0F901F9030
:024AC400189543
:104AC600CF92DF92EF92DC016A01E62E280F391FA2
:104AD600A217B30751F0F6015E2D0E9490296D933F
:104AE6004FEFC41AD40AE40AF3CFEF90DF90CF90C9
:024AF600089521
:104AF8000F931F93CF93DF93CAE0D6E407E316E43E
:104B0800EB81FC810995ED81FE8180E0099529966C
:104B1800C017D107A9F7DF91CF911F910F91089581
:104B280090912008E091FB46EF5FEF778091FA467D
:104B3800E81769F0E093FB46F0E0E653FB4B9083FF
:104B48008091F9468F5F8093F9460E94EE27089579
:104B5800FB0182E1828387E08183838188231CF4BF
:104B680087E2818302C08BE08183442319F081812D
:0E4B7800805E8183CF010E945D2780E008955A
:104B86009091C64691FD11C0E6ECF6E492609083E2
:104B9600882321F081E08093C44603C082E080939D
:0E4BA600C4460E94F32080E0089581E0089547
:104BB4000E94C10B0E9437240E942A280E9449297E
:104BC4000E9441290E94651E0E943F220E94902457
:0E4BD4000E94E0260E9493270E946B270895FE
:104BE2009A01462FDC01BD016F5F7F4F5C91552317
:104BF20011F0DB01F8CFF901542F0E9490296D9337
:0E4C0200662321F02F5F3F4F4F4FF5CF0895EF
:104C10009091A008E091F546EF5FEF738091F44624
:104C2000E81759F0E093F546F0E0E657FA4B908329
:0C4C30008091F3468F5F8093F346089557
:104C3C00CF93DF93EA010E94F221882339F0888117
:104C4C009981409730F480E090E005C085E090E0D9
:0C4C5C0002C085E090E0DF91CF91089548
:104C6800CF93DF931F92CDB7DEB782E0898341E00F
:104C780050E0BE016F5F7F4F8091EF460E94D322C4
:0A4C880080E00F90DF91CF910895B6
:104C9200CF93DF931F92CDB7DEB781E0898341E0E6
:104CA20050E0BE016F5F7F4F8091EF460E94D3229A
:0A4CB20080E00F90DF91CF9108958C
:104CBC00CF93DF93EC01EB85FC850995803D51F496
:104CCC0069E170E080E090E00E94AD26EB85FC8508
:0A4CDC00CE010995DF91CF910895F4
:104CE600982F80ED890F8A3078F08FEB890F863008
:104CF60018F489EC890F08958FE9890F863018F426
:0A4D060089EA890F089580E00895FE
:104D1000009769F06115710561F0FB01DC012C91D0
:104D2000208381839283CB010E94591F089582EED4
:064D3000089582EE0895D3
:104D36009B01482FA82FCB01FC015A2F0E949029D6
:104D4600662319F00196A11DF7CF642FA901841BD4
:044D5600950B08951C
:104D5A00611571058105910559F0EFE6F7E1319783
:104D6A00F1F700C000006150710981099109A9F7A2
:024D7A0008959A
:104D7C00CF93DC011D96ED91FC911E970995C82FE0
:104D8C0061E070E080E090E00E94AD268C2FCF9126
:024D9C00089578
:104D9E00CF93DF93009749F0EC0169897A89888176
:104DAE000E943929198A1A8A01C082EEDF91CF91A9
:024DBE00089556
:104DC0008CE080932604E0E2F9E01082128283E70F
:104DD000868381E08383158217821482108680E0A7
:024DE000089534
:104DE2009C019091C64693FF0BC0E3EAF6E4258F3F
:104DF200368F678F70A3E6ECF6E4892F877F808376
:024E0200089511
:104E0400FB0180E48283838184FF03C08AE0818381
:104E140002C087E08183CF010E945D2780E008956E
:104E2400DB018F939F930E946D28BF91AF91A29F46
:104E3400800D911DA39F900DB29F900D1124089594
:104E44004115510541F0672B682B39F4FA011082A2
:0E4E5400118280E0089580E0089581E00895C5
:104E62001F920F920FB60F9211248F9381E08093BD
:0E4E7200AA008F910F900FBE0F901F90189501
:104E8000A29FB001B39FC001A39F700D811D11248B
:0E4E9000911DB29F700D811D1124911D08957A
:104E9E00611571058105910541F028E02A95F1F71C
:0C4EAE006150710981099109C1F7089554
:104EBA00AC014F5F5F4FFC018181825090E09A0103
:0C4ECA00280F391F60E80E94A41808950A
:104ED60087EC96E40E946113811106C080E090E0A1
:0C4EE6000E94312981E0089580E00895C9
:104EF2008091E1469091E2460E94F128811104C01E
:0A4F02001092E1461092E246089575
:104F0C000F931F938B0120E030E040E0BC0180E068
:0A4F1C000E94D4141F910F91089514
:104F260041E068ED80E191E00E94092AE0E1F1E0CC
:0A4F360012821382789480E008953F
:104F4000EEE7F6E480818160808380917746880F68
:0A4F500081608093070984E0089552
:104F5A000E94C7290E94BB29EEE7F6E480818D7F73
:0A4F6A00808310927D4680E00895D8
:104F7400E6ECF6E48081816080838091BF46880FEF
:0A4F840081608093270984E00895FE
:104F8E008DEE80932509E6ECF6E480818D7F80839B
:0A4F9E0082E08093C5468EE008957E
:104FA8000E94032A0E94F729E6ECF6E480818D7FAF
:0A4FB80080831092C54680E0089542
:104FC2000E94DA250E947C258EE69AE20E94202128
:0A4FD2000E9431250E94CA02FBCFA5
:104FDC008091F9468E3720F480E88093460408953A
:084FEC0080E88093450408955C
:104FF400EEE7F6E480818160808380917746880FB4
:085004008093070983E0089581
:10500C000E940D29EEE7F6E480818D7F808382E09B
:08501C0080937D468EE00895AB
:10502400E6ECF6E48081816080838091BF46880F3E
:085034008093270983E0089531
:10503C008DEE80932509E6ECF6E480818D7F8083EC
:08504C001092C5468EE00895A4
:1050540040E068ED80EA90E00E94092AE0EAF0E08E
:085064001186108680E008951A
:10506C0083E0FB0180834F5F5F4F8091EF460E948E
:06507C00D32280E008953C
:105082008AB18091F646882329F0E0E2F8E0858132
:0650920080628583089591
:105098000E940D29EEE7F6E480818D7F80831092CF
:0650A8007D468EE0089534
:1050AE000E94BB29EEE7F6E480818D7F808310920B
:0650BE007D4680E008952C
:1050C4000E94F729E6ECF6E480818D7F80831092BC
:0650D400C54680E00895CE
:1050DA000E944027A59F900DB49F900DA49F800D1C
:0650EA00911D1124089540
:1050F00057FD05C05BBF67917791879108956191D6
:06510000719181910895F8
:105106008A3029F091E08D3019F090E001C091E0ED
:04511600892F089540
:10511A00882321F080E28093C604089580E2809378
:04512A00C50408951B
:10512E00882321F080E18093C604089580E1809366
:04513E00C504089507
:10514200882321F088E08093C604089588E0809344
:04515200C5040895F3
:10515600882321F084E08093C604089584E0809338
:04516600C5040895DF
:10516A00882321F081E080932604089581E08093CA
:04517A00250408956B
:10517E006115710529F0FB018083118280E008958D
:04518E0082EE089510
:10519200CB0127E1FB01228327E021830E945D27C7
:0451A20080E008950C
:1051A600CB012BE1FB01228327E021830E945D27AF
:0451B60080E00895F8
:1051BA00CB0122E0FB01228327E021830E945D27A5
:0451CA0080E00895E4
:1051CE00CB0121E4FB01228327E021830E945D278E
:0451DE0080E00895D0
:1051E200009731F0FC01828193810E94CF260895BD
:0451F20082EE0895AC
:1051F60041E068ED81E490E00E94092A80E090E0B9
:02520600089509
:10520800EEE7F6E480818D7F808310927D4680E012
:025218000895F7
:10521A00E0E0F9E084818860848385818160858308
:02522A000895E5
:10522C00E6ECF6E480818D7F80831092C54680E0A9
:02523C000895D3
:10523E0057FD04C05BBF679177910895619171919D
:02524E000895C1
:1052500091110C94712A803219F089508550C8F749
:025260000895AF
:10526200880F880F60E070E082600E94E51F089559
:10527200811104C0CB010E947A2A089581EE08951B
:1052820040E068ED80E590E00E94092A80E0089500
:1052920040E068ED80E091E00E94092A80E00895F4
:0E52A2008AB385FB882780F991E0892708955B
:0E52B0008AB383FB882780F991E0892708954F
:0E52BE008AB382FB882780F991E08927089542
:0E52CC00FB01828186958093EF4680E0089575
:0E52DA00DC011796ED91FC9118970995089547
:0E52E800DC011996ED91FC911A970995089535
:0E52F6009091F34681E0911101C080E008958F
:0E5304009091F94681E0911101C080E008957A
:0E5312008F708A3010F4805D0895895C0895D4
:0E53200057FD03C05BBF67910895608108953B
:0C532E0067E873E080E00E9465220895AB
:0C533A008AB38295817091E08927089564
:0C534600E0E0F9E08581806C858308952B
:0C5352008091050982FB882780F90895EE
:0C535E008091050983FB882780F90895E1
:0C536A00E0E0F9E0848182608483089513
:0C537600E0E0F9E0848183608483089506
:0C538200E0E0F9E084818B7F84830895D3
:0C538E00E0E0F9E08481846084830895ED
:0C539A00AB01BC0182E00E948A22089551
:0C53A600E0E2F9E08381806C83830895CD
:0C53B200E0E2F9E083818F7383830895AB
:0C53BE00E0E2F9E08581806C85830895B1
:0C53CA008091250982FB882780F9089556
:0C53D6008091250983FB882780F9089549
:0C53E200E0E2F9E0848182608483089599
:0C53EE00E0E2F9E084818360848308958C
:0C53FA00E0E2F9E084818B7F8483089559
:0C540600E0E2F9E0848184608483089572
:0A5412001BBEFC0164BF4083089537
:0A541C0080910509829581700895C2
:0A5426008091250982958170089598
:0A5430008093ED469093EE46089538
:08543A0080E28093C104089593
:0854420080E18093C10408958C
:08544A0088E08093C10408957D
:0854520084E08093C104089579
:08545A0081E080932104089514
:0854620086B180958170089568
:08546A00FC018181928108958B
:085472000E94C12983E00895A6
:08547A000E94C12984E008959D
:085482000E94C72988E008958B
:08548A0081E00E94C325089592
:0854920080E00E94C32508958B
:08549A000E94FD2983E0089542
:0854A2000E94FD2984E0089539
:0854AA000E94032A88E0089526
:0654B20080E090E0089587
:0654B8000E94A0270895E8
:0654BE000E94A0270895E2
:0654C4000E94FA27089582
:0654CA000E94BA270895BC
:0654D0000E94BA270895B6
:0654D6000E941228089557
:0654DC000E949C230895CC
:0654E200992788270895B8
:0454E8000C94000020
:0454EC0082E10895BC
:0454F00080E00895BB
:0454F40080E00895B7
:0454F80081E00895B2
:0454FC0085E00895AA
:0455000083E00895A7
:02550400089508
:10550600D304001D2A8D285129D70400212A972863
:105516009D29DC0400252AA1285829E10400292A0E
:0D552600AB285F29E604002D2AB528312AA4
:105533000429A027FA27E81CD716811B5F2A622AB1
:105543005C2A57283D2A392AAD27412A4C28F622BE
:04555300F92306280A
:105557001629BA271228201D2717BF1B682A6B2A6E
:10556700652A6228512A4D2AD427552A1E2818232E
:045577001824C72706
:10557B000003B002A0860100000000000000000044
:08558B000000180614000000E6
:025593007D2376
:025595000826E6
:02559700182AD0
:02559900BB2332
:02559B00942555
:02000004008278
:090000000000000000C00800002F
:00000001FF
