:100000000C949B000C9426370C9426370C942637BE
:100010000C9426370C9426370C9426370C942637EC
:100020000C94B2250C9426370C9426370C94263762
:100030000C9426370C9426370C9426370C942637CC
:100040000C9426370C9426370C9426370C94F11E0A
:100050000C9426370C9426370C9426370C942637AC
:100060000C94D8360C9426370C9426370C942637EB
:100070000C9426370C9426370C945A200C9426376F
:100080000C94912D0C94BE2D0C942D330C94E236CF
:100090000C9426370C9426370C9426370C9426376C
:1000A0000C9426370C9426370C9426370C9426375C
:1000B0000C9426370C94B8280C94DD360C94263713
:1000C0000C9426370C9426370C9426370C9426373C
:1000D0000C9426370C94EB2D0C94182E0C94413371
:1000E0000C9426370C9426370C9426370C9426371C
:1000F0000C94263740004742804742476A006E9082
:10010000476A478A80478A47B8006EB847B847CBE6
:100110008047CB47EB006EE647EB47F98047F9484D
:1001200006006F064806481C80481C481E006F13D6
:10013000481E48638000809101108F7C8060806839
:100140008093011011241FBECFEFCDBFDFE7DEBFCC
:10015000E4EFF0E041E019C0B791A7913791279102
:10016000079107FD0EC097918791EF01F92FE82FB6
:100170000BBF07900D92A217B307D9F7FE011BBE64
:1001800004C01D92A217B307E1F7E533F40721F786
:0C0190000E9425340C945035F894FFCFE9
:10019C004D432B41424F5554004D432B424C4F4243
:1001AC0054455354004D432B50494E47004D432B5F
:1001BC004252494447454D4F4445004D432B45431E
:1001CC00432B47454E5055424B4559004D432B450B
:1001DC0043432B4C4F434B004D432B4543432B4F39
:1001EC0054502B52454144004D432B4543432B5017
:1001FC0055424B45592B52454144004D432B4543E9
:10020C00432B5055424B45592B5752495445004DA1
:10021C00432B4543432B52454144004D432B45430F
:10022C00432B53455249414C004D432B4543432BE3
:10023C005349474E444947455354004D432B45437E
:10024C00432B5752495445424C4F42004D432B4788
:10025C0045544C4544004D432B4C495354434F4D4E
:10026C004D414E4453004D432B5245534554004D84
:10027C00432B5345544C4544004D432B5645525348
:04028C00494F4E0088
:10029000434F4D4D414E4448414E444C4552003130
:1002A0002E332E300025730D0A004649524D57411A
:1002B000524500312E312E37004156522D496F5490
:1002C0002043656C6C756C6172204D696E690041EC
:1002D00056522D496F542043656C6C756C617220C9
:1002E0004D696E692070726F766973696F6E696EA1
:1002F000672046570025730D0A46572025730D0ABF
:10030000436F6D6D616E642068616E646C65722010
:1003100025730D0A666F72207468652025730D0AB7
:0C032000004D432B504F4E473D2573000D
:10032C0057656C636F6D6520746F20746865204130
:10033C0056522D496F542043656C6C756C6172205C
:10034C004D696E692070726F766973696F6E696E34
:10035C006720636F6D6D616E642068616E646C659F
:10036C0072210D0A0052454144590D0A004F4B0DA4
:10037C000A004552524F523A20307825580D0A0047
:05038C003E000D0A0017
:100391009C81702E00A5811D3701B181B42F00B958
:1003A10081802700C7810C2100D881C02700E4810A
:1003B100C51700F4810E230007826421011B829777
:1003C10016002782192A00358225250147824F18F8
:1003D100015882351E006282BE26007282F235000B
:0A03E1007B823E28008582D61D00B5
:1003EB00511B002828002419001C3200431302154E
:1003FB002300408D0230050056A500172300083757
:10040B00001614004632001B170002050080E001A5
:10041B00771409474B00419902200A00453D04120D
:02042B002D00A2
:10042D00511B002828002419001C320043AC001574
:10043D00230040D70030050056A5001723000837CC
:10044D00001614004632001B170002050080A000A4
:10045D00777102472A0041DC00200A00452701126E
:02046D002D0060
:10046F00511B002828002419001C3200434B001593
:10047F00190040730030050056A5001723000837F8
:10048F00001614004632001B1700020500805000B2
:10049F0077FA00472400417300200A0045690012D3
:0204AF002D001E
:1004B1004F4E004F4646004C45443A257320697320
:1004C100204F4E0A0D004C45443A25732069732094
:1004D1004F46460A0D004552524F52004441544185
:1004E10000434F4E4E0043454C4C0055534552007E
:1004F100280D002414001C3200433A00150B004063
:100501007300111700300200172000080E00161D9D
:10051100000103004630001B1700020500470900D7
:0C052100413C00200A00454800121A006E
:10052D00280D002414001C3200150B00407300111F
:10053D001700300200172000080E00161D000103E1
:10054D00004630001B1700020500470900413C0022
:09055D00200A00454800121A00B2
:100566002826001C3E00152B0011450030020017FE
:100576001800082300163C000102001B3200020589
:0A05860000471600200C00122A00A6
:100590007B31EF32AD2CDB2C882A0000C936F334D6
:0405A00070360000B1
:1005A400DE35E835FB35FC2F312920372E36413036
:0205B400FF3412
:0A05B6005045524D414E454E540091
:1005C000A8E2B0E0E6EEF2E00C94053289A39AA32B
:1005D000688F798F2A8FFB010190F081E02DED87E4
:1005E000FE87FB010280F381E02DEB83FC83FB019E
:1005F0000480F581E02DEC8BFD8BFB010084F185FF
:10060000E02DEDA3FEA3FB010680F781E02DE98339
:10061000FA83FA01408051806280738020E030E0EC
:10062000A901C301B2010E94E73687FF06C077FA2D
:10063000709477F870948DE204C0FD85F2FF6DC36D
:100640008BE2E981FA8180832C893D89215031092F
:100650002F83388741E050E04A8B5B8B06C08C8942
:100660009D898F8398871A8A1B8AD301C201BF771D
:100670000097E0E8AE07EFE7BE07C9F42A8D022E27
:10068000000C330B2154310989819A814A895B8995
:10069000840F951F2A31310518F46BED77E402C001
:1006A0006FED77E40E943E368FED97E425C3019706
:1006B000A048BF47E8F08A8D082E000C990B8154A2
:1006C00091098B839C8389819A81EA89FB898E0FAA
:1006D0009F1F2B813C812A31310518F463EE77E4AA
:1006E00002C067EE77E40E943E3687EE97E404C3CB
:1006F00020E030E0A901C301B2010E94E736812C5D
:10070000912C20E8A22E2FE3B22E212C312C88230D
:1007100009F488C049865A866B867C8620E030E0E2
:1007200040E251E4C501B4010E9419376B017C011C
:10073000D301C2018C199D09AE09BF09B7FF07C0DB
:10074000B095A095909581959F4FAF4FBF4F029761
:10075000A105B10534F43FEF231A330A46015701CE
:10076000DDCFA3019201C701B6010E94E73687FDE4
:10077000F2CFC984DA84EB84FC84C818D908EA086B
:10078000FB084FEFC41AD40AE40AF40A53E0C51672
:10079000D104E104F10408F443C000E010E0A30137
:1007A0009201C501B4010E94EC361816DCF584ED07
:1007B00028168EEF3806CCF401151105B1F420E0AF
:1007C00030E040E85AE5C301B2010E9419372B011D
:1007D0003C0120E030E040E85AE5C501B4010E9448
:1007E00019374B015C0101E010E020E030E040E20D
:1007F00051E4C501B4010E9415374B015C0191E041
:10080000291A3108D301C20188199909AA09BB091B
:100810000196A11DB11D0397A105B10508F0BFCF39
:1008200024013501EA8D0E2E000CFF0BEA8FFB8FA1
:10083000CF010E94363688A32B813C8137FD03C04F
:1008400029873A8704C046E050E049875A8758A173
:10085000573649F48B819C81892B41F4E1E0F0E02B
:10086000E987FA8703C048A1498B10C02CEF2216F4
:100870002FEF32060CF456C229853A85221633062C
:100880000CF050C237FE51C256E6598B89859A85C5
:10089000019689879A879989963699F437FE08C018
:1008A000812C912C90E8A92E9FE3B92E212C312C7C
:1008B000E8A1E73631F029853A85220D331D2987D5
:1008C0003A8788A69FA2AB82BF86730162011E8A07
:1008D0001F8A8E899F89E985FA858E179F07E4F51F
:1008E00028A53FA14B815F85C701B6010E9415373E
:1008F0000E9432176C8F7D8F8E8F9F8F0E94A13642
:100900006BA38701760117FB109517F9109528A5A1
:100910003FA14B815F856C8D7D8D8E8D9F8D0E945B
:10092000F9156B017C01F7FAF094F7F8F09420E0E8
:1009300030E040E251E468A57FA18B819F850E9451
:10094000153768A77FA38B839F874E895F894F5F89
:100950005F4F4E8B5F8BBDCF20E030E040EA50E42C
:1009600068A57FA18B819F850E9419376B837C834B
:100970008D839E839B01AC01C701B6010E94E736BF
:1009800087FD0DC02B813C814D815E81C701B60181
:100990000E94E736811107C0FBA1F0FD04C01B8255
:1009A0001C821D821E82A30192016B817C818D813C
:1009B0009E810E949B362B013C0120E030E040E20A
:1009C00051E4C501B4010E9419376B837F87D82E8B
:1009D000C92E9B01482F592FC301B2010E94EC364A
:1009E00087FD11C02FEF221A320A3989363679F481
:1009F00049855A854F5F5F4F49875A875B815FA35F
:100A00008F8588A70BC08B829F86DA2CCB2C998987
:100A1000953631F0EB81EFA3FF85F8A7410106C0C1
:100A20002B812FA33F8538A7812C912CAA88BB88C6
:100A3000E12CF12C1E8A1F8A1F86188A4D855E853F
:100A4000407155274BA35CA3EF85F88929853A852A
:100A5000E217F30734F04E895F89452B09F4A0C0F3
:100A6000ACC08501E88DF98D808591850597A81624
:100A7000B90688F72FA138A54D2D5C2DC301B20111
:100A80000E9415370E9432176C8F7D8F8E8F9F8F3B
:100A90000E94A1366A30710514F069E070E08BA104
:100AA0009CA1892B69F46115710551F498A19736C1
:100AB00039F497FE05C0F7013196EB83FC8341C002
:100AC0002E893F89232BA1F497FE12C03FEFA31A72
:100AD000B30AE981FA81E00FF11F4EE240838F8172
:100AE000988501978F839887E1E0F0E0EE8BFF8B8C
:100AF000E981FA81EA0DFB1DEB82FC828B819C81EE
:100B0000892B49F020E321934B815C8141505109AD
:100B10004B835C83F3CFC7018A0D9B1D2F813885E2
:100B20002E193F095C01EFEFAE1ABE0AE981FA8186
:100B3000E80FF91F605D6083A901415051094F839F
:100B400058878301720117FB109517F910952FA193
:100B500038A54D2D5C2D6C8D7D8D8E8D9F8D0E94C9
:100B6000F9152B013C0177FA709477F8709420E026
:100B700030E040E251E46FA178A58D2D9C2D0E94BC
:100B800015376FA378A7D82EC92E51E0851A910882
:100B90008F85988901968F87988BEB80FC8054CF46
:100BA000FD85F4FF0AC0E981FA81EA0DFB1D8EE2A2
:100BB000808395012F5F3F4F590149815A814A0D2A
:100BC0005B1D4B835C83FA011082F989F53609F0CD
:100BD00060C0E981FA812DA13EA1E20FF31F319798
:100BE000108237FE06C031942194310801E010E0F4
:100BF00002C000E010E0EDA1FEA1319749815A81C9
:100C0000E40FF51F22E030E08AE0E82EF12CCF015E
:100C100049815A81841B950B2114310479F0C1015B
:100C2000B7010E946933805D82931B012150310915
:100C30008F81988501978F839887E9CF12161306C5
:100C400074F3FC013197E40FF51F012B11F42BE233
:100C500001C02DE22083029769817A81680F791F94
:100C60002A8D3B8D215431092A31310510F025E6BA
:100C700001C025E4FB0120832F81388522503109F2
:100C80002F833887A816B90624F48B819C810E9493
:100C90003E363D8531FF2EC030FD2CC04F8158853A
:100CA000141615063CF589819A810E94B034E981B9
:100CB000FA818E0F9F1F9C0149815A81241B350B9D
:100CC000EA89FB892E173F074CF0FC012081EF8158
:100CD000F885E80FF91F20830197EDCF4F815885E4
:100CE00060E370E089819A818E0F9F1F0E940D360C
:100CF0001C8A1D8A89819A810E94B0340D851E85C7
:100D00002C893D89AC0169817A8189A19AA10E94CF
:100D1000E029A896E2E10C947E325D8553FF9FCCDA
:100D200080E28FCC35E6398BCCCD46E6498BC9CDF8
:100D3000A0E2B0E0EEE9F6E00C940532888F998FDE
:100D4000FB01298320812F8331813A8F8281938116
:100D5000888B998B248135812C873D87808591856F
:100D60008B8F9C8F66807780FA01C080D180E28073
:100D7000F38020E030E0A901C701B6010E94E73608
:100D800087FF06C0F7FAF094F7F8F0948DE204C0FC
:100D90005F8152FFE1C28BE2F30180832C853D85A8
:100DA000215031092E873F8741E050E04D835E831B
:100DB00006C08C859D858E879F871D821E82B70108
:100DC000A6017F77E9810E2E000CFF0BEA87FB87D7
:100DD00041155105F0E86F07FFE77F07A9F42A8561
:100DE0003B85215431098D819E81860D971D2A31C5
:100DF000310518F46BEC77E402C06FEC77E40E94E5
:100E00003E368FEC97E498C28D819E81860D971DAA
:100E10004130510560487F4788F02A853B85215441
:100E200031092A31310518F463ED77E402C067ED2A
:100E300077E40E943E3687ED97E47EC220E3FC0112
:100E40002083ED81FE813196E60DF71D2D813E81D7
:100E50002E5F3F4F2D833E834A855B854154510968
:100E60004E8B5F8B4A31510510F088E701C088E551
:100E7000808320E030E0A901C701B6010E94E73677
:100E80001B821C821F8E1982882309F469C050E8D6
:100E900058A38FE38A832F8D398148A15A816F8DA2
:100EA000798188A19A810E949B365B018C01A70100
:100EB00096010E94EC3618160CF447C0EB81FC81B9
:100EC0003196EB83FC83AF8EB98208A31A83E3CFFC
:100ED00020E030E040E05FE36F8D798188A19A8166
:100EE0000E94193720E030E0A9010E94E736811105
:100EF00018C020E030E040E85AE56F8D798188A184
:100F00009A810E9419376F8F798388A39A8320E092
:100F100030E040E85AE5C701B6010E9419376B017D
:100F20007C0120E030E040E05FE36F8D798188A1B3
:100F30009A810E9419376F8F798388A39A832B81B6
:100F40003C81215031092B833C832F8D398148A16D
:100F50005A81C701B6010E94E73687FDB9CF04C0A8
:100F600030E838A34FE34A838889998997FF02C004
:100F700088E190E0FC013196E887F9878F8C9980B1
:100F8000A8A0BA8016018701412C512C9401A5011B
:100F9000B101C8010E9415370E9432176A8B7B8B02
:100FA0008C8B9D8B9401A5010E9419379B01AC018C
:100FB000B101C8010E949A361B018C0120E030E08B
:100FC00040E85DE3B401C5010E9419374B015C01A3
:100FD000FFEF4F1A5F0A2889398937FF09C020E0DF
:100FE00030E0A901B101C8010E94E736882331F041
:100FF00048855985441655064CF202C048865986E4
:1010000020E030E040E051E4B401C5010E9419370E
:101010004B015C019B01AC01B101C8010E94E736A4
:1010200087FD12C0A5019401B101C8010E94E736F5
:1010300081110DC06A897B898C899D890E94A136A6
:1010400061707727672B19F4812C912C5401A5012D
:101050009401C701B6010E949B366B017C01DC0143
:10106000CB01BF770097A048BF4709F4B8CE2E84C4
:101070003F8482E0281A3108E885F985F195E195E9
:10108000F109EA8BFB8B0D811E81412C512C1E86B0
:101090001F86188619862B8D3C8D255031092D8F82
:1010A0003E8F0A871B87ED8DFE8D0E171F0708F0F8
:1010B00093C02F8D398148A15A81C701B6010E9482
:1010C00015370E9432174B015C010E94A136AB011B
:1010D0006115710541F4E885F985EF2B21F0FFEFEB
:1010E0004F1A5F0A4FC02E853F85232B99F4E88560
:1010F000F985EF2B79F00F5F1F4FEA85FB85E60D31
:10110000F71D2EE2208331E0231A3108E1E0F0E000
:10111000EE87FF87F301E00FF11F920121153105E2
:1011200029F0A0E3A19321503109F8CFF801E40D93
:10113000F51DEA87FB87241835084A3051051CF451
:10114000605D7F4F02C0695A7F4F2E893F892A31E7
:10115000310550F4CB018062815691094A9720F401
:10116000CB010E940436BC010A851B850F5F1F4F0F
:10117000EA85FB85E60DF71D608331E0231A31080F
:10118000412C512C2F8D398148A15A81C501B401C0
:101190000E9419379B01AC01C701B6010E949A3623
:1011A0006B017C0120E030E040E85DE36F8D7981E8
:1011B00088A19A810E9419376F8F798388A39A83B7
:1011C0004885598541505109488759878A899B89A3
:1011D0008417950709F065CF2E853F85232B49F5A8
:1011E000F301E00FF11F41145104E1F048895989DE
:1011F00014161506BCF45F8150FD14C08EE2808386
:10120000F8013196E60DF71DC20120E32193019705
:10121000E9F7040D151D0F5F1F4F40945094240CE7
:10122000351C07C08F8184FF04C08EE280830F5F6E
:101230001F4FF301E00FF11FE887F9871082EB8D54
:10124000FC8D3197E60DF71D10822B813C8137FF15
:1012500009C03195219531092B833C83EE24E39419
:10126000F12C02C0E12CF12C21E030E08AE0C82E04
:10127000D12CCF01861997094B815C81452B79F0E0
:101280008B819C81B6010E946933805D82936B8360
:101290007C832150310941E0241A3108EACF213002
:1012A000310571F3FC013197E60DF71DE114F104EE
:1012B00011F42BE201C02DE220830297B301680FE5
:1012C000791FEE89FF897A9710F020E701C020E5A9
:1012D000FB0120830817190724F4888599850E944B
:1012E0003E36FF81F1FF27C0F0FD25C022E0221A23
:1012F000310812141304FCF4C3010E94B034860DAB
:10130000971D9C01261937094D815E8124173507E9
:101310003CF0FC012081E20DF31D20830197F1CF09
:10132000A10160E370E08D819E81860D971D0E9472
:101330000D361C861D86C3010E94B0340F811A8DA4
:101340002C853D85AC01B301888D998D0E94E029E3
:10135000A096E2E10C947E325F8153FF2ACD80E2B9
:021360001BCDA3
:10136200AF92BF92CF92DF92EF92FF920F931F93B1
:10137200CF93DF9300D0CDB7DEB7F82E009110489F
:101382001091114800381105A8F082E090E00E9407
:10139200372D10921048109211488F2D0E946635F9
:1013A200882321F081E080935548EAC183E080934D
:1013B2005548E6C1809155488130A9F038F0823015
:1013C20009F421C1833009F490C198C110921048E8
:1013D2001092114881E0809355488F2D0E94663506
:1013E200882361F0CDC18F2D0E946635882309F4D0
:1013F20089C10115110509F090C1C2C181E090E0D7
:101402008093104890931148F0920245B9C10F2E73
:10141200F1E9EF2EF3E8FF2EF02D00E010E0680175
:10142200AE014F5F5F4F62E075E4D7018D919C91F1
:101432000E94FF26882381F0C601880F991F880F1A
:10144200991F8C0D9D1D8F569C4780930E4890933B
:101452000F480B1548F07CC10F5F1F4FB5E0EB0E34
:10146200F11C0B15E0F270C11092544809811A81E7
:10147200F80180818D3309F06FC181810E94663548
:1014820081116AC10F5F1F4F81E895E4D82ED01AEF
:1014920000936A4710936B47DD2009F459C1E12C90
:1014A2005801D8018C910E94CF31F82EF801819316
:1014B2008F010E946635882359F0EE2009F448C155
:1014C200D5011C92809154488F5F8093544844C147
:1014D200BCE2FB1212C0EE2009F43AC1F8013197C6
:1014E2001082E0915448EF5FE0935448F0E0EE0F31
:1014F200FF1FE659F84B00831183E394DE1409F4CD
:1015020027C1809154488F3058F222C1E09154484B
:10151200EE23B1F1F0E0EE0FFF1FE859F84B40E087
:1015220050E0BE016F5F7F4F808191810E940D3735
:1015320060931448709315486130744068F080E0FD
:1015420094E0809314489093154884E090E00E94C0
:10155200372D1092554814C1E981FA818081811199
:1015620008C08CE893E80E941E3282E080935548BE
:1015720007C184E090E00E94372D1092554800C1C7
:1015820081E090E00E94372D10925548F9C0028008
:10159200F381E02D22E138E442E050E46AE677E4A8
:1015A2008091544809956C0180911248909113489A
:1015B200892B19F18091164890911748892BE9F0EF
:1015C2000F2EF2E0EF2EF0E4FF2EF02D00E010E0FF
:1015D200E0911648F0911748D7018D917D01099548
:1015E2000F5F1F4F809112489091134808171907F7
:1015F20078F38EE893E80E941E32C6010E94372DCE
:1016020010925548BDC0009112481091134801151F
:10161200110539F48F2D0E946635882309F4A8C07C
:10162200AFC080911448909115480817190758F4D3
:10163200C80101968093124890931348F801EE5F17
:10164200FF4BF0829DC08F2D0E946635882309F4DE
:1016520044C08EE893E80E941E32E0910E48F09159
:101662000F480280F381E02D22E138E442E050E4A9
:101672006AE677E48091544809956C01809112489A
:1016820090911348892BF9F0809116489091174850
:10169200892BC9F00F2EF2E0EF2EF0E4FF2EF02D91
:1016A20000E010E0E0911648F0911748D7018D91C3
:1016B2007D0109950F5F1F4F809112489091134849
:1016C2000817190778F38EE893E80E941E32C601C4
:1016D2000E94372D1092554853C084E090E00E943A
:1016E200372D83E0809355484BC08F2D0E9466357D
:1016F200882309F445C01092554842C083E0809384
:1017020055483EC0C80101968093104890931148F5
:10171200F801EE5FFA4BF08233C0C8010196809364
:10172200104890931148F801EE5FFA4BF0828EE870
:1017320093E80E941E3282E095E489839A830E9494
:101742002837B82E811163CECC24C394D12C55CF27
:10175200CC24C394D12C51CF10921248109213482A
:10176200E0910E48F0910F4884818111CFCE0FCFC6
:101772008091144890911548892B09F4AECF58CF27
:101782000F900F90DF91CF911F910F91FF90EF90EB
:0A179200DF90CF90BF90AF90089554
:10179C00A2E1B0E0E4EDFBE00C9408324C016B01EB
:1017AC0019821A828FEF9FEF8B839C831D821E827E
:1017BC004F83588729873A87A12CB12CD6016D907D
:1017CC007C90F301EA0DFB1D808181110FC0D601C5
:1017DC00ED93FC938081853209F0D9C13F01BFEFB5
:1017EC006B1A7B0AF6016082718219C0853279F31B
:1017FC00B401082E000C990B0E94DC244FEFA41AA4
:10180C00B40ADCCF8C32ACF08D32F9F489819A8138
:10181C00816089839A833196D601ED93FC93D6012E
:10182C00ED91FC9180818B3269F789819A8184607A
:10183C00F0CF803221F489819A818860EACF83329B
:10184C0051F489819A818061E4CF803321F48981BC
:10185C009A818260DECFB701C6010E94092D8D836B
:10186C009E8397FF0BC029813A81B1E02B272983F6
:10187C003A839195819591098D839E8389819A8173
:10188C0080FF03C08D7F89839A83D601ED91FC91F3
:10189C00119780818E3249F43196ED93FC93B70108
:1018AC00C6010E94092D8B839C83C6010E94C33004
:1018BC00582ED601ED91FC918081082E000C990BCD
:1018CC000E943636893609F443C084F4833609F411
:1018DC0008C134F4853209F42DC18136E1F036C1EA
:1018EC008436B1F188360CF4DFC030C1803709F48E
:1018FC009AC03CF48E3609F4C2C08F3609F461C02C
:10190C0025C1853709F440C0883709F476C0833780
:10191C0009F01CC1F9C0652D70E0A701CE010B9632
:10192C000E94E330892B09F42CC1D601ED91FC9176
:10193C001197CF0101968D939C932081AE01455F49
:10194C005F4FBE016F5F7F4FC4010E94980616C1A6
:10195C00652D70E0970141E050E0CE010B960E949E
:10196C009414892B09F40DC1F601808191810196A3
:10197C0080839183AE01455F5F4FBE016F5F7F4FE8
:10198C00C4010E94D513FAC0652D70E0970140E0A8
:10199C0050E0CE010B960E949414892B09F4F1C0EF
:1019AC00D6018D919C91119701968D939C93AE01CC
:1019BC00455F5F4FBE016F5F7F4FC4010E94BB212B
:1019CC00DDC0652D70E0970140E050E0CE010B9634
:1019DC000E949414892B09F4D4C0F6018081918162
:1019EC00019680839183AE01455F5F4FBE016F5FAF
:1019FC007F4FC4010E94DA1BC1C0652D70E09701B6
:101A0C0040E050E0CE010B960E949414892B09F40F
:101A1C00B8C0D601ED91FC911197CF0101968D9331
:101A2C009C93208122C0D701ED91FC911197CF019D
:101A3C0002968D939C93008111810B871C871D86C8
:101A4C001E861F86188A198A1A8AF601808191814E
:101A5C000196808391838B859C85892B29F420E0CA
:101A6C0030E040E058E484C028E7AE01455F5F4FAA
:101A7C00BE016F5F7F4FC4010E94230F7FC0A50181
:101A8C00400F511F652D70E09701CE010B960E94FF
:101A9C009A1A892B09F475C0D6018D919C911197D6
:101AAC0001968D939C9373C0652D70E0A701CE01B8
:101ABC000B960E94E330892B09F463C0D601ED919B
:101ACC00FC911197CF0101968D939C932081AE01CF
:101ADC00455F5F4FBE016F5F7F4FC4010E94E00204
:101AEC004DC0B0E85B124DC0F6018081918101962A
:101AFC0080839183D701ED91FC911197CF010296D0
:101B0C008D939C93808120C0B0E85B123AC0F601A3
:101B1C0080819181019680839183D701ED91FC9115
:101B2C001197CF0102968D939C934081518120E0B7
:101B3C0030E01EC0B0E85B1224C0F6012081318178
:101B4C002F5F3F4F208331838B870DC085E28B87BE
:101B5C00D6016D927C9219821A821D821E828FEFA1
:101B6C009FEF8B839C8321E030E0AE01455F5F4F9C
:101B7C00BE016F5F7F4FC4010E949A2E8A0D9B1D80
:101B8C0007C0F60180819181019680839183C50104
:081B9C006296EFE00C94813227
:101BA400A9E0B0E0E8EDFDE00C9405324C011B0126
:101BB4005A012B834532510524F441E0A416B104A3
:101BC40039F486E190E080930040909301404DC049
:101BD400009709F44AC0DC01BC91B887BB2309F41F
:101BE40044C08C01E885E03209F493C08E2FEE0FD7
:101BF400990B0997059708F48CC028852D3209F0B4
:101C04008EC0D8011196BC91B8870F5F1F4FE1E0D9
:101C1400E983E885E03309F095C07801FFEFEF1A16
:101C2400FF0AD8011196BC91B887C5018F7E892B14
:101C340009F08AC08B2F8F7D8835F9F4F801F28181
:101C4400F8878F2F8062082E000C990B815691091A
:101C5400CF2EFF0FDD084A9708F46CC0C6010E941E
:101C6400A533892B09F0D7C04701C12CD12C7601AB
:101C74002114310409F049C0DEC0A114B10409F4EF
:101C8400D3C0870121E029878B81882309F467C0A9
:101C94009981911169C044244A94542C642C4FE7CF
:101CA400742E1A82C12CD12C7601C5010B2C000C88
:101CB400AA0BBB0B8C839D83AE83BF8328852062D4
:101CC400022E000C330B21563109A8858A2FAA0F46
:101CD400990B2A31310508F04DC00E940436875310
:101CE4008887E8858E2F0E2E000C990B8A159B058C
:101CF4000CF448C04A81442309F480C021143104FF
:101D040009F499C0998591114801D1018D929C9251
:101D140092C00F5F1F4FF801F081F88763CFF885F9
:101D2400FB3231F4D8011196BC91B8870F5F1F4F75
:101D340019826FCFC6010E940436875380310CF498
:101D44008DCF92CF198603C0870141E04987A11442
:101D5400B10409F099CF5AE0A52EB12C95CF4424B3
:101D64004A94542C32019DCF412C512C612C20E8F3
:101D7400722E97CFC0970A9708F0BCCFB885B0539E
:101D8400B887AFCFFA81F1112BC02C813D814E81F0
:101D94005F81C701B6010E9457342E2FEE0F330B1B
:101DA400440B550BDC01CB01820F931FA41FB51FFD
:101DB4008C159D05AE05BF0540F02B812223A1F0B3
:101DC400481659066A067B0678F482E290E080930E
:101DD400004090930140D301C201E1E0EA8304C0D2
:101DE400D701C601F1E0FA830F5F1F4FF801F081BC
:101DF400F88721E029876C017D0160CF89818823E0
:101E040009F47CCFF094E094D094C094C11CD11C0C
:101E1400E11CF11C73CF780142E0E40EF11C198639
:101E240090E1A92EB12C05C081E0898788E0A82E15
:101E3400B12C870129CFC701B6012996E2E10C94A0
:021E44007E32EC
:101E4600A4E1B0E0E9E2FFE00C9405328F839887C5
:101E560069837A834B8B5C8B122FDB011296ED9193
:101E6600FC91139714962D913C9115972D833E83E3
:101E7600CD90DC90119716962D903C901797F7FD14
:101E860003C0E894C1F802C0E1E0F0E0C601807149
:101E9600992789879A87C4FE1FC0AB89BC892C9174
:101EA60011963C91119712964C91129713965C914C
:101EB600139714966C91149715967C911597169610
:101EC6008C91169717969C91A0E00E94173521F0E9
:101ED6008D819E81029702C08D819E819601287018
:101EE60033272B873C87C3FC0197AB89BC894C9071
:101EF60011965C90119712966C90129713967C909F
:101F0600139714968C90149715969C901597169681
:101F1600AC9016971796BC90A981BA811896ED9049
:101F2600FC901997B1E0EB1AF108D101AE0DBF1D77
:101F36001C928B839C839F01281B390B2D873E8720
:101F4600C601827099278F87988B812F012E000CEE
:101F5600990BDC01A154B109A98BBA8B32E0E316C7
:101F6600F10430F489859A85892B09F04CC073C039
:101F76009201A301B401C501A0E00E94173581F1C9
:101F8600B1E0EB1AF108C2018F7099278A309105EA
:101F960014F4C09602C0895A9F4FE989FA897A9744
:101FA60048F49C012062215631092A31310510F48A
:101FB6000E940436F101EE0DFF1D80832B813C81CA
:101FC600215031092B833C839201A301B401C50141
:101FD60004E00E94423129013A014B015C01BECF67
:101FE6008D859E85AB81BC818A0F9B1F18161906AD
:101FF6003CF21A161B060CF0B5CFEF85F889EF2BCD
:1020060009F0BECFAFCFAB89BC892C9111963C911C
:10201600119712964C91129713965C9113971496FA
:102026006C91149715967C91159716968C91169728
:1020360017969C91A0E00E94173569F0F101EE0D0C
:10204600FF1D31971083B2E0EB1AF108F101EE0D96
:10205600FF1D80E38083EB85FC85EF2B41F0F1E0EB
:10206600EF1AF108F101EE0DFF1D80E28083A981D0
:10207600BA8118964D915C911997415051094E19A4
:102086005F09B1016E0D7F1D86012D813E818F8115
:1020960098850E94E0299C01EF81F88580819181D5
:1020A60090FF09C0A981BA8112968D919C911397D0
:1020B600821793070CF4C9016496E2E10C947E3210
:1020C6002F923F924F925F926F927F928F929F9242
:1020D600AF92BF92CF92DF92EF92FF920F931F9330
:1020E600CF93DF9300D0CDB7DEB719821A82833043
:1020F60008F090C0823021F46031710508F08CC080
:102106000115110509F48AC02115310509F488C0A5
:10211600F801E42BF52BE370FF27EF2B09F082C0C3
:10212600680129015A011B01F82EAE014F5F5F4F6E
:102136000E94AA1C811198C029813A81C8018A0D82
:102146009B1D2817390708F46FC0350176946794EC
:102156007694679476946794769467947694679465
:102166008FE1A822BB24B694A794B694A794812C99
:10217600912CA114B10409F5C60188199909809713
:10218600E0F0F11005C082E06816710409F45EC043
:102196006894EE24E5F88201080D191D20E0462D0D
:1021A600B1018F2D0E943A2681115EC080E2880E11
:1021B600911C8FEF681A780A27C0F11008C082E0D8
:1021C6006816710421F485E0A816B10479F16894C3
:1021D600EE24E2F88201080D191D2A2D462DB101C3
:1021E6008F2D0E943A2681113FC084E0880E911CF3
:1021F6008FEFA81AB80A88E0A816B10429F48FEF61
:10220600681A780AA12CB12C8C149D0408F4B1CF5D
:1022160080E02AC082EE28C082EE26C080E024C07C
:1022260082EE22C082EE20C082EE1EC084E0880EBE
:10223600911C0F2EF6E0AF2EB12CF02DE5CF84E0E9
:10224600880E911C8FEFA81AB80ADECF6894EE2488
:10225600E2F88201080D191D2A2D462DB1018F2D98
:102266000E943A26882359F30F900F90DF91CF9161
:102276001F910F91FF90EF90DF90CF90BF90AF909E
:102286009F908F907F906F905F904F903F902F9090
:022296000895A9
:102298000F931F93CF93DF9340E054E07FE0DA0180
:1022A8007C9320E234E065E0F901608380E494E007
:1022B800EDEADC01EC93C0E6D4E01882A0E8B4E0D3
:1022C8001C9200EA14E0F8011082FA017483F90103
:1022D800648361E8FC0164831C8214961C92149741
:1022E800F8011482FA01108A118A128A138A148A50
:1022F800158A168A178AF901108A118A128A138A8E
:10230800148A158A168A178AFC01108A118A128A79
:10231800138A29E0248B158A168A178A188A198A3B
:102328001A8A1B8A1C8A1D8A1E8A1F8A50961C922A
:10233800509751961C92519752961C9252975396C9
:102348001C92539754961C92549755961C925597E5
:1023580056961C92569757961C92D80150961C92E6
:10236800509751961C92519752961C925297539699
:102378001C92539754961C92549755961C925597B5
:1023880056961C92569757961C92E0EEF5E01186E9
:1023980011821082148216821782108682E0858349
:1023A80012821382128681E397E380933A489093CE
:1023B8003B4882E397E3809338489093394883E316
:1023C80097E3809336489093374884E397E3809364
:1023D80034489093354885E397E380933248909347
:1023E800334886E397E3809330489093314887E3F6
:1023F80097E380932E4890932F4888E397E3809340
:102408002C4890932D4889E397E380932A4890932A
:102418002B488AE397E380932848909329488BE3D5
:1024280097E380932648909327488CE397E380931B
:102438002448909325488DE397E38093224890930E
:1024480023488EE397E38093204890932148DF91B7
:08245800CF911F910F9108952F
:102460002F923F924F925F926F927F928F929F92A4
:10247000AF92BF92CF92DF92EF92FF920F931F9392
:10248000CF93DF93CDB7DEB7A597CDBFDEBF19825F
:102490001A82833008F0A1C0823021F460317105C6
:1024A00008F09DC00115110509F49BC021153105E7
:1024B00009F499C0680119012A016CA37DA38BA3BB
:1024C000AE014F5F5F4F0E94AA1C81118FC029810E
:1024D0003A81C801840D951D2817390708F485C075
:1024E00032017694679476946794769467947694A0
:1024F0006794769467946894FF24F5F8812C912C66
:10250000A12CB12C80E2F8121CC089819A81930120
:10251000220F331F22953295307F3227207F3227BA
:10252000821B930B809768F442018A0C9B1C969443
:1025300087949694879497E0892299246894FF243D
:10254000F2F8EF2C8E010D5F1F4F282D462D6CA148
:102550007DA18BA10E945019811148C0C301880F31
:10256000991F880F991F880F991F880D991D880F33
:10257000991F880F991F8415950520F4B201681BD7
:10258000790B02C060E070E08F2D90E0861B970B06
:1025900086010A191B098017910708F48C0183E052
:1025A00090E08C0F9D1F680F791FA801C1018A0D53
:1025B0009B1D0E945B35A00EB11E90E2F91204C073
:1025C0008FEF681A780A03C09FEF891A990AAC1432
:1025D000BD0408F497CF80E009C082EE07C082EE08
:1025E00005C080E003C082EE01C082EEA596CDBF9B
:1025F000DEBFDF91CF911F910F91FF90EF90DF90A1
:10260000CF90BF90AF909F908F907F906F905F9092
:082610004F903F902F900895B8
:102618008F929F92AF92BF92CF92DF92EF92FF92EA
:102628000F931F93CF93DF930F92CDB7DEB74C0173
:102638000E94EF320F2EF2E4CF2EF4E0DF2EF02DC1
:1026480004E0D6010C930F2EF5E4EF2EF4E0FF2EF4
:10265800F02D18E0F7011083E1E4F4E010830F2E69
:10266800F6E4AF2EF4E0BF2EF02DD5010C930083D5
:1026780061E070E080E090E00E949434F5011083FE
:10268800D6010C9361E070E080E090E00E94943401
:10269800F701108361E070E080E090E00E949434DC
:1026A80008E010E06894FF24F3F8EF2C0F2EF5E40F
:1026B800CF2EF4E0DF2EF02DD501EC9261E070E032
:1026C80080E090E00E949434F601F08261E070E0CE
:1026D80080E090E00E9494340150110969F714E0F9
:1026E800109346041093410461E070E080E090E0AC
:1026F8000E9494340F2EF2E4EF2EF4E0FF2EF02D1A
:10270800D7011C9361E070E080E090E00E9494346F
:1027180088E0F70180830E947B310E94152F88236F
:1027280089F0C4010E94A71F0E94152F882351F029
:102738006CE677E080E090E00E94F2330E94152F6B
:1027480081111EC0198280915648E0911C48F09171
:102758001D480480F581E02D41E050E0BE016F5F27
:102768007F4F90E00995882369F0E0911C48F0912B
:102778001D480684F785E02D09958111F6CF03C021
:1027880081EF01C080E00F90DF91CF911F910F91F1
:10279800FF90EF90DF90CF90BF90AF909F908F9079
:0227A800089592
:1027AA00ADE0B0E0EBEDF3E10C94053289879A874E
:1027BA006B837C83FA01DB011296CD90DC90139730
:1027CA0014968D919C9115978D839E83ED90FC9024
:1027DA001197E982FA8216960D90BC91A02DAF83CB
:1027EA00B8872080318042805380648075808680DB
:1027FA0097808101B42DF52DE62D7B868C869D86EA
:10280A009101A201B301C401A0E00E9417354CF462
:10281A000E9467348901B42FF52FE62F7B878C87B6
:10282A009D87D7FC04C0E894E1F8E982FA82910115
:10283A00A201B301C401A0E0ED80FE800E94173519
:10284A001CF0898182FF04C081E0E81AF10805C002
:10285A0083FF03C091E0E91AF108CE0101965C01F9
:10286A008AE0C82ED12C2B2F3F2F4E2F5B856C85EB
:10287A007D858B819C810E944D15FC019101A201ED
:10288A00B301C401A0E00E9417351CF0898182FFC0
:10289A0012C031970F8118850E0F1F1F9101A201D7
:1028AA00B301C401A0E00E94173514F08BE201C005
:1028BA008DE2D80108C083FF07C03197AF81B88580
:1028CA00AE0FBF1F80E28C9309811A81AB81BC8154
:1028DA0018964D915C911997415051094E1B5F0B07
:1028EA006F8178856E0F7F1F2D813E8189859A853C
:1028FA000E94E0299C01E985FA858081918190FFF7
:10290A0009C0AB81BC8112968D919C911397821755
:0E291A0093070CF4C9012D96E2E10C947E3275
:102928000F931F93CF93DF93FC01D901683871058A
:1029380031F194F461387105B1F12CF46038710506
:1029480009F478C09FC06238710509F459C0643829
:10295800710509F46FC096C0603A710509F448C062
:102968002CF46039710509F44BC08CC0603C7105CA
:1029780009F476C0603F710509F472C083C0CD9137
:10298800DC911197CE0102968D939C93452B39F0DB
:102998009881892F880F880B908381835BC08881F9
:1029A8008083118268C0CD91DC911197CE01049685
:1029B8008D939C93452B99F088819981AA81BB813D
:1029C800AC01BD01770F440B542FBA01808391836A
:1029D800A283B383448345834683478328C0088101
:1029E80019812A813B81008311832283338345C067
:1029F800CD91DC911197CE0102968D939C9323C0C3
:102A0800CD91DC911197CE0108968D939C93788196
:102A180069815A814B813C812D819E818F81708390
:102A2800618352834383348325839683878381E03C
:102A380090E02AC0CD91DC911197CE0102968D933A
:102A48009C93452BA1F099812881892F880F880BA9
:102A58002083918382838383848385838683E6CFDF
:102A6800CD91DC911197CE0102968D939C930881AC
:102A780019810083118312821382148215821682AF
:102A88001782D5CF80E090E0DF91CF911F910F9111
:022A980008959F
:102A9A00A2E1B0E0E3E5F5E10C940532FC010A8B12
:102AAA00912E822E732E642E552E462E7D83CC8631
:102ABA00DA86A886B986268137812E833F83D50197
:102ACA008D919C91228133810084F185E02D31978B
:102ADA0037FF02C021E030E04E815F81E40FF51F2D
:102AEA001082EB83FC831701A1E0B0E0A983BA83CB
:102AFA00F901EE19FF09ED87FE879C012270332741
:102B0A002F87388B3A85330F330B398BEB81FC8156
:102B1A002E813F81E21BF30B4B815C8142175307E5
:102B2A0009F44FC02A89392D482D572D662D752D48
:102B3A00842D9D81A0E00E94173599F14C854B8721
:102B4A00A42EBA84C988DC2CEC2CFC2C0C2D1C2D50
:102B5A002A89392D482D572D662D752D842D9D8155
:102B6A000E94BE34C90129839A83805DAB81BC81EE
:102B7A008E93AB83BC83B1E02B1A31082A89392D95
:102B8A00482D572D662D752D842D9D810E94C034A8
:102B9A002A8B932E842E752E662E572E482E9D83B1
:102BAA00B5CF8D859E85820D931D1816190634F2B0
:102BBA001214130444F48F859889892B09F0BECF27
:102BCA0002C0E0E0F0E0A981BA81AB2B41F4A8850C
:102BDA00B9858D919C9111978F7E8D939C93CF018E
:082BEA006296E2E10C947E32D8
:102BF200A5E1B0E0EFEFF5E10C9405324701580191
:102C02000E9419372B013C01A80197010E949B36B3
:102C1200162FC72ED82EF92E862F9C2DAD2DBF2D07
:102C220089839A83AB83BC83AA81FB81EC81ED808B
:102C32003E802F8008850D8B5E2F5F71212F3A2FEA
:102C42004F2F60E070E080E090E0211531054105F2
:102C520000E15007610571058105910509F05EC02B
:102C62005E2F6E2D732D822D9D8904E30E944231C9
:102C72002D873E874F87588B698B7A8B8B8B9C8BEA
:102C82008D859E8597708F3F974009F447C0A301B9
:102C92009201612F7C2D8D2D9F2D0E949A369B01D2
:102CA200AC01C501B4010E94E7368823B9F1498617
:102CB2005A866B867C8629853A854B855C85C5015B
:102CC200B4010E949B36B62E872E982EA92E262F4F
:102CD200372F482F592F612F7C2D8D2D9F2D0E942C
:102CE200E736811118C02B2D8B2D982DA92DBA2DC9
:102CF20089839A83AB83BC833A814B815C816E2D3D
:102D0200732D822D9D89A1E00E942335122FC32E9F
:102D1200D42EF52E03C01B2D6401FA2C612F7C2DBD
:0C2D22008D2D9F2D6596E2E10C947E3211
:102D2E00AF92BF92CF92DF92EF92FF920F931F93CB
:102D3E00CF93DF93CDB7DEB72697CDBFDEBF182F6B
:102D4E005B016A01790119821A821B821C82B90108
:102D5E00CA010E948634882309F44FC08FEF810F79
:102D6E00823008F04DC0A114B10409F44CC0BE016C
:102D7E006F5F7F4FF501808191810E94C432009771
:102D8E0009F046C0123068F0BE016D5F7F4FF5014D
:102D9E00828193810E948D2F811117C085E090E072
:102DAE0037C069817A81AE014B5F5F4F82E00E942E
:102DBE00AA1C2D813E812B833C83882331F090E029
:102DCE009160F7011082118238C00B811C810115B0
:102DDE001105E1F021C0A601B5018B819C810E94F5
:102DEE006C25F7018083918380E090E026C0F70187
:102DFE001082118290E0916020C085E090E01DC0AD
:102E0E0083E090E005C085E090E002C085E090E0B0
:102E1E00F7011082118211C0F70110821182560142
:102E2E00A00EB11E69817A81950140E050E082E0EA
:102E3E000E9430128111DBCFCECF2696CDBFDEBFE2
:102E4E00DF91CF911F910F91FF90EF90DF90CF9078
:062E5E00BF90AF90089543
:102E64004F925F926F927F928F929F92AF92BF9296
:102E7400CF92DF92EF92FF92CF93DF93CDB7DEB77D
:102E84002897CDBFDEBF6B017C01DC01CB0147E19C
:102E9400B695A795979587954A95D1F799278F5712
:102EA4009109873191059CF597FD36C088248A9451
:102EB400982C3FE7A32EB12C04C0B594A794979403
:102EC40087948A95D2F7D501C4018C219D21AE2126
:102ED400BF21892B8A2B8B2BD1F020E030E040E8F6
:102EE4005BE7C701B6010E949B366D837E838F83A7
:102EF4009887F7FE04C0C80CD91CEA1CFB1C8094FC
:102F04009094A094B094C820D920EA20FB205C2D92
:102F14004D2D3E2D2F2D21C020E030E040E85BE711
:102F2400C701B6010E949B3669837A838B839C8395
:102F3400F7FE0FC0D701C601880F991FAA1FBB1F38
:102F4400892B8A2B8B2B19F350E040E030E82FEBD0
:102F540004C050E040E030E020E0652F742F832F60
:102F6400922F2896CDBFDEBFDF91CF91FF90EF90D7
:102F7400DF90CF90BF90AF909F908F907F906F9095
:062F84005F904F900895DC
:102F8A00AF92BF92CF92DF92EF92FF920F931F936D
:102F9A00CF93DF9300D000D0CDB7DEB7182F5B01F7
:102FAA006A01790119821A82B901CA010E9486341A
:102FBA00882309F442C0123008F053C0A114B104A6
:102FCA0009F452C0112369F0BE016F5F7F4FF5010A
:102FDA00808191810E948D2F811117C085E090E038
:102FEA0048C0AE014D5F5F4F60E070E081E00E9433
:102FFA00AA1C2B813C8129833A83882331F090E0F3
:10300A009160F7011082118237C009811A81011576
:10301A00110569F115C0A601B50189819A810E943D
:10302A006C25F7018083918380E090E025C0F70149
:10303A001082118290E091601FC085E090E01CC070
:10304A00F701108211825601A00EB11E950140E0CF
:10305A0050E060E070E081E00E9430128111E7CF19
:10306A00DACF83E090E005C085E090E002C085E019
:10307A0090E0F701108211822496CDBFDEBFDF9166
:10308A00CF911F910F91FF90EF90DF90CF90BF905B
:04309A00AF90089556
:10309E00AF92BF92DF92EF92FF920F931F93CF9357
:1030AE00DF9300D000D0CDB7DEB7D82E5B017A010A
:1030BE00890119821A821B821C82B901CA010E94DF
:1030CE008634882309F443C083E0D81246C0A11485
:1030DE00B10409F445C0BE016F5F7F4FF5018081D9
:1030EE0091810E94C432009709F042C0BE016D5F0B
:1030FE007F4FF501828193810E948D2F882399F154
:10310E002B813C812115310589F136C0220F331FE9
:10311E008217930731F0F8011082118285E090E05A
:10312E0031C0A701B7010E94F625F8011082118265
:10313E000B811C8169817A81970140E050E082E029
:10314E000E946310882331F090E091601BC085E0EF
:10315E0090E018C080E090E015C083E090E008C0D9
:10316E0085E090E005C085E090E002C085E090E04B
:10317E00F8011082118206C0F801808191810097BA
:10318E0051F2C4CF2496CDBFDEBFDF91CF911F91F8
:0E319E000F91FF90EF90DF90BF90AF900895DB
:1031AC00AF92BF92CF92DF92EF92FF921F93CF9389
:1031BC00DF9300D0CDB7DEB76C017B01DB016D91E5
:1031CC007C91FC0182810E940120811157C0D701A2
:1031DC00ED91FC911197A280B38012968D919C91E8
:1031EC0013970E94DA32182F811142C0F6014181E7
:1031FC0050E0B601D70112968D919C9113970E94C5
:10320C006236182F811134C0B50180E090E00E9425
:10321C00F233B6E0CB0ED11C80ECF60111928A95FC
:10322C00E9F780EC90E089839A83AE014F5F5F4FA2
:10323C00B601D70112968D919C9113970E94693615
:10324C00182F811115C089819A818430910520F441
:10325C00892B69F417EE0CC0C6010E945D2B182F48
:10326C00811106C0C6010E94C12B182F01C016EE99
:10327C00F701828193810E940334812F0F900F906C
:10328C00DF91CF911F91FF90EF90DF90CF90BF9087
:04329C00AF90089552
:1032A000AF92BF92CF92DF92EF92FF920F931F9354
:1032B000CF93DF93CDB7DEB7C95CD109CDBFDEBFF9
:1032C000F82E6801012BB1F1E0911A48F0911B48EA
:1032D000A080B18084E0E816D9F180E2E8122CC029
:1032E0002EC08F2D8068F82EFC82C853DF4F888156
:1032F0009981C85CD0408D839E83BE016F5F7F4FF4
:10330000C5010E94CA3581112BC060911A48709185
:103310001B48CE0101960E94D618182F81110EC0AD
:103320004E2D50E0BE01685F7F4FC6010E945B35A5
:10333000812F16C082EE14C082EE12C011C08E0121
:1033400008531F4F8F2D0E94F22B811109C0C9CF46
:103350008E0108531F4F8F2D0E94F22B882321F2DC
:10336000C753DF4FCDBFDEBFDF91CF911F910F91CC
:0E337000FF90EF90DF90CF90BF90AF90089548
:10337E0010C00E94AF3658F00E94A83640F029F4D3
:10338E005F3F29F00C94C33651110C94B7360C9450
:10339E0023370E941F3068F39923B1F3552391F31D
:1033AE00951B550BBB27AA2762177307840738F0A6
:1033BE009F5F5F4F220F331F441FAA1FA9F335D003
:1033CE000E2E3AF0E0E832D091505040E695001CB7
:1033DE00CAF72BD0FE2F29D0660F771F881FBB1F71
:1033EE00261737074807AB07B0E809F0BB0B802D4F
:1033FE00BF01FF2793585F4F3AF09E3F510578F07B
:10340E000C94C3360C94B7365F3FE4F3983ED4F376
:10341E00869577956795B795F7959F5FC9F7880F4E
:10342E00911D9695879597F90895E1E0660F771FA0
:10343E00881FBB1F621773078407BA0720F0621B31
:0E344E00730B840BBA0BEE1F88F7E095089500
:10345C00AF92BF92CF92DF92EF920F931F93CF93C5
:10346C00DF93CDB7DEB7A097CDBFDEBF6115710579
:10347C0009F44AC09C01285031092830310508F064
:10348C0045C06B015C016894EE24E5F88E010F5F7A
:10349C001F4F20E040E0BC0182E00E9450198111D6
:1034AC0036C08CE1FE013596D60101900D928A95BD
:1034BC00E1F720E041E0B50182E00E945019811152
:1034CC0026C089819A81F601848F958F8B819C818E
:1034DC00868F978F88E1FE013996D60190960190E0
:1034EC000D928A95E1F720E042E0B50182E00E945E
:1034FC00501981110CC0D601D89698E0F8010190B2
:10350C000D929A95E1F703C082EE01C082EEA0966F
:10351C00CDBFDEBFDF91CF911F910F91EF90DF9068
:08352C00CF90BF90AF9008950D
:10353400CF93DF93DC01F90164387105D9F164F4A8
:103544006138710521F16238710509F440C06038B1
:10355400710509F054C02EC060397105C1F184F4BD
:103564006838710509F04BC0C081D181CE01029643
:1035740080839183E881F981ED93FC9340833CC07F
:10358400603A7105B9F0603C7105A1F038C0C081A2
:10359400D181CE01029680839183E881F981ED93F4
:1035A400FC93052E000C660B770B408351836283DA
:1035B400738322C0C081D181CE010296808391831E
:1035C400E881F981ED93FC934083518315C0C08158
:1035D400D181CE01029680839183E881F981ED93B4
:1035E400FC9340835183852F880F880B82838383C8
:1035F400848385838683878381E090E002C080E0B2
:0836040090E0DF91CF910895E1
:10360C00EF92FF920F931F93CF93DF93CDB7DEB75B
:10361C00C75CD109CDBFDEBFA0911A48B0911B4841
:10362C00ED90FC90982F93708C836D837E839230F9
:10363C0048F484E1FA01DE01179601900D928A9507
:10364C00E1F715C09330B1F585FF09C080E4FA01AC
:10365C00DE01179601900D928A95E1F708C080E281
:10366C00FA01DE01179601900D928A95E1F7890116
:10367C00BE016F5F7F4FC7010E94EA3181111FC0ED
:10368C0060911A4870911B48CE0101960E94D61881
:10369C00811115C00115110579F08F81833270F0FD
:1036AC0080E2FE013896D80101900D928A95E1F7DF
:1036BC0080E005C082EE03C080E001C080E0C95309
:1036CC00DF4FCDBFDEBFDF91CF911F910F91FF90E8
:0436DC00EF900895CE
:1036E0000FC00E94A83638F00E94AF3620F0952314
:1036F00011F00C94C3360C94233711240C94B73674
:103700000E941F3070F3959FC1F3950F50E0551F35
:10371000629FF001729FBB27F00DB11D639FAA2726
:10372000F00DB11DAA1F649F6627B00DA11D661F75
:10373000829F2227B00DA11D621F739FB00DA11D96
:10374000621F839FA00D611D221F749F3327A00D50
:10375000611D231F849F600D211D822F762F6A2FEC
:1037600011249F5750409AF0F1F088234AF0EE0F51
:10377000FF1FBB1F661F771F881F91505040A9F77E
:103780009E3F510580F00C94C3360C94B7365F3FD2
:10379000E4F3983ED4F3869577956795B795F795BA
:1037A000E7959F5FC1F7FE2B880F911D9695879532
:0437B00097F90895E8
:1037B400A2E0B0E0E0EEFBE10C9405321C014B0109
:1037C400FA01DB0112962D913C91139714964D90BA
:1037D4005C9015978D919C91119789839A83169685
:1037E4006D907C90179737FD03C08D7F89839A83F2
:1037F40000811181228133814481558166817781E1
:10380400FE0131965F0188E0C82ED12C7201C401FB
:103814000E944D15298124FF06C00197F301E80F8A
:10382400F91F20E32083298123FF06C00197F301B8
:10383400E80FF91F20E2208309811A81D401189628
:103844004D915C91199741505109481B590BB30193
:10385400680F791F9201C1010E94E0299C01F101C6
:103864008081918190FF08C0D40112968D919C9122
:103874001397821793070CF4C9012296E2E10C9482
:023884007E3292
:1038860011C00E94A83638F00E94AF3620F039F4F5
:103896009F3F19F426F40C9423370EF4E095E7FBCA
:1038A6000C94C336E92F0E941F3058F3BA176207EB
:1038B60073078407950720F079F4A6F50C94B636BD
:1038C6000EF4E0950B2EBA2FA02D0B01B901900135
:1038D6000C01CA01A0011124FF27591B99F0593F79
:1038E60050F4503E68F11A16F040A22F232F342FC1
:1038F6004427585FF3CF469537952795A795F0400F
:103906005395C9F77EF41F16BA0B620B730B840B23
:10391600BAF09150A1F0FF0FBB1F661F771F881FDB
:10392600C2F70EC0BA0F621F731F841F48F4879533
:1039360077956795B795F7959E3F08F0B0CF939525
:0E394600880F08F09927EE0F97958795089542
:103954004115510509F45AC0E0911A48F0911B48E9
:103964000280F381E02D0180F281E02D918191119B
:103974001BC0813059F018F0823079F049C088E5D5
:1039840090E0FA018083918380E0089580E490E0E0
:10399400FA018083918380E0089580E290E0FA0147
:1039A4008083918380E00895813059F018F082304B
:1039B40079F030C080E890E0FA018083918380E060
:1039C400089580E490E0FA018083918380E0089573
:1039D4006830710538F484E290E0FA0180839183C1
:1039E40080E008956830710539F480EA91E0FA01C5
:1039F4008083918380E008956031710568F488E4E0
:103A040090E0FA018083918380E0089582EE089526
:0C3A140082EE089582EE089582EE08957F
:103A2000EF92FF920F931F93CF93DF93FA010081E0
:103A30001181108211820115110509F44AC07A0121
:103A4000EB01188280915648E0911C48F0911D4886
:103A50000680F781E02D41E050E090E00995882351
:103A600051F0E0911C48F0911D480684F785E02D47
:103A700009958111F6CF48818CEF840F883458F571
:103A8000842F90E00817190740F1AC01415051090B
:103A900080915648E0911C48F0911D480680F781BE
:103AA000E02DBE016F5F7F4F90E00995882351F0B4
:103AB000E0911C48F0911D480684F785E02D09959A
:103AC0008111F6CF888190E0F7018083918380E0B7
:103AD00005C08DEE03C084EE01C08DEEDF91CF9165
:0A3AE0001F910F91FF90EF900895E1
:103AEA00CF93DF938091050982FF0CC0EBEEF7E4D8
:103AFA0086E0858783E08487E0E0F9E08581846059
:103B0A00858337C080910709882381F08091050950
:103B1A0084FF0CC0EBEEF7E485E0858781E08487BB
:103B2A00E0E0F9E085818061858323C080910809FE
:103B3A00882381F08091050984FF0CC0EBEEF7E43D
:103B4A0085E0858782E08487E0E0F9E0858180610D
:103B5A0085830FC08091050983FF0BC0EBEEF7E464
:103B6A0086E0858783E08487E0E0F9E085818860E4
:103B7A008583CBEED7E4ED85F0E0EE0FFF1FEC5521
:103B8A00FA470190F081E02D09958D878C8588236D
:103B9A0029F0E0911E48F0911F480995DF91CF91D5
:023BAA0008957C
:103BAC00EF92FF920F931F93CF93DF93823008F025
:103BBC004AC08901E52EF42EEB01882341F068817F
:103BCC00798180E992E80E94F52A8823D1F08FE967
:103BDC0092E89F938F9385EA92E89F938F9384E06A
:103BEC008F931F92EF92FF920E947D33F801808396
:103BFC0091838DB79EB708968DBF9EBF80E090E0F5
:103C0C0027C0688179818AEA92E80E94F52A882384
:103C1C00E9F083EB92E89F938F9385EA92E89F9368
:103C2C008F9384E08F931F92EF92FF920E947D33CB
:103C3C00F801808391838DB79EB708968DBF9EBF88
:103C4C0080E090E005C083E090E002C085E090E069
:0E3C5C00DF91CF911F910F91FF90EF9008958F
:103C6A000F931F93CF93DF93813009F050C0E9017E
:103C7A00052F142FFB01808191810E94292B882313
:103C8A0011F090E046C0E0911848F091194806807A
:103C9A00F781E02D09958823E9F0E0911848F09121
:103CAA00194881818F9380818F9388EB94E89F9341
:103CBA008F9384E08F931F920F931F930E947D33FB
:103CCA00888399838DB79EB708968DBF9EBF80E083
:103CDA0090E01FC0E0911848F091194881818F93B4
:103CEA0080818F9387EC94E89F938F9384E08F93DE
:103CFA001F920F931F930E947D33888399838DB7F8
:103D0A009EB708968DBF9EBF80E090E002C083E018
:0C3D1A0090E0DF91CF911F910F91089570
:103D26000F931F93CF93DF93EC0180911A489091E4
:103D36001B48892B11F00E94CC34E6E0F8E48AE0B7
:103D460098E48083918388EB97E482839383BF0111
:103D5600CE010E947F2C81113CC086E098E48093BE
:103D66001A4890931B488981833091F52091064823
:103D7600309107482F5F3F4F01E010E043E150E0EC
:103D860060E070E080E00E9430128823A9F088EBA2
:103D960097E40E940C13E0911A48F0911B48208189
:103DA60031812F5F3F4F43E150E060E070E080E0FB
:103DB6000E94301281110DC0E0911A48F0911B4803
:103DC6000190F081E02D8181887F818380E001C0B0
:0C3DD60080E0DF91CF911F910F910895C4
:103DE2001F920F920FB60F9211240BB60F922F93C0
:103DF2003F934F935F936F937F938F939F93AF9371
:103E0200BF93CF93DF93EF93FF938091050984FDD6
:103E120007C08091050982FD03C08091050983FDD9
:103E22000E94751D80910509882324F0809105095F
:103E320086FF1CC08091050984FD08C08091050998
:103E420082FD04C08091050983FF03C00E94751D95
:103E52000DC0CBEED7E4ED85F0E0EE0FFF1FEC5581
:103E6200FA470190F081E02D09958D87FF91EF913E
:103E7200DF91CF91BF91AF919F918F917F916F9180
:103E82005F914F913F912F910F900BBE0F900FBEFC
:063E92000F901F9018952F
:103E9800E0915948F0E0EE0FFF1FEE5FFB4B1082F8
:103EA80011828091210882FF11C0E0915948F0E009
:103EB800EE0FFF1FEE5FFB4B808182608083E091F5
:103EC8004448F0914548309709F0099580912108B8
:103ED80081FF0CC0E6E4F8E4808181608083E09192
:103EE8004048F0914148309709F0099580912108A0
:103EF80086FF11C0E0915948F0E0EE0FFF1FEE5F1A
:103F0800FB4B808184608083E0914248F091434874
:103F1800309709F0099590912008E0915948EF5F92
:103F2800EF7780915848E81759F0E0935948F0E046
:103F3800EE57FA4B9083809157488F5F809357488C
:063F48000E940B350895F4
:103F4E000F931F93CF93DF93CDB7DEB72597CDBFDA
:103F5E00DEBF0E9409378C011D8280915648E09188
:103F6E001C48F0911D480480F581E02D41E050E0A1
:103F7E00BE016B5F7F4F90E00995882351F0E09171
:103F8E001C48F0911D480684F785E02D0995811196
:103F9E00F6CFF8016289738980E090E00E94943434
:103FAE0080915648E0911C48F0911D480680F7819B
:103FBE00E02D44E050E0BE016F5F7F4F90E0099529
:103FCE00882351F0E0911C48F0911D480684F78536
:103FDE00E02D09958111F6CF64E070E0CE010196D7
:103FEE000E9440272596CDBFDEBFDF91CF911F9156
:043FFE000F91089582
:10400200CF93DF93EB019881913009F43FC090F098
:10401200923019F0933029F033C054E1E1EFF4E823
:1040220040C099819832B1F19836C1F156E1EFE67C
:10403200F4E837C02FEF3FEF2A833B835EE0E6E6EA
:10404200F5E89081891311C008C0F9012D5F3F4F37
:10405200D90113974C9148130CC0818192818A83B4
:104062009B83019659F482EF21C09F012D5F3F4F40
:1040720090E09F5F951748F382EF18C080E016C06A
:104082008FEF9FEF8A839B8382EF10C053E1EDE2B3
:10409200F5E807C056E1EDE2F4E803C056E1EBEEC5
:1040A200F3E82FEF3FEF2A833B83CBCFDF91CF9112
:0240B20008956F
:1040B4001F920F920FB60F9211240BB60F922F93EB
:1040C4003F934F935F936F937F938F939F93AF939C
:1040D400BF93EF93FF935C9B05C0E0913A48F09146
:1040E4003B4809955F9B05C0E0913848F0913948F9
:1040F4000995599B05C0E0913648F09137480995D8
:10410400589B05C0E0913448F091354809955B9B74
:1041140005C0E0912E48F0912F4809955A9B05C09F
:10412400E0912C48F0912D4809955D9B05C0E091E4
:104134002048F091214809958FEF8BB9FF91EF91B9
:10414400BF91AF919F918F917F916F915F914F91AB
:104154003F912F910F900BBE0F900FBE0F901F90A9
:024164001895AC
:10416600E0915F48F0E0EE0FFF1FEE5FF94B108223
:1041760011828091610882FF11C0E0915F48F0E0F2
:10418600EE0FFF1FEE5FF94B808182608083E09126
:104196005048F0915148309709F00995809161088F
:1041A60081FF0CC0E2E5F8E4808181608083E091C4
:1041B6004C48F0914D48309709F009958091610877
:1041C60086FF11C0E0915F48F0E0EE0FFF1FEE5F43
:1041D600F94B808184608083E0914E48F0914F488E
:1041E600309709F0099590916008E0915F48EF5F7C
:1041F600EF7380915E48E81759F0E0935F48F0E06E
:10420600EE53F94B908380915D488F5F80935D48B4
:02421600089509
:10421800AF92BF92DF92EF92FF920F931F93CF93CB
:10422800DF9300D0CDB7DEB7D82E5B017A018901C4
:1042380019821A82B901CA010E948634882361F161
:10424800F80110821182F1E0FD1548F1DF120BC070
:10425800BE016F5F7F4FF501808191810E94C4325A
:10426800009711F502C019821A825701F0E4AF0EC7
:10427800B11CB50189819A810E941E36811112C034
:10428800A701B50180E490E00E946C25F8018083C5
:10429800918380E090E008C085E090E005C083E06D
:1042A80090E002C090E091600F900F90DF91CF9165
:1042B8001F910F91FF90EF90DF90BF90AF900895FE
:1042C800AF92BF92DF92EF92FF920F931F93CF931B
:1042D800DF9300D0CDB7DEB7D82E5B017A01890114
:1042E80019821A82B901CA010E948634882359F1B9
:1042F800F801808191818038910529F0108211821E
:1043080085E090E028C0F80110821182F2E0DF1207
:104318001DC0BE016F5F7F4FF501808191810E94B2
:10432800C4320097C1F4A701B70180E890E00E9469
:10433800F625B70189819A810E946722882349F06E
:1043480090E0916008C085E090E005C083E090E0CF
:1043580002C080E090E00F900F90DF91CF911F9105
:0E4368000F91FF90EF90DF90BF90AF900895FF
:10437600A2E0B0E0E1ECF1E20C9405323C014B0125
:10438600FA01DB0112962D913C91139714964D90EC
:104396005C9015978D919C91119789839A831696B7
:1043A6002D903C90179737FD03C08D7F89839A83A4
:1043B6000081118122813381448155816681778113
:1043C600FE0131965F018AE0C82ED12C7201C4012C
:1043D6000E944D1509811A81D40118964D915C9160
:1043E600199741505109481B590BB101680F791FA4
:1043F6009201C3010E94E0299C01F3018081918111
:1044060090FF08C0D40112968D919C911397821744
:0E44160093070CF4C9012296E2E10C947E3269
:104424000F931F93CF93DF93CDB7DEB7C75CD1094A
:10443400CDBFDEBF41155105F1F1E0911A48F0916D
:104444001B48008111818C836D837E838823ACF4A7
:1044540080E2FA01DE01179601900D928A95E1F748
:1044640021153105A9F080E2F901DE01979601904A
:104474000D928A95E1F741E00CC0FA0180819181A7
:104484008F8398878281938189879A8740E001C0CE
:1044940040E04170BE016F5F7F4FC8010E949632B9
:1044A40081110AC060911A4870911B48CE0101968F
:1044B4000E94D61801C082EEC953DF4FCDBFDEBFC4
:0A44C400DF91CF911F910F91089531
:1044CE00AF92BF92CF92DF92EF92FF920F931F9314
:1044DE00CF93DF93CDB7DEB7C056D109CDBFDEBFC8
:1044EE006115710589F15C019E012F5F3F4F80E6DA
:1044FE00F90111928A95E9F780E2FB01DE0115962A
:10450E0001900D928A95E1F7FB01B09680E2DE01F3
:10451E00999601900D928A95E1F76901F12C6894B4
:10452E00EE24E5F8860120E04F2DB50182E00E94D1
:10453E003A2681110AC0F394F0E2CF0ED11C83E02B
:10454E00F812EDCF80E001C082EEC05ADF4FCDBF32
:10455E00DEBFDF91CF911F910F91FF90EF90DF9013
:08456E00CF90BF90AF900895BB
:10457600CF93DF93C0E2D8E08D818F778D838CE473
:104586009FE180933C4890933D488D818F7D8D833C
:1045960087E991E380933E4890933F4881E493E016
:1045A6008887998780ED8D8380EC8E8383E08F8367
:1045B6001B861C861E861D868FE397E380934448E0
:1045C6009093454880E497E380934248909343480C
:1045D60081E497E380934048909341488FE295E3C6
:1045E6000E94D336109246481092474810925C4873
:1045F60010925B4880E480935A4810925948109272
:104606005848109257488D8180688D830E940B35DB
:06461600DF91CF91089531
:10461C00AF92BF92DF92EF92FF920F931F93CF93C3
:10462C00DF9300D0CDB7DEB7D82E5B017A018901BC
:10463C0019821A82B901CA010E948634882339F181
:10464C00F80110821182F1E0DF1224C0BE016F5F0D
:10465C007F4FF501808191810E94C4320097F9F45B
:10466C005701F0E4AF0EB11CB50189819A810E940B
:10467C002E1A811112C0A701B50180E490E00E94AE
:10468C006C25F8018083918380E090E008C085E080
:10469C0090E005C083E090E002C090E091600F9044
:1046AC000F90DF91CF911F910F91FF90EF90DF90C2
:0646BC00BF90AF900895CD
:1046C20088249924F401E401B0E49F93AA279A155F
:1046D2008B049C04ED05FE05CF05D007A10798F4D5
:1046E200AD2FDC2FCF2FFE2FE92D982C892E982F5E
:1046F200872F762F652F542F432F322F2227B85022
:1047020031F7BF9127C01B2EBF91BB27220F331F4A
:10471200441F551F661F771F881F991F881C991CED
:10472200EE1FFF1FCC1FDD1FAA1FBB1F8A149B0495
:10473200EC05FD05CE05DF05A007B10748F08A1894
:104742009B08EC09FD09CE09DF09A00BB10B216022
:104752001A94E1F62EF49401AF01BE01CD01000CD2
:024762000895B8
:1047640040E068ED80E690E00E94CE3640E068EDDF
:1047740081E690E00E94CE3640E068ED85E690E068
:104784000E94CE3640E068ED88E790E00E94CE3685
:1047940044E268ED88E690E00E94CE3640E068EDA1
:1047A40089E690E00E94CE3640E068ED80E790E034
:1047B4000E94CE3640E068ED8CE790E00E94CE3651
:1047C40040E068ED82E690E00E94CE3640E068ED7D
:1047D40083E690E00E94CE3640E068ED84E690E007
:1047E4000E94CE3640E068ED80E890E00E94CE362C
:0C47F400E0E6F0E0858181FFFDCF089534
:10480000AF92BF92CF92DF92EF920F931F93CF930D
:10481000DF9300D000D0CDB7DEB78031910550F5E1
:104820006115710549F15B016C016894EE24E2F8B1
:104830008E010F5F1F4F26E042E060E070E080E0F5
:104840000E945019811119C02A8130E0322F22278D
:104850009981292B41E050E002C0440F551FCA94B2
:10486000E2F72423352391E0232B09F090E0F501B2
:10487000908303C082EE01C082EE2496CDBFDEBFDE
:10488000DF91CF911F910F91EF90DF90CF90BF906C
:04489000AF90089548
:104894000F931F93CF93DF93CDB7DEB7C75CD109D6
:1048A400CDBFDEBF8901E0911A48F0911B482081F9
:1048B40031818C836D837E834115510539F0FA0172
:1048C400808191818F83988782818987BE016F5F00
:1048D4007F4FC9010E94473481111AC060911A4860
:1048E40070911B48CE0101960E94D618811110C008
:1048F4000115110569F09F81933449F490E4FE0198
:104904003896D80101900D929A95E1F701C086EE90
:10491400C953DF4FCDBFDEBFDF91CF911F910F9100
:024924000895F4
:10492600E0E6F8E085818F77858383EB90E28093DC
:1049360048489093494885818F7D858383EB91E331
:1049460080934A4890934B4881E493E0808791870F
:1049560080ED858380EC868383E0878313861486C7
:104966001686158682E497E38093504890935148C3
:1049760083E497E380934E4890934F4884E497E30B
:1049860080934C4890934D48109252481092534849
:10499600109262481092614880E4809360481092B9
:1049A6005F4810925E4810925D48858180688583D5
:0249B600089562
:1049B8000F931F93CF93DF93DB012D913C911197B8
:1049C80030FF25C016964D915C91179714962D913E
:1049D8003C9115974217530778F41296ED91FC9184
:1049E8001397808312962D913C9113972F5F3F4F19
:1049F80012962D933C93139716962D913C911797E9
:104A08002F5F3F4F16962D933C93179715C01C9612
:104A1800ED91FC911D97309719F48FEF9FEF0CC023
:104A28008B01EC010995892BC1F7F80186819781E3
:104A3800019686839783CE01DF91CF911F910F91C5
:024A48000895CF
:104A4A00EF92FF920F931F93CF93DF93F82E8A0171
:104A5A00E901B901CA010E948634882361F182E022
:104A6A00F81629F01882198283E090E029C0A8017B
:104A7A00B801888199810E94F6258032F9F478017B
:104A8A0080E4E80EF11CA701B80180E090E00E94E2
:104A9A00BF2A81110BC0A801B70180E490E00E94EF
:104AAA006C258883998380E090E00AC01882198275
:104ABA0090E0916005C085E090E002C085E090E05A
:0E4ACA00DF91CF911F910F91FF90EF90089513
:104AD8008F929F92AF92BF92CF92DF92EF92FF9206
:104AE8000F931F93CF93DF936115710529F10097F9
:104AF80031F15A016C01EA014B017B01E80EF91E04
:104B08008401F40181914F0182958F700E94933640
:104B18008883F80180818F700E949336898322965A
:104B28008E149F0469F7CC0CDD1CF501EC0DFD1DFE
:104B380010828C2D9D2D05C080E090E002C080E0A1
:104B480090E0DF91CF911F910F91FF90EF90DF9050
:0C4B5800CF90BF90AF909F908F90089579
:104B64001F920F920FB60F9211240BB60F922F9330
:104B74003F934F935F936F937F938F939F93AF93E1
:104B8400BF93EF93FF93189B05C0E0912A48F091DF
:104B94002B480995199B05C0E0912848F0912948B4
:104BA40009951A9B05C0E0912648F091274809957C
:104BB4001B9B05C0E0912448F091254809958FEF8F
:104BC40083B9FF91EF91BF91AF919F918F917F91A5
:104BD4006F915F914F913F912F910F900BBE0F906A
:084BE4000FBE0F901F90189501
:104BEC00AF92BF92CF92DF92EF92FF921F93CF932F
:104BFC00DF936115710531F18230910530F15C0163
:104C0C00B694A79481709927A80EB91EA114B1046B
:104C1C00F9F06A01EB017A01CA0CDB1C88810E9455
:104C2C000433182F1295107F89810E940433812B35
:104C3C00F70181937F012296EC15FD0579F78A2DFA
:104C4C009B2D08C080E090E005C080E090E002C0A1
:104C5C0080E090E0DF91CF911F91FF90EF90DF907B
:084C6C00CF90BF90AF900895B6
:104C7400CF92DF92EF92FF920F931F93CF93DF9324
:104C840000D0CDB7DEB7F82E6801012B99F084E08F
:104C9400E816E9F080E2E8120FC010C08F2D80689A
:104CA400F82E69817A8120E030E0A6018F2D0E94E0
:104CB400122215C082EE13C082EE11C08E010F5F66
:104CC4001F4F8F2D0E94F22B811109C0E7CF8E0157
:104CD4000F5F1F4F8F2D0E94F22B882311F30F902B
:104CE4000F90DF91CF911F910F91FF90EF90DF9084
:044CF400CF900895C0
:104CF8000F931F93CF93DF93CDB7DEB7C75CD1096E
:104D0800CDBFDEBF4115510549F18A01282FE09139
:104D18001A48F0911B48808191812C836D837E8392
:104D2800BE016F5F7F4F0E94D43581111AC0609118
:104D38001A4870911B48CE0101960E94D61881111D
:104D480010C08F81833461F480E4FE013896D80165
:104D580001900D928A95E1F780E003C082EE01C0D0
:104D680086EEC953DF4FCDBFDEBFDF91CF911F91D4
:044D78000F910895FA
:104D7C00DF92EF92FF920F931F93CF93DF937A0101
:104D8C008901DA011C92D12CCDE0DAE01AC08D2D0C
:104D9C0090E0FC01EE0FFF1FEE0FFF1F8E0F9F1F09
:104DAC00FC01EF56FC4760817181C7010E94DF3323
:104DBC00F70101900020E9F73197C083D18312826B
:104DCC00D3940E942837D81610F3F70101900020D5
:104DDC00E9F73197EE19FF09D801ED93FC9380E0C8
:104DEC0090E0DF91CF911F910F91FF90EF90DF90AA
:024DFC00089518
:104DFE00AF92BF92CF92DF92EF92FF921F93CF931B
:104E0E00DF935C016B017A01FC01D081DD23A9F0F7
:104E1E0080E090E010E0F601E80FF91F80810E941B
:104E2E00CF318D131BC01F5F812F90E0F501E80F6E
:104E3E00F91FD081D111EFCF02C080E090E0E601E2
:104E4E00C80FD91F88818D3321F00E9466358823C3
:104E5E0031F0F701C083D18381E001C080E0DF91A2
:104E6E00CF911F91FF90EF90DF90CF90BF90AF90BA
:024E7E00089595
:104E80000F931F93CF93DF93CDB7DEB72897CDBF96
:104E9000DEBFAC0194E0998321E12A8323E32B83D5
:104EA00023E42C839D8397E09E8394EC9F8390E47E
:104EB000988764307105B9F48A0144E050E0BE017E
:104EC0006F5F7F4FC8010E94CC33892B71F044E0A3
:104ED00050E0BE016B5F7F4FC8010E94CC33892B2D
:104EE00031F080ED05C080ED03C080E001C087EDAA
:104EF0002896CDBFDEBFDF91CF911F910F9108950E
:104F0000CF93DF93813061F4FB016081718186EB87
:104F100095E80E94F52A811107C085E090E02DC038
:104F2000823030F5D0E001C0D1E080E090E00E9416
:104F3000372D0E948536882371F00E94A330C82F38
:104F4000D11102C08430B9F00E947E368823E1F38B
:104F50008C2F0E9462300E947736882351F30E9482
:104F60008C368823E1F30E9483300E940331E1CF25
:104F700083E090E002C080E090E0DF91CF9108955F
:104F8000CF93DF9300D00F92CDB7DEB719821A828C
:104F9000813029F56115710529F1FB01BE016F5FB3
:104FA0007F4F808191810E94C432009719F5BE0124
:104FB0006D5F7F4F89819A810E940024882319F0B8
:104FC00090E0916017C08B8181110FC089819A8117
:104FD0000E941636882361F090E091600BC083E058
:104FE00090E008C085E090E005C080E090E002C05D
:104FF00080E090E02396CDBFDEBFDF91CF91089592
:105000000F931F93CF93DF93CDB7DEB7C75CD10962
:10501000CDBFDEBF8C01E0911A48F0911B48808122
:1050200091811C821D821E82BE016F5F7F4F0E9494
:10503000C03581111AC060911A4870911B48CE0189
:1050400001960E94D618811110C09F81933261F49D
:105050000115110551F090E2FE013896D80101903A
:105060000D929A95E1F701C086EEC953DF4FCDBF8F
:0C507000DEBFDF91CF911F910F910895DA
:10507C00CF93DF93823089F5EB01888199810E946F
:10508C00292B882311F090E02DC06A817B8181EB64
:10509C0094E80E94F52A882361F0E0911848F09179
:1050AC0019480480F581E02D81E0099580E090E0BD
:1050BC0019C06A817B8184EB94E80E94F52A8823CD
:1050CC0079F0E0911848F09119480480F581E02DB1
:1050DC0080E0099580E090E005C083E090E002C09C
:0A50EC0085E090E0DF91CF91089578
:1050F600CF92DF92EF920F931F93CF93DF93CDB7AB
:10510600DEB7A097CDBFDEBF009719F16C0168949A
:10511600EE24E5F88E010F5F1F4F20E040E060E0CF
:1051260070E080E00E945019811114C029813A81F3
:10513600F601208331832B813C8122833383D60180
:10514600149695E0FE01399601900D929A95E1F735
:1051560001C082EEA096CDBFDEBFDF91CF911F9139
:0A5166000F91EF90DF90CF900895B5
:105170001F920F920FB60F9211240BB60F922F931E
:105180003F934F935F936F937F938F939F93AF93CF
:10519000BF93EF93FF93399B05C0E0913248F091A4
:1051A00033480995389B05C0E0913048F09131486B
:1051B00009953A9B05C0E0912248F0912348099552
:1051C0008FEF87B9FF91EF91BF91AF919F918F9131
:1051D0007F916F915F914F913F912F910F900BBEF7
:0A51E0000F900FBE0F901F9018955E
:1051EA00A2E8B0E0EBEFF8E20C940B325C014A0162
:1051FA00CF57DF4F68837983C158D040C12CD12C57
:10520A00CF57DF4FE881F981C158D0408081882388
:10521A00E9F07401860120E830E0AE014F5F5F4F8C
:10522A00BE016F577F4FC5010E94CE0B8C0D9D1D8D
:10523A008C159D054CF48FE490E080930040909388
:10524A0001408FEF9FEF03C06C01DACFC601CE5742
:08525A00DF4FECE00C948432FC
:105262008091F4479091F547019731F4E0E0F9E03D
:1052720084818460848305C0E0E0F9E084818B7FCF
:105282008483EBEEF7E4818592850197818792878B
:10529200892B79F0A781B085CD010196878390870C
:1052A200E0E0F9E080858C9384818260848384E0ED
:1052B2000895EBEEF7E4A781B085CD0101968783CF
:1052C2009087E0E0F9E080858C9384818460848318
:0652D2000E944130089526
:1052D800A0E1B0E0E2E7F9E20C941132FB01BA0177
:1052E800AE014F5F5F4F7A0140E1D7011D924A95A9
:1052F800E9F742E051E049835A838B839C83F7FFA7
:1053080009C08FE490E080930040909301408FEFB4
:105318009FEF14C0A9018C013197ED83FE83C7016B
:105328000E944E324F8158852D813E814217530786
:1053380008F49A01F801E20FF31F10826096E6E084
:045348000C948A3205
:10534C00A0E1B0E0ECEAF9E20C941132FB01BA01F5
:10535C00AE014F5F5F4F7A0140E1D7011D924A9534
:10536C00E9F742E051E049835A838B839C83F7FF32
:10537C0009C08FE490E080930040909301408FEF40
:10538C009FEF14C0A9018C013197ED83FE83C701F7
:10539C000E9466324F8158852D813E8142175307FA
:1053AC0008F49A01F801E20FF31F10826096E6E010
:0453BC000C948A3291
:1053C000A0E0B0E0E6EEF9E20C940B326C015B0178
:1053D0007A01E901480181E08822992400FD03C097
:1053E0004217530750F0A701B501C6010E945E3174
:1053F000EC16FD0610F0C70117C08E010E191F092B
:105400000115110541F0B60180E290E00E94DC2414
:1054100001501109F5CF8114910429F4A701B501B8
:10542000C6010E945E31CE01CDB7DEB7ECE00C9430
:025430008432C4
:10543200EF92FF920F931F93CF93DF93F82EEA011F
:105442008901B901CA010E9486348823E9F0F1106A
:105452001EC07E0189E0E80EF11CC7010E947B2874
:1054620081110CC0AE01B70189E090E00E946C2569
:10547200F8018083918380E090E00BC0F8011082F4
:10548200118290E0916005C085E090E002C083E067
:1054920090E0DF91CF911F910F91FF90EF900895CF
:1054A200EF92FF920F931F93CF93DF937A010097AE
:1054B20011F1EB018B01080F191F20E030E016C03B
:1054C200A32FAA1FAA27AA1F220F331F71E09B2F07
:1054D200952309F470E07A1719F085E028273058EF
:1054E200550F319769F7C017D10739F0B991E8E044
:1054F200F0E051E0E5CF20E030E0F7012083318396
:0E550200DF91CF911F910F91FF90EF900895D0
:105510008F929F92AF92BF92CF92DF92EF92FF92C3
:105520000F931F93CF93DF935C016B017A014901C5
:105530000E94F334811115C0CBEED7E481E088835B
:10554000A982BA828B87CB82DC82ED82FE828F8237
:10555000988609871A871C860E94FB358D8781E013
:1055600001C080E0DF91CF911F910F91FF90EF90EC
:0E557000DF90CF90BF90AF909F908F900895E6
:10557E00DF92EF92FF920F931F93CF93DF938C01E5
:10558E00EB017A0180E090E00E94002881111EC09C
:10559E00E0911A48F0911B480190F081E02D808136
:1055AE00833029F46894DD24D5F880E402C0D12C30
:1055BE0080E040E250E0BE010E941933811106C026
:1055CE00A701B8018D2D80680E947C26DF91CF91B6
:0C55DE001F910F91FF90EF90DF90089557
:1055EA00EF92FF920F931F93CF93DF937C018B016E
:1055FA00FC01C081CC23A9F080E090E0D0E0F80162
:10560A00E80FF91F80810E94CF318C1315C0DF5F2C
:10561A008D2F90E0F701E80FF91FC081C111EFCF7C
:10562A0002C080E090E0F801E80FF91F81E0908164
:10563A00992319F080E001C080E0DF91CF911F919A
:08564A000F91FF90EF9008950D
:10565200CF92DF92EF92FF920F931F93CF93DF933C
:105662007C0102E417E4C0E0D0E0B701F8018081D8
:1056720091810E94F52A882379F0CE01880F991F23
:10568200880F991F880F991F8E5B984B809318483B
:105692009093194880E007C02196085F1F4FC530DC
:1056A200D10519F785E0DF91CF911F910F91FF90FE
:0856B200EF90DF90CF90089506
:1056BA00EF92FF920F931F93CF93DF9300D0CDB752
:1056CA00DEB77C01FC0100818EEF800F082F10E00D
:1056DA00AE014F5F5F4FB701C8010E94512AF7011F
:1056EA00E00FF11F99818081981309C0F701E00F3B
:1056FA00F11F9A818181981304C080E003C085EE6E
:10570A0001C085EE0F900F90DF91CF911F910F91FD
:06571A00FF90EF900895DE
:105720000F931F93CF93DF93EC018B0189819A81B3
:105730000E94452EF801808191818B839C83828118
:1057400093818D839E83848195818F8398878681C1
:10575000978189879A87808591858B879C878485A7
:1057600095858F87988B828593858D879E87808985
:105770009189898B9A8B80E0DF91CF911F910F9156
:0257800008958A
:10578200FC012081243049F581818730D1F040F439
:10579200813089F020F1833081F0853081F01BC0A7
:1057A2008F3099F018F4883071F015C0813179F09A
:1057B2008F3F79F010C081ED089582ED089586ED56
:1057C200089587ED08958AEF089584EF089583EF91
:1057D200089584ED089581EE089580E0089580E0B3
:0257E200089528
:1057E4000F931F930115110541F0837041F082302E
:1057F400A1F0813021F082EE1FC082EE1DC050E086
:10580400440F551F440F551F440F551F2770422B3B
:10581400F8014083518380E00FC0277030E0342BBF
:10582400660F771F660F771F660F771F262B372BA0
:0E583400F8012083318380E01F910F910895C9
:105842000F931F93CF93DF93CDB7DEB76297CDBF90
:10585200DEBF8C01BE016F5F7F4F0E94902BD8018B
:1058620011966D917C9112971396ED91FC9114977C
:10587200CE010196099581110AC089899A89F80198
:10588200818B928B0580F681E02DC8010995629685
:0E589200CDBFDEBFDF91CF911F910F91089522
:1058A0000E94273088F09F5798F0B92F9927B75159
:1058B000B0F0E1F0660F771F881F991F1AF0BA95B4
:1058C000C9F714C0B13091F00E94B636B1E0089526
:1058D0000C94B636672F782F8827B85F39F0B93F18
:1058E000CCF3869577956795B395D9F73EF4909567
:0E58F0008095709561957F4F8F4F9F4F089563
:1058FE000F931F93CF93DF930097E1F0611571051E
:10590E00D9F0FB012081318121153105B9F0428199
:10591E005381452BA9F0EB018C01B901FC0181816A
:10592E000E94AC3581110DC06A817B81C8010E9435
:10593E00B93307C082EE05C082EE03C082EE01C00D
:0C594E0082EEDF91CF911F910F91089520
:10595A00CF92DF92EF92FF920F931F93CF93DF9331
:10596A006C017B018A010E94F334811115C0CBEED0
:10597A00D7E481E08883C982DA821B86EB82FC82C3
:10598A000D831E831F82188619861A861C860E941A
:10599A00FB358D8781E001C080E0DF91CF911F91B7
:0C59AA000F91FF90EF90DF90CF900895D8
:1059B600CF92DF92EF92FF920F931F93CF93DF93D5
:1059C6006C017B018A010E94F334811115C0CBEE74
:1059D600D7E481E08883C982DA821B86EF82F88663
:1059E60009871A871B821C821D821E821C860E94C2
:1059F600E8358D8781E001C080E0DF91CF911F916E
