:1000000000C1000034C1000032C1000030C1000056
:100010002EC100002CC100000C94FB1C28C1000064
:1000200026C100000C94EB1D22C1000020C100007D
:100030001EC100001CC100001AC1000018C1000050
:1000400016C1000014C100000C94611B10C1000017
:100050000EC100000CC100000AC1000008C1000070
:100060000C94CD1D04C1000002C1000000C10000BD
:10007000FEC00000FCC000000C94DB1C0C940F1BA5
:100080000C94C91B0C948B1BF2C000000C94B81D7F
:10009000EEC00000ECC00000EAC00000E8C00000B4
:1000A000E6C00000E4C000000C94371BE0C0000074
:1000B000DEC00000DCC00000DAC00000D8C00000D4
:1000C000D6C00000D4C00000D2C00000D0C00000E4
:1000D000CEC000000C94A11A0C949C1A0C94A61A81
:1000E000C6C00000C4C00000C2C00000C0C0000004
:1000F000BEC0000008000000BE922449123EABAA18
:10010000AA2ABECDCCCC4C3E00000080BEABAAAA31
:10011000AA3E00000000BF000000803F0000000079
:1001200000084178D3BB4387D1133D190E3CC3BDB2
:100130004282AD2B3E68EC8276BED98FE1A93E4C5F
:1001400080EFFFBE01C4FF7F3F000000000063643A
:10015000696E6F70737578585B00546F6F44656596
:1001600070004E6F4D656D6F727900496E76616CEF
:100170006964496E70757400496E636F6D706C656B
:100180007465496E70757400456D707479496E7050
:100190007574004F6B00000020410000C842004011
:1001A0001C4620BCBE4CCA1B0E5AAEC59D74CDCC9D
:1001B000CC3D0AD7233C17B7D13877CC2B32959555
:1001C000E6241FB14F0A9301880178016B01620197
:1001D0005A0100080A400CFFC000C0006A4487446E
:1001E0006D4484446D4481446D447E447B446D443D
:1001F0006D446D446D446D446D4478446D44754464
:10020000624811241FBECFEFCDBFDFE7DEBF809174
:10021000400080934000811105C098ED21E094BF1B
:10022000209341008CBB10E5A0E0B0E4EEE2F9EBD6
:1002300000E00BBF02C007900D92A63AB107D9F7B4
:1002400024E6A6EAB0E501C01D92AD3CB207E1F795
:1002500011E0C1E0D1E004C02197FE010E9482526A
:10026000C030D107C9F70E9405490C94955CC8CEEF
:10027000FB01A485B585ED91FC9111970190F0816A
:10028000E02D682FCD01099590E080E00895F0CF32
:1002900010929C59E0911859F0911959309709F032
:1002A00009940895F8941092AA5F1092AB5F809120
:1002B000A2599091A3598093A85F9093A95F7894D5
:1002C0000895FC0181899289891B990B0895809179
:1002D0001459909115598160809314599093155930
:1002E0000895809114599091155982608093145902
:1002F000909315590895AF92BF92CF92DF92EF92EB
:10030000FF920F931F93CF93DF936C017B018B01BF
:10031000040F151FEB015E01AE18BF08C017D1070F
:1003200059F06991D601ED91FC910190F081E02D99
:10033000C6010995892B79F7C501DF91CF911F91EE
:100340000F91FF90EF90DF90CF90BF90AF90089506
:10035000FC0155894689252F30E0842F90E0821BCF
:10036000930B541710F0CF96089501970895FC0150
:1003700093898489981761F0A489AE0FBF2FB11DAE
:1003800057968C9194899F5F9F73948B90E008950A
:100390008FEF9FEF0895FC0193898489981731F0BE
:1003A0008489E80FF11D878990E008958FEF9FEF12
:1003B0000895FC0193892489892F90E0805C9F4FE8
:1003C000821B91098F7399270895CF93DF93EC01D6
:1003D000E881F9810680F781E02D0995EC85FD859E
:1003E000868116828581158280E484838C898B8B3B
:1003F0001A8ADF91CF9108958F929F92AF92BF9208
:10040000FF920F931F93CF93DF938C014A015B01FF
:10041000D22FC32FDC0152968C91529780FF07C0D8
:10042000ED91FC910288F389E02DC8010995D11165
:1004300001C0D3E0FD2EE894F2F8DC2FD095D07CFB
:10044000B1E68B16B3EE9B06B6E1AB06B10428F01D
:10045000D260B694A7949794879460E078ED88EB87
:1004600095E0A50194010E940058C901203431058E
:1004700010F480E490E03C2F3B72D7FD30684D2FA4
:10048000487C30FD41605FB7F894D8011C96ED912F
:10049000FC911682F7828087918735FF8FC04F7756
:1004A00081E084878FEF85873F7D3583D683E801A0
:1004B0002989A8898E859F85FC01D3E02D9FE00DB9
:1004C000F11D1124659174912A1708F059C0272F46
:1004D00046FF76C0793288F430E0F901EB5DFE4BDF
:1004E000B081BF3F51F024503F4BE901E881D0E299
:1004F000ED9FF0011124FC5FB18347FF2AC021E08A
:10050000270F293230F530E0F901EB5DFE4BB08169
:10051000BF3FF9F0F901E450FF4BE081D0E2ED9FDD
:10052000F0011124FC5F2D523F4BE9011881D0E00E
:10053000C0E0183030F49F01205F3F4FE901C10F48
:10054000D11D3FB7F894B283288128602883B583F2
:100550003FBF40FF15C023E0270F293288F430E069
:10056000F901EB5DFE4B40814F3F51F024503F4B72
:10057000E901E881D0E2ED9FF0011124FC5F4183A5
:10058000FC0123E0A29FE00DF11D1124319625917D
:100590003491F901FF27EE51FA4F9081832F809516
:1005A0008923682B60835FBFDF91CF911F910F91EB
:1005B000FF90BF90AF909F908F900895148674CF56
:1005C000342F307509F499CF793208F096CF30E0A6
:1005D000F901EB5DFE4BB081BF3F09F48ECFF9010D
:1005E000E450FF4BE081C0E2EC9FF0011124FC5F7E
:1005F0002D523F4BE9011881D0E0C0E0183030F4B3
:100600009F01205F3F4FE901C10FD11D3FB7F89413
:10061000B283288128602883B5833FBF6ECFFC0159
:100620000FB607FE04C0809111018823A9F0A485AC
:10063000B58514968C91149785FF0EC0958986898F
:10064000981739F015968C9115978F7D15968C9388
:100650000895E8940C94B11A08950F931F93CF93C3
:10066000DF93EC018A89982F91609A8B2D899E895E
:1006700029130AC0EC85FD85948195FF05C081FD95
:100680000DC080E4848312C0062F1D891F5F1F7375
:100690008E89811315C0CE01C2DFFACF85818F7795
:1006A000806490E49483EC85FD858583EC85FD85ED
:1006B000628381E090E0DF91CF911F910F910895C7
:1006C000ED89EC0FFD2FF11DE95AFF4F00831D8BC3
:1006D000EC85FD858A8981FF09C085818F778066D9
:1006E00090E49483EC85FD858583E3CF85818062EA
:1006F000FBCFCF93DF93EC018A8980FF0BC0EC85A1
:10070000FD85858185FD03C0848186FD03C0CE0102
:1007100086DFF5CFDF91CF91089581E0089590E0D5
:10072000FC01EB5DFE4B20812F3F91F1FC01E45079
:10073000FF4BE08130E2E39FF0011124FC5F8D521A
:100740009F4BDC018C91A62FA37021F0AE0FBF2F21
:10075000B11D2C939B013695279536952795232B14
:10076000B9F094E0769567959A95E1F72FB7F894EC
:1007700090E04096E80FF91F808163FF04C0887FF6
:10078000962F9770892B607309F0886080832FBF44
:1007900008959FB7F894E0912A0BF0912B0B80916C
:1007A000260B20917255309173554091745550919C
:1007B00075559FBF80FF08C0EC3E8CE2F80720F41F
:1007C0002F5F3F4F4F4F5F4F0F01169407941694C2
:1007D00007941694079416940794F00116940794BE
:1007E000E00DF11D16940794102C16940118169420
:1007F000010C169401181694010C16940118169405
:100800001694010C1124E019F109A8EEB3E00E943E
:10081000CB566E0F7F1F811D911D08958F929F9261
:10082000AF92BF92CF92DF92EF92FF924B015C01A9
:10083000B0DF6B017C01ADDF6C197D098E099F096A
:10084000683E734081059105B0F321E0821A91085A
:10085000A108B10888EEC80E83E0D81EE11CF11C87
:1008600081149104A104B10431F7FF90EF90DF905F
:10087000CF90BF90AF909F908F9008952FB7F8942E
:100880006091725570917355809174559091755522
:100890002FBF08950F931F93F1DF6093206470932F
:1008A0002164809322649093236488E194E65FDD61
:1008B00097FF1CC0E3DF0091206410912164209118
:1008C000226430912364601B710B820B930B0091A7
:1008D0001C6410911D6420911E6430911F64601788
:1008E00071078207930708F38FEF9FEF1F910F9116
:1008F0000895DC011C96ED91FC9193818185138212
:100900001186938391E09583818708959C012656F3
:100910003F4FDC015296EC91529751968C91E8171B
:1009200030F4E20FF32FF11D808190E008958FEFF6
:100930009FEF0895FC01DC01A656BF4F9289818983
:10094000981740F4A90FB11D2C919F5F928B822FB5
:1009500090E008958FEF9FEF0895CF92DF92EF928E
:10096000FF920F931F93CF936C014338510510F002
:1009700042E850E0C42F7B0110E000E00C1780F447
:10098000D7016D917D01D601ED91FC910190F0812F
:10099000E02DC601099598012F5F3F4F892B49F43F
:1009A000C801CF911F910F91FF90EF90DF90CF90F2
:1009B00008958901E3CFFC01A089A23858F4A80F5B
:1009C000B92FB11D58966C9380898F5F808B81E021
:1009D00090E0089590E080E0089560E0ECCFCF9340
:1009E000DF93DC01660F1F966C931F9752961C9243
:1009F00052971C96ED91FC911D978581837009F4A7
:100A000040C06160678330E020E090E080E072E009
:100A10005581652F63702F5F3F4F213CCDE53C072B
:100A200028F4C52FCC7059F09CE0958351968C9397
:100A3000DF91CF91089530E020E097E0E9CF99234E
:100A4000C9F0623099F7948357FF17C08238A8F72E
:100A50002085ED01C80FD11DC656DF4F28838F5F5B
:100A6000242F433808F022E8821728F7748330E0F7
:100A700020E0CECF623061F6E7CF56FFC9CF93E0DA
:100A8000C7CF80E0D5CF90E080E00895CF92DF928D
:100A9000EF92FF92CF93DF93EC016A017B0160E05C
:100AA0007BE187EB90E0A70196010E94005881EA64
:100AB000C81686E8D80681E0E806F10440F52B5018
:100AC000310912161306F4F52F3F310519F014F011
:100AD0002FEF30E0E881F9818681821789F09381D8
:100AE0001382268380ECC81687E2D80689E0E806E0
:100AF000F10458F1808182608083938381E0858353
:100B0000DF91CF91FF90EF90DF90CF90089581E833
:100B1000C8168AE1D80686E0E806F10418F42750E2
:100B20003109D2CF81E0C81685E3D8068CE0E8060B
:100B3000F10418F426503109C7CF27503109121695
:100B4000130644F221E030E0C5CF80818D7FD4CF01
:100B5000DC011A96ED91FC911B97309731F01596B8
:100B60008C91882311F090E009940895CF93DF933E
:100B7000FC01A081B1811B968C911B97982F9C70D2
:100B800029F01D968C911582148229C086FF2AC0F7
:100B9000EF0180FF1DC081FF11C01D968C918383E2
:100BA000CF01D6DF1C821F82E885F985309709F0D6
:100BB0000995E881F98183E0828711C01D968C91A7
:100BC0001D9783831582168283E01A968C9307C043
:100BD00080E41B968C93CF01BBDF1D821E82DF91C8
:100BE000CF91089587FFFBCF81FF22C084FF09C00A
:100BF000828187FF06C08F77828382E01A968C936A
:100C0000C3CF828180688283C7818481C81770F4D2
:100C1000CE0FDF2FD11D8C851D968C931D9783E001
:100C20001A968C9387818F5F8783D9CF82E0CDCF4F
:100C30001D969C911D978581823868F4DF01A80F6D
:100C4000B11DA257BF4F9C9385818F5F8583019013
:100C5000F081E02DB0CF86E01A968C931582168233
:100C6000BECFCF93DF93DC01ED91FC91119785818D
:100C7000837009F441C030E020E090E04581842F8A
:100C800083702F5F3F4F213C5DE5350750F0823088
:100C900079F1813079F184E093E09483DF91CF9111
:100CA0000895542F5C7021F08CE0858382E1F4CFAD
:100CB000813041F413968C9113978E7F878330E0B7
:100CC00020E0DCCF8230D1F646FFD8CF44FF04C00D
:100CD000992311F383E0E0CF14968C911497981721
:100CE00068F4ED01C90FD11D8C8580879F5FE7CF28
:100CF00085E0D2CF81E1D0CF80E1D0CF80E0662304
:100D000069F2CACFFC0182818076A9F5A081B18108
:100D1000A11589E0B807F1F48091E5058370823070
:100D2000A9F48CE08093460482818062828381E012
:100D300013968C93139715968C93828185FF1BC015
:100D400040EA56E861E070E0CF01A0CE8CE08093ED
:100D50000604EACFA03289E0B80731F78091E505B3
:100D60008C70883021F48CE080932604DDCF8CE0F9
:100D70008093A604D9CF089580914C53813071F0AF
:100D80008091A45981110AC08091AA5F9091AB5FB4
:100D90008E3F914010F44F9808954F9A0895CF9345
:100DA000DF938091AA5F9091AB5F892BE9F0F89473
:100DB000C091A85FD091A95F2196D170C093A85F20
:100DC000D093A95F8091AA5F9091AB5F01978093C8
:100DD000AA5F9093AB5F7894CFDFC855D24A8881E1
:100DE00090E0DF91CF9108958FEF9FEFFACF8F9230
:100DF0009F92AF92BF92CF92DF92EF92FF92CF93EA
:100E0000DF93D82F6A017B01CADFC82F37DD4B0182
:100E10005C01CD17C1F0C3DFC82F30DD6819790937
:100E20008A099B09C616D706E806F90690F782E0FC
:100E3000DF91CF91FF90EF90DF90CF90BF90AF9078
:100E40009F908F90089581E0F3CFDC01ED91FC91AC
:100E50000088F189E02D23E030E0099480339CF094
:100E60008A3324F08F3524F08B3724F481E0089501
:100E700081344CF08B35D4F393ED980F81E09230B0
:100E8000B0F380E008958B32B9F7F0CFFC01848590
:100E900081110AC0A185B285CD0101968187928713
:100EA0008C91838781E08487838508951F93CF93F6
:100EB000DF93EC01162FEADF811306C01C8681E068
:100EC000DF91CF911F91089580E0FACFCF93DF9308
:100ED000EC01CE01DBDF8B303CF489304CF488230D
:100EE00049F081E0888710C08D3011F08032C9F759
:100EF0001C86EFCF888581110AC081E090E0C15B3C
:100F0000DF4F8883998380E0DF91CF91089582E05D
:100F100090E0F5CF0895809114599091155984600F
:100F20008093145990931559089580911459909174
:100F30001559886080931459909315590895FC01B0
:100F400024813581A9014F5F5F4F868197814817C2
:100F5000590748F48281938144835583FC01E20F51
:100F6000F31F608308950190F081E02D81E0808778
:100F700008959F92AF92BF92CF92DF92EF92FF922D
:100F80000F931F93CF93DF93CDB7DEB72597CDBFD8
:100F9000DEBF8C017BDFD82ED8011C961C92F12C71
:100FA000E12C60EFC62EC80171DFF8011486D81657
:100FB00009F4B7C0811117C0F801E15BFF4F82E06F
:100FC00090E08083918380E02596CDBFDEBFDF91E6
:100FD000CF911F910F91FF90EF90DF90CF90BF9036
:100FE000AF909F9008958C3509F099C0C8014EDFED
:100FF000882311F3E1EAF1E4853709F084C0D801D0
:101000001C961C9254E0952EB12CA12CC8013EDFF9
:10101000882391F281344CF48053803148F0F801F8
:10102000E15BFF4F83E090E0CCCF8F7D8753F5CF1E
:1010300044E0AA0CBB1C4A95E1F7A82AF8011486E3
:101040009A949110E3CFC501985D8115944020F4E6
:10105000750123E0F222A7CFC5019C5D8115944064
:10106000A0F4B3E0BB22B701762F6627770F770F86
:101070006A297B2990E080E001966038710581053E
:10108000910538F4C8015BDF8ECFB50190E080E0B8
:10109000F4CF1982262F2F7320682A8326E0969595
:1010A0008795779567952A95D1F76032710578F421
:1010B000606C6B835E01E4E0AE0EB11CD5016E91F5
:1010C0005D01662309F46FCFC80139DFF7CF262F02
:1010D0002F7320682B8386E0769567958A95E1F7D4
:1010E0006031710538F4606E6C835E01F5E0AF0E1F
:1010F000B11CE4CF60686C83CD825E0126E0A20E55
:10110000B11CDCCF32969081992309F488CF8913E2
:10111000F9CF8181882309F482CFF8011486682FE2
:10112000B1CF0190F081E02D8085882331F0F80166
:10113000E15BFF4F84E090E044CF81E045CF4F92E8
:101140005F926F927F928F929F92AF92BF92CF9257
:10115000DF92EF92FF920F931F93CF93DF93EC01F7
:101160008B0188818B32C9F18D32C1F52196FF2424
:10117000F394888190ED980F9A3018F08E3209F030
:101180004DC160E070E0CB01FE012191A0ED8A2EFF
:10119000820E39E0381520F16A3949E9740784076D
:1011A00049E1940738F5AAE0B0E09B01AC010E9448
:1011B000CB56912CB12CA12C240135014094509494
:1011C00060947094461657066806790698F0680D84
:1011D000791D8A1D9B1DEF01D7CF2196F12CC9CF18
:1011E000211108C0FF20F1F161307105810550E83F
:1011F0009507A0F0E12CEAE08E2E912CA12CB12CC9
:1012000061157105F0E88F079105C0F1A501940102
:101210000E940058CA01B901E394F2CFF801248179
:1012200020782A6024839B01AC0188279927DC0160
:10123000821B930BA40BB50B80839183A283B38392
:101240008F2DDF91CF911F910F91FF90EF90DF9045
:10125000CF90BF90AF909F908F907F906F905F9056
:101260004F900895F80124812078286024836083BA
:10127000718382839383FF24F394E2CFFE0129914B
:1012800030ED320F3A3010F4E394F8CF2E32F1F40F
:10129000EF012196FE012196208150EDD52ED20E30
:1012A00029E02D1598F06C3C3CEC73073CE083077B
:1012B000910580F7AAE0B0E09B01AC010E94CB56FB
:1012C0006D0D711D811D911DEA94E4CF20812F7D4C
:1012D000D0E0C0E0253409F05DC021812D32D9F580
:1012E0003296CC24C394DF01D0E0C0E02E2D0E2C2A
:1012F000000C330B4AE0B42EFD01DD9040ED4D0DA6
:101300004A3008F042C0BC9EA001BD9E500D112481
:10131000CD2DDD0CDD0BE097C40FD51FAE01420FC4
:10132000531F4732510544F3F8018481CC20D1F09A
:1013300040E050E060E070E8F11003C040E050E0B1
:10134000BA0180788C60F801848340835183628382
:101350007383FC2C75CF2B3219F03196C12CC3CF7F
:101360003296FCCF40E050E060E87FEFF11004C01F
:1013700040E050E060E87FE780788C60F80184838B
:10138000408351836283738376CFCC2019F0D1954B
:10139000C195D1092081211141C0CE0DD11DE7FC9D
:1013A000DA950E9469511C161D0604F5E12CC0FF58
:1013B0000CC024E0E29EF0011124EA56FE4F259174
:1013C0003591459154910E941F52D595C795E3944C
:1013D000209769F7F1109058F801248120782C604B
:1013E0002483608371838283938345CFD195C19594
:1013F000D109E12C209771F3C0FF0CC044E0E49EBA
:10140000F0011124E255FE4F2591359145915491FB
:101410000E941F52D595C795E394ECCFF12C10CFC5
:10142000CF92DF92EF92FF92CF93DF93CDB7DEB7EB
:101430002597CDBFDEBFFC0184818F778630B1F068
:1014400028F48430F8F490E080E012C08A3021F073
:101450008C3019F18830B9F780819181A281B381F4
:10146000009721E0A207B10518F0EDCF808190E050
:101470002596CDBFDEBFDF91CF91FF90EF90DF903B
:10148000CF900895808191811D82BE016F5F7F4F53
:1014900056DECE010196C4DFEBCFC080D180E28062
:1014A000F38020E030E0A901C701B6010E941B5281
:1014B00087FDC9CF20E03FEF4FE757E4C701B601F2
:1014C0000E94D15018160CF4BECFC701B6010E947D
:1014D0003D51CB01CDCFFC01892B31F084818F7739
:1014E000843029F0853019F090E080E00895808103
:1014F00091810895CF93DF93DC01EB01EC81FD81B5
:101500008A819B810896E817F90740F481E0888773
:10151000F0E0E0E0CF01DF91CF9108953897EC83C0
:10152000FD833097B9F31296CD91DC9113972097F4
:1015300091F0CF018C1B9D0B23E0959587952A9503
:10154000E1F78D831296ED93FC9313971582148225
:1015500016821782DFCFED93FC931197F3CFEF92B2
:10156000FF920F931F93CF93DF937C01DC011296C0
:101570002D913C911397ED91FC91AB01420F531FBC
:10158000EF01C60FD71FC217D307A0F488818111BE
:101590000BC0E901CF014C175D0751F00991DC0147
:1015A0001D91CD010117B9F381918111FDCFE8CFD4
:1015B000309751F4620F731FCB010196F7018283BC
:1015C0009383DB011C92F901CF01DF91CF911F9131
:1015D0000F91FF90EF9008954F925F926F927F92DC
:1015E0008F929F92AF92BF92CF92DF92EF92FF9233
:1015F0000F931F93CF93DF9300D000D0CDB7DEB70A
:101600002C013B015A019E012F5F3F4F48E050E003
:1016100062E08091BF649091C0640E94F423912C99
:10162000812C8823B1F0F50110822496CDBFDEBF56
:10163000DF91CF911F910F91FF90EF90DF90CF90AE
:10164000BF90AF909F908F907F906F905F904F90E2
:10165000089582E0E82EF12C8E010D5F1F4F94015A
:1016600048E050E062E08091BF649091C0640E94C5
:1016700062278111D8CFCB808C8180FBDD24D0F80C
:10168000982F96959415150429F5C818D908C60100
:101690000197F501208128171906C8F0F2E0CF1A4A
:1016A000D10894012E5F3F4F7601830148E050E05E
:1016B00062E08091BF649091C0640E946227F5014E
:1016C0008111B2CFC082C60CD71CF601ADCF1082FB
:1016D00082E0ABCF8E7F51F0460194012E5F3F4FE9
:1016E00089819A818217930708F0B3CFF5011082A0
:1016F00081E09BCFCF93DF93CDB7DEB72E97CDBFE1
:10170000DEBF87E491E089879A871B861C8682E08A
:101710008C838B899C898D879E87AE01495E5F4F44
:1017200062EB71E4CE0101960E942C542E96CDBF3F
:10173000DEBFDF91CF9108952091B1643091B26402
:1017400012161306B4F49F938F9389EB91E49F9341
:101750008F9382EB91E49F938F938091B0648F93EA
:101760008091AF648F93C6DF8DB79EB708968DBF0B
:101770009EBF08952091B1643091B2642330310549
:10178000B4F09F938F9382EC91E49F938F9382EBBD
:1017900091E49F938F938091B0648F938091AF6415
:1017A0008F93A8DF8DB79EB708968DBF9EBF089513
:1017B000CF93DF93CDB7DEB72E97CDBFDEBF88E3E3
:1017C00091E089879A871B861C8682E08C838091B2
:1017D000AF649091B0648D879E87AE01495E5F4F84
:1017E0006D897E89CE0101960E942C542E96CDBF24
:1017F000DEBFDF91CF910895CF92DF92EF92FF92FB
:101800000F931F93CF93DF93CDB7DEB72E97CDBF46
:10181000DEBF6B8D7C8DEDB6FEB68091B16490918C
:10182000B26404970CF442C0CDB6DEB6FB01019061
:101830000020E9F7CF010197861B970B9C01275FDA
:101840003F4F4DB75EB7421B530B4DBF5EBF0DB749
:101850001EB70F5F1F4F29E0EAECF1E4D8010190B9
:101860000D922A95E1F7EDB7FEB73A96019710F081
:101870001192FCCFC80108960E94125988E391E0AA
:1018800089879A871B861C8682E08C838091AF644F
:101890009091B0648D879E87AE01435E5F4FB80123
:1018A000CE0101960E942C54CDBEDEBEEDBEFEBE22
:1018B0002E96CDBFDEBFDF91CF911F910F91FF908C
:1018C000EF90DF90CF900895CF92DF92EF92FF924A
:1018D0000F931F93CF93DF93CDB7DEB72E97CDBF76
:1018E000DEBF6B8D7C8DEDB6FEB68091B1649091BC
:1018F000B264181619060CF042C0CDB6DEB6FB0174
:1019000001900020E9F7CF010197861B970B9C01FE
:10191000275F3F4F4DB75EB7421B530B4DBF5EBFB6
:101920000DB71EB70F5F1F4F29E0E9EBF1E4D801B7
:1019300001900D922A95E1F7EDB7FEB73A9601971F
:1019400010F01192FCCFC80108960E94125988E34A
:1019500091E089879A871B861C8682E08C83809120
:10196000AF649091B0648D879E87AE01435E5F4FF8
:10197000B801CE0101960E942C54CDBEDEBEEDBE54
:10198000FEBE2E96CDBFDEBFDF91CF911F910F918E
:10199000FF90EF90DF90CF9008958230910519F17C
:1019A000C4F4009721F181309105D9F09F938F9372
:1019B00083ED91E49F938F938FEA94E69F938F93A7
:1019C00083DF0F900F900F900F900F900F9088EC87
:1019D00008958330910549F08430910539F78AE004
:1019E000089581E0089582E0089583E0089580E0FD
:1019F0000895CF92DF92EF92FF920F931F93CF93B0
:101A0000DF93CDB7DEB72E97CDBFDEBF6B8D7C8D5C
:101A1000EDB6FEB68091B1649091B26403970CF478
:101A200042C0CDB6DEB6FB0101900020E9F7CF0140
:101A30000197861B970B9C01285F3F4F4DB75EB700
:101A4000421B530B4DBF5EBF0DB71EB70F5F1F4F3D
:101A500028E0E2ECF1E4D80101900D922A95E1F73B
:101A6000EDB7FEB73996019710F01192FCCFC8017F
:101A700007960E94125988E391E089879A871B860E
:101A80001C8682E08C838091AF649091B0648D87D6
:101A90009E87AE01435E5F4FB801CE0101960E9462
:101AA0002C54CDBEDEBEEDBEFEBE2E96CDBFDEBF3B
:101AB000DF91CF911F910F91FF90EF90DF90CF902A
:101AC000089595E02091AE613091AF6121153240CB
:101AD00061F4915081F12FEF35EA4EE02150304012
:101AE0004040E1F700C00000EDCF2091AC613091A3
:101AF000AD612F5F3F4F31702093AC613093AD618A
:101B0000E091AC61F091AD61E455F04A8083F894C6
:101B10008091AE619091AF6101968093AE61909398
:101B2000AF617894549905C08091250880628093B4
:101B3000250881E0089580E008950F931F93CF93C7
:101B4000DF93EC018C01060F171FC017D10751F06E
:101B50008991B7DF8111F9CF80E0DF91CF911F919B
:101B60000F9108958DE0DF91CF911F910F91A9CF33
:101B7000CF93DF93D82FC92F9F938F9389EF91E451
:101B80009F938F938FEA94E69F938F9335DEAD2FCB
:101B9000BC2FFD0101900020E9F73197BF016A1BBE
:101BA0007B0B0F900F900F900F900F900F908D2F39
:101BB0009C2FDF91CF91C1CF40E052E0BC0186EA7B
:101BC0009AE50E94275981E08093A75C08954F927F
:101BD0005F926F927F928F929F92AF92BF92CF92BD
:101BE000DF92EF92FF920F931F93CF93DF93CDB7C6
:101BF000DEB7162F4A0139014DB65EB6FC010190E1
:101C00000020E9F731977F01E81AF90AA7014F5F31
:101C10005F4F2DB73EB7241B350B2DBF3EBFEDB731
:101C2000FEB731965F016F01BC01CF010E942759B9
:101C3000F501EE0DFF1D1082002381F0602F002EB4
:101C4000000C770BC5010E94FE58009791F0FC0133
:101C50006F0181910817E1F38032D1F36CE270E0FB
:101C6000C6010E94FE58760101E0009721F411237D
:101C700081F080E032C0101790F07C01FFEFEF1A86
:101C8000FF0A6CE270E0C7010E94FE580F5F0097E8
:101C900091F7F60101900020E9F7CF010197FC01CF
:101CA00010826DE070E0C7010E94FE58009711F0AD
:101CB000FC011082F70101900020E9F73197EE193D
:101CC000FF09E615F70520F082E192E435DDD1CF7A
:101CD000B701C4010E94125981E04DBE5EBEDF9182
:101CE000CF911F910F91FF90EF90DF90CF90BF9019
:101CF000AF909F908F907F906F905F904F900895DE
:101D0000EF92FF920F931F93CF93DF938C017B0190
:101D1000AB0170E060E00E940E54D0E0C0E080E0D3
:101D2000CE15DF0508F045C02091AA5F3091AB5F6A
:101D3000232B79F48F5F2FEF35EA9EE0215030405E
:101D40009040E1F700C00000853071F584E090E03C
:101D500018C025D8F801EC0FFD1F8083209739F1BA
:101D6000319790819D3019F58A3009F56EE671E45E
:101D7000C8010E943659009759F0FC01108281E099
:101D800090E0DF91CF911F910F91FF90EF90089518
:101D900064E671E4C8010E943659009741F0FC01E5
:101DA000108282E090E0EDCF21972196B9CF80E0BC
:101DB000FCCF83E090E0E5CF1F93CF93DF93CDB7C7
:101DC000DEB76097CDBFDEBF16E060E170E0CE0108
:101DD000019696DF8430910511F41150B1F76096A9
:101DE000CDBFDEBFDF91CF911F910895EF92FF929B
:101DF0001F93CF93DF93CDB7DEB76297CDBFDEBF22
:101E00007C0110E0C701B4DED7DF8130910539F4E1
:101E100066E772E4CE0101960E9412590DC01F5F61
:101E2000163081F78330910579F134F5009791F1FF
:101E30006DE972E4029771F3CE0101969F938F933F
:101E400088EA92E49F938F938FEA94E69F938F930F
:101E5000D3DC81E00F900F900F900F900F900F90B8
:101E6000153008F080E06296CDBFDEBFDF91CF91E4
:101E70001F91FF90EF9008958430910541F061E942
:101E800072E4059739F2D8CF69E772E4C3CF69E805
:101E900072E4C0CF63EA72E4BDCF8F929F92BF928B
:101EA000CF92DF92EF92FF920F931F93CF93DF9326
:101EB0008C017B01B42EFC0101900020E9F73197E1
:101EC000DE2ED81A90EC892E9CE5992ED0E0C0E049
:101ED000FE01E056F24A8081D8121DC0B401C8014B
:101EE0000E940959892BB9F4FE01EE0FFF1FE0553E
:101EF000F34AE082F182C855D34AB88281E0DF918B
:101F0000CF911F910F91FF90EF90DF90CF90BF90F6
:101F10009F908F90089521968CE1880E911CC83077
:101F2000D105B1F6D0E0C0E0DE01A056B24A6D01A5
:101F30008C91811115C02CE12C9FC0012D9F900D1B
:101F40001124B8018054934A0E941259F80101905B
:101F50000020E9F73197E01BF10BD601EC93C4CFD9
:101F60002196C830D10501F780E0C9CF0F931F93A8
:101F7000CF93DF9361157105B9F08B01FC01C0812E
:101F8000D181209799F06E817F81C8010E94095903
:101F9000892B61F08D81882339F0F8E08F02C00130
:101FA0001124C80FD91FEDCFD0E0C0E0CE01DF91E2
:101FB000CF911F910F9108959F92AF92BF92CF92B0
:101FC000DF92EF92FF920F931F93CF93DF93EC0179
:101FD0008B01E42E0E946607D82E81110EC0F12CD1
:101FE0008F2DDF91CF911F910F91FF90EF90DF9098
:101FF000CF90BF90AF909F900895CE010E9446076A
:10200000873209F426C114F5823209F422C1CE01C7
:102010000E944607E82E5E01FFE0AF0EB11CF12CD6
:102020009A2CCB2C8E2D0E942E07882309F43CC1BC
:102030008FE3F81609F438C11C86F394F501E19298
:102040005F01CE010E944607E82EECCF8B3509F4E4
:102050004AC08B37E1F6F8018481807880628483FE
:102060001082118212821382EE2009F447C01C866E
:10207000CE010E946607882309F4B1CF6DE7CE0137
:102080000E945607F82E81114FC0CC24C394EA94C5
:10209000E881F981828193818A839B838481958100
:1020A00022813381821B930B8E839F831C821D822E
:1020B000892B09F4C086CE010E944607873209F4B5
:1020C0005EC0823209F45BC0CE010E944607D82E62
:1020D0000E942E078111A8C0C15BDF4F83E090E012
:1020E000888399837DCFF80184818078806484839C
:1020F0001082118212821382E11007C0C15BDF4F90
:1021000085E090E0888399836ACF1C86CE010E9487
:102110006607882309F463CF6DE5CE010E94560758
:10212000F82EEA94882311F0FD2C5ACF6D857E8518
:10213000C801E0D9009729F4C15BDF4F84E090E04B
:10214000CFCF4E2DBC01CE0137DF882309F447CF16
:10215000CE010E946607882309F441CF6DE5CE01C8
:102160000E9456078111E0CF6CE2CE010E94560713
:102170008111DCCFC15BDF4F83E090E0C3CFCE01A4
:102180000E94B907882309F42BCFCE010E9466076D
:10219000882309F425CF6AE3CE010E9456078823DD
:1021A00009F49ACFEA81FB818C819D81E80FF91FA8
:1021B0001082AC80BD806A817B81C801D7DEBC0102
:1021C000892B99F4B50188819981C9D95C016D8504
:1021D0007E85C8018FD9FC01892B09F4ADCF84819C
:1021E00080688483A682B782BF014E2DCE01E4DED3
:1021F000882309F4F5CECE010E946607882309F4EE
:10220000EFCE6DE7CE010E945607811120C06CE22F
:10221000CE010E945607882309F45ECFCE010E94AA
:102220006607811135CFDCCE1C866D2DCE010E9454
:102230009F07CE010E944607D82E0E942E078111CB
:10224000F3CFE881F9818085811176CF9ECFF82E7A
:10225000C7CEE881F981828193818A839B838481BF
:10226000958122813381821B930B8E839F831C82F5
:102270001D82892B11F481E08087CE010E94B9076D
:10228000F82E882309F4ABCECC80DD80B60188819E
:10229000998165D9F8012481207825602483808381
:1022A0009183C282D3829CCEFE01EF0DF11D178671
:1022B0008F85843781F4F8018481807886608483F7
:1022C00081E08083F4E0FF1609F42ECFC15BDF4F7D
:1022D00082E090E017CF863641F4F801848180785F
:1022E000866084831082F5E0EECF8E3621F484E0A0
:1022F000F812ECCF19CFB801892D9C2D0E949F08B0
:10230000882309F437CF10CFFC01248125FD2ECE80
:1023100090E080E008958091D8629091D962811513
:1023200029E0920741F48091E5058C7F82608093DB
:10233000E50581E008958032994021F48091E5051A
:1023400088E0F5CF80E008952F923F924F925F9200
:102350006F927F928F929F92AF92BF92CF92DF92B5
:10236000EF92FF920F931F93CF93DF93CDB7DEB71A
:10237000C358D640CDBFDEBF2DB73EB7C458D94FE6
:1023800028833983CC57D64080E8C558D94F8883F5
:10239000CB57D640C658D94F8883CA57D6408E01EE
:1023A0000E571A4FAE014558594FB80181E090E0E1
:1023B00013D9882321F18FEB92E4BED910E0812F4D
:1023C000C458D94FE881F981CC57D640EDBFFEBF44
:1023D000CD57D94FCDBFDEBFDF91CF911F910F9168
:1023E000FF90EF90DF90CF90BF90AF909F908F9035
:1023F0007F906F905F904F903F902F9008957E0157
:102400003EEFE31A3AEFF30AAE014658594FB701CF
:1024100082E090E0E1D8882319F089EE92E4CDCFF4
:102420001F930F93FF92EF9282E193E49F938F9318
:102430005FEAC52E54E6D52EDF92CF92DDD94DB797
:102440005EB7485F5F4F4DBF5EBF2DB63EB6198287
:102450001A82FE01339685E5DF011D928A95E9F720
:102460001F930F938CE493E49F938F9332975F01B4
:10247000FF93EF930E945059C5017ADB182F0F90FC
:102480000F900F900F900F900F9086E693E411231A
:1024900009F45FC060E074E0C50132DC8130910571
:1024A00089F09F938F938FE793E49F938F93DF92AD
:1024B000CF920ADA0F900F900F900F900F900F901D
:1024C00010E048C041E06AEF75E181EB93E4E5DCA0
:1024D00041E068E471E083EC93E4DFDC41E06CED23
:1024E0007DE088ED93E4D9DC2DB73EB7205A310961
:1024F0002DBF3EBF0DB71EB70F5F1F4FADB7BEB7A5
:1025000011961C92F80131968DB79EB78F559F4F4B
:102510001192E817F907E1F71F928CE38F9382E29B
:102520008F9383EB8F93FF92EF9283EE93E49F93CD
:102530008F931F930F930E945059C80157DC182F97
:10254000EDB7FEB73A96EDBFFEBF811106C083E03E
:1025500094E4F2D82DBE3EBE32CF0E943E042B0141
:102560003C0122E834E02C0F3D1F245F3F4FC2584E
:10257000D94F28833983CE57D64042E8842E44E091
:10258000942E8C0E9D1E3BE0830E911C5E014EEB43
:10259000A41A49EFB40A7E015FEFE51A5BEFF50A72
:1025A000C7010296C058D94F88839983C058D64036
:1025B0008091A75C8823A1F181E08093A45980E8F1
:1025C000809345048CE0EAE2F0E4DE01AE57BB4FB5
:1025D00001900D928A95E1F784E7C258D94FA881FE
:1025E000B981CE57D6401D928A95E9F745E750E06C
:1025F00066EA7AE5C4010E9427590AE326E030E042
:10260000AE014C58594F60E0CE018E579B4FDFDA38
:10261000811116C081E394E48FD88FE794E48CD8BD
:102620000E943E04641975098609970961327E4447
:102630008105910508F4BCCF84EA94E47DD840CFAD
:102640000AE321E430E0AE014E5F594F63E0CE0172
:102650008E579B4FBCDA811103C08DE394E4DCCF2D
:102660008E010D5B194FFE01EE5FF94F6F01CE57E2
:10267000D94F0883C258D640CD57D94F1883C35875
:10268000D6401F930F9329E434E43F932F93DF92B6
:10269000CF920E94795952E0C50ED11C0F5F1F4F97
:1026A0000F900F900F900F900F900F90CA14DB04B3
:1026B00041F79E012E5F394FCE57D94F4881C258FE
:1026C000D640CD57D94F5881C358D64070E060E00E
:1026D0008091BF649091C0640E947429892B19F085
:1026E0008FE494E499CF81E1E8ECF4E4DE01AD59A4
:1026F000B94F01900D928A95E1F7D7011D921C9276
:1027000011978FE7C058D94FE881F981C058D6405A
:1027100011928A95E9F7CE018E5F994FFC012191C4
:10272000CF01E22F022E000CFF0B34E0F595E79568
:102730003A95E1F7EF70FF2743E656E04C0F5D1F37
:10274000E40FF51F30813C93E22FEF709A012E0FBA
:10275000311DF901208111962C9311971296A8161C
:10276000B906E1F6CF57DB4F1882C158D440CE01ED
:102770008C58994F0E94CA53FF92EF929F938F9368
:1027800044E654E45F934F9385EA99E59F938F93D2
:102790000E94505985EA99E5EBD9182F1092A75C51
:1027A0001092A45980E880934604ADB7BEB718963E
:1027B000ADBFBEBF112309F433CF64E670E080E003
:1027C00090E00E940E04C6CECF92DF92EF92FF926D
:1027D0000F931F93CF93DF93CDB7DEB76597CDBF30
:1027E000DEBF40E052E0BC018BE491E50E94275936
:1027F00000E023E830E048EC50E561E08BE491E54F
:10280000E6D98823B9F1E9ECF0E501900020E9F779
:102810003297108225E030E0AE014F5E5F4F62E0FC
:102820008BE491E5D4D9882329F120E130E0AE0191
:102830004F5F5F4F64E08BE491E5C9D9882331F1A4
:10284000CE0101960E94CA536C01990FEE08FF0851
:102850000091C6501091C7500115110559F0CE01D5
:1028600041960E94CA53A7019601BC0189EC90E5EC
:10287000F80109956596CDBFDEBFDF91CF911F911D
:102880000F91FF90EF90DF90CF900895CC24CA94E1
:10289000DC2C7601DDCF0F931F93CF93DF9389322A
:1028A00008F08CC090E0DC01AB5DBE4B2C912F3F5B
:1028B00009F484C08C0104501F4BE801E881D0E288
:1028C000ED9FF0011124FC5F611137C02683308138
:1028D0002323AC014D525F4B211111C0EA01288125
:1028E0003097B1F12830A0F57096E20FF11D3FB797
:1028F000F894208161112FC0277F20833FBFFA0108
:1029000030813F3F09F45AC0E80128813630D0F5C4
:102910003091E6054091024044FF1FC0532F57708D
:1029200025131BC0EC91E53008F0EE0F8091010AF1
:10293000E095E823E093010A41C0643039F4348122
:10294000322361E009F060E02783C1CF2583BFCF48
:10295000F0E0E0E0CCCF2860D0CF43FF13C0387167
:1029600069F4213079F4EC91E53008F0EE0F8091B4
:10297000410AE095E823E093410A20C0383111F480
:10298000263089F386559F4BFC01808185FF14C05A
:1029900030E1839FF0011124F75F918197709730A8
:1029A00069F4EC91853278F48032A0F48830E1F259
:1029B000803109F4B8CF02C08111F3CFDF91CF91FC
:1029C0001F910F910895803471F08038B9F71092FB
:1029D000A006F4CF90E1899FF0011124F75F818177
:1029E0008F7E8183EBCF8091920B8E2339F3C0E2EF
:1029F0002C9F900111243C5FE83030F5205F3F4F61
:102A0000E20FF32FF11D4FB7F8949091800B9E7F4A
:102A10009093800B90918E0B90FFFCCF2091920BA6
:102A200090E08095909530E08223932328ED24BF99
:102A30008093920B8091800B81608093800B8081CA
:102A40008F7780834FBFBACFF0E0E0E0DCCFEF922A
:102A5000FF920F93CF93DF93CDB7DEB7E097CDBF53
:102A6000DEBF80919E5981113DC061E071E08EE032
:102A70000E948F0361E070E085E10E948F0361E0B6
:102A800085E109DF62E971E082E10E948F0361E084
:102A900070E083E10E948F0361E083E1FCDE6AE085
:102AA00070E080E090E00E940E0460E083E1F3DEDD
:102AB00081E493E0809328089093290880E880932C
:102AC000250880EC8093260883E0809327080E94E5
:102AD000BC0681E080939E5964EF71E080E090E055
:102AE0000E940E040E94520189ED94E47FD984EE85
:102AF00094E47CD964EF71E080E090E00E940E04E1
:102B00008EEE94E473D919821A82FE0133968EE117
:102B1000DF011D928A95E9F760E270E0CE0101962F
:102B2000EFD8019781F087EF94E40E949C0B8DE22F
:102B300095E45CD9E096CDBFDEBFDF91CF910F91D8
:102B4000FF90EF90089519A21AA2FE01B3968EE0AD
:102B5000DF011D928A95E9F77E01B1E2EB0EF11CCF
:102B60000AE320E130E0A70160E0CE0101962FD812
:102B7000811105C087E395E40E949C0BDBCF45E003
:102B800050E06DE775E4C7010E941959892BB1F037
:102B9000FF92EF9283E895E49F938F938FEA94E6F8
:102BA0009F938F930E94640C8DE295E41FD90F9040
:102BB0000F900F900F900F900F90BCCF40E066E108
:102BC00076E186EA95E469D98091A159882309F4D0
:102BD000B1CFE0919F59F091A059309709F4AACF55
:102BE0000995A8CF0E94CD0C60E055CE0E94CD0C77
:102BF00061E051CEFC018281803369F481E08093F1
:102C00009C5981E090E0EEDFE0911A59F0911B5958
:102C1000309759F0099481E090E0E8DF10929C59D8
:102C2000E0911859F0911959F3CF0895FC01818171
:102C30008B7F813369F481E08093A15990E080E03B
:102C4000D1DFE0919F59F091A0593097D1F00994CC
:102C50008091A1598823A9F01092A15990E080E0B9
:102C6000C5DF81E090E0C2DF80919C59882321F08C
:102C700090E080E00E944801E0917855F09179550C
:102C8000E4CF0895CF92DF92EF92FF920F931F93BC
:102C9000CF93DF93CDB7DEB7CF58D340CDBFDEBFE4
:102CA000F82EE92ECE010F9689839A838B839C831D
:102CB0008FE293E08C0F9D1F8D839E838F83988777
:102CC00019861E868E529340C857DC4F888399839D
:102CD000C858D34028E0FE01E857FC4FDE01A05859
:102CE000BC4F01900D922A95E1F728E0FE01E058D3
:102CF000FC4FDE01A15DBC4F01900D922A95E1F7DA
:102D0000C95CDC4F1882C753D340C85CDC4FF882E3
:102D1000C853D340C75CDC4FE882C953D340C55C7D
:102D2000DC4F1882CB53D340C45CDC4F888399833B
:102D3000CC53D340C258DC4F18821982CE57D340AF
:102D40004AE0BE01665F7F4F825D9C4F35D9C25815
:102D5000DC4FE881F981CE57D340309769F4C65CE7
:102D6000DC4F8881CA53D340882309F400C18E8583
:102D700083FFFDC0E3E0F0E0EE0FFF1FEA53FE4FDC
:102D8000859194919F938F938CEA95E49F938F9371
:102D90008FEA94E69F938F930E94640C0F900F909C
:102DA0000F900F900F900F90C157DC4FCDBFDEBF3B
:102DB000DF91CF911F910F91FF90EF90DF90CF9017
:102DC000089562E176E40E940959892B09F06EC0EA
:102DD0006AE176E4CE010A9697DA0097B1F490E0C2
:102DE00080E00E946B0A8C016AE176E4CE010A96CB
:102DF0008BDA009799F4D12CC12C01151105E1F45F
:102E0000EF92FF9285E296E4C1CF60E276E47CDA4D
:102E1000009729F366E176E477DAE3CF60E276E4BF
:102E200073DA009741F36AE176E46EDA009719F3FA
:102E30000E94100A6C01E1CF69E676E4C8010E94A5
:102E40000959892B61F06DE972E4C8010E940959A2
:102E5000892BC9F01F921F928EE696E497CF94E0DB
:102E6000E92EF12CCD2899F01F930F938EE996E46B
:102E70009F938F938FEA94E69F938F930E94F90C10
:102E8000C701B0DE8BCF83E0E82EF12CEBCF1F9390
:102E90000F9382EB96E49F938F938FEA94E69F9330
:102EA0008F930E94F90CC701A1DE78CF67EC76E41E
:102EB000C8010E940959892B09F04AC06AE176E4E9
:102EC000CE010A9621DA0097F9F410E000E06AE1F9
:102ED00076E4CE010A9618DA009789F060E276E48B
:102EE00013DA009761F067ED76E40EDA009739F0B7
:102EF0000E94100A0115110511F0009799F4EF9244
:102F0000FF928CED96E442CF60E276E4FDD9009723
:102F1000E1F26EEC76E4F8D90097B9F20E94100A5B
:102F20008C01D5CF80937A5590937B551092A85001
:102F30001092A95000938056109381568091145995
:102F400090911559806880931459909315592CCFFE
:102F500062E277E4C8010E940959892B09F024CF65
:102F600084E090E08093B1649093B2641DCF6AE1F5
:102F700076E4CE010A96C8D9009719F066ED75E49B
:102F8000C3D90E946B0A8C01009709F01ACFEF9207
:102F9000FF928AED95E4FACE660FFC016787108AEE
:102FA00008950F931F93CF93DF9300D0CDB7DEB773
:102FB000182F60919D5980EB91E6EEDF612F80EB39
:102FC00091E60E94DB0461E08CEB91E60E94310601
:102FD00042E050E060919D5980EB91E60E94EF0441
:102FE0008E010F5F1F4F9091C1618091C261981750
:102FF00041F080EB91E60E949A04F80181938F01E1
:10300000F2CF89819A819827892798270F900F906E
:10301000DF91CF911F910F910895CF93C82F6091A9
:1030200076558CEC92E6B8DF6C2F8CEC92E60E9421
:10303000DB0460E088ED92E60E94310642E050E059
:10304000609176558CEC92E60E94EF049091DD62DF
:103050008091DE62981769F08CEC92E60E949A04E7
:10306000C82F8CEC92E60E949A04982F8C2FCF9157
:10307000089580E0C0E0F9CF7F928F929F92AF9247
:10308000BF92CF92DF92EF92FF920F931F93CF9355
:10309000DF93CDB7DEB7C450D140CDBFDEBF4C010A
:1030A000B42E052FA62E772ECDB6DEB682E090E0A8
:1030B00099DD8CE199E59F938F938FE297E49F933D
:1030C0008F938FEA94E69F938F930E94FC0B10914D
:1030D0009C590F900F900F900F900F900F9011111F
:1030E00008C081E597E40E949C0B82E090E07EDDC1
:1030F000B9C08091AA5F9091AB5F892B19F00E94B3
:10310000DC0EF7CF6B2D702F8A2D972D0E94695101
:103110000E9449570E94945720E030E040E85FE366
:103120000E94E5560E943D5165567F4F2DB73EB730
:10313000261B370B2DBF3EBF8DB79EB701967C0176
:103140007F92AF920F93BF921F921F928CE199E5ED
:103150009F938F938CE897E49F938F93FF92EF92C6
:103160000E945059C7010E94B80D40E25EE460E041
:1031700070E08EE30E94F7062DB73EB7245F3F4F05
:103180002DBF3EBF823021F48DEA97E40E949C0B54
:103190006B2D702FC4010E949D0D40E25EE460E043
:1031A00070E08BE20E94F7068130B9F01F928F9396
:1031B00085EC97E49F938F938FEA94E69F938F9388
:1031C0000E94640C82E090E011DD0F900F900F9050
:1031D0000F900F900F9010E045C040E25EE460E079
:1031E00070E08BE20E94F706813029F01F928F93E6
:1031F0008AE098E4DFCF80E598E40E94B80D60E0B3
:1032000071E0CE0101960E94800E8130910529F077
:103210009F938F9383E598E4CDCF7E0131E0E30E59
:10322000F31E0AE324E030E0A70162E0CE0101963C
:103230000E94E70D182F81112AC0FF92EF9282E8B9
:1032400098E49F938F938FEA94E69F938F930E94C5
:10325000640C82E090E0CADC0F900F900F900F900A
:103260000F900F90812FCDBEDEBECC5FDE4FCDBF65
:10327000DEBFDF91CF911F910F91FF90EF90DF9014
:10328000CF90BF90AF909F908F907F900895C7018F
:103290000E94CA53009729F09F938F9383EA98E482
:1032A00089CF8091B1649091B26404970CF41DCFE2
:1032B0008FEB98E49F938F938AEC91E49F938F9385
:1032C00082EB91E49F938F938091B0648F93809170
:1032D000AF648F930E947A0B8DB79EB708968DBF0F
:1032E0009EBF03CFCF92DF92EF92FF920F931F9377
:1032F000CF93DF936C01FC0101900020E9F7319737
:10330000E81BF90B90ECE92E9CE5F92ED0E0C0E02B
:103310008F011127A801B701C6010E94E753892B2D
:1033200099F4FE01E056F24A1082CC0FDD1FC05521
:10333000D34A18821982DF91CF911F910F91FF908C
:10334000EF90DF90CF90089521968CE1E80EF11C6C
:10335000C830D105F9F6EFCF83ED98E4C3DF81EBF8
:1033600093E4C0DF83EC93E4BDDF10921A5910920E
:103370001B59109218591092195985EE98E40C9423
:10338000F60EFC01A091935881E8A89FD00111246A
:10339000AA57B94A90E801900D929A95E1F7E09109
:1033A0009358F0E0EE0FFF1FE657F74A60837183F2
:1033B000E091935884E0E89FF0011124ED5FFF4B0A
:1033C0002083318342835383809193588F5F83702E
:1033D0008093935808950F931F93CF93DF93EC013D
:1033E00088819981009759F02A813B8126173707F8
:1033F00030F081E0DF91CF911F910F9108958B0103
:103400006F5F7F4F0E942258009759F088839983FD
:103410000A831B832C813D81232B59F7FC011082E9
:10342000E8CF80E0E7CFEF92FF920F931F93CF9307
:10343000DF93EC01188219821A821B821C821D8282
:1034400061157105D9F08B01FB0101900020E9F7AE
:1034500031977F01E61AF70AB701BDDF288139816C
:10346000811113C02115310519F0C9010E94415382
:10347000188219821C821D821A821B82DF91CF91D1
:103480001F910F91FF90EF900895EC82FD82B8019B
:10349000C901DF91CF911F910F91FF90EF900C9494
:1034A000125981E080937755EAEAF0E58BE1DF017C
:1034B0001D928A95E9F783E090E08283938388E503
:1034C000848382E0858380EA96E8A1E0B0E0868389
:1034D0009783A087B18788E196E0858B968B84E1FE
:1034E00090E0878B908FCF01F2C308958BE897E02F
:1034F00080931A5990931B5985E997E08093185946
:103500009093195981EC99E18093C6509093C750DC
:1035100041E064EE73E183ED98E40E944D0F8091E9
:103520007755811107C0BDDF882321F08DEF98E426
:103530000C949C0B0C94A411EF93FF93E8E1F4E638
:1035400008C0EF93FF93E8E1F4E632C0EF93E0E6C2
:1035500053C02F932FB72F938F939F93AF93BF9306
:103560006894CF93DF9320E0C485D8E09689DF018B
:10357000A90FB21FA95ABF4F8C9120E42C838A83D4
:103580009F5F9F738D812589291302C08F7D8D8355
:10359000968BDF91CF9116F00C942C03BF91AF91D5
:1035A0009F918F912F912FBF2F91FF91EF911895A0
:1035B0002F932FB72F938F939F93CF93DF93C48530
:1035C000D8E08981988181FD0DC0C38981E08C0F8D
:1035D0008F732489281731F0CE0FDF2F20E0D21F00
:1035E0009F8B838BDF91CF919F918F912F912FBFD5
:1035F0002F91FF91EF911895FF938F938FB78F9332
:10360000F8E08081848187FFFCCF85818F7B806893
:1036100085838F918FBF8F91FF91EF9118951F92A6
:103620000F920FB60F9211248F939F93AF93BF9376
:103630008091725590917355A0917455B0917555C4
:103640000196A11DB11D8093725590937355A0935F
:103650007455B093755581E08093260BBF91AF915F
:103660009F918F910F900FBE0F901F9018951F92F2
:103670000F920FB60F9211240BB60F922F933F9318
:103680004F935F936F937F938F939F93AF93BF936A
:10369000EF93FF938CEB91E60E94B605FF91EF91BB
:1036A000BF91AF919F918F917F916F915F914F915A
:1036B0003F912F910F900BBE0F900FBE0F901F9058
:1036C00018951F920F920FB60F9211240BB60F92FE
:1036D0002F933F934F935F936F937F938F939F931A
:1036E000AF93BF93EF93FF9388ED92E60E94B605E8
:1036F000FF91EF91BF91AF919F918F917F916F91CA
:103700005F914F913F912F910F900BBE0F900FBE85
:103710000F901F9018951F920F920FB60F921124C1
:103720000BB60F928F939F93EF93FF938091AE61AF
:103730009091AF61892B39F18091705590917155BD
:10374000019691708093705590937155E0917055EA
:10375000F0917155E455F04A808180932208809160
:10376000AE619091AF6101978093AE619093AF612C
:10377000FF91EF919F918F910F900BBE0F900FBE15
:103780000F901F901895809125088F7D80932508B4
:10379000EFCF1F920F920FB60F9211240BB60F921C
:1037A0000F931F932F933F934F935F936F937F9349
:1037B0008F939F93AF93BF93CF93DF93EF93FF9339
:1037C000809120082091A2593091A3592F5F3F4F3B
:1037D00031702093A2593093A359E091A259F091EE
:1037E000A359E855F24A80832091AA5F3091AB5FDC
:1037F0002F5F3F4F2093AA5F3093AB5F2091004033
:10380000309101402130310509F483C030F122307C
:10381000310551F48B3241F410926E5510926F5570
:1038200010920040109201400E94BC06FF91EF915F
:10383000DF91CF91BF91AF919F918F917F916F91C8
:103840005F914F913F912F911F910F910F900BBE60
:103850000F900FBE0F901F9018958A33E1F582E00C
:1038600090E0809300409093014000EC1CE5D0E094
:10387000C0E0FE01E056F24A208180916E559091A1
:103880006F552817190601F5408150E0B80182E50F
:1038900095E50E94E753892BB9F4C0935155CC0F9D
:1038A000DD1FC055D34A8881998180934F559093ED
:1038B000505581E090E08093004090930140109239
:1038C0004D5510924E55B0CF2196045E1F4FC83013
:1038D000D10579F6A9CF20916E5530916F552C31D5
:1038E000310539F482E090E08093004090930140EC
:1038F0009BCF20916E5530916F55A9014F5F5F4F5F
:1039000040936E5550936F552E5A3A4AF901808371
:103910008BCF8D30D1F5E0914D55F0914E55E35B55
:10392000FC4A1082E0914F55F09150553097D1F2FA
:10393000A0915155B0E0A855B34A8C918823E9F085
:103940008091A2599091A35920914D5530914E5597
:10395000821B930B91708093A2599093A35920914D
:103960004D5530914E558091AA5F9091AB5F821B6F
:10397000930B8093AA5F9093AB5F8DE493E50995D9
:1039800010924F5510925055ADCF20914D5530911A
:103990004E552115324009F4A5CF20914D55309157
:1039A0004E55A9014F5F5F4F40934D5550934E5573
:1039B000235B3C4AABCF1F920F920FB60F9211249C
:1039C0008F935C9B13C0549B0DC0809125088F7D05
:1039D0008093250880E18BB98F910F900FBE0F90D7
:1039E0001F901895809125088062F2CF5E9BF4CFDE
:1039F0008AB180E4F0CF1F920F920FB60F9211247C
:103A00008F9381E0809353018093C5508F910F90E5
:103A10000FBE0F901F9018958091DA6285FF0CC041
:103A2000E091D862F091D96286FF1382168280916C
:103A3000DA628F7D8093DA628091DA6286FF0FC04E
:103A4000E091D862F091D96285FF138214861186C5
:103A500016868091DA628F7B8093DA62118290E021
:103A600080E0089585EF90E00895CF92DF92EF9285
:103A7000FF920F931F93CF93DF937A01890188EE12
:103A800093E028E532E0F9013197F1F70197D9F792
:103A9000F801408151818CEC92E60E94EF0490E0A5
:103AA000F80180839183E7016E01CE18DF08F801E9
:103AB00080819181C816D90648F48CEC92E60E9468
:103AC0009A048F3F980799F38993EECF90E080E0B6
:103AD000DF91CF911F910F91FF90EF90DF90CF90EA
:103AE0000895EF92FF920F931F93CF93DF938A0174
:103AF00079018CEC92E650DAD0E0C0E0CE15DF051B
:103B000060F4F801EC0FFD1F60818CEC92E60E94DE
:103B1000DB04892B99F32196F1CF61E088ED92E6E1
:103B20000E94310690E080E0DF91CF911F910F91CC
:103B3000FF90EF90089590E080E00895CF93DF9399
:103B4000EB010E948B118091DA6285FF08C04E81E3
:103B50005F816885798588ED92E60E94460588ED4B
:103B600092E60E94820690E080E0DF91CF91089576
:103B70001F920F920FB60F9211248F938091A90478
:103B800086FF05C00C94000080E48093A9048F9107
:103B90000F900FBE0F901F9018951F920F920FB6A7
:103BA0000F9211248F939F938091690482FF0CC020
:103BB0008091145990911559806280931459909373
:103BC000155984E0809369049F918F910F900FBEE7
:103BD0000F901F9018951F920F920FB60F921124FD
:103BE0002F933F938F939F938091A8509091A950CA
:103BF00001968093A8509093A9502091A85030919D
:103C0000A95080918056909181562817390749F420
:103C10008091145990911559806480931459909310
:103C2000155981E080930B0A9F918F913F912F91BD
:103C30000F900FBE0F901F901895DC0189E0ECE704
:103C4000FFE401900D928A95E1F790E080E00895FD
:103C5000EF92FF920F931F93CF93DF93EC018B01B1
:103C6000892B99F088819981892B11F0CE010AD195
:103C7000C801E2D0FC0188839983892B29F1D801FE
:103C800012968D919C91039749F090E080E0DF912E
:103C9000CF911F910F91FF90EF9008958F01075FD3
:103CA0001F4FEE24E394F12C23E130E050E040E09C
:103CB00060E0CF010E946227009749F7E881F9810F
:103CC0002185287F2187E3CF81EE90E0E0CFEF923E
:103CD000FF920F931F93CF93DF93EC018091BF640A
:103CE0009091C064892B19F08FEB94E6CBD0CE0174
:103CF000A3D0FC018093BF649093C064892B59F1D9
:103D00008A819B81039749F090E080E0DF91CF9119
:103D10001F910F91FF90EF9008958F01075F1F4F44
:103D2000EE24E394F12C23E130E050E040E060E049
:103D3000CF010E946227009749F7E091BF64F0919C
:103D4000C0642185287F2187DF91CF911F910F913A
:103D5000FF90EF90089581EE90E0DF91CF911F9159
:103D60000F91FF90EF900895CF93DF93EC01892B93
:103D700091F08091BF649091C064892B19F08FEB12
:103D800094E680D0C093BF64D093C06490E080E09C
:103D9000DF91CF91089582EE90E0DF91CF91089569
:103DA00071D090E080E008958FEB94E66BD090E0C6
:103DB00080E008958091BF649091C0640895FC01F3
:103DC000892B41F00190F081E02D309719F082812C
:103DD0009381089580E290E00895E091BF64F091AE
:103DE000C064309741F00190F081E02D309719F0D8
:103DF00082819381089580E290E00895FC01892BEF
:103E000049F00190F081E02D309721F0808191817F
:103E1000892B11F08FEF0895848108959C0181E032
:103E20002031310508F080E008959C0181E02031C7
:103E3000310509F080E008950F931F93CF93DF932E
:103E40008C01892BB9F061E070E086E190E00E947E
:103E50008B52EC01009771F0BC01C801A1D0892BF5
:103E600031F4CE01DF91CF911F910F910895CE01D2
:103E70000E944153D0E0C0E0CE01DF91CF911F916D
:103E80000F910895CF93DF93EC01892B59F088812E
:103E90009981009719F0CBD1888199810E94415373
:103EA00018821982DF91CF9108959C01CB012115D1
:103EB000310521F0892B11F0C90172C082EE90E02A
:103EC00008950895009709F0B2C182EE90E0089538
:103ED000CF93DF93EC01AC014C5F5F4FFC0181910C
:103EE0009191BF010E9403410E94C5419C01892B11
:103EF00009F046C0AC81BD81109711F1ED91FC91A4
:103F00001197309709F446C012968D919C91892B98
:103F100009F440C068817981CE0109950E94C541AC
:103F20009C01892B69F5EC81FD810280F381E02DF4
:103F3000CE0109950E94C5419C012115310501F56D
:103F4000AA81BB81ED91FC9111973097E9F012960F
:103F50008D919C91892BC1F068817981CE01099561
:103F60000E94C5419C01892B59F4EA81FB810280A2
:103F7000F381E02DCE010995DF91CF910C94C541DD
:103F8000C901DF91CF91089586EF90E0DF91CF9145
:103F90000C94C54186EF90E00E94C5419C01CDCFB5
:103FA0009C01CB012115310541F0009731F0FB0157
:103FB000208331838DDF0C94C54182EE90E008951B
:103FC0000F931F93CF93DF938C0188E090E00E94C2
:103FD000A552EC010115110579F0009769F00883ED
:103FE000198376DF0E94C541892B31F4CE01DF9120
:103FF000CF911F910F910895CE010E944153D0E0BF
:10400000C0E0CE01DF91CF911F910F9108950097ED
:1040100009F05ECF80EF90E00895CF93DF93DC014D
:10402000892B11F11296ED91FC911397309791F035
:104030000480F581E02D309769F0CD91DC911197E6
:1040400088819981892B11F46F3F49F0CD01DF916F
:10405000CF9109948DEF90E0DF91CF9108956C811D
:10406000CD01DF91CF91099482EE90E0DF91CF9165
:104070000895DC01009771F01296ED91FC91309754
:1040800031F00680F781E02D309709F009948DEF2B
:1040900090E0089582EE90E00895DC01009771F0C1
:1040A0001296ED91FC91309731F00084F185E02D6E
:1040B000309709F009948DEF90E0089582EE90E03A
:1040C0000895CF93DF93EC01009761F1EA81FB81C2
:1040D000309719F10084F185E02D3097F1F030E050
:1040E00020E050E040E060E00995803D910519F046
:1040F000DF91CF9108958AE698E10197F1F7EA817F
:10410000FB810084F185E02D30E020E050E040E0CC
:1041100060E0CE01DF91CF9109948DEF90E0DF91C7
:10412000CF91089582EE90E0DF91CF910895DC0168
:104130000097C1F01296ED91FC91309781F00084C8
:10414000F185E02D309759F030E020E050E040E07C
:1041500061E00995EAEFF0E03197F1F708958DEF0E
:1041600090E0089582EE90E00895DC010097C1F0A0
:104170001296ED91FC91309781F00084F185E02D4D
:10418000309759F030E020E050E040E062E00995DF
:10419000EAEFF0E03197F1F708958DEF90E00895A0
:1041A00082EE90E00895FC01892B19F080819181C5
:1041B000089590E080E00895FC01892B19F0868134
:1041C0009781089590E080E00895FC01892B79F0B3
:1041D0000190F081E02D309751F020813181C901AB
:1041E0000497029730F081E02230310519F080E029
:1041F000089581E00895FC01892B41F00190F08140
:10420000E02D309719F08789908D089590E080E037
:104210000895FC01892B41F00190F081E02D309749
:1042200019F08589968908958CED95E008950F938E
:104230001F93CF93DF93EC01892BD9F0E881F981AB
:104240003097B9F06E817F81808191810E943041E9
:104250008C01892B11F41E821F82E881F9818081F3
:104260009181069771F0C801DF91CF911F910F9155
:10427000089502EE10E0C801DF91CF911F910F91D8
:1042800008958A819B810E9441531A821B82C80132
:10429000DF91CF911F910F910895CF93DF93EC01A0
:1042A000892B49F088819981C2DF888199810E9498
:1042B000415318821982DF91CF9108952F923F9236
:1042C0004F925F926F927F928F929F92AF92BF9226
:1042D000CF92DF92EF92FF920F931F93CF93DF93D2
:1042E000CDB7DEB76297CDBFDEBF8C0181E08B8793
:1042F000C801E7DD7C01009709F4D6C07CDF582EA9
:10430000C8017CDD8A8BD701ED91FC918681978174
:10431000A085B185813A9648A140B10508F4DDC079
:1043200030EA3D8346E84E8351E05F83188624E0FF
:1043300030E0AE014B5F5F4F66E0C701AEDE8C013F
:10434000853F910509F45FC121E030E0AE01455F92
:104350005F4F60E0C70161DEC7015BDF9C0150E099
:1043600040E02C873D874E875F87CA01B9010E94D4
:1043700069515B016C012BEA3AEA4AEA5EE36C8719
:10438000BD868E87DF866C857D858E859F850E94A4
:104390001F523B014C0120E030E040E85FE36C87B6
:1043A0007D868E879F866C857D858E859F850E9404
:1043B000D15087FDBDC020E030E040E85EE3AC8630
:1043C000BD86CE86DF866C857D858E859F850E9425
:1043D0001F52688B798B1C0120E03FEF4FE757E4B9
:1043E0006C877D878E873F866C857D858E859F85D2
:1043F0000E941B5218160CF09EC020E030E04AE7E5
:1044000054E4AC86BD86CE86DF866C857D858E8540
:104410009F850E94D5503B014C0120E030E04AE7E7
:1044200053E46C877D868E879F866C857D858E851F
:104430009F850E941F525B016C0120E030E040E844
:104440005FE36C87BD868E87DF866C857D858E8574
:104450009F850E94D15087FD9BC020E03FEF4FE732
:1044600057E46C857D858E859F850E941B521816AA
:104470000CF4A6C0AC86BD86CE86DF866C857D85B5
:104480008E859F850E943D51CB010197F1F74A949B
:10449000F1F784E090E089879A870115110501F111
:1044A000552021F05A942FCF02EE10E0C8016296F9
:1044B000CDBFDEBFDF91CF911F910F91FF90EF90A5
:1044C000DF90CF90BF90AF909F908F907F906F9034
:1044D0005F904F903F902F90089500E010E034CF10
:1044E0009E01275F3F4FAE014F5F5F4F6A89C70153
:1044F000C0DD8C01892BA1F6D701ED91FC9186815D
:104500009781A085B185813A26E8920721E0A2072C
:10451000B10568F569857A85CE0101960E946241F0
:104520008C01552019F2892B09F4C0CF5A94EBCE97
:1045300044244394ACCF20E030E04FE753E46C8652
:104540007D868E869F866C857D858E859F850E9463
:104550001B52181604F16C867D868E869F866C85AC
:104560007D858E859F850E943D51462E90CF8D83FF
:104570009E83AF83B88724E030E0AE014B5F5F4F8E
:1045800066E0C7018ADD8C01892B09F089CFC2CF93
:1045900081E090E07ACFA889AC87B989BD872E8663
:1045A0003F866C857D858E859F850E943D516C87F9
:1045B0007D878E879F878C859D850197F1F769CFD1
:1045C00020E030E040E251E46C867D868E869F8656
:1045D0006C857D858E859F850E941F526C877D87A7
:1045E0008E879F876C857D858E859F850E943D5136
:1045F000CB01009709F44BCFE9E1F0E03197F1F7F7
:104600000197D1F744CF30E020E050E040E060E097
:10461000C70143DD8C014ACF0F931F93CF93DF93E4
:104620008C014FDCEC01892BF1F088819981892B79
:10463000D1F0CE01CADD811110C0E881F9818081FD
:1046400091818130910549F0892BA1F090E080E0C3
:10465000DF91CF911F910F910895CE01DF91CF91FE
:104660001F910F912ECD82EE90E0DF91CF911F919F
:104670000F910895C801DF91CF911F910F911ECE28
:104680000F931F93CF93DF930F92CDB7DEB78C01BB
:104690009CDD811107C0D801ED91FC918081918151
:1046A000019739F4C8010F90DF91CF911F910F91BD
:1046B0003ECDC80184DB059741F480E090E00F9087
:1046C000DF91CF911F910F91089582E08983C801F6
:1046D00095DB682F21E030E0AE014F5F5F4FC801EE
:1046E0009CDC0F90DF91CF911F910F9108950F9354
:1046F0001F93CF93DF930F92CDB7DEB78C0165DDAB
:10470000811107C0D801ED91FC91808191810197C1
:1047100039F4C8010F90DF91CF911F910F9125CDF2
:1047200081E08983C8016ADB682F21E030E0AE01B7
:104730004F5F5F4FC80171DC0F90DF91CF911F91E8
:104740000F9108959DCF0F931F93FB01D801982FD0
:104750009370109711F0933031F482EE90E01F9136
:104760000F910C94C541277030E050E081FF13C0D9
:10477000EE0FFF1FEE0FFF1FEE0FFF1F542F4427FA
:104780004E2B5F2B422B532B4D935C9390E080E09C
:104790001F910F910895440F551F440F551F440F4B
:1047A000551F422B532B4D935C9390E080E01F915B
:1047B0000F9108950F931F93CB01F801309771F07B
:1047C000880F991F880F991F880F991F942B80833A
:1047D000918390E080E01F910F91089582EE90E028
:1047E0001F910F910C94C541FC01D901309781F0C4
:1047F000109771F00190F081E02D22813381211515
:10480000310551F4613031F16230B9F1662371F153
:1048100082EE90E00C94C5412430310511F16130F5
:10482000C9F0623049F06111F3CF80E890E08D93D8
:104830009C9390E080E008954830510528F148307D
:10484000510539F14031510518F788E490E08D9316
:104850009C93EFCF80E490E08D939C9390E080E078
:104860000895613089F61D921C92E3CF88E590E0AF
:104870008D939C9390E080E0089580E290E08D938A
:104880009C9390E080E0089584E290E08D939C9367
:10489000D0CF80EA91E08D939C93CBCF8F929F9263
:1048A000AF92BF92CF92DF92EF92FF920F931F933E
:1048B000CF93DF93CDB7DEB7C95CD109CDBFDEBFE3
:1048C0005C01D62E642F422F202F4701892B49F1FE
:1048D000EF2839F184E0C816C1F1E0E2CE1221C020
:1048E0007E01F8ECEF0EF11C8701752F8D2D2BDF6B
:1048F0008C01892B09F457C0C8010E94C541C80129
:10490000C753DF4FCDBFDEBFDF91CF911F910F9116
:10491000FF90EF90DF90CF90BF90AF909F908F90DF
:10492000089582EE90E0C753DF4FCDBFDEBFDF9129
:10493000CF911F910F91FF90EF90DF90CF90BF909C
:10494000AF909F908F900C94C5417E0188ECE80E4B
:10495000F11C8701752F8D2DF6DE8C01892B61F6F8
:10496000DC82F701808191818D839E83C50127DAE6
:10497000BE016F5F7F4F0E9435438C01892B09F088
:10498000BBCFB501CE0101960E9497458C01892BC2
:1049900009F0B2CF4C2D50E0BE01685F7F4FC401DB
:1049A0000E94F453ACCF6894D7F8DACFAF92BF929D
:1049B000CF92EF92FF920F931F93CF93DF93CDB7D8
:1049C000DEB7A097CDBFDEBF5B01672B91F120E280
:1049D000C22E9E012F5F3F4F790100E020E050E0A2
:1049E00040E060E05BDF8C01009701F589819A81EE
:1049F000F501808391838B819C8182839383D50190
:104A0000149685E0FE01399601900D928A95E1F7A2
:104A1000C801A096CDBFDEBFDF91CF911F910F914E
:104A2000FF90EF90CF90BF90AF9008950E94C54146
:104A3000EFCF82EE90E0A096CDBFDEBFDF91CF91A9
:104A40001F910F91FF90EF90CF90BF90AF900C947B
:104A5000C5412F923F924F925F926F927F928F92B9
:104A60009F92AF92BF92CF92DF92EF92FF920F93FD
:104A70001F93CF93DF93CDB7DEB7C95AD109CDBF0E
:104A8000DEBF3C01C855DF4F6883C85AD040C755C8
:104A9000DF4F7883C95AD040242E5901480127019D
:104AA0003C2CFE01EC5BFF4F119211928EE1DF0175
:104AB0001D928A95E9F7CE55DF4F18821982C25AA6
:104AC000D040CC55DF4F18821982C45AD040232BD6
:104AD00009F4EFC0012B09F4ECC020E2C22EFE0164
:104AE000EC59FF4F7F0100E020E050E040E060E043
:104AF000C301D4DE8C01892B09F0F8C045E050E0F9
:104B000064E670E06C0F7D1F685F7F4F84E690E085
:104B10008C0F9D1F04960E94FD53AE014C5B5F4FAE
:104B2000632D7D2DC3010E94A2478C01892B09F0C2
:104B3000DDC0CE010196CA55DF4F88839983C65ADE
:104B4000D04083E4CA55DF4FA881B981C65AD0400E
:104B50001D928A95E9F7FE01E756FF4F83E0DF01DA
:104B60001D928A95E9F73382D48284E490E08C0F19
:104B70009D1F85839683A1E0B0E0AC0FBD1FA78386
:104B8000B087CF01FBD48C01892B09F0AFC085E140
:104B9000CE55DF4F8883C25AD04092E0D92ECD55F2
:104BA000DF4FD882C35AD040CC55DF4F4882C45A19
:104BB000D040CB55DF4F5882C55AD04004E09E010B
:104BC0002E553F4FA20162E0C3010E9465468C0151
:104BD000892B09F08BC0E4E8F0E0EC0FFD1F339661
:104BE0008AE0DF011D928A95E9F7CB57DF4F4882B3
:104BF000C558D040CA57DF4F5882C658D040E4E667
:104C0000F0E0EC0FFD1FCF56DF4FE883F983C15969
:104C1000D040CD56DF4F88829982C359D040CC57BF
:104C2000DF4FD882C458D04082EA90E08C0F9D1F9D
:104C3000CB56DF4F88839983C559D040A1E0B0E0BF
:104C4000AC0FBD1FC956DF4FA883B983C759D040E9
:104C5000CE018C579F4F0E94B3318C01892B09F0F4
:104C600045C080E2C82E750100E0222DC855DF4FF7
:104C70004881C85AD040C755DF4F5881C95AD040E3
:104C800062E8C3010BDE8C01892B81F5DE011196F0
:104C9000AE014F5D5F4FF50181915F019D919F01D5
:104CA000215031098927F90180834A175B0799F759
:104CB00005C082EE90E00E94C5418C01C801C75535
:104CC000DF4FCDBFDEBFDF91CF911F910F91FF90DE
:104CD000EF90DF90CF90BF90AF909F908F907F909C
:104CE0006F905F904F903F902F900895C8010E9461
:104CF000C541E4CFAF92BF92CF92DF92EF92FF9285
:104D00000F931F93CF93DF93182FD92E5B01EA01E6
:104D1000209769F1CB010897089748F590E2C92ED2
:104D20007A0100E020E0AB0162E0812F9D2DB6DD2D
:104D30007C01892B51F57E0180E2E80EF11C80E2B6
:104D4000C82E00E021E0A50162E0812F9D2DA6DDA7
:104D50007C01892BD1F4C701DF91CF911F910F9175
:104D6000FF90EF90DF90CF90BF90AF90089582EECC
:104D700090E0DF91CF911F910F91FF90EF90DF9026
:104D8000CF90BF90AF900C94C541C7010E94C54120
:104D9000E2CF7F928F929F92AF92BF92CF92DF929B
:104DA000EF92FF920F931F93CF93DF93CDB7DEB7B0
:104DB000A097CDBFDEBF782ED92E4B015A01452BCF
:104DC00009F46CC0CB010897089708F067C020E28F
:104DD000C22ECE0101967C0100E020E0AB0162E032
:104DE000872D9D2D5BDD8C01892BA9F0C8010E94C8
:104DF000C541C801A096CDBFDEBFDF91CF911F9105
:104E00000F91FF90EF90DF90CF90BF90AF909F9069
:104E10008F907F9008958CE1FE013596D501019029
:104E20000D928A95E1F790E2C92EFE0131967F013D
:104E300000E021E0A40162E0872D9D2D2FDD8C0193
:104E4000892BA1F689819A81F501848F958F8B81B9
:104E50009C81868F978F88E1FE013996D5019096C7
:104E600001900D928A95E1F780E2C82ECE0101965D
:104E70007C0100E022E0A40162E0872D9D2D0EDD83
:104E80008C01892B09F0B2CFD501D89688E0FE01BC
:104E9000319601900D928A95E1F7ABCF82EE90E0CA
:104EA000A096CDBFDEBFDF91CF911F910F91FF90F4
:104EB000EF90DF90CF90BF90AF909F908F907F90BA
:104EC0000C94C5412F923F924F925F926F927F92C6
:104ED0008F929F92AF92BF92CF92DF92EF92FF920A
:104EE0000F931F93CF93DF93CDB7DEB7A897CDBFB6
:104EF000DEBF88A7D92E6FA31A012BA33CA30DA355
:104F00001EA3370119A21AA2633008F0C1C03FA145
:104F1000323009F4B9C06114710409F49CC02DA1A8
:104F20003EA1232B09F4B4C09E012F5D3F4FA10188
:104F30006FA188A59D2D58DC5C01009709F0AEC0DB
:104F400029A13AA18BA19CA1860D971D281739078D
:104F500008F49EC04BA05CA056944794529442948F
:104F60006FE04622452456224524912C812C10E2E4
:104F700007C08FEF881A980AA614B70408F06BC010
:104F8000103209F44AC0C12ECE0101967C01082DD1
:104F9000242DA1016FA188A59D2D80DC7C010097A7
:104FA00009F07FC0C201880F991F880F991F880FD1
:104FB000991F880D991D880F991F880F991F2BA184
:104FC0003CA1BE016F5F7F4F8217930748F47901C0
:104FD000E81AF90A61E070E06C0F7D1F6E0D7F1D0D
:104FE000812F90E08E199F097301EA18FB088E1536
:104FF0009F0508F47C01A7018DA19EA18A0D9B1D30
:105000000E94F453AE0CBF1C103209F0B2CF3FEF38
:10501000431A530AA614B704F0F489A19AA1920185
:10502000220F331F22953295307F3227207F32277F
:10503000821B930B10E2809708F0A5CF8BA09CA059
:105040008A0C9B1C969487949694879437E08322CD
:10505000992414E098CFB12CA12CC501A896CDBFFE
:10506000DEBFDF91CF911F910F91FF90EF90DF9006
:10507000CF90BF90AF909F908F907F906F905F90F8
:105080004F903F902F9008954031510508F443CF41
:1050900082EE90E00E94C5415C01DFCF0E94C541D5
:1050A000DCCF0E94C5415701D8CFEF92FF920F93FA
:1050B0001F93CF93DF93EC018B01672B51F1E881B4
:1050C000F981828193810E944A4498E5E92EF12C6E
:1050D000811103C080E8E82EF12C30E020E050E0A0
:1050E00040E060E0CE01EEDEEC01009741F4CE013D
:1050F000DF91CF911F910F91FF90EF9008950E9443
:10510000C541CE01DF91CF911F910F91FF90EF909C
:10511000089582EE90E0DF91CF911F910F91FF9063
:10512000EF900C94C541AF92BF92CF92DF92EF9275
:10513000FF920F931F93CF93DF93CDB7DEB7C25883
:10514000D109CDBFDEBF5C016B017A01CF57DF4FC4
:1051500018821982C158D040672B09F445C0411507
:10516000510509F441C0DA011C92BE016F5F7F4F07
:105170009CDF8C01892B09F04CC09E012F573F4FBB
:1051800050E040E060E0C5012FDB8C01892B09F085
:1051900040C044E250E0B601605F7F4FCE014196CF
:1051A0000E94E753892B29F5D501ED91FC9182816D
:1051B0009381039791F1CF57DF4F48815981C158AF
:1051C000D0404B35510560F04A555109B601665A39
:1051D0007F4FCE01855A9F4F0E94E753892B49F498
:1051E00081E0F701808305C082EE90E00E94C54116
:1051F0008C01C801CE57DF4FCDBFDEBFDF91CF910D
:105200001F910F91FF90EF90DF90CF90BF90AF90E4
:105210000895C8010E94C541ECCF40E150E0B601BD
:105220006C5B7F4FCE018B5B9F4F0E94E753892BB6
:1052300001F7C1CFCF92DF92EF92FF920F931F93AE
:10524000CF93DF93CDB7DEB7C75CD109CDBFDEBF4B
:105250008C016901009779F1232B69F16C834D83EF
:105260005E830E94DF1EBE016F5F7F4F0E948043FE
:105270007C01892B89F0C7010E94C541C701C95330
:10528000DF4FCDBFDEBFDF91CF911F910F91FF9018
:10529000EF90DF90CF900895B801CE0101960E9463
:1052A00097457C01892B39F78F818334A1F086EEF5
:1052B000E82EF12CE3CF82EE90E0C953DF4FCDBF53
:1052C000DEBFDF91CF911F910F91FF90EF90DF90A4
:1052D000CF900C94C54180E4FE013896D601019030
:1052E0000D928A95E1F7CACF9F92AF92BF92CF926B
:1052F000DF92EF92FF920F931F93CF93DF938C0176
:105300005B01D42EF52EC22EE32E70E060E00E94E9
:105310000A48EC01892B99F4D801ED91FC91828126
:105320009381912C60E0039729F120E230E04D2D2C
:105330005F2DC8010E948847EC01892B81F0CE01C6
:105340000E94C541CE01DF91CF911F910F91FF9037
:10535000EF90DF90CF90BF90AF909F900895692D10
:1053600060682C2D3E2DA501C80164DFEC01892B5E
:1053700049F3E5CF80E2982E60E4D7CF0F931F93D7
:10538000CF93DF93E62F572F312F642F21116064C5
:10539000202F4E2F4FDFEC01009731F4CE01DF912B
:1053A000CF911F910F9108950E94C541CE01DF91C9
:1053B000CF911F910F910895AF92BF92CF92DF923C
:1053C000EF92FF920F931F93CF93DF93CDB7DEB78A
:1053D000C75CD109CDBFDEBF7C016A0159011C82C7
:1053E0006D837E83892B61F1452B51F180E2F601BB
:1053F000DE01179601900D928A95E1F7C7010E9490
:10540000DF1EBE016F5F7F4F0E948043B701CE0158
:1054100001960E9497458C010097D1F4AB28D9F0F2
:10542000C801C953DF4FCDBFDEBFDF91CF911F91C0
:105430000F91FF90EF90DF90CF90BF90AF900895C5
:1054400082EE90E00E94C5418C01892B79F2E8CF71
:105450000E94C541E5CF8F81833419F006EE10E03C
:10546000DFCF40E450E0BE01685F7F4F90E080E016
:105470000E94F453D5CFCF93DF93EC018E81A881A6
:10548000B98184FD70C085FD56C088E0FD01119290
:105490008A95E9F7E881F9813896E883F98383E012
:1054A000DF011D928A95E9F7E881F9813396AC8195
:1054B000BD81CF0101968883998318968C91808352
:1054C0008E81E881F98186FF48C0AC81BD81149648
:1054D0008D919C9115978083918316968D919C91C7
:1054E00082839383E881F981AC81BD81CF010596E8
:1054F000888399838C918483AC81BD81E881F98113
:10550000CF0101968883998311968C9180838E8137
:10551000E881F98186FF17C0AC81BD8112968D911B
:105520009C91808391838881998102968883998355
:10553000DF91CF910895EA81FB8188E001900D927F
:105540008A95E1F7A7CF108211828881998102960E
:1055500088839983DF91CF91089584E0DF011D92C4
:105560008A95E9F7BFCFEA81FB818BE001900D922C
:105570008A95E1F7E881F9813B9699CF0F931F93C4
:10558000CF93DF93CDB7DEB7E797CDBFDEBF8C01FA
:10559000DC0117964D915C9118974115510509F45E
:1055A00077C013962D913C9114972115310509F47C
:1055B0006FC08C9181FD40C01596ED91FC911697BE
:1055C000309709F465C011966D917C9177FD6AC0A2
:1055D00090E2DE01119601900D929A95E1F794E127
:1055E000F901DE01919601900D929A95E1F796E10D
:1055F0009DAB8EAB1FAA67E370E0CE0101960E94BF
:10560000B139D80117968D919C91FC01E05CFF4F58
:105610002081207420832181216021838E5B9F4F14
:10562000FC01108290E080E0E796CDBFDEBFDF9105
:10563000CF911F910F910895982F93709330E1F1BE
:10564000923031F5F801608171818181928197FFFB
:105650001FC00580F681E02D80E2DE0111960190E9
:105660000D928A95E1F784E1F901DE0191960190AE
:105670000D928A95E1F786E18DAB6EAB7FAB67E368
:1056800070E0CE0101960E94B13990E080E0CCCF6D
:1056900082EE90E0E796CDBFDEBFDF91CF911F9104
:1056A0000F91089580E2DA0101900D928A95E1F759
:1056B000F80187819085B2CF982F907CE9F485FD21
:1056C00028C080E2F901DA0101900D928A95E1F794
:1056D000D8011796ED91FC91DF01AE5BBF4F1C9294
:1056E000E05CFF4F80818074806180838181816074
:1056F000818390E080E098CFFA01E05CFF4F8081E9
:1057000080748061808381818E7F818390E080E0DE
:105710008BCF80E4F901DA0101900D928A95E1F7CF
:10572000D8011796ED91FC91DF01AE5BBF4F81E090
:105730008C93D6CF4F925F926F927F928F929F926F
:10574000AF92BF92CF92DF92EF92FF920F931F938F
:10575000CF93DF93CDB7DEB7C05ED109CDBFDEBF3B
:105760008C01009709F47BC0FC0180819181892B19
:1057700009F475C082819381892B09F470C08481FA
:105780009581892B09F46BC0868197812C01FFE1FB
:105790004F2255244114510409F061C09695879514
:1057A000929582958F7089279F708927892B09F49C
:1057B00059C03E0121EC620E711CEE24FF24E61854
:1057C000F708912C812CB12CA12CC30180966C017F
:1057D000CE0101960E94F138F8016081718140E2AA
:1057E00050E0CE0101960E94F538F8016281738184
:1057F000680D791D40E150E0CE0101960E94F53818
:10580000B301CE0101960E94FC38D301CD018E0D6B
:105810009F1DF80124813581F901E80FF91F9D9141
:10582000808189278083AC15BD0581F7FFEFAF1A12
:10583000BF0A20E1820E911C80E2E80EF11CF80103
:105840008681978196958795929582958F70892705
:105850009F708927A816B90608F4BACF03C082EE54
:10586000482E512CC201C052DF4FCDBFDEBFDF91A9
:10587000CF911F910F91FF90EF90DF90CF90BF904D
:10588000AF909F908F907F906F905F904F90089512
:105890009F92AF92BF92CF92DF92EF92FF920F93BF
:1058A0001F93CF93DF93CDB7DEB7C55ED109CDBFD0
:1058B000DEBF8C01DC018C9191E4CB51DF4F9883EA
:1058C000C55ED04013962D913C911497232B09F47B
:1058D000D7C01796CD90DC901897C114D10409F465
:1058E000CFC019962D913C91232B09F4C9C0B82F34
:1058F000B0729B2E8370833009F45EC0B111D2C0A8
:10590000D8011D96ED91FC91309709F4B9C05E0164
:10591000B1ECAB0EB11C80E2D50101900D928A95DD
:10592000E1F7FE0131967F01C7010E94F138D801ED
:1059300019966D917C9140E250E0C7010E94F538C4
:1059400040E250E0B501C7010E94F53840E250E066
:10595000B601C7010E94F538F8016381748140E403
:1059600050E0C7010E94F53885E4CF51DF4F8883AE
:10597000C15ED040D80112968C9112972D913C9126
:10598000CE51DF4F28833983C25ED040CC51DF4FE8
:105990008883C45ED04044E050E0BE016F517F4F29
:1059A000C7010E94F538F80167857089C7010E9418
:1059B000FC3890E080E066C0F80185819681892BF3
:1059C00009F45EC085859685892B09F459C08385C5
:1059D0009485892B09F454C0CE0101967C010E9464
:1059E000F138D8011D966D917C9140E250E0C701DD
:1059F0000E94F53841E050E0BE016B517F4FC70176
:105A00000E94F538F801658176814AE050E0C701CF
:105A10000E94F538D8011B966D917C91685F7F4F8D
:105A200041E050E0C7010E94F538F80165817681B8
:105A3000665F7F4F44E050E0C7010E94F538D8010F
:105A40001B966D917C9142E050E0C7010E94F538B1
:105A5000F80165817681625F7F4F45E050E0C701C4
:105A60000E94F5385E01F1ECAF0EB11CB501C70123
:105A70000E94FC38911028C0F801C780D08454CF10
:105A800082EE90E0CB51DF4FCDBFDEBFDF91CF91F3
:105A90001F910F91FF90EF90DF90CF90BF90AF904C
:105AA0009F9008955E0181ECA80EB11C80E2F60182
:105AB000D50101900D928A95E1F7DE0111967D01E5
:105AC000B0E2CB0ED11C30CFD8011796CD90DC9030
:105AD000F7CF0F931F93CF93DF93CDB7DEB7C05CA3
