:100000000C946B0C0C94A90C0C94A90C0C94A90CDA
:100010000C94A90C0C94A90C0C94A53A0C94A90C62
:100020000C94B1370C94B63A0C94A90C0C94A90C0E
:100030000C94A90C0C94A90C0C94A90C0C94A90C6C
:100040000C94A90C0C94A90C0C94B2380C94A90C27
:100050000C94A90C0C94A90C0C94A90C0C94A90C4C
:100060000C94A8370C94A90C0C94A90C0C94A90C12
:100070000C94A90C0C94A90C0C94AB370C948637F7
:100080000C941A390C94DC380C94A90C0C94A237FB
:100090000C94A90C0C94A90C0C94A90C0C94A90C0C
:1000A0000C94A90C0C94A90C0C9488380C94A90CF1
:1000B0000C94A90C0C94AE370C94A5370C94A90C95
:1000C0000C94A90C0C94A90C0C94A90C0C94A90CDC
:1000D0000C94A90C0C9405380C94FF370C940B3835
:1000E0000C94A90C0C94A90C0C94A90C0C94A90CBC
:1000F0000C94A90C6E616E00696E660000407A1067
:10010000F35A00A0724E18090010A5D4E80000E8C8
:100110007648170000E40B54020000CA9A3B000026
:1001200000E1F505000080969800000040420F00B5
:100130000000A08601000000102700000000E80376
:10014000000000006400000000000A000000000041
:100150000100000000002C76D888DC674F0823DF00
:10016000C1DFAE59E1B1B796E5E3E453C63AE651D3
:10017000997696E8E6C28426EB898C9B62ED407CFA
:100180006FFCEFBC9C9F40F2BAA56FA5F490055A96
:100190002AF75C936B6CF9676DC11BFCE0E40D47BB
:1001A000FEF520E6B500D0ED902E030094357705DE
:1001B0000080841E080000204E0A000000C80C3396
:1001C0003333330F986E12831141EF8D2114893B25
:1001D000E65516CFFEE6DB18D1844B381BF77C1DA5
:1001E000901DA4BBE424203284725E228100C9F1F8
:1001F00024ECA1E53D276364696E6F7073757858D0
:100200005B00546F6F44656570004E6F4D656D6F98
:10021000727900496E76616C6964496E707574001C
:10022000496E636F6D706C657465496E70757400AE
:10023000456D707479496E707574004F6B00556E22
:10024000617661696C61626C650050726F787920CB
:100250006572726F7200454149004552524E4F001F
:10026000556E6B6E6F776E0041434C2064656E690E
:1002700065640041757468656E7469636174696F63
:100280006E206572726F72004E6F7420737570709D
:100290006F72746564005061796C6F61642073697A
:1002A0007A6520696E76616C696400544C532065F0
:1002B00072726F7200436F6E6E656374696F6E2049
:1002C0006C6F7374004E6F7420666F756E640043BC
:1002D0006F6E6E656374696F6E20726566757365A7
:1002E00064004E6F20636F6E6E656374696F6E009D
:1002F000496E76616C69642076616C756500507238
:100300006F746F636F6C206572726F72004E6F2036
:100310006D656D6F72790053756363657373005B10
:1003200044454255475D20005B494E464F5D2000E5
:100330005B5741524E5D20005B4552524F525D204B
:1003400000000020410000C84200401C4620BCBE06
:100350004CCA1B0E5AAEC59D74CDCCCC3D0AD723DA
:100360003C17B7D13877CC2B329595E6241FB14F87
:100370000A436F756C64206E6F7420696E697469CE
:10038000616C697A652045434320686172647761D6
:1003900072652C206572726F7220636F64653A20FB
:1003A00025580D0A0054696D6564206F75742077B7
:1003B000616974696E6720666F722063656C6C7525
:1003C0006C6172206D6F64656D20746F2073746151
:1003D00072742075700D0A0053595353544152548E
:1003E00000476F74204E54502073796E6321005380
:1003F000514E4E54500041542B53514E4E54503D8B
:10040000322C2274696D652E676F6F676C652E6381
:100410006F6D2C74696D652E77696E646F77732EBE
:10042000636F6D2C706F6F6C2E6E74702E6F7267B1
:10043000222C3100476F7420646973636F6E6E65A0
:10044000637465642066726F6D206E6574776F7279
:100450006B207768696C737420646F696E67204ED7
:1004600054502073796E6300446964206E6F742069
:100470006765742074696D652066726F6D206F709A
:10048000657261746F722C20646F696E67204E54C0
:10049000502073796E632E20546869732063616EF7
:1004A0002074616B6520736F6D652074696D652EB6
:1004B0002E2E004661696C656420746F207265742D
:1004C00072696576652074696D652066726F6D204E
:1004D0006D6F64656D00436F6D6D616E6420666F56
:1004E000722072657472696576696E67206D6F64DB
:1004F000656D2074696D65206661696C6564004195
:10050000542B43434C4B3F00576173206E6F742054
:1005100061626C6520746F20636F6E6E656374201A
:10052000746F20746865206E6574776F726B2077C6
:10053000697468696E207468652074696D656F758B
:1005400074206F66202564206D732E20436F6E73B8
:100550006964657220696E6372656173696E672094
:100560007468652074696D656F7574206F7220639F
:100570006865636B696E6720796F75722063656C5F
:100580006C756C617220636F7665726167652E0DA4
:100590000A00204552524F523A2025530D0A002E90
:1005A00000436F6E6E656374696E6720746F206FB1
:1005B00070657261746F720053494D20636172649B
:1005C000206973206E6F742072656164792C2073CA
:1005D00074617475733A2025732E00524541445955
:1005E000004661696C656420746F2072657472697D
:1005F0006576652053494D207374617475732E00C0
:10060000436865636B696E672053494D206361726F
:1006100064206661696C65642C20697320697420AC
:10062000696E7365727465643F0041542B43504991
:100630004E3F0041542B4346554E3D310041542B13
:1006400043455245473D350041542B43545A523D92
:10065000310041542B43545A553D31006572726F3D
:1006600072007761726E00696E666F006465627514
:1006700067000D0A417661696C61626C6520436FA9
:100680006D6D616E64730D0A2D2D2D2D2D2D2D2D6B
:100690002D2D2D2D2D2D2D2D2D2D2D2D2D2D2D0DAA
:1006A0000A68656C700909205072696E742074685C
:1006B0006973206D6573736167650D0A6C6F676C94
:1006C0006576656C3D6C6576656C092053657420B4
:1006D000746865206C6F67206C6576656C2E2041B0
:1006E0007661696C61626C65206C6576656C7320FF
:1006F0006172652064656275672C20696E666F2C77
:10070000207761726E2C206572726F720D0A2D2D2A
:100710002D2D2D2D2D2D2D2D2D2D2D2D2D2D2D2D09
:100720002D2D2D2D2D0D0A000A496E76616C696400
:1007300020636F6D6D616E6400726573657400682F
:100740006561727462656174004C6F67206C6576D8
:10075000656C206973206E6F772025730D0A004346
:100760006F756C64206E6F7420736574206C6F6796
:10077000206C6576656C2025730D0A006C6F676CC4
:100780006576656C0068656C7000476976656E20FB
:10079000636F6D6D616E64206973206E6F6E2D7670
:1007A000616C7565004E4F545F415641494C414262
:1007B0004C45004661696C656420746F20726574F5
:1007C000726965766520746865206F706572617402
:1007D0006F72206E616D652E0041542B434F505354
:1007E0003F0041542B434F50533D332C3000415474
:1007F0002B53514E534D5154545243564D45535320
:100800004147453D302C222573222C25750041544B
:100810002B53514E534D5154545243564D455353FF
:100820004147453D302C22257322003B02300220F7
:100830000213020A020202766572626F73655F6CD0
:100840006F677300556E61626C6520746F20676519
:1008500074206475726174696F6E206F72206672A5
:10086000657175656E63792C20706F696E74657241
:10087000206973207A65726F2C206D6573736167D0
:10088000652069732025730D0A0073747265616DAC
:10089000005475726E696E67204C454420257320A4
:1008A0006F66660D0A005475726E696E67204C455E
:1008B00044202573206F6E0D0A00496E76616C69C5
:1008C00064204C45442076616C75652070726F76AB
:1008D000696465642C206C65642070726F7669644D
:1008E0006564203D2025730D0A005553455200557F
:1008F0006E61626C6520746F20676574207461722C
:10090000676574206C6564206F7220737461746510
:100910002C20706F696E746572206973207A65721D
:100920006F2C206D65737361676520697320257373
:100930000D0A007365745F6C656400556E61626CCE
:100940006520746F2067657420636F6D6D616E64E0
:100950002C20706F696E746572206973207A6572DD
:100960006F2C206D65737361676520697320257333
:100970000D0A00556E61626C6520746F20646573AA
:10098000657269616C697A6520726563656976650F
:1009900064204A534F4E3A2025730D0A0046616980
:1009A0006C656420746F207075626C697368206D6B
:1009B0006573736167653A2025730D0A007B2274A5
:1009C000797065223A202264617461222C202020F3
:1009D0002020202020202020202020202020202017
:1009E00020202020202264617461223A207B202074
:1009F00020202020202020202020202020202020F7
:100A000020202020202020202020202254656D70CE
:100A100065726174757265223A2025642C2020204D
:100A200020202020202020202020202020202020C6
:100A300020202020202020202020224C696768745C
:100A400020496E74656E73697479223A202564209A
:100A50002020202020202020202020202020202096
:100A600020202020202020207D2020202020202029
:100A700020202020202020202020202020207D0039
:100A80005374617274696E6720746F207374726539
:100A9000616D206461746120666F7220256420732B
:100AA00065636F6E64730D0A0053656E64696E67EB
:100AB00020686561727462656174004661696C6585
:100AC0006420746F2072656164206D657373616763
:100AD000650D0A004C6F737420636F6E6E656374EE
:100AE000696F6E20746F2062726F6B65722C20616B
:100AF0007474656D7074696E6720746F20726563BD
:100B00006F6E6E6563742E2E2E004C6F73742063AF
:100B10006F6E6E656374696F6E20746F2062726FA2
:100B20006B65722C20617474656D7074696E6720DA
:100B3000746F207265636F6E6E6563742E2E2E0067
:100B40004E6574776F726B20646973636F6E6E6548
:100B50006374696F6E2C20617474656D7074696E56
:100B60006720746F207265636F6E6E6563742E2EDE
:100B70002E00436F6E6E656374656420746F204D44
:100B80005154542062726F6B65722C2073756273BE
:100B900063726962696E6720746F20746F70696335
:100BA0003A202573210D0A00436F6E6E65637465EC
:100BB0006420746F206F70657261746F723A2025C3
:100BC000730D0A002E0057696C6C206E6F772063DE
:100BD0006F6E6E65637420746F20746865206F702B
:100BE000657261746F722E20496620746865206298
:100BF0006F617264206861736E277420707265760D
:100C0000696F75736C7920636F6E6E65637465646C
:100C100020746F20746865206F70657261746F72E4
:100C20002F6E6574776F726B2C2065737461626CC4
:100C3000697368696E672074686520636F6E6E659E
:100C40006374696F6E2074686520666972737420BE
:100C500074696D65206D696768742074616B6520C7
:100C6000736F6D652074696D652E0025732F736534
:100C70006E736F727300246177732F7468696E6787
:100C8000732F25732F736861646F772F757064619C
:100C900074652F64656C746100426F617264206ECC
:100CA000616D653A2025730D0A00556E61626C65B1
:100CB00020746F20696E697469616C697A6520744B
:100CC0006865204D51545420746F706963732E20F1
:100CD00053746F7070696E672E2E2E00436F756CA3
:100CE00064206E6F74207265747269657665207415
:100CF00068696E67206E616D652066726F6D207425
:100D000068652045434300436F756C64206E6F74C3
:100D100020696E697469616C697A65207468652000
:100D20006C696768742073656E736F7200436F75CA
:100D30006C64206E6F7420696E697469616C697A85
:100D400065207468652074656D7065726174757274
:100D5000652073656E736F72005374617274696E8F
:100D6000672073616E64626F78202F206C616E64FF
:100D7000696E6720706167652070726F6365647566
:100D800072652E2056657273696F6E203D20257343
:100D90000D0A004572726F722068617070656E6531
:100DA00064207768696C7374207375627363726909
:100DB00062696E673A2025532E0D0A004661696C00
:100DC000656420746F20726574726965766520733E
:100DD000746174757320636F64652066726F6D2033
:100DE000737562736372696265206E6F7469666998
:100DF000636174696F6E0054696D6564206F75740A
:100E00002077616974696E6720666F7220737562FE
:100E100073637269626520636F6E6669726D617477
:100E2000696F6E0D0A0053514E534D5154544F4E3D
:100E3000535542534352494245004661696C6564CB
:100E400020746F2073656E642073756273637269BA
:100E5000626520636F6D6D616E642C206572726FC8
:100E60007220636F64653A2025780041542B5351FA
:100E70004E534D5154545355425343524942453DAC
:100E8000302C222573222C257500417474656D70F9
:100E9000746564204D5154542053756273637269B4
:100EA000626520776974686F7574206265696E6722
:100EB00020636F6E6E656374656420746F206120BB
:100EC00062726F6B6572004572726F72206861703A
:100ED00070656E6564207768696C737420707562E4
:100EE0006C697368696E673A2025532E0D0A0046B7
:100EF00061696C656420746F2072657472696576CF
:100F0000652073746174757320636F646520667205
:100F10006F6D207075626C697368206E6F7469669E
:100F200069636174696F6E0054696D6564206F75E3
:100F3000742077616974696E6720666F72207075BE
:100F4000626C69736820636F6E6669726D61746943
:100F50006F6E2E20436F6E736964657220696E63D5
:100F600072656173696E672074696D656F75742051
:100F7000666F72207075626C697368696E670D0ABE
:100F80000053514E534D5154544F4E5055424C49BD
:100F90005348005075626C697368696E67204D51E3
:100FA0005454207061796C6F61643A2025730D0A86
:100FB0000054696D6564206F757420776169746988
:100FC0006E6720746F2064656C69766572204D5180
:100FD0005454207061796C6F61642E0041542B531E
:100FE000514E534D5154545055424C4953483D3045
:100FF0002C222573222C25752C256C7500417474C8
:10100000656D70746564207075626C6973682077B3
:101010006974686F7574206265696E6720636F6EAE
:101020006E656374656420746F20612062726F6BFB
:10103000657200446964206E6F7420676574204E89
:1010400054502073796E632077697468696E2074D8
:10105000696D656F7574206F6620256C75206D73E2
:101060002E20436F6E736964657220696E637265CA
:101070006173696E672074696D656F757420666F42
:1010800072204C74652E626567696E28290D0A000E
:1010900043455245470041542B4346554E3D300091
:1010A00043545A560053514E534D5154544F4E4D84
:1010B000455353414745004661696C656420746F30
:1010C0002071756572792073656375726974792012
:1010D00070726F66696C650041542B53514E5350CA
:1010E0004346470041542B53514E484345534947CB
:1010F0004E3D25752C302C36342C2225732200458C
:101100004343207369676E696E67206661696C6529
:10111000642C2073746174757320636F64653A2066
:1011200025580D0A004661696C656420746F20675C
:10113000656E6572617465207369676E696E67209C
:10114000636F6D6D616E642C206E6F2064696765DE
:10115000737420666F72207369676E696E672072A0
:1011600065717565737421004661696C65642074EE
:101170006F2067656E6572617465207369676E695B
:101180006E6720636F6D6D616E642C206E6F2063DF
:101190006F6E74657874204944210020556E616239
:1011A0006C6520746F20636F6E6E65637420746F5E
:1011B0002062726F6B65723A2025532E0D0A00175C
:1011C000030D03FE02F002E202CF02C502B502AB3C
:1011D00002960288027302680260025A0256024AAC
:1011E000023E0253514E534D5154544F4E444953B5
:1011F000434F4E4E45435400204F4B2100466169FA
:101200006C656420746F20657874726163742073F8
:10121000746174757320636F646520666F722063F8
:101220006F6E6E656374696F6E2E0D0A0020255314
:101230000D0A0054696D6564206F757420776169CB
:1012400074696E6720666F7220636F6E6E6563747B
:10125000696F6E20726573706F6E73652E0D0A0074
:101260002025530D0A0053514E534D5154544F4EA7
:10127000434F4E4E45435400556E61626C65207479
:101280006F2068616E646C65207369676E61747548
:10129000726520726571756573740D0A002025539F
:1012A0000D0A0054696D6564206F75742077686954
:1012B0006C73742077616974696E6720666F722041
:1012C000544C53207369676E696E672E20506C65AD
:1012D0006173652076657269667920796F75722011
:1012E000636572746966696361746520736574759A
:1012F00070202872756E207468652070726F766930
:1013000073696F6E2041726475696E6F20736B65CF
:1013100074636820746F2073657420746869732027
:10132000757020666F722061206E65772062726F23
:101330006B6572292E0D0A002025530D0A005351AA
:101340004E4843455349474E00436F6E6E65637484
:10135000696E6720746F204D5154542062726F6B18
:101360006572004661696C656420746F20726571F6
:101370007565737420636F6E6E656374696F6E203C
:10138000746F204D5154542062726F6B65722C2023
:101390006572726F7220636F64653A2025580D0A7A
:1013A0000041542B53514E534D515454434F4E4EC4
:1013B0004543543D302C222573222C25752C257550
:1013C000004661696C656420746F20636F6E6669A6
:1013D00067757265204D5154542E20546865205411
:1013E0004C53207365747570206D69676874206252
:1013F0006520696E636F72726563742E2049662082
:10140000796F75277265207573696E672061206337
:101410007573746F6D2062726F6B6572207769747B
:101420006820544C532C2072756E207468652070AF
:10143000726F766973696F6E206578616D706C6527
:1014400020736B6574636820696E206F72646572C7
:1014500020746F2070726F766973696F6E20666F8B
:1014600072206120637573746F6D204D5154542048
:1014700062726F6B6572207769746820544C532ECA
:10148000204572726F7220636F64653A2025580D93
:101490000A0041542B53514E534D51545443464727
:1014A0003D302C222573222C222573222C222573D9
:1014B000222C257500436F756C64206E6F74206953
:1014C0006E697469616C697A65204543432068617F
:1014D0007264776172652C206572726F7220636F1F
:1014E00064653A2025580D0A005365637572697466
:1014F000792070726F66696C65206E6F74207365F9
:101500007420757020666F72204D51545420544CD5
:10151000532E2052756E20746865202770726F7686
:101520006973696F6E27206578616D706C65204105
:10153000726475696E6F20736B6574636820666F83
:1015400072206D6F726520696E7374727563746951
:101550006F6E73206F6E20686F7720746F207365D5
:101560007420746869732075702E0041542B535198
:101570004E534D515454444953434F4E4E4543549A
:101580003D3000436F6E6E656374696E6720746FE3
:1015900020415753207769746820656E64706F69C5
:1015A0006E743A20257320616E64207468696E67DA
:1015B0006E616D653A2025730D0A00436F756C648A
:1015C000206E6F7420726574726965766520656E31
:1015D00064706F696E742066726F6D207468652028
:1015E0004543432C206572726F7220636F64653AC5
:1015F0002025580D0A00436F756C64206E6F7420AF
:101600007265747269657665207468696E67206EAC
:10161000616D652066726F6D207468652045434377
:101620002C206572726F7220636F64653A202558B2
:101630000D0A00436F756C64206E6F742066696ECE
:101640006420415753207468696E67206E616D6530
:1016500020696E20746865204543432E20506C65D8
:101660006173652070726F766973696F6E2074683C
:101670006520626F61726420666F7220415753204B
:101680007573696E672074686520696E737472750E
:101690006374696F6E7320696E2074686520707260
:1016A0006F766973696F6E20736B657463682E0063
:1016B0004D617820616D6F756E74206F6620555294
:1016C000432063616C6C6261636B7320666F722090
:1016D00053657175616E73436F6E74726F6C6C6578
:1016E00072207265616368656400207769746820A0
:1016F0006C656E67746820677265617465722074CA
:1017000068616E20746865206D6178696D756D2003
:101710006C656E67746820616C6C6F7765642066B9
:101720006F722055524373202825642F2564290D9C
:101730000A00257300255300417474656D7074654B
:101740006420746F207265676973746572205552E6
:101750004320002077697468206C656E6774682088
:1017600067726561746572207468616E2074686563
:10177000206D6178696D756D206C656E6774682089
:10178000616C6C6F77656420666F7220555243738D
:10179000202825642F2564290D0A00257300255370
:1017A00000417474656D7074656420746F206465A5
:1017B0002D72656769737465722055524320004E1F
:1017C0004F4E450053455249414C5F57524954458D
:1017D0005F4552524F520053455249414C5F52456A
:1017E00041445F4552524F520054494D454F555464
:1017F000004255464645525F4F564552464C4F575C
:10180000004552524F52004F4B00202D3E20257371
:101810000D0A0053657175616E73436F6E74726F5C
:101820006C6C65722E7772697465436F6D6D616E55
:101830006428292063616C6C656420776974682072
:1018400062756666657220776869636820697320CF
:10185000746F6F20736D616C6C20666F722074689A
:101860006520726573706F6E73652E20496E6372AA
:101870006561736520726573706F6E736520627544
:10188000666665722073697A652E000053656E6422
:10189000696E6720415420636F6D6D616E643A20FC
:1018A000000D0A4552524F520D0A000D0A4F4B0DC2
:1018B0000A000D0A000D0A0057726974696E6720EC
:1018C000737472696E673A20000000080A400CFFCA
:1018D000C000C0005F3E11241FBECFEFCDBFDFE7C9
:1018E000DEBF8091400080934000811105C098EDDB
:1018F00021E094BF209341008CBB80E380930110D2
:1019000088ED90EB84BF9093011024E5A0E9B1E449
:1019100001C01D92AD33B207E1F711E4A0E0B0E4DD
:10192000E2E9F7E900E00BBF02C007900D92A03991
:10193000B107D9F71CE0CBE6DCE004C02197FE013B
:101940000E943846CA36D107C9F70E94203F0C943E
:10195000C74B0C940000FB01A485B585ED91FC916B
:1019600011970190F081E02D682FCD01099590E04D
:1019700080E00895CF93DF93DC0117961C921797B0
:10198000ED91FC91119785818370F1F114968C9102
:1019900014978160878330E020E090E080E072E07F
:1019A0004581542F53702F5F3F4F213CCDE53C07BD
:1019B00020F443FF0BC098E0958316968C93DF913B
:1019C000CF91089530E020E097E0EACF9923A9F085
:1019D000523099F7948347FF13C08238A8F72085C7
:1019E000ED01C80FD11DC157DF4F28838F5F8617C8
:1019F00048F7748330E020E0D3CF523089F6EBCF44
:101A000046FFCECF93E0CCCF80E0D9CF9FB7F894FC
:101A1000E0912A0BF0912B0B8091260B2091BE4870
:101A20003091BF484091C0485091C1489FBF80FF4E
:101A300008C0CF018827892B21F42F5F3F4F4F4FDC
:101A40005F4F0F0116940794169407941694079409
:101A500016940794F00116940794E00DF11D169466
:101A60000794102C169401181694010C1694011862
:101A70001694010C1694011816941694010C112456
:101A8000E019F109A8EEB3E00E94FB446E0F7F1F3E
:101A9000811D911D08952FB7F8946091BE487091F3
:101AA000BF488091C0489091C1482FBF0895809150
:101AB000A90486FF05C080E48093A9040C9400006B
:101AC0000895EF92FF920F931F93CF93DF938C01B2
:101AD0007B01D0E0C0E0F701EC0FFD1F64916623AD
:101AE00061F0D801ED91FC910190F081E02DC801E9
:101AF0000995892B11F02196EECFCE01DF91CF9180
:101B00001F910F91FF90EF9008950F931F93CF9324
:101B1000DF938B0120911553309116532817390705
:101B20005CF140911353509114539C0121503109A1
:101B300069EC78E12430310538F4220F331FF901C4
:101B4000EC5FFE4B60817181CA01BBDFC091135312
:101B5000D0911453B801CE01B4DFE881F98102803D
:101B6000F381E02D42E050E065E471E4CE01DF91C5
:101B7000CF911F910F910994DF91CF911F910F91F8
:101B80000895BC0181E090E0C0CFBC0183E090E00B
:101B9000BCCFAF92BF92CF92DF92EF92FF920F93A2
:101BA0001F93CF93DF936C017B018B01040F151FF3
:101BB000EB015E01AE18BF08C017D10759F069915B
:101BC000D601ED91FC910190F081E02DC6010995BF
:101BD000892B79F7C501DF91CF911F910F91FF906C
:101BE000EF90DF90CF90BF90AF90089590E0FC0110
:101BF000EB57FF4B20812F3F69F182559F4BFC0132
:101C00008081E82FE295EE0FE07EE20FF0E0E05FEA
:101C1000FB4F9081917F908390E0FC0134E0EE0FC8
:101C2000FF1F3A95E1F7422F50E061E070E001C0FC
:101C3000660F2A95EAF76383880F991FFC01E25F1C
:101C4000FF4B440F551F0190F081E02DE40FF51F6D
:101C5000108211820895282F30E0F901EB57FF4BD5
:101C600090819F3F71F1433069F1443069F143E065
:101C700022553F4BD901EC91F0E0DF01AA0FBB1FC9
:101C8000A25FBF4B2D913C9121153105D1F0A92FB9
:101C9000B0E0AA0FBB1FA20FB31F6D937C935FB779
:101CA000F8949F0165E0220F331F6A95E1F7E0E1A8
:101CB000E90FE20FF0E0FC5F8081887F842B808356
:101CC0005FBF089542E0D4CF41E0D2CFFC015189FB
:101CD0004289252F30E0842F90E0821B930B54170C
:101CE00010F0CF96089501970895FC01978580899B
:101CF000981761F0A089AE0FBF2FB11D53968C913C
:101D000090899F5F9F73908B90E008958FEF9FEF76
:101D10000895CF92DF92EF92FF920F931F93BBDE55
:101D20006B017C0180E892E5E0DF97FF14C0B3DE31
:101D30006C197D098E099F0900918452109185527A
:101D4000209186523091875260177107820793075E
:101D500048F38FEF9FEF1F910F91FF90EF90DF906F
:101D6000CF900895FC0197858089981731F080897C
:101D7000E80FF11D838990E008958FEF9FEF08959C
:101D8000FC0197852089892F90E0805C9F4F821B02
:101D900091098F7399270895FC010FB607FE04C0BF
:101DA000809111018823A9F0A085B18514968C91AA
:101DB000149785FF0EC091898289981307C01596E4
:101DC0008C9115978F7D15968C930895E8940C94BB
:101DD000183808950F931F93CF93DF93EC018E85EE
:101DE00081608E8799898A8998130BC0E885F98567
:101DF000848185FF06C08E8581FD0DC080E48483CB
:101E000012C0062F19891F5F1F738A89811315C09D
:101E1000CE01C2DFFACF85818F77806490E494830E
:101E2000E885F9858583E885F985628381E090E01E
:101E3000DF91CF911F910F910895E989EC0FFD2F4C
:101E4000F11DED5AFF4F0083198B8E85E885F985CA
:101E500081FF09C085818F77806690E49483E8854F
:101E6000F9858583E3CF85818062FBCFCF93DF93B4
:101E7000EC018E85882359F0E885F985858185FDFB
:101E800003C0848186FD03C0CE0186DFF5CFDF91DC
:101E9000CF910895CF92DF92EF92FF92CF93DF938D
:101EA000EC016A017B0160E07BE187EB90E0A70138
:101EB00096010E94164680ECC81687E2D80689E093
:101EC000E806F10438F0285031092230310564F475
:101ED00022E00AC080E8C8168AE1D80686E0E80653
:101EE000F10410F129503109E881F98186818217C6
:101EF00099F093811382268381E8C8168AE1D80677
:101F000086E0E806F104D8F08081826080839383C4
:101F100090FF02C081E0858380E0DF91CF91FF9048
:101F2000EF90DF90CF9008952C5031092230310589
:101F30007CF22F3F3105C1F2BCF22FEFD5CF80816B
:101F40008D7FE4CF8091BB48882329F0813120F038
:101F500080518093BB4808958093500080E0F9CF72
:101F60001F93CF93DF93EC01E881F981838586FF8E
:101F700047C080FF35C0158581FF25C08E8188232D
:101F800041F0E0DFEB85FC85309719F08E8190E021
:101F900009951C831D821886E985FA85309709F01A
:101FA00009958D81882399F083E09091BB4899230E
:101FB00081F0905F9093BB48E881F9818287DF913F
:101FC000CF911F9108951C831E821F82EDCF86E062
:101FD000ECCF90915000292F217020935000EACF30
:101FE000B1DFEB85FC85309729F08E81882311F0D5
:101FF00090E009951E821D821F82188682E0DCCF48
:1020000087FF31C081FF1EC0887139F08A8183FF4C
:1020100004C01D82877F8A83F1CF8B818F5F8B8382
:102020008A8188608A83A8858D81A81738F7AC0FCC
:10203000BD2FB11D1D968C91858788858F5F888700
:1020400083E0BACF8585EE81E23868F4EC0FFD2F8E
:10205000F11DE157FF4F80838E818F5F8E83823821
:1020600078F386E0A9CF80E0A7CFCF93DF93DC01A0
:10207000ED91FC9111978581837009F443C08381B0
:1020800080FF40C030E020E090E04581842F8370E5
:102090002F5F3F4F213C5DE5350750F0823071F1F5
:1020A000813071F184E093E09483DF91CF910895C2
:1020B00043FF04C088E0858382E1F5CF813041F49D
:1020C00014968C9114978E7F878330E020E0DDCFCB
:1020D0008230D9F646FFD9CF44FF04C0992319F3C3
:1020E00083E0E1CF15968C911597981768F4ED0170
:1020F000C90FD11D8D8580879F5FE7CF85E0D3CF46
:1021000081E1D1CF80E1D1CF80E0662371F2CBCFE6
:10211000DC011896ED91FC919381818513821186E3
:10212000938391E09583818708959C0129563F4FC1
:10213000DC011F96EC911F971E968C91E81730F4E6
:10214000E20FF32FF11D808190E008958FEF9FEF54
:102150000895FC01DC01A956BF4F97858685981725
:1021600040F4A90FB11D2C919F5F9787822F90E0BB
:1021700008958FEF9FEF0895FC0186859785891B51
:10218000990B0895FC01A585A23858F4A80FB92F22
:10219000B11D55966C9385858F5F858781E090E0B2
:1021A000089590E080E0089560E0ECCFBF92CF9278
:1021B000DF92EF92FF920F931F93CF93DF937C01F7
:1021C0006A01B62EEB010C2F0B1910E00C151D0542
:1021D00028F46991C701D6DF892BA9F7C801DF91DF
:1021E000CF911F910F91FF90EF90DF90CF90BF9014
:1021F000089590E080E00895CF92DF92EF92FF92F1
:10220000CF93DF93EC0147DCCC80DD80EE80FF8054
:102210006C197D098E099F0921E0C880D980EA8068
:10222000FB80C616D706E806F90608F020E0822FE4
:10223000DF91CF91FF90EF90DF90CF900895809144
:10224000250885FD0DC054990BC08091B948909127
:10225000BA48892B29F0809125088062809325084F
:10226000089580911145813071F08091C6498111A6
:102270000AC080911150909112508E3F914010F4FD
:102280004F9808954F9A0895CF93DF9380911150FE
:1022900090911250892BE9F0F894C0910F50D09191
:1022A00010502196D170C0930F50D0931050809150
:1022B00011509091125001978093115090931250A9
:1022C0007894CFDFC15FD14B888190E0DF91CF91CF
:1022D00008958FEF9FEFFACF8F929F92AF92BF92A8
:1022E000EF92FF920F931F93CF93DF93CDB7DEB79B
:1022F0002897CDBFDEBF082F4A015B01C5DF7C01F7
:1023000089829A82AB82BC82C6DB6D837E838F8397
:10231000988710E00E151F05B9F0B6DF7C018FDF3E
:10232000CE01019669DF8823A9F380E02896CDBF0E
:10233000DEBFDF91CF911F910F91FF90EF90BF9083
:10234000AF909F908F90089581E0F0CFF894109215
:1023500011501092125080910D4E90910E4E80931C
:102360000F509093105078947CCF5C9B09C0549B85
:1023700008C0809125088F7D8093250880E18BB966
:102380000895809125088062F7CF81E08093C2494B
:1023900008958091395181FF0BC0E0913751F09140
:1023A000385113821682809139518D7F8093395133
:1023B0008091395182FF0DC0E0913751F091385131
:1023C000148611861686809139518B7F80933951FE
:1023D000118290E080E0089585EF90E00895CF921B
:1023E000DF92EF92FF920F931F93CF93DF937A01C7
:1023F0008901F9018081833808F082E8660F6093D3
:102400003B51682F87E391E5B5DA90E0F8018083CE
:102410009183E7016E01CE18DF08F8018081918178
:10242000C816D90640F48FE291E593DE8F3F9807F6
:10243000A1F38993EFCF90E080E0DF91CF911F91DE
:102440000F91FF90EF90DF90CF90089590E080E0A3
:1024500008951F93CF93DF93DA01FB01EB01C80FBF
:10246000D91F30E020E0CE17DF0739F42C93119606
:102470003C93DF91CF911F910895819168E070E0C6
:1024800091E0132F111F1127111F220F331F41E05D
:10249000582F592309F440E0411719F045E024274B
:1024A0003058990F6150710961F7DDCFBC016F5F42
:1024B0007F4FFC018181825090E0AB01480F591F92
:1024C000C8CF009771F0DC01ED91FC91309749F095
:1024D0002081318181E02130310529F0283031051A
:1024E00011F080E008950895009779F0DC01ED91F6
:1024F000FC91309751F020813181C90104970297F6
:1025000030F081E02230310519F080E0089581E05B
:102510000895009761F0DC011296ED91FC913097DF
:1025200049F00084F185E02D309721F0099482EE86
:1025300090E008958DEF90E00895009761F0DC0140
:102540001296ED91FC91309749F00680F781E02DCD
:10255000309721F0099482EE90E008958DEF90E09D
:102560000895CF93DF930097D9F0DC011296ED9197
:10257000FC9113973097C9F00480F581E02D3097D6
:10258000A1F00D90BC91A02DCD91DC911197CD2B98
:1025900021F46F3F11F414966C91DF91CF9109945F
:1025A00082EE90E0DF91CF9108958DEF90E0FACF29
:1025B000009759F0DC01ED91FC91309731F080816A
:1025C0009181892B11F4848108958FEF08950097EC
:1025D00041F0DC01ED91FC91309719F082819381FB
:1025E00008958EE790E0089580339CF08A3324F0BC
:1025F0008F3524F08B3724F481E0089581344CF03A
:102600008B35D4F393ED980F81E09230B0F380E0F6
:1026100008958B32B9F7F0CFFC01848581110AC08F
:10262000A185B285CD010196818792878C918387A0
:1026300081E08487838508951F93CF93DF93EC0116
:10264000162FEADF811306C01C8681E0DF91CF914F
:102650001F91089580E0FACFCF93DF93EC01CE0174
:10266000DBDF8B303CF489304CF4882349F081E087
:10267000888710C08D3011F08032C9F71C86EFCFEB
:10268000888581110AC081E090E0C15BDF4F8883BB
:10269000998380E0DF91CF91089582E090E0F5CFBB
:1026A0000895809187439091884382608093874307
:1026B00090938843089580918743909188438860E0
:1026C00080938743909388430895809184438F5FDC
:1026D0008F7180938443E091844384E0E89FF0010C
:1026E0001124ED5FFC4B2083318342835383089593
:1026F0008091690482FF0CC084E08093690480911A
:102700008743909188438061809387439093884367
:102710000895FC0124813581A9014F5F5F4F8681B7
:1027200097814817590748F48281938144835583E0
:10273000FC01E20FF31F608308950190F081E02D0A
:1027400081E0808708959F92AF92BF92CF92DF92EF
:10275000EF92FF920F931F93CF93DF93CDB7DEB726
:102760002597CDBFDEBF8C0157DFD82ED8011C9630
:102770001C92F12CE12C60EFC62EC8014DDFF80150
:102780001486D81609F4B7C0811117C0F801E15BAF
:10279000FF4F82E090E08083918380E02596CDBF5B
:1027A000DEBFDF91CF911F910F91FF90EF90DF90EF
:1027B000CF90BF90AF909F9008958C3509F099C04D
:1027C000C8012ADF882311F3E0E3F1E4853709F03B
:1027D00084C0D8011C961C9254E0952EB12CA12CDB
:1027E000C8011ADF882391F281344CF48053803180
:1027F00048F0F801E15BFF4F83E090E0CCCF8F7DA4
:102800008753F5CF44E0AA0CBB1C4A95E1F7A82AF0
:10281000F80114869A949110E3CFC501985D811553
:10282000944020F4750123E0F222A7CFC5019C5DFE
:1028300081159440A0F4B3E0BB22B701762F662740
:10284000770F770F6A297B2990E080E00196603846
:1028500071058105910538F4C8015BDF8ECFB501A4
:1028600090E080E0F4CF1982262F2F7320682A830E
:1028700026E096958795779567952A95D1F76032EA
:10288000710578F4606C6B835E01E4E0AE0EB11C00
:10289000D5016E915D01662309F46FCFC80139DF60
:1028A000F7CF262F2F7320682B8386E076956795C8
:1028B0008A95E1F76031710538F4606E6C835E01D2
:1028C000F5E0AF0EB11CE4CF60686C83CD825E0191
:1028D00026E0A20EB11CDCCF32969081992309F438
:1028E00088CF8913F9CF8181882309F482CFF80139
:1028F0001486682FB1CF0190F081E02D8085882368
:1029000031F0F801E15BFF4F84E090E044CF81E0DB
:1029100045CF4F925F926F927F928F929F92AF922C
:10292000BF92CF92DF92EF92FF920F931F93CF93BC
:10293000DF93EC018B0188818B32C9F18D32C1F5B7
:102940002196FF24F394888190ED980F9A3018F027
:102950008E3209F04DC160E070E0CB01FE012191A3
:10296000A0ED8A2E820E39E0381520F16A3949E946
:102970007407840749E1940738F5AAE0B0E09B01A9
:10298000AC010E94FB44912CB12CA12C24013501F7
:1029900040945094609470944616570668067906E1
:1029A00098F0680D791D8A1D9B1DEF01D7CF2196E8
:1029B000F12CC9CF211108C0FF20F1F16130710560
:1029C000810550E89507A0F0E12CEAE08E2E912CCD
:1029D000A12CB12C61157105F0E88F079105C0F1AC
:1029E000A50194010E941646CA01B901E394F2CFF1
:1029F000F801248120782A6024839B01AC01882778
:102A00009927DC01821B930BA40BB50B8083918368
:102A1000A283B3838F2DDF91CF911F910F91FF90F0
:102A2000EF90DF90CF90BF90AF909F908F907F906E
:102A30006F905F904F900895F8012481207828606E
:102A400024836083718382839383FF24F394E2CF92
:102A5000FE01299130ED320F3A3010F4E394F8CFB3
:102A60002E32F1F4EF012196FE012196208150EDE6
:102A7000D52ED20E29E02D1598F06C3C3CEC730756
:102A80003CE08307910580F7AAE0B0E09B01AC0130
:102A90000E94FB446D0D711D811D911DEA94E4CFD0
:102AA00020812F7DD0E0C0E0253409F05DC0218178
:102AB0002D32D9F53296CC24C394DF01D0E0C0E0AA
:102AC0002E2D0E2C000C330B4AE0B42EFD01DD90B0
:102AD00040ED4D0D4A3008F042C0BC9EA001BD9EA5
:102AE000500D1124CD2DDD0CDD0BE097C40FD51F4B
:102AF000AE01420F531F4732510544F3F801848160
:102B0000CC20D1F040E050E060E070E8F11003C06C
:102B100040E050E0BA0180788C60F8018483408303
:102B2000518362837383FC2C75CF2B3219F031965D
:102B3000C12CC3CF3296FCCF40E050E060E87FEF7D
:102B4000F11004C040E050E060E87FE780788C60DE
:102B5000F8018483408351836283738376CFCC20D2
:102B600019F0D195C195D1092081211141C0CE0D17
:102B7000D11DE7FCDA950E94E3431C161D0604F5FF
:102B8000E12CC0FF0CC024E0E29EF0011124EF5BB9
:102B9000FC4F25913591459154910E944444D5951F
:102BA000C795E394209769F7F1109058F8012481B4
:102BB00020782C602483608371838283938345CF44
:102BC000D195C195D109E12C209771F3C0FF0CC0BC
:102BD00044E0E49EF0011124E75AFC4F2591359121
:102BE000459154910E944444D595C795E394ECCF08
:102BF000F12C10CFCF92DF92EF92FF92CF93DF9321
:102C0000CDB7DEB72597CDBFDEBFFC0184818F77BE
:102C10008630B1F028F48430F8F490E080E012C0FF
:102C20008A3021F08C3019F18830B9F78081918198
:102C3000A281B381009721E0A207B10518F0EDCF82
:102C4000808190E02596CDBFDEBFDF91CF91FF90D0
:102C5000EF90DF90CF900895808191811D82BE0119
:102C60006F5F7F4F56DECE010196C4DFEBCFC08091
:102C7000D180E280F38020E030E0A901C701B601F5
:102C80000E94124687FDC9CF20E03FEF4FE757E48F
:102C9000C701B6010E94DF4318160CF4BECFC7016E
:102CA000B6010E94E645CB01CDCFFC01892B31F066
:102CB00084818F77843029F0853019F090E080E0AE
:102CC0000895808191810895CF93DF93DC01EB011A
:102CD000EC81FD818A819B810896E817F90740F411
:102CE00081E08887F0E0E0E0CF01DF91CF910895A7
:102CF0003897EC83FD833097B9F31296CD91DC9130
:102D00001397209791F0CF018C1B9D0B23E0959595
:102D100087952A95E1F78D831296ED93FC9313978F
:102D20001582148216821782DFCFED93FC931197E0
:102D3000F3CFEF92FF920F931F93CF93DF937C011A
:102D4000DC0112962D913C911397ED91FC91AB0112
:102D5000420F531FEF01C60FD71FC217D307A0F4AE
:102D6000888181110BC0E901CF014C175D0751F03B
:102D70000991DC011D91CD010117B9F381918111F8
:102D8000FDCFE8CF309751F4620F731FCB0101964E
:102D9000F70182839383DB011C92F901CF01DF915C
:102DA000CF911F910F91FF90EF900895EF92FF92B6
:102DB0000F931F93CF93DF93CDB7DEB72E97CDBF81
:102DC000DEBF2091155330911653281739075CF157
:102DD000A0911353B09114539C0121503109243018
:102DE000310558F5220F331FF901EC5FFE4B2081AE
:102DF00031817A018B01B901CD010E94610D8BEA0D
:102E00009CE089879A871B861C8682E08C83809150
:102E10001353909114538D879E87A701B801CE015B
:102E200001960E946A432E96CDBFDEBFDF91CF91FF
:102E30001F910F91FF90EF90089529EC38E1D9CFC1
:102E4000CF93DF93CDB7DEB7AE01475F5F4F6F81A2
:102E5000788581E090E0AADFDF91CF910895CF934C
:102E6000DF93CDB7DEB7AE01475F5F4F6F817885E7
:102E700084E090E09BDFDF91CF910895CF93DF93C3
:102E8000CDB7DEB7AE01475F5F4F6F81788590E0C9
:102E900080E08CDFDF91CF910895CF93DF93CDB7A2
:102EA000DEB7AE01475F5F4F6F81788583E090E0CA
:102EB0007DDFDF91CF910895809137519091385106
:102EC000811529E0920741F48091E5058C7F8260AD
:102ED0008093E50581E008958032994029F480913E
:102EE000E505837F8860F4CF80E008951F93CF933A
:102EF000DF93CDB7DEB72897CDBFDEBF182F809107
:102F0000B9489091BA4881159240F9F488EE93E05F
:102F1000A0E0B0E089839A83AB83BC830E944B0D11
:102F20006D837E838F8398878091B9489091BA484A
:102F30008115924029F4CE0101965ED9882381F152
:102F4000809125088F7D80932508F8948091B7485B
:102F50009091B848019691708093B7489093B84883
:102F6000E091B748F091B848E954F94B108380914B
:102F7000B9489091BA4801968093B9489093BA485D
:102F800078945DD990E080E017C0CE01019634D9E5
:102F9000811108C08FE697E10197F1F700C00000AA
:102FA0005499F3CF549B0FC0CE01019625D98823A5
:102FB00009F4BACF8FEF9FEF2896CDBFDEBFDF9128
:102FC000CF911F910895CE01019616D98111ECCFB2
:102FD00080912508806280932508A6CF0F931F93C8
:102FE000CF93DF93CDB7DEB72E97CDBFDEBF88EB93
:102FF00098E19F938F9303E113E51F930F932FDFC6
:1030000086E797E189879A871B861C8682E08C83F6
:103010001D861E860F900F900F900F908091155374
:1030200090911653049799F4AE01465E5F4F6F89F5
:10303000788D90E080E0BADE82EB98E19F938F93E9
:103040001F930F931BDF0F900F900F900F90AE0107
:10305000465E5F4F6F89788DCE0101960E946A436C
:1030600097FD07C070E060E08DE040DF21E0892B34
:1030700009F020E0822F2E96CDBFDEBFDF91CF91E9
:103080001F910F9108954F925F926F927F92AF922E
:10309000BF92CF92DF92EF92FF920F931F93CF9345
:1030A000DF93CDB7DEB76897CDBFDEBF7C016B0184
:1030B00019821A82FE0133968EE0DF011D928A95F5
:1030C000E9F7E114F10429F490E1C92ED12C3297EB
:1030D0007F01F701EC0DFD1D3197108210E000E03B
:1030E00080ED482E87E0582E612C712C0C151D05A3
:1030F00008F06BC0498A5A8A6B8A7C8A0E944B0D01
:103100006D8B7E8B8F8B988F809111509091125088
:10311000892B69F4CE0141966FD8811108C08FD8F0
:103120008FE697E10197F1F700C00000EDCF8091A5
:10313000115090911250892B79F0A6D858019FEF29
:10314000A91AB90A0E0D1F1DD8018C93B1E0AB1658
:10315000B10451F48501CACFCE0141964DD88823E0
:1031600061F384E090E013C001501109F8019081EF
:103170009D3081F78A3071F76BEA78E1C7010E94D0
:10318000B9420097B1F0DC011C9281E090E06896B2
:10319000CDBFDEBFDF91CF911F910F91FF90EF90D8
:1031A000DF90CF90BF90AF907F906F905F904F90E7
:1031B000089561EA78E1C7010E94B942009751F28F
:1031C000FC01108282E090E0E2CF83E090E0DFCF6C
:1031D000CF92DF92EF92FF920F931F93CF93DF93E3
:1031E000CDB7DEB7A197CDBFDEBFC8A8D9A8AED8EE
:1031F00083E193E520911553309116532430310526
:1032000099F42CE838E13F932F939F938F9327DE17
:10321000AE014C5C5F4F6EA57FA590E080E0C6DDFF
:103220000F900F900F900F9086E797E18C8F9D8FF6
:103230001E8E1F8E82E08F8B18A219A216E0AE019F
:103240004C5C5F4F6EA57FA5CE0144960E946A43F9
:1032500097FD7FC070E060E08DE048DE6AA97BA941
:10326000C60111DF7C010397C9F4C114D104D1F068
:103270006BE878E1C6010E94904283E198E10E94E8
:10328000C10DC701A196CDBFDEBFDF91CF911F91C8
:103290000F91FF90EF90DF90CF90089581E0E816B6
:1032A000F10461F09FEFAEE9B4E29150A040B0406C
:1032B000E1F700C00000115009F0C1CF8091155313
:1032C000909116530497E9F619821A82FE013396FB
:1032D00081E1DF011D928A95E9F78E010F5F1F4F93
:1032E000B7E0EB16F10488F4F701E758F64E0C94BA
:1032F0003846A619801997199A199D19A019A3196A
:1033000067E078E1C8010E9490421F930F938AE022
:1033100098E19F938F9383E193E59F938F93AEDD25
:103320000F900F900F900F900F900F90AACF61E029
:1033300078E1E8CF61EF77E1E5CF69EE77E1E2CFC1
:1033400067ED77E1DFCF64EC77E1DCCF6FEB77E11E
:10335000D9CF86E0E82EF12C94CFCF93DF93EC0108
:1033600088819981009711F00E94DD4618821982A8
:103370001C821D821A821B82DF91CF91089590E0FA
:10338000FC01E952FF4B30813F3F61F1FC01EB57FB
:10339000FF4B208182559F4BDC01EC91B0E2EB9F0B
:1033A000F0011124FC5FA62FA37021F0AE0FBF2FF8
:1033B000B11D3C933FB7F89484E0769567958A9564
:1033C000E1F7822F90E04096E80FF91F808163FFBC
:1033D00004C0887F962F9770892B607309F08860EE
:1033E00080833FBF08950F931F93CF93DF9389325C
:1033F00008F0C5C090E0DC01A952BF4B2C912F3FD3
:1034000009F4BDC08C0102551F4BE801E881D0E2F0
:10341000ED9FF0011124FC5F611137C026833081DC
:103420002323AC014B575F4B211111C0EA012881C6
:10343000309769F1283058F57096E20FF11D3FB7CB
:10344000F8942081611126C0277F20833FBFFA01B5
:1034500030813F3F09F493C0E801288140911C402E
:10346000363078F53091E60544FF16C0532F57707B
:10347000251312C0EC91E53008F0EE0F8091010A9F
:10348000E095E823E093010A7AC02583C8CFF0E0F5
:10349000E0E0D5CF2860D9CF43FF13C0387169F47D
:1034A000213079F4EC91E53008F0EE0F8091410A7B
:1034B000E095E823E093410A62C0383111F42630E8
:1034C00089F3845A9F4BFC01808146FF3FC086FFF1
:1034D0003DC09091E8059770482F50E04F7B9417BE
:1034E0001506A1F5EC918091920B8E2309F447C04B
:1034F000C0E22C9F900111243C5FE83008F055C0D9
:10350000205F3F4FE20FF32FF11D4FB7F8949091DA
:10351000800B9E7F9093800B90918E0B90FFFCCF41
:103520002091920B90E08095909530E08223932338
:1035300028ED24BF8093920B8091800B8160809353
:10354000800B80818F7780834FBF19C085FF15C0A6
:1035500030E1839FF0011124F75F918197709730DC
:1035600071F4EC91853280F48032B0F4883009F443
:103570009ACF803109F47FCF02C08111F2CFDF9161
:10358000CF911F910F910895803409F4ACCF80380A
:10359000B1F71092A006F3CF90E1899FF0011124BA
:1035A000F75F81818F7E8183EACFF0E0E0E0ADCFED
:1035B00001978430910530F480509F4BFC0180814D
:1035C00061E011CF80E0FCCF1092484B61E081E0D8
:1035D00090E0EEDFE091C349F091C449309709F0E3
:1035E0000994089501978430910530F480509F4BE1
:1035F000FC01808160E0F7CE80E0FCCFE0E2F8E003
:1036000015821682178262EC70E083E1B8DE61E019
:1036100085E1E9DE62EC70E085E1B1DE62EC70E04C
:1036200084E1ADDE84E10E94F60D62EC70E082E19F
:10363000A6DE82E10E94F60D62EC71E08EE09FDE74
:1036400062EC71E08FE09BDE1092C54908959C0109
:103650002150310981E02430310508F080E0282F25
:1036600030E0F901E952FF4B90819F3F91F02255E4
:103670003F4BD901EC91B0E2EB9FF0011124FC5FCC
:103680002085922321E009F420E061E0211160E02F
:10369000AACE2FEFFACF81E090E0D9DF84EC9BE057
:1036A0009F938F9383E193E59F938F93E7DB0F9035
:1036B0000F900F900F90089581E090E0C8CFFC012B
:1036C000828181FD4CC082FD4AC0A081B181A115DB
:1036D00089E0B80749F58091E50583709CE0823068
:1036E000F1F4909346049091010990FF05C088235E
:1036F000C9F080EC8093460482818260828381E0FD
:1037000013968C93139715968C93828181FF27C013
:1037100040EA56E861E070E0CF010C944A0F9093C4
:103720000604E1CF8CE0E6CFA03289E0B80721F7AC
:103730008091E5058C709CE0883061F490932604BC
:103740009091210990FFD8CF811107C08CE0809320
:103750002604D2CF9093A604F3CF80ECF8CF08953F
:10376000CF93DF93EB01A8DB4E815F81688579857C
:10377000483E83E058076105710540F0809139515A
:1037800081FF04C087E391E50E944A0F87E391E53A
:1037900096DF90E080E0DF91CF910895660FFC0105
:1037A000648715860895CF93C82F6091BD488FE236
:1037B00091E5F4DF6C2F8FE291E50E94C21060E08A
:1037C00087E391E50E9435108091BD48880F809372
:1037D0003B5162E087E391E50E94BA0C90913D5124
:1037E00080913E51981769F08FE291E50E94A910EF
:1037F000C82F8FE291E50E94A910982F8C2FCF91AE
:10380000089580E0C0E0F9CF0F931F93CF93DF932B
:1038100000D0CDB7DEB7182F6091BC4886E190E5A7
:10382000BDDF612F86E190E50E94C21061E08EE16C
:1038300090E50E9435108091BC48880F80932250FB
:1038400062E08EE190E50E94BA0C8E010F5F1F4F7F
:103850009091245080912550981741F086E190E591
:103860000E94A910F80181938F01F2CF89819A817A
:103870009827892798270F900F90DF91CF911F915C
:103880000F910895EF92FF920F931F93CF93DF93C1
:103890008A0179018FE291E581DFD0E0C0E0CE15A9
:1038A000DF0560F4F801EC0FFD1F60818FE291E508
:1038B0000E94C210892B99F32196F1CF61E087E332
:1038C00091E50E94351090E080E0DF91CF911F914B
:1038D0000F91FF90EF900895BF92CF92DF92EF92F9
:1038E000FF920F931F93CF93DF93F82EE92EB62EFE
:1038F000662309F443C00E949742EC014C9708F4F8
:1039000082C081EA97E19F938F93C3E1D3E5DF9370
:10391000CF9396DAEF92FF928EE997E19F938F9380
:10392000DF93CF93ABDA8DB79EB70A968DBF9EBF5C
:10393000AF2DBE2DFD0101900020E9F73197EA1B64
:10394000FB0B1F928BE18F93FF93EF9383E597E13E
:103950009F938F9383E193E59F938F938FDA8DB736
:103960009EB708968DBF9EBFDF91CF911F910F919B
:10397000FF90EF90DF90CF90BF900895E82FF92F40
:10398000EF0109900020E9F72197CE1BDF0BCC3126
:10399000D105C8F181EA97E19F938F93C3E1D3E505
:1039A000DF93CF934DDAEF92FF928BE997E19F93EC
:1039B0008F93DF93CF9362DA8DB79EB70A968DBF50
:1039C0009EBFB6CF0E94424810C00F5F1F4F90E2CB
:1039D000C90ED11C0A30110539F2AE016F2D7E2DB2
:1039E000C601BB2079F30E947A42892B71F795E0DA
:1039F000000F111F9A95E1F7F801E353F34B148E72
:103A0000168E178EB1CF8DECC82E8CE4D82E10E018
:103A100000E0E3CF61E081E090E0CADD61E085EAAB
:103A200090E15ADF61E083EE91E156DF8091494BEE
:103A30008823C1F08091484B8823A1F01F921F92E8
:103A40001F921F928BE695E19F938F9383E190E500
:103A50009F938F93BDDB0E94A6118DB79EB70896EA
:103A60008DBF9EBF1092484BE091C349F091C4496D
:103A7000309709F0099581E00895FC0181818B7FE1
:103A8000813339F481E08093494B61E090E080E03C
:103A9000A9CD8091494B882371F01092494B61E088
:103AA00090E080E085DDB6DFE0918A43F0918B43C2
:103AB000309709F009940895CF93DF93CDB7DEB71F
:103AC0002897CDBFDEBF8091C549882399F1A2DF39
:103AD00061E080EA90E100DF1F921F921F921F9227
:103AE00086E990E19F938F9383E190E59F938F9375
:103AF0006FDB80ED97E0A0E0B0E089839A83AB8331
:103B0000BC830E944B0D6D837E838F839887CDBFCE
:103B1000DEBF8091494B882331F0CE0101960E948F
:103B2000FC108823B1F361E080E990E1D5DE0E94CA
:103B3000A61164DD1092C2491092494B2896CDBF60
:103B4000DEBFDF91CF9108952F923F924F925F9207
:103B50006F927F928F929F92AF92BF92CF92DF929D
:103B6000EF92FF920F931F93CF93DF93CDB7DEB702
:103B7000A497CDBFDEBF1C013B01CB010E94D81230
:103B80008E8B6114710409F46BC0D301ED91FC912B
:103B9000309709F465C04788508C20913E403091A1
:103BA0003F4040914040509141402D8F3E8F4F8F7C
:103BB00058A38091424090914340A0914440B091DD
:103BC000454089A39AA3ABA3BCA3D30118968C91BB
:103BD0001897833009F450C06114710409F44CC083
:103BE0000D911C910115110509F446C0C3010E94F5
:103BF0007412811105C0C3010E946112882399F1DA
:103C0000D3011296ED91FC913097B1F10084F185CA
:103C1000E02D309789F130E020E050E040E060E0B6
:103C2000C30109958C01803D9105B9F48AEF90E0BC
:103C3000E8E5F2E03197F1F70197D1F7D301129659
:103C4000ED91FC910084F185E02D30E020E050E022
:103C500040E060E0C30109958C01012B49F00CC0E4
:103C6000512C412C9ACFF80180819181892BB9F197
:103C700083E0D30118968C93D301ED91FC91808160
:103C80009181009721F08630910509F074C183E09D
:103C9000F1018083F101E180F12CC3010E947412D3
:103CA000882309F46FC19701A1014F5F5F4F6FEF48
:103CB000C3010E94B1128C01073E110509F082C1B7
:103CC000D30118961C92B1E04B1A5108C20101961B
:103CD000181619060CF479CF07EE10E0BCC181E08C
:103CE0008B8BC3010E94D8128C8FF8010788F08D4E
:103CF000E02DEC8BFD8BD301ED91FC9186819781BA
:103D0000A085B185813A9648A140B105F0F020EA3E
:103D100036E841E050E02D873E874F87588B24E0FE
:103D200030E0AE01435F5F4F66E0C3010E9489123D
:103D30008C01853F910559F430E020E050E040E0EF
:103D400060E0C3010E94891287CF10E000E021E00B
:103D500030E0AE014D5E5F4F60E0C3010E94B112E2
:103D6000D301ED91FC916CED75E0309711F0658910
:103D7000768990E080E00E94E3434B015C0120E003
:103D800030E040E051E40E9444446B017C0120E0BB
:103D900030E040E85FE30E94DF4387FDB1C020E0F0
:103DA00030E040EC50E4C501B4010E944444688F07
:103DB000798F8A8F9B8F20E03FEF4FE757E40E9477
:103DC000124618160CF048C020E030E04AE754E4F0
:103DD000C501B4010E9479454B015C0120E030E847
:103DE0004BEB55E40E9444446B017C0120E030E041
:103DF00040E85FE30E94DF4387FD2BC020E03FEFF8
:103E00004FE757E4C701B6010E9412461816CCF4DA
:103E100020E030E040E251E4C501B4010E94444496
:103E20000E94E6456115710529F4EF89EA95F1F7DD
:103E3000EF8B26C088E592E00197F1F76150710998
:103E4000F1CFC701B6010E94E645CB010197F1F71A
:103E5000ECCF61E070E0F9CF20E030E04FE753E4D1
:103E6000C701B6010E94124618160CF043C0688DB7
:103E7000798D8A8D9B8D0E94E645CB010197F1F7E4
:103E800084E090E0898B9A8B0115110509F04BC0F5
:103E90009E012F5E3F4FAE01475F5F4F6C8DC301A8
:103EA0000E949D128C01892BF1F5D301ED91FC91BB
:103EB00086819781A085B185813AE6E89E07E1E099
:103EC000AE07B10500F589899A892D8D3E8D4F8DFC
:103ED00058A12D833E834F83588729A13AA14BA136
:103EE0005CA129833A834B835C83049759F100EDED
:103EF00010E019C0C701B6010E94E6456F8B95CF4F
:103F0000B1E0BF8B92CF8D879E87AF87B88B24E0BF
:103F100030E0AE01435F5F4F66E0C3010E9489124B
:103F2000009789F28C014C895D89141615060CF0F6
:103F300094CE415051094C8B5D8B0115110509F050
:103F4000DACE8BCE44E050E0BE016B5F7F4FCE01F6
:103F500009960E944248892B31F344E050E0BE01AB
:103F60006F5F7F4FCE0109960E94424807ED10E037
:103F7000892BC9F2BCCF019709F08CCE87E7D1011C
:103F80008C9388CE30E020E050E040E064E0C30154
:103F90000E9489128C01853F910511F0892B49F40B
:103FA00097012F5F3F4FA1016E89C3010E94B1129B
:103FB0008C0130E020E050E040E065E0C3010E9469
:103FC00089127ACEF3018085833011F083E08087F7
:103FD0000115110509F03FC080E797E10197F1F75E
:103FE000D12CC12C7101F6E0EF0EF11C80EC582EA3
:103FF000AA24A394B12C410127E0820E911C28E849
:10400000422ED701E52D1D92EA95E9F720EC30E02C
:104010002D833E83A982BA82C3010E947412882331
:1040200009F465C09E012B5F3F4FA70160E0C3010B
:104030000E949D128C010115110509F412C180EE38
:104040009EE20197F1F7FFEFCF1ADF0A23EEC216C7
:1040500024E0D206B1F6D301ED91FC9182819381E7
:10406000807F9927809761F1C3010E94E7127C014C
:10407000C3010E947412811106C0C3010E94611223
:10408000882309F4D7C061147104B1F0D3011296EA
:10409000ED91FC91309781F00084F185E02D30970F
:1040A00059F030E020E050E040E061E0C3010995C4
:1040B00080E797E10197F1F782E0D30118968C939E
:1040C000C801A496CDBFDEBFDF91CF911F910F91A4
:1040D000FF90EF90DF90CF90BF90AF909F908F9028
:1040E0007F906F905F904F903F902F90089530E0B9
:1040F00020E050E040E064E0C3010E9489128C019E
:10410000853F910511F0892BC9F4D301ED91FC9104
:10411000808191810197D9F4498682819381807F42
:1041200099278097B1F49E012F5F3F4FA7016E89B9
:10413000C3010E949D128C01892BC1F030E020E068
:1041400050E040E065E0C3010E94891274CF1986F7
:10415000E4CF21E030E0AE01475F5F4F6E89C301DD
:104160000E94B1128C01892B49F7DDCFF1018681C4
:1041700090E089839A832D813E810DEE10E028170F
:104180003907E0F206EE10E084309105B8F20197AD
:1041900089839A839E012F5F3F4FA4016E89C301DB
:1041A0000E949D128C01892B49F689819A81019682
:1041B00089839A838D839E83C1CF06EE10E0892B7D
:1041C00009F049CF89CDF1018681843009F043CFD0
:1041D0008781873049F188F4813049F108F43BCF79
:1041E00002ED10E0833009F436CF06ED10E08530A3
:1041F00009F431CF01EE10E02ECF04EF10E08F3044
:1042000009F429CF30F40AEF10E0883009F423CF05
:10421000F1CF03EF10E0813109F41DCF04ED10E080
:104220008F3F09F418CFE6CF07ED10E014CF01ED72
:1042300010E011CFB0EFEB22FF24E0E2EE16F10424
:1042400009F43ACF82E08983C3010E94D81221E0A9
:1042500030E0AE014F5F5F4F682FC3010E94B11283
:104260002BCF8D819E818430910508F4A6CFD1019A
:104270001696CC90CA94CA94D12CAE014F5F5F4F72
:10428000B701C6010E942912F701EC0DFD1D9981AD
:104290008081981305C09A818181981709F493CF82
:1042A00005EE10E0D8CE0F931F93CF93DF936115E7
:1042B0007105B9F08B01FC01C081D181209799F083
:1042C0006E817F81C8010E946348892B61F08D81D6
:1042D000882339F0F8E08F02C0011124C80FD91FDC
:1042E000EDCFD0E0C0E0CE01DF91CF911F910F91D3
:1042F00008959F92AF92BF92CF92DF92EF92FF927A
:104300000F931F93CF93DF93EC018B01E42E0E9458
:104310002C13D82E81110EC0F12C8F2DDF91CF914F
:104320001F910F91FF90EF90DF90CF90BF90AF90D3
:104330009F900895CE010E940C13873209F429C181
:1043400014F5823209F425C1CE010E940C13E82E27
:104350005E01FFE0AF0EB11CF12C9A2CCB2C8E2D00
:104360000E94F412882309F440C18FE3F81609F47F
:104370003CC11C86F394F501E1925F01CE010E94DD
:104380000C13E82EECCF8B3509F44AC08B37E1F6DD
:10439000F801848180788062848310821182128285
:1043A0001382EE2009F447C01C86CE010E942C1314
:1043B000882309F4B1CF6DE7CE010E941C13F82EBB
:1043C00081114FC0CC24C394EA94E881F9818281A1
:1043D00093818A839B838481958122813381821B8F
:1043E000930B8E839F831C821D82892B09F4C086C8
:1043F000CE010E940C13873209F45FC0823209F4A7
:104400005CC0CE010E940C13D82E0E94F4128111C0
:10441000ABC0C15BDF4F83E090E0888399837DCFA1
:10442000F8018481807880648483108211821282F2
:104430001382E11007C0C15BDF4F85E090E0888305
:1044400099836ACF1C86CE010E942C13882309F41D
:1044500063CF6DE5CE010E941C13F82EEA948823E9
:1044600011F0FD2C5ACF6D857E85C8010E9464161F
:10447000009729F4C15BDF4F84E090E0CECF4E2D52
:10448000BC01CE0136DF882309F446CFCE010E945D
:104490002C13882309F440CF6DE5CE010E941C1334
:1044A0008111DFCF6CE2CE010E941C138111DBCFA2
:1044B000C15BDF4F83E090E0C2CFCE010E94A31327
:1044C000882309F42ACFCE010E942C13882309F4F3
:1044D00024CF6AE3CE010E941C13882309F499CFEC
:1044E000EA81FB818C819D81E80FF91F1082AC80ED
:1044F000BD806A817B81C801D6DEBC01892BA9F40D
:10450000B501888199810E9499165C016D857E852F
:10451000C8010E946416FC01892B09F4ABCF848189
:1045200080688483A682B782BF014E2DCE01E1DE72
:10453000882309F4F2CECE010E942C13882309F4BB
:10454000ECCE6DE7CE010E941C13811120C06CE2FD
:10455000CE010E941C13882309F45BCFCE010E9478
:104560002C13811132CFD9CE1C866D2DCE010E9425
:104570008913CE010E940C13D82E0E94F4128111CF
:10458000F3CFE881F9818085811174CF9CCFF82E1B
:10459000C4CEE881F981828193818A839B8384815F
:1045A000958122813381821B930B8E839F831C8292
:1045B0001D82892B11F481E08087CE010E94A31314
:1045C000F82E882309F4A8CECC80DD80B60188813E
:1045D00099810E949916F80124812078256024830E
:1045E00080839183C282D38298CEFE01EF0DF11DAC
:1045F00017868F85843781F4F801848180788660FE
:10460000848381E08083F4E0FF1609F42ACFC15B44
:10461000DF4F82E090E013CF863641F4F8018481C9
:104620008078866084831082F5E0EECF8E3621F4A8
:1046300084E0F812ECCF15CFB801892D9C2D0E9493
:104640008914882309F434CF0CCFFC01248125FD83
:104650002ACE90E080E008958F929F92AF92BF9211
:10466000CF92DF92EF92FF920F931F93CF93DF933E
:10467000182F092F6B01942E822E2223B9F10E944C
:104680009742EC014C9708F47EC088E397E19F9332
:104690008F9393E1E92E93E5F92EFF92EF920E941A
:1046A00020170F931F9385E397E19F938F93FF92BA
:1046B000EF920E943E17EDB7FEB73A96EDBFFEBFF0
:1046C0001F928BE18F93DF93CF938AEE96E19F93B6
:1046D0008F9383E193E59F938F930E943E17EDB7ED
:1046E000FEB73896EDBFFEBF80E033C0E82FF92F4C
:1046F000EF0109900020E9F72197CE1BDF0BCC31A9
:10470000D10508F440C088E397E19F938F9383E13C
:10471000E82E83E5F82EFF92EF920E9420170F9368
:104720001F9382E397E19F938F93FF92EF920E94F2
:104730003E178DB79EB70A968DBF9EBFC1CF0E9410
:10474000634837C0F701E353F34BC68ED78E958E7F
:1047500081E0DF91CF911F910F91FF90EF90DF905B
:10476000CF90BF90AF909F908F9008950E946C481B
:104770003EC02F5F3F4F2A30310531F580EB96E187
:104780000E94C10DB1CFB12CA12C750155E0EE0CEA
:10479000FF1C5A95E1F7C7018353934BFC01248D0D
:1047A0002C171D0641F4612F702F882041F20E94C2
:1047B0008742892B39F2FFEFAF1ABF0A8AE0A816A9
:1047C000B10419F730E020E0790145E0EE0CFF1C60
:1047D0004A95E1F7C7018353934BFC01448D411186
:1047E000C8CF612F702F882009F20E949042F701F4
:1047F000E353F34BC48FA9CF4091CA4C5091CB4C9B
:10480000BC018AE49BE40E944F4881E08093CC4C39
:1048100008952F923F924F925F926F927F928F9264
:104820009F92AF92BF92CF92DF92EF92FF920F933F
:104830001F93CF93DF93CDB7DEB76297CDBFDEBFB7
:104840003C01698B7A8B4A01180129011092CC4CEA
:104850004093CA4C5093CB4C21E041E06CEF73E2A3
:10486000FBDE182F882309F442C029863A864B863E
:104870005C860E944B0D6D877E878F87988BA982FF
:10488000BA82CB82DC820E944B0D6D837E838F8344
:1048900098878091CC4C81111AC0CE0109960E9454
:1048A000FC10811114C00E941F118FE697E101973F
:1048B000F1F700C00000E114F10459F3CE010196B4
:1048C0000E94FC10882329F3F7010995DCCF61E0F1
:1048D000C30102D81091CC4C112349F089899A89DF
:1048E000009729F0A4016AE47BE40E944F48812FDD
:1048F0006296CDBFDEBFDF91CF911F910F91FF90E8
:10490000EF90DF90CF90BF90AF909F908F907F906F
:104910006F905F904F903F902F9008952F923F920D
:104920004F925F926F927F928F929F92AF92BF92BF
:10493000CF92DF92EF92FF920F931F93CF93DF936B
:10494000CDB7DEB7C05FD109CDBFDEBFE114F10442
:1049500009F424C10097C9F482EE90E0C051DF4F02
:10496000CDBFDEBFDF91CF911F910F91FF90EF90F0
:10497000DF90CF90BF90AF909F908F907F906F907F
:104980005F904F903F902F900895DC01ED91FC9146
:104990000280F381E02DD12CC12CEF2BA1F0B0E4EB
:1049A000CB2ED12C613079F0E0E8CE2ED12C6230C4
:1049B00051F474E2C72ED12C4830510521F4A0EAFD
:1049C000CA2EDD24D394F701E20FF31FCE16DF06C3
:1049D00018F21701C151DF4F08831983CF5ED04011
:1049E0002901C751DF4F6883C95ED040C351DF4FF3
:1049F00088839983CD5ED0405901E5E0B694A794B1
:104A0000EA95E1F79A01F3E0220F331FFA95E1F7F7
:104A1000C651DF4F28833983CA5ED04030E2C85187
:104A2000DF4F3883C85ED04010E000E0F12CE12C6D
:104A3000462F4068C451DF4F4883CC5ED040C851F8
:104A4000DF4F5881C85ED040503209F0AAC0C5017E
:104A500075E0880F991F7A95E1F7D601A81BB90B6D
:104A6000909710F0802F10C082010E0D1F1D16951B
:104A700007951695079507701127802FB4E0C85148
:104A8000DF4FB883C85ED040877090E0C751DF4FDA
:104A90003881C95ED040323009F48CC0950153E0B2
:104AA000220F331F5A95E1F7287F3770822B932B03
:104AB000C851DF4F5881C85ED040C451DF4F2881B4
:104AC000CC5ED040503229F0C751DF4F2881C95EFB
:104AD000D0402C838D839E8382E08B8397E09A83E2
:104AE000CE0101960E945612C351DF4F6881798131
:104AF000CD5ED040CE01019627D8009709F02ECF89
:104B0000C851DF4FA881C85ED0408A2E912CA401E5
:104B1000BE01685F7F4FCE0188539F4F0E944F4870
:104B2000C50123E0880F991F2A95E1F7800F911F97
:104B3000880F991F880F991F70E060E08415950514
:104B400018F4B201681B790B861A970A31016E18A6
:104B50007F088614970408F4340128EC30E02C0F09
:104B60003D1F620F731FA301C151DF4F88819981DF
:104B7000CF5ED0408E0D9F1D0E944F48E60CF71C63
:104B8000C851DF4F3881C85ED0403032F1F44FEF6A
:104B9000A41AB40AE214F30408F451CF90E080E0C0
:104BA000DDCEC851DF4F2881C85ED040243009F0E7
:104BB000D3CE58CF3A2D2227C651DF4F4881598195
:104BC000CA5ED040242B352B71CF0F5F1F4FE2CF31
:104BD0004F925F926F927F928F929F92AF92BF920D
:104BE000CF92DF92EF92FF920F931F93CF93DF93B9
:104BF00000D0CDB7DEB72091145030911550232B43
:104C0000C1F4FA011082118282EE90E00F900F90B1
:104C1000DF91CF911F910F91FF90EF90DF90CF9098
:104C2000BF90AF909F908F907F906F905F904F90CC
:104C300008955A013B012C01912C812C82E0E82E31
:104C4000F12C8E010F5F1F4F940148E050E062E0AD
:104C5000809114509091155061DE009721F0F5017C
:104C600010821182D3CFC9808A8180FBDD24D0F8E5
:104C7000982F96959415150451F5C818D9089601E2
:104C800021503109F5018081918182179307D0F07D
:104C9000F2E0CF1AD10894012E5F3F4F76018301D5
:104CA00048E050E062E0809114509091155036DE5B
:104CB000F5010097A9F6C082D182C60CD71CF60177
:104CC0001082A4CF108211828DEE90E09FCF8E7F54
:104CD00039F04601C4010296813A914008F4AECF02
:104CE000F5011082118283EE90E090CFEF92FF9257
:104CF0000F931F93CF93DF9380912853882349F01C
:104D000090E080E0DF91CF911F910F91FF90EF90A5
:104D1000089581E080932853C0911450D09115508C
:104D2000209731F1E881F9813097C1F0808191813C
:104D3000892B41F4E0910A40F0910B40309731F516
:104D40001E821F82E881F98180819181069731F46A
:104D50008A819B810E94DD461A821B8280911450B9
:104D6000909115500E94DD461092145010921550EB
:104D700086E190E00E944146EC01892B69F4109293
:104D800014501092155081EE90E0BCCF8E819F811F
:104D90000995892BA9F2D6CF84E1FE013296DF0175
:104DA0001D928A95E9F78DE190E48883998380913B
:104DB0001D4090911E40892B09F044C080E090E492
:104DC0008A839B831C821D82E0910040F091014008
:104DD0003097C1F18091024090910340892B91F16D
:104DE0006DE170E4CE010995892B61F5EA81FB81C3
:104DF0000280F381E02DCE010995892B19F5C0932E
:104E00001450D093155080911F40909120400397EB
:104E100009F076CF8E01075F1F4FEE24E394F12C4B
:104E200023E130E050E040E060E0CE0177DD009724
:104E300009F068CFE0911450F09115502185287F3A
:104E4000218760CFCE010E94DD4699CF6F927F927D
:104E50008F929F92AF92BF92CF92DF92EF92FF928A
:104E60000F931F93CF93DF93CDB7DEB7162F5A0161
:104E70004901CDB6DEB6FC0101900020E9F731977B
:104E8000E81BF90B9F012F5F3F4F4DB75EB7421BE9
:104E9000530B4DBF5EBFADB7BEB711963D017D014F
:104EA000ADB7BEB711961C92D301E60DF71DEA17F8
:104EB000FB0729F011961C9211971196F8CFBC01AF
:104EC000C3010E946C48002311F1602F002E000CDA
:104ED000770BC3010E945848FC01892B91F480E0B4
:104EE000CDBEDEBEDF91CF911F910F91FF90EF906D
:104EF000DF90CF90BF90AF909F908F907F906F90FA
:104F000008957F0181910817E1F38032D1F36CE2BB
:104F100070E0C7010E945848370101E0009719F579
:104F20001111DDCFF70101900020E9F7CF010197C2
:104F3000FC0110826DE070E0C3010E9458480097A8
:104F400011F0DC011C92F30101900020E9F7319788
:104F5000E619F709E815F90510F6B301C5010E9435
:104F60006C4881E0BDCF101718F33C01BFEF6B1AFE
:104F70007B0A6CE270E0C3010E9458480F5F009703
:104F800091F7D0CFCF93DF93CDB7DEB72E97CDBFBC
:104F9000DEBF809115539091165397FD1DC069ECAB
:104FA00078E180911353909114530E94610D8BEA24
:104FB0009CE089879A871B861C8682E08C8380917F
:104FC0001353909114538D879E87BE016F5F7F4F5F
:104FD00081E491E40E9482482E96CDBFDEBFDF912E
:104FE000CF910895FF920F931F93CF93DF93CDB787
:104FF000DEB76C97CDBFDEBF88EB98E19F938F93B0
:1050000003E113E51F930F930E942F1786E797E1A3
:105010008F8B988F198E1A8E82E0F82EFA8A1B8E4B
:105020001C8E0F900F900F900F90809115539091C0
:105030001653049751F569EC78E1809113539091E0
:1050400014530E94610D8BEA9CE089879A871B8626
:105050001C86FC8280911353909114538D879E87F8
:10506000AE01475D5F4F6EA17FA1CE0101960E9408
:10507000E83A85EB98E19F938F931F930F930E94DB
:105080003E170F900F900F900F90AE01475D5F4F4E
:105090006EA17FA1CE010F960E94E83A97FD08C04D
:1050A00070E060E08DE00E94761721E0892B09F026
:1050B00020E0822F6C96CDBFDEBFDF91CF911F9194
:1050C0000F91FF900895AF92BF92CF92DF92EF922F
:1050D000FF920F931F93CF93DF93CDB7DEB7A397C4
:1050E000CDBFDEBF6C01DC010D900020E9F7119708
:1050F0008D01081B190BF090484BF11017C08DEF74
:105100009FE00E94C10D61E082E00E94F3198F2DA3
:10511000A396CDBFDEBFDF91CF911F910F91FF907E
:10512000EF90DF90CF90BF90AF90089561E082E064
:1051300090E00E94F21AC8011F921F929F930F9352
:105140001F9281E08F9322E439E43F932F938F9352
:105150008CED9FE09F938F9383E190E59F938F93D6
:105160000E94EE1740ED57E060E070E08EE30E9491
:105170006C11F82ECDBFDEBF61EB7FE0882309F410
:1051800043C0DF92CF9283E99FE09F938F9383E1A7
:1051900093E59F938F930E942F1776010C0D1D1D91
:1051A0000F900F900F900F900F900F90E016F10658
:1051B00049F070E060E0D7018D917D010E94761783
:1051C000892BA1F319821A82FE0133968EE1DF0149
:1051D0001D928A95E9F719A21AA21BA2A12CB12C43
:1051E0006501F12CE12C00E315E720E030E040E21E
:1051F00050E0BE016F5F7F4F81E89FE00ADBF82E31
:1052000081110CC068E27FE082E090E00E94850D91
:1052100061E082E090E00E94D81A79CF0E94A61146
:1052200000E023E030E0AE014F5D5F4F62E0CE0171
:1052300001960CDEF82E811105C08FEE9EE00E94D3
:10524000C10DE6CFCE0181960E9485418C0197FF6A
:1052500003C011950195110961E082E090E00E9480
:10526000D81A002309F453CF802F880F990B81544B
:105270009E4E092E000CAA0BBB0BABBFFC01879105
:1052800096919F938F9387EC9EE09F938F9383E1FA
:1052900093E59F938F930E9420170F900F900F908C
:1052A0000F900F900F90F12C32CFAF92BF92CF9210
:1052B000DF92EF92FF920F931F93CF93DF93CDB7BF
:1052C000DEB7C75AD109CDBFDEBF1091484B8AE87F
:1052D0009EE0112309F459C01F9281E08F9382EC64
:1052E00098E49F938F931F921F921F921F928BE6B9
:1052F0009EE09F938F9383E190E59F938F930E940D
:10530000E818CDBFDEBF81309105A9F099279F93A2
:105310008F938AE39EE09F938F9383E193E59F931E
:105320008F930E9420170F900F900F900F900F9067
:105330000F9010E02CC019821A82FE01339682EA87
:10534000DF011D928A95E9F7CB55DF4F188219824C
:10535000C55AD040C955DF4F1882C75AD040A12C3A
:10536000B12C6501F12CE12C00E21EE420E030E0DC
:1053700044EA50E0BE016F5F7F4F86E29EE049DA6B
:10538000182F811114C087EF9DE00E94C10D812F5D
:10539000C955DF4FCDBFDEBFDF91CF911F910F9178
:1053A000FF90EF90DF90CF90BF90AF90089500E016
:1053B00023E030E0AE014B555F4F62E0CE01019635
:1053C00045DD182F8CEB9DE01123F9F2CE018B55B2
:1053D0009F4F0E94854197FF03C091958195910948
:1053E0008823A9F2880F990B81549E4E092E000C38
:1053F000AA0BBB0BABBFFC01879196919F938F9338
:1054000083E99DE088CF2F923F924F925F926F92F7
:105410007F928F929F92AF92BF92CF92DF92EF9244
:10542000FF920F931F93CF93DF93CDB7DEB7C45492
:10543000D340CDBFDEBF80E890E0CD5BDC4F8883FA
:105440009983C354D340CF5BDC4F88839983C15485
:10545000D3407E0127EBE21A2DEFF20AAE014D5B3D
:105460005C4FB70181E090E0B3DB009799F1833E98
:10547000910529F483E396E10E94C10D12C09F9328
:105480008F9386EF95E19F938F9383E193E59F93AD
:105490008F930E9420170F900F900F900F900F90F6
:1054A0000F90D12C8D2DCC5BDC4FCDBFDEBFDF91BB
:1054B000CF911F910F91FF90EF90DF90CF90BF9011
:1054C000AF909F908F907F906F905F904F903F90A4
:1054D0002F9008958E0107531E4FAE014F5B5C4F16
:1054E000B80182E090E074DB009729F09F938F93DE
:1054F0008BEB95E1C8CFFF92EF921F930F9383E858
:1055000095E19F938F9383E193E59F938F930E94FF
:105510002F17D090494BCDBFDEBFDD2019F210927E
:10552000484BBB24B394BF928BE695E19F938F9336
:1055300033E1C32E30E5D32EDF92CF920E94EE17D7
:1055400070E060E090E080E00E94431819821A82C7
:105550001E0153E0250E311C8EEFD1011D928A955C
:10556000E9F7BF921F92FE0131963F01FF93EF933F
:1055700088ED90E19F938F93DF92CF920E94E8187D
:10558000CDBFDEBF019739F087EB90E10E94C10DDE
:1055900089EE94E171CF65E471E4C3010E94D342C6
:1055A0004E013EEF831A930A28E4C22E21E4D22E44
:1055B000009771F39F928F92DF92CF920B969F93F9
:1055C0008F930E94AB480F900F900F900F900F9009
:1055D0000F90D4018D919C91019741F487DB009746
:1055E00061F09F938F9385EB94E14DCF65E471E477
:1055F00090E080E00E94D342DBCF1F92B1E0BF93E6
:1056000080E491E49F938F939F938F93FF92EF9207
:105610001F921F921F921F9282E994E19F938F9392
:1056200083E1E82E80E5F82EFF92EF920E94E818C1
:10563000CDBFDEBF8130910531F099279F938F93C5
:1056400081EC93E120CF84E08F9380EB8F9382E213
:105650008F9383EB8F931F930F931F921F921F9231
:105660001F9281EA93E19F938F93FF92EF920E94A2
:10567000E818CDBFDEBF8130910531F099279F93A7
:105680008F9383E693E1FFCE89E493E19F938F9319
:10569000F3E14F2EF3E55F2E5F924F920E944D177C
:1056A000A4EFAA2EBB24B394C12CD12CBBE4EB2EC7
:1056B000BBE1FB2E00E315E720E030E041E851E0DC
:1056C00067EC79E48EE393E1A4D80F900F900F90EC
:1056D0000F90811112C083EA92E19F938F9388E328
:1056E00093E19F938F935F924F920E943E1761E0E8
:1056F00081E090E00E94D81ACECE19821A828FEFF4
:10570000D1011D928A95E9F7B1E0B093C64980E8CE
:105710008093450400E026E030E0AE01455C5C4F3C
:1057200060E087EC99E492DB811116C088E691E194
:105730000E94C10D1092C64980E88093460488E714
:1057400092E19F938F938DE992E19F938F9383E1F1
:1057500093E59F938F93C9CF00E021E430E0AE0141
:1057600047535D4F63E087EC99E470DB811103C020
:1057700085E291E1DDCF8E01065F1C4FFE01E7530C
:10578000FD4F7F012801EBE4CE2EE1E4DE2E5E0129
:10579000F7EFAF1AFCEFBF0A1F930F93DF92CF9280
:1057A000FF92EF920E94AB4822E0E20EF11C0F5FE5
:1057B0001F4F0F900F900F900F900F900F90EA14C3
:1057C000FB0451F70091145010911550C8010E942C
:1057D000E7120197039708F004C1D801ED91FC91FD
:1057E000828193810397E1F470E2F72E80E4836075
:1057F00001151105C1F482EE90E09F938F938FEF16
:1058000090E19F938F9383E193E59F938F930E9401
:1058100020170F900F900F900F900F900F908ACF3E
:10582000F12C80E0E4CFF40183831482158280E2BE
:10583000F201D401169601900D928A95E1F786E166
:10584000D40112968C93129767E2E62E1196EC9291
:10585000C4010E945612B801C4010E94A41D009701
:1058600061F68F2D8068F401838314821582C8014C
:105870000E94E71221E4D40112962C93129780978C
:105880000297A8F087E011968C93C4010E945612EB
:10589000B801C4010E94A41D009709F0AECFD40145
:1058A00016968C91833431F086EE90E0A6CFF40109
:1058B000E182EBCF80E4F4013796DE01A753BD4FC0
:1058C00001900D928A95E1F781E1E1E5F1E4DE01D5
:1058D000A65DBC4F01900D928A95E1F7F4011192FB
:1058E00011928FE7DF011D928A95E9F7FE01E753D8
:1058F000FD4FC4012191A22F022E000CBB0B54E0DE
:10590000B595A7955A95E1F7AF70BB274AE253E0EA
:105910004C0F5D1FA40FB51F3C91DC013C93A22FDF
:10592000AF709A012A0F311DD9012C91DC0111961B
:105930002C930296AE16BF06E9F6CE57DE4F1882BC
:10594000C258D140CE01855C9C4F0E9485419F92F8
:105950008F929F938F9384EE90E19F938F937F928A
:105960006F920E94404381E08F937F926F9283E118
:1059700090E59F938F9336DB1092C64980E8809321
:10598000460434EFA32EBB24B394C12CD12C4BE49A
:10599000E42E4BE1F42E00E315E720E030E041E88F
:1059A00051E067EC79E486E692E10E940924D82E62
:1059B000CDBFDEBF8823C1F019821A821B8200E0AE
:1059C00023E030E0A30162E087EC99E43FDAD82ECF
:1059D000811124C08DEF91E19F938F938DE292E12D
:1059E00009C085EF90E009CF83E392E19F938F9305
:1059F00080E692E19F938F9383E193E59F938F934A
:105A00000E943E1761E081E090E00E94D81A0F905A
:105A10000F900F900F900F900F9044CDC3010E94F4
:105A2000854197FF03C0919581959109811119C016
:105A300068EF71E190E080E00E94850D81E0809345
:105A4000484B61E081E090E00E94F21A21E041E0E1
:105A500064EE7AE183EE91E10E942C23D090484BD2
:105A600021CD9927880F991F81549E4E092E000C35
:105A7000AA0BBB0BABBFFC01879196919F938F93B1
:105A80008BE991E19F938F9383E193E59F938F93AC
:105A90000E943E171092484B61E081E090E00E9426
:105AA000D81A0F900F900F900F900F900F90D6CFA5
:105AB000AF92BF92CF92DF92EF92FF920F931F931C
:105AC000CF93DF938BE593E18093C3499093C449CF
:105AD00085E693E180938C4390938D4321E041E0F0
